:400000000080002011000000E1400000E140000080B500AF024A034B1B68136004F06AF8BC760040FA460040010000000020004001000000002001400100000000480040C5
:400040000100000000480140010000000100000008000223000008760800032300001076080004230000287608000523000030760500062300002070050007230000307065
:4000800005000823000060700500FE230000707010000A220000005130000B22000040511000FE220000C05180030D220000000080000E220000800480010F2200000006E0
:4000C00080001022000000410001112200000044800012220000004780001322000000488000FE220000004D070015230000085207001623000010520700172300001852CA
:4001000007001823000078520C0019230000004F0C001A2300000C4F0C001B230000184F20001C23000070642000FE230000706508001E230000005180001F23000000041E
:4001400080002023000000088000212300008008800022230000000A800023230000800A800024230000000C800025230000800C800026230000000E800027230000800EF3
:400180008000282300000014800029230000801480002A230000001680002B230000801680002C230000001880002D230000801880002E230000001A80002F230000801A13
:4001C00010003023000010501000312300000050800032230000804D800033230000004C800034230000804C800035230000804780003623000000468000372300008046C3
:400200008000382300000045800039230000804580003A230000001B80003B230000801B80003C230000001580003D230000801580003E230000001980003F2300008019AE
:4002400080004023000000178000412300008017800042230000000980004323000080098000442300008007800045230000000B800046230000800B8000472300000005E8
:400280008000482300008005800049230000000D80004A230000800D80004B230000800380004C230000000F80004D230000800F80004E230000004980004F230000804978
:4002C00080005023000080488000512300000043800052230000804380005323000000428000542300008042800055230000804180005623000000408000FE230000804010
:4003000010B5054C237833B9044B13B10448AFF300800123237010BDF883FF1F00000000CC560000084B10B51BB108490848AFF300800848036803B910BD074B002BFBD02D
:40034000BDE81040184700BF00000000FC83FF1FCC560000C880FF1F0000000090B583B000AF684B1B78FF2B07D0664B93F82331FF2B02D1644B01221A70624B1B78FF2B84
:4003800007D0604B93F82331FF2B02D05E4B02221A705C4B93F84632FF2B07D0594B93F86933FF2B02D1584B03221A70554B93F84632FF2B07D0534B93F86933FF2B02D05F
:4003C000514B04221A70504B1B78012B09D14D4B1B78184602F05AF903461A46494B83F84C20494B1B78022B14D1464B1B78184602F04CF903461A46424B83F84C20414BF0
:4004000093F82331184602F041F903461A463D4B83F86F213C4B1B78032B2ED10023FB7128E0FC79374B1B78184602F02FF903461A46344B234483F84C20FC79314B93F845
:400440002331184602F022F903461A462D4B234483F86F21FC792B4B93F84632184602F015F903461A46274B234483F89222FB790133FB71FB79042BD3D9234B1B78042B9A
:400480003BD10023FB7135E0FC791E4B1B78184602F0FCF803461A461A4B234483F84C20FC79184B93F82331184602F0EFF803461A46144B234483F86F21FC79114B93F8B7
:4004C0004632184602F0E2F803461A460D4B234483F89222FC790B4B93F86933184602F0D5F803461A46074B234483F8B523FB790133FB71FB79042BC6D900BF0C37BD46A4
:4005000090BD00BF4484FF1F4C89FF1F90B583B000AFAD4B03221A7003F080FE62B603F0CFFF04F069FA04F061FB04F063FC04F097FE04F01DFAA54B012283F82920A34B6B
:40054000042283F82A20A14B202283F82B209F4B002283F84C219D4B842283F84D219B4B552283F84E21994B93F829301B09DBB23033DAB2954B83F80B21944B93F8293038
:4005800003F00F03DBB23033DAB2904B83F80C218E4B93F82A301B09DBB23033DAB28B4B83F80D21894B93F82A3003F00F03DBB23033DAB2854B83F80E21844B93F82B30F1
:4005C0001B09DBB23033DAB2804B83F80F217F4B93F82B3003F00F03DBB23033DAB27B4B83F81021794B93F84C311B09DBB23033DAB2764B83F82E22744B93F84C3103F090
:400600000F03DBB23033DAB2704B83F82F226F4B93F84D311B09DBB23033DAB26B4B83F830226A4B93F84D3103F00F03DBB23033DAB2664B83F83122644B93F84E311B0924
:40064000DBB23033DAB2614B83F832225F4B93F84E3103F00F03DBB23033DAB25B4B83F833220023FB710BE0FC79FB79184601F047FF03461A46564B1A55FB790133FB7113
:40068000FB790F2BF0D9524B5A78504B1A70504B9A784E4B83F823214D4BDA784B4B83F846224B4B1A79494B83F86923474B00221A70464B012283F82321464B00221A7015
:4006C000454B01221A7004F061FC03467B707B78082B12D90023BB7109E0BC7904F00EFC03461A463D4B1A55BB790133BB71BA797B789A42F1D300237B705A2004F08EFCBC
:40070000364B1B7A302B18D1304B1B783449184602F07EF82D4B1B78184601F049FF00237B7106E07B792D4A0021D1547B7901337B717B79132BF5D901E0FFF70FFE274B5C
:400740001B7A352B23D1214B1B78184601F09EFF1E4B18781F4B1B780122194602F0E4F81A4B1B78184601F091FF00233B7106E03B791A4A0021D1543B7901333B713B792D
:40078000132BF5D9114B1B78184602F053F9134B1B7A362B36D10D4B93F82331184601F075FF0A4B93F823010A4B1B780122194602F0BAF8054B93F82331184601F066FF58
:4007C0000023FB7015E000BF1689FF1F4484FF1FD488FF1F4A89FF1F4B89FF1F5489FF1F6D84FF1FFB782A4A0021D154FB780133FB70FB78132BF5D9264B93F82331184641
:4008000002F018F9224B1B7A372B7FF45CAF214B1B78184601F03AFF1E4B18781E4B1B780122194602F080F81A4B1B78184601F02DFF184B93F82331184601F027FF154BE1
:4008400093F82301144B1B780122194602F06CF8104B93F82331184601F018FF0023BB7006E0BB780A4A0021D154BB780133BB70BB78132BF5D9074B1B78184602F022FF37
:40088000044B93F82331184602F01CFF1BE700BF5489FF1F4484FF1F4A89FF1F80B489B000AF78600B467B800023FB830023BB617B68002B2FD1002368E0FB8BDB0B9BB2BA
:4008C000BB60FB8B5B00FB837B681B781A46BB6942FA03F31BB203F001031AB2B7F91E3013431BB2FB83BB690133BB61BB69072B07DD0023BB617B6801337B607B88013B05
:400900007B80BB68002B06D0FB8B83F4FF4383F07A03DB43FB837B88002BCED100237B6113E0FB8BDB0B9BB2BB60FB8B5B00FB83BB68002B06D0FB8B83F4FF4383F07A0388
:40094000DB43FB837B6901337B617B690F2BE8DD00237B824FF400437B610123FB6011E0FA8B7B691340002B06D0FB681AB2B7F9123013431BB27B827B695B107B61FB6886
:400980005B00FB607B69002BEAD17B8A18462437BD4680BC704700BFF0B587B000AF164B1B783B72144B5B7803F00F03FB71134B1B78FA799A4240F0B0830123FB750CE052
:4009C000FB7D013BFA7D0C49895C0C4A13440A4683F85120FB7D0133FB75FA7D3B7A01339A42EDDB054B93F85330652B40F07F820523BB7525E000BFE488FF1F4484FF1FDE
:400A0000CD4B93F8553003F00F03591ECB4B1B781D46BB7D581FBB7DC74A134493F85160C54C2A4692002A440B469B000B445B00134423440344013332461A70BB7D0133BD
:400A4000BB75BA7DBC4B93F8543004339A42D7DBB94B93F8553003F00F03591EB74B1B781D46B54B93F8553003F00F03581EB34B1B78B14C1A4692001A4403469B00034418
:400A80005B001344234401331B781B09DBB23033DCB2A9482A4692002A4453001A460B461B015B1A5B0013440344833322461A70A14B93F8553003F00F03591E9F4B1B7828
:400AC0001D469D4B93F8553003F00F03581E9B4B1B78994C1A4692001A4403469B0003445B001344234401331B7803F00F03DBB23033DCB290482A4692002A4453001A46E9
:400B00000B461B015B1A5B0013440344843322461A70894B93F8553003F00F03591E874B1B781D46844B93F8553003F00F03581E824B1B78804C1A4692001A4403469B004F
:400B400003445B001344234402331B781B09DBB23033DCB278482A4692002A4453001A460B461B015B1A5B0013440344853322461A70714B93F8553003F00F03591E6F4B41
:400B80001B781D466C4B93F8553003F00F03581E6A4B1B78684C1A4692001A4403469B0003445B001344234402331B7803F00F03DBB23033DCB260482A4692002A445300B7
:400BC0001A460B461B015B1A5B0013440344863322461A70584B93F8553003F00F03591E564B1B781D46544B93F8553003F00F03581E524B1B78504C1A4692001A440346BA
:400C00009B0003445B001344234403331B781B09DBB23033DCB248482A4692002A4453001A460B461B015B1A5B0013440344873322461A70404B93F8553003F00F03591EFD
:400C40003E4B1B781D463C4B93F8553003F00F03581E3A4B1B78384C1A4692001A4403469B0003445B001344234403331B7803F00F03DBB23033DCB22F482A4692002A4480
:400C800053001A460B461B015B1A5B0013440344883322461A70284B93F8553003F00F03591E264B1B781D46234B93F8553003F00F03581E214B1B781F4C1A4692001A44E0
:400CC00003469B0003445B001344234404331B781B09DBB23033DCB217482A4692002A4453001A460B461B015B1A5B0013440344893322461A70104B93F8553003F00F03C9
:400D0000591E0E4B1B781D460B4B93F8553003F00F03581E094B1B78074C1A4692001A4403469B0003445B001344234404331B7803F00F03DBB203E04484FF1F4A89FF1F28
:400D40003033DCB2B6482A4692002A4453001A460B461B015B1A5B00134403448A3322461A70AF4B93F8553003F00F03591EAD4B1B781D46AA4B93F8553003F00F03581EE3
:400D8000A84B1B78A64C1A4692001A4403469B0003445B001344234405331B781B09DBB23033DCB29E482A4692002A4453001A460B461B015B1A5B00134403448B332246B0
:400DC0001A70974B93F8553003F00F03591E954B1B781D46924B93F8553003F00F03581E904B1B788E4C1A4692001A4403469B0003445B001344234405331B7803F00F0311
:400E0000DBB23033DCB286482A4692002A4453001A460B461B015B1A5B00134403448C3322461A7000237B753AE07D4B93F8553003F00F03591E7B4B1B7897F91500784C74
:400E40001A4692001A4453001A460B461B015B1A5B0013442344034483331B78302B24D16F4B93F8553003F00F03591E6D4B1B7897F915006A4C1A4692001A4453001A46A5
:400E80000B461B015B1A5B00134423440344833300221A7097F91530DBB20133DBB27B7597F91530072BC0DD00E000BF012003F081FEFB7943F05003DBB2184603F042FC8F
:400EC000574B93F852305BB203F00F035BB263F03F035BB2DBB2184603F034FCFA2003F031FC042003F06AFA002003F063FE4C4B93F85330022B40F0108104233B751BE0E6
:400F00003B7D043B3A7D46490A4492F85110444A13440A4683F839203B7D043B3A7D04323F490A4492F851103D4A13440A4683F835203B7D01333B753B7D072BE0D9384BCD
:400F400093F839301B09DBB23033DAB2344B83F80321334B93F8393003F00F03DBB23033DAB22F4B83F804212D4B93F83A301B09DBB23033DAB22A4B83F80521284B93F891
:400F80003A3003F00F03DBB23033DAB2244B83F80621234B93F83B301B09DBB23033DAB21F4B83F807211E4B93F83B3003F00F03DBB23033DAB21A4B83F80821184B93F84D
:400FC0003C301B09DBB23033DAB2154B83F80921134B93F83C3003F00F03DBB23033DAB20F4B83F80A210023FB7414E097F913300B4A134493F80331302B15D197F9133032
:40100000074A1344002283F8032197F91330DBB20133DBB2FB7497F91330072BE6DD04E04484FF1F4A89FF1F00BF4E4B93F835301B09DBB23033DAB24A4B83F8FB20494B8D
:4010400093F8353003F00F03DBB23033DAB2454B83F8FC20434B93F836301B09DBB23033DAB2404B83F8FD203E4B93F8363003F00F03DBB23033DAB23A4B83F8FE20394BF9
:4010800093F837301B09DBB23033DAB2354B83F8FF20344B93F8373003F00F03DBB23033DAB2304B83F800212E4B93F838301B09DBB23033DAB22B4B83F80121294B93F85D
:4010C000383003F00F03DBB23033DAB2254B83F802210023BB7414E097F91230214A134493F8FB30302B11D197F912301D4A1344002283F8FB2097F91230DBB20133DBB2C4
:40110000BB7497F91230072BE6DD00E000BF164B01221A70002003F04DFD124B93F82331FA799A4240F04B8301237B740CE07B7C013B7A7C0D49895C0A4A13440A4683F84D
:4011400074217B7C01337B747A7C3B7A01339A42EDDB044B93F87631652B40F0548205233B7427E04484FF1F4B89FF1FE488FF1FCD4B93F8783103F00F03591ECB4B1B7875
:401180001D463B7C581F3B7CC74A134493F87461C54C2A4692002A440B469B000B445B0013442344034403F5927332461A703B7C01333B743A7CBC4B93F8773104339A4267
:4011C000D6DBB94B93F8783103F00F03591EB74B1B781D46B44B93F8783103F00F03581EB24B1B78B04C1A4692001A4403469B0003445B001344234403F592731B781B0910
:40120000DBB23033DCB2A8482A4692002A4453001A460B461B015B1A5B001344034403F5D37322461A70A04B93F8783103F00F03591E9E4B1B781D469B4B93F8783103F08B
:401240000F03581E994B1B78974C1A4692001A4403469B0003445B001344234403F592731B7803F00F03DBB23033DCB28E482A4692002A4453001A460B461B015B1A5B00AF
:401280001344034403F2A71322461A70864B93F8783103F00F03591E844B1B781D46824B93F8783103F00F03581E804B1B787E4C1A4692001A4403469B0003445B001344D8
:4012C000234403F225131B781B09DBB23033DCB275482A4692002A4453001A460B461B015B1A5B001344034403F5D47322461A706D4B93F8783103F00F03591E6B4B1B7888
:401300001D46694B93F8783103F00F03581E674B1B78654C1A4692001A4403469B0003445B001344234403F225131B7803F00F03DBB23033DCB25C482A4692002A445300B3
:401340001A460B461B015B1A5B001344034403F2A91322461A70544B93F8783103F00F03591E524B1B781D464F4B93F8783103F00F03581E4D4B1B784B4C1A4692001A4452
:4013800003469B0003445B001344234403F593731B781B09DBB23033DCB243482A4692002A4453001A460B461B015B1A5B001344034403F5D57322461A703B4B93F8783141
:4013C00003F00F03591E394B1B781D46364B93F8783103F00F03581E344B1B78324C1A4692001A4403469B0003445B001344234403F593731B7803F00F03DBB23033DCB28F
:4014000029482A4692002A4453001A460B461B015B1A5B001344034403F2AB1322461A70214B93F8783103F00F03591E1F4B1B781D461D4B93F8783103F00F03581E1B4B9F
:401440001B78194C1A4692001A4403469B0003445B001344234403F227131B781B09DBB23033DCB210482A4692002A4453001A460B461B015B1A5B001344034403F5D673E5
:4014800022461A70084B93F8783103F00F03591E064B1B781D46044B93F8783103F00F03581E024B1B7803E04484FF1F4A89FF1F594C1A4692001A4403469B0003445B00DD
:4014C0001344234403F227131B7803F00F03DBB23033DCB250482A4692002A4453001A460B461B015B1A5B001344034403F2AD1322461A70484B93F8783103F00F03591E69
:40150000464B1B781D46444B93F8783103F00F03581E424B1B78404C1A4692001A4403469B0003445B001344234403F594731B781B09DBB23033DCB237482A4692002A4483
:4015400053001A460B461B015B1A5B001344034403F5D77322461A702F4B93F8783103F00F03591E2D4B1B781D462B4B93F8783103F00F03581E294B1B78274C1A46920080
:401580001A4403469B0003445B001344234403F594731B7803F00F03DBB23033DCB21E482A4692002A4453001A460B461B015B1A5B001344034403F2AF1322461A70184B04
:4015C00005221A70012003F0F5FAFB7943F05003DBB2184603F0B6F80F4B93F875315BB203F00F035BB263F03F035BB2DBB2184603F0A8F8FA2003F0A5F8042002F0DEFE4B
:40160000002003F0D7FA044B93F87631022B40F0D6800423FB7321E04484FF1F4A89FF1F4B89FF1FFB7B043BFA7B77490A4492F87411754A13440A4683F85C21FB7B043BD9
:40164000FA7B043270490A4492F874116E4A13440A4683F85821FB7B0133FB73FB7B072BE0D9694B93F85C311B09DBB23033DAB2654B83F82622644B93F85C3103F00F0332
:40168000DBB23033DAB2604B83F827225E4B93F85D311B09DBB23033DAB25B4B83F82822594B93F85D3103F00F03DBB23033DAB2554B83F82922544B93F85E311B09DBB264
:4016C0003033DAB2504B83F82A224F4B93F85E3103F00F03DBB23033DAB24B4B83F82B22494B93F85F311B09DBB23033DAB2464B83F82C22444B93F85F3103F00F03DBB221
:401700003033DAB2404B83F82D223F4B93F858311B09DBB23033DAB23B4B83F81E223A4B93F8583103F00F03DBB23033DAB2364B83F81F22344B93F859311B09DBB23033E7
:40174000DAB2314B83F820222F4B93F8593103F00F03DBB23033DAB22B4B83F821222A4B93F85A311B09DBB23033DAB2264B83F82222254B93F85A3103F00F03DBB230338A
:40178000DAB2214B83F823221F4B93F85B311B09DBB23033DAB21C4B83F824221A4B93F85B3103F00F03DBB23033DAB2164B83F82522164B02221A70002003F0FBF9124B95
:4017C00093F84632FA799A4240F042830123BB730CE0BB7B013BBA7B0D49895C0A4A13440A4683F89722BB7B0133BB73BA7B3B7A01339A42EDDB044B93F89932652B40F094
:40180000518205237B7327E04484FF1F4B89FF1FE488FF1FCD4B93F89B3203F00F03591ECB4B1B781D467B7B581F7B7BC74A134493F89762C54C2A4692002A440B469B00A2
:401840000B445B0013442344034403F2472332461A707B7B01337B737A7BBC4B93F89A3204339A42D6DBB94B93F89B3203F00F03591EB74B1B781D46B44B93F89B3203F00F
:401880000F03581EB24B1B78B04C1A4692001A4403469B0003445B001344234403F247231B781B09DBB23033DCB2A8482A4692002A4453001A460B461B015B1A5B00134445
:4018C000034403F2C92322461A70A04B93F89B3203F00F03591E9E4B1B781D469B4B93F89B3203F00F03581E994B1B78974C1A4692001A4403469B0003445B001344234489
:4019000003F247231B7803F00F03DBB23033DCB28E482A4692002A4453001A460B461B015B1A5B001344034403F2CA2322461A70864B93F89B3203F00F03591E844B1B7883
:401940001D46824B93F89B3203F00F03581E804B1B787E4C1A4692001A4403469B0003445B001344234403F512731B781B09DBB23033DCB275482A4692002A4453001A4616
:401980000B461B015B1A5B001344034403F2CB2322461A706D4B93F89B3203F00F03591E6B4B1B781D46694B93F89B3203F00F03581E674B1B78654C1A4692001A44034629
:4019C0009B0003445B001344234403F512731B7803F00F03DBB23033DCB25C482A4692002A4453001A460B461B015B1A5B001344034403F5337322461A70544B93F89B3230
:401A000003F00F03591E524B1B781D464F4B93F89B3203F00F03581E4D4B1B784B4C1A4692001A4403469B0003445B001344234403F249231B781B09DBB23033DCB24348B3
:401A40002A4692002A4453001A460B461B015B1A5B001344034403F2CD2322461A703B4B93F89B3203F00F03591E394B1B781D46364B93F89B3203F00F03581E344B1B7857
:401A8000324C1A4692001A4403469B0003445B001344234403F249231B7803F00F03DBB23033DCB229482A4692002A4453001A460B461B015B1A5B001344034403F2CE2348
:401AC00022461A70214B93F89B3203F00F03591E1F4B1B781D461D4B93F89B3203F00F03581E1B4B1B78194C1A4692001A4403469B0003445B001344234403F24A231B7832
:401B00001B09DBB23033DCB210482A4692002A4453001A460B461B015B1A5B001344034403F2CF2322461A70084B93F89B3203F00F03591E064B1B781D46044B93F89B32BF
:401B400003F00F03581E024B1B7803E04484FF1F4A89FF1FC34C1A4692001A4403469B0003445B001344234403F24A231B7803F00F03DBB23033DCB2BA482A4692002A44C3
:401B800053001A460B461B015B1A5B001344034403F5347322461A70B24B93F89B3203F00F03591EB04B1B781D46AE4B93F89B3203F00F03581EAC4B1B78AA4C1A46920006
:401BC0001A4403469B0003445B001344234403F24B231B781B09DBB23033DCB2A1482A4692002A4453001A460B461B015B1A5B001344034403F2D12322461A70994B93F87A
:401C00009B3203F00F03591E974B1B781D46954B93F89B3203F00F03581E934B1B78914C1A4692001A4403469B0003445B001344234403F24B231B7803F00F03DBB2303303
:401C4000DCB288482A4692002A4453001A460B461B015B1A5B001344034403F2D22322461A70012002F0A6FFFB7943F05003DBB2184602F067FD7B4B93F898325BB203F01E
:401C80000F035BB263F03F035BB2DBB2184602F059FDFA2002F056FD042002F08FFB002002F088FF6F4B93F89932022B40F0D08004233B731BE03B7B043B3A7B69490A4461
:401CC00092F89712674A13440A4683F87F223B7B043B3A7B043263490A4492F89712614A13440A4683F87B223B7B01333B733B7B072BE0D95B4B93F87F321B09DBB2303397
:401D0000DAB2584B83F84923564B93F87F3203F00F03DBB23033DAB2524B83F84A23514B93F880321B09DBB23033DAB24D4B83F84B234C4B93F8803203F00F03DBB23033E7
:401D4000DAB2484B83F84C23464B93F881321B09DBB23033DAB2434B83F84D23414B93F8813203F00F03DBB23033DAB23D4B83F84E233C4B93F882321B09DBB23033DAB24D
:401D8000384B83F84F23374B93F8823203F00F03DBB23033DAB2334B83F85023314B93F87B321B09DBB23033DAB22E4B83F841232C4B93F87B3203F00F03DBB23033DAB229
:401DC000284B83F84223274B93F87C321B09DBB23033DAB2234B83F84323224B93F87C3203F00F03DBB23033DAB21E4B83F844231C4B93F87D321B09DBB23033DAB2194BDF
:401E000083F84523174B93F87D3203F00F03DBB23033DAB2134B83F84623124B93F87E321B09DBB23033DAB20E4B83F847230D4B93F87E3203F00F03DBB23033DAB2094B82
:401E400083F84823094B03221A70002002F0B2FE044B93F86933FA799A4240F047830123FB7212E04484FF1F4A89FF1F4B89FF1FFB7A013BFA7A0C49895C0C4A13440A4650
:401E800083F8BA23FB7A0133FB72FA7A3B7A01339A42EDDB054B93F8BC33652B40F050820523BB7226E000BFE488FF1F4484FF1FCD4B93F8BE3303F00F03591ECB4B1B7814
:401EC0001D46BB7A581FBB7AC74A134493F8BA63C54C2A4692002A440B469B000B445B0013442344034403F26A3332461A70BB7A0133BB72BA7ABC4B93F8BD3304339A427F
:401F0000D6DBB94B93F8BE3303F00F03591EB74B1B781D46B44B93F8BE3303F00F03581EB24B1B78B04C1A4692001A4403469B0003445B001344234403F26A331B781B099D
:401F4000DBB23033DCB2A8482A4692002A4453001A460B461B015B1A5B001344034403F57B7322461A70A04B93F8BE3303F00F03591E9E4B1B781D469B4B93F8BE3303F006
:401F80000F03581E994B1B78974C1A4692001A4403469B0003445B001344234403F26A331B7803F00F03DBB23033DCB28E482A4692002A4453001A460B461B015B1A5B00CD
:401FC0001344034403F2ED3322461A70864B93F8BE3303F00F03591E844B1B781D46824B93F8BE3303F00F03581E804B1B787E4C1A4692001A4403469B0003445B00134495
:40200000234403F26B331B781B09DBB23033DCB275482A4692002A4453001A460B461B015B1A5B001344034403F2EE3322461A706D4B93F8BE3303F00F03591E6B4B1B78B5
:402040001D46694B93F8BE3303F00F03581E674B1B78654C1A4692001A4403469B0003445B001344234403F26B331B7803F00F03DBB23033DCB25C482A4692002A445300B8
:402080001A460B461B015B1A5B001344034403F2EF3322461A70544B93F8BE3303F00F03591E524B1B781D464F4B93F8BE3303F00F03581E4D4B1B784B4C1A4692001A440F
:4020C00003469B0003445B001344234403F55B731B781B09DBB23033DCB243482A4692002A4453001A460B461B015B1A5B001344034403F57C7322461A703B4B93F8BE333D
:4021000003F00F03591E394B1B781D46364B93F8BE3303F00F03581E344B1B78324C1A4692001A4403469B0003445B001344234403F55B731B7803F00F03DBB23033DCB231
:4021400029482A4692002A4453001A460B461B015B1A5B001344034403F2F13322461A70214B93F8BE3303F00F03591E1F4B1B781D461D4B93F8BE3303F00F03581E1B4B5C
:402180001B78194C1A4692001A4403469B0003445B001344234403F26D331B781B09DBB23033DCB210482A4692002A4453001A460B461B015B1A5B001344034403F2F23359
:4021C00022461A70084B93F8BE3303F00F03591E064B1B781D46044B93F8BE3303F00F03581E024B1B7803E04484FF1F4A89FF1FC04C1A4692001A4403469B0003445B0099
:402200001344234403F26D331B7803F00F03DBB23033DCB2B7482A4692002A4453001A460B461B015B1A5B001344034403F2F33322461A70AF4B93F8BE3303F00F03591E39
:40224000AD4B1B781D46AB4B93F8BE3303F00F03581EA94B1B78A74C1A4692001A4403469B0003445B001344234403F26E331B781B09DBB23033DCB29E482A4692002A4454
:4022800053001A460B461B015B1A5B001344034403F57D7322461A70964B93F8BE3303F00F03591E944B1B781D46924B93F8BE3303F00F03581E904B1B788E4C1A469200FA
:4022C0001A4403469B0003445B001344234403F26E331B7803F00F03DBB23033DCB285482A4692002A4453001A460B461B015B1A5B001344034403F2F53322461A70012095
:4023000002F058FCFB7943F05003DBB2184602F019FA784B93F8BB335BB203F00F035BB263F03F035BB2DBB2184602F00BFAFA2002F008FA042002F041F8002002F03AFCE9
:402340006C4B93F8BC33022B40F0D08004237B721BE07B7A043B7A7A66490A4492F8BA13644A13440A4683F8A2237B7A043B7A7A043260490A4492F8BA135E4A13440A4664
:4023800083F89E237B7A01337B727B7A072BE0D9584B93F8A2331B09DBB23033DAB2554B83F86C24534B93F8A23303F00F03DBB23033DAB24F4B83F86D244E4B93F8A3337E
:4023C0001B09DBB23033DAB24A4B83F86E24494B93F8A33303F00F03DBB23033DAB2454B83F86F24434B93F8A4331B09DBB23033DAB2404B83F870243E4B93F8A43303F07F
:402400000F03DBB23033DAB23A4B83F87124394B93F8A5331B09DBB23033DAB2354B83F87224344B93F8A53303F00F03DBB23033DAB2304B83F873242E4B93F89E331B0978
:40244000DBB23033DAB22B4B83F86424294B93F89E3303F00F03DBB23033DAB2254B83F86524244B93F89F331B09DBB23033DAB2204B83F866241F4B93F89F3303F00F03FA
:40248000DBB23033DAB21B4B83F86724194B93F8A0331B09DBB23033DAB2164B83F86824144B93F8A03303F00F03DBB23033DAB2104B83F869240F4B93F8A1331B09DBB25F
:4024C0003033DAB20B4B83F86A240A4B93F8A13303F00F03DBB23033DAB2064B83F86B24064B04221A70002002F064FB00BF1C37BD46F0BD4484FF1F4A89FF1F4B89FF1F01
:4025000090B585B000AF0346FB71274BFF221A70254BFF2283F82321234BFF2283F84622214BFF2283F86923012002F043FBFB7943F05003DBB2184602F004F9202002F0F3
:4025400001F9FA2002F0FEF8042001F037FF002002F030FB02F06EF80346BB730023FB7309E0FC7B02F01EF803461A460F4B1A55FB7B0133FB73FA7BBB7B9A42F1D302F048
:40258000A1F84FF4967001F019FFBB7B002B05D0064B1B7803F00F03DBB200E0FF2318461437BD4690BD00BF4484FF1FE488FF1F80B584B000AF0346FB710023FB7306E016
:4025C000FB7B2E4A0021D154FB7B0133FB73FB7B312BF5D9012002F0EDFAFB7943F05003DAB2264B1A70254B30225A70234B01229A70224B0122DA70204B06221A7105212F
:402600001E48FEF74BF903461A461D4B1A801C4B1B881B0A9BB2DAB21A4B1A70184B1B88DAB2194B1A70184B1A78144B5A71154B1A78124B9A71114B0322DA710F4BFA221E
:402640001A720023BB7308E0BB7B0C4AD35C184602F078F8BB7B0133BB73BB7B092BF3D9042001F0ABFE002002F0A4FAC82001F0A5FE7B7B18461037BD4680BD1889FF1FC8
:402680004E89FF1FD088FF1F5089FF1F90B585B000AF0346FB710023FB7306E0FB7B5A4A0021D154FB7B0133FB73FB7B312BF5D9012002F07FFAFB7943F05003DBB21846DA
:4026C00002F040F8202002F03DF8FA2002F03AF8032001F073FE002002F06CFA01F0AAFF03467B720123BB7309E0BC7B01F05AFF03461A46444B1A55BB7B0133BB73BA7B0E
:402700007B7A01339A42F0DB3F4A7B7A137001F0D9FF7B7A032B05D9FEF73EF9642001F04DFE65E0642001F049FE384B1B78FA799A4212D100237B730BE07B7B7A7B324967
:40274000895C324A13440A4683F851207B7B01337B737A7B7B7A9A42EFD32C4B93F82331FA799A4212D100233B730BE03B7B3A7B2549895C254A13440A4683F874213B7BE7
:4027800001333B733A7B7B7A9A42EFD31F4B93F84632FA799A4212D10023FB720BE0FB7AFA7A1949895C194A13440A4683F89722FB7A0133FB72FA7A7B7A9A42EFD3134BEC
:4027C00093F86933FA799A4212D10023BB720BE0BB7ABA7A0C49895C0C4A13440A4683F8BA23BB7A0133BB72BA7A7B7A9A42EFD37B7A002B02D0044B5B7800E0002318467B
:402800001437BD4690BD00BFE488FF1F4484FF1F90B585B000AF03463960FB71012002F0C9F9FB7943F05003DAB23A4B1A70394B30225A70374B05229A70364B0322DA70AA
:402840003B681A78334B1A713B685A78314B5A713B689A782F4B9A7107212E48FEF71EF803461A462C4B1A802B4B1B881B0A9BB2DAB22A4B1A70284B1B88DAB2284B1A700C
:40288000274B1A78234BDA71244B1A78214B1A72204B03225A721F4BFA229A720023FB7308E0FB7B1B4AD35C184601F04BFFFB7B0133FB73FB7B0B2BF3D9042001F07EFD38
:4028C000002002F077F901F0B5FE03467B730023BB7309E0BC7B01F065FE03461A46114B1A55BB7B0133BB73BA7B7B7B9A42F1D301F0E8FE4FF4FA7001F060FD7B7B002BEC
:4029000002D0084B5B7800E0002318461437BD4690BD00BF1889FF1F4E89FF1FD088FF1F5089FF1FE488FF1F90B585B000AF0346FB710B46BB7113467B71BB791B015AB23D
:4029400097F9053013435BB27B73012002F032F9FB7943F05003DAB2314B1A70304B30225A702F4B65229A702D4B0122DA702C4A7B7B137105212A48FDF790FF03461A463C
:40298000284B1A80274B1B881B0A9BB2DAB2264B1A70244B1B88DAB2244B1A70234B1A781F4B5A71204B1A781D4B9A711C4B0322DA711B4BFA221A720023FB7308E0FB7BEC
:4029C000174AD35C184601F0BDFEFB7B0133FB73FB7B092BF3D9042001F0F0FC002002F0E9F801F027FE03463B730023BB7309E0BC7B01F0D7FD03461A460D4B1A55BB7BD2
:402A00000133BB73BA7B3B7B9A42F1D301F05AFEC82001F0D3FC00BF1437BD4690BD00BF1889FF1F4E89FF1FD088FF1F5089FF1FE488FF1F90B591B000AF0346FB710023E7
:402A400087F83F300BE097F83F30BB4AD35C184602F0E4FA97F83F30013387F83F3097F83F30052BEFD9042001F0A8FC02F08EFA03467B7297F909300C2B18DD002387F807
:402A80003E300CE097F83E4002F038FA03461A46AA4B1A5597F83E30013387F83E3097F83E2097F909309A42ECDB00237B72002387F83D300BE097F83D30A14AD35C184689
:402AC00002F0EAF897F83D30013387F83D3097F83D30152BEFD99B4B1B78184602F0DCF8002387F83C300BE097F83C30964AD35C184602F0D1F897F83C30013387F83C300F
:402B000097F83C30152BEFD98E4B1B78184602F0C3F8002387F83B300BE097F83B308B4AD35C184602F0B8F897F83B30013387F83B3097F83B30152BEFD9824B1B7818464D
:402B400002F0AAF8002387F83A300BE097F83A307F4AD35C184602F09FF897F83A30013387F83A3097F83A30152BEFD9002387F839300BE097F83930764AD35C184602F0AE
:402B80008BF897F83930013387F8393097F83930172BEFD96B4B1B78184602F07DF8002387F838300BE097F838306B4AD35C184602F072F897F83830013387F8383097F843
:402BC00038300C2BEFD95D4B1B7A03F00F03DBB23033DBB2184602F05FF8584B1B7A1B09DBB23033DBB2184602F056F82F2002F053F8524BDB7903F00F03DBB23033DBB292
:402C0000184602F049F84D4BDB791B09DBB23033DBB2184602F040F82F2002F03DF8474B9B7903F00F03DBB23033DBB2184602F033F8424B9B791B09DBB23033DBB2184635
:402C400002F02AF83F4B1B78184602F025F8002387F837300BE097F83730404AD35C184602F01AF897F83730013387F8373097F837300C2BEFD9314B1B7B03F00F03DBB208
:402C80003033DBB2184602F007F82C4B1B7B1B09DBB23033DBB2184601F0FEFF3A2001F0FBFF264BDB7A03F00F03DBB23033DBB2184601F0F1FF214BDB7A1B09DBB230333A
:402CC000DBB2184601F0E8FF3A2001F0E5FF1B4B9B7A03F00F03DBB23033DBB2184601F0DBFF164B9B7A1B09DBB23033DBB2184601F0D2FF134B1B78184601F0CDFF002356
:402D000087F836300BE097F83630124AD35C184601F0C2FF97F83630013387F8363097F83630172BEFD9074B1B78184601F0B4FF002387F835301FE07C83FF1F5489FF1F21
:402D4000D480FF1FCC80FF1FEC80FF1F0481FF1F1C81FF1F6483FF1F8081FF1F9081FF1F97F83530CB4AD35C184601F095FF97F83530013387F8353097F835300C2BEFD922
:402D8000C54B1B78184601F087FFC44B1B78FA799A4240F01181002387F834300BE097F83430BF4AD35C184601F076FF97F83430013387F8343097F83430062BEFD90023EF
:402DC00087F833300BE097F83330B64AD35C184601F062FF97F83330013387F8333097F833300C2BEFD9AD4B1B783133DBB2184601F052FFA84B1B78184601F04DFFA64B0E
:402E00001B78184601F048FF002387F832300BE097F83230A44AD35C184601F03DFF97F83230013387F8323097F832300C2BEFD9002387F831300BE097F831309B4AD35CF9
:402E4000184601F029FF97F83130013387F8313097F83130072BEFD9002387F830300BE097F83030924AD35C184601F015FF97F83030013387F8303097F830300C2BEFD9B3
:402E8000002387F82F3018E097F82F30C3F10803884A1278934202D12E2001F0FDFE97F82F307E4A134493F80331184601F0F4FE97F82F30013387F82F3097F82F30072B01
:402EC000E2D9202001F0E8FE7B4B1B78184601F0E3FE714B1B78184601F0DEFE002387F82E300BE097F82E30744AD35C184601F0D3FE97F82E30013387F82E3097F82E302D
:402F00000C2BEFD96E4B1B78184601F0C5FE202001F0C2FE002387F82D300DE097F82D305E4A134493F8FB30184601F0B5FE97F82D30013387F82D3097F82D30072BEDD9D4
:402F4000554B1B78184601F0A7FE002387F82C300BE097F82C305B4AD35C184601F09CFE97F82C30013387F82C3097F82C300C2BEFD9534B1B78184601F08EFE202001F078
:402F80008BFE012387F82B300DE097F82B30434A134493F80B31184601F07EFE97F82B30013387F82B3097F82B30052BEDD93A4B1B78184601F070FE384B93F82331FA79BB
:402FC0009A4240F02D81002387F82A300BE097F82A30334AD35C184601F05EFE97F82A30013387F82A3097F82A30062BEFD9002387F829300BE097F829302A4AD35C184649
:4030000001F04AFE97F82930013387F8293097F829300C2BEFD9214B93F823313133DBB2184601F039FE1C4B1B78184601F034FE194B1B78184601F02FFE002387F82830D2
:403040000BE097F82830184AD35C184601F024FE97F82830013387F8283097F828300C2BEFD9002387F827300BE097F827300F4AD35C184601F010FE97F82730013387F85C
:40308000273097F82730072BEFD9002387F8263026E000BFA081FF1FCC80FF1F4484FF1F3481FF1FD081FF1FE081FF1F6C81FF1F0082FF1F1689FF1FD080FF1F2082FF1F36
:4030C0006083FF1FF081FF1F97F82630C04AD35C184601F0E1FD97F82630013387F8263097F826300C2BEFD9002387F8253018E097F82530C3F10803B64A1278934202D15F
:403100002E2001F0C9FD97F82530B34A134493F82632184601F0C0FD97F82530013387F8253097F82530072BE2D9202001F0B4FDAA4B1B78184601F0AFFDA94B1B7818465C
:4031400001F0AAFD002387F824300BE097F82430A44AD35C184601F09FFD97F82430013387F8243097F824300C2BEFD99E4B1B78184601F091FD202001F08EFD002387F868
:4031800023300DE097F82330934A134493F81E32184601F081FD97F82330013387F8233097F82330072BEDD98D4B1B78184601F073FD002387F822300BE097F822308B4A90
:4031C000D35C184601F068FD97F82230013387F8223097F822300C2BEFD9834B1B78184601F05AFD202001F057FD012387F821300DE097F82130784A134493F82E32184677
:4032000001F04AFD97F82130013387F8213097F82130052BEDD9724B1B78184601F03CFD6D4B93F84632FA799A4240F0FC80002387F820300BE097F820306D4AD35C18460E
:4032400001F02AFD97F82030013387F8203097F82030062BEFD90023FB7708E0FB7F654AD35C184601F018FDFB7F0133FB77FB7F0C2BF3D9584B93F846323133DBB21846B1
:4032800001F00AFD564B1B78184601F005FD544B1B78184601F000FD0023BB7708E0BB7F554AD35C184601F0F7FCBB7F0133BB77BB7F0C2BF3D900237B7708E07B7F4F4A1F
:4032C000D35C184601F0E8FC7B7F01337B777B7F072BF3D900233B7708E03B7F3C4AD35C184601F0D9FC3B7F01333B773B7F0C2BF3D90023FB7614E0FB7EC3F10803354A68
:403300001278934202D12E2001F0C6FCFB7E324A134493F84933184601F0BEFCFB7E0133FB76FB7E072BE7D9202001F0B5FC2B4B1B78184601F0B0FC294B1B78184601F039
:40334000ABFC0023BB7608E0BB7E264AD35C184601F0A2FCBB7E0133BB76BB7E0C2BF3D9214B1B78184601F097FC202001F094FC00237B760AE07B7E174A134493F841337B
:40338000184601F089FC7B7E01337B767B7E072BF1D9134B1B78184601F07EFC00233B7608E03B7E114AD35C184601F075FC3B7E01333B763B7E0C2BF3D90B4B1B7818460C
:4033C00001F06AFC202001F067FC0123FB7522E00082FF1F1689FF1F4484FF1FD080FF1FCC80FF1F2082FF1F6083FF1FF081FF1F3481FF1FD081FF1FE081FF1F6C81FF1F15
:40340000FB7DA14A134493F85133184601F044FCFB7D0133FB75FB7D052BF1D99B4B1B78184601F039FC984B93F86933FA799A4240F0DF800023BB7508E0BB7D944AD35C41
:40344000184601F029FCBB7D0133BB75BB7D062BF3D900237B7508E07B7D8E4AD35C184601F01AFC7B7D01337B757B7D0C2BF3D9854B93F869333133DBB2184601F00CFC52
:40348000824B1B78184601F007FC804B1B78184601F002FC00233B7508E03B7D7E4AD35C184601F0F9FB3B7D01333B753B7D0C2BF3D90023FB7408E0FB7C784AD35C18466B
:4034C00001F0EAFBFB7C0133FB74FB7C072BF3D90023BB7408E0BB7C714AD35C184601F0DBFBBB7C0133BB74BB7C0C2BF3D900237B7414E07B7CC3F108036A4A1278934244
:4035000002D12E2001F0C8FB7B7C5F4A134493F86C34184601F0C0FB7B7C01337B747B7C072BE7D9202001F0B7FB5F4B1B78184601F0B2FB554B1B78184601F0ADFB00231E
:403540003B7408E03B7C594AD35C184601F0A4FB3B7C01333B743B7C0C2BF3D9544B1B78184601F099FB202001F096FB0023FB730AE0FB7B444A134493F86434184601F0CA
:403580008BFBFB7B0133FB73FB7B072BF1D93F4B1B78184601F080FB0023BB7308E0BB7B444AD35C184601F077FBBB7B0133BB73BB7B0C2BF3D93E4B1B78184601F06CFB84
:4035C000202001F069FB01237B730AE07B7B2E4A134493F87434184601F05EFB7B7B01337B737B7B052BF1D9284B1B78184601F053FB00233B7308E03B7B2F4AD35C18467A
:4036000001F04AFB3B7B01333B733B7B172BF3D91E4B1B78184601F03FFB0023FB7208E0FB7A264AD35C184601F036FBFB7A0133FB72FB7A152BF3D9144B1B78184601F08F
:403640002BFB0023BB7208E0BB7A1D4AD35C184601F022FBBB7A0133BB72BB7A152BF3D90A4B1B78184601F017FB084B1B78184601F012FB054B1B78184601F00DFB00BF5A
:403680004437BD4690BD00BF4484FF1FCC80FF1F3481FF1FD081FF1FE081FF1F6C81FF1F0082FF1F1689FF1FD080FF1F2082FF1F6083FF1FF081FF1F6483FF1F3C81FF1F69
:4036C0005481FF1F80B58AB000AF0346FB71B94B1B78FA799A4240F06381002387F827300BE097F82730B44AD35C184601F0D4FA97F82730013387F8273097F82730152BE0
:40370000EFD9AE4B1B78184601F0C6FA002387F826300BE097F82630A94AD35C184601F0BBFA97F82630013387F8263097F82630152BEFD9A14B1B78184601F0ADFA0023C5
:4037400087F825300BE097F825309E4AD35C184601F0A2FA97F82530013387F8253097F82530172BEFD9954B1B78184601F094FA002387F824300BE097F82430924AD35CAB
:40378000184601F089FA97F82430013387F8243097F824300C2BEFD9022387F8233018E097F82330C3F10A03884A1278934202D12E2001F071FA97F823307E4A134493F89F
:4037C0008330184601F068FA97F82330013387F8233097F82330092BE2D9784B1B78184601F05AFA002387F822300BE097F82230774AD35C184601F04FFA97F82230013356
:4038000087F8223097F822300C2BEFD9694B1B783133DBB2184601F03FFA684B1B78184601F03AFA002387F821300BE097F82130684AD35C184601F02FFA97F82130013323
:4038400087F8213097F821300C2BEFD95B4B1B78184601F021FA002387F820300BE097F82030584AD35C184601F016FA97F82030013387F8203097F82030172BEFD94F4BA5
:403880001B78184601F008FA0023FB7708E0FB7F514AD35C184601F0FFF9FB7F0133FB77FB7F0C2BF3D9454B1B78184601F0F4F90023BB7708E0BB7F484AD35C184601F099
:4038C000EBF9BB7F0133BB77BB7F0C2BF3D93B4B1B78184601F0E0F900237B7708E07B7F384AD35C184601F0D7F97B7F01337B777B7F172BF3D9314B1B78184601F0CCF9B4
:4039000000233B7708E03B7F354AD35C184601F0C3F93B7F01333B773B7F152BF3D9274B1B78184601F0B8F90023FB7608E0FB7E2C4AD35C184601F0AFF9FB7E0133FB763D
:40394000FB7E152BF3D91D4B1B78184601F0A4F90023BB7608E0BB7E234AD35C184601F09BF9BB7E0133BB76BB7E152BF3D9134B1B78184601F090F900237B7608E07B7E46
:403980001A4AD35C184601F087F97B7E01337B767B7E152BF3D9094B1B78184601F07CF9044B93F82331FA799A4240F0598100233B7626E04484FF1F5481FF1FCC80FF1F33
:4039C0003C81FF1F6483FF1F1082FF1F1689FF1FD081FF1F3082FF1F9081FF1F8081FF1F1C81FF1F0481FF1FEC80FF1FD480FF1F3B7E9D4AD35C184601F04EF93B7E013341
:403A00003B763B7E152BF3D9984B1B78184601F043F90023FB7508E0FB7D954AD35C184601F03AF9FB7D0133FB75FB7D152BF3D98E4B1B78184601F02FF90023BB7508E0CE
:403A4000BB7D8C4AD35C184601F026F9BB7D0133BB75BB7D172BF3D9844B1B78184601F01BF900237B7508E07B7D834AD35C184601F012F97B7D01337B757B7D0C2BF3D994
:403A800002233B7514E03B7DC3F10A037B4A1278934202D12E2001F0FFF83B7D784A134493F8A631184601F0F7F83B7D01333B753B7D092BE7D96D4B1B78184601F0ECF860
:403AC0000023FB7408E0FB7C6E4AD35C184601F0E3F8FB7C0133FB74FB7C0C2BF3D9684B93F823313133DBB2184601F0D5F85F4B1B78184601F0D0F80023BB7408E0BB7CCC
:403B0000614AD35C184601F0C7F8BB7C0133BB74BB7C0C2BF3D9554B1B78184601F0BCF800237B7408E07B7C524AD35C184601F0B3F87B7C01337B747B7C172BF3D94B4B28
:403B40001B78184601F0A8F800233B7408E03B7C4E4AD35C184601F09FF83B7C01333B743B7C0C2BF3D9414B1B78184601F094F80023FB7308E0FB7B454AD35C184601F05B
:403B80008BF8FB7B0133FB73FB7B0C2BF3D9374B1B78184601F080F80023BB7308E0BB7B344AD35C184601F077F8BB7B0133BB73BB7B172BF3D92D4B1B78184601F06CF8A1
:403BC00000237B7308E07B7B324AD35C184601F063F87B7B01337B737B7B152BF3D9234B1B78184601F058F800233B7308E03B7B294AD35C184601F04FF83B7B01333B7388
:403C00003B7B152BF3D9194B1B78184601F044F80023FB7208E0FB7A204AD35C184601F03BF8FB7A0133FB72FB7A152BF3D90F4B1B78184601F030F80023BB7208E0BB7AD0
:403C4000174AD35C184601F027F8BB7A0133BB72BB7A152BF3D9054B1B78184601F01CF800BF2837BD4680BD5481FF1FCC80FF1F3C81FF1F6483FF1F1082FF1F1689FF1F21
:403C80004484FF1FD081FF1F3082FF1F9081FF1F8081FF1F1C81FF1F0481FF1FEC80FF1FD480FF1F80B584B000AFF860B9607A607A68B968F86801F0FDFC00BF1037BD467E
:403CC00080BD00BF80B483B000AF0346FB71FEE780B483B000AF434B00221A60424B10221A70424B01221A70414B00221A70414B4FF42C721A80404B01221A703F4B03222F
:403D00001A703F4B3F4A92B21A803F4B47F608021A803E4B00221A803D4B4FF480421A803C4B09221A703C4B0C221A703B4B14221A703B4B1D221A70BFF35F8F394B0122DA
:403D40001A70BFF35F8F00BF2A4B1B889BB2002BFAD100237B600DE07B68DA00324B13441946324A7B6852F823309BB20B807B6801337B607B68552BEED9BFF35F8F294B20
:403D800001221A70BFF35F8F00BF294B1B78DBB203F00103002BF8D100BF264B1B78DBB203F00103002BF8D100BF234B1B78DBB203F00103002BF8D100BF204B1B78DBB2BB
:403DC00003F00103002BF8D100BF1D4B1B78DBB203F00103002BF8D100BF0C37BD4680BC704700BF1884FF1F007600401070004019700040007800400278004003780040C9
:403E0000047800405000000006780040047600400676004029700040397000406970004079700040147000400C780040D056000018700040287000403870004068700040F0
:403E40007870004080B582B000AF3E4B19221A803D4B18221A703D4B4FF49C721A803C4B18221A703B4B4FF49C721A803A4B18221A703A4B40F209221A80394B18221A701E
:403E8000384B47F22F521A80374B19221A70374B02221A704FF0402308221A70344B03221A70344B344A1278D2B21A70334B08221A80334B41F251221A800023FB701923D1
:403EC0007B6014E0FB785B00DAB22E4B1B78DBB203F00103DBB21343DBB203F00303FB704FF4F07001F0C4F97B68013B7B607B68002B02D0FB78032BE4D17B68002B02D1D3
:403F00000320FFF7DFFE204B4FF480721A801E4B07221A701D4B00221A701D4B48221A70194B00221A701B4B02221A701A4A1A4B1B78DBB243F01F03DBB2137000BF083755
:403F4000BD4680BD80400040824000408440004086400040884000408A4000408C4000408E40004090400040924000400043004000420040A1460040080100492242004085
:403F8000204200402542004004400040064000400840004001400040A243004080B483B000AF0B4B1B78FB710A4AFB7903F00703DBB21370084AFB791B09DBB21370074BF4
:403FC00044221A7000BF0C37BD4680BC704700BFCF0100496E5800406F5800407658004080B500AF72B62D4A2C4B1B78DBB243F00403DBB21370FFF76BFE294A284B1B78AA
:40400000DBB243F00203DBB21370264A254B1B78DBB243F00203DBB21370234A224B1B78DBB243F04003DBB21370204A1F4B1B78DBB243F01003DBB213700A221C491D48A3
:40404000FFF730FE0A221C491C48FFF72BFE0A221B491C48FFF726FE0A221B491B48FFF721FE1B4A1A4B1B78DBB243F00803DBB21370184B60221A70FFF7E4FE154B802271
:404080001A70154B01221A70FFF788FF0E2206491248FFF707FE00BF80BD00BFE84600400350014013500140A0430040C24300402C1C0048F0510040381C00481051004001
:4040C000441C004820510040501C004830510040224300400048004004000840B043004080B500AF01F0BAFA03461B680C2B00D1FEE7FEE780B586B000AF224B7B61224B4F
:404100003B61204B7B6135E03B691B68FB603B695B68BB603B699B683B6000237B600CE0FB681A68BB681A60BB680433BB60FB680433FB607B6804337B607A683B689A4215
:40414000EED13B69DB683B6000237B6008E0BB6800221A60BB680433BB607B6804337B607A683B689A42F2D13B6910333B617B69013B7B617B69002BC6D101F075FAFCF753
:40418000C5F9FEE7010000005058000080B582B000AF184B184A1A60184A184B1B6843F40073136000237B600FE07B68032B04D8134A7B6852F8233000E0124B12497A68C8
:4041C00041F822307B6801337B607B682F2BECD90E4B1B78DAB20E4B1A700E4B0A4A1A60FFF7FEFE0C4B00221A6000BF0837BD4680BD00BF0CED00E00004FA0514ED00E01F
:4042000000000000E14000000080FF1FBC760040C480FF1F08ED00E0C080FF1F80B500AF064B1B78002B04D100F00AF8034B01221A7000F063F800BF80BD00BF1C84FF1F3F
:4042400080B582B000AF284A274B1B78DBB243F00203DBB21370254B1B78DBB223F07003FB71224AFB7943F03003DBB21370204A1F4B1B78DBB223F03003DBB213701C4A54
:404280001B4B1B78DBB243F03003DBB21370184A174B1B78DBB223F00F03DBB21370144A134B1B78DBB243F00F03DBB21370642000F048F8322000F055F8002000F062F80B
:4042C0000C4A0C4B1B78DBB243F00103DBB21370094A094B1B78DBB243F00103DBB2137000BF0837BD4680BD004F0040024F00400B4F0040A3430040014F004080B400AF0B
:404300000D4A0D4B1B78DBB243F00103DBB213700A4A0A4B1B78DBB243F00103DBB21370074A074B1B78DBB243F00103DBB2137000BFBD4680BC7047A3430040B34300403C
:40434000004F004080B483B000AF0346FB71044BFA7992B21A8000BF0C37BD4680BC7047044F004080B483B000AF0346FB71044BFA7992B21A8000BF0C37BD4680BC704755
:40438000064F004080B483B000AF0346FB71044AFB79137000BF0C37BD4680BC704700BF034F004080B483B000AF0346FB7101BE00BF0C37BD4680BC704700BF80B582B067
:4043C00000AF786008E00C4B1B68184600F050FF7B68A3F500437B607B68B3F5004FF2D8064B1B687A6802FB03F3184600F040FF00BF0837BD4680BD9083FF1F8883FF1FCC
:4044000080B582B000AF0346FB80FB88054A127802FB03F3184600F02BFF00BF0837BD4680BD00BF8C83FF1F80B584B000AF03463960FB710F4B1B68FB60FB791F2B02D97A
:404440000020FFF7AFFFFB7903F01F0310339B00FA6813441B68BB60FB7903F01F0310339B00FA6813443A681A60BB6818461037BD4680BD08ED00E080B582B000AF034642
:404480000A46FB711346BB71BB79072B02D90020FFF788FFFB791F2B02D90020FFF782FFFB7903F01F0303F1604303F56443BA795201D2B21A7000BF0837BD4680BD00BF5D
:4044C00080B500AF064B1B78002B04D100F00AF8034B01221A7000F031F800BF80BD00BF1D84FF1F80B500AF0D490020FFF79CFF07210020FFF7C0FF0A4B00221A700A4B36
:4045000072221A70094B20221A70094B06221A70084B47221A70084B00221A7000BF80BD794700001E84FF1F88650040846500402A6500403A6500408964004080B582B0DE
:4045400000AF00F0B4FE0346FB71124A114B1B78DBB243F02003DBB213700F4A0E4B1B78DBB243F01003DBB213700C4B01221A600B4A0B4B1B78DBB243F01003DBB21370BA
:4045800000F068F9FB79184600F095FE00BF0837BD4680BD986500409465004000E100E09964004080B483B000AF1B4B01221A601A4B1B78BB711A4B1B787B71194B1B788B
:4045C000DBB2002B03D1BA797B799A4218D0BB79154AD35CFB71BB790133BB7197F90630002B01DA0023BB710C4ABB7913700D4B1B78DBB2002B06D00A4B00221A7002E0FE
:404600000A4B1B78FB710A4B01221A60FB7918460C37BD4680BC704780E100E01F84FF1F2084FF1F2184FF1F6C89FF1F4B65004000E100E080B483B000AF1D4B01221A60C3
:404640001C4B1B78DAB21C4B1B78DBB29A420AD11A4B1B78DBB2002B02D08023FB711DE00023FB711AE0134B1B78DAB2124B1B78DBB29A4208D2104B1B78DAB20D4B1B784A
:40468000DBB2D31AFB7109E00B4B1B78DAB2094B1B78DBB2D31ADBB2803BFB71084B01221A60FB7918460C37BD4680BC704700BF80E100E01F84FF1F2084FF1F2184FF1F60
:4046C00000E100E080B582B000AF00F0F0FD0346FB71154A144B1B78DBB243F00103DBB21370114A104B1B78DBB223F00103DBB21370FB79184600F0DEFD0C4B01221A609E
:404700000B4B00221A700B4B00221A700A4B00221A700A4B00221A70094B01221A6000BF0837BD4680BD00BF9B65004080E100E01F84FF1F2084FF1F2184FF1F2284FF1FFA
:4047400000E100E080B483B000AF0346FB7100BF074B1B78DBB203F00403002BF8D1054AFB79137000BF0C37BD4680BC704700BF696400404965004080B483B000AF00235D
:40478000FB712C4B1B78BB71BB797B71BB7903F01E03002B0CD097F9063003F01E035AB2254B1B785BB213435BB2DAB2224B1A70BB7903F02003002B31D0204B1B787B71AC
:4047C0001F4B1B78DBB219461E4A7B7953540123FB71FB79002B22D01B4B1B78DBB2002B02D01A4B01221A70154B1B78DBB20133DAB2134B1A70124B1B78DBB25BB2002B3A
:4048000002DA0F4B00221A700D4B1B78DAB2104B1B78DBB29A4202D10B4B01221A70BB7903F02003002BACD100BF0C37BD4680BC704700BF646500401E84FF1F4B65004090
:404840002084FF1F6C89FF1F2184FF1F2284FF1F1F84FF1F80B400AF094A094B1B78DBB243F00403DBB21370064A064B1B78DBB243F00403DBB2137000BFBD4680BC704767
:40488000A2430040B243004080B500AF224A224B1B78DBB203F00103DBB213701F4A1F4B1B78DBB223F00303DBB213701C4A1C4B1B78DBB223F03003DBB21370184A184B96
:4048C0001B78DBB243F03003DBB21370144A144B1B78DBB223F00F03DBB21370104A104B1B78DBB243F00F03DBB213700D4A0D4B1B78DBB243F00103DBB2137045F6C9507C
:4049000000F058F845F6C95000F066F8002000F041F800BF80BD00BF0C4F00400E4F0040174F00400D4F004080B400AF0D4A0D4B1B78DBB243F00203DBB213700A4A0A4B74
:404940001B78DBB243F00203DBB21370074A074B1B78DBB243F00103DBB2137000BFBD4680BC7047A3430040B34300400C4F004080B500AF064B1B78002B04D1FFF784FFD8
:40498000034B01221A70FFF7CFFF00BF80BD00BF2484FF1F80B483B000AF0346FB71044AFB79137000BF0C37BD4680BC704700BF0F4F004080B485B000AF0346FB80FB88F3
:4049C000FB81044AFB89138000BF1437BD4680BC704700BF104F004080B483B000AF0346FB80044AFB88138000BF0C37BD4680BC704700BF124F004080B500AF064B1B781A
:404A0000002B04D100F00AF8034B01221A7000F031F800BF80BD00BF2584FF1F80B500AF0D490120FFF700FD07210120FFF724FD0A4B00221A700A4B72221A70094B202236
:404A40001A70094B06221A70084B47221A70084B00221A7000BF80BDD94A00002684FF1F8E6400408D6400402F6400403F6400408C64004080B582B000AF00F018FC0346CE
:404A8000FB71114A104B1B78DBB243F02003DBB213700E4A0D4B1B78DBB243F01003DBB213700B4B02221A600A4A0A4B1B78DBB243F01003DBB21370FB79184600F0FBFB5D
:404AC00000BF0837BD4680BD9E6400409D64004000E100E09C64004080B483B000AF0023FB712C4B1B78BB71BB797B71BB7903F01E03002B0CD097F9063003F01E035AB2C4
:404B0000254B1B785BB213435BB2DAB2224B1A70BB7903F02003002B31D0204B1B787B711F4B1B78DBB219461E4A7B7953540123FB71FB79002B22D01B4B1B78DBB2002B61
:404B400002D01A4B01221A70154B1B78DBB20133DAB2134B1A70124B1B78DBB25BB2002B02DA0F4B00221A700D4B1B78DAB2104B1B78DBB29A4202D10B4B01221A70BB79BA
:404B800003F02003002BACD100BF0C37BD4680BC704700BF6D6400402684FF1F4E6400402884FF1FEC89FF1F2984FF1F2A84FF1F2784FF1F80B485B000AF0346FB710A4BD6
:404BC0001B78DBB223F00103FB730749FB7903F00103DAB2FB7B1343DBB20B7000BF1437BD4680BC704700BF2051004080B500AF064B1B78002B04D100F00AF8034B01225A
:404C00001A7000F023F800BF80BD00BF2C84FF1F80B500AF09490220FFF706FC07210220FFF72AFC064B06221A70064B47221A70054B02221A7000BF80BD00BF514D000002
:404C400029640040396400408A64004080B582B000AF00F02CFB0346FB710C4A0B4B1B78DBB243F01003DBB21370094B04221A60084B04221A6000F0A3F8FB79184600F024
:404C80001AFB00BF0837BD4680BD00BF9A64004080E200E000E100E080B485B000AF0346FB71254B1B78FB73244B1B78BB73FA7BBB7B9A4208D2FA7BBB7B013B9A420CBF44
:404CC00001230023DBB207E0FA7BBB7BD31A042B0CBF01230023DBB2002BE2D1BA7BFB7B9A420AD1164B1B78DBB203F00403002B03D1144AFB79137018E0FB7B042B01D90D
:404D00000023FB73FB7B1049FA79CA54FB7B0133FB73094AFB7B1370094B1B78DBB203F00203002B02D0094B04221A6000BF1437BD4680BC704700BF2E84FF1F2D84FF1F63
:404D40006A6400404A6400406C8AFF1F00E200E080B400AF17E0154B1B78DBB2042B02D9124B00221A70124B104A1278D2B21146104A525CD2B21A700C4B1B78DBB2013317
:404D8000DAB20A4B1A70094B1B78DAB20A4B1B789A4206D0094B1B78DBB203F00403002BD9D000BFBD4680BC704700BF2D84FF1F4A6400406C8AFF1F2E84FF1F6A64004016
:404DC00080B400AF094A094B1B78DBB243F00203DBB21370064A064B1B78DBB243F00203DBB2137000BFBD4680BC7047A2430040B243004080B500AF064B1B78002B04D1E1
:404E000000F00AF8034B01221A7000F03BF800BF80BD00BF3084FF1F80B500AF11490320FFF702FB07210320FFF726FB0E4B00221A700E4B72221A700D4B20221A700D4929
:404E40000420FFF7F1FA07210420FFF715FB0A4B06221A70094B47221A70094B02221A7000BF80BDD55000003384FF1F8765004088640040AD510000266500403665004099
:404E80008B64004080B582B000AF00F010FA0346FB71154A144B1B78DBB243F02003DBB21370124A114B1B78DBB243F01003DBB213700F4B08221A600E4A0E4B1B78DBB2BD
:404EC00043F01003DBB213700B4B10221A60084B10221A6000F0A2F9FB79184600F0EBF900BF0837BD4680BD976500409864004000E100E09B64004080E200E080B483B0CB
:404F000000AF1B4B08221A601A4B1B78BB711A4B1B787B71194B1B78DBB2002B03D1BA797B799A4217D0BB79154AD35CFB71BB790133BB71BB79132B01D90023BB710D4A8F
:404F4000BB7913700D4B1B78DBB2002B06D00B4B00221A7002E00B4B1B78FB710A4B08221A60FB7918460C37BD4680BC704700BF80E100E03484FF1F3584FF1F3684FF1F3F
:404F80007C8AFF1F4465004000E100E080B483B000AF1D4B08221A601C4B1B78DAB21C4B1B78DBB29A420AD11A4B1B78DBB2002B02D01423FB711DE00023FB711AE0134B34
:404FC0001B78DAB2124B1B78DBB29A4208D2104B1B78DAB20D4B1B78DBB2D31AFB7109E00B4B1B78DAB2094B1B78DBB2D31ADBB21433FB71084B08221A60FB7918460C3709
:40500000BD4680BC704700BF80E100E03484FF1F3584FF1F3684FF1F00E100E080B485B000AF0346FB71254B1B78FB73244B1B78BB73FA7BBB7B9A4208D2FA7BBB7B013B7E
:405040009A420CBF01230023DBB207E0FA7BBB7BD31A072B0CBF01230023DBB2002BE2D1BA7BFB7B9A420AD1164B1B78DBB203F00403002B03D1144AFB79137018E0FB7BE8
:40508000072B01D90023FB73FB7B1049FA79CA54FB7B0133FB73094AFB7B1370094B1B78DBB203F00203002B02D0094B10221A6000BF1437BD4680BC704700BF3284FF1F93
:4050C0003184FF1F6B64004048640040748AFF1F00E200E080B483B000AF0023FB712B4B1B78BB71BB797B71BB7903F01E03002B0CD097F9063003F01E035AB2244B1B78D3
:405100005BB213435BB2DAB2214B1A70BB7903F02003002B30D01F4B1B787B711E4B1B78DBB219461D4A7B7953540123FB71FB79002B21D01A4B1B78DBB2002B02D0194B2F
:4051400001221A70144B1B78DBB20133DAB2124B1A70114B1B78DBB2132B02D90E4B00221A700D4B1B78DAB20F4B1B78DBB29A4202D10B4B01221A70BB7903F02003002BAA
:40518000ADD100BF0C37BD4680BC7047686400403384FF1F446500403584FF1F7C8AFF1F3684FF1F3784FF1F3484FF1F80B400AF17E0154B1B78DBB2072B02D9124B002247
:4051C0001A70124B104A1278D2B21146104A525CD2B21A700C4B1B78DBB20133DAB20A4B1A70094B1B78DAB20A4B1B789A4206D0094B1B78DBB203F00403002BD9D000BFCF
:40520000BD4680BC704700BF3184FF1F48640040748AFF1F3284FF1F6B64004080B400AF094A094B1B78DBB243F00103DBB21370064A064B1B78DBB243F00103DBB2137002
:4052400000BFBD4680BC7047A2430040B243004080B500AF00F0ACF800F0BCF800BF80BD80B500AFFFF7F4FF00BF80BD00000000142816D902B4012114381049097811F014
:40528000C001890904B40E4A515C04BC00BF00BF00BF8841FDD500BF00BF02BC704700BF00BF70F10400FCD570470B050709EFF3108072B6704780F310887047004800402D
:4052C000AA52000080B582B000AF00F0C9F84FF0FF337B6000F044F90346002B24D1012000F00CF90346072B1BD10221124800F0DBF80346022B0DD100237B6002E00120F7
:40530000FFF77EF80D4B1B78DBB203F00203002BF5D006E0094B1B78DBB203F00203002BE3D000F051F901E004237B607B6818460837BD4680BD00BF908AFF1F22470040F4
:4053400080B582B000AF00F08BF800F009F90346002B23D100F060F978607B68072B1AD102E00120FFF74CF8104B1B78DBB203F00203002BF5D00D4B1B78DBB203F0020319
:40538000002B08D0094B1B78DBB29B08DBB2002B01D100237B6000F017F901E004237B607B6818460837BD4680BD00BF2247004080B582B000AFFFF7C3FF78607B68002B8C
:4053C00002D1FFF77FFF78607B6818460837BD4680BD00BF80B582B000AFFFF768FF0346FB71194A184B1B78DBB243F00803DBB21370164A154B1B78DBB243F00803DBB208
:405400001370134BC8221A70124A124B1B78DBB243F01003DBB213700F4A0F4B1B78DBB243F01003DBB2137000BF0C4B1B78DBB203F02003002BF8D0FB791846FFF73BFF7E
:4054400000BF0837BD4680BDA0430040B043004001470040AC430040BC4300400047004080B582B000AFFFF722FF0346FB710C4A0B4B1B78DBB243F00803DBB21370094ACC
:40548000084B1B78DBB243F00803DBB21370FB791846FFF710FF00BF0837BD4680BD00BFA0430040B043004080B584B000AF78600B46FB700023FB7313E00120FEF7A0FF1C
:4054C0000C4B1B78DBB203F00103002BF5D0FB7B7A681344084A1278D2B21A70FB7B0133FB73FA7BFB789A42EAD3FB7B18461037BD4680BD224700402047004080B485B008
:4055000000AF0346FB710723FB60134B1B78DBB203F00203002B16D0104BB6221A700F4BE1221A700D4B0E221A700B4B1B78DBB203F00203002B03D1084AFB79137004E0AB
:405540000923FB6001E00423FB60FB6818461437BD4680BC704700BF224700402047004080B582B000AF04237B60FFF7A0FE0346FB70124B1B78002B16D1104B01221A70C6
:4055800000237B600E4B1B6803F00103002B0BD00B4A0B4B1B6823F00103136000BF00BF00BF084B01221A60FB781846FFF783FE7B6818460837BD4680BD00BF3C84FF1F8A
:4055C000040008404084FF1F80B582B000AFFFF76EFE0346FB710D4B00221A700C4B1B68012B0BD10B4A0B4B1B6843F00103136000BF00BF00BF064B00221A60FB79184696
:40560000FFF759FE00BF0837BD4680BD3C84FF1F4084FF1F0400084080B483B000AF07237B600C4B1B78DBB203F00203002B09D0094BB6221A70084BE0221A70064B0D2230
:405640001A7001E004237B607B6818460C37BD4680BC70472247004020470040014B1868704700BFF483FF1F0E4B70B51E460E4C0025E41AA410A54204D056F825309847CC
:405680000135F8E700F0D2F8084B094C1E46E41AA4100025A54204D056F8253098470135F8E770BD3858000038580000385800004058000010B5431E0A44914204D011F84D
:4056C000014B03F8014FF8E710BD00000000000028000000300000003800000040000000480000004800000048000000480000001884FF1F1884FF1F1884FF1F1884FF1F8F
:405700001884FF1F1884FF1F1884FF1F1884FF1F1884FF1F1884FF1F1884FF1F00000048080000481000004818000048280000483400004840000048CC080048EC08004837
:40574000200000484C000048CC0000484C010048CC0100484C020048CC0200484C030048CC0300484C040048CC0400484C050048CC0500484C060048CC0600484C07004864
:40578000CC0700484C0800480C0900481C0900482C090048AC0900482C0A0048AC0A00482C0B0048AC0B00482C0C0048AC0C00482C0D0048AC0D00482C0E0048AC0E00486E
:4057C0002C0F0048AC0F00482C100048AC1000482C110048AC1100482C120048AC1200482C130048AC1300482C140048AC1400482C150048AC1500482C160048AC16004841
:405800002C170048AC1700482C180048AC1800482C190048AC1900482C1A0048AC1A00482C1B0048AC1B004843000000F8B500BFF8BC08BC9E467047250300008D410000AE
:40584000F8B500BFF8BC08BC9E4670470103000060580000C880FF1F30030000A0060000000000000A00000047000000204553544143494F4E204445205345525649434909
:405880004F2000002020202050525545424153204D455053414E20202020000020202054656C3A20283537293132333435362020202000002020204E49543A203930302EC6
:4058C0003132332E34353620202000003132332D4142430020534953504554524F4C20494E47454E49455249412000002020534F4C5543494F4E455320504152412045442B
:405900005320000044696573656C2020436F727269656E746500000046656368612020202020203A20000000486F7261202020202020203A20000000506C616361202020BD
:405940002020203A200000004B696C6F6D657472616A653A200000005469706F202020202020203A20000000506F736963696F6E2020203A2000000050726F647563746F78
:405980002020203A2000000050707520202020202020203A20000000566F6C756D656E202020203A20000000546F742E566F6C202020203A2000000044696E65726F2020CD
:4059C0002020203A20000000436965727265204E6F20203A20000000436F6E736563757469766F3A2000000053616C646F2020202020203A20000000456D70726573612036
:405A00002020203A200000004375656E746120202020203A2000000053657269616C20202020203A200000005469706F204375656E74613A2000000056697369746173207F
:405A40004469613A20000000566973697461732053656D3A2000000056697369746173204D65733A20000000566F6C756D656E204469613A20000000566F6C756D656E2046
:405A800053656D3A20000000566F6C756D656E204D65733A2000000044696E65726F20446961203A2000000044696E65726F2053656D203A2000000044696E65726F204DEB
:405AC0006573203A2000000056616C6F722050726F672E3A200000004669726D612020202020203A20000000436564756C6120202020203A20000000240000002A2A2A2AF3
:405B00002A2A2A2A2A2A2A2A2A2A2A2A2A2A2A2A2A2A2A2A5AA503812007000000366E01C05D0000180000000000E02E00000000000000000000000000000000000000008B
:405B400000000000000000000000000028580000000000000000000000000000000000000000000000000000000000000000000000000000000000000000000000000000A5
:405B80000000000000000000000000009483FF1F000000000000000000000000000000000000000000000000000000000000000000000000000000000000000000000000B0
:405BC00000000000000000000000000000000000000000000000000000000000000000000000000000000000000000000000000000000000000000000000000000000000A5
:405C00000000000000000000000000000000000000000000000000000000000000000000000000000000000000000000000000000000000000000000000000000000000064
:405C40000000000000000000000000000000000000000000000000000000000000000000000000000000000000000000000000000000000000000000000000000000000024
:405C800000000000000000000000000000000000000000000000000000000000000000000000000000000000000000000000000000000000000000000000000000000000E4
:020000040003F7
:0200000480007A
:400000008000000040000000000000000D00000080800000080000002000000010000000FF03000000000000004000000000000000009C00008000000000000000004B0012
:40004000008000000000000000004B0000000000000000000000000000000000000000000000000000000000000000000000000000000000000000000000000000000000B5
:40008000000000008000000000004000000000000000000000000000000000000000000000000000040000000000000100000000000000000000000000000000000000007B
:4000C0000000000000000000000000000000021500030234002A001400000100000000000003001C00030204000001000000000002000000020000280000002002000138C1
:40010000000F0000000000280000050031020000000C00EB31FFFFFF0000F0440C000000180004000404040400000001000000000000C000000040020000000000000000BC
:4001400000000000000000000000000000000000000C007100000003001402000000000000DC0022000900D001000020000002000000000000100040001000AC0200011FC1
:4001800000E000000000002000000500060000000000000400FF07FF4020F0050800000001000000040404041021000140A840200000000000000000000000000000000043
:4001C000000000000000000000000000000000001B23201C52002001000029000000000000184027000000181B0060000440000718002000800000100023000C8001041EF2
:400200000360780020208008000015015402000000E0CB000EFFFFFF0000F0440C000000010004000404040411110001000000000000C0000000400200000000000000007F
:400240000000000000000000000000000002000000000000000000000000000000000000000000000000000000000000000100000000010000000000000000000000000179
:400280000102000000000000000000146204000000000ECB34FFFFFF0000F0440C000000010004000404040403030001000000000000C00000004002000000000000000059
:4002C00000000000000000000000000003B004470071788800C300300000400000400003232454417A01040E43022C010000000000500500A00000800000088000001F7FA3
:400300008000608000008800000010400000000000000000000000000000000000000000010000000404000433300001000000000000000000000000000000000000000014
:400340000000000000000000000000001F0000000C7E1200007E00000002000000480024000004000400000104201950000000001F14002800000B0100000000000C1002BB
:4003800007010870080022000000001000000000000000000000000000000000000000001C00040004040004333000010000000000000000000000000000000000000000F3
:4003C0000000000000000000000000007F00001059062609000410020000000F0003790426005900004F000037004820044F000002000010064600095141200E40303008AC
:4004000007070E400000A8200000004123060500040E0C0005FFFFFF62A0F0410C00000000000213040404043333000100000000000040020010301000101012000000007A
:40044000000000000000000000000000000000000000900000000000000000000000000065009800D0000D00650018000000000002002C0000000000000000006000030004
:400480001C0088000A00A00000000100040000000000004000FF07FF4020F0050800000000000000040004000303000140A8402000000000000000000000000000000000F0
:4004C0000000000000000000000000007800040000144649001F0800080A01514E013026388042007E800000008080002000000010000000301F0000008080003E070118D8
:400500008060708000000200000010504603010002C0E0000AFFFFFF62A0F0410C0000001C0004000404040400200001000000000000400200103010001010120000000042
:400540000000000000000000000000000000000000000000000000000000010000000000020200000000000000010000000000000100000001000000000000000001000072
:40058000000003028000000000000041000000000000000000000000000000000000000000000000040400000000000100000000000000000000000000000000000000006C
:4005C00000000000000000000000000000000008330044000000000324004000000C0C030000010000010006500000007200080C0001000E43003000400000007C000000DE
:400600000000030F8000008000004000010000000000004000FF07FF4020F0050800000000000000040404000000000140A840200000000000000000000000000000000070
:40064000000000000000000000000000000000000000CB008202000041000000CF023000F0000F00FF000000C30000002000000110000000300200003000CF01F00138009C
:400680000402030020000A080000000100000000000000000000000000000000000000000000021304040004000000010000000000000000000000000000000000000000DC
:4006C00000000000000000000000000000000000003F00000C0012001F000000000104000C241112000000001F10002804002000000A0314003F000000000000200007061E
:40070000100108382000080200004000000000000000000000000000000000000000000000000213040400042220000100000000000000000000000000000000000000009A
:400740000000000000000000000000004000037881200E0000A30054247A418400000000300347840000008550000000710008080240010043C3302C000000000000801F1D
:400780007F60008000000028000004406502000000E00B0C16FFFFFF0000F0440C000000000000000404040022020001000000000000C0000000400200000000000000008A
:4007C00000000000000000000000000000000000000000040003000000000000000000000000000414002101000022082200150008001100140323000002000031000003CE
:40080000030C0C008008220000000014030000000000040000FF07FF4020F0050800000000000000040404000202000140A84020000000000000000000000000000000001D
:4008400000000000000000000000000010060009060300040026790959002610000400023700482F51002010042F000000000000260059000201002E7F2F000030070E10FA
:400880004008072000008A020000000453040100020C00E021FFFFFF62A0F0410C0000000000000004040400220200010000000000004002001030100010101200000000A1
:4008C000000000000000000000000000000000000000000000000000000000000000000000000000380F0F0F0F3C72000000000000000000000000000000000000000000D6
:400900003C0000727200000000000000050000000000000000000500040000000F00000000000000000000000F000800000000000000000000000000000000000000000063
:4009400000000000000000000000000000000000000000000000000000000000000000000080000100000000000000000000000000000000000000000000000000000000F6
:4009800000000000000000000000000000000000000000000200080000000000000000000000000000000000000000000000000000000000008000000000000000000000AD
:4009C00000000000000000000000000000000000000000000000000000000000000000000000000000000000000000000000000000000000000000000000000000000000F7
:400A000000000000000000000000000000000000000000020000000000000000000000000000000000000000000000000000000000000000000000000000000000000000B4
:400A40000000000000000000000000000000000000000000000000000000000000000000040000000000000000000000000002000000000000000000000000000000000070
:400A8000000001000000000000000000000000000000000008000000000000000000000000000000000000000000000000000000000000000000000000000000000000002D
:400AC00008000000000000000000000000000000000000000000000000000000000000080002000000000000000000000000000000000000000000000000000000000000E4
:400B000000000000000000000000000000000000000000000400020000000000000000000000000000000000000000000002000000000000000000000000000000000000AD
:400B40000000000000000000000000000000000000000000000000000000000000000000000000000000000000000000000000000000000000000000000000000000000075
:400B8000000000080000000000000000000000000000000000000000000000000000000000000000000000000000000000000000000000000000000000000000000000002D
:400BC00008000000000000000000000000000000000000000000020000000000000000000000000000000000000000000800000000000000000000000000000000000000E3
:400C000002000000000000000000000000000000000000000000000000000000000000000000000000000000000000000000020000000000000000000000000000000000B0
:400C40000000000000000000000000000000000000000000000000000000000000000000000000000000000000000000000000000000000000000000000000000400000070
:400C80000000000000000000000000000000000000000000000000000000000000000000000000000000000000000000000000000000000000000000000000000000000034
:400CC00000000000000000000000000000000000000000000000000000000000000000000000000000000000000000000200000000000000000000000000000000000000F2
:400D0000040000000000000000000000000000000000000000000000000000000000000000000000000000000000000000000000008500040000050080002004200040100D
:400D400000002448022005010801220800240004005900000020400100800008200088004001204408000010008220040004000040600006208001000080200000000080CC
:400D800000020000000000000000000000000000000000000000000000000000000000000000000000000000000000000008000000100000040200000010000008000010EB
:400DC000021000000004040E002040008000880020001180000000000200000000000400840008040000000000000000F000E300EE00000000003C00FE00F600F200100029
:400E0000000000000000000000000000000020000000300000000000000020000000000000000000000000000000000008404008000000010040A80000000020A000009079
:400E400000001010048001090000008020140102000081000120400100000000000855000000400800580000000000004018010000000000040100000000000000000010BF
:400E80000000000002000004000000008400000100000000000000000000000000000000000000000000000000000000804000010000008002000080000081044010A0105F
:400EC000004002200020101901810002A4484010100000800000000000010000004000000000000000000000000000008F002F006F00000000000C005F000E000F000400FD
:400F0000000003000D000000000000000000510008000000000000000200000000000000000000000000000000000000040001809000000A088000000000620010006010BD
:400F4000800000040400000410004500000060108000880418200080000008082800000000008801060041100004000008000000000000000000021200000000088000009C
:400F80000000000000000000000001000000000000000000000000000004000900000000800404000000000000000000000000000000000000011000200002420000000026
:400FC0000011800200000000020010400000000008000002000000080000000000800010000004000000000000000000CD00B5003E00000000006700D6004F0004000C000A
:4010000000008000000000000000000010000000E000000030004000000080000000000000000000000000000000000028400000000812000000AA0000408020A100001093
:40104000000001114400A10000808000080904000000000100A100000008028002000000000000110010000000000022000000000080000000000000000000000000000073
:4010800000000111000000020020002000000000000000000210002000000000A0000010000000000000000000000000000000000000000000000101000001100080000067
:4010C0000400002000080018000000000000000000000000000000100000000000000018000800000000000000000000A700BF00DF0000000000CD00A100A4001000000015
:4011000000000100000000000000000000000000000000001000040000000000000000000000000000000000000000000080000000003140000001020880100400004000CA
:4011400000000018000400010000800404000010000404180040000800100002800014000000300884000010000822000000000000000258C0200000000020040000000850
:40118000010004000004910000010000000000008200000800000000000000000000000000000000000000000000000000000000000000000000000000000500800028005D
:4011C0000400000000E04000800000000000000041005009000040000000000004000000200000000000000000000000B100C1006800000000003C006E00EE007000040067
:4012000000008F00B00000000000000000000000400010000000000000000000000000000000000000000000000000000000000000000000000000000440000000000000DB
:4012400000000000000000000000000000000000000000000000008000000000000000000000000000000000000000000000000000000000000000000000000000000000EE
:401280000000000000000000000000000000000000000000000004000000000000000000000000000000000000000000E4000100000000000000210000000000B000002054
:4012C000200000000064410000000010200014800000040800400108000100800000140000000000240000000200000144000000401000008041000000000020700000006F
:4013000000000882100500800000A00900000040000000800000000000000000000000000000000000000000000000000000000000000040000000400000000000000000A5
:401340000001002040804020A00008000410001000000403000000200000000000000000000000000000000000000000070005002E00000000008D0006008600A500280019
:401380000000FF008100000000000000000020000000000000000100000000000000000000000000000000000000000000000000000000000000000000000000000000008C
:4013C000000000000000008000000000000000000000000000000000000000000000000000000000000000000000000000000000000000000000000000000000000000006D
:4014000000000000000000000000000000000000000000000000000000000000000000000000000000000000000000000000000000000000000000000000000000000000AC
:40144000000000000000000000000000000000000000000000000000000000000000000000000000000000000000000000000000000000000000000000000000000000006C
:4014800000000000000000000000000000002800000000000000000000000000000000000000000000000000000000000402000000448000200002200000250010000800BB
:4014C0000100211004A200082840200000254A0000000011200000080000A802000062000144001000540000200005204000000100000000000000000000000000000000A1
:4015000000000000000108004001081000200042000000000000000000000000000000000000000000000000000000000000000000000052000000008000000000540F00B2
