:400000000080002011000000457000004570000080B500AF024A034B1B68136007F044F8BC760040FA460040010000000020004001000000002001400100000000480040C0
:400040000100000000480140010000000100000008000223000008760800032300001076080004230000287608000523000030760500062300002070050007230000307065
:4000800005000823000060700500FE23000070703000FE220000405180000B220000000200010C220000004480000D220000004780000E22000000488000FE220000004D5C
:4000C0000700102300000052070011230000085207001223000010520700132300001852060014230000605207001523000078520C0016230000004F2000172300007064E0
:400100002000FE2300007065080019230000005180001A230000000080001B230000800080001C230000800280001D230000000480001E230000800480001F230000000607
:40014000800020230000800680002123000000088000222300008008800023230000000A800024230000800A800025230000000C800026230000800C800027230000000EFB
:40018000800028230000800E800029230000001480002A230000801480002B230000001680002C230000801680002D230000001880002E230000801880002F230000001A1F
:4001C000800030230000801A10003123000010501000322300000050800033230000804D800034230000004C800035230000804C80003623000080478000372300000046EF
:400200008000382300008046800039230000004580003A230000804580003B230000001B80003C230000801B80003D230000001580003E230000801580003F230000001981
:400240008000402300008019800041230000001780004223000080178000432300000009800044230000800980004523000000078000462300008007800047230000000BD8
:40028000800048230000800B800049230000000580004A230000800580004B230000000D80004C230000800D80004D230000000380004E230000800380004F230000000F86
:4002C000800050230000800F800051230000000180005223000080018000532300000049800054230000804980005523000080488000562300000043800057230000804359
:400300008000582300000042800059230000804280005A230000004180005B230000804180005C23000000408000FE230000804010B5054C237833B9044B13B10448AFF387
:4003400000800123237010BD5887FF1F00000000B4990000084B10B51BB108490848AFF300800848036803B910BD074B002BFBD0BDE81040184700BF000000005C87FF1FE8
:40038000B4990000C880FF1F0000000080B500AF274B1B78FF2B07D0254B93F84E31FF2B02D1244B01221A70214B1B78FF2B07D01F4B93F84E31FF2B02D01E4B02221A7086
:4003C0001C4B1B78022B31D1194B93F83731062B08D1174B1B78184603F01EFD144B002283F84D21124B93F88532062B09D1104B93F84E31184603F00FFD0D4B002283F847
:400400009B220B4B1B78184603F07EFD03461A46074B83F84C20064B93F84E31184603F073FD03461A46024B83F89A2100BF80BDB087FF1F768DFF1F90B597B000AFC54A64
:4004400007F11C0310681860C34A07F11403106818609188927999809A71C04A07F10C03106818609188927999809A71BC4B03221A7040F6C41006F07BFF06F0A9FE62B6F3
:4004800007F0FEFB07F0C6FD07F0F6FA07F010F807F044FAB34B002283F84D21B14B002283F89B22002007F0C9FA03465A2B19D1002387F8573010E097F8574097F8573031
:4004C0009BB2184607F0BAFA03461A46A64B1A5597F85730013387F8573097F85730052BEAD915E000215A2007F01EFA012387F8573009E097F857309B4A3021D15497F892
:400500005730013387F8573097F85730052BF1D9954B5B7903F00F03DBB21B01DAB2924B1B7903F00F03DBB219469B00CB1ADB00DBB21344DAB28C4B9B7803F00F03DBB253
:40054000194689000B445B00D9B2874BDB7803F00F03DBB2184680000344184684001846234603449B00DBB20B44DBB21344DAB27D4B5B7803F00F03DBB21344DAB27B4BD5
:400580001A70062007F05AFA03465A2B1CD1002387F8573013E097F857309C1D97F857309BB206339BB2184607F048FA03461A466F4B1A5597F85730013387F8573097F869
:4005C0005730052BE7D916E006215A2007F0ACF9012387F857300AE097F857300633644A3021D15497F85730013387F8573097F85730052BF0D95E4B5B7903F00F03DBB25C
:400600001B01DAB25A4B1B7903F00F03DBB219469B00CB1ADB00DBB21344DAB2544B9B7803F00F03DBB2194689000B445B00D9B24F4BDB7803F00F03DBB218468000034418
:40064000184684001846234603449B00DBB20B44DBB21344DAB2464B5B7803F00F03DBB21344DAB2434B1A7017E0002387F853300FE097F8534097F85330184603F074FBB3
:4006800003461A463C4B1A5597F85330013387F8533097F853300F2BEBD9324B1B78FF2BE3D0304B00221A702E4B012283F84E21324B00221A70002387F85630304B0022BB
:4006C0001A70304B02221A70FFF760FE042006F04FFE06F0B9FF034687F8233097F82330042BF1D997F82330042B16D9002387F852300CE097F8524006F05EFF03461A46BB
:40070000214B1A5597F85230013387F8523097F8522097F823309A42ECD3002387F82330194B1B7A1C2B66D01C2B2FDC0A2B00F090800A2B04DC012B3CD0022B3FD0B7E305
:400740000C2B00F0B9810C2BC0F222810D2B00F04E82ADE3B8990000BC990000C49900002E8DFF1FB087FF1FA887FF1F778DFF1F6C8DFF1F728DFF1FEC8CFF1F738DFF1F7C
:40078000748DFF1F768DFF1F8C8DFF1FAA2B1BD0AA2B06DC4E2B00F06183532B00F0388386E3CC2B00F0B782E12B00F07083CA2B38D07DE3E12387F8563001F09EB8E223AB
:4007C00087F8563001F099B8012387F85630002387F8513009E097F85130C04A0021D15497F85130013387F8513097F85130132BF1D901F082B86B2387F85630002387F861
:40080000503009E097F85030B44A0021D15497F85030013387F8503097F85030132BF1D901F06BB8032387F85630002387F84F3009E097F84F30A94A0021D15497F84F3005
:40084000013387F84F3097F84F30132BF1D901F054B897F85630012B19D1002387F856309F4B1B78184603F0D7FA002387F84E3009E097F84E30994A0021D15497F84E30F5
:40088000013387F84E3097F84E30132BF1D997F85630022B26D10A2387F85630904B1B78184603F031FB8E4B18788E4B1B780122194603F075FC8A4B1B78184603F024FB09
:4008C000002387F84D3009E097F84D30834A0021D15497F84D30013387F84D3097F84D30132BF1D997F856306B2B40F0F0871A2387F856307A4B1B78184603F005FB784B81
:400900001878784B1B780122194603F049FC744B1B78184603F0F8FA002387F84C3009E097F84C306D4A0021D15497F84C30013387F84C3097F84C30132BF1D9002387F884
:400940004B300BE097F84B30654A1344202283F8232197F84B30013387F84B3097F84B30132BEFD9002387F84A300BE097F84A305B4A1344202283F8392197F84A30013358
:4009800087F84A3097F84A30132BEFD900F09FBF97F85630012B1AD1002387F85630504B93F84E31184603F037FA002387F8493009E097F84930494A0021D15497F8493079
:4009C000013387F8493097F84930132BF1D997F85630022B17D10B2387F85630404B93F84E31184603F090FA3D4B93F84E013D4B1B780122194603F0D3FB394B93F84E31A0
:400A0000184603F081FA97F856306B2B40F062871B2387F85630324B93F84E31184603F073FA2F4B93F84E012E4B1B780122194603F0B6FB2A4B93F84E31184603F064FAEA
:400A4000002387F8483009E097F84830234A0021D15497F84830013387F8483097F84830132BF1D9002387F847300BE097F847301B4A1344202283F8712297F84730013328
:400A800087F8473097F84730072BEFD9002387F846300BE097F84630114A1344202283F8872297F84630013387F8463097F84630052BEFD900F00EBF97F85630012B21D105
:400AC000002387F85630064B93F89C32184603F0A3F9002387F8453010E000BF8C8DFF1FB087FF1F738DFF1F97F84530C54A0021D15497F84530013387F8453097F845303E
:400B0000132BF1D997F85630022B17D10C2387F85630BD4B93F89C32184603F0F5F9BA4B93F89C02B94B1B780122194603F038FBB54B93F89C32184603F0E6F997F85630A4
:400B40006B2B40F0CA861C2387F85630AE4B93F89C32184603F0D8F9AB4B93F89C02AB4B1B780122194603F01BFBA74B93F89C32184603F0C9F9002387F8443009E097F888
:400B80004430A04A0021D15497F84430013387F8443097F84430132BF1D9002387F843300BE097F84330984A1344202283F8BF2397F84330013387F8433097F84330072B26
:400BC000EFD9002387F842300BE097F842308E4A1344202283F8D52397F84230013387F8423097F84230052BEFD900F076BE97F85630012B1AD1002387F85630824B93F85A
:400C0000EA33184603F008F9002387F8413009E097F841307B4A0021D15497F84130013387F8413097F84130132BF1D997F85630022B17D10C2387F85630734B93F8EA334E
:400C4000184603F061F9704B93F8EA036F4B1B780122194603F0A4FA6B4B93F8EA33184603F052F997F856306B2B40F039861D2387F85630644B93F8EA33184603F044F978
:400C8000614B93F8EA03614B1B780122194603F087FA5D4B93F8EA33184603F035F9002387F8403009E097F84030564A0021D15497F84030013387F8403097F84030132BCD
:400CC000F1D9002387F83F300BE097F83F304E4A1344202283F80D2597F83F30013387F83F3097F83F30072BEFD9002387F83E300BE097F83E30444A1344202283F8232558
:400D000097F83E30013387F83E3097F83E30052BEFD900F0E5BD3C4B93F84E31184603F0F3F8394B93F84E01384B1B780122194603F036FA0A2006F01BFB334B93F84E316A
:400D4000184603F0E1F8304B1B78184603F0DCF82D4B18782D4B1B780122194603F020FA0A2006F005FB284B1B78184603F0CCF8254B93F84E31184603F0C6F8224B93F8B8
:400D80004E01224B1B780222194603F009FA0A2006F0EEFA1C4B93F84E31184603F0B4F8194B1B78184603F0AFF8174B1878174B1B780222194603F0F3F90A2006F0D8FACB
:400DC000114B1B78184603F09FF80F4B93F84E31184603F099F8002387F83D3009E097F83D30084A0021D15497F83D30013387F83D3097F83D30132BF1D903F057FA00F0F6
:400E00007CBD00BF8C8DFF1FB087FF1F738DFF1F97F85630AC2B03D097F856300A2B08D1C24B012283F84D21C04B1B78184604F069FD97F85630BC2B04D097F856300B2BA4
:400E400040F05185B94B012283F89B22B74B93F84E31184604F056FD00F045BD97F85630AC2B06D1002387F85630B04B002283F84D2197F85630BC2B40F03885002387F8EE
:400E80005630AA4B002283F89B2200F02FBD97F85630E12B02D1C12387F8563097F85630E22B40F02685C22387F8563000F021BD9F4BDB78832B40F0DB8097F854300A2B31
:400EC00040F0D6809A4B1B7AE12B00F0D180002387F83C300BE097F83C30944A1344302283F80B2197F83C30013387F83C3097F83C30052BEFD9002387F855308D4B002255
:400F00001A70002387F85430072387F83B3021E097F83B30864AD35C002B1FD097F83B30834AD35CFF2B19D097F83B30073B97F83B207F498A5C07F158010B4403F8542CE1
:400F400097F85530013387F8553097F83B30013387F83B3097F83B300B2BD9D9062387F857301BE097F8573097F8552007F158010A4412F8541C6D4A13440A4683F80B21C9
:400F800097F85530002B0ED097F85530013B87F8553097F85730013B87F8573097F85730002BDFD100E000BF604B93F80B31303B1B015AB25D4B93F80C31303BDBB25BB25E
:400FC00013435BB2DAB2594B83F82920574B93F80D31303B1B015AB2544B93F80E31303BDBB25BB213435BB2DAB2504B83F82A204E4B93F80F31303B1B015AB24B4B93F8C7
:401000001031303BDBB25BB213435BB2DAB2474B83F82B20002387F8573013E097F85730424A134493F8292097F857309BB20C339BB21946104606F077FC97F857300133E3
:4010400087F8573097F85730022BE7D9002387F83A3009E097F83A30354A0021D15497F83A30013387F83A3097F83A30132BF1D92F4BDB78832B0AD197F85430012B06D131
:401080002B4B1A7A2B4B1A700A2387F85430284BDB78832B5ED197F85630032B5AD1002387F85630224BDA793B7F9A422CD1204B1A7A7B7F9A4227D11D4B5A7ABB7F9A424B
:4010C00022D11B4B9A7AFB7F9A421DD1184BDB7AFF2B19D1002387F839300EE097F8393007F15802134413F8443C184606F0F4FA97F83930013387F8393097F83930052BD0
:40110000ECD9042006F034F9094B1B7A012B02D1012387F85430064B1B7A022B02D1022387F85430002387F838300FE0B087FF1F8C8DFF1F748DFF1F97F83830AE4A0021D2
:40114000D15497F83830013387F8383097F83830132BF1D9A84BDB78832B3DD197F856301A2B39D1072387F837301CE097F83730A14AD35C002B1AD097F837309E4AD35C95
:40118000FF2B14D097F83730073B97F837209A49895C9A4A13440A4683F8392197F83730013387F8373097F837301A2BDED9002387F8363009E097F836308F4A0021D154D4
:4011C00097F83630013387F8363097F83630132BF1D90A2387F85630874BDB78832B7BD197F85630C12B77D1072387F835301EE097F83530804AD35C002B1CD097F8353046
:401200007D4AD35CFF2B16D097F83530073B97F8352079498A5C303AD1B2784A13440A4683F80B2197F83530013387F8353097F835300A2BDCD9002387F8343009E097F881
:4012400034306D4A0021D15497F83430013387F8343097F83430132BF1D9684B93F80B31303B1B015AB2654B93F80C31303BDBB25BB213435BB2DAB2604B83F829205F4B76
:4012800093F80D31303B1B015AB25C4B93F80E31303BDBB25BB213435BB2DAB2574B83F82A20564B93F80F31303B1B015AB2534B93F81031303BDBB25BB213435BB2DAB2A9
:4012C0004E4B83F82B204D4B1B784D49184602F0DDFE002387F85630474BDB78832B7CD197F85630C22B78D1072387F833301EE097F83330404AD35C002B1CD097F8333092
:401300003D4AD35CFF2B16D097F83330073B97F8332039498A5C303AD1B2384A13440A4683F8592297F83330013387F8333097F833300A2BDCD9002387F8323009E097F8FD
:4013400032302D4A0021D15497F83230013387F8323097F83230132BF1D9284B93F85932303B1B015AB2254B93F85A32303BDBB25BB213435BB2DAB2204B83F877211F4BD0
:4013800093F85B32303B1B015AB21C4B93F85C32303BDBB25BB213435BB2DAB2174B83F87821164B93F85D32303B1B015AB2134B93F85E32303BDBB25BB213435BB2DAB21D
:4013C0000E4B83F879210D4B93F84E310D49184602F05CFE002387F85630074BDB78832B6CD197F856300A2B68D1002387F85630072387F831303FE08C8DFF1FB087FF1F05
:40140000D987FF1F2789FF1F97F83130BD4AD35C002B35D097F83130BA4AD35CFF2B2FD097F83130B74AD35C602B14D997F83130B44AD35C7A2B0ED897F83130073B97F8BD
:401440003120B0498A5C203AD1B2AF4A13440A4683F823210BE097F83130073B97F83120A849895CA84A13440A4683F8232197F83130013387F8313097F831301A2BC3D900
:40148000002387F8303009E097F830309D4A0021D15497F83030013387F8303097F83030132BF1D9984B1B78184604F02BFA964B012283F84D21AC2387F85630914BDB784F
:4014C000832B3DD197F856301B2B39D1072387F82F301CE097F82F308A4AD35C002B1AD097F82F30874AD35CFF2B14D097F82F30073B97F82F208349895C834A13440A4692
:4015000083F8872297F82F30013387F82F3097F82F300E2BDED9002387F82E3009E097F82E30784A0021D15497F82E30013387F82E3097F82E30132BF1D90B2387F85630A5
:40154000704BDB78832B65D197F856300B2B61D1002387F85630072387F82D3037E097F82D30684AD35C002B35D097F82D30654AD35CFF2B2FD097F82D30624AD35C602B75
:4015800014D997F82D305F4AD35C7A2B0ED897F82D30073B97F82D205A498A5C203AD1B2594A13440A4683F871220BE097F82D30073B97F82D205349895C534A13440A466D
:4015C00083F8712297F82D30013387F82D3097F82D300E2BC3D9002387F82C3009E097F82C30484A0021D15497F82C30013387F82C3097F82C30132BF1D9434B93F84E31F1
:40160000184604F07FF9404B012283F89B22BC2387F856303B4BDB78832B3DD197F856301C2B39D1072387F82B301CE097F82B30344AD35C002B1AD097F82B30314AD35CDB
:40164000FF2B14D097F82B30073B97F82B202D49895C2D4A13440A4683F8D52397F82B30013387F82B3097F82B300E2BDED9002387F82A3009E097F82A30224A0021D15418
:4016800097F82A30013387F82A3097F82A30132BF1D90C2387F856301A4BDB78832B69D197F856300C2B65D1002387F85630072387F829303BE097F82930124AD35C002B0A
:4016C00039D097F829300F4AD35CFF2B33D097F829300C4AD35C602B18D997F82930094AD35C7A2B12D897F82930073B97F8292004498A5C203AD1B2034A13440A4683F8E1
:40170000BF230FE08C8DFF1FB087FF1F97F82930073B97F829207A49895C7A4A13440A4683F8BF2397F82930013387F8293097F829300E2BBFD9002387F8283009E097F8BB
:4017400028306F4A0021D15497F82830013387F8283097F82830132BF1D96A4B93F89C32184604F0CFF8674B012283F8E923CC2387F85630624BDB78832B3DD197F85630E9
:401780001D2B39D1072387F827301CE097F827305B4AD35C002B1AD097F82730584AD35CFF2B14D097F82730073B97F827205449895C544A13440A4683F8232597F82730D9
:4017C000013387F8273097F827300E2BDED9002387F8263009E097F82630494A0021D15497F82630013387F8263097F82630132BF1D90D2387F85630414BDB78832B7BD181
:4018000097F856300D2B77D1002387F85630072387F8253037E097F82530394AD35C002B35D097F82530364AD35CFF2B2FD097F82530334AD35C602B14D997F82530304AEE
:40184000D35C7A2B0ED897F82530073B97F825202B498A5C203AD1B22A4A13440A4683F80D250BE097F82530073B97F825202449895C244A13440A4683F80D2597F82530D8
:40188000013387F8253097F825300E2BC3D9002387F8243009E097F82430194A0021D15497F82430013387F8243097F82430132BF1D9144B93F8EA33184604F023F8114B57
:4018C000012283F83725DC2387F8563014E000BFFEF7FABE00BFFEF7F7BE00BFFEF7F4BE00BFFEF7F1BE00BFFEF7EEBE00BFFEF7EBBE00BFFEF7E8BE00BFFEF7E5BE00BF2B
:401900008C8DFF1FB087FF1F80B489B000AF78600B467B800023FB830023BB617B68002B2FD1002368E0FB8BDB0B9BB2BB60FB8B5B00FB837B681B781A46BB6942FA03F323
:401940001BB203F001031AB2B7F91E3013431BB2FB83BB690133BB61BB69072B07DD0023BB617B6801337B607B88013B7B80BB68002B06D0FB8B83F4FF4383F07A03DB43AE
:40198000FB837B88002BCED100237B6113E0FB8BDB0B9BB2BB60FB8B5B00FB83BB68002B06D0FB8B83F4FF4383F07A03DB43FB837B6901337B617B690F2BE8DD00237B82D1
:4019C0004FF400437B610123FB6011E0FA8B7B691340002B06D0FB681AB2B7F9123013431BB27B827B695B107B61FB685B00FB607B69002BEAD17B8A18462437BD4680BC0C
:401A0000704700BFF0B589B000AF184B1B78FB71164B5B7803F00F03BB71154B1B78BA799A4240F05184124B002283F837210123FB770CE0FB7F013BFA7F0C49895C0C4A42
:401A400013440A4683F85120FB7F0133FB77FA7FFB7901339A42EDDB054B93F85330652B40F07F820523BB7725E000BFFC8CFF1FB087FF1FCD4B93F8553003F00F03591E12
:401A8000CB4B1B781D46BB7F581FBB7FC74A134493F85160C54C2A4692002A440B469B000B445B00134423440344013332461A70BB7F0133BB77BA7FBC4B93F85430043313
:401AC0009A42D7DBB94B93F8553003F00F03591EB74B1B781D46B54B93F8553003F00F03581EB34B1B78B14C1A4692001A4403469B0003445B001344234401331B781B0938
:401B0000DBB23033DCB2A9482A4692002A4453001A460B461B015B1A5B0013440344833322461A70A14B93F8553003F00F03591E9F4B1B781D469D4B93F8553003F00F033B
:401B4000581E9B4B1B78994C1A4692001A4403469B0003445B001344234401331B7803F00F03DBB23033DCB290482A4692002A4453001A460B461B015B1A5B0013440344DD
:401B8000843322461A70894B93F8553003F00F03591E874B1B781D46844B93F8553003F00F03581E824B1B78804C1A4692001A4403469B0003445B001344234402331B7872
:401BC0001B09DBB23033DCB278482A4692002A4453001A460B461B015B1A5B0013440344853322461A70714B93F8553003F00F03591E6F4B1B781D466C4B93F8553003F029
:401C00000F03581E6A4B1B78684C1A4692001A4403469B0003445B001344234402331B7803F00F03DBB23033DCB260482A4692002A4453001A460B461B015B1A5B001344E2
:401C40000344863322461A70584B93F8553003F00F03591E564B1B781D46544B93F8553003F00F03581E524B1B78504C1A4692001A4403469B0003445B00134423440333EC
:401C80001B781B09DBB23033DCB248482A4692002A4453001A460B461B015B1A5B0013440344873322461A70404B93F8553003F00F03591E3E4B1B781D463C4B93F8553088
:401CC00003F00F03581E3A4B1B78384C1A4692001A4403469B0003445B001344234403331B7803F00F03DBB23033DCB22F482A4692002A4453001A460B461B015B1A5B0016
:401D000013440344883322461A70284B93F8553003F00F03591E264B1B781D46234B93F8553003F00F03581E214B1B781F4C1A4692001A4403469B0003445B0013442344FB
:401D400004331B781B09DBB23033DCB217482A4692002A4453001A460B461B015B1A5B0013440344893322461A70104B93F8553003F00F03591E0E4B1B781D460B4B93F8D5
:401D8000553003F00F03581E094B1B78074C1A4692001A4403469B0003445B001344234404331B7803F00F03DBB203E0B087FF1F738DFF1F3033DCB2B8482A4692002A4442
:401DC00053001A460B461B015B1A5B00134403448A3322461A70B14B93F8553003F00F03591EAF4B1B781D46AC4B93F8553003F00F03581EAA4B1B78A84C1A4692001A44E0
:401E000003469B0003445B001344234405331B781B09DBB23033DCB2A0482A4692002A4453001A460B461B015B1A5B00134403448B3322461A70994B93F8553003F00F0362
:401E4000591E974B1B781D46944B93F8553003F00F03581E924B1B78904C1A4692001A4403469B0003445B001344234405331B7803F00F03DBB23033DCB288482A469200A9
:401E80002A4453001A460B461B015B1A5B00134403448C3322461A7000237B773AE07F4B93F8553003F00F03591E7D4B1B7897F91D007A4C1A4692001A4453001A460B46CE
:401EC0001B015B1A5B0013442344034483331B78302B24D1714B93F8553003F00F03591E6F4B1B7897F91D006C4C1A4692001A4453001A460B461B015B1A5B001344234460
:401F00000344833300221A7097F91D30DBB20133DBB27B7797F91D30072BC0DD00E000BF012005F0A7FABB7943F05003DBB2184605F0E8FF594B93F852305BB203F00F0395
:401F40005BB263F03F035BB2DBB2184605F0DAFFFA2005F0D7FF042005F00AFA002005F089FA4E4B93F85330022B40F0138104233B771BE03B7F043B3A7F48490A4492F8D8
:401F80005110464A13440A4683F839203B7F043B3A7F043241490A4492F851103F4A13440A4683F835203B7F01333B773B7F072BE0D93A4B93F839301B09DBB23033DAB2AC
:401FC000364B83F80321354B93F8393003F00F03DBB23033DAB2314B83F804212F4B93F83A301B09DBB23033DAB22C4B83F805212A4B93F83A3003F00F03DBB23033DAB29E
:40200000264B83F80621254B93F83B301B09DBB23033DAB2214B83F80721204B93F83B3003F00F03DBB23033DAB21C4B83F808211A4B93F83C301B09DBB23033DAB2174B2D
:4020400083F80921154B93F83C3003F00F03DBB23033DAB2114B83F80A210023FB7614E097F91B300D4A134493F80331302B1BD197F91B30094A1344002283F8032197F9F4
:402080001B30DBB20133DBB2FB7697F91B20054B1B7801339A42E3DB07E000BFB087FF1F738DFF1F2E8DFF1F00BF9C4B93F835301B09DBB23033DAB2984B83F8FB20974B17
:4020C00093F8353003F00F03DBB23033DAB2934B83F8FC20914B93F836301B09DBB23033DAB28E4B83F8FD208C4B93F8363003F00F03DBB23033DAB2884B83F8FE20874B95
:4021000093F837301B09DBB23033DAB2834B83F8FF20824B93F8373003F00F03DBB23033DAB27E4B83F800217C4B93F838301B09DBB23033DAB2794B83F80121774B93F8F8
:40214000383003F00F03DBB23033DAB2734B83F802210023BB7614E097F91A306F4A134493F8FB30302B11D197F91A306B4A1344002283F8FB2097F91A30DBB20133DBB22F
:40218000BB7697F91A30072BE6DD00E000BF002005F070F9614B93F85330032B40F094805E4B93F85430042B40F08E805B4B062283F83721594B93F8583003F00F03DAB2C8
:4021C000564B83F83821554B93F838315A1E534B93F8573003F00F03DBB23033D8B24F4913465B0013445B000B4403F5887302461A704A4B93F838315A1E484B93F8573077
:402200001B09DBB23033D8B2444913465B0013445B000B4403F20F1302461A703F4B93F838315A1E3D4B93F8563003F00F03DBB23033D8B2394913465B0013445B000B4490
:4022400003F5877302461A70344B93F838315A1E324B93F856301B09DBB23033D8B22F4913465B0013445B000B4403F20D1302461A702A4B93F838315A1E284B93F855300B
:4022800003F00F03DBB23033D8B2244913465B0013445B000B4403F5867302461A701F4B93F838315A1E1D4B93F855301B09DBB23033D8B2194913465B0013445B000B44B7
:4022C00003F20B1302461A70144B93F84E31BA799A4240F06784114B002283F8852201237B760CE07B7E013B7A7E0D49895C0B4A13440A4683F89F217B7E01337B767A7E10
:40230000FB7901339A42EDDB044B93F8A131652B40F0968205233B7626E000BFB087FF1FFC8CFF1FCD4B93F8A33103F00F03591ECB4B1B781D463B7E581F3B7EC74A1344E4
:4023400093F89F61C54C2A4692002A440B469B000B445B0013442344034403F24F1332461A703B7E01333B763A7EBC4B93F8A23104339A42D6DBB94B93F8A33103F00F0376
:40238000591EB74B1B781D46B44B93F8A33103F00F03581EB24B1B78B04C1A4692001A4403469B0003445B001344234403F24F131B781B09DBB23033DCB2A8482A46920037
:4023C0002A4453001A460B461B015B1A5B001344034403F2D11322461A70A04B93F8A33103F00F03591E9E4B1B781D469B4B93F8A33103F00F03581E994B1B78974C1A46F7
:4024000092001A4403469B0003445B001344234403F24F131B7803F00F03DBB23033DCB28E482A4692002A4453001A460B461B015B1A5B001344034403F5E97322461A70E1
:40244000864B93F8A33103F00F03591E844B1B781D46824B93F8A33103F00F03581E804B1B787E4C1A4692001A4403469B0003445B001344234403F5A8731B781B09DBB231
:402480003033DCB275482A4692002A4453001A460B461B015B1A5B001344034403F2D31322461A706D4B93F8A33103F00F03591E6B4B1B781D46694B93F8A33103F00F034C
:4024C000581E674B1B78654C1A4692001A4403469B0003445B001344234403F5A8731B7803F00F03DBB23033DCB25C482A4692002A4453001A460B461B015B1A5B00134458
:40250000034403F5EA7322461A70544B93F8A33103F00F03591E524B1B781D464F4B93F8A33103F00F03581E4D4B1B784B4C1A4692001A4403469B0003445B001344234436
:4025400003F251131B781B09DBB23033DCB243482A4692002A4453001A460B461B015B1A5B001344034403F2D51322461A703B4B93F8A33103F00F03591E394B1B781D469A
:40258000364B93F8A33103F00F03581E344B1B78324C1A4692001A4403469B0003445B001344234403F251131B7803F00F03DBB23033DCB229482A4692002A4453001A4699
:4025C0000B461B015B1A5B001344034403F5EB7322461A70214B93F8A33103F00F03591E1F4B1B781D461D4B93F8A33103F00F03581E1B4B1B78194C1A4692001A440346D8
:402600009B0003445B001344234403F5A9731B781B09DBB23033DCB210482A4692002A4453001A460B461B015B1A5B001344034403F2D71322461A70084B93F8A33103F08A
:402640000F03591E064B1B781D46044B93F8A33103F00F03581E024B1B7803E0B087FF1F738DFF1FC44C1A4692001A4403469B0003445B001344234403F5A9731B7803F0ED
:402680000F03DBB23033DCB2BB482A4692002A4453001A460B461B015B1A5B001344034403F5EC7322461A70B34B93F8A33103F00F03591EB14B1B781D46AF4B93F8A3311C
:4026C00003F00F03581EAD4B1B78AB4C1A4692001A4403469B0003445B001344234403F253131B781B09DBB23033DCB2A2482A4692002A4453001A460B461B015B1A5B006F
:402700001344034403F2D91322461A709A4B93F8A33103F00F03591E984B1B781D46964B93F8A33103F00F03581E944B1B78924C1A4692001A4403469B0003445B00134457
:40274000234403F253131B7803F00F03DBB23033DCB289482A4692002A4453001A460B461B015B1A5B001344034403F5ED7322461A700023FB753CE07F4B93F8A33103F09D
:402780000F03591E7D4B1B7897F917007A4C1A4692001A4453001A460B461B015B1A5B0013442344034403F2D1131B78302B25D1714B93F8A33103F00F03591E6F4B1B78E2
:4027C00097F917006C4C1A4692001A4453001A460B461B015B1A5B0013442344034403F2D11300221A7097F91730DBB20133DBB2FB7597F91730072BBEDD00E000BF0120B7
:4028000004F038FEBB7943F05003DBB2184605F079FB594B93F8A0315BB203F00F035BB263F03F035BB2DBB2184605F06BFBFA2005F068FB042004F09BFD002004F01AFE0B
:402840004D4B93F8A131022B40F012810423BB751BE0BB7D043BBA7D47490A4492F89F11454A13440A4683F88721BB7D043BBA7D043241490A4492F89F113F4A13440A46DC
:4028800083F88321BB7D0133BB75BB7D072BE0D9394B93F887311B09DBB23033DAB2364B83F85122344B93F8873103F00F03DBB23033DAB2304B83F852222F4B93F88831F9
:4028C0001B09DBB23033DAB22B4B83F853222A4B93F8883103F00F03DBB23033DAB2264B83F85422244B93F889311B09DBB23033DAB2214B83F855221F4B93F8893103F0E2
:402900000F03DBB23033DAB21B4B83F856221A4B93F88A311B09DBB23033DAB2164B83F85722154B93F88A3103F00F03DBB23033DAB2114B83F8582200237B7514E097F901
:4029400015300D4A134493F85132302B1AD197F91530094A1344002283F8512297F91530DBB20133DBB27B7597F91520044B1B7801339A42E3DB06E0B087FF1F738DFF1FA0
:402980002E8DFF1F00BF9C4B93F883311B09DBB23033DAB2984B83F84922974B93F8833103F00F03DBB23033DAB2934B83F84A22914B93F884311B09DBB23033DAB28E4BF4
:4029C00083F84B228C4B93F8843103F00F03DBB23033DAB2884B83F84C22874B93F885311B09DBB23033DAB2834B83F84D22824B93F8853103F00F03DBB23033DAB27E4BD8
:402A000083F84E227C4B93F886311B09DBB23033DAB2794B83F84F22774B93F8863103F00F03DBB23033DAB2734B83F8502200233B7514E097F914306F4A134493F8493271
:402A4000302B11D197F914306B4A1344002283F8492297F91430DBB20133DBB23B7597F91430072BE6DD00E000BF002004F002FD614B93F8A131032B40F094805E4B93F835
:402A8000A231042B40F08E805B4B062283F88522594B93F8A63103F00F03DAB2564B83F88622554B93F886325A1E534B93F8A53103F00F03DBB23033D8B24F4913465B0066
:402AC00013445B000B4403F25E2302461A704A4B93F886325A1E484B93F8A5311B09DBB23033D8B2444913465B0013445B000B4403F25D2302461A703F4B93F886325A1EDD
:402B00003D4B93F8A43103F00F03DBB23033D8B2394913465B0013445B000B4403F5177302461A70344B93F886325A1E324B93F8A4311B09DBB23033D8B22F4913465B00C2
:402B400013445B000B4403F25B2302461A702A4B93F886325A1E284B93F8A33103F00F03DBB23033D8B2244913465B0013445B000B4403F25A2302461A701F4B93F886327B
:402B80005A1E1D4B93F8A3311B09DBB23033D8B2194913465B0013445B000B4403F2592302461A70144B93F89C32BA799A4240F06784114B002283F8D3230123FB740CE08E
:402BC000FB7C013BFA7C0D49895C0B4A13440A4683F8ED22FB7C0133FB74FA7CFB7901339A42EDDB044B93F8EF32652B40F096820523BB7426E000BFB087FF1FFC8CFF1F25
:402C0000CD4B93F8F13203F00F03591ECB4B1B781D46BB7C581FBB7CC74A134493F8ED62C54C2A4692002A440B469B000B445B0013442344034403F29D2332461A70BB7C15
:402C40000133BB74BA7CBC4B93F8F03204339A42D6DBB94B93F8F13203F00F03591EB74B1B781D46B44B93F8F13203F00F03581EB24B1B78B04C1A4692001A4403469B0035
:402C800003445B001344234403F29D231B781B09DBB23033DCB2A8482A4692002A4453001A460B461B015B1A5B001344034403F21F3322461A70A04B93F8F13203F00F0305
:402CC000591E9E4B1B781D469B4B93F8F13203F00F03581E994B1B78974C1A4692001A4403469B0003445B001344234403F29D231B7803F00F03DBB23033DCB28E482A4670
:402D000092002A4453001A460B461B015B1A5B001344034403F5487322461A70864B93F8F13203F00F03591E844B1B781D46824B93F8F13203F00F03581E804B1B787E4C82
:402D40001A4692001A4403469B0003445B001344234403F29E231B781B09DBB23033DCB275482A4692002A4453001A460B461B015B1A5B001344034403F2213322461A70DE
:402D80006D4B93F8F13203F00F03591E6B4B1B781D46694B93F8F13203F00F03581E674B1B78654C1A4692001A4403469B0003445B001344234403F29E231B7803F00F03D0
:402DC000DBB23033DCB25C482A4692002A4453001A460B461B015B1A5B001344034403F2223322461A70544B93F8F13203F00F03591E524B1B781D464F4B93F8F13203F0E0
:402E00000F03581E4D4B1B784B4C1A4692001A4403469B0003445B001344234403F29F231B781B09DBB23033DCB243482A4692002A4453001A460B461B015B1A5B00134486
:402E4000034403F2233322461A703B4B93F8F13203F00F03591E394B1B781D46364B93F8F13203F00F03581E344B1B78324C1A4692001A4403469B0003445B0013442344D6
:402E800003F29F231B7803F00F03DBB23033DCB229482A4692002A4453001A460B461B015B1A5B001344034403F5497322461A70214B93F8F13203F00F03591E1F4B1B789D
:402EC0001D461D4B93F8F13203F00F03581E1B4B1B78194C1A4692001A4403469B0003445B001344234403F528731B781B09DBB23033DCB210482A4692002A4453001A46A9
:402F00000B461B015B1A5B001344034403F2253322461A70084B93F8F13203F00F03591E064B1B781D46044B93F8F13203F00F03581E024B1B7803E0B087FF1F738DFF1F05
:402F4000C44C1A4692001A4403469B0003445B001344234403F528731B7803F00F03DBB23033DCB2BB482A4692002A4453001A460B461B015B1A5B001344034403F22633B5
:402F800022461A70B34B93F8F13203F00F03591EB14B1B781D46AF4B93F8F13203F00F03581EAD4B1B78AB4C1A4692001A4403469B0003445B001344234403F2A1231B7880
:402FC0001B09DBB23033DCB2A2482A4692002A4453001A460B461B015B1A5B001344034403F2273322461A709A4B93F8F13203F00F03591E984B1B781D46964B93F8F1328F
:4030000003F00F03581E944B1B78924C1A4692001A4403469B0003445B001344234403F2A1231B7803F00F03DBB23033DCB289482A4692002A4453001A460B461B015B1A8C
:403040005B001344034403F54A7322461A7000237B743CE07F4B93F8F13203F00F03591E7D4B1B7897F911007A4C1A4692001A4453001A460B461B015B1A5B0013442344CE
:40308000034403F21F331B78302B25D1714B93F8F13203F00F03591E6F4B1B7897F911006C4C1A4692001A4453001A460B461B015B1A5B0013442344034403F21F33002264
:4030C0001A7097F91130DBB20133DBB27B7497F91130072BBEDD00E000BF012004F0CAF9BB7943F05003DBB2184604F00BFF594B93F8EE325BB203F00F035BB263F03F037D
:403100005BB2DBB2184604F0FDFEFA2004F0FAFE042004F02DF9002004F0ACF94D4B93F8EF32022B40F0128104233B741BE03B7C043B3A7C47490A4492F8ED12454A1344AD
:403140000A4683F8D5223B7C043B3A7C043241490A4492F8ED123F4A13440A4683F8D1223B7C01333B743B7C072BE0D9394B93F8D5321B09DBB23033DAB2364B83F89F23FC
:40318000344B93F8D53203F00F03DBB23033DAB2304B83F8A0232F4B93F8D6321B09DBB23033DAB22B4B83F8A1232A4B93F8D63203F00F03DBB23033DAB2264B83F8A22328
:4031C000244B93F8D7321B09DBB23033DAB2214B83F8A3231F4B93F8D73203F00F03DBB23033DAB21B4B83F8A4231A4B93F8D8321B09DBB23033DAB2164B83F8A523154BBA
:4032000093F8D83203F00F03DBB23033DAB2114B83F8A6230023FB7314E097F90F300D4A134493F89F33302B1AD197F90F30094A1344002283F89F2397F90F30DBB20133CB
:40324000DBB2FB7397F90F20044B1B7801339A42E3DB06E0B087FF1F738DFF1F2E8DFF1F00BF9C4B93F8D1321B09DBB23033DAB2984B83F89723974B93F8D13203F00F0351
:40328000DBB23033DAB2934B83F89823914B93F8D2321B09DBB23033DAB28E4B83F899238C4B93F8D23203F00F03DBB23033DAB2884B83F89A23874B93F8D3321B09DBB25E
:4032C0003033DAB2834B83F89B23824B93F8D33203F00F03DBB23033DAB27E4B83F89C237C4B93F8D4321B09DBB23033DAB2794B83F89D23774B93F8D43203F00F03DBB21B
:403300003033DAB2734B83F89E230023BB7314E097F90E306F4A134493F89733302B11D197F90E306B4A1344002283F8972397F90E30DBB20133DBB2BB7397F90E30072B74
:40334000E6DD00E000BF002004F094F8614B93F8EF32032B40F094805E4B93F8F032042B40F08E805B4B062283F8D323594B93F8F43203F00F03DAB2564B83F8D423554BE6
:4033800093F8D4335A1E534B93F8F33203F00F03DBB23033D8B24F4913465B0013445B000B4403F56B7302461A704A4B93F8D4335A1E484B93F8F3321B09DBB23033D8B2C1
:4033C000444913465B0013445B000B4403F2AB3302461A703F4B93F8D4335A1E3D4B93F8F23203F00F03DBB23033D8B2394913465B0013445B000B4403F2AA3302461A70C1
:40340000344B93F8D4335A1E324B93F8F2321B09DBB23033D8B22F4913465B0013445B000B4403F2A93302461A702A4B93F8D4335A1E284B93F8F13203F00F03DBB23033D4
:40344000D8B2244913465B0013445B000B4403F56A7302461A701F4B93F8D4335A1E1D4B93F8F1321B09DBB23033D8B2194913465B0013445B000B4403F2A73302461A7019
:40348000144B93F8EA33BA799A4240F06784114B002283F8212501237B730CE07B7B013B7A7B0D49895C0B4A13440A4683F83B247B7B01337B737A7BFB7901339A42EDDB0D
:4034C000044B93F83D34652B40F0968205233B7326E000BFB087FF1FFC8CFF1FCD4B93F83F3403F00F03591ECB4B1B781D463B7B581F3B7BC74A134493F83B64C54C2A467F
:4035000092002A440B469B000B445B0013442344034403F2EB3332461A703B7B01333B733A7BBC4B93F83E3404339A42D6DBB94B93F83F3403F00F03591EB74B1B781D4650
:40354000B44B93F83F3403F00F03581EB24B1B78B04C1A4692001A4403469B0003445B001344234403F2EB331B781B09DBB23033DCB2A8482A4692002A4453001A460B4607
:403580001B015B1A5B001344034403F26D4322461A70A04B93F83F3403F00F03591E9E4B1B781D469B4B93F83F3403F00F03581E994B1B78974C1A4692001A4403469B00B9
:4035C00003445B001344234403F2EB331B7803F00F03DBB23033DCB28E482A4692002A4453001A460B461B015B1A5B001344034403F26E4322461A70864B93F83F3403F014
:403600000F03591E844B1B781D46824B93F83F3403F00F03581E804B1B787E4C1A4692001A4403469B0003445B001344234403F57B731B781B09DBB23033DCB275482A46F2
:4036400092002A4453001A460B461B015B1A5B001344034403F26F4322461A706D4B93F83F3403F00F03591E6B4B1B781D46694B93F83F3403F00F03581E674B1B78654C22
:403680001A4692001A4403469B0003445B001344234403F57B731B7803F00F03DBB23033DCB25C482A4692002A4453001A460B461B015B1A5B001344034403F58E63224687
:4036C0001A70544B93F83F3403F00F03591E524B1B781D464F4B93F83F3403F00F03581E4D4B1B784B4C1A4692001A4403469B0003445B001344234403F2ED331B781B095F
:40370000DBB23033DCB243482A4692002A4453001A460B461B015B1A5B001344034403F2714322461A703B4B93F83F3403F00F03591E394B1B781D46364B93F83F3403F0FB
:403740000F03581E344B1B78324C1A4692001A4403469B0003445B001344234403F2ED331B7803F00F03DBB23033DCB229482A4692002A4453001A460B461B015B1A5B00A1
:403780001344034403F2724322461A70214B93F83F3403F00F03591E1F4B1B781D461D4B93F83F3403F00F03581E1B4B1B78194C1A4692001A4403469B0003445B0013441D
:4037C000234403F2EE331B781B09DBB23033DCB210482A4692002A4453001A460B461B015B1A5B001344034403F2734322461A70084B93F83F3403F00F03591E064B1B7873
:403800001D46044B93F83F3403F00F03581E024B1B7803E0B087FF1F738DFF1FC44C1A4692001A4403469B0003445B001344234403F2EE331B7803F00F03DBB23033DCB257
:40384000BB482A4692002A4453001A460B461B015B1A5B001344034403F2744322461A70B34B93F83F3403F00F03591EB14B1B781D46AF4B93F83F3403F00F03581EAD4BD4
:403880001B78AB4C1A4692001A4403469B0003445B001344234403F2EF331B781B09DBB23033DCB2A2482A4692002A4453001A460B461B015B1A5B001344034403F2754309
:4038C00022461A709A4B93F83F3403F00F03591E984B1B781D46964B93F83F3403F00F03581E944B1B78924C1A4692001A4403469B0003445B001344234403F2EF331B78B6
:4039000003F00F03DBB23033DCB289482A4692002A4453001A460B461B015B1A5B001344034403F2764322461A700023FB723CE07F4B93F83F3403F00F03591E7D4B1B784A
:4039400097F90B007A4C1A4692001A4453001A460B461B015B1A5B0013442344034403F26D431B78302B25D1714B93F83F3403F00F03591E6F4B1B7897F90B006C4C1A46E2
:4039800092001A4453001A460B461B015B1A5B0013442344034403F26D4300221A7097F90B30DBB20133DBB2FB7297F90B30072BBEDD00E000BF012003F05CFDBB7943F040
:4039C0005003DBB2184604F09DFA594B93F83C345BB203F00F035BB263F03F035BB2DBB2184604F08FFAFA2004F08CFA042003F0BFFC002003F03EFD4D4B93F83D34022BC1
:403A000040F012810423BB721BE0BB7A043BBA7A47490A4492F83B14454A13440A4683F82324BB7A043BBA7A043241490A4492F83B143F4A13440A4683F81F24BB7A013337
:403A4000BB72BB7A072BE0D9394B93F823341B09DBB23033DAB2364B83F8ED24344B93F8233403F00F03DBB23033DAB2304B83F8EE242F4B93F824341B09DBB23033DAB2FF
:403A80002B4B83F8EF242A4B93F8243403F00F03DBB23033DAB2264B83F8F024244B93F825341B09DBB23033DAB2214B83F8F1241F4B93F8253403F00F03DBB23033DAB26B
:403AC0001B4B83F8F2241A4B93F826341B09DBB23033DAB2164B83F8F324154B93F8263403F00F03DBB23033DAB2114B83F8F42400237B7214E097F909300D4A134493F837
:403B0000ED34302B1AD197F90930094A1344002283F8ED2497F90930DBB20133DBB27B7297F90920044B1B7801339A42E3DB06E0B087FF1F738DFF1F2E8DFF1F00BF894BCB
:403B400093F81F341B09DBB23033DAB2854B83F8E524844B93F81F3403F00F03DBB23033DAB2804B83F8E6247E4B93F820341B09DBB23033DAB27B4B83F8E724794B93F812
:403B8000203403F00F03DBB23033DAB2754B83F8E824744B93F821341B09DBB23033DAB2704B83F8E9246F4B93F8213403F00F03DBB23033DAB26B4B83F8EA24694B93F8CE
:403BC00022341B09DBB23033DAB2664B83F8EB24644B93F8223403F00F03DBB23033DAB2604B83F8EC2400233B7214E097F908305C4A134493F8E534302B11D197F908301B
:403C0000584A1344002283F8E52497F90830DBB20133DBB23B7297F90830072BE6DD00E000BF002003F026FC4E4B93F83D34032B40F094804B4B93F83E34042B40F08E808A
:403C4000484B062283F82125464B93F8423403F00F03DAB2434B83F82225424B93F822355A1E404B93F8413403F00F03DBB23033D8B23C4913465B0013445B000B4403F235
:403C8000FA4302461A70374B93F822355A1E354B93F841341B09DBB23033D8B2314913465B0013445B000B4403F2F94302461A702C4B93F822355A1E2A4B93F8403403F091
:403CC0000F03DBB23033D8B2264913465B0013445B000B4403F59F6302461A70214B93F822355A1E1F4B93F840341B09DBB23033D8B21C4913465B0013445B000B4403F26C
:403D0000F74302461A70174B93F822355A1E154B93F83F3403F00F03DBB23033D8B2114913465B0013445B000B4403F2F64302461A700C4B93F822355A1E0A4B93F83F34CB
:403D40001B09DBB23033D8B2064913465B0013445B000B4403F2F54302461A7000BF2437BD46F0BDB087FF1F90B585B000AF0346FB71274BFF221A70254BFF2283F84E210D
:403D8000234BFF2283F89C22214BFF2283F8EA23012003F06FFBFB7943F05003DBB2184604F0B0F8202004F0ADF8FA2004F0AAF8042003F0DDFA002003F05CFB04F01AF840
:403DC0000346BB730023FB7309E0FC7B03F0CAFF03461A460F4B1A55FB7B0133FB73FA7BBB7B9A42F1D304F04DF84FF4967003F0BFFABB7B002B05D0064B1B7803F00F037D
:403E0000DBB200E0FF2318461437BD4690BD00BFB087FF1FFC8CFF1F80B584B000AF0346FB710023FB7306E0FB7B324A0021D154FB7B0133FB73FB7B312BF5D9FB79012B6C
:403E400003D12D4B002283F84D21012003F012FBFB7943F05003DAB2264B1A70254B30225A70244B01229A70224B0122DA70214B06221A7105211F48FDF746FD03461A46BB
:403E80001E4B1A801D4B1B881B0A9BB2DAB21C4B1A701A4B1B88DAB21A4B1A70194B1A78144B5A71164B1A78124B9A71114B0322DA71104BFA221A720023BB7308E0BB7BC9
:403EC0000C4AD35C184604F01DF8BB7B0133BB73BB7B092BF3D9042003F04AFA002003F0C9FAC82003F044FA7B7B18461037BD4680BD00BF308DFF1FB087FF1F788DFF1FD1
:403F0000E88CFF1F7A8DFF1F90B585B000AF0346FB710023FB7306E0FB7B5A4A0021D154FB7B0133FB73FB7B312BF5D9012003F0A1FAFB7943F05003DBB2184603F0E2FFF5
:403F4000202003F0DFFFFA2003F0DCFF032003F00FFA002003F08EFA03F04CFF03467B720123BB7309E0BC7B03F0FCFE03461A46444B1A55BB7B0133BB73BA7B7B7A01331E
:403F80009A42F0DB3F4A7B7A137003F07BFF7B7A032B05D9FDF736FD642003F0E9F965E0642003F0E5F9384B1B78FA799A4212D100237B730BE07B7B7A7B3249895C324AC6
:403FC00013440A4683F851207B7B01337B737A7B7B7A9A42EFD32C4B93F84E31FA799A4212D100233B730BE03B7B3A7B2549895C254A13440A4683F89F213B7B01333B7378
:404000003A7B7B7A9A42EFD31F4B93F89C32FA799A4212D10023FB720BE0FB7AFA7A1949895C194A13440A4683F8ED22FB7A0133FB72FA7A7B7A9A42EFD3134B93F8EA33E1
:40404000FA799A4212D10023BB720BE0BB7ABA7A0C49895C0C4A13440A4683F83B24BB7A0133BB72BA7A7B7A9A42EFD37B7A002B02D0044B5B7800E0002318461437BD4639
:4040800090BD00BFFC8CFF1FB087FF1F90B585B000AF03463960FB71012003F0EBF9FB7943F05003DAB2394B1A70384B30225A70364B05229A70354B0322DA703B681A7881
:4040C000324B1A713B685A78304B5A713B689A782E4B9A7107212D48FDF716FC03461A462B4B1A802A4B1B881B0A9BB2DAB2294B1A70274B1B88DAB2274B1A70264B1A78B4
:40410000224BDA71234B1A78204B1A721F4B03225A721E4BFA229A720023FB7308E0FB7B1A4AD35C184603F0EDFEFB7B0133FB73FB7B0B2BF3D9042003F01AF9002003F059
:4041400099F903F057FE03467B730023BB7309E0BC7B03F007FE03461A46104B1A55BB7B0133BB73BA7B7B7B9A42F1D303F08AFE642003F0FDF87B7B002B02D0074B5B78F0
:4041800000E0002318461437BD4690BD308DFF1F788DFF1FE88CFF1F7A8DFF1FFC8CFF1F90B585B000AF0346FB710B46BB7113467B71BB791B015AB297F9053013435BB284
:4041C0007B73012003F056F9FB7943F05003DAB2314B1A70304B30225A702F4B65229A702D4B0122DA702C4A7B7B137105212A48FDF78AFB03461A46284B1A80274B1B888F
:404200001B0A9BB2DAB2264B1A70244B1B88DAB2244B1A70234B1A781F4B5A71204B1A781D4B9A711C4B0322DA711B4BFA221A720023FB7308E0FB7B174AD35C184603F094
:4042400061FEFB7B0133FB73FB7B092BF3D9042003F08EF8002003F00DF903F0CBFD03463B730023BB7309E0BC7B03F07BFD03461A460D4B1A55BB7B0133BB73BA7B3B7B1A
:404280009A42F1D303F0FEFD642003F071F800BF1437BD4690BD00BF308DFF1F788DFF1FE88CFF1F7A8DFF1FFC8CFF1F90B5A5B000AF002387F88F301BE0002387F88E3017
:4042C0000BE097F88E30C94AD35C184603F004FA97F88E30013387F88E3097F88E30052BEFD9052003F044F803F0AEF9034687F88F3097F88F30002BDFD097F88F300C2BD0
:4043000054D9002387F88D300CE097F88D4003F053F903461A46B64B1A5597F88D30013387F88D3097F88D2097F88F309A42ECD3002387F88F3039E0002387F88C300BE0AD
:4043400097F88C30A94AD35C184603F0C5F997F88C30013387F88C3097F88C30052BEFD9042003F005F803F06FF9034687F88F3097F88F300C2B19D9002387F88B300CE00E
:4043800097F88B4003F018F903461A46984B1A5597F88B30013387F88B3097F88B2097F88F309A42ECD3002387F88F30904B1B7A002BC1D08F4B1B780133DAB28D4B1A70AD
:4043C0008C4B1B788C4A82FB03121213DB17D31ADBB23033DAB2894B5A71864B1B781A46854B83FB02131913D317CB1A42F2107101FB03F3D31A824A82FB03129211DB1723
:40440000D31ADBB23033DAB27C4B1A71794B1B781A46794B83FB02131913D317CB1A42F2107101FB03F3D31A754A82FB03129111DA178A1A4FF47A7101FB02F29A1A714B0E
:4044400083FB02135911D317CB1ADBB23033DAB26A4BDA70674B1B78674A82FB03121113DA178A1A42F2107101FB02F29A1A644B83FB02139911D317CB1A4FF47A7101FB76
:4044800003F3D31A5F4A82FB03125111DA178A1A642101FB02F29A1A5B4B83FB02139910D317CB1ADBB23033DAB2544B9A70514B1B78514A82FB03121113DA178A1A42F29F
:4044C000107101FB02F29A1A4D4B83FB02139911D317CB1A4FF47A7101FB03F3D31A494A82FB03125111DA178A1A642101FB02F29A1A454B83FB02139910D317C91A0B46B7
:404500009B000B445B00D11ACBB23033DAB23B4B5A70072387F88A3010E097F88A30063B364AD35C97F88A2092B21146184603F0FBF997F88A30013387F88A3097F88A30EB
:404540000C2BEAD9314B1B78184603F0EBFA002387F889300BE097F889302D4AD35C184603F0E0FA97F88930013387F8893097F889301F2BEFD9254B1B78184603F0D2FA6F
:40458000002387F888300BE097F88830214AD35C184603F0C7FA97F88830013387F8883097F888301F2BEFD9184B1B78184603F0B9FA002387F887300BE097F88730164AD4
:4045C000D35C184603F0AEFA97F88730013387F8873097F887301F2BEFD90C4B1B78184603F0A0FA002387F8863023E0D486FF1F8C8DFF1F728DFF1FAD8BDB686C8DFF1FFD
:40460000D34D62101F85EB5167666666CC80FF1FF480FF1F1481FF1F3481FF1F97F88630C04AD35C184603F07DFA97F88630013387F8863097F886301F2BEFD9BA4B1B780A
:40464000184603F06FFA002387F885300BE097F88530B64AD35C184603F064FA97F88530013387F8853097F885301F2BEFD9AE4B1B78184603F056FA002387F884300BE0AC
:4046800097F88430AA4AD35C184603F04BFA97F88430013387F8843097F884301F2BEFD9A14B1B78184603F03DFA002387F883300BE097F883309F4AD35C184603F032FAE1
:4046C00097F88330013387F8833097F883301F2BEFD9954B1B78184603F024FA002387F882300BE097F88230934AD35C184603F019FA97F88230013387F8823097F8823005
:404700000C2BEFD98D4B1B7A1B09DBB23033DBB2184603F007FA894B1B7A03F00F03DBB23033DBB2184603F0FDF92F2003F0FAF9824BDB791B09DBB23033DBB2184603F0A0
:40474000F1F97E4BDB7903F00F03DBB23033DBB2184603F0E7F92F2003F0E4F9774B9B791B09DBB23033DBB2184603F0DBF9734B9B7903F00F03DBB23033DBB2184603F01F
:40478000D1F9694B1B78184603F0CCF9002387F881300BE097F88130694AD35C184603F0C1F997F88130013387F8813097F881300C2BEFD9614B9B7A1B09DBB23033DBB222
:4047C000184603F0AFF95D4B9B7A03F00F03DBB23033DBB2184603F0A5F93A2003F0A2F9564BDB7A1B09DBB23033DBB2184603F099F9524BDB7A03F00F03DBB23033DBB2BC
:40480000184603F08FF93A2003F08CF94B4B1B7B1B09DBB23033DBB2184603F083F9474B1B7B03F00F03DBB23033DBB2184603F079F93D4B1B78184603F074F9002387F84B
:4048400080300BE097F880303A4AD35C184603F069F997F88030013387F8803097F880301F2BEFD9304B1B78184603F05BF9002387F87F300BE097F87F30324AD35C1846CF
:4048800003F050F997F87F30013387F87F3097F87F300C2BEFD9052387F87E300BE097F87E30294AD35C184603F03CF997F87E30013B87F87E3097F87E30002BEFD11A4B07
:4048C0001B78184603F02EF9174B1B78184603F029F9002387F87D300BE097F87D301B4AD35C184603F01EF997F87D30013387F87D3097F87D300C2BEFD9154B1B783133A5
:40490000DBB2184603F00EF9074B1B78184603F009F9054B1B78184603F004F9002387F87C3023E05481FF1FCC80FF1F7481FF1F9481FF1FB486FF1F8C84FF1F8C8DFF1F78
:404940009C84FF1F3C85FF1F6C8DFF1FDC84FF1FB087FF1F97F87C30C94AD35C184603F0E1F897F87C30013387F87C3097F87C300F2BEFD9C34B1B78184603F0D3F80023D2
:4049800087F87B300BE097F87B30BF4AD35C184603F0C8F897F87B30013387F87B3097F87B300C2BEFD9B74B1B78184603F0BAF8002387F87A300BE097F87A30B34AD35C5A
:4049C000184603F0AFF897F87A30013387F87A3097F87A30082BEFD9002387F8793018E097F87930C3F10A03A94A1278934202D12E2003F097F897F87930A64A134493F8BA
:404A00008330184603F08EF897F87930013387F8793097F87930092BE2D99A4B1B78184603F080F8002387F878300BE097F87830994AD35C184603F075F897F87830013349
:404A400087F8783097F878300F2BEFD98D4B1B78184603F067F8002387F8773015E097F8774097F877309BB224339BB2184602F0E5FF03461A4607F19003234403F8802C9A
:404A800097F87730013387F8773097F87730092BE5D9002387F8763019E097F87630C3F10A037B4A1278934202D12E2003F03AF897F8763007F19002134413F8803C184662
:404AC00003F030F897F87630013387F8763097F87630092BE1D997F8433087F875302DE097F8752097F84330D31A97F8752069490A4492F8832007F190010B4403F8742CE0
:404B000097F8752097F84330D31A97F8752007F190010A4412F8802C07F190010B4403F8682C97F8753007F190021344002203F88C2C97F87530013387F8753097F87530A0
:404B4000092BCDD93A4607F128035449184603F089FEF8633A4607F11C035049184603F081FEB863BA6BFB6BD31A7B633B1D7A6B4A49184603F052FE424B1B78184602F096
:404B8000D1FF002387F874300BE097F87430444AD35C184602F0C6FF97F87430013387F8743097F87430112BEFD9364B1B78184602F0B8FF002387F8733019E097F87330A3
:404BC000C3F10A03324A1278934202D12E2002F0A9FF97F8733007F19002134413F88C3C184602F09FFF97F87330013387F8733097F87330092BE1D9002387F8723013E0AB
:404C000097F87230234A134493F8832097F872309BB224339BB21946104602F085FE97F87230013387F8723097F87230092BE7D9144B1B78184602F075FF124B1B78184656
:404C400002F070FF002387F871300BE097F871300B4AD35C184602F065FF97F87130013387F8713097F871300F2BEFD9054B1B78184602F057FF002387F870301EE000BFFF
:404C80008086FF1FCC80FF1FEC84FF1F7482FF1F2E8DFF1FB087FF1F9086FF1FCC990000A086FF1F97F87030CD4AD35C184602F039FF97F87030013387F8703097F870300B
:404CC0000C2BEFD9C74B1B78184602F02BFF002387F86F300BE097F86F30C34AD35C184602F020FF97F86F30013387F86F3097F86F30082BEFD9002387F86E3018E097F821
:404D00006E30C3F10A03B94A1278934202D12E2002F008FF97F86E30B54A134493F8A130184602F0FFFE97F86E30013387F86E3097F86E30092BE2D9AA4B1B78184602F0FA
:404D4000F1FE002387F86D300BE097F86D30A94AD35C184602F0E6FE97F86D30013387F86D3097F86D300F2BEFD99E4B1B78184602F0D8FE002387F86C3015E097F86C40DE
:404D800097F86C309BB238339BB2184602F056FE03461A4607F19003234403F8802C97F86C30013387F86C3097F86C30092BE5D9002387F86B3019E097F86B30C3F10A0325
:404DC0008A4A1278934202D12E2002F0ABFE97F86B3007F19002134413F8803C184602F0A1FE97F86B30013387F86B3097F86B30092BE1D997F8433087F86A302DE097F8BC
:404E00006A2097F84330D31A97F86A2078490A4492F8A12007F190010B4403F8742C97F86A2097F84330D31A97F86A2007F190010A4412F8802C07F190010B4403F8682CFE
:404E400097F86A3007F190021344002203F88C2C97F86A30013387F86A3097F86A30092BCDD93A4607F128036349184603F0FAFCF8633A4607F11C035F49184603F0F2FC6B
:404E8000B863BA6BFB6BD31A7B633B1D7A6B5A49184603F0C3FC534B1B78184602F042FE002387F869300BE097F86930534AD35C184602F037FE97F86930013387F86930BD
:404EC00097F86930112BEFD9464B1B78184602F029FE002387F8683019E097F86830C3F10A03424A1278934202D12E2002F01AFE97F8683007F19002134413F88C3C184681
:404F000002F010FE97F86830013387F8683097F86830092BE1D9002387F8673013E097F86730334A134493F8A12097F867309BB238339BB21946104602F0F6FC97F867308E
:404F4000013387F8673097F86730092BE7D9254B1B78184602F0E6FD002387F866300BE097F86630264AD35C184602F0DBFD97F86630013387F8663097F866301F2BEFD9E3
:404F8000184B1B78184602F0CDFD002387F865300BE097F865301B4AD35C184602F0C2FD97F86530013387F8653097F865300C2BEFD90F4B93F84E313133DBB2184602F0C4
:404FC000B1FD084B1B78184602F0ACFD054B1B78184602F0A7FD002387F8643020E000BFEC84FF1FCC80FF1F8C82FF1F2E8DFF1FB087FF1F9086FF1FCC990000A086FF1F29
:40500000B486FF1FDC84FF1F97F86430D34AD35C184602F087FD97F86430013387F8643097F864300F2BEFD9CD4B1B78184602F079FD002387F863300BE097F86330C94A02
:40504000D35C184602F06EFD97F86330013387F8633097F863300C2BEFD9C14B1B78184602F060FD002387F862300BE097F86230BD4AD35C184602F055FD97F86230013304
:4050800087F8623097F86230092BEFD9002387F8613018E097F86130C3F10A03B34A1278934202D12E2002F03DFD97F86130B04A134493F8D131184602F034FD97F861306E
:4050C000013387F8613097F86130092BE2D9A44B1B78184602F026FD002387F860300BE097F86030A34AD35C184602F01BFD97F86030013387F8603097F860300F2BEFD925
:40510000974B1B78184602F00DFD002387F85F3015E097F85F4097F85F309BB22E339BB2184602F08BFC03461A4607F19003234403F8802C97F85F30013387F85F3097F82B
:405140005F30092BE5D9002387F85E3019E097F85E30C3F10A03854A1278934202D12E2002F0E0FC97F85E3007F19002134413F8803C184602F0D6FC97F85E30013387F8D3
:405180005E3097F85E30092BE1D9754B1B78184602F0C8FC97F8433087F85D302DE097F85D2097F84330D31A97F85D2070490A4492F8D12107F190010B4403F8742C97F848
:4051C0005D2097F84330D31A97F85D2007F190010A4412F8802C07F190010B4403F8682C97F85D3007F190021344002203F88C2C97F85D30013387F85D3097F85D30092BC5
:40520000CDD93A4607F128035B49184603F02AFBF8633A4607F11C035749184603F022FBB863BA6BFB6BD31A7B633B1D7A6B5249184603F0F3FA002387F85C300BE097F8DC
:405240005C304E4AD35C184602F06CFC97F85C30013387F85C3097F85C30112BEFD9404B1B78184602F05EFC002387F85B3019E097F85B30C3F10A033C4A1278934202D129
:405280002E2002F04FFC97F85B3007F19002134413F88C3C184602F045FC97F85B30013387F85B3097F85B30092BE1D9002387F85A3013E097F85A302D4A134493F8D12121
:4052C00097F85A309BB22E339BB21946104602F02BFB97F85A30013387F85A3097F85A30092BE7D91E4B1B78184602F01BFC1C4B1B78184602F016FC002387F859300BE095
:4053000097F85930174AD35C184602F00BFC97F85930013387F8593097F859300C2BEFD90F4B1B78184602F0FDFB002387F858300BE097F85830124AD35C184602F0F2FBDA
:4053400097F85830013387F8583097F85830082BEFD9002387F857302DE000BF8086FF1FCC80FF1FEC84FF1F8082FF1F2E8DFF1FB087FF1F9086FF1FCC990000A086FF1F8D
:405380008C82FF1F97F85730C3F10A03C94A1278934202D12E2002F0C5FB97F85730C64A134493F8EF31184602F0BCFB97F85730013387F8573097F85730092BE2D9BF4B17
:4053C0001B78184602F0AEFB002387F856300BE097F85630BA4AD35C184602F0A3FB97F85630013387F8563097F856300F2BEFD9B24B1B78184602F095FB002387F85530DC
:4054000015E097F8554097F855309BB242339BB2184602F013FB03461A4607F19003234403F8802C97F85530013387F8553097F85530092BE5D9002387F8543019E097F890
:405440005430C3F10A039B4A1278934202D12E2002F068FB97F8543007F19002134413F8803C184602F05EFB97F85430013387F8543097F85430092BE1D9904B1B781846B2
:4054800002F050FB97F8433087F853302DE097F8532097F84330D31A97F8532086490A4492F8EF2107F190010B4403F8742C97F8532097F84330D31A97F8532007F1900105
:4054C0000A4412F8802C07F190010B4403F8682C97F8533007F190021344002203F88C2C97F85330013387F8533097F85330092BCDD93A4607F128037249184603F0B2F9EB
:40550000F8633A4607F11C036E49184603F0AAF9B863BA6BFB6BD31A7B633B1D7A6B6949184603F07BF9002387F852300BE097F85230654AD35C184602F0F4FA97F852305C
:40554000013387F8523097F85230112BEFD95B4B1B78184602F0E6FA002387F8513019E097F85130C3F10A03524A1278934202D12E2002F0D7FA97F8513007F190021344BB
:4055800013F88C3C184602F0CDFA97F85130013387F8513097F85130092BE1D9002387F8503013E097F85030434A134493F8EF2197F850309BB242339BB21946104602F057
:4055C000B3F997F85030013387F8503097F85030092BE7D9394B1B78184602F0A3FA3B4B1B78013B022B40F31981002387F84F300BE097F84F30364AD35C184602F092FAC2
:4056000097F84F30013387F84F3097F84F301F2BEFD92A4B1B78184602F084FA002387F84E300BE097F84E302A4AD35C184602F079FA97F84E30013387F84E3097F84E306B
:405640000C2BEFD91C4B93F89C323133DBB2184602F068FA194B1B78184602F063FA002387F84D3018E097F84D30C3F10A03114A1278934202D12E2002F054FA97F84D3019
:405680000D4A134493F81F33184602F04BFA97F84D30013387F84D3097F84D30092BE2D9064B1B78184602F03DFA002387F84C301EE000BF2E8DFF1FB087FF1FCC80FF1FB5
:4056C0009086FF1FCC990000A086FF1F768DFF1FB486FF1FDC84FF1F97F84C30814AD35C184602F01FFA97F84C30013387F84C3097F84C300F2BEFD97B4B1B78184602F078
:4057000011FA002387F84B300BE097F84B30774AD35C184602F006FA97F84B30013387F84B3097F84B301F2BEFD96F4B1B78184602F0F8F9002387F84A300BE097F84A301A
:405740006B4AD35C184602F0EDF997F84A30013387F84A3097F84A300C2BEFD9654B93F8EA333133DBB2184602F0DCF95E4B1B78184602F0D7F9002387F8493018E097F865
:405780004930C3F10A035C4A1278934202D12E2002F0C8F997F84930564A134493F86D34184602F0BFF997F84930013387F8493097F84930092BE2D94B4B1B78184602F0FF
:4057C000B1F9002387F848300BE097F84830454AD35C184602F0A6F997F84830013387F8483097F848300F2BEFD9002387F847300BE097F847303D4AD35C184602F092F970
:4058000097F84730013387F8473097F84730172BEFD9354B1B78184602F084F9002387F846300BE097F84630304AD35C184602F079F997F84630013387F8463097F84630A2
:405840001F2BEFD9284B1B78184602F06BF9002387F845300BE097F84530284AD35C184602F060F997F84530013387F8453097F845301F2BEFD91C4B1B78184602F052F935
:40588000002387F844300BE097F844301C4AD35C184602F047F997F84430013387F8443097F844301F2BEFD90F4B1B78184602F039F90D4B1B78184602F034F90A4B1B78C1
:4058C000184602F02FF9084B1B78184602F02AF9054B1B78184602F025F900BF9437BD4690BD00BF9086FF1FCC80FF1FB486FF1FDC84FF1FB087FF1F2E8DFF1FB481FF1FF8
:40590000D481FF1F90B595B000AF0346FB710023BB72CA4B1B78CA4A82FB03121213DB17D31ADBB23033DAB2C64B5A71C34B1B781A46C34B83FB02131913D317CB1A42F23B
:40594000107101FB03F3D31ABF4A82FB03129211DB17D31ADBB23033DAB2BA4B1A71B74B1B781A46B64B83FB02131913D317CB1A42F2107101FB03F3D31AB34A82FB0312F7
:405980009111DA178A1A4FF47A7101FB02F29A1AAE4B83FB02135911D317CB1ADBB23033DAB2A84BDA70A54B1B78A54A82FB03121113DA178A1A42F2107101FB02F29A1A4A
:4059C000A14B83FB02139911D317CB1A4FF47A7101FB03F3D31A9D4A82FB03125111DA178A1A642101FB02F29A1A994B83FB02139910D317CB1ADBB23033DAB2914B9A70B8
:405A00008E4B1B788E4A82FB03121113DA178A1A42F2107101FB02F29A1A8B4B83FB02139911D317CB1A4FF47A7101FB03F3D31A864A82FB03125111DA178A1A642101FBB5
:405A400002F29A1A824B83FB02139910D317C91A0B469B000B445B00D11ACBB23033DAB2784B5A70012387F84F300FE097F84F30744AD35C97F84F2092B21146184601F03A
:405A800053FF97F84F30013387F84F3097F84F30052BEBD9002387F84E300BE097F84E306C4AD35C184601F017FE97F84E30013387F84E3097F84E30052BEFD9042001F099
:405AC00057FC01F0C1FD0346BB7297F90A300C2BE0DD97F90A300C2B18DD002387F84D300CE097F84D4001F067FD03461A465A4B1A5597F84D30013387F84D3097F84D2009
:405B000097F90A309A42ECDB0023BB72002387F84C300BE097F84C30504AD35C184602F001F897F84C30013387F84C3097F84C301F2BEFD94A4B1B78184601F0F3FF00239F
:405B400087F84B300BE097F84B30464AD35C184601F0E8FF97F84B30013387F84B3097F84B300C2BEFD9404B1B78FA799A425BD13D4B93F84D31012B28D1002387F84A3095
:405B80000BE097F84A30394AD35C184601F0CAFF97F84A30013387F84A3097F84A30032BEFD9052387F849300BE097F84930304AD35C184601F0B6FF97F84930013B87F86F
:405BC000493097F84930002BEFD12DE0002387F848300BE097F84830244AD35C184601F0A1FF97F84830013387F8483097F84830032BEFD9052387F847300BE097F8473056
:405C0000104AD35C184601F08DFF97F84730013B87F8473097F84730002BEFD1074B1B780133DAB2054B1A700D4B1B78184601F079FF002387F8463028E000BF778DFF1FA5
:405C4000AD8BDB68A887FF1FD34D62101F85EB5167666666D486FF1F8C8DFF1FD480FF1FCC80FF1F4C85FF1FB087FF1F7884FF1F648DFF1F97F84630BA4AD35C184601F0D2
:405C800051FF97F84630013387F8463097F846301F2BEFD9B44B1B78184601F043FF002387F845300BE097F84530B04AD35C184601F038FF97F84530013387F8453097F8BC
:405CC00045301F2BEFD9A84B1B78184601F02AFF002387F844300BE097F84430A44AD35C184601F01FFF97F84430013387F8443097F844301F2BEFD99B4B1B78184601F08A
:405D000011FF002387F843300BE097F84330994AD35C184601F006FF97F84330013387F8433097F843301F2BEFD98F4B1B78184601F0F8FE002387F842300BE097F84230FD
:405D40008D4AD35C184601F0EDFE97F84230013387F8423097F842301F2BEFD9824B1B78184601F0DFFE002387F841300BE097F84130824AD35C184601F0D4FE97F8413004
:405D8000013387F8413097F841301F2BEFD9764B1B78184601F0C6FE002387F840300BE097F84030764AD35C184601F0BBFE97F84030013387F8403097F840301F2BEFD920
:405DC000694B1B78184601F0ADFE002387F83F300BE097F83F30634AD35C184601F0A2FE97F83F30013387F83F3097F83F301F2BEFD95D4B1B78184601F094FE002387F8AF
:405E00003E300BE097F83E305E4AD35C184601F089FE97F83E30013387F83E3097F83E300C2BEFD9584B1B7A1B09DBB23033DAB2564B1A70544B1B7A03F00F03DBB2303319
:405E4000DAB2524B5A70504BDB791B09DBB23033DAB24E4B9A704C4BDB7903F00F03DBB23033DAB2494BDA70474B9B791B09DBB23033DAB2454B1A71434B9B7903F00F03AB
:405E8000DBB23033DAB2414B5A713F4B9B7A1B09DBB23033DAB23E4B1A703B4B9B7A03F00F03DBB23033DAB2394B5A70364BDB7A1B09DBB23033DAB2354B9A70324BDB7A81
:405EC00003F00F03DBB23033DAB2314BDA702E4B1B7B1B09DBB23033DAB22D4B1A712A4B1B7B03F00F03DBB23033DAB2284B5A71284B1B78FA799A4240F0F684254B93F8E5
:405F00004D31012B40F0C380204B1B78184601F009FE1E4B5B78184601F004FE2F2001F001FE1A4B9B78184601F0FCFD174BDB78184601F0F7FD2F2001F0F4FD134B1B7949
:405F4000184601F0EFFD114B5B79184601F0EAFD054B1B78184601F0E5FD002387F83D3026E000BFB486FF1FCC80FF1FF480FF1F1481FF1F3481FF1F5481FF1F7481FF1FB8
:405F80009481FF1F8C84FF1F8C8DFF1F7C8DFF1F848DFF1FB087FF1F97F83D30BB4AD35C184601F0BFFD97F83D30013387F83D3097F83D300C2BEFD9B54B1B78184601F06A
:405FC000B1FDB34B5B78184601F0ACFD3A2001F0A9FDAF4B9B78184601F0A4FDAC4BDB78184601F09FFD3A2001F09CFDA84B1B79184601F097FDA64B5B79184601F092FD16
:40600000A44B1B78184601F08DFD002387F83C300BE097F83C30A04AD35C184601F082FD97F83C30013387F83C3097F83C301F2BEFD9002387F83B300BE097F83B30974A30
:40604000D35C184601F06EFD97F83B30013387F83B3097F83B301F2BEFD98E4B1B78184601F060FD002387F83A300BE097F83A30894AD35C184601F055FD97F83A3001333B
:4060800087F83A3097F83A301F2BEFD9DCE0844B1B7A1B09DBB23033DBB2184601F042FD7F4B1B7A03F00F03DBB23033DBB2184601F038FD2F2001F035FD794BDB791B098A
:4060C000DBB23033DBB2184601F02CFD744BDB7903F00F03DBB23033DBB2184601F022FD2F2001F01FFD6E4B9B791B09DBB23033DBB2184601F016FD694B9B7903F00F03AF
:40610000DBB23033DBB2184601F00CFD614B1B78184601F007FD002387F839300BE097F839305A4AD35C184601F0FCFC97F83930013387F8393097F839300C2BEFD9584B42
:406140009B7A1B09DBB23033DBB2184601F0EAFC534B9B7A03F00F03DBB23033DBB2184601F0E0FC3A2001F0DDFC4D4BDB7A1B09DBB23033DBB2184601F0D4FC484BDB7A1B
:4061800003F00F03DBB23033DBB2184601F0CAFC3A2001F0C7FC424B1B7B1B09DBB23033DBB2184601F0BEFC3D4B1B7B03F00F03DBB23033DBB2184601F0B4FC354B1B78BB
:4061C000184601F0AFFC002387F838300BE097F83830314AD35C184601F0A4FC97F83830013387F8383097F838301F2BEFD9002387F837300BE097F837302A4AD35C18461A
:4062000001F090FC97F83730013387F8373097F837301F2BEFD91F4B1B78184601F082FC002387F836300BE097F836301A4AD35C184601F077FC97F83630013387F83630B4
:4062400097F836301F2BEFD9124B1B78184601F069FC002387F835300BE097F83530124AD35C184601F05EFC97F83530013387F8353097F835300C2BEFD9064B1B78184618
:4062800001F050FC002387F834301BE09C84FF1F848DFF1FCC80FF1FB486FF1F3482FF1F8C8DFF1F5482FF1F7C84FF1F97F83430CF4AD35C184601F035FC97F83430013372
:4062C00087F8343097F834300C2BEFD9C94B1B783133DBB2184601F025FCC74B1B78184601F020FC002387F833300BE097F83330C24AD35C184601F015FC97F8333001330E
:4063000087F8333097F833301F2BEFD9BA4B1B78184601F007FC002387F832300BE097F83230B74AD35C184601F0FCFB97F83230013387F8323097F83230082BEFD9002322
:4063400087F831300DE097F83130AA4A134493F82331184601F0E6FB97F83130013387F8313097F83130132BEDD9A34B1B78184601F0D8FB002387F830300BE097F830308F
:40638000A04AD35C184601F0CDFB97F83030013387F8303097F83030082BEFD9002387F82F300DE097F82F30924A134493F83931184601F0B7FB97F82F30013387F82F30BC
:4063C00097F82F30132BEDD98B4B1B78184601F0A9FB002387F82E300BE097F82E30874AD35C184601F09EFB97F82E30013387F82E3097F82E301F2BEFD97F4B1B781846D7
:4064000001F090FB002387F82D300BE097F82D307D4AD35C184601F085FB97F82D30013387F82D3097F82D301F2BEFD9724B1B78184601F077FB002387F82C300BE097F8C2
:406440002C30724AD35C184601F06CFB97F82C30013387F82C3097F82C301F2BEFD9664B1B78184601F05EFB002387F82B300BE097F82B30664AD35C184601F053FB97F85F
:406480002B30013387F82B3097F82B301F2BEFD9594B1B78184601F045FB002387F82A300BE097F82A30554AD35C184601F03AFB97F82A30013387F82A3097F82A301F2B66
:4064C000EFD94D4B1B78184601F02CFB494B93F83831012B13D1002387F829300BE097F829304C4AD35C184601F01CFB97F82930013387F8293097F82930082BEFD93D4B43
:4065000093F83831022B13D1002387F828300BE097F82830404AD35C184601F003FB97F82830013387F8283097F82830082BEFD9304B93F83831032B13D1002387F8273036
:406540000BE097F82730354AD35C184601F0EAFA97F82730013387F8273097F82730082BEFD9254B1B78184601F0DCFA002387F8263018E097F82630C3F10803284A1278E0
:40658000934202D12E2001F0CDFA97F82630194A134493F80331184601F0C4FA97F82630013387F8263097F82630072BE2D9202001F0B8FA1B4B1B78184601F0B3FA2020EA
:4065C00001F0B0FA202001F0ADFA202001F0AAFA202001F0A7FA202001F0A4FA124B1B78184601F09FFA012387F8253036E000BFDC84FF1FB087FF1FCC80FF1FB486FF1F78
:406600009882FF1FA882FF1FB882FF1FD882FF1FF882FF1F7482FF1F8082FF1F8C82FF1F2E8DFF1FD080FF1F7C86FF1FBC4B93F838315A1E97F82510B94813465B00134468
:406640005B0003440B4403F20B131B78184601F069FA97F82530013387F8253097F82530052BE3D9202001F05DFA202001F05AFA202001F057FA202001F054FAA94B1B7880
:40668000184601F04FFA002387F824300DE097F82430A34A134493F8FB30184601F042FA97F82430013387F8243097F82430072BEDD99B4B012283F84D219B4B1B78184669
:4066C00001F030FA002387F823300BE097F82330964AD35C184601F025FA97F82330013387F8233097F823301F2BEFD98E4B1B78184601F017FA002387F822300BE097F82A
:4067000022308B4AD35C184601F00CFA97F82230013387F8223097F822301F2BEFD9824B1B78184601F0FEF9002387F821300BE097F821307F4AD35C184601F0F3F997F8AF
:406740002130013387F8213097F821301F2BEFD9754B1B78184601F0E5F9002387F820300BE097F82030744AD35C184601F0DAF997F82030013387F8203097F820300C2B8F
:40678000EFD9202001F0CEF9664B1B78184601F0C9F9202001F0C6F90023FB770AE0FB7F5F4A134493F8FB30184601F0BBF9FB7F0133FB77FB7F072BF1D9202001F0B2F9B0
:4067C000202001F0AFF9202001F0ACF9242001F0A9F9302001F0A6F9534B1B78184601F0A1F90023BB7708E0BB7F544AD35C184601F098F9BB7F0133BB77BB7F0C2BF3D918
:40680000484B1B78184601F08DF9202001F08AF900237B770AE07B7F414A134493F8FB30184601F07FF97B7F01337B777B7F072BF1D93D4B1B78184601F074F900233B778F
:4068400008E03B7F3E4AD35C184601F06BF93B7F01333B773B7F0C2BF3D9242001F062F9302001F05FF9304B1B78184601F05AF90023FB7608E0FB7E324AD35C184601F0E7
:4068800051F9FB7E0133FB76FB7E0C2BF3D9254B1B78184601F046F9202001F043F90023BB760AE0BB7E1E4A134493F8FB30184601F038F9BB7E0133BB76BB7E072BF1D9B7
:4068C000194B1B78184601F02DF900237B7608E07B7E164AD35C184601F024F97B7E01337B767B7E1F2BF3D90F4B1B78184601F019F900233B7608E03B7E134AD35C184662
:4069000001F010F93B7E01333B763B7E1F2BF3D9054B1B78184601F005F90023FB751EE0B087FF1F7C86FF1FCC80FF1FB486FF1F1883FF1F3883FF1F5883FF1F6883FF1F64
:406940007883FF1F8883FF1F9883FF1FFB7D8C4AD35C184601F0E6F8FB7D0133FB75FB7D1F2BF3D9874B1B78184601F0DBF80023BB7508E0BB7D844AD35C184601F0D2F838
:40698000BB7D0133BB75BB7D1F2BF3D97D4B1B78184601F0C7F800237B7508E07B7D7B4AD35C184601F0BEF87B7D01337B757B7D1F2BF3D9734B1B78184601F0B3F8002300
:4069C0003B7508E03B7D724AD35C184601F0AAF83B7D01333B753B7D1F2BF3D9694B1B78184601F09FF80023FB7408E0FB7C694AD35C184601F096F8FB7C0133FB74FB7C93
:406A00001F2BF3D95F4B1B78184601F08BF80023BB7408E0BB7C604AD35C184601F082F8BB7C0133BB74BB7C1F2BF3D9554B1B78184601F077F800237B7408E07B7C574AB4
:406A4000D35C184601F06EF87B7C01337B747B7C1F2BF3D94B4B1B78184601F063F800233B7408E03B7C4E4AD35C184601F05AF83B7C01333B743B7C1F2BF3D9414B1B78D9
:406A8000184601F04FF83F4B1B78184601F04AF80023FB7308E0FB7B424AD35C184601F041F8FB7B0133FB73FB7B1F2BF3D9354B1B78184601F036F80023BB7308E0BB7BBD
:406AC000364AD35C184601F02DF8BB7B0133BB73BB7B1F2BF3D92B4B1B78184601F022F800237B7308E07B7B2F4AD35C184601F019F87B7B01337B737B7B1F2BF3D9214B96
:406B00001B78184601F00EF800233B7308E03B7B264AD35C184601F005F83B7B01333B733B7B1F2BF3D9174B1B78184600F0FAFF144B1B78184600F0F5FF124B1B781846F1
:406B400000F0F0FF0F4B1B78184600F0EBFF0D4B1B78184600F0E6FF0023FB7208E0FB7AFA7A1349895C134AD154FB7A0133FB72FB7A052BF3D900BF5437BD4690BD00BFEF
:406B8000B883FF1FCC80FF1FD883FF1FF883FF1F1884FF1F3884FF1F5884FF1FB486FF1FF481FF1F1482FF1FB481FF1FD481FF1FA887FF1F648DFF1F80B584B000AFF86041
:406BC000B9607A607A68B968F86801F01BFE00BF1037BD4680BD00BF80B483B000AF0346FB71FEE780B483B000AF434B00221A60424B10221A70424B01221A70414B00220F
:406C00001A70414B4FF438721A80404B01221A703F4B03221A703F4B3F4A92B21A803F4B47F608021A803E4B00221A803D4B4FF480421A803C4B09221A703C4B0A221A7005
:406C40003B4B0F221A703B4B18221A70BFF35F8F394B01221A70BFF35F8F00BF2A4B1B889BB2002BFAD100237B600DE07B68DA00324B13441946324A7B6852F823309BB2DA
:406C80000B807B6801337B607B685B2BEED9BFF35F8F294B01221A70BFF35F8F00BF294B1B78DBB203F00103002BF8D100BF264B1B78DBB203F00103002BF8D100BF234B20
:406CC0001B78DBB203F00103002BF8D100BF204B1B78DBB203F00103002BF8D100BF1D4B1B78DBB203F00103002BF8D100BF0C37BD4680BC704700BF7887FF1F0076004098
:406D00001070004019700040007800400278004003780040047800405000000006780040047600400676004029700040397000406970004079700040147000400C780040D1
:406D4000D0990000187000402870004038700040687000407870004080B582B000AF454B19221A80444B18221A70444B19221A80434B18221A70434B4FF49C721A80424B58
:406D800018221A70414B4FF49C721A80404B18221A70404B4FF49C721A803F4B18221A703E4B40F209221A803D4B18221A703D4B47F22F521A803C4B19221A703B4B0222E7
:406DC0001A704FF0402308221A70394B03221A70384B394A1278D2B21A70384B08221A80374B41F251221A800023FB7019237B6014E0FB785B00DAB2324B1B78DBB203F056
:406E00000103DBB21343DBB203F00303FB704FF4F07001F0F9F97B68013B7B607B68002B02D0FB78032BE4D17B68002B02D10320FFF7D2FE244B4FF480721A80224B072226
:406E40001A70224B00221A70214B48221A701E4B00221A701F4B02221A701F4A1E4B1B78DBB243F07F03DBB2137000BF0837BD4680BD00BF80400040824000408440004028
:406E800086400040884000408A4000408C4000408E40004090400040924000409440004096400040984000409A4000400043004000420040A1460040080100492242004000
:406EC000204200402542004004400040064000400840004001400040A243004080B483B000AF0B4B1B78FB710A4AFB7903F00703DBB21370084AFB791B09DBB21370074B85
:406F000044221A7000BF0C37BD4680BC704700BFCF0100496E5800406F5800407658004080B500AF72B6324A314B1B78DBB243F00403DBB21370FFF755FE2E4A2D4B1B783C
:406F4000DBB243F00203DBB213702B4A2A4B1B78DBB243F00203DBB21370284A274B1B78DBB243F04003DBB21370254A244B1B78DBB243F01003DBB213700A22214922480C
:406F8000FFF71AFE0A2221492148FFF715FE0A2220492148FFF710FE0A2220492048FFF70BFE0A221F492048FFF706FE0A221F491F48FFF701FE1F4A1E4B1B78DBB243F0B2
:406FC0000803DBB213701C4B60221A70FFF7C4FE194B80221A70194B01221A70FFF77EFF0E2206491648FFF7E7FD00BF80BD00BFE84600400350014013500140A0430040FC
:40700000C2430040A421004800510040B0210048C0510040BC210048F0510040C821004810510040D421004820510040E0210048305100402243004000480040040008401A
:40704000B043004080B500AF01F0B0FB03461B680C2B00D1FEE7FEE780B584B000AF78600F4B1A687B6813441A460E4BD31A802B09DC0B4B1B68FB60094B1A687B6813443F
:40708000074A136007E001F091FB02460C2313604FF0FF33FB60FB6818461037BD4680BDDC86FF1FD08EFF1F80B586B000AF224B7B61224B3B61204B7B6135E03B691B68BF
:4070C000FB603B695B68BB603B699B683B6000237B600CE0FB681A68BB681A60BB680433BB60FB680433FB607B6804337B607A683B689A42EED13B69DB683B6000237B6006
:4071000008E0BB6800221A60BB680433BB607B6804337B607A683B689A42F2D13B6910333B617B69013B7B617B69002BC6D101F043FBF9F781F9FEE701000000249D0000B5
:4071400080B582B000AF184B184A1A60184A184B1B6843F40073136000237B600FE07B68032B04D8134A7B6852F8233000E0124B12497A6841F822307B6801337B607B68C4
:407180002F2BECD90E4B1B78DAB20E4B1A700E4B0A4A1A60FFF7C4FE0C4B00221A6000BF0837BD4680BD00BF0CED00E00004FA0514ED00E000000000457000000080FF1F76
:4071C000BC760040C480FF1F08ED00E0C080FF1F80B500AF064B1B78002B04D100F00AF8034B01221A7000F063F800BF80BD00BF7C87FF1F80B582B000AF284A274B1B781F
:40720000DBB243F00203DBB21370254B1B78DBB223F07003FB71224AFB7943F03003DBB21370204A1F4B1B78DBB223F03003DBB213701C4A1B4B1B78DBB243F03003DBB278
