:400000000080002011000000C1090000C109000080B500AF024A034B1B68136000F0DAFCBC760040FA46004001000000002000400100000000200140010000000048004003
:400040000100000000480140010000000100000008000223000008760800032300001076080004230000287608000523000030760500062300002070050007230000307065
:4000800005000823000060700500FE230000707010000A220000005140000B22000030511000FE220000C05180050D220000000080010E220000000680000F220000800ED4
:4000C000800010220000800F8003112200000014800012220000004100011322000000448000142200000047800015220000004800011622000000498000FE220000004D1B
:400100000700182300000852070019230000105207001A23000078520C001B230000004F0C001C2300000C4F0C001D230000184F20001E23000070642000FE230000706533
:40014000080020230000005180002123000000088000222300008008800023230000000A800024230000800A800025230000000C800026230000800C800027230000000EA8
:400180008000282300000018800029230000801880002A230000001A80002B230000801A10002C230000105010002D230000005080002E230000804D80002F230000004C7E
:4001C000800030230000804C80003123000080478000322300000046800033230000804680003423000000458000352300008045800036230000001B800037230000801BEC
:400200008000382300000019800039230000801980003A230000801780003B230000000980003C230000800980003D230000800780003E230000000B80003F230000800BD2
:400240008000402300008005800041230000000D800042230000800D800043230000000F80004423000080488000452300000043800046230000804380004723000000420C
:400280008000482300008042800049230000804180004A23000000408000FE230000804010B5054C237833B9044B13B10448AFF300800123237010BD4081FF1F00000000D5
:4002C00084120000084B10B51BB108490848AFF300800848036803B910BD074B002BFBD0BDE81040184700BF000000004481FF1F84120000C880FF1F0000000080B500AF5F
:4003000000F0FCFB62B600F0DFFC00F04FFE012000F03AFF00F036F803461A46164B1A70164B00221A80144B1B78002B1DD0144B1B78184600F0DAF8114B93F80531184606
:4003400000F0D4F80C4B1B78022B0BD90C4B93F80A32184600F0CAF8094B93F80F33184600F0C4F800F0F8F8DDE700F00BF803461A46014B1A70D6E78585FF1F8885FF1F47
:400380007081FF1F80B582B000AF00F023FD564BFF221A70544BFF2283F80521524BFF2283F80A22504BFF2283F80F23012000F0EBFE0123FB7160E0FB79184600F02CFDD8
:4003C000322000F05FFC002000F0DEFE00F0ECFC0346002B0CD0444B1B78FF2B08D100F0D5FC0346BB71404AFB79137000F0F2FC00F0DAFC0346002B0AD03B4B1B78FA79F2
:400400009A4205D0384AFB7982F8053100F0E2FC00F0CAFC0346002B10D0334B1B78FA799A420BD0304B93F80531FA799A4205D02D4AFB7982F80A3200F0CCFC00F0B4FCF9
:400440000346002B16D0284B1B78FA799A4211D0254B93F80531FA799A420BD0224B93F80A32FA799A4205D01F4AFB7982F80F3300F0B0FCFB790133FB71FB790F2B9BD9CE
:4004800000F0A8FC00F0E2FC174B1B78FF2B06D0154B93F80531FF2B01D0022320E0124B1B78FF2B10D0104B93F80531FF2B0BD00D4B93F80A32FF2B06D00B4B93F80F3347
:4004C000FF2B01D004230BE0074B1B78FF2B04D1054B93F80531FF2B01D0012300E0002318460837BD4680BD7081FF1F80B582B000AF0346FB71FB795033DBB2184600F04F
:400500008BFC202000F088FCFA2000F085FC322000F0B8FB00F048FC0346002B0DD000F035FC034603F0F0031B11DAB2054B1A7000F050FC034B1B7800E0002318460837DC
:40054000BD4680BD8685FF1F80B500AF602000F001FE00BF80BD00BF80B582B000AF00F0B1FD0346FB7100F065FD034603F00F03DAB2124B1A70FB79012B1BD100F05AFDB5
:400580000346BB71BB79062B14D801A252F823F0AD050000B5050000B3050000B5050000B3050000B3050000B3050000FFF7CCFF00E000BF00BF0837BD4680BD8485FF1FAA
:4005C00080B584B000AFF860B9607A607A68B968F86800F04BFE00BF1037BD4680BD00BF80B483B000AF0346FB71FEE780B483B000AF434B00221A60424B10221A70424B31
:4006000001221A70414B00221A70414B4FF414721A80404B01221A703F4B03221A703F4B3F4A92B21A803F4B47F608021A803E4B00221A803D4B4FF480421A803C4B0922FB
:400640001A703C4B0C221A703B4B17221A703B4B1F221A70BFF35F8F394B01221A70BFF35F8F00BF2A4B1B889BB2002BFAD100237B600DE07B68DA00324B13441946324A35
:400680007B6852F823309BB20B807B6801337B607B68492BEED9BFF35F8F294B01221A70BFF35F8F00BF294B1B78DBB203F00103002BF8D100BF264B1B78DBB203F00103EC
:4006C000002BF8D100BF234B1B78DBB203F00103002BF8D100BF204B1B78DBB203F00103002BF8D100BF1D4B1B78DBB203F00103002BF8D100BF0C37BD4680BC704700BFB0
:400700006081FF1F0076004010700040197000400078004002780040037800400478004050000000067800400476004006760040297000403970004069700040797000400A
:40074000147000400C78004088120000187000402870004038700040687000407870004080B582B000AF384B4FF49C721A80374B18221A70364B40F209221A80354B182293
:400780001A70354B47F22F521A80344B19221A70334B02221A704FF0402308221A70314B03221A70304B314A1278D2B21A70304B08221A802F4B41F251221A800023FB70D5
:4007C00019237B6014E0FB785B00DAB22A4B1B78DBB203F00103DBB21343DBB203F00303FB704FF4F07000F0EBFC7B68013B7B607B68002B02D0FB78032BE4D17B68002B7C
:4008000002D10320FFF7ECFE1C4B4FF480721A801A4B07221A701A4B00221A70194B48221A70164B00221A70174B02221A70174A164B1B78DBB243F00703DBB2137000BF20
:400840000837BD4680BD00BF80400040824000408440004086400040884000408A4000400043004000420040A146004008010049224200402042004025420040044000402D
:40088000064000400840004001400040A243004080B483B000AF0B4B1B78FB710A4AFB7903F00703DBB21370084AFB791B09DBB21370074B44221A7000BF0C37BD4680BCC7
:4008C000704700BFCF0100496E5800406F5800407658004080B500AF72B62A4A294B1B78DBB243F00403DBB21370FFF77FFE264A254B1B78DBB243F00203DBB21370234AC8
:40090000224B1B78DBB243F00203DBB21370204A1F4B1B78DBB243F04003DBB213701D4A1C4B1B78DBB243F01003DBB213700A2219491A48FFF744FE0A2219491948FFF717
:400940003FFE0A2218491948FFF73AFE184A184B1B78DBB243F00803DBB21370154B60221A70FFF7FDFE134B80221A70124B01221A70FFF78DFF0E2205491048FFF720FE8E
:4009800000BF80BDE84600400350014013500140A0430040C243004024150048F051004030150048105100403C15004820510040224300400048004004000840B043004007
:4009C00080B500AF00F026FC03461B680C2B00D1FEE7FEE780B586B000AF224B7B61224B3B61204B7B6135E03B691B68FB603B695B68BB603B699B683B6000237B600CE06B
:400A0000FB681A68BB681A60BB680433BB60FB680433FB607B6804337B607A683B689A42EED13B69DB683B6000237B6008E0BB6800221A60BB680433BB607B6804337B6024
:400A40007A683B689A42F2D13B6910333B617B69013B7B617B69002BC6D100F0E1FBFFF74DFCFEE701000000D813000080B582B000AF184B184A1A60184A184B1B6843F47D
:400A80000073136000237B600FE07B68032B04D8134A7B6852F8233000E0124B12497A6841F822307B6801337B607B682F2BECD90E4B1B78DAB20E4B1A700E4B0A4A1A601E
:400AC000FFF708FF0C4B00221A6000BF0837BD4680BD00BF0CED00E00004FA0514ED00E000000000C10900000080FF1FBC760040C480FF1F08ED00E0C080FF1F80B500AFF9
:400B0000064B1B78002B04D100F00AF8034B01221A7000F063F800BF80BD00BF6481FF1F80B582B000AF284A274B1B78DBB243F00203DBB21370254B1B78DBB223F0700363
:400B4000FB71224AFB7943F03003DBB21370204A1F4B1B78DBB223F03003DBB213701C4A1B4B1B78DBB243F03003DBB21370184A174B1B78DBB223F00F03DBB21370144A90
:400B8000134B1B78DBB243F00F03DBB21370642000F048F8322000F055F8002000F062F80C4A0C4B1B78DBB243F00103DBB21370094A094B1B78DBB243F00103DBB2137093
:400BC00000BF0837BD4680BD004F0040024F00400B4F0040A3430040014F004080B400AF0D4A0D4B1B78DBB243F00103DBB213700A4A0A4B1B78DBB243F00103DBB213703E
:400C0000074A074B1B78DBB243F00103DBB2137000BFBD4680BC7047A3430040B3430040004F004080B483B000AF0346FB71044BFA7992B21A8000BF0C37BD4680BC7047A7
:400C4000044F004080B483B000AF0346FB71044BFA7992B21A8000BF0C37BD4680BC7047064F004080B483B000AF0346FB71044AFB79137000BF0C37BD4680BC704700BF22
:400C8000034F004080B582B000AF786008E00C4B1B68184600F094FA7B68A3F500437B607B68B3F5004FF2D8064B1B687A6802FB03F3184600F084FA00BF0837BD4680BD26
:400CC000D880FF1FD080FF1F80B500AF064B1B78002B04D100F00AF8034B01221A7000F025F800BF80BD00BF6581FF1F80B400AF094B72221A70094B20221A70084B06229F
:400D00001A70084B47221A70074B00221A7000BFBD4680BC704700BF886400408865004029650040396500408A65004080B582B000AF00F064FA0346FB71114A104B1B78DB
:400D4000DBB243F02003DBB213700E4A0D4B1B78DBB243F01003DBB213700B4A0A4B1B78DBB243F01003DBB2137000F091F8FB79184600F048FA00BF0837BD4680BD00BFC0
:400D800098640040986500409A65004080B483B000AF044B1B78FB71FB7918460C37BD4680BC70474864004080B483B000AF084B1B78DBB203F02003002B01D0012300E081
:400DC0000023FB71FB7918460C37BD4680BC70476865004080B582B000AF00F010FA0346FB710C4A0B4B1B78DBB243F00103DBB21370084A074B1B78DBB223F00103DBB20C
:400E00001370FB79184600F0FEF900BF0837BD4680BD00BF9864004080B483B000AF0346FB7100BF074B1B78DBB203F00403002BF8D1054AFB79137000BF0C37BD4680BCCC
:400E4000704700BF6A6500404A65004080B582B000AF00F0D4F90346FB710C4A0B4B1B78DBB243F00103DBB21370084A074B1B78DBB223F00103DBB21370FB79184600F0B6
:400E8000C2F900BF0837BD4680BD00BF9A65004080B400AF094A094B1B78DBB243F00103DBB21370064A064B1B78DBB243F00103DBB2137000BFBD4680BC7047A243004068
:400EC000B243004080B500AF224A224B1B78DBB203F00103DBB213701F4A1F4B1B78DBB223F00303DBB213701C4A1C4B1B78DBB223F03003DBB21370184A184B1B78DBB295
:400F000043F03003DBB21370144A144B1B78DBB223F00F03DBB21370104A104B1B78DBB243F00F03DBB213700D4A0D4B1B78DBB243F00103DBB2137045F6C95000F058F855
:400F400045F6C95000F066F8002000F041F800BF80BD00BF0C4F00400E4F0040174F00400D4F004080B400AF0D4A0D4B1B78DBB243F00203DBB213700A4A0A4B1B78DBB28E
:400F800043F00203DBB21370074A074B1B78DBB243F00103DBB2137000BFBD4680BC7047A3430040B34300400C4F004080B500AF064B1B78002B04D1FFF784FF034B012281
:400FC0001A70FFF7CFFF00BF80BD00BF6781FF1F80B483B000AF0346FB71044AFB79137000BF0C37BD4680BC704700BF0F4F004080B485B000AF0346FB80FB88FB81044A54
:40100000FB89138000BF1437BD4680BC704700BF104F004080B483B000AF0346FB80044AFB88138000BF0C37BD4680BC704700BF124F004080B483B000AF1B4B01221A608C
:401040001A4B1B78BB711A4B1B787B71194B1B78DBB2002B03D1BA797B799A4218D0BB79154AD35CFB71BB790133BB7197F90630002B01DA0023BB710C4ABB7913700D4BB8
:401080001B78DBB2002B06D00A4B00221A7002E00A4B1B78FB710A4B01221A60FB7918460C37BD4680BC704780E100E06A81FF1F6B81FF1F6C81FF1F8C85FF1F4C6400405D
:4010C00000E100E080B483B000AF1D4B01221A601C4B1B78DAB21C4B1B78DBB29A420AD11A4B1B78DBB2002B02D08023FB711DE00023FB711AE0134B1B78DAB2124B1B78CC
:40110000DBB29A4208D2104B1B78DAB20D4B1B78DBB2D31AFB7109E00B4B1B78DAB2094B1B78DBB2D31ADBB2803BFB71084B01221A60FB7918460C37BD4680BC704700BFF4
:4011400080E100E06A81FF1F6B81FF1F6C81FF1F00E100E080B483B000AF0346FB7100BF074B1B78DBB203F00403002BF8D1054AFB79137000BF0C37BD4680BC704700BF68
:40118000696500404A64004080B485B000AF0346FB710A4B1B78DBB223F00103FB730749FB7903F00103DAB2FB7B1343DBB20B7000BF1437BD4680BC704700BF20510040E1
:4011C000142816D902B4012114381049097811F0C001890904B40E4A515C04BC00BF00BF00BF8841FDD500BF00BF02BC704700BF00BF70F10400FCD570470B050709EFF3BD
:40120000108072B6704780F31088704700480040FA110000014B1868704700BF3C81FF1F0E4B70B51E460E4C0025E41AA410A54204D056F8253098470135F8E700F0BAF8C6
:40124000084B094C1E46E41AA4100025A54204D056F8253098470135F8E770BDC0130000C0130000C0130000C813000010B5431E0A44914204D011F8014B03F8014FF8E71E
:4012800010BD00000000000028000000300000003800000040000000480000004800000048000000480000006081FF1F6081FF1F6081FF1F6081FF1F6081FF1F6081FF1F77
:4012C0006081FF1F6081FF1F6081FF1F6081FF1F6081FF1F6081FF1F6081FF1F6081FF1F000000480800004810000048200000482C00004838000048C4050048E405004868
:401300001800004844000048C400004844010048C401004844020048C402004844030048C403004844040048C404004844050048040600481406004824060048A406004898
:4013400024070048A407004824080048A408004824090048A4090048240A0048A40A0048240B0048A40B0048240C0048A40C0048240D0048A40D0048240E0048A40E004805
:40138000240F0048A40F004824100048A410004824110048A411004824120048A412004824130048A413004824140048A414004843000000F8B500BFF8BC08BC9E46704789
:4013C000C50200006D0A0000F8B500BFF8BC08BC9E467047A1020000E8130000C880FF1F78000000D00400000000000000366E01C05D0000180000000000E02E00000000F8
:4014000000000000000000000000000000000000000000000000000000000000B01300000000000000000000000000000000000000000000000000000000000000000000E9
:4014400000000000000000000000000000000000000000000000000000000000DC80FF1F0000000000000000000000000000000000000000000000000000000000000000F2
:40148000000000000000000000000000000000000000000000000000000000000000000000000000000000000000000000000000000000000000000000000000000000002C
:4014C00000000000000000000000000000000000000000000000000000000000000000000000000000000000000000000000000000000000000000000000000000000000EC
:4015000000000000000000000000000000000000000000000000000000000000000000000000000000000000000000000000000000000000000000000000000000000000AB
:40154000000000000000000000000000000000000000000000000000000000000000000000000000000000000000000000000000000000000000000000000000000000006B
:020000040003F7
:0200000480007A
:400000000080000040000000000000000500000020000000100000000300000000000000002000000000000000009C00008000000000000000001B000080000000000000F1
:400040000000270000067909372F48000204000200000010102F000026005910592626095100202F7F000000000000000601002E0403000430070E200708401000002A0240
:4000800000000040210406000500EC000CFFFFFF62A0F0410C00000000000211040404040000000100000000000040020010301000101012000000000000000000000000B4
:4000C00000000000000001000000010000000000000002000000000000000000000000000000000000000000040000000000000000000000000004000000030000000000F1
:4001000000004400020000000004000000FF07FF4020F0050800000000000000040004000001000140A84020000000000000000000000000000000000000000000000000C1
:400140000000000023008C002304941100170000000000001A17A40000001804000008030000000000040000030004004004851200080000000060081F0790100880A2208B
:400180000000000426010000000CEB000DFFFFFF0000F0440C000000000000000404040011010001000000000000C0000000400200000000000000000000000000000000B2
:4001C0000000000000000000000500000000000200000002010506001400090000040001000000000A0011003F0000003F0400012000000007021804200000010080000044
:400200000000000500000000000000000000000000000000000000001C0004000404000401100001000000000000000000000000000000000000000000000000000000007B
:40024000000000007F060009000000203700481F000400020003100426005920001679095100200059002600021F00000601001E041F000030070E100708402000002A0295
:400280000000004042050300060CE00009FFFFFF62A0F0410C0000000000021204040404111100010000000000004002001030100010101200000000000000000000000072
:4002C00000000000000000000000060000000001000001010000000000000200000000000000000000000000000000000000000000020000030204000301000000000000E4
:400300000000111100000000000000000000000000000000000000000000000004040000010000010000000000000000000000000000000000000000000000000000000091
:400340000000000000000000000000000000000000000000000000000000000000000000000000000000000000000000000000000000000000000000000000000008000075
:400380000000000400000000000000000000000000000000000000000000000000040000000000010000000000000000000000000000000000000000000000000000000034
:4003C00000000000000000000000000014000A000900520002010500000000000001000000000000000000003F0100003F01000020000000070040011800200000000080DB
:400400000000000400000000000000000000000000000000000000001C0000000404000400000001000000000000000000000000000000000000000000000000000000008F
:4004400000000000B000470000008058C304300001A30E1871008802240041004000032300CA0031500000000000800000C90032020101007F03000400C0803800200082BC
:4004800000004014030000000040000000FF07FF4020F0050800000001000000040404041110000140A84020000000000000000000000000000000000000000000000000C8
:4004C0000000000040000300300D473000000000020C0111430D305024004100000000600068001171000820500000150000000001020E007F7C00020001000000000002C8
:400500000000001443020000000BEC000DFFFFFF0000F0440C000000010000000404040400000001000000000000C00000004002000000000000000000000000000000000D
:4005400000000000400400000007E4000000000480080000000700000004000299104600F40003035900A60800080B000004000100000000C0001818220707000808A220B9
:40058000000004000000000000000000000000000000000000000000000000000404000000000001000000000000000000000000000000000000000000000000000000002E
:4005C000000000000000000000000000000000000000000000000000000000007200003C720000000000000000000000000000000000000000000000000000003C0F0F0081
:4006000000000000030000000000000000000000030000000300000000000000000000000300020000000100000000000000000000000000000000000000000000000000AB
:400640000000010000000000000000000000000000000000400000000000000000000000000000000000000000000000000000000000000000000000000000000000000039
:4006800000000000000000000000000000000100000000000000000000000000000000000000000000000000000000004000000000000000000000000000000000000000F9
:4006C00000000000000000000000000000000000000000000000000000000000000000000000000000000000000000000000000000000000000000000000000000000000FA
:4007000000000000000001000000000000000000000000000000000000000000000000000000000000000000000000000000000000000000000000000000000000000000B8
:400740000000000000000000000000000000000000000000000000000400000000000000000000000000020000000000000000000000000000000000000000000200000071
:400780000000000000000000000000000800000000000000000000000000000000000000000000000000000000000000000000000000000000000000080000000000000029
:4007C0000000000000000000000000000000000000000000800400000000000000000000000000000000000000000000000000000000000000000000000000000000000075
:4008000000000000000000000000000000000400010000000000000000000000000000000000000000040000000000000000000000000000000000000000000000000000AF
:4008400000000000000000000000000000000000000000000000000000000000000000000000000000000000000000000000000000000000000000008000000000000000F8
:400880000000000000000000000000000000000000000000000000000000000000000000000000000000000000000000000000000000000000000000080000000000000030
:4008C00000000000000000000000000000000000000000000000000000200000000000000000000008000000000000000000000000000000000000000200000000000000CE
:40090000000000000000000000000000000008000000000000000000000000000000000000000000002000000000000000000000000000000000000000000000000000008F
:400940000000000000000000000000000000000000000000000000000000000000000000000000000000000000000000000000000000000004000000000000000000000073
:400980000000000000000000000000000000000000000000000000000000000000000000000000000000000000000000000000000000000000000000000000000000000037
:4009C00000000000000000000000000000000000000000000000000000000000000000000000000002000000000000000000000000000000000000000400000000000000F1
:400A000000000000000000000000000000000000000000000000000000000000000000000000000004028002400100900006000040000A0060000080100A00000001000111
:400A400044080A2288030800000410141002000140000028400200101040000584000000A200040004050000000000002000000000000000400010000000000081000820D5
:400A80000000000000000000000000000000000000000000000000000000000000000000000000000000080001001000840000004000002000080C000000000000400001E4
:400AC000000010001100800800081000000000000000000001000200000000000000000000000000BD00CC003D0000000000EB00FD00FA000700000000000F000000000074
:400B000000000000040000000000000000000000000000000000000000000000000000000000000000240082001002000000A00400004000B000020000400014008000038C
:400B400068D04000044046000000040100200001000000140000128000012000088410000000000000080000000000000000800000000000000400000000000011840000C9
:400B8000000002080000000008004000000000000000000000000000000000000000000000000000000000000000000000000000000000000840242C440080000925401CFD
:400BC00000000001A000218805801401000000000000000001001010000000000000000000000000CF001E00ED00000000006C00AD000E00020000000000CF0030000000EE
:400C00000000000000000000000000001000000000008000000000000000000000000000000000000000000000000000000000000000000000000000000000000000000024
:400C40000000000000000000000000000000000000000000000000000000000000000000000000000000000000000000000000000000000000000000000000000000000074
:400C80000000000000000000000000001000000000008000000000000000000000000000000000004A0000000000244020000004002221000000D000000001210084010018
:400CC0000022060800000000000188080000200800800008000000000000184100000000002204800400000000A0004100000004008008000C0000000000005000000000B7
:400D000010000000000000000000000000000000004000140000000000000520000000000000000000000000000000000000000000120000100020380000840008211000F3
:400D400020000001A0002080080014194800000000000040940000000000000000000000000000007D00F000D400000000003000F000F000B400300000002000000000006C
:400D80000000000000000000000000000000000000000000000000000000000000000000000000000000000000000000000000000000000000000000000000000000000033
:400DC00000000000000000000000000000000000000000000000000000000000000000000000000000000000000000000000000000000000000000000000000000000000F3
:400E0000000000000000000000000000000000000000020000000000000000000000000000000000000000A0000000002000A000000840002800000080400014002120A02B
:400E4000802840002040200050400000840000010000000800250000000010010000002800800420000000A000000000280000000000000080001000000000000001020090
:400E8000040002000000000000004204000000000000000000000000000000000408200000000000000000000000020000000000000000000440007C008802000004401416
:400EC0000000000000000100442824000000000000000000000000000200000000000000000000000C003E00F600000000002D00A70076000C0004000000C000B000000055
:400F000000000000000000000000000000000000000000000000000000000000000000000000000000000000000000000000000000000000000000000000000000000000B1
:400F40000000000000000000000000000000000000000000000000000000000000000000000000000000000000000000000000000000000000000000000000000000000071
:400F8000000000000000000000000800000000000000000000000000000000000000000000000000880000001200000000080000002440020000C0000000022A0005080127
:400FC0001000421400000044040588000200000002000014000000000001280000801000002240080000000000340002000000000300050800000000000010000000000025
:401000000000080000000000000000000000000000400014000000000000022800000000000000000000000000000000000000120000000000000010000000000000000008
:401040000000000000000000000000000000000000000000000000000000000000000000000000005500F400F000000000007800E000FC00E0003000000040000000000093
:401080000000000000000000000000000000000000000000000000000000000000000000000000000000000000000000000000000000000000000000000000000000000030
:4010C00000000000000000100000000000000000000000000000000000000000000000000000000000000000000000000000000000000000000000000000000000000000E0
:4011000000000000000000000000000000000000000000000000000000000000000000000000000000000000000000000000000000000000000000000000000000000000AF
:401140000000000000000000000000000000000000000000000008101000000000000000000000000000000000000000000000000000000000000000000000000000000047
:40118000000000000000000000000000000000000000000000000000000000000000000000000000000000000000000000000000000000000000000000000000100000001F
:4011C00000000000000000000000000000000000000000000000000000000000000000000000000000000000000000000000000000000000000000000000000000000000EF
:401200000000000000000800000000100000000000000000000000100000000000000000000000000000000000000000000000000000000000000000000000000000000086
:40124000000000000000000000000000000000000080000000000000000000000000000000000000000000000000100000000000000000000000000000000000C00000001E
:40128000800000000000000000000000000000000000400000000000000000000000000000000000000000000000000000000000000000000000000000000000000000006E
:4012C00000000000000000000000000000000000000000000000000000000000000000000000000000000000000000000000000000000000000000000000000000000000EE
:4013000000000000008000000000000000000000000000000000000000000000000000000000000000000000000000800000000000000000000000000000000000000000AD
:4013400000000000000000000000008000000000000000000000000000000000000000000000000000000000000000000000000000000000000000000000400000000000AD
:40138000000000000000000000001000000000000000000000000000000000000000000000000000000000000000000000000000000000000000000000000000000000001D
:4013C000000000000000000000000080000000000000000000000000000000000000000000000000000000000000000000000000000000000000000000000000000000006D
:4014000000000000000000000000000000000000000000000000000000000000000000000000000000000000000000000000000000000000000000000000000000000000AC
:4014400000000000000000000000000000000000000000000000008000000000000000000000000000000000000000000000000000000000000000000000000000000000EC
:40148000000000000000000000000000000000000000000000000000000000000000000000000000000000000000000000000000000000000000000000000000000000002C
:4014C00000000000000000000000000000000000000000000000000000000000000000000000000000000000000000000000000010000000000000000000000000000000DC
:401500000000000000000000000000000000000000000000000000000000000000000000000000002000102020002000000000008000408B8B0080000000000005000007B9
:401540000200020000000000000000000000000000000000000000000000000000000000000000000000000000000000000000000000000000000000000000000000000067
:40158000000000000000000000000000000000000000000000000000000000000000000000000000000000000000000000000000000000000000000000000000000000002B
:4015C00000000000000000000000000000000000000000000000000000000000000000000000000000000000000000000000000000000000000000000000000000000000EB
:4016000000000000000000000000000000000000000000000000000000000000000000000000000000000000000000000000000000000000000000000000000000000000AA
:40164000000000000000000000000000000000000000000000000000000000000000000000000000000000000000000000000000000000000000000000000000000000006A
:0200000490006A
:0400000000004005B7
:0200000490105A
:04000000BC90ACAF55
:0200000490303A
:020000007A067E
:0200000490402A
:4000000000000000000000000000000000000000000000000000000000000000000000000000000000000000000000000000000000000000000000000000000000000000C0
:400040000000000000000000000000000000000000000000000000000000000000000000000000000000000000000000000000000000000000000000000000000000000080
:400080000000000000000000000000000000000000000000000000000000000000000000000000000000000000000000000000000000000000000000000000000000000040
:4000C0000000000000000000000000000000000000000000000000000000000000000000000000000000000000000000000000000000000000000000000000000000000000
:0200000490501A
:0C00000000012E16106900012E1D8A6FF1
:00000001FF