:400000000080002011000000CD130000CD13000080B500AF024A034B1B68136001F0E0F9BC760040FA460040010000000020004001000000002001400100000000480040D3
:400040000100000000480140010000000100000008000223000008760800032300001076080004230000287608000523000030760500062300002070050007230000307065
:4000800005000823000060700500FE230000707010000A220000005130000B22000040511000FE220000C05180000D220000000000020E220000800180010F220000000466
:4000C0008001102200000006000211220000000E800112220000001480011322000000168000142200000041000115220000004480001622000000478000172200000048FC
:400100008000FE220000004D070019230000085207001A230000105207001B230000185207001C23000078520C001D230000004F0C001E2300000C4F0C001F230000184FD8
:4001400020002023000070642000FE23000070650800222300000051800023230000800080002423000000088000252300008008800026230000000A800027230000800A08
:40018000800028230000000C800029230000800C80002A230000001880002B230000801880002C230000001A80002D230000801A10002E230000105010002F2300000050FF
:4001C000800030230000804D800031230000004C800032230000804C8000332300008047800034230000004680003523000080468000362300000045800037230000804589
:40020000800038230000001B800039230000801B80003A230000801580003B230000001980003C230000801980003D230000801780003E230000000980003F2300008009A4
:400240008000402300008007800041230000000B800042230000800B8000432300008005800044230000000D800045230000800D800046230000800380004723000000018A
:400280008000482300000049800049230000804980004A230000804880004B230000004380004C230000804380004D230000004280004E230000804280004F230000804125
:4002C00080005023000000408000FE230000804010B5054C237833B9044B13B10448AFF300800123237010BD8083FF1F00000000BC210000084B10B51BB108490848AFF3A3
:4003000000800848036803B910BD074B002BFBD0BDE81040184700BF000000008483FF1FBC210000C880FF1F0000000090B583B000AF794B1B78FF2B07D0774B93F8373102
:40034000FF2B02D1754B01221A70734B1B78FF2B07D0714B93F83731FF2B02D06F4B02221A706D4B93F86E32FF2B07D06A4B93F8A533FF2B02D1694B03221A70664B93F816
:400380006E32FF2B07D0644B93F8A533FF2B02D0624B04221A70614B1B78012B1FD1FB79052B01D10023FB71FC795B4B1B78184600F0EEFA03461A46574B234483F800219F
:4003C000FB790133FB71544B1B78184600F058FA514B1B7801220021184600F01BFC4F4B1B78022B21D10023FB711BE0FC794A4B1B78184600F0CCFA03461A46464B234417
:4004000083F80021FC79444B93F83731184600F0BFFA03461A46404B234483F83722FB790133FB71FB79042BE0D93C4B1B78032B2ED10023FB7128E0FC79374B1B7818467D
:4004400000F0A6FA03461A46334B234483F80021FC79314B93F83731184600F099FA03461A462D4B234483F83722FC792A4B93F86E32184600F08CFA03461A46264B234437
:4004800083F86E23FB790133FB71FB79042BD3D9224B1B78042B3BD10023FB7135E0FC791D4B1B78184600F073FA03461A461A4B234483F80021FC79174B93F8373118468A
:4004C00000F066FA03461A46134B234483F83722FC79114B93F86E32184600F059FA03461A460D4B234483F86E23FC790A4B93F8A533184600F04CFA03461A46064B234437
:4005000083F8A524FB790133FB71FB79042BC6D900BF0C37BD4690BDB883FF1F0E89FF1F90B583B000AF00F0EFFF62B601F03AF901F0D4FB01F0DCFC01F08CFB2B4B0122E6
:4005400083F8B520294B052283F8B620274B302283F8B7200023FB710BE0FC79FB79184600F0C8F803461A46214B1A55FB790133FB71FB790F2BF0D91D4B5A781B4B1A707F
:400580001B4B9A78194B83F83721194BDA78174B83F86E22164B1A79144B83F8A52301F097FC0346012B0BD11249002000F0A6FA0E4B1B78184600F0F5F800F0F9FB01E007
:4005C000FFF7B4FE01F064F80346002BE7D1002000F0DEF901220021002000F01BFB002000F0ACFB002000F0D3F9D8E7B883FF1F9888FF1F6D84FF1F80B489B000AF78609D
:400600000B467B800023FB830023BB617B68002B2FD1002368E0FB8BDB0B9BB2BB60FB8B5B00FB837B681B781A46BB6942FA03F31BB203F001031AB2B7F91E3013431BB205
:40064000FB83BB690133BB61BB69072B07DD0023BB617B6801337B607B88013B7B80BB68002B06D0FB8B83F4FF4383F07A03DB43FB837B88002BCED100237B6113E0FB8BAF
:40068000DB0B9BB2BB60FB8B5B00FB83BB68002B06D0FB8B83F4FF4383F07A03DB43FB837B6901337B617B690F2BE8DD00237B824FF400437B610123FB6011E0FA8B7B696C
:4006C0001340002B06D0FB681AB2B7F9123013431BB27B827B695B107B61FB685B00FB607B69002BEAD17B8A18462437BD4680BC704700BF90B585B000AF0346FB71274B94
:40070000FF221A70254BFF2283F83721234BFF2283F86E22214BFF2283F8A523012001F0BBFBFB7943F05003DBB2184601F07CF9202001F079F9FA2001F076F9042000F0FC
:40074000C3FF002001F0A8FB01F0E6F80346BB730023FB7309E0FC7B01F096F803461A460F4B1A55FB7B0133FB73FA7BBB7B9A42F1D301F019F94FF4967000F0A5FFBB7B62
:40078000002B05D0064B1B7803F00F03DBB200E0FF2318461437BD4690BD00BFB883FF1FA888FF1F80B584B000AF0346FB710023FB7306E0FB7B2E4A0021D154FB7B013340
:4007C000FB73FB7B312BF5D9012001F065FBFB7943F05003DAB2264B1A70254B30225A70234B01229A70224B0122DA70204B06221A7105211E48FFF7FFFE03461A461D4B49
:400800001A801C4B1B881B0A9BB2DAB21A4B1A70184B1B88DAB2194B1A70184B1A78144B5A71154B1A78124B9A71114B0322DA710F4BFA221A720023BB7308E0BB7B0C4A9B
:40084000D35C184601F0F0F8BB7B0133BB73BB7B092BF3D9042000F037FF002001F01CFBC82000F031FF7B7B18461037BD4680BDDC88FF1F1089FF1F9488FF1F1289FF1FC3
:4008800090B585B000AF0346FB710023FB7306E0FB7B3A4A0021D154FB7B0133FB73FB7B312BF5D9012001F0F7FAFB7943F05003DAB2324B1A70314B30225A702F4B012226
:4008C0009A702E4B0122DA702C4B00221A7105212A48FFF791FE03461A46294B1A80284B1B881B0A9BB2DAB2264B1A70244B1B88DAB2254B1A70244B1A78204B5A71214BC6
:400900001A781E4B9A711D4B0322DA711B4BFA221A720023BB7308E0BB7B184AD35C184601F082F8BB7B0133BB73BB7B092BF3D9042000F0C9FE002001F0AEFA00F0ECFFC5
:4009400003463B7300237B7309E07C7B00F09CFF03461A460D4B1A557B7B01337B737A7B3B7B9A42F1D301F01FF84FF4967000F0ABFEFB7A18461437BD4690BDDC88FF1F57
:400980001089FF1F9488FF1F1289FF1FA888FF1F90B585B000AF0346FB710023FB7306E0FB7B544A0021D154FB7B0133FB73FB7B312BF5D9012001F06FFAFB7943F0500363
:4009C000DBB2184601F030F8202001F02DF8FA2001F02AF8042000F077FE002001F05CFA00F09AFF03467B720023BB7309E0BC7B00F04AFF03461A463E4B1A55BB7B01330C
:400A0000BB73BA7B7B7A9A42F1D300F0CDFF4FF4967000F059FE384B1B78FA799A4212D100237B730BE07B7B7A7B3249895C324A13440A4683F805217B7B01337B737A7B12
:400A40007B7A9A42EFD32C4B93F83731FA799A4212D100233B730BE03B7B3A7B2549895C254A13440A4683F83C223B7B01333B733A7B7B7A9A42EFD31F4B93F86E32FA79F6
:400A80009A4212D10023FB720BE0FB7AFA7A1949895C194A13440A4683F87323FB7A0133FB72FA7A7B7A9A42EFD3134B93F8A533FA799A4212D10023BB720BE0BB7ABA7AFD
:400AC0000C49895C0C4A13440A4683F8AA24BB7A0133BB72BA7A7B7A9A42EFD37B7A002B02D0044B5B7800E0002318461437BD4690BD00BFA888FF1FB883FF1F90B585B029
:400B000000AF03463960FB71012001F0C5F9FB7943F05003DAB23A4B1A70394B30225A70374B05229A70364B0322DA703B681A78334B1A713B685A78314B5A713B689A7861
:400B40002F4B9A7107212E48FFF756FD03461A462C4B1A802B4B1B881B0A9BB2DAB22A4B1A70284B1B88DAB2284B1A70274B1A78234BDA71244B1A78214B1A72204B032254
:400B80005A721F4BFA229A720023FB7308E0FB7B1B4AD35C184600F047FFFB7B0133FB73FB7B0B2BF3D9042000F08EFD002001F073F900F0B1FE03467B730023BB7309E004
:400BC000BC7B00F061FE03461A46114B1A55BB7B0133BB73BA7B7B7B9A42F1D300F0E4FE4FF4FA7000F070FD7B7B002B02D0084B5B7800E0002318461437BD4690BD00BFE8
:400C0000DC88FF1F1089FF1F9488FF1F1289FF1FA888FF1F80B584B000AF0346FB710B46BB7113467B71BB791B015AB297F9053013435BB2BB73012001F02EF9FB7943F019
:400C40005003DAB2264B1A70254B30225A70244B65229A70224B0122DA70214ABB7B137105211F48FFF7C8FC03461A461D4B1A801C4B1B881B0A9BB2DAB21B4B1A70194BC1
:400C80001B88DAB2194B1A70184B1A78144B5A71154B1A78124B9A71114B0322DA71104BFA221A720023FB7308E0FB7B0C4AD35C184600F0B9FEFB7B0133FB73FB7B092B94
:400CC000F3D9042000F000FD002001F0E5F8FB791846FFF75DFE00BF1037BD4680BD00BFDC88FF1F1089FF1F9488FF1F1289FF1F80B400AF00BFBD4680BC704790B583B0C5
:400D000000AF00F009FE0346BB710023FB7109E0FC7900F0B9FD03461A46074B1A55FB790133FB71FA79BB799A42F1D300F03CFE00BF0C37BD4690BDA888FF1F90B585B0FC
:400D400000AF0346FB710023FB7311E0FC7B00F09BFD03461A46154B1A55144B5B7863F00F03BB73114B9B787B73FB7B0133FB73FB7B132BEAD90D4B5B7863F00F03BB73A7
:400D80000A4B9B787B7300F00FFEBB7BC02B04D17B7B652B01D0FFF7B1FF7B7B652B01D1FFF7A6FF00BF1437BD4690BDA888FF1F80B584B000AF0023FB7308E0FB7B6E4A93
:400DC000D35C184601F0EAF8FB7B0133FB73FB7B0C2BF3D9694B1B78184601F0DFF80023BB7308E0BB7B664AD35C184601F0D6F8BB7B0133BB73BB7B0C2BF3D95F4B1B781C
:400E0000184601F0CBF800237B7308E07B7B5D4AD35C184601F0C2F87B7B01337B737B7B0C2BF3D9554B1B78184601F0B7F800233B7308E03B7B544AD35C184601F0AEF85F
:400E40003B7B01333B733B7B172BF3D94B4B1B78184601F0A3F80023FB7208E0FB7A4B4AD35C184601F09AF8FB7A0133FB72FB7A0C2BF3D9414B1B78184601F08FF80023CB
:400E8000BB7208E0BB7A424AD35C184601F086F8BB7A0133BB72BB7A0C2BF3D9374B1B78184601F07BF800237B7208E07B7A364AD35C184601F072F87B7A01337B727B7A5B
:400EC000172BF3D92D4B1B78184601F067F800233B7208E03B7A2F4AD35C184601F05EF83B7A01333B723B7A132BF3D9234B1B78184601F053F80023FB7108E0FB79264A26
:400F0000D35C184601F04AF8FB790133FB71FB79132BF3D9194B1B78184601F03FF80023BB7108E0BB791D4AD35C184601F036F8BB790133BB71BB79132BF3D90F4B1B78A5
:400F4000184601F02BF800237B7108E07B79144AD35C184601F022F87B7901337B717B79132BF3D9054B1B78184601F017F800BF1037BD4680BD00BF9081FF1FCC80FF1F2D
:400F80008081FF1F5081FF1FF482FF1F4081FF1F3081FF1F1881FF1F0081FF1FE880FF1FD080FF1F80B584B000AFF860B9607A607A68B968F86801F0F5F800BF1037BD46EA
:400FC00080BD00BF80B483B000AF0346FB71FEE780B483B000AF434B00221A60424B10221A70424B01221A70414B00221A70414B4FF420721A80404B01221A703F4B032268
:401000001A703F4B3F4A92B21A803F4B47F608021A803E4B00221A803D4B4FF480421A803C4B09221A703C4B0C221A703B4B18221A703B4B21221A70BFF35F8F394B0122FF
:401040001A70BFF35F8F00BF2A4B1B889BB2002BFAD100237B600DE07B68DA00324B13441946324A7B6852F823309BB20B807B6801337B607B684F2BEED9BFF35F8F294B53
:4010800001221A70BFF35F8F00BF294B1B78DBB203F00103002BF8D100BF264B1B78DBB203F00103002BF8D100BF234B1B78DBB203F00103002BF8D100BF204B1B78DBB2E8
:4010C00003F00103002BF8D100BF1D4B1B78DBB203F00103002BF8D100BF0C37BD4680BC704700BFA083FF1F0076004010700040197000400078004002780040037800406F
:40110000047800405000000006780040047600400676004029700040397000406970004079700040147000400C780040C02100001870004028700040387000406870004062
:401140007870004080B582B000AF3B4B4FF49C721A803A4B18221A70394B4FF49C721A80384B18221A70384B40F209221A80374B18221A70364B47F22F521A80354B192271
:401180001A70354B02221A704FF0402308221A70324B03221A70324B324A1278D2B21A70314B08221A80314B41F251221A800023FB7019237B6014E0FB785B00DAB22C4BFE
:4011C0001B78DBB203F00103DBB21343DBB203F00303FB704FF4F07000F08EFF7B68013B7B607B68002B02D0FB78032BE4D17B68002B02D10320FFF7E5FE1E4B4FF4807239
:401200001A801C4B07221A701B4B00221A701B4B48221A70174B00221A70194B02221A70184A184B1B78DBB243F00F03DBB2137000BF0837BD4680BD8040004082400040F4
:401240008440004086400040884000408A4000408C4000408E4000400043004000420040A1460040080100492242004020420040254200400440004006400040084000403B
:4012800001400040A243004080B483B000AF0B4B1B78FB710A4AFB7903F00703DBB21370084AFB791B09DBB21370074B44221A7000BF0C37BD4680BC704700BFCF0100493C
:4012C0006E5800406F5800407658004080B500AF72B62D4A2C4B1B78DBB243F00403DBB21370FFF775FE294A284B1B78DBB243F00203DBB21370264A254B1B78DBB243F085
:401300000203DBB21370234A224B1B78DBB243F04003DBB21370204A1F4B1B78DBB243F01003DBB213700A221C491D48FFF73AFE0A221C491C48FFF735FE0A221B491C4898
:40134000FFF730FE0A221B491B48FFF72BFE1B4A1A4B1B78DBB243F00803DBB21370184B60221A70FFF7EEFE154B80221A70154B01221A70FFF788FF0E2206491248FFF7C9
:4013800011FE00BF80BD00BFE84600400350014013500140A0430040C24300402C170048F051004038170048105100404417004820510040501700483051004022430040A8
:4013C0000048004004000840B043004080B500AF00F0BCFE03461B680C2B00D1FEE7FEE780B586B000AF224B7B61224B3B61204B7B6135E03B691B68FB603B695B68BB60EE
:401400003B699B683B6000237B600CE0FB681A68BB681A60BB680433BB60FB680433FB607B6804337B607A683B689A42EED13B69DB683B6000237B6008E0BB6800221A6058
:40144000BB680433BB607B6804337B607A683B689A42F2D13B6910333B617B69013B7B617B69002BC6D100F077FEFFF759F8FEE7010000002823000080B582B000AF184B63
:40148000184A1A60184A184B1B6843F40073136000237B600FE07B68032B04D8134A7B6852F8233000E0124B12497A6841F822307B6801337B607B682F2BECD90E4B1B784F
:4014C000DAB20E4B1A700E4B0A4A1A60FFF7FEFE0C4B00221A6000BF0837BD4680BD00BF0CED00E00004FA0514ED00E000000000CD1300000080FF1FBC760040C480FF1F65
:4015000008ED00E0C080FF1F80B500AF064B1B78002B04D100F00AF8034B01221A7000F063F800BF80BD00BFA483FF1F80B582B000AF284A274B1B78DBB243F00203DBB299
:401540001370254B1B78DBB223F07003FB71224AFB7943F03003DBB21370204A1F4B1B78DBB223F03003DBB213701C4A1B4B1B78DBB243F03003DBB21370184A174B1B780D
:40158000DBB223F00F03DBB21370144A134B1B78DBB243F00F03DBB21370642000F048F8322000F055F8002000F062F80C4A0C4B1B78DBB243F00103DBB21370094A094BD0
:4015C0001B78DBB243F00103DBB2137000BF0837BD4680BD004F0040024F00400B4F0040A3430040014F004080B400AF0D4A0D4B1B78DBB243F00103DBB213700A4A0A4B34
:401600001B78DBB243F00103DBB21370074A074B1B78DBB243F00103DBB2137000BFBD4680BC7047A3430040B3430040004F004080B483B000AF0346FB71044BFA7992B2C8
:401640001A8000BF0C37BD4680BC7047044F004080B483B000AF0346FB71044BFA7992B21A8000BF0C37BD4680BC7047064F004080B483B000AF0346FB71044AFB7913703D
:4016800000BF0C37BD4680BC704700BF034F004080B400AF054B1B78DBB203F004039B08DBB21846BD4680BC704700BF2151004080B483B000AF0346FB7101BE00BF0C3713
:4016C000BD4680BC704700BF80B582B000AF786008E00C4B1B68184600F00EFD7B68A3F500437B607B68B3F5004FF2D8064B1B687A6802FB03F3184600F0FEFC00BF083700
:40170000BD4680BD1883FF1F1083FF1F80B584B000AF03463960FB710F4B1B68FB60FB791F2B02D90020FFF7C3FFFB7903F01F0310339B00FA6813441B68BB60FB7903F0CB
:401740001F0310339B00FA6813443A681A60BB6818461037BD4680BD08ED00E080B582B000AF03460A46FB711346BB71BB79072B02D90020FFF79CFFFB791F2B02D900206C
:40178000FFF796FFFB7903F01F0303F1604303F56443BA795201D2B21A7000BF0837BD4680BD00BF80B500AF064B1B78002B04D100F00AF8034B01221A7000F031F800BFC1
:4017C00080BD00BFA583FF1F80B500AF0D490020FFF79CFF07210020FFF7C0FF0A4B00221A700A4B72221A70094B20221A70094B06221A70084B47221A70084B00221A70E0
:4018000000BF80BD5D1A0000A683FF1F896500408A6500402A6500403A6500408B65004080B582B000AF00F086FC0346FB71124A114B1B78DBB243F02003DBB213700F4ADF
:401840000E4B1B78DBB243F01003DBB213700C4B01221A600B4A0B4B1B78DBB243F01003DBB2137000F068F9FB79184600F067FC00BF0837BD4680BD996500409A65004053
:4018800000E100E09B65004080B483B000AF1B4B01221A601A4B1B78BB711A4B1B787B71194B1B78DBB2002B03D1BA797B799A4218D0BB79154AD35CFB71BB790133BB71D6
:4018C00097F90630002B01DA0023BB710C4ABB7913700D4B1B78DBB2002B06D00A4B00221A7002E00A4B1B78FB710A4B01221A60FB7918460C37BD4680BC704780E100E0D2
:40190000A783FF1FA883FF1FA983FF1F1889FF1F4965004000E100E080B483B000AF1D4B01221A601C4B1B78DAB21C4B1B78DBB29A420AD11A4B1B78DBB2002B02D080235A
:40194000FB711DE00023FB711AE0134B1B78DAB2124B1B78DBB29A4208D2104B1B78DAB20D4B1B78DBB2D31AFB7109E00B4B1B78DAB2094B1B78DBB2D31ADBB2803BFB7107
:40198000084B01221A60FB7918460C37BD4680BC704700BF80E100E0A783FF1FA883FF1FA983FF1F00E100E080B582B000AF00F0C2FB0346FB71154A144B1B78DBB243F007
:4019C0000103DBB21370114A104B1B78DBB223F00103DBB21370FB79184600F0B0FB0C4B01221A600B4B00221A700B4B00221A700A4B00221A700A4B00221A70094B0122F8
:401A00001A6000BF0837BD4680BD00BF9965004080E100E0A783FF1FA883FF1FA983FF1FAA83FF1F00E100E080B483B000AF0346FB7100BF074B1B78DBB203F00403002BA8
:401A4000F8D1054AFB79137000BF0C37BD4680BC704700BF6B6500404B65004080B483B000AF0023FB712C4B1B78BB71BB797B71BB7903F01E03002B0CD097F9063003F09D
:401A80001E035AB2254B1B785BB213435BB2DAB2224B1A70BB7903F02003002B31D0204B1B787B711F4B1B78DBB219461E4A7B7953540123FB71FB79002B22D01B4B1B789D
:401AC000DBB2002B02D01A4B01221A70154B1B78DBB20133DAB2134B1A70124B1B78DBB25BB2002B02DA0F4B00221A700D4B1B78DAB2104B1B78DBB29A4202D10B4B012271
:401B00001A70BB7903F02003002BACD100BF0C37BD4680BC704700BF6A650040A683FF1F49650040A883FF1F1889FF1FA983FF1FAA83FF1FA783FF1F80B400AF094A094BBF
:401B40001B78DBB243F00203DBB21370064A064B1B78DBB243F00203DBB2137000BFBD4680BC7047A2430040B243004080B500AF224A224B1B78DBB203F00103DBB2137001
:401B80001F4A1F4B1B78DBB223F00303DBB213701C4A1C4B1B78DBB223F03003DBB21370184A184B1B78DBB243F03003DBB21370144A144B1B78DBB223F00F03DBB2137059
:401BC000104A104B1B78DBB243F00F03DBB213700D4A0D4B1B78DBB243F00103DBB2137045F6C95000F058F845F6C95000F066F8002000F041F800BF80BD00BF0C4F0040D0
:401C00000E4F0040174F00400D4F004080B400AF0D4A0D4B1B78DBB243F00203DBB213700A4A0A4B1B78DBB243F00203DBB21370074A074B1B78DBB243F00103DBB21370B0
:401C400000BFBD4680BC7047A3430040B34300400C4F004080B500AF064B1B78002B04D1FFF784FF034B01221A70FFF7CFFF00BF80BD00BFAC83FF1F80B483B000AF034651
:401C8000FB71044AFB79137000BF0C37BD4680BC704700BF0F4F004080B485B000AF0346FB80FB88FB81044AFB89138000BF1437BD4680BC704700BF104F004080B483B019
:401CC00000AF0346FB80044AFB88138000BF0C37BD4680BC704700BF124F004080B500AF064B1B78002B04D100F00AF8034B01221A7000F031F800BF80BD00BFAD83FF1FDE
:401D000080B500AF0D490120FFF700FD07210120FFF724FD0A4B00221A700A4B72221A70094B20221A70094B06221A70084B47221A70084B00221A7000BF80BDBD1D000040
:401D4000AE83FF1F8A6400408D6400402B6400403B6400408C64004080B582B000AF00F0EAF90346FB71114A104B1B78DBB243F02003DBB213700E4A0D4B1B78DBB243F0FA
:401D80001003DBB213700B4B02221A600A4A0A4B1B78DBB243F01003DBB21370FB79184600F0CDF900BF0837BD4680BD9A6400409D64004000E100E09C64004080B483B040
:401DC00000AF0023FB712C4B1B78BB71BB797B71BB7903F01E03002B0CD097F9063003F01E035AB2254B1B785BB213435BB2DAB2224B1A70BB7903F02003002B31D0204B43
:401E00001B787B711F4B1B78DBB219461E4A7B7953540123FB71FB79002B22D01B4B1B78DBB2002B02D01A4B01221A70154B1B78DBB20133DAB2134B1A70124B1B78DBB2DC
:401E40005BB2002B02DA0F4B00221A700D4B1B78DAB2104B1B78DBB29A4202D10B4B01221A70BB7903F02003002BACD100BF0C37BD4680BC704700BF6D640040AE83FF1F9B
:401E80004A640040B083FF1F9889FF1FB183FF1FB283FF1FAF83FF1F80B485B000AF0346FB710A4B1B78DBB223F00103FB730749FB7903F00103DAB2FB7B1343DBB20B70CD
:401EC00000BF1437BD4680BC704700BF2051004080B400AF054B1B78DBB203F00803DB08DBB21846BD4680BC704700BF2151004080B500AF064B1B78002B04D100F00AF832
:401F0000034B01221A7000F023F800BF80BD00BFB483FF1F80B500AF09490220FFF7F6FB07210220FFF71AFC064B06221A70064B47221A70054B02221A7000BF80BD00BFF6
:401F40005520000029640040396400408864004080B582B000AF00F0EEF80346FB710C4A0B4B1B78DBB243F01003DBB21370094B04221A60084B04221A6000F0A3F8FB796D
:401F8000184600F0DCF800BF0837BD4680BD00BF9864004080E200E000E100E080B485B000AF0346FB71254B1B78FB73244B1B78BB73FA7BBB7B9A4208D2FA7BBB7B013B0D
:401FC0009A420CBF01230023DBB207E0FA7BBB7BD31A042B0CBF01230023DBB2002BE2D1BA7BFB7B9A420AD1164B1B78DBB203F00403002B03D1144AFB79137018E0FB7B9C
:40200000042B01D90023FB73FB7B1049FA79CA54FB7B0133FB73094AFB7B1370094B1B78DBB203F00203002B02D0094B04221A6000BF1437BD4680BC704700BFB683FF1FCF
:40204000B583FF1F6864004048640040188AFF1F00E200E080B400AF17E0154B1B78DBB2042B02D9124B00221A70124B104A1278D2B21146104A525CD2B21A700C4B1B7807
:40208000DBB20133DAB20A4B1A70094B1B78DAB20A4B1B789A4206D0094B1B78DBB203F00403002BD9D000BFBD4680BC704700BFB583FF1F48640040188AFF1FB683FF1FD8
:4020C0006864004080B400AF094A094B1B78DBB243F00103DBB21370064A064B1B78DBB243F00103DBB2137000BFBD4680BC7047A2430040B2430040142816D902B40121C9
:4021000014381049097811F0C001890904B40E4A515C04BC00BF00BF00BF8841FDD500BF00BF02BC704700BF00BF70F10400FCD570470B050709EFF3108072B6704780F38E
:40214000108870470048004032210000014B1868704700BF7C83FF1F0E4B70B51E460E4C0025E41AA410A54204D056F8253098470135F8E700F0C6F8084B094C1E46E41AB9
:40218000A4100025A54204D056F8253098470135F8E770BD1023000010230000102300001823000010B5431E0A44914204D011F8014B03F8014FF8E710BD0000000000008C
:4021C0002800000030000000380000004000000048000000480000004800000048000000A083FF1FA083FF1FA083FF1FA083FF1FA083FF1FA083FF1FA083FF1FA083FF1FE7
:40220000A083FF1FA083FF1FA083FF1FA083FF1FA083FF1FA083FF1FA083FF1F00000048080000481000004818000048280000483400004840000048CC050048EC050048C1
:40224000200000484C000048CC0000484C010048CC0100484C020048CC0200484C030048CC0300484C040048CC0400484C0500480C0600481C0600482C060048AC060048C9
:402280002C070048AC0700482C080048AC0800482C090048AC0900482C0A0048AC0A00482C0B0048AC0B00482C0C0048AC0C00482C0D0048AC0D00482C0E0048AC0E004836
:4022C0002C0F0048AC0F00482C100048AC1000482C110048AC1100482C120048AC1200482C130048AC1300482C140048AC1400482C150048AC1500482C160048AC16004876
:4023000043000000F8B500BFF8BC08BC9E467047F502000079140000F8B500BFF8BC08BC9E467047D102000038230000C880FF1FB8020000A0060000000000000A000000DA
:40234000204553544143494F4E20444520534552564943494F2000002020202050525545424153204D455053414E20202020000020202054656C3A2028353729313233343E
:4023800035362020202000002020204E49543A203930302E3132332E343536202020000046656368612020202020203A20000000486F7261202020202020203A200000004E
:4023C000506C6163612020202020203A200000004B696C6F6D657472616A653A200000005469706F202020202020203A20000000506F736963696F6E2020203A200000003D
:4024000050726F647563746F2020203A2000000050707520202020202020203A20000000566F6C756D656E202020203A2000000044696E65726F20202020203A20000000E8
:40244000436F6E736563757469766F3A2000000053616C646F2020202020203A20000000456D7072657361202020203A200000004375656E746120202020203A2000000062
:4024800053657269616C20202020203A200000005469706F204375656E74613A2000000056697369746173204469613A20000000566973697461732053656D3A200000005F
:4024C00056697369746173204D65733A20000000566F6C756D656E204469613A20000000566F6C756D656E2053656D3A20000000566F6C756D656E204D65733A20000000E2
:4025000044696E65726F20446961203A2000000044696E65726F2053656D203A2000000044696E65726F204D6573203A2000000056616C6F722050726F672E3A200000000E
:402540004669726D612020202020203A20000000436564756C6120202020203A20000000240000002A2A2A2A2A2A2A2A2A2A2A2A2A2A2A2A2A2A2A2A2A2A2A2A00366E0151
:40258000C05D0000180000000000E02E00000000000000000000000000000000000000000000000000000000000000000023000000000000000000000000000000000000B5
:4025C00000000000000000000000000000000000000000000000000000000000000000000000000000000000000000001C83FF1F000000000000000000000000000000001E
:40260000000000000000000000000000000000000000000000000000000000000000000000000000000000000000000000000000000000000000000000000000000000009A
:40264000000000000000000000000000000000000000000000000000000000000000000000000000000000000000000000000000000000000000000000000000000000005A
:40268000000000000000000000000000000000000000000000000000000000000000000000000000000000000000000000000000000000000000000000000000000000001A
:4026C00000000000000000000000000000000000000000000000000000000000000000000000000000000000000000000000000000000000000000000000000000000000DA
:020000040003F7
:0200000480007A
:400000008000000040000000000000000D000000800000000000000020200000100000003F00000000000000003000000000000000008D00008000000000000000004B005C
:40004000008000000000000000004B0000000000000000000000000000000000000000000000000000000000000000000000000000000000000000000000000000000000B5
:40008000000000000008000000000004000000000000000000000000000000000000000000000000000400000000000100000000000000000000000000000000000000002F
:4000C000000000000000000000000000000408007301041880020000000035000080000003E014100060008873480C80008000604A0014000000000000A00000100160F8B0
:4001000080040F020800800000001551140200000000CB0E1CFFFFFF0000F0440C000000010004000404040400000001000000000000C000000040020000000000000000DC
:40014000000000000000000000000000000000000F0000000000000100000B0200000000000004000C000200040009020F00000000000000200000000400100120011000CC
:40018000070008020000200000000141030000000040000000FF07FF4020F0050800000000000000040404000100000140A8402000000000000000000000000000000000D1
:4001C000000000000000000000000000004F00002600591000030004370048200000100051002010590626097F4600090401004E02040002064F00000000794F400830306E
:4002000007070E400000A820000000042506040003000C0E14FFFFFF62A0F0410C0000000000021304040404222200010000000000004002001030100010101200000000CC
:4002400000000000000000000000000000002800D100244C000000000000000800200003A84C1513D1112C0E02005400001100460000000000000000000000000300344A84
:400280000C0FC0308280282800004000010000000000040000FF07FF4020F0050800000000000000040404000202000140A8402000000000000000000000000000000000E1
:4002C0000000000000000000000000002400410501030E04712088000000000800000040C343302C502300540000800002000100B0004700007A80044000037880007F1FA3
:4003000000000060000020880000010024030000000B00EC31FFFFFF0000F0440C000000010000000404040422220001000000000000C000000040020000000000000000D0
:400340000000000000000000000000000000000014050A4A201F000000080314000004001F1200091F1F00001400090020000000200000200400002000000000101C08035E
:4003800007202040080020000000011000000000000000000000000000000000000000001C000400040400042220000100000000000000000000000000000000000000000E
:4003C000000000000000000000000000000000002400410081000E010000000002000100300047004300300050000002400003000000000000000000710008010000800389
:400400007F00000300008000000004440000000000000000000000000000000000000000000000000404000001000001000000000000000000000000000000000000000068
:400440000000000000000000000000007F06000959262619100000000000000F0021791E060400022600590037034804043F000002000000513F20000000000040073008D4
:4004800007200E100080A8020000001024010300060EC00009FFFFFF62A0F0410C000000000002110404040411110001000000000000400200103010001010120000000072
:4004C00000000000000000000000000000000020001F00000000000000400000000000000014000A000000200002000500000000011F0000010000000109001201200018C2
:40050000004000070000000000000011030000000000040000FF07FF4020F005080000001C000400040404041111000140A84020000000000000000000000000000000005F
:4005400000000000000000000000000000006500000098402300D400000000009A0864502301CC00030004030002000000000800007500020076000100230044E040500C1C
:400580001F30000300282A80000000112403000000E000BC32FFFFFF0000F0440C000000010000000404040411110001000000000000C0000000400200000000000000009E
:4005C0000000000000000000000000000000000000000000000000000000000000000000000000000F0072000F3C000000000000000000000000000000000000000000002F
:400600000000000000723C0F0000000002000000000000000000000002000000070000000000000000000000070004000000000000000000000000000000000000000000E7
:400640000000000000000000000000000000000000000000000000010000000000000000002000000000000000000000000000000000000000000000000000000000000059
:400680000000000000000000000000000000000000000000000000000000020000000000000000000000000000000000000000000000000000200000000000000000000018
:4006C00000000000000000000000000000000000000000000000000000000000000000000000000000000000000000000000000000000000000000000000000000000000FA
:4007000000000000000000000000000100000000000000000000000000000000000000000800000000000000000000000000000000000000000000000000000000000000B0
:40074000000000000000000000000000080000000000000000000000000000000000000004000000000000000000000000000200000000000000000000000000000000006B
:400780000000010000000000000004000000000000000000080000000000000000000000000000000000000000000000000000000800000000000000000000000000000024
:4007C00008000000000000000000000000000000000000000000000000000000000000000100000000000000000000000000000000000000000000000000000000000000F0
:4008000000000000000000000000000000000000000000000000000000000800000000000000000000000000000000000100000000000000000000000000000000000000AF
:400840000000000000000000000000000000000000000000000000000000000000000000000000000000000000000000000000000000000000000000000000000000000078
:400880000000000000000000000000000000000000000000000000000000000000000000000000000000000000000000000000000000000000000000000000000000000038
:4008C00008000000000000000000000000000000000000000000000000000000100000000000000000000000000000000800000000000000000000000000000000000000D8
:400900000000000000000000000000000000000000000000000000000000010000000000000000000000000000000000200000000000000000000000000000000000000096
:400940000000000000000000000000000000000000000000000000000000000000000000000000000000000000000000000000000000000000000000000000000400000073
:400980000000000000000000000000000000000000000000000000000000000000000000000000000000000000000000000000000000000000000000000000000000000037
:4009C00000000000000000000000000000000000000000000000000000000000000000000000000000000000000000000200000000000000000000000000000000000000F5
:400A00000400000000000000000000000000000000000000000000000000000000000000000000000000000000000000000000000012001000000000010800080054040027
:400A400000004000000040000038001620008A080000409400800400010000162000880000024411800400010000000800000004002800010002000040010000000040004B
:400A80000000000500010800200100888200000400000000000000000000000000000000000000000000000000000000000000000000020400000000200000040054080172
:400AC000000040000281000081004010200004001028C001000010000000000000000000008101000000000000000000700070001700000000007A00FE004B00E200000017
:400B00000000F3000D0000000000000000000000000000000100100000000000000000000000000000000000000000000000000000000000000000000000000000000000A4
:400B40000000000000000000000000000000000000000000000000000000000000000000000000000000000000000000000000000000000000000000000000000000000075
:400B80000000000000000000000000000000000000000000000010000000000000000000000000000000000000000000000000A800100010000042140028800280000808CD
:400BC00001004000002106280010188000011401008008004020008000800000008001080000800048020004200000006000448000000000200008000000000010000000EC
:400C00000000000000002000000000000000000000000000005400000000000080000018000000000000000000000000800000000000000000000000000000000800000020
:400C400060000200220000004000010000010000000000200000040100000000000000000000000000000000000000006E00FF009E000000000015001B002B000F00040010
:400C80000000040000000000000000000000000000000000100000000000000000000000000000000000000000000000000000000000000000000000000000000000000020
:400CC00000000000000000000000000000000000000000000000000000000000000000000000000000000000000000000000000000000000000000000000000000000000F4
:400D0000000000000000000000000000000000000000010010000000000000000000000000000000000000000000000040000020820004600202260000802020440001002D
:400D4000000000040840240100884840000280000045000800400000000080400000400000010064208000000008120000080000008040214001000000000000400040001A
:400D80000000841000000000000068010000000000000040000000000000000000000000000000000000000000000000000000000040004120400000000000000280900003
:400DC0000000008004000224000000090000000040008000000000000000000080010010090004040000000000000000F500A7002B00000000009800F800EC00B2000000E9
:400E00000000F00080000000000000000200000000000000000000000000000000000000000000000000000000000000000000000000000000000000000000000000000040
:400E40000000000000000000000000000000000000000000000000000000000000000000000000000000000000000000000000000000000000000000000000000000000072
:400E80000000000000000000000000000000000000000A00000000000000000000000000000000000000000000000000000001200400900082080400000028018200001426
:400EC000000000000015054004802001500850000200002400940140000000404800100000000025100A0040800000080008440000800000028000200000000100400008FA
:400F0000004000000002C0000020200000000000000000002020000200000000800000140000000000000000000000000000000000000000400004204A0400000008186067
:400F400000200503048282000821140A00000400204080088000000000000000040000000000000000000000000000003500EF000F00000000008F00EE005F0017000C0058
:400F80000000010000000000000000000000000000000000000000000000000000000000000000000000000000000000000000000000000000000000000000000000000030
:400FC00000000000000000000000000000000000000000000000000000000000000000000000000000000000000000000000000000000000000000000000000000000000F1
:40100000000000000000000000000000000000000000000000000000000001000000000000000000000000000000000014800000002480000000852040080005200004025F
:4010400000501801048A0800000450100024484000080421000800080020800120000800000000251021064000C0180100000000400010240000000000000004000000006E
:4010800000000A00080100000011400880208000000000000000000000000000000000000000000000000000000000000000000000000000000000000000000000000000A4
:4010C00000000000000000000000000000000000000000000000000000000000000000000000000000000000000000007700EF00FE00000000003600E600FE00E000000092
:401100000000F3000D0000000000000000000000000000000000000000000000000000000000000000000000000000000000000000000000000000000000000000000000AF
:40114000000000000000000000000000000000000000000000000020000000200000000000000000000000000000000000000000000000000000000000000000000000002F
:40118000000000000000000000000000000000000000000000000000000000000000000000000000000000000000000000000000000000000000000000000000000000002F
:4011C00000000000000000000000000000000000000000200000000000000000000000000000000000000000000000000000000000000000000000000000000000000000CF
:4012000000000000000000000000000000000000000000000000000000000000000000000000000000000000000000000000000000000000000000000000000000000000AE
:40124000000000000000000000000000000000000000000000000000000000000000000000000000000000000000000000000000000000000000000000000000000000006E
:40128000000000000000000000000002000000000000000000000000000000000000000000000000000000000000000000000000000000000000000000000000000000002C
:4012C00000000000000000020000000000000000000000000000000000000000000000000000000200000000000000000000000000000000000000000000000000000000EA
:4013000000008000000000000000000000000000000000000000000000000000000000000000000000000000000000000000400000000000000000000000000000000000ED
:4013400000008000000000000000000000000000000000000000000000000000000000001000000000000000000000000000000000000000000000000000000000000000DD
:4013800000000000000000000000000000000000000080000000000000000000000000000000000000000000000000000000000000000000000000000000000000000000AD
:4013C00000000000100000000000000000000000000000000000000000000000000000000000000000000000000000000000000000000000000000000000000000000000DD
:401400000000000000000000000000000800000000000000000000000000000000000000000000000000000000000000000000000800000800000000000000000000000094
:4014400000008000000000000000000000000000000000080000000000000000000000000000000000000000000000000000000000001000000000000000000000000000D4
:40148000000000004000000000000000000000000000500000000000000000000000000000000000000000000000000000000000000000000000000000000000000000009C
:4014C00000000000000000000000000000000000000000000000000000000000000000000000000000000000000000000000000000000000000000000000000000000000EC
:40150000000000000000000400000004000000040000000000000000000000000000000000000000000000000000000000000000000000000000000000000000000000049B
:4015400000008000000000040000000000000000000000080020000000000000000000000000000000000000000000000000000000000000000000000000000000000000BF
:401580000000C000400000000000000000000000000000000000000000008000000000000000000000000000000000000000000000000000000000000000000000000004A7
:4015C0000000800000000004002000000000000000000008000000040000000400000000000000000000000000000000000000000000000000000000000000000000000037
:4016000000000000000000000000000000000000000000000000C00000000000000000000000000000000000000000000000000000000000000000000000000000000000EA
:401640000000000000000000000000000000000000000000000000000000000000004008002000000000000000000000000000000000000000000000000000000000000002
:40168000000000000000000000000000000000000000000000000000000000000000000000000000000000000000000000000000000000000000000000000000000000002A
:4016C000000000000000000000000000000000000000000000000000000000000000000000000000000000000000000000000000000000000000000070000000000000007A
:4017000000000000000000000000000000000000000000000000000000000000000000000000000000000000000000002000102020002000000000008000408B8B008000C3
:40174000000000000500000F020002000000000080000080800080000000000000000000000000000000000000000000000000000000000000000000000000000000000051
:401780000000000000000000000000000000000000000000000000000000000000000000000000000000000000000000000000000000000000000000000000000000000029
:4017C00000000000000000000000000000000000000000000000000000000000000000000000000000000000000000000000000000000000000000000000000000000000E9
:4018000000000000000000000000000000000000000000000000000000000000000000000000000000000000000000000000000000000000000000000000000000000000A8
:401840000000000000000000000000000000000000000000000000000000000000000000000000000000000000000000000000000000000000000000000000000000000068
:0200000490006A
:0400000000004005B7
:0200000490105A
:04000000BC90ACAF55
:0200000490303A
:020000005D7829
:0200000490402A
:4000000000000000000000000000000000000000000000000000000000000000000000000000000000000000000000000000000000000000000000000000000000000000C0
:400040000000000000000000000000000000000000000000000000000000000000000000000000000000000000000000000000000000000000000000000000000000000080
:400080000000000000000000000000000000000000000000000000000000000000000000000000000000000000000000000000000000000000000000000000000000000040
:4000C0000000000000000000000000000000000000000000000000000000000000000000000000000000000000000000000000000000000000000000000000000000000000
:0200000490501A
:0C00000000012E16106900012E246DE195
:00000001FF