:400000000080002011000000E9500000E950000080B500AF024A034B1B68136005F06EF8BC760040FA46004001000000002000400100000000200140010000000048004090
:400040000100000000480140010000000100000008000223000008760800032300001076080004230000287608000523000030760500062300002070050007230000307065
:4000800005000823000060700500FE230000707010000A220000005130000B22000040511000FE220000C05180030D220000000080000E220000800480010F2200000006E0
:4000C00080001022000000410001112200000044800012220000004780001322000000488000FE220000004D070015230000085207001623000010520700172300001852CA
:4001000007001823000078520C0019230000004F0C001A2300000C4F0C001B230000184F20001C23000070642000FE230000706508001E230000005180001F23000000041E
:4001400080002023000000088000212300008008800022230000000A800023230000800A800024230000000C800025230000800C800026230000000E800027230000800EF3
:400180008000282300000014800029230000801480002A230000001680002B230000801680002C230000001880002D230000801880002E230000001A80002F230000801A13
:4001C00010003023000010501000312300000050800032230000804D800033230000004C800034230000804C800035230000804780003623000000468000372300008046C3
:400200008000382300000045800039230000804580003A230000001B80003B230000801B80003C230000001580003D230000801580003E230000001980003F2300008019AE
:4002400080004023000000178000412300008017800042230000000980004323000080098000442300008007800045230000000B800046230000800B8000472300000005E8
:400280008000482300008005800049230000000D80004A230000800D80004B230000800380004C230000000F80004D230000800F80004E230000004980004F230000804978
:4002C00080005023000080488000512300000043800052230000804380005323000000428000542300008042800055230000804180005623000000408000FE230000804010
:4003000010B5054C237833B9044B13B10448AFF300800123237010BD2084FF1F00000000DC690000084B10B51BB108490848AFF300800848036803B910BD074B002BFBD0E1
:40034000BDE81040184700BF000000002484FF1FDC690000C880FF1F0000000090B583B000AF684B1B78FF2B07D0664B93F82B31FF2B02D1644B01221A70624B1B78FF2B30
:4003800007D0604B93F82B31FF2B02D05E4B02221A705C4B93F85632FF2B07D0594B93F88133FF2B02D1584B03221A70554B93F85632FF2B07D0534B93F88133FF2B02D007
:4003C000514B04221A70504B1B78012B09D14D4B1B78184602F0E0FD03461A46494B83F84C20494B1B78022B14D1464B1B78184602F0D2FD03461A46424B83F84C20414BDC
:4004000093F82B31184602F0C7FD03461A463D4B83F877213C4B1B78032B2ED10023FB7128E0FC79374B1B78184602F0B5FD03461A46344B234483F84C20FC79314B93F821
:400440002B31184602F0A8FD03461A462D4B234483F87721FC792B4B93F85632184602F09BFD03461A46274B234483F8A222FB790133FB71FB79042BD3D9234B1B78042B56
:400480003BD10023FB7135E0FC791E4B1B78184602F082FD03461A461A4B234483F84C20FC79184B93F82B31184602F075FD03461A46144B234483F87721FC79114B93F891
:4004C0005632184602F068FD03461A460D4B234483F8A222FC790B4B93F88133184602F05BFD03461A46074B234483F8CD23FB790133FB71FB79042BC6D900BF0C37BD463E
:4005000090BD00BF7484FF1FA689FF1F90B58FB000AF874A07F11C0310681860854A07F11403106818609188927999809A71824A07F10C03106818609188927999809A7120
:400540007E4B03221A7004F06DFE62B604F0BCFF05F056FA05F04EFB05F050FC05F084FE002005F011FF03465A2B19D1002387F8373010E097F8374097F837309BB2184625
:4005800005F002FF03461A466D4B1A5597F83730013387F8373097F83730052BEAD915E000215A2005F066FE012387F8373009E097F83730624A3021D15497F8373001335E
:4005C00087F8373097F83730052BF1D95C4B5B7903F00F03DBB21B01DAB2594B1B7903F00F03DBB219469B00CB1ADB00DBB21344DAB2534B9B7803F00F03DBB21946890051
:400600000B445B00D9B24E4BDB7803F00F03DBB2184680000344184684001846234603449B00DBB20B44DBB21344DAB2444B5B7803F00F03DBB21344DAB2424B1A700620F7
:4006400005F0A2FE03465A2B1CD1002387F8373013E097F837309C1D97F837309BB206339BB2184605F090FE03461A46364B1A5597F83730013387F8373097F83730052B06
:40068000E7D916E006215A2005F0F4FD012387F837300AE097F8373006332B4A3021D15497F83730013387F8373097F83730052BF0D9254B5B7903F00F03DBB21B01DAB272
:4006C000214B1B7903F00F03DBB219469B00CB1ADB00DBB21344DAB21B4B9B7803F00F03DBB2194689000B445B00D9B2164BDB7803F00F03DBB218468000034418468400C9
:400700001846234603449B00DBB20B44DBB21344DAB20D4B5B7803F00F03DBB21344DAB20A4B1A7005F028F9002387F8373094E0E0690000E4690000EC6900006689FF1FBA
:400740006C84FF1FA789FF1F9C89FF1FA289FF1F97F8374097F837309BB20C339BB2184605F012FE03461A46C64B234483F8292097F8374097F837309BB20F339BB218463E
:4007800005F002FE03461A46BE4B234483F82C2097F8374097F837309BB212339BB2184605F0F2FD03461A46B64B234483F82F2097F8374097F837309BB215339BB2184630
:4007C00005F0E2FD03461A46AE4B234483F8322097F8374097F837309BB218339BB2184605F0D2FD03461A46A64B234483F8542197F8374097F837309BB21B339BB2184619
:4008000005F0C2FD03461A469E4B234483F8572197F8374097F837309BB21E339BB2184605F0B2FD03461A46964B234483F85A2197F8374097F837309BB221339BB2184600
:4008400005F0A2FD03461A468E4B234483F85D2197F83730013387F8373097F83730022B7FF676AF874B93F829301B09DBB23033DAB2844B83F80B21824B93F8293003F0C5
:400880000F03DBB23033DAB27E4B83F80C217D4B93F82A301B09DBB23033DAB2794B83F80D21784B93F82A3003F00F03DBB23033DAB2744B83F80E21724B93F82B301B0926
:4008C000DBB23033DAB26F4B83F80F216D4B93F82B3003F00F03DBB23033DAB2694B83F81021684B93F854311B09DBB23033DAB2644B83F83622634B93F8543103F00F03F0
:40090000DBB23033DAB25F4B83F837225D4B93F855311B09DBB23033DAB25A4B83F83822584B93F8553103F00F03DBB23033DAB2544B83F83922534B93F856311B09DBB2DF
:400940003033DAB24F4B83F83A224E4B93F8563103F00F03DBB23033DAB24A4B83F83B22002387F833300FE097F8334097F83330184602F04BFA03461A46434B1A5597F8CC
:400980003330013387F8333097F833300F2BEBD93D4B5A783B4B1A703B4B9A78394B83F82B21394BDA78374B83F85622364B1A79344B83F88123334B00221A70314B0122BB
:4009C00083F82B21314B00221A70002387F836302F4B00221A70FFF7C1FC05F0DBFA034687F8203097F82030042B16D9002387F832300CE097F8324005F084FA03461A463B
:400A0000244B1A5597F83230013387F8323097F8322097F820309A42ECD3042004F0D2FC1C4B1B7A1C2B25D01C2B05DC0A2B58D00B2B00F0A78048E1CA2B3CD0CC2B00F076
:400A4000F780AA2B40F04181012387F83630002387F8313009E097F831300E4A0021D15497F83130013387F8313097F83130132BF1D917E3022387F83630002387F83030B3
:400A800014E000BF7484FF1F2489FF1FA389FF1FA489FF1FAC89FF1F97F83030C84A0021D15497F83030013387F8303097F83030132BF1D9F6E2032387F83630002387F8F5
:400AC0002F3009E097F82F30BD4A0021D15497F82F30013387F82F3097F82F30132BF1D9E0E297F83630012B1FD1002387F83630B44B1B78B449184602F010FBB14B1B7829
:400B0000184602F0DBF9002387F82E3009E097F82E30AB4A0021D15497F82E30013387F82E3097F82E30132BF1D997F83630022B40F0B3820A2387F83630A24B1B78184616
:400B400002F02AFA9F4B1878A04B1B780122194602F06EFB9B4B1B78184602F01DFA002387F82D3009E097F82D30954A0021D15497F82D30013387F82D3097F82D30132B8B
:400B8000F1D98AE297F83630012B21D1002387F836308C4B93F82B318D49184602F0BEFA884B93F82B31184602F088F9002387F82C3009E097F82C30814A0021D15497F84B
:400BC0002C30013387F82C3097F82C30132BF1D997F83630022B40F062820B2387F83630784B93F82B31184602F0D6F9754B93F82B01764B1B780122194602F019FB714B76
:400C000093F82B31184602F0C7F9002387F82B3009E097F82B306A4A0021D15497F82B30013387F82B3097F82B30132BF1D936E2644B93F82B31184602F0AEF9614B93F82D
:400C40002B01624B1B780122194602F0F1FA0A2004F0B8FB5B4B93F82B31184602F09CF9584B1B78184602F097F9564B1878574B1B780122194602F0DBFA0A2004F0A2FBE6
:400C8000504B1B78184602F087F94E4B93F82B31184602F081F94B4B1B78184602F07CF9002387F82A3009E097F82A30444A0021D15497F82A30013387F82A3097F82A307D
:400CC000132BF1D903F0C6FAECE13D4BDB78832B40F0E78097F834300A2B40F0E280384B1B7AE12B00F0DD80002387F829300BE097F82930334A1344302283F80B2197F8F7
:400D00002930013387F8293097F82930052BEFD9002387F835302F4B00221A70002387F83430072387F8283021E097F82830244AD35C002B1FD097F82830214AD35CFF2BF0
:400D400019D097F82830073B97F828201C498A5C07F138010B4403F8342C97F83530013387F8353097F82830013387F8283097F828300B2BD9D9062387F837301BE097F8FE
:400D8000373097F8352007F138010A4412F8341C0C4A13440A4683F80B2197F83530002B1AD097F83530013B87F8353097F83730013B87F8373097F83730002BDFD10CE079
:400DC000AC89FF1F7484FF1F9D84FF1FA389FF1FC885FF1FA489FF1F00BFB44B93F80B31303B1B015AB2B14B93F80C31303BDBB25BB213435BB2DAB2AC4B83F82920AB4BCA
:400E000093F80D31303B1B015AB2A84B93F80E31303BDBB25BB213435BB2DAB2A34B83F82A20A24B93F80F31303B1B015AB29F4B93F81031303BDBB25BB213435BB2DAB2FD
:400E40009A4B83F82B20002387F8373013E097F83730964A134493F8292097F837309BB20C339BB21946104605F004FA97F83730013387F8373097F83730022BE7D900233D
:400E800087F8273009E097F82730894A0021D15497F82730013387F8273097F82730132BF1D9834BDB78832B0AD197F83430012B06D17F4B1A7A7F4B1A700A2387F8343034
:400EC0007B4BDB78832B58D197F83630032B54D1002387F83630764BDA793B7F9A422CD1734B1A7A7B7F9A4227D1714B5A7ABB7F9A4222D16E4B9A7AFB7F9A421DD16C4B8A
:400F0000DB7AFF2B19D1002387F826300EE097F8263007F13802134413F8243C184605F081F897F82630013387F8263097F82630052BECD9042004F045FA5D4B1B7A012B35
:400F400002D1012387F83430594B1B7A022B02D1022387F83430002387F8253009E097F82530534A0021D15497F82530013387F8253097F82530132BF1D94D4BDB78832B3E
:400F800042D197F836300A2B3ED1002387F83630072387F824301CE097F82430444AD35C002B1AD097F82430414AD35CFF2B14D097F82430073B97F824203D49895C3B4A9C
:400FC00013440A4683F8232197F82430013387F8243097F824300E2BDED9002387F8233009E097F82330324A0021D15497F82330013387F8233097F82330132BF1D92B4B04
:401000001B78184602F09AF9294BDB78832B48D197F836300B2B44D1002387F83630072387F822301CE097F82230214AD35C002B1AD097F822301E4AD35CFF2B14D097F8C8
:401040002230073B97F822201949895C174A13440A4683F84E2297F82230013387F8223097F822300E2BDED9002387F8213009E097F821300E4A0021D15497F821300133AC
:4010800087F8213097F82130132BF1D9074B93F82B31184602F052F903E000BF02E000BF00E000BF002387F8203094E47484FF1FAC89FF1FA489FF1F80B489B000AF7860B0
:4010C0000B467B800023FB830023BB617B68002B2FD1002368E0FB8BDB0B9BB2BB60FB8B5B00FB837B681B781A46BB6942FA03F31BB203F001031AB2B7F91E3013431BB23B
:40110000FB83BB690133BB61BB69072B07DD0023BB617B6801337B607B88013B7B80BB68002B06D0FB8B83F4FF4383F07A03DB43FB837B88002BCED100237B6113E0FB8BE4
:40114000DB0B9BB2BB60FB8B5B00FB83BB68002B06D0FB8B83F4FF4383F07A03DB43FB837B6901337B617B690F2BE8DD00237B824FF400437B610123FB6011E0FA8B7B69A1
:401180001340002B06D0FB681AB2B7F9123013431BB27B827B695B107B61FB685B00FB607B69002BEAD17B8A18462437BD4680BC704700BFF0B587B000AF164B1B787B71AE
:4011C000144B5B7803F00F033B71134B1B783A799A4240F0B3830123FB750CE0FB7D013BFA7D0C49895C0C4A13440A4683F85120FB7D0133FB75FA7D7B7901339A42EDDBF9
:40120000054B93F85330652B40F07F820523BB7525E000BF3489FF1F7484FF1FCD4B93F8553003F00F03591ECB4B1B781D46BB7D581FBB7DC74A134493F85160C54C2A46C6
:4012400092002A440B469B000B445B00134423440344013332461A70BB7D0133BB75BA7DBC4B93F8543004339A42D7DBB94B93F8553003F00F03591EB74B1B781D46B54B67
:4012800093F8553003F00F03581EB34B1B78B14C1A4692001A4403469B0003445B001344234401331B781B09DBB23033DCB2A9482A4692002A4453001A460B461B015B1A22
:4012C0005B0013440344833322461A70A14B93F8553003F00F03591E9F4B1B781D469D4B93F8553003F00F03581E9B4B1B78994C1A4692001A4403469B0003445B001344F7
:40130000234401331B7803F00F03DBB23033DCB290482A4692002A4453001A460B461B015B1A5B0013440344843322461A70894B93F8553003F00F03591E874B1B781D4655
:40134000844B93F8553003F00F03581E824B1B78804C1A4692001A4403469B0003445B001344234402331B781B09DBB23033DCB278482A4692002A4453001A460B461B0199
:401380005B1A5B0013440344853322461A70714B93F8553003F00F03591E6F4B1B781D466C4B93F8553003F00F03581E6A4B1B78684C1A4692001A4403469B0003445B0009
:4013C0001344234402331B7803F00F03DBB23033DCB260482A4692002A4453001A460B461B015B1A5B0013440344863322461A70584B93F8553003F00F03591E564B1B7830
:401400001D46544B93F8553003F00F03581E524B1B78504C1A4692001A4403469B0003445B001344234403331B781B09DBB23033DCB248482A4692002A4453001A460B4650
:401440001B015B1A5B0013440344873322461A70404B93F8553003F00F03591E3E4B1B781D463C4B93F8553003F00F03581E3A4B1B78384C1A4692001A4403469B00034477
:401480005B001344234403331B7803F00F03DBB23033DCB22F482A4692002A4453001A460B461B015B1A5B0013440344883322461A70284B93F8553003F00F03591E264B35
:4014C0001B781D46234B93F8553003F00F03581E214B1B781F4C1A4692001A4403469B0003445B001344234404331B781B09DBB23033DCB217482A4692002A4453001A4611
:401500000B461B015B1A5B0013440344893322461A70104B93F8553003F00F03591E0E4B1B781D460B4B93F8553003F00F03581E094B1B78074C1A4692001A4403469B009D
:4015400003445B001344234404331B7803F00F03DBB203E07484FF1FA389FF1F3033DCB2B8482A4692002A4453001A460B461B015B1A5B00134403448A3322461A70B14BD2
:4015800093F8553003F00F03591EAF4B1B781D46AC4B93F8553003F00F03581EAA4B1B78A84C1A4692001A4403469B0003445B001344234405331B781B09DBB23033DCB2B0
:4015C000A0482A4692002A4453001A460B461B015B1A5B00134403448B3322461A70994B93F8553003F00F03591E974B1B781D46944B93F8553003F00F03581E924B1B7833
:40160000904C1A4692001A4403469B0003445B001344234405331B7803F00F03DBB23033DCB288482A4692002A4453001A460B461B015B1A5B00134403448C3322461A706D
:4016400000237B753AE07F4B93F8553003F00F03591E7D4B1B7897F915007A4C1A4692001A4453001A460B461B015B1A5B0013442344034483331B78302B24D1714B93F8FC
:40168000553003F00F03591E6F4B1B7897F915006C4C1A4692001A4453001A460B461B015B1A5B00134423440344833300221A7097F91530DBB20133DBB27B7597F91530F0
:4016C000072BC0DD00E000BF012004F077FA3B7943F05003DBB2184604F038F8594B93F852305BB203F00F035BB263F03F035BB2DBB2184604F02AF8FA2004F027F80420E9
:4017000003F060FE002004F059FA4E4B93F85330022B40F0138104233B751BE03B7D043B3A7D48490A4492F85110464A13440A4683F839203B7D043B3A7D043241490A4448
:4017400092F851103F4A13440A4683F835203B7D01333B753B7D072BE0D93A4B93F839301B09DBB23033DAB2364B83F80321354B93F8393003F00F03DBB23033DAB2314B95
:4017800083F804212F4B93F83A301B09DBB23033DAB22C4B83F805212A4B93F83A3003F00F03DBB23033DAB2264B83F80621254B93F83B301B09DBB23033DAB2214B83F877
:4017C0000721204B93F83B3003F00F03DBB23033DAB21C4B83F808211A4B93F83C301B09DBB23033DAB2174B83F80921154B93F83C3003F00F03DBB23033DAB2114B83F822
:401800000A210023FB7414E097F913300D4A134493F80331302B1BD197F91330094A1344002283F8032197F91330DBB20133DBB2FB7497F91320054B1B7801339A42E3DB2E
:4018400007E000BF7484FF1FA389FF1F6689FF1F00BF4D4B93F835301B09DBB23033DAB2494B83F8FB20484B93F8353003F00F03DBB23033DAB2444B83F8FC20424B93F802
:4018800036301B09DBB23033DAB23F4B83F8FD203D4B93F8363003F00F03DBB23033DAB2394B83F8FE20384B93F837301B09DBB23033DAB2344B83F8FF20334B93F837304B
:4018C00003F00F03DBB23033DAB22F4B83F800212D4B93F838301B09DBB23033DAB22A4B83F80121284B93F8383003F00F03DBB23033DAB2244B83F802210023BB7414E0FA
:4019000097F91230204A134493F8FB30302B11D197F912301C4A1344002283F8FB2097F91230DBB20133DBB2BB7497F91230072BE6DD00E000BF002004F040F9124B93F8F0
:401940002B313A799A4240F0C98301237B740CE07B7C013B7A7C0D49895C0B4A13440A4683F87C217B7C01337B747A7C7B7901339A42EDDB044B93F87E31652B40F096824C
:4019800005233B7426E000BF7484FF1F3489FF1FCD4B93F8803103F00F03591ECB4B1B781D463B7C581F3B7CC74A134493F87C61C54C2A4692002A440B469B000B445B00F2
:4019C00013442344034403F5967332461A703B7C01333B743A7CBC4B93F87F3104339A42D6DBB94B93F8803103F00F03591EB74B1B781D46B44B93F8803103F00F03581E1F
:401A0000B24B1B78B04C1A4692001A4403469B0003445B001344234403F596731B781B09DBB23033DCB2A8482A4692002A4453001A460B461B015B1A5B001344034403F56A
:401A4000D77322461A70A04B93F8803103F00F03591E9E4B1B781D469B4B93F8803103F00F03581E994B1B78974C1A4692001A4403469B0003445B001344234403F596731C
:401A80001B7803F00F03DBB23033DCB28E482A4692002A4453001A460B461B015B1A5B001344034403F2AF1322461A70864B93F8803103F00F03591E844B1B781D46824B78
:401AC00093F8803103F00F03581E804B1B787E4C1A4692001A4403469B0003445B001344234403F22D131B781B09DBB23033DCB275482A4692002A4453001A460B461B01BC
:401B00005B1A5B001344034403F5D87322461A706D4B93F8803103F00F03591E6B4B1B781D46694B93F8803103F00F03581E674B1B78654C1A4692001A4403469B0003440A
:401B40005B001344234403F22D131B7803F00F03DBB23033DCB25C482A4692002A4453001A460B461B015B1A5B001344034403F2B11322461A70544B93F8803103F00F03D4
:401B8000591E524B1B781D464F4B93F8803103F00F03581E4D4B1B784B4C1A4692001A4403469B0003445B001344234403F597731B781B09DBB23033DCB243482A469200B0
:401BC0002A4453001A460B461B015B1A5B001344034403F5D97322461A703B4B93F8803103F00F03591E394B1B781D46364B93F8803103F00F03581E344B1B78324C1A46D3
:401C000092001A4403469B0003445B001344234403F597731B7803F00F03DBB23033DCB229482A4692002A4453001A460B461B015B1A5B001344034403F2B31322461A703C
:401C4000214B93F8803103F00F03591E1F4B1B781D461D4B93F8803103F00F03581E1B4B1B78194C1A4692001A4403469B0003445B001344234403F22F131B781B09DBB254
:401C80003033DCB210482A4692002A4453001A460B461B015B1A5B001344034403F5DA7322461A70084B93F8803103F00F03591E064B1B781D46044B93F8803103F00F03C4
:401CC000581E024B1B7803E07484FF1FA389FF1FC44C1A4692001A4403469B0003445B001344234403F22F131B7803F00F03DBB23033DCB2BB482A4692002A4453001A4634
:401D00000B461B015B1A5B001344034403F2B51322461A70B34B93F8803103F00F03591EB14B1B781D46AF4B93F8803103F00F03581EAD4B1B78AB4C1A4692001A440346A5
:401D40009B0003445B001344234403F598731B781B09DBB23033DCB2A2482A4692002A4453001A460B461B015B1A5B001344034403F5DB7322461A709A4B93F8803103F0FC
:401D80000F03591E984B1B781D46964B93F8803103F00F03581E944B1B78924C1A4692001A4403469B0003445B001344234403F598731B7803F00F03DBB23033DCB289485B
:401DC0002A4692002A4453001A460B461B015B1A5B001344034403F2B71322461A700023FB733CE07F4B93F8803103F00F03591E7D4B1B7897F90F007A4C1A4692001A44F5
:401E000053001A460B461B015B1A5B0013442344034403F5D7731B78302B25D1714B93F8803103F00F03591E6F4B1B7897F90F006C4C1A4692001A4453001A460B461B01FF
:401E40005B1A5B0013442344034403F5D77300221A7097F90F30DBB20133DBB2FB7397F90F30072BBEDD00E000BF012003F0A6FE3B7943F05003DBB2184603F067FC594B02
:401E800093F87D315BB203F00F035BB263F03F035BB2DBB2184603F059FCFA2003F056FC042003F08FFA002003F088FE4D4B93F87E31022B40F012810423BB731BE0BB7B15
:401EC000043BBA7B47490A4492F87C11454A13440A4683F86421BB7B043BBA7B043241490A4492F87C113F4A13440A4683F86021BB7B0133BB73BB7B072BE0D9394B93F880
:401F000064311B09DBB23033DAB2364B83F82E22344B93F8643103F00F03DBB23033DAB2304B83F82F222F4B93F865311B09DBB23033DAB22B4B83F830222A4B93F86531A5
:401F400003F00F03DBB23033DAB2264B83F83122244B93F866311B09DBB23033DAB2214B83F832221F4B93F8663103F00F03DBB23033DAB21B4B83F833221A4B93F867316A
:401F80001B09DBB23033DAB2164B83F83422154B93F8673103F00F03DBB23033DAB2114B83F8352200237B7314E097F90D300D4A134493F82E32302B1AD197F90D30094A4C
:401FC0001344002283F82E2297F90D30DBB20133DBB27B7397F90D20044B1B7801339A42E3DB06E07484FF1FA389FF1F6689FF1F00BF4D4B93F860311B09DBB23033DAB2C1
:40200000494B83F82622484B93F8603103F00F03DBB23033DAB2444B83F82722424B93F861311B09DBB23033DAB23F4B83F828223D4B93F8613103F00F03DBB23033DAB207
:40204000394B83F82922384B93F862311B09DBB23033DAB2344B83F82A22334B93F8623103F00F03DBB23033DAB22F4B83F82B222D4B93F863311B09DBB23033DAB22A4B84
:4020800083F82C22284B93F8633103F00F03DBB23033DAB2244B83F82D2200233B7314E097F90C30204A134493F82632302B11D197F90C301C4A1344002283F8262297F99B
:4020C0000C30DBB20133DBB23B7397F90C30072BE6DD00E000BF002003F070FD124B93F856323A799A4240F03E830123FB720CE0FB7A013BFA7A0D49895C0B4A13440A46FF
:4021000083F8A722FB7A0133FB72FA7A7B7901339A42EDDB044B93F8A932652B40F050820523BB7226E000BF7484FF1F3489FF1FCD4B93F8AB3203F00F03591ECB4B1B780E
:402140001D46BB7A581FBB7AC74A134493F8A762C54C2A4692002A440B469B000B445B0013442344034403F2572332461A70BB7A0133BB72BA7ABC4B93F8AA3204339A4247
:40218000D6DBB94B93F8AB3203F00F03591EB74B1B781D46B44B93F8AB3203F00F03581EB24B1B78B04C1A4692001A4403469B0003445B001344234403F257231B781B0966
:4021C000DBB23033DCB2A8482A4692002A4453001A460B461B015B1A5B001344034403F2D92322461A70A04B93F8AB3203F00F03591E9E4B1B781D469B4B93F8AB3203F0A1
:402200000F03581E994B1B78974C1A4692001A4403469B0003445B001344234403F257231B7803F00F03DBB23033DCB28E482A4692002A4453001A460B461B015B1A5B006D
:402240001344034403F2DA2322461A70864B93F8AB3203F00F03591E844B1B781D46824B93F8AB3203F00F03581E804B1B787E4C1A4692001A4403469B0003445B0013445D
:40228000234403F516731B781B09DBB23033DCB275482A4692002A4453001A460B461B015B1A5B001344034403F2DB2322461A706D4B93F8AB3203F00F03591E6B4B1B787C
:4022C0001D46694B93F8AB3203F00F03581E674B1B78654C1A4692001A4403469B0003445B001344234403F516731B7803F00F03DBB23033DCB25C482A4692002A4453005C
:402300001A460B461B015B1A5B001344034403F5377322461A70544B93F8AB3203F00F03591E524B1B781D464F4B93F8AB3203F00F03581E4D4B1B784B4C1A4692001A4429
:4023400003469B0003445B001344234403F259231B781B09DBB23033DCB243482A4692002A4453001A460B461B015B1A5B001344034403F2DD2322461A703B4B93F8AB3215
:4023800003F00F03591E394B1B781D46364B93F8AB3203F00F03581E344B1B78324C1A4692001A4403469B0003445B001344234403F259231B7803F00F03DBB23033DCB218
:4023C00029482A4692002A4453001A460B461B015B1A5B001344034403F2DE2322461A70214B93F8AB3203F00F03591E1F4B1B781D461D4B93F8AB3203F00F03581E1B4B25
:402400001B78194C1A4692001A4403469B0003445B001344234403F25A231B781B09DBB23033DCB210482A4692002A4453001A460B461B015B1A5B001344034403F2DF231C
:4024400022461A70084B93F8AB3203F00F03591E064B1B781D46044B93F8AB3203F00F03581E024B1B7803E07484FF1FA389FF1FC24C1A4692001A4403469B0003445B00B3
:402480001344234403F25A231B7803F00F03DBB23033DCB2B9482A4692002A4453001A460B461B015B1A5B001344034403F5387322461A70B14B93F8AB3203F00F03591E62
:4024C000AF4B1B781D46AD4B93F8AB3203F00F03581EAB4B1B78A94C1A4692001A4403469B0003445B001344234403F25B231B781B09DBB23033DCB2A0482A4692002A44FF
:4025000053001A460B461B015B1A5B001344034403F2E12322461A70984B93F8AB3203F00F03591E964B1B781D46944B93F8AB3203F00F03581E924B1B78904C1A46920084
:402540001A4403469B0003445B001344234403F25B231B7803F00F03DBB23033DCB287482A4692002A4453001A460B461B015B1A5B001344034403F2E22322461A70012056
:4025800003F01CFB3B7943F05003DBB2184603F0DDF87A4B93F8A8325BB203F00F035BB263F03F035BB2DBB2184603F0CFF8FA2003F0CCF8042002F005FF002003F0FEFA9E
:4025C0006E4B93F8A932022B40F0CD8004237B721BE07B7A043B7A7A68490A4492F8A712664A13440A4683F88F227B7A043B7A7A043262490A4492F8A712604A13440A462B
:4026000083F88B227B7A01337B727B7A072BE0D95A4B93F88F321B09DBB23033DAB2574B83F85923554B93F88F3203F00F03DBB23033DAB2514B83F85A23504B93F8903269
:402640001B09DBB23033DAB24C4B83F85B234B4B93F8903203F00F03DBB23033DAB2474B83F85C23454B93F891321B09DBB23033DAB2424B83F85D23404B93F8913203F068
:402680000F03DBB23033DAB23C4B83F85E233B4B93F892321B09DBB23033DAB2374B83F85F23364B93F8923203F00F03DBB23033DAB2324B83F86023304B93F88B321B0962
:4026C000DBB23033DAB22D4B83F851232B4B93F88B3203F00F03DBB23033DAB2274B83F85223264B93F88C321B09DBB23033DAB2224B83F85323214B93F88C3203F00F03E4
:40270000DBB23033DAB21D4B83F854231B4B93F88D321B09DBB23033DAB2184B83F85523164B93F88D3203F00F03DBB23033DAB2124B83F85623114B93F88E321B09DBB248
:402740003033DAB20D4B83F857230C4B93F88E3203F00F03DBB23033DAB2084B83F85823002003F02BFA054B93F881333A799A4240F0438301233B7211E000BF7484FF1FCE
:40278000A389FF1F3B7A013B3A7A0C49895C0C4A13440A4683F8D2233B7A01333B723A7A7B7901339A42EDDB054B93F8D433652B40F050820523FB7126E000BF3489FF1FC5
:4027C0007484FF1FCD4B93F8D63303F00F03591ECB4B1B781D46FB79581FFB79C74A134493F8D263C54C2A4692002A440B469B000B445B0013442344034403F282333246CA
:402800001A70FB790133FB71FA79BC4B93F8D53304339A42D6DBB94B93F8D63303F00F03591EB74B1B781D46B44B93F8D63303F00F03581EB24B1B78B04C1A4692001A4433
:4028400003469B0003445B001344234403F282331B781B09DBB23033DCB2A8482A4692002A4453001A460B461B015B1A5B001344034403F2044322461A70A04B93F8D6339A
:4028800003F00F03591E9E4B1B781D469B4B93F8D63303F00F03581E994B1B78974C1A4692001A4403469B0003445B001344234403F282331B7803F00F03DBB23033DCB21A
:4028C0008E482A4692002A4453001A460B461B015B1A5B001344034403F2054322461A70864B93F8D63303F00F03591E844B1B781D46824B93F8D63303F00F03581E804B88
:402900001B787E4C1A4692001A4403469B0003445B001344234403F283331B781B09DBB23033DCB275482A4692002A4453001A460B461B015B1A5B001344034403F20643CD
:4029400022461A706D4B93F8D63303F00F03591E6B4B1B781D46694B93F8D63303F00F03581E674B1B78654C1A4692001A4403469B0003445B001344234403F283331B7866
:4029800003F00F03DBB23033DCB25C482A4692002A4453001A460B461B015B1A5B001344034403F2074322461A70544B93F8D63303F00F03591E524B1B781D464F4B93F85A
:4029C000D63303F00F03581E4D4B1B784B4C1A4692001A4403469B0003445B001344234403F561731B781B09DBB23033DCB243482A4692002A4453001A460B461B015B1A6C
:402A00005B001344034403F5816322461A703B4B93F8D63303F00F03591E394B1B781D46364B93F8D63303F00F03581E344B1B78324C1A4692001A4403469B0003445B00C9
:402A40001344234403F561731B7803F00F03DBB23033DCB229482A4692002A4453001A460B461B015B1A5B001344034403F2094322461A70214B93F8D63303F00F03591E98
:402A80001F4B1B781D461D4B93F8D63303F00F03581E1B4B1B78194C1A4692001A4403469B0003445B001344234403F285331B781B09DBB23033DCB210482A4692002A44A3
:402AC00053001A460B461B015B1A5B001344034403F20A4322461A70084B93F8D63303F00F03591E064B1B781D46044B93F8D63303F00F03581E024B1B7803E07484FF1F33
:402B0000A389FF1FBF4C1A4692001A4403469B0003445B001344234403F285331B7803F00F03DBB23033DCB2B6482A4692002A4453001A460B461B015B1A5B0013440344ED
:402B400003F20B4322461A70AE4B93F8D63303F00F03591EAC4B1B781D46AA4B93F8D63303F00F03581EA84B1B78A64C1A4692001A4403469B0003445B001344234403F225
:402B800086331B781B09DBB23033DCB29D482A4692002A4453001A460B461B015B1A5B001344034403F20C4322461A70954B93F8D63303F00F03591E934B1B781D46914B6E
:402BC00093F8D63303F00F03581E8F4B1B788D4C1A4692001A4403469B0003445B001344234403F286331B7803F00F03DBB23033DCB284482A4692002A4453001A460B46E8
:402C00001B015B1A5B001344034403F20D4322461A70012002F0D2FF3B7943F05003DBB2184602F093FD774B93F8D3335BB203F00F035BB263F03F035BB2DBB2184602F057
:402C400085FDFA2002F082FD042002F0BBFB002002F0B4FF6B4B93F8D433022B40F0CD800423BB711BE0BB79043BBA7965490A4492F8D213634A13440A4683F8BA23BB7985
:402C8000043BBA7904325F490A4492F8D2135D4A13440A4683F8B623BB790133BB71BB79072BE0D9574B93F8BA331B09DBB23033DAB2544B83F88424524B93F8BA3303F02E
:402CC0000F03DBB23033DAB24E4B83F885244D4B93F8BB331B09DBB23033DAB2494B83F88624484B93F8BB3303F00F03DBB23033DAB2444B83F88724424B93F8BC331B09B2
:402D0000DBB23033DAB23F4B83F888243D4B93F8BC3303F00F03DBB23033DAB2394B83F88924384B93F8BD331B09DBB23033DAB2344B83F88A24334B93F8BD3303F00F03F3
:402D4000DBB23033DAB22F4B83F88B242D4B93F8B6331B09DBB23033DAB22A4B83F87C24284B93F8B63303F00F03DBB23033DAB2244B83F87D24234B93F8B7331B09DBB290
:402D80003033DAB21F4B83F87E241E4B93F8B73303F00F03DBB23033DAB21A4B83F87F24184B93F8B8331B09DBB23033DAB2154B83F88024134B93F8B83303F00F03DBB25D
:402DC0003033DAB20F4B83F881240E4B93F8B9331B09DBB23033DAB20A4B83F88224094B93F8B93303F00F03DBB23033DAB2054B83F88324002002F0E1FE00BF1C37BD46C0
:402E0000F0BD00BF7484FF1FA389FF1F90B585B000AF0346FB71274BFF221A70254BFF2283F82B21234BFF2283F85622214BFF2283F88123012002F0C1FEFB7943F0500379
:402E4000DBB2184602F082FC202002F07FFCFA2002F07CFC042002F0B5FA002002F0AEFE02F0ECFB0346BB730023FB7309E0FC7B02F09CFB03461A460F4B1A55FB7B01335D
:402E8000FB73FA7BBB7B9A42F1D302F01FFC4FF4967002F097FABB7B002B05D0064B1B7803F00F03DBB200E0FF2318461437BD4690BD00BF7484FF1F3489FF1F80B584B0C0
:402EC00000AF0346FB710023FB7306E0FB7B2E4A0021D154FB7B0133FB73FB7B312BF5D9012002F06BFEFB7943F05003DAB2264B1A70254B30225A70234B01229A70224B7A
:402F00000122DA70204B06221A7105211E48FEF7D3F803461A461D4B1A801C4B1B881B0A9BB2DAB21A4B1A70184B1B88DAB2194B1A70184B1A78144B5A71154B1A78124B2A
:402F40009A71114B0322DA710F4BFA221A720023BB7308E0BB7B0C4AD35C184602F0F6FBBB7B0133BB73BB7B092BF3D9042002F029FA002002F022FEC82002F023FA7B7B1D
:402F800018461037BD4680BD6889FF1FA889FF1F2089FF1FAA89FF1F90B585B000AF0346FB710023FB7306E0FB7B5A4A0021D154FB7B0133FB73FB7B312BF5D9012002F036
:402FC000FDFDFB7943F05003DBB2184602F0BEFB202002F0BBFBFA2002F0B8FB032002F0F1F9002002F0EAFD02F028FB03467B720123BB7309E0BC7B02F0D8FA03461A467E
:40300000444B1A55BB7B0133BB73BA7B7B7A01339A42F0DB3F4A7B7A137002F057FB7B7A032B05D9FEF7C6F8642002F0CBF965E0642002F0C7F9384B1B78FA799A4212D1FF
:4030400000237B730BE07B7B7A7B3249895C324A13440A4683F851207B7B01337B737A7B7B7A9A42EFD32C4B93F82B31FA799A4212D100233B730BE03B7B3A7B2549895C50
:40308000254A13440A4683F87C213B7B01333B733A7B7B7A9A42EFD31F4B93F85632FA799A4212D10023FB720BE0FB7AFA7A1949895C194A13440A4683F8A722FB7A0133B1
:4030C000FB72FA7A7B7A9A42EFD3134B93F88133FA799A4212D10023BB720BE0BB7ABA7A0C49895C0C4A13440A4683F8D223BB7A0133BB72BA7A7B7A9A42EFD37B7A002BC5
:4031000002D0044B5B7800E0002318461437BD4690BD00BF3489FF1F7484FF1F90B585B000AF03463960FB71012002F047FDFB7943F05003DAB2394B1A70384B30225A70EE
:40314000364B05229A70354B0322DA703B681A78324B1A713B685A78304B5A713B689A782E4B9A7107212D48FDF7A6FF03461A462B4B1A802A4B1B881B0A9BB2DAB2294B04
:403180001A70274B1B88DAB2274B1A70264B1A78224BDA71234B1A78204B1A721F4B03225A721E4BFA229A720023FB7308E0FB7B1A4AD35C184602F0C9FAFB7B0133FB739D
:4031C000FB7B0B2BF3D9042002F0FCF8002002F0F5FC02F033FA03467B730023BB7309E0BC7B02F0E3F903461A46104B1A55BB7B0133BB73BA7B7B7B9A42F1D302F066FA8D
:40320000642002F0DFF87B7B002B02D0074B5B7800E0002318461437BD4690BD6889FF1FA889FF1F2089FF1FAA89FF1F3489FF1F90B585B000AF0346FB710B46BB71134628
:403240007B71BB791B015AB297F9053013435BB27B73012002F0B2FCFB7943F05003DAB2314B1A70304B30225A702F4B65229A702D4B0122DA702C4A7B7B137105212A4894
:40328000FDF71AFF03461A46284B1A80274B1B881B0A9BB2DAB2264B1A70244B1B88DAB2244B1A70234B1A781F4B5A71204B1A781D4B9A711C4B0322DA711B4BFA221A721C
:4032C0000023FB7308E0FB7B174AD35C184602F03DFAFB7B0133FB73FB7B092BF3D9042002F070F8002002F069FC02F0A7F903463B730023BB7309E0BC7B02F057F90346C0
:403300001A460D4B1A55BB7B0133BB73BA7B3B7B9A42F1D302F0DAF9642002F053F800BF1437BD4690BD00BF6889FF1FA889FF1F2089FF1FAA89FF1F3489FF1F90B593B0CB
:4033400000AF0346FB71C04B1B780133DAB2BE4B1A70BD4B1B78BD4A82FB03121213DB17D31ADBB23033DAB2B94B5A71B64B1B781A46B64B83FB02131913D317CB1A42F2BE
:40338000107101FB03F3D31AB24A82FB03129211DB17D31ADBB23033DAB2AD4B1A71AA4B1B781A46A94B83FB02131913D317CB1A42F2107101FB03F3D31AA64A82FB03121E
:4033C0009111DA178A1A4FF47A7101FB02F29A1AA14B83FB02135911D317CB1ADBB23033DAB29B4BDA70984B1B78984A82FB03121113DA178A1A42F2107101FB02F29A1A64
:40340000944B83FB02139911D317CB1A4FF47A7101FB03F3D31A904A82FB03125111DA178A1A642101FB02F29A1A8C4B83FB02139910D317CB1ADBB23033DAB2844B9A70D1
:40344000814B1B78814A82FB03121113DA178A1A42F2107101FB02F29A1A7E4B83FB02139911D317CB1A4FF47A7101FB03F3D31A794A82FB03125111DA178A1A642101FBCF
:4034800002F29A1A754B83FB02139910D317C91A0B469B000B445B00D11ACBB23033DAB26B4B5A70012387F847300FE097F84730674AD35C97F8472092B21146184602F05E
:4034C000D9FE97F84730013387F8473097F84730052BEBD9002387F846300BE097F846305F4AD35C184602F09DFD97F84630013387F8463097F84630052BEFD9042001F0C1
:4035000061FF02F047FD0346BB7397F90E300C2B18DD002387F845300CE097F8454002F0F1FC03461A464F4B1A5597F84530013387F8453097F8452097F90E309A42ECDB4B
:403540000023BB73002387F844300BE097F84430454AD35C184602F0A3FB97F84430013387F8443097F84430152BEFD93F4B1B78184602F095FB002387F843300BE097F889
:4035800043303B4AD35C184602F08AFB97F84330013387F8433097F84330152BEFD9334B1B78184602F07CFB002387F842300BE097F842302F4AD35C184602F071FB97F812
:4035C0004230013387F8423097F84230152BEFD9264B1B78184602F063FB002387F841300BE097F84130244AD35C184602F058FB97F84130013387F8413097F84130152BD7
:40360000EFD91A4B1B78184602F04AFB002387F840300BE097F84030184AD35C184602F03FFB97F84030013387F8403097F84030172BEFD90D4B1B78184602F031FB002369
:4036400087F83F3028E000BFA789FF1FAD8BDB686C84FF1FD34D62101F85EB5167666666A483FF1FAC89FF1FD480FF1FCC80FF1FEC80FF1F0481FF1F1C81FF1F8C83FF1F2A
:4036800097F83F30C44AD35C184602F009FB97F83F30013387F83F3097F83F300C2BEFD9BE4B9B791B09DBB23033DBB2184602F0F7FABA4B9B7903F00F03DBB23033DBB2C4
:4036C000184602F0EDFA2F2002F0EAFAB34BDB791B09DBB23033DBB2184602F0E1FAAF4BDB7903F00F03DBB23033DBB2184602F0D7FA2F2002F0D4FAA84B1B7A1B09DBB217
:403700003033DBB2184602F0CBFAA44B1B7A03F00F03DBB23033DBB2184602F0C1FAA04B1B78184602F0BCFA002387F83E300BE097F83E309B4AD35C184602F0B1FA97F859
:403740003E30013387F83E3097F83E300C2BEFD9924B9B7A1B09DBB23033DBB2184602F09FFA8E4B9B7A03F00F03DBB23033DBB2184602F095FA3A2002F092FA874BDB7AF4
:403780001B09DBB23033DBB2184602F089FA834BDB7A03F00F03DBB23033DBB2184602F07FFA3A2002F07CFA7C4B1B7B1B09DBB23033DBB2184602F073FA784B1B7B03F05E
:4037C0000F03DBB23033DBB2184602F069FA744B1B78184602F064FA002387F83D300BE097F83D30704AD35C184602F059FA97F83D30013387F83D3097F83D30172BEFD9E3
:40380000674B1B78184602F04BFA002387F83C300BE097F83C30654AD35C184602F040FA97F83C30013387F83C3097F83C300C2BEFD9052387F83B300BE097F83B305C4AA1
:40384000D35C184602F02CFA97F83B30013B87F83B3097F83B30002BEFD1514B1B78184602F01EFA002387F83A300BE097F83A30504AD35C184602F013FA97F83A300133C4
:4038800087F83A3097F83A300C2BEFD94A4B1B78FA799A4240F03281002387F839300DE097F83930444A134493F82331184602F0F7F997F83930013387F8393097F83930CD
:4038C000072BEDD9364B1B78184602F0E9F9002387F838300BE097F83830384AD35C184602F0DEF997F83830013387F8383097F838300C2BEFD9304B1B783133DBB2184661
:4039000002F0CEF9264B1B78184602F0C9F9002387F837300BE097F83730294AD35C184602F0BEF997F83730013387F8373097F837300C2BEFD9002387F836300BE097F89E
:403940003630204AD35C184602F0AAF997F83630013387F8363097F83630072BEFD9104B1B78184602F09CF9002387F835300BE097F83530144AD35C184602F091F997F8A9
:403980003530013387F8353097F835300C2BEFD9002387F8343032E07881FF1FAC89FF1FCC80FF1F8881FF1F8C83FF1F3882FF1F6C84FF1F9881FF1F7484FF1FC881FF1FBD
:4039C000D881FF1F6481FF1FF881FF1F97F83430C3F10803CE4A1278934202D12E2002F05FF997F83430CB4A134493F80331184602F056F997F83430013387F8343097F8CC
:403A00003430072BE2D9202002F04AF9C24B1B78184602F045F9C14B1B78184602F040F9002387F833300BE097F83330BC4AD35C184602F035F997F83330013387F83330CD
:403A400097F833300C2BEFD9B64B1B78184602F027F9202002F024F9002387F832300DE097F83230AB4A134493F8FB30184602F017F997F83230013387F8323097F83230C7
:403A8000072BEDD9A54B1B78184602F009F9002387F831300BE097F83130A34AD35C184602F0FEF897F83130013387F8313097F831300C2BEFD99B4B1B78184602F0F0F855
:403AC000202002F0EDF8012387F830300DE097F83030904A134493F80B31184602F0E0F897F83030013387F8303097F83030052BEDD98A4B1B78184602F0D2F8854B93F8EC
:403B00002B31FA799A4240F03081002387F82F300DE097F82F307F4A134493F84E32184602F0BEF897F82F30013387F82F3097F82F30072BEDD9794B1B78184602F0B0F8B7
:403B4000002387F82E300BE097F82E30774AD35C184602F0A5F897F82E30013387F82E3097F82E300C2BEFD96A4B93F82B313133DBB2184602F094F8684B1B78184602F0A7
:403B80008FF8002387F82D300BE097F82D30684AD35C184602F084F897F82D30013387F82D3097F82D300C2BEFD9002387F82C300BE097F82C305F4AD35C184602F070F8B0
:403BC00097F82C30013387F82C3097F82C30072BEFD9524B1B78184602F062F8002387F82B300BE097F82B30534AD35C184602F057F897F82B30013387F82B3097F82B30ED
:403C00000C2BEFD9002387F82A3018E097F82A30C3F108033E4A1278934202D12E2002F03FF897F82A303B4A134493F82E32184602F036F897F82A30013387F82A3097F805
:403C40002A30072BE2D9202002F02AF8324B1B78184602F025F8314B1B78184602F020F8002387F829300BE097F829302C4AD35C184602F015F897F82930013387F82930F1
:403C800097F829300C2BEFD9264B1B78184602F007F8202002F004F8002387F828300DE097F828301B4A134493F82632184601F0F7FF97F82830013387F8283097F8283011
:403CC000072BEDD9154B1B78184601F0E9FF002387F827300BE097F82730134AD35C184601F0DEFF97F82730013387F8273097F827300C2BEFD90B4B1B78184601F0D0FF44
:403D0000202001F0CDFF012387F8263024E000BF6689FF1F7484FF1FD080FF1FCC80FF1F1882FF1F6883FF1FE881FF1FC881FF1FD881FF1F6481FF1FF881FF1F97F826302A
:403D4000BD4A134493F83632184601F0A9FF97F82630013387F8263097F82630052BEDD9B64B1B78184601F09BFFB34B93F85632FA799A4240F00581002387F825300DE0BB
:403D800097F82530AC4A134493F87933184601F087FF97F82530013387F8253097F82530072BEDD9A54B1B78184601F079FF002387F824300BE097F82430A14AD35C184678
:403DC00001F06EFF97F82430013387F8243097F824300C2BEFD9984B93F856323133DBB2184601F05DFF954B1B78184601F058FF002387F823300BE097F82330914AD35C22
:403E0000184601F04DFF97F82330013387F8233097F823300C2BEFD9002387F822300BE097F82230884AD35C184601F039FF97F82230013387F8223097F82230072BEFD915
:403E40007E4B1B78184601F02BFF002387F821300BE097F821307D4AD35C184601F020FF97F82130013387F8213097F821300C2BEFD9002387F8203018E097F82030C3F10B
:403E80000803734A1278934202D12E2001F008FF97F82030684A134493F85933184601F0FFFE97F82030013387F8203097F82030072BE2D9202001F0F3FE664B1B78184605
:403EC00001F0EEFE5D4B1B78184601F0E9FE0023FB7708E0FB7F604AD35C184601F0E0FEFB7F0133FB77FB7F0C2BF3D95B4B1B78184601F0D5FE202001F0D2FE0023BB7729
:403F00000AE0BB7F4C4A134493F85133184601F0C7FEBB7F0133BB77BB7F072BF1D9474B1B78184601F0BCFE00237B7708E07B7F4B4AD35C184601F0B3FE7B7F01337B776E
:403F40007B7F0C2BF3D9454B1B78184601F0A8FE202001F0A5FE01233B770AE03B7F364A134493F86133184601F09AFE3B7F01333B773B7F052BF1D9304B1B78184601F050
:403F80008FFE2D4B93F88133FA799A4240F0F8800023FB760AE0FB7E274A134493F8A434184601F07DFEFB7E0133FB76FB7E072BF1D90023BB7608E0BB7E214AD35C1846DA
:403FC00001F06EFEBB7E0133BB76BB7E0C2BF3D9194B93F881333133DBB2184601F060FE164B1B78184601F05BFE144B1B78184601F056FE00237B7608E07B7E114AD35C99
:40400000184601F04DFE7B7E01337B767B7E0C2BF3D900233B7608E03B7E0B4AD35C184601F03EFE3B7E01333B763B7E072BF3D90023FB751FE000BF7484FF1FCC80FF1F22
:40404000C881FF1FD881FF1F6481FF1FF881FF1F6689FF1FD080FF1F1882FF1F6883FF1FE881FF1FFB7D704AD35C184601F018FEFB7D0133FB75FB7D0C2BF3D90023BB7555
:4040800014E0BB7DC3F10803684A1278934202D12E2001F005FEBB7D654A134493F88434184601F0FDFDBB7D0133BB75BB7D072BE7D9202001F0F4FD5E4B1B78184601F0B2
:4040C000EFFD5D4B1B78184601F0EAFD00237B7508E07B7D594AD35C184601F0E1FD7B7D01337B757B7D0C2BF3D9554B1B78184601F0D6FD202001F0D3FD00233B750AE047
:404100003B7D4B4A134493F87C34184601F0C8FD3B7D01333B753B7D072BF1D9464B1B78184601F0BDFD0023FB7408E0FB7C454AD35C184601F0B4FDFB7C0133FB74FB7CCF
:404140000C2BF3D93E4B1B78184601F0A9FD202001F0A6FD0123BB740AE0BB7C344A134493F88C34184601F09BFDBB7C0133BB74BB7C052BF1D9304B1B78184601F090FD27
:4041800000237B7408E07B7C2F4AD35C184601F087FD7B7C01337B747B7C172BF3D9264B1B78184601F07CFD00233B7408E03B7C264AD35C184601F073FD3B7C01333B743F
:4041C0003B7C152BF3D91C4B1B78184601F068FD0023FB7308E0FB7B1D4AD35C184601F05FFDFB7B0133FB73FB7B152BF3D9124B1B78184601F054FD0F4B1B78184601F0B8
:404200004FFD0D4B1B78184601F04AFD0A4B1B78184601F045FD084B1B78184601F040FD00BF4C37BD4690BDF881FF1F6689FF1F7484FF1FD080FF1FCC80FF1F1882FF1FEA
:404240006883FF1FE881FF1F8C83FF1F3481FF1F4C81FF1F90B58BB000AF002387F827300BE097F82730BD4AD35C184601F0DAFE97F82730013387F8273097F82730052B67
:40428000EFD901F087FE03467B7097F901300C2B18DD002387F826300CE097F8264001F031FE03461A46AE4B1A5597F82630013387F8263097F8262097F901309A42ECDB6E
:4042C00000237B70042001F07DF8A64B1B780133DAB2A44B1A70A34B1B78A34A82FB03121213DB17D31ADBB23033DAB29F4B5A719C4B1B781A469C4B83FB02131913D317CA
:40430000CB1A42F2107101FB03F3D31A984A82FB03129211DB17D31ADBB23033DAB2934B1A71904B1B781A468F4B83FB02131913D317CB1A42F2107101FB03F3D31A8C4A89
:4043400082FB03129111DA178A1A4FF47A7101FB02F29A1A874B83FB02135911D317CB1ADBB23033DAB2814BDA707E4B1B787E4A82FB03121113DA178A1A42F2107101FB52
:4043800002F29A1A7A4B83FB02139911D317CB1A4FF47A7101FB03F3D31A764A82FB03125111DA178A1A642101FB02F29A1A724B83FB02139910D317CB1ADBB23033DAB2C1
:4043C0006A4B9A70674B1B78674A82FB03121113DA178A1A42F2107101FB02F29A1A644B83FB02139911D317CB1A4FF47A7101FB03F3D31A5F4A82FB03125111DA178A1A6A
:40440000642101FB02F29A1A5B4B83FB02139910D317C91A0B469B000B445B00D11ACBB23033DAB2514B5A70072387F8253010E097F82530063B4D4AD35C97F8252092B260
:404440001146184601F016FF97F82530013387F8253097F825300C2BEAD9484B1B78184601F01EFC002387F824300BE097F82430434AD35C184601F013FC97F82430013333
:4044800087F8243097F82430152BEFD93B4B1B78184601F005FC002387F823300BE097F82330384AD35C184601F0FAFB97F82330013387F8233097F82330152BEFD92F4BD2
:4044C0001B78184601F0ECFB002387F822300BE097F822302C4AD35C184601F0E1FB97F82230013387F8223097F82230152BEFD9224B1B78184601F0D3FB002387F8213084
:404500000BE097F82130214AD35C184601F0C8FB97F82130013387F8213097F82130152BEFD9164B1B78184601F0BAFB002387F820300BE097F82030154AD35C184601F0A7
:40454000AFFB97F82030013387F8203097F82030172BEFD90023FB7725E000BFA483FF1FAC89FF1FA289FF1FAD8BDB689C89FF1FD34D62101F85EB5167666666CC80FF1F59
:40458000D480FF1FEC80FF1F0481FF1F1C81FF1F8C83FF1FFB7FB14AD35C184601F080FBFB7F0133FB77FB7F0C2BF3D9AC4B9B791B09DBB23033DBB2184601F071FBA84B0F
:4045C0009B7903F00F03DBB23033DBB2184601F067FB2F2001F064FBA14BDB791B09DBB23033DBB2184601F05BFB9D4BDB7903F00F03DBB23033DBB2184601F051FB2F20A7
:4046000001F04EFB964B1B7A1B09DBB23033DBB2184601F045FB924B1B7A03F00F03DBB23033DBB2184601F03BFB8E4B1B78184601F036FB0023BB7708E0BB7F8A4AD35CBB
:40464000184601F02DFBBB7F0133BB77BB7F0C2BF3D9834B9B7A1B09DBB23033DBB2184601F01EFB7E4B9B7A03F00F03DBB23033DBB2184601F014FB3A2001F011FB784B22
:40468000DB7A1B09DBB23033DBB2184601F008FB734BDB7A03F00F03DBB23033DBB2184601F0FEFA3A2001F0FBFA6D4B1B7B1B09DBB23033DBB2184601F0F2FA684B1B7B23
:4046C00003F00F03DBB23033DBB2184601F0E8FA644B1B78184601F0E3FA00237B7708E07B7F624AD35C184601F0DAFA7B7F01337B777B7F172BF3D900233B7708E03B7F05
:404700005B4AD35C184601F0CBFA3B7F01333B773B7F0C2BF3D90523FB7608E0FB7E554AD35C184601F0BCFAFB7E013BFB76FB7E002BF3D14B4B1B78184601F0B1FA494B22
:404740001B78184601F0ACFA0023BB7608E0BB7E494AD35C184601F0A3FABB7E0133BB76BB7E0C2BF3D9454B1B783133DBB2184601F096FA3B4B1B78184601F091FA0023AB
:404780007B7608E07B7E3E4AD35C184601F088FA7B7E01337B767B7E0F2BF3D9314B1B78184601F07DFA00233B7614E03B7EC3F10A03344A1278934202D12E2001F070FA12
:4047C0003B7E2E4A134493F88330184601F068FA3B7E01333B763B7E092BE7D9214B1B78184601F05DFA0023FB7508E0FB7D264AD35C184601F054FAFB7D0133FB75FB7D8F
:404800000F2BF3D9174B1B78184601F049FA0023BB7517E0BB7DC3F10A031A4A1278934202D12E2001F03CFABB7D9BB224339BB2184601F0A9FD0346184601F031FABB7D84
:404840000133BB75BB7D092BE4D9064B1B78184601F026FA00237B7521E000BF7881FF1FAC89FF1FCC80FF1F8881FF1F8C83FF1F2882FF1F9C89FF1FC881FF1F7484FF1FD5
:404880006C83FF1F6689FF1F7C83FF1F7B7DB14AD35C184601F004FA7B7D01337B757B7D172BF3D9AC4B1B78184601F0F9F900233B7508E03B7DA94AD35C184601F0F0F998
:4048C0003B7D01333B753B7D0C2BF3D9A44B93F82B313133DBB2184601F0E2F99E4B1B78184601F0DDF90023FB7408E0FB7C9D4AD35C184601F0D4F9FB7C0133FB74FB7C1B
:404900000F2BF3D9944B1B78184601F0C9F90023BB7414E0BB7CC3F10A03934A1278934202D12E2001F0BCF9BB7C8D4A134493F8AE31184601F0B4F9BB7C0133BB74BB7C11
:40494000092BE7D9844B1B78184601F0A9F900237B7408E07B7C854AD35C184601F0A0F97B7C01337B747B7C0F2BF3D97A4B1B78184601F095F900233B7417E03B7CC3F199
:404980000A03794A1278934202D12E2001F088F93B7C9BB22E339BB2184601F0F5FC0346184601F07DF93B7C01333B743B7C092BE4D9694B1B78184601F072F96C4B1B78A8
:4049C000013B022B40F3E7800023FB7308E0FB7B604AD35C184601F063F9FB7B0133FB73FB7B172BF3D95C4B1B78184601F058F90023BB7308E0BB7B584AD35C184601F03C
:404A00004FF9BB7B0133BB73BB7B0C2BF3D9544B93F856323133DBB2184601F041F94E4B1B78184601F03CF900237B7314E07B7BC3F10A034C4A1278934202D12E2001F0BE
:404A40002FF97B7B464A134493F8D932184601F027F97B7B01337B737B7B092BE7D93E4B1B78184601F01CF900233B7308E03B7B3E4AD35C184601F013F93B7B01333B7391
:404A80003B7B0F2BF3D9344B1B78184601F008F90023FB7208E0FB7A2E4AD35C184601F0FFF8FB7A0133FB72FB7A172BF3D92A4B1B78184601F0F4F80023BB7208E0BB7AB5
:404AC000264AD35C184601F0EBF8BB7A0133BB72BB7A0C2BF3D9224B93F881333133DBB2184601F0DDF81C4B1B78184601F0D8F800237B7214E07B7AC3F10A031A4A127895
:404B0000934202D12E2001F0CBF87B7A144A134493F80434184601F0C3F87B7A01337B727B7A092BE7D90C4B1B78184601F0B8F800233B7208E03B7A0C4AD35C184601F02B
:404B4000AFF83B7A01333B723B7A0F2BF3D90023FB7118E08C83FF1FCC80FF1FC881FF1F7484FF1F6C83FF1F6689FF1F7C83FF1FA689FF1FFB79484AD35C184601F090F812
:404B8000FB790133FB71FB79172BF3D9434B1B78184601F085F80023BB7108E0BB793E4AD35C184601F07CF8BB790133BB71BB79172BF3D9394B1B78184601F071F80023C5
:404BC0007B7108E07B79364AD35C184601F068F87B7901337B717B79152BF3D92F4B1B78184601F05DF800233B7108E03B792D4AD35C184601F054F83B7901333B713B79D6
:404C0000152BF3D9254B1B78184601F049F8234B1B78184601F044F8204B1B78184601F03FF81E4B1B78184601F03AF81B4B1B78184601F035F80023FB700FE0FB781A4A7F
:404C4000134493F88320FB789BB224339BB21946104601F00FFBFB780133FB70FB78092BECD90023BB700FE0BB780F4A134493F8AE21BB789BB22E339BB21946104601F0CF
:404C8000F9FABB780133BB70BB78092BECD900BF2C37BD4690BD00BF8C83FF1FCC80FF1F3481FF1F4C81FF1F7484FF1F80B584B000AFF860B9607A607A68B968F86801F0F0
:404CC00081FE00BF1037BD4680BD00BF80B483B000AF0346FB71FEE780B483B000AF434B00221A60424B10221A70424B01221A70414B00221A70414B4FF42C721A80404BF3
:404D000001221A703F4B03221A703F4B3F4A92B21A803F4B47F608021A803E4B00221A803D4B4FF480421A803C4B09221A703C4B0C221A703B4B14221A703B4B1D221A70B5
:404D4000BFF35F8F394B01221A70BFF35F8F00BF2A4B1B889BB2002BFAD100237B600DE07B68DA00324B13441946324A7B6852F823309BB20B807B6801337B607B68552BA4
:404D8000EED9BFF35F8F294B01221A70BFF35F8F00BF294B1B78DBB203F00103002BF8D100BF264B1B78DBB203F00103002BF8D100BF234B1B78DBB203F00103002BF8D11A
:404DC00000BF204B1B78DBB203F00103002BF8D100BF1D4B1B78DBB203F00103002BF8D100BF0C37BD4680BC704700BF4084FF1F00760040107000401970004000780040BC
:404E00000278004003780040047800405000000006780040047600400676004029700040397000406970004079700040147000400C780040F4690000187000402870004034
:404E400038700040687000407870004080B582B000AF3E4B19221A803D4B18221A703D4B4FF49C721A803C4B18221A703B4B4FF49C721A803A4B18221A703A4B40F20922F0
:404E80001A80394B18221A70384B47F22F521A80374B19221A70374B02221A704FF0402308221A70344B03221A70344B344A1278D2B21A70334B08221A80334B41F2512243
:404EC0001A800023FB7019237B6014E0FB785B00DAB22E4B1B78DBB203F00103DBB21343DBB203F00303FB704FF4F07001F06CFA7B68013B7B607B68002B02D0FB78032B4C
:404F0000E4D17B68002B02D10320FFF7DFFE204B4FF480721A801E4B07221A701D4B00221A701D4B48221A70194B00221A701B4B02221A701A4A1A4B1B78DBB243F01F03BD
:404F4000DBB2137000BF0837BD4680BD80400040824000408440004086400040884000408A4000408C4000408E40004090400040924000400043004000420040A14600405D
:404F80000801004922420040204200402542004004400040064000400840004001400040A243004080B483B000AF0B4B1B78FB710A4AFB7903F00703DBB21370084AFB7974
:404FC0001B09DBB21370074B44221A7000BF0C37BD4680BC704700BFCF0100496E5800406F5800407658004080B500AF72B62D4A2C4B1B78DBB243F00403DBB21370FFF7F6
:405000006BFE294A284B1B78DBB243F00203DBB21370264A254B1B78DBB243F00203DBB21370234A224B1B78DBB243F04003DBB21370204A1F4B1B78DBB243F01003DBB22A
:4050400013700A221C491D48FFF730FE0A221C491C48FFF72BFE0A221B491C48FFF726FE0A221B491B48FFF721FE1B4A1A4B1B78DBB243F00803DBB21370184B60221A70C2
:40508000FFF7E4FE154B80221A70154B01221A70FFF788FF0E2206491248FFF707FE00BF80BD00BFE84600400350014013500140A0430040C24300402C1C0048F051004054
:4050C000381C004810510040441C004820510040501C004830510040224300400048004004000840B043004080B500AF01F03EFC03461B680C2B00D1FEE7FEE780B586B0E1
:4051000000AF224B7B61224B3B61204B7B6135E03B691B68FB603B695B68BB603B699B683B6000237B600CE0FB681A68BB681A60BB680433BB60FB680433FB607B680433DC
:405140007B607A683B689A42EED13B69DB683B6000237B6008E0BB6800221A60BB680433BB607B6804337B607A683B689A42F2D13B6910333B617B69013B7B617B69002BF1
:40518000C6D101F0F9FBFBF7C1F9FEE701000000746B000080B582B000AF184B184A1A60184A184B1B6843F40073136000237B600FE07B68032B04D8134A7B6852F8233091
:4051C00000E0124B12497A6841F822307B6801337B607B682F2BECD90E4B1B78DAB20E4B1A700E4B0A4A1A60FFF7FEFE0C4B00221A6000BF0837BD4680BD00BF0CED00E079
:405200000004FA0514ED00E000000000E95000000080FF1FBC760040C480FF1F08ED00E0C080FF1F80B500AF064B1B78002B04D100F00AF8034B01221A7000F063F800BFED
:4052400080BD00BF4484FF1F80B582B000AF284A274B1B78DBB243F00203DBB21370254B1B78DBB223F07003FB71224AFB7943F03003DBB21370204A1F4B1B78DBB223F00B
:405280003003DBB213701C4A1B4B1B78DBB243F03003DBB21370184A174B1B78DBB223F00F03DBB21370144A134B1B78DBB243F00F03DBB21370642000F048F8322000F009
:4052C00055F8002000F062F80C4A0C4B1B78DBB243F00103DBB21370094A094B1B78DBB243F00103DBB2137000BF0837BD4680BD004F0040024F00400B4F0040A3430040B7
:40530000014F004080B400AF0D4A0D4B1B78DBB243F00103DBB213700A4A0A4B1B78DBB243F00103DBB21370074A074B1B78DBB243F00103DBB2137000BFBD4680BC704715
:40534000A3430040B3430040004F004080B483B000AF0346FB71044BFA7992B21A8000BF0C37BD4680BC7047044F004080B483B000AF0346FB71044BFA7992B21A8000BF22
:405380000C37BD4680BC7047064F004080B483B000AF0346FB71044AFB79137000BF0C37BD4680BC704700BF034F004080B483B000AF0346FB7101BE00BF0C37BD4680BCFB
:4053C000704700BF80B582B000AF786008E00C4B1B68184600F0F8FF7B68A3F500437B607B68B3F5004FF2D8064B1B687A6802FB03F3184600F0E8FF00BF0837BD4680BDE9
:40540000B883FF1FB083FF1F80B582B000AF0346FB80FB88054A127802FB03F3184600F0D3FF00BF0837BD4680BD00BFB483FF1F80B584B000AF03463960FB710F4B1B68E4
:40544000FB60FB791F2B02D90020FFF7AFFFFB7903F01F0310339B00FA6813441B68BB60FB7903F01F0310339B00FA6813443A681A60BB6818461037BD4680BD08ED00E09D
:4054800080B582B000AF03460A46FB711346BB71BB79072B02D90020FFF788FFFB791F2B02D90020FFF782FFFB7903F01F0303F1604303F56443BA795201D2B21A7000BF2C
:4054C0000837BD4680BD00BF80B500AF064B1B78002B04D100F00AF8034B01221A7000F031F800BF80BD00BF4584FF1F80B500AF0D490020FFF79CFF07210020FFF7C0FF16
:405500000A4B00221A700A4B72221A70094B20221A70094B06221A70084B47221A70084B00221A7000BF80BD815700004684FF1F88650040846500402A6500403A650040CC
:405540008964004080B582B000AF00F05CFF0346FB71124A114B1B78DBB243F02003DBB213700F4A0E4B1B78DBB243F01003DBB213700C4B01221A600B4A0B4B1B78DBB2C3
:4055800043F01003DBB2137000F068F9FB79184600F03DFF00BF0837BD4680BD986500409465004000E100E09964004080B483B000AF1B4B01221A601A4B1B78BB711A4BF2
:4055C0001B787B71194B1B78DBB2002B03D1BA797B799A4218D0BB79154AD35CFB71BB790133BB7197F90630002B01DA0023BB710C4ABB7913700D4B1B78DBB2002B06D05B
:405600000A4B00221A7002E00A4B1B78FB710A4B01221A60FB7918460C37BD4680BC704780E100E04784FF1F4884FF1F4984FF1FC489FF1F4B65004000E100E080B483B0B4
:4056400000AF1D4B01221A601C4B1B78DAB21C4B1B78DBB29A420AD11A4B1B78DBB2002B02D08023FB711DE00023FB711AE0134B1B78DAB2124B1B78DBB29A4208D2104B90
:405680001B78DAB20D4B1B78DBB2D31AFB7109E00B4B1B78DAB2094B1B78DBB2D31ADBB2803BFB71084B01221A60FB7918460C37BD4680BC704700BF80E100E04784FF1FA3
:4056C0004884FF1F4984FF1F00E100E080B582B000AF00F098FE0346FB71154A144B1B78DBB243F00103DBB21370114A104B1B78DBB223F00103DBB21370FB79184600F0DF
:4057000086FE0C4B01221A600B4B00221A700B4B00221A700A4B00221A700A4B00221A70094B01221A6000BF0837BD4680BD00BF9B65004080E100E04784FF1F4884FF1FA9
:405740004984FF1F4A84FF1F00E100E080B483B000AF0346FB7100BF074B1B78DBB203F00403002BF8D1054AFB79137000BF0C37BD4680BC704700BF6964004049650040AF
:4057800080B483B000AF0023FB712C4B1B78BB71BB797B71BB7903F01E03002B0CD097F9063003F01E035AB2254B1B785BB213435BB2DAB2224B1A70BB7903F02003002B4E
:4057C00031D0204B1B787B711F4B1B78DBB219461E4A7B7953540123FB71FB79002B22D01B4B1B78DBB2002B02D01A4B01221A70154B1B78DBB20133DAB2134B1A70124B97
:405800001B78DBB25BB2002B02DA0F4B00221A700D4B1B78DAB2104B1B78DBB29A4202D10B4B01221A70BB7903F02003002BACD100BF0C37BD4680BC704700BF64650040D8
:405840004684FF1F4B6500404884FF1FC489FF1F4984FF1F4A84FF1F4784FF1F80B400AF094A094B1B78DBB243F00403DBB21370064A064B1B78DBB243F00403DBB213703C
:4058800000BFBD4680BC7047A2430040B243004080B500AF224A224B1B78DBB203F00103DBB213701F4A1F4B1B78DBB223F00303DBB213701C4A1C4B1B78DBB223F03003A6
:4058C000DBB21370184A184B1B78DBB243F03003DBB21370144A144B1B78DBB223F00F03DBB21370104A104B1B78DBB243F00F03DBB213700D4A0D4B1B78DBB243F00103FB
:40590000DBB2137045F6C95000F058F845F6C95000F066F8002000F041F800BF80BD00BF0C4F00400E4F0040174F00400D4F004080B400AF0D4A0D4B1B78DBB243F00203B9
:40594000DBB213700A4A0A4B1B78DBB243F00203DBB21370074A074B1B78DBB243F00103DBB2137000BFBD4680BC7047A3430040B34300400C4F004080B500AF064B1B7888
:40598000002B04D1FFF784FF034B01221A70FFF7CFFF00BF80BD00BF4C84FF1F80B483B000AF0346FB71044AFB79137000BF0C37BD4680BC704700BF0F4F004080B485B038
:4059C00000AF0346FB80FB88FB81044AFB89138000BF1437BD4680BC704700BF104F004080B483B000AF0346FB80044AFB88138000BF0C37BD4680BC704700BF124F0040DC
:405A000080B500AF064B1B78002B04D100F00AF8034B01221A7000F031F800BF80BD00BF4D84FF1F80B500AF0D490120FFF700FD07210120FFF724FD0A4B00221A700A4BEA
:405A400072221A70094B20221A70094B06221A70084B47221A70084B00221A7000BF80BDE15A00004E84FF1F8E6400408D6400402F6400403F6400408C64004080B582B0C6
:405A800000AF00F0C0FC0346FB71114A104B1B78DBB243F02003DBB213700E4A0D4B1B78DBB243F01003DBB213700B4B02221A600A4A0A4B1B78DBB243F01003DBB2137061
:405AC000FB79184600F0A3FC00BF0837BD4680BD9E6400409D64004000E100E09C64004080B483B000AF0023FB712C4B1B78BB71BB797B71BB7903F01E03002B0CD097F9A9
:405B0000063003F01E035AB2254B1B785BB213435BB2DAB2224B1A70BB7903F02003002B31D0204B1B787B711F4B1B78DBB219461E4A7B7953540123FB71FB79002B22D0AC
:405B40001B4B1B78DBB2002B02D01A4B01221A70154B1B78DBB20133DAB2134B1A70124B1B78DBB25BB2002B02DA0F4B00221A700D4B1B78DAB2104B1B78DBB29A4202D130
:405B80000B4B01221A70BB7903F02003002BACD100BF0C37BD4680BC704700BF6D6400404E84FF1F4E6400405084FF1F448AFF1F5184FF1F5284FF1F4F84FF1F80B485B027
:405BC00000AF0346FB710A4B1B78DBB223F00103FB730749FB7903F00103DAB2FB7B1343DBB20B7000BF1437BD4680BC704700BF2051004080B500AF064B1B78002B04D1F4
:405C000000F00AF8034B01221A7000F023F800BF80BD00BF5484FF1F80B500AF09490220FFF706FC07210220FFF72AFC064B06221A70064B47221A70054B02221A7000BF01
:405C400080BD00BF595D000029640040396400408A64004080B582B000AF00F0D4FB0346FB710C4A0B4B1B78DBB243F01003DBB21370094B04221A60084B04221A6000F017
:405C8000A3F8FB79184600F0C2FB00BF0837BD4680BD00BF9A64004080E200E000E100E080B485B000AF0346FB71254B1B78FB73244B1B78BB73FA7BBB7B9A4208D2FA7B48
:405CC000BB7B013B9A420CBF01230023DBB207E0FA7BBB7BD31A042B0CBF01230023DBB2002BE2D1BA7BFB7B9A420AD1164B1B78DBB203F00403002B03D1144AFB7913705B
:405D000018E0FB7B042B01D90023FB73FB7B1049FA79CA54FB7B0133FB73094AFB7B1370094B1B78DBB203F00203002B02D0094B04221A6000BF1437BD4680BC704700BF7B
:405D40005684FF1F5584FF1F6A6400404A640040C48AFF1F00E200E080B400AF17E0154B1B78DBB2042B02D9124B00221A70124B104A1278D2B21146104A525CD2B21A706B
:405D80000C4B1B78DBB20133DAB20A4B1A70094B1B78DAB20A4B1B789A4206D0094B1B78DBB203F00403002BD9D000BFBD4680BC704700BF5584FF1F4A640040C48AFF1FB9
:405DC0005684FF1F6A64004080B400AF094A094B1B78DBB243F00203DBB21370064A064B1B78DBB243F00203DBB2137000BFBD4680BC7047A2430040B243004080B500AFAF
:405E0000064B1B78002B04D100F00AF8034B01221A7000F03BF800BF80BD00BF5884FF1F80B500AF11490320FFF702FB07210320FFF726FB0E4B00221A700E4B72221A7087
:405E40000D4B20221A700D490420FFF7F1FA07210420FFF715FB0A4B06221A70094B47221A70094B02221A7000BF80BDDD6000005B84FF1F8765004088640040B56100005D
:405E800026650040366500408B64004080B582B000AF00F0B8FA0346FB71154A144B1B78DBB243F02003DBB21370124A114B1B78DBB243F01003DBB213700F4B08221A6030
:405EC0000E4A0E4B1B78DBB243F01003DBB213700B4B10221A60084B10221A6000F0A2F9FB79184600F093FA00BF0837BD4680BD976500409864004000E100E09B640040EA
:405F000080E200E080B483B000AF1B4B08221A601A4B1B78BB711A4B1B787B71194B1B78DBB2002B03D1BA797B799A4217D0BB79154AD35CFB71BB790133BB71BB79132B56
:405F400001D90023BB710D4ABB7913700D4B1B78DBB2002B06D00B4B00221A7002E00B4B1B78FB710A4B08221A60FB7918460C37BD4680BC704700BF80E100E05C84FF1F36
:405F80005D84FF1F5E84FF1FD48AFF1F4465004000E100E080B483B000AF1D4B08221A601C4B1B78DAB21C4B1B78DBB29A420AD11A4B1B78DBB2002B02D01423FB711DE0B4
:405FC0000023FB711AE0134B1B78DAB2124B1B78DBB29A4208D2104B1B78DAB20D4B1B78DBB2D31AFB7109E00B4B1B78DAB2094B1B78DBB2D31ADBB21433FB71084B0822A1
:406000001A60FB7918460C37BD4680BC704700BF80E100E05C84FF1F5D84FF1F5E84FF1F00E100E080B485B000AF0346FB71254B1B78FB73244B1B78BB73FA7BBB7B9A4228
:4060400008D2FA7BBB7B013B9A420CBF01230023DBB207E0FA7BBB7BD31A072B0CBF01230023DBB2002BE2D1BA7BFB7B9A420AD1164B1B78DBB203F00403002B03D1144A7C
:40608000FB79137018E0FB7B072B01D90023FB73FB7B1049FA79CA54FB7B0133FB73094AFB7B1370094B1B78DBB203F00203002B02D0094B10221A6000BF1437BD4680BC68
:4060C000704700BF5A84FF1F5984FF1F6B64004048640040CC8AFF1F00E200E080B483B000AF0023FB712B4B1B78BB71BB797B71BB7903F01E03002B0CD097F9063003F000
:406100001E035AB2244B1B785BB213435BB2DAB2214B1A70BB7903F02003002B30D01F4B1B787B711E4B1B78DBB219461D4A7B7953540123FB71FB79002B21D01A4B1B78DE
:40614000DBB2002B02D0194B01221A70144B1B78DBB20133DAB2124B1A70114B1B78DBB2132B02D90E4B00221A700D4B1B78DAB20F4B1B78DBB29A4202D10B4B01221A7021
:40618000BB7903F02003002BADD100BF0C37BD4680BC7047686400405B84FF1F446500405D84FF1FD48AFF1F5E84FF1F5F84FF1F5C84FF1F80B400AF17E0154B1B78DBB22E
:4061C000072B02D9124B00221A70124B104A1278D2B21146104A525CD2B21A700C4B1B78DBB20133DAB20A4B1A70094B1B78DAB20A4B1B789A4206D0094B1B78DBB203F0CD
:406200000403002BD9D000BFBD4680BC704700BF5984FF1F48640040CC8AFF1F5A84FF1F6B64004080B400AF094A094B1B78DBB243F00103DBB21370064A064B1B78DBB2F7
:4062400043F00103DBB2137000BFBD4680BC7047A2430040B243004080B500AF00F054F900F064F900BF80BD80B500AFFFF7F4FF00BF80BD80B584B000AF03460A46FB7178
:406280001346BB8000F0C0F9BB88B3F5006F70D2BB881B097B817B891B019BB2BA88D31A3B8100F0E5FA0346002B5FD1FA1D39890123402000F0F6F9F860FB68072B4CD191
:4062C0004FF0FF33FB6000BF2D4B1B78DBB203F00203002BF8D02A4B1B78DBB203F00203002B08D0264B1B78DBB29B08DBB2002B01D10023FB60FB68002B2AD1214B1A783D
:40630000204B5B787989402000F034FA0346072B1BD14FF0FF33FB6000BF194B1B78DBB203F00203002BF8D0154B1B78DBB203F00203002B17D0124B1B78DBB29B08DBB207
:40634000002B10D10023FB600DE04FF0FF33FB6009E04FF0FF33FB6005E0FB68012B02D04FF0FF33FB6000F0B7FA04E00423FB6001E00123FB60FB6818461037BD4680BD64
:4063800022470040E88AFF1F80B584B000AF0346FB8000F038F80346FB7300F00DF9FB8803F1804303F500431B78BB7300F01CF9FB7B184600F02BF8BB7B18461037BD46FB
:4063C00080BD00BF00000000142816D902B4012114381049097811F0C001890904B40E4A515C04BC00BF00BF00BF8841FDD500BF00BF02BC704700BF00BF70F10400FCD528
:4064000070470B050709EFF3108072B6704780F310887047004800400264000080B582B000AF00F0F1F84FF0FF337B6000F020FA0346002B24D1012000F0E8F90346072B69
:406440001BD10221124800F003F90346022B0DD100237B6002E00120FEF7D6FF0D4B1B78DBB203F00203002BF5D006E0094B1B78DBB203F00203002BE3D000F02DFA01E020
:4064800004237B607B6818460837BD4680BD00BFE88AFF1F2247004080B582B000AF00F0B3F800F0E5F90346002B23D100F03CFA78607B68072B1AD102E00120FEF7A4FFA2
:4064C000104B1B78DBB203F00203002BF5D00D4B1B78DBB203F00203002B08D0094B1B78DBB29B08DBB2002B01D100237B6000F0F3F901E004237B607B6818460837BD46E5
:4065000080BD00BF2247004080B582B000AFFFF7C3FF78607B68002B02D1FFF77FFF78607B6818460837BD4680BD00BF80B582B000AFFFF768FF0346FB71194A184B1B78E3
:40654000DBB243F00803DBB21370164A154B1B78DBB243F00803DBB21370134BC8221A70124A124B1B78DBB243F01003DBB213700F4A0F4B1B78DBB243F01003DBB21370E8
:4065800000BF0C4B1B78DBB203F02003002BF8D0FB791846FFF73BFF00BF0837BD4680BDA0430040B043004001470040AC430040BC4300400047004080B400AF094A094BFF
:4065C0001B78DBB243F00103DBB2137000BF054B1B78DBB203F00203002BF8D000BFBD4680BC70470247004080B400AF054A054B1B78DBB223F00103DBB2137000BFBD4651
:4066000080BC70470247004080B582B000AFFFF7FAFE0346FB710C4A0B4B1B78DBB243F00803DBB21370094A084B1B78DBB243F00803DBB21370FB791846FFF7E8FE00BF8A
:406640000837BD4680BD00BFA0430040B043004080B584B000AF78600B46FB700023FB7313E00120FEF7D0FE0C4B1B78DBB203F00103002BF5D0FB7B7A681344084A127889
:40668000D2B21A70FB7B0133FB73FA7BFB789A42EAD3FB7B18461037BD4680BD224700402047004080B485B000AF3A601A460346FB710B46BB801346BB710723FB60FB79B7
:4066C0003E2B02D8BB791F2B05D9FB793F2B45D9BB790F2B42D8254B1B78DBB203F00203002B38D0224BB6221A70214BD4221A701F4B01221A701D4B1B78DBB203F002036A
:40670000002B25D11A4AFB791370194ABB881B0A9BB2DBB203F00103DBB21370144BBA88D2B21A70124ABB79013BDBB213700023FB7208E00E49FB7A3A6813441B780B705B
:40674000FB7A0133FB72FA7ABB799A42F2D307E00923FB6004E00423FB6001E00123FB60FB6818461437BD4680BC7047224700402047004090B484B000AF0446084611461E
:406780001A462346FB710346BB800B46BB711346FB700723FB601B4B1B78DBB203F00203002B26D0184BB6221A70174BD8221A70154B05221A70134B1B78DBB203F0020389
:4067C000002B13D1104AFB7913700F4ABB881B0A9BB2DBB213700C4BBA88D2B21A700A4ABB791370084AFB78137004E00923FB6001E00423FB60FB6818461037BD4690BCFC
:40680000704700BF224700402047004080B485B000AF0346FB710723FB60134B1B78DBB203F00203002B16D0104BB6221A700F4BE1221A700D4B0E221A700B4B1B78DBB28D
:4068400003F00203002B03D1084AFB79137004E00923FB6001E00423FB60FB6818461437BD4680BC704700BF224700402047004080B582B000AF04237B60FFF7C4FD0346E1
:40688000FB70124B1B78002B16D1104B01221A7000237B600E4B1B6803F00103002B0BD00B4A0B4B1B6823F00103136000BF00BF00BF084B01221A60FB781846FFF7A7FD3C
:4068C0007B6818460837BD4680BD00BF6484FF1F040008406884FF1F80B582B000AFFFF792FD0346FB710D4B00221A700C4B1B68012B0BD10B4A0B4B1B6843F001031360AF
:4069000000BF00BF00BF064B00221A60FB791846FFF77DFD00BF0837BD4680BD6484FF1F6884FF1F0400084080B483B000AF07237B600C4B1B78DBB203F00203002B09D0C3
:40694000094BB6221A70084BE0221A70064B0D221A7001E004237B607B6818460C37BD4680BC70472247004020470040014B1868704700BF1C84FF1F0E4B70B51E460E4C8F
:406980000025E41AA410A54204D056F8253098470135F8E700F0DCF8084B094C1E46E41AA4100025A54204D056F8253098470135F8E770BD5C6B00005C6B00005C6B000033
:4069C000646B000010B5431E0A44914204D011F8014B03F8014FF8E710BD000000000000313233345AA50480030006005AA5048003000900280000003000000038000000EC
:406A000040000000480000004800000048000000480000004084FF1F4084FF1F4084FF1F4084FF1F4084FF1F4084FF1F4084FF1F4084FF1F4084FF1F4084FF1F4084FF1F40
:406A400000000048080000481000004818000048280000483400004840000048CC080048EC080048200000484C000048CC0000484C010048CC0100484C020048CC02004894
:406A80004C030048CC0300484C040048CC0400484C050048CC0500484C060048CC0600484C070048CC0700484C0800480C0900481C0900482C090048AC0900482C0A0048FE
:406AC000AC0A00482C0B0048AC0B00482C0C0048AC0C00482C0D0048AC0D00482C0E0048AC0E00482C0F0048AC0F00482C100048AC1000482C110048AC1100482C12004876
:406B0000AC1200482C130048AC1300482C140048AC1400482C150048AC1500482C160048AC1600482C170048AC1700482C180048AC1800482C190048AC1900482C1A0048B5
:406B4000AC1A00482C1B0048AC1B004843000000F8B500BFF8BC08BC9E4670472503000095510000F8B500BFF8BC08BC9E46704701030000886B0000C880FF1F5803000062
:406B8000D006000000000000000000000A00000047000000204553544143494F4E20444520534552564943494F2000002020202050525545424153204D455053414E202035
:406BC0002020000020202054656C3A20283537293132333435362020202000002020204E49543A203930302E3132332E343536202020000020534953504554524F4C204987
:406C00004E47454E49455249412000002020534F4C5543494F4E455320504152412045445320000044696573656C2020436F727269656E7465000000466563686120202086
:406C40002020203A20000000486F7261202020202020203A20000000506C6163612020202020203A200000004B696C6F6D657472616A653A200000005469706F20202020AE
:406C80002020203A20000000506F736963696F6E2020203A2000000050726F647563746F2020203A2000000050707520202020202020203A20000000566F6C756D656E207D
:406CC0002020203A20000000546F742E566F6C202020203A2000000044696E65726F20202020203A20000000436965727265204E6F20203A2000000056656E7461204E6F63
:406D00002020203A20000000436F6E736563757469766F3A2000000053616C646F2020202020203A20000000456D7072657361202020203A200000004375656E7461202059
:406D40002020203A2000000053657269616C20202020203A200000005469706F204375656E74613A2000000056697369746173204469613A2000000056697369746173201B
:406D800053656D3A2000000056697369746173204D65733A20000000566F6C756D656E204469613A20000000566F6C756D656E2053656D3A20000000566F6C756D656E20D9
:406DC0004D65733A2000000044696E65726F20446961203A2000000044696E65726F2053656D203A2000000044696E65726F204D6573203A2000000056616C6F72205072E5
:406E00006F672E3A200000004669726D612020202020203A20000000436564756C6120202020203A200000002400000056616C6F722061637475616C3A20202056616C6FB5
:406E40007220616E746572696F723A202A2A2A2A2A2A2A2A2A2A2A2A2A2A2A2A2A2A2A2A2A2A2A2A5AA503812007000000366E01C05D0000180000000000E02E0000000040
:406E8000000000000000000000000000000000000000000000000000000000004C6B000000000000000000000000000000000000000000000000000000000000000000001B
:406EC00000000000000000000000000000000000000000000000000000000000BC83FF1F000000000000000000000000000000000000000000000000000000000000000035
:406F00000000000000000000000000000000000000000000000000000000000000000000000000000000000000000000000000000000000000000000000000000000000051
:406F40000000000000000000000000000000000000000000000000000000000000000000000000000000000000000000000000000000000000000000000000000000000011
:406F800000000000000000000000000000000000000000000000000000000000000000000000000000000000000000000000000000000000000000000000000000000000D1
:406FC0000000000000000000000000000000000000000000000000000000000000000000000000000000000000000000000000000000000000000000000000000000000091
:020000040003F7
:0200000480007A
:400000008000000040000000000000000D00000080800000080000002000000010000000FF03000000000000004000000000000000009C00008000000000000000004B0012
:40004000008000000000000000004B0000000000000000000000000000000000000000000000000000000000000000000000000000000000000000000000000000000000B5
:40008000000000008000000000004000000000000000000000000000000000000000000000000000040000000000000100000000000000000000000000000000000000007B
:4000C0000000000000000000000000000000021500030234002A001400000100000000000003001C00030204000001000000000002000000020000280000002002000138C1
:40010000000F0000000000280000050031020000000C00EB31FFFFFF0000F0440C000000180004000404040400000001000000000000C000000040020000000000000000BC
:4001400000000000000000000000000000000000000C007100000003001402000000000000DC0022000900D001000020000002000000000000100040001000AC0200011FC1
:4001800000E000000000002000000500060000000000000400FF07FF4020F0050800000001000000040404041021000140A840200000000000000000000000000000000043
:4001C000000000000000000000000000000000001B23201C52002001000029000000000000184027000000181B0060000440000718002000800000100023000C8001041EF2
