:400000000080002011000000C5560000C556000080B500AF024A034B1B68136005F05CFBBC760040FA460040010000000020004001000000002001400100000000480040DB
:400040000100000000480140010000000100000008000223000008760800032300001076080004230000287608000523000030760500062300002070050007230000307065
:4000800005000823000060700500FE230000707010000A220000005130000B22000040511000FE220000C05100020D220000000080000E220000800200010F2200000044A5
:4000C000800010220000004780001122000000488000FE220000004D07001323000008520700142300001052070015230000185207001623000078520C0017230000004FA0
:4001000020001823000070642000FE230000706508001A230000005180001B230000000280001C230000000480001D230000800480001E230000000680001F23000080060E
:4001400080002023000000088000212300008008800022230000000A800023230000800A800024230000000C800025230000800C800026230000000E800027230000800EF3
:400180008000282300000014800029230000801480002A230000001680002B230000801680002C230000001880002D230000801880002E230000001A80002F230000801A13
:4001C00010003023000010501000312300000050800032230000804D800033230000004C800034230000804C800035230000804780003623000000468000372300008046C3
:400200008000382300000045800039230000804580003A230000001B80003B230000801B80003C230000001580003D230000801580003E230000001980003F2300008019AE
:40024000800040230000001780004123000080178000422300000009800043230000800980004423000000078000452300008007800046230000000B800047230000800BE6
:400280008000482300000005800049230000800580004A230000000D80004B230000800D80004C230000000380004D230000800380004E230000000F80004F230000800F82
:4002C0008000502300000049800051230000804980005223000080488000532300000043800054230000804380005523000000428000562300008042800057230000004125
:40030000800058230000804180005923000000408000FE230000804010B5054C237833B9044B13B10448AFF300800123237010BD6884FF1F000000001C700000084B10B514
:400340001BB108490848AFF300800848036803B910BD074B002BFBD0BDE81040184700BF000000006C84FF1F1C700000C880FF1F0000000090B583B000AF724B1B78FF2BAE
:4003800007D0704B93F82D31FF2B02D16E4B01221A706C4B1B78FF2B07D06A4B93F82D31FF2B02D0684B02221A70664B93F85A32FF2B07D0634B93F88733FF2B02D1624BB3
:4003C00003221A705F4B93F85A32FF2B07D05D4B93F88733FF2B02D05B4B04221A705A4B1B78012B09D1574B1B78184602F02AFE03461A46534B83F84C20534B1B78022BD6
:4004000029D1504B93F82B31062B04D14D4B1B78184602F0A9FD4B4B93F85832062B05D1484B93F82D31184602F09EFD454B1B78184602F007FE03461A46424B83F84C206B
:40044000404B93F82D31184602F0FCFD03461A463C4B83F879213C4B1B78032B2ED10023FB7128E0FC79374B1B78184602F0EAFD03461A46334B234483F84C20FC79314B75
:4004800093F82D31184602F0DDFD03461A462D4B234483F87921FC792A4B93F85A32184602F0D0FD03461A46264B234483F8A622FB790133FB71FB79042BD3D9224B1B7847
:4004C000042B3BD10023FB7135E0FC791D4B1B78184602F0B7FD03461A461A4B234483F84C20FC79174B93F82D31184602F0AAFD03461A46134B234483F87921FC79114B42
:4005000093F85A32184602F09DFD03461A460D4B234483F8A622FC790A4B93F88733184602F090FD03461A46064B234483F8D323FB790133FB71FB79042BC6D900BF0C37F9
:40054000BD4690BDB884FF1FF289FF1F90B58FB000AF864A07F11C0310681860844A07F11403106818609188927999809A71814A07F10C03106818609188927999809A710F
:400580007D4B03221A7005F03BF962B605F090FE06F058F805F088FD05F0A2FA05F0D6FC002005F063FD03465A2B19D1002387F8373010E097F8374097F837309BB218461B
:4005C00005F054FD03461A466C4B1A5597F83730013387F8373097F83730052BEAD915E000215A2005F0B8FC012387F8373009E097F83730614A3021D15497F83730013380
:4006000087F8373097F83730052BF1D95B4B5B7903F00F03DBB21B01DAB2584B1B7903F00F03DBB219469B00CB1ADB00DBB21344DAB2524B9B7803F00F03DBB21946890013
:400640000B445B00D9B24D4BDB7803F00F03DBB2184680000344184684001846234603449B00DBB20B44DBB21344DAB2434B5B7803F00F03DBB21344DAB2414B1A700620BA
:4006800005F0F4FC03465A2B1CD1002387F8373013E097F837309C1D97F837309BB206339BB2184605F0E2FC03461A46354B1A5597F83730013387F8373097F83730052B27
:4006C000E7D916E006215A2005F046FC012387F837300AE097F8373006332A4A3021D15497F83730013387F8373097F83730052BF0D9244B5B7903F00F03DBB21B01DAB2E3
:40070000204B1B7903F00F03DBB219469B00CB1ADB00DBB21344DAB21A4B9B7803F00F03DBB2194689000B445B00D9B2154BDB7803F00F03DBB2184680000344184684008B
:400740001846234603449B00DBB20B44DBB21344DAB20C4B5B7803F00F03DBB21344DAB2094B1A70002387F8373094E020700000247000002C700000B289FF1FB084FF1F1F
:40078000F389FF1FE889FF1FEE89FF1F97F8374097F837309BB20C339BB2184605F066FC03461A46C64B234483F8292097F8374097F837309BB20F339BB2184605F056FC8F
:4007C00003461A46BE4B234483F82C2097F8374097F837309BB212339BB2184605F046FC03461A46B64B234483F82F2097F8374097F837309BB215339BB2184605F036FC6B
:4008000003461A46AE4B234483F8322097F8374097F837309BB218339BB2184605F026FC03461A46A64B234483F8562197F8374097F837309BB21B339BB2184605F016FC50
:4008400003461A469E4B234483F8592197F8374097F837309BB21E339BB2184605F006FC03461A46964B234483F85C2197F8374097F837309BB221339BB2184605F0F6FB37
:4008800003461A468E4B234483F85F2197F83730013387F8373097F83730022B7FF676AF874B93F829301B09DBB23033DAB2844B83F80B21824B93F8293003F00F03DBB278
:4008C0003033DAB27E4B83F80C217D4B93F82A301B09DBB23033DAB2794B83F80D21784B93F82A3003F00F03DBB23033DAB2744B83F80E21724B93F82B301B09DBB2303395
:40090000DAB26F4B83F80F216D4B93F82B3003F00F03DBB23033DAB2694B83F81021684B93F856311B09DBB23033DAB2644B83F83822634B93F8563103F00F03DBB23033A9
:40094000DAB25F4B83F839225D4B93F857311B09DBB23033DAB25A4B83F83A22584B93F8573103F00F03DBB23033DAB2544B83F83B22534B93F858311B09DBB23033DAB294
:400980004F4B83F83C224E4B93F8583103F00F03DBB23033DAB24A4B83F83D22002387F833300FE097F8334097F83330184602F083FA03461A46434B1A5597F833300133A6
:4009C00087F8333097F833300F2BEBD93D4B5A783B4B1A703B4B9A78394B83F82D21394BDA78374B83F85A22364B1A79344B83F88723334B00221A70314B012283F82D213D
:400A0000314B00221A70002387F836302F4B00221A70FFF7AFFC05F02FF9034687F8203097F82030042B16D9002387F832300CE097F8324005F0D8F803461A46244B1A5550
:400A400097F83230013387F8323097F8322097F820309A42ECD3042004F0A2FF1C4B1B7A1C2B25D01C2B05DC0A2B58D00B2B00F0A78048E1CA2B3CD0CC2B00F0F780AA2BF5
:400A800040F04181012387F83630002387F8313009E097F831300E4A0021D15497F83130013387F8313097F83130132BF1D91BE3022387F83630002387F8303014E000BF08
:400AC000B884FF1F7089FF1FEF89FF1FF089FF1FF889FF1F97F83030C84A0021D15497F83030013387F8303097F83030132BF1D9FAE2032387F83630002387F82F3009E0A8
:400B000097F82F30BD4A0021D15497F82F30013387F82F3097F82F30132BF1D9E4E297F83630012B1FD1002387F83630B44B1B78B449184602F048FBB14B1B78184602F0A4
:400B400013FA002387F82E3009E097F82E30AB4A0021D15497F82E30013387F82E3097F82E30132BF1D997F83630022B40F0B7820A2387F83630A24B1B78184602F062FA9B
:400B80009F4B1878A04B1B780122194602F0A6FB9B4B1B78184602F055FA002387F82D3009E097F82D30954A0021D15497F82D30013387F82D3097F82D30132BF1D98EE2B7
:400BC00097F83630012B21D1002387F836308C4B93F82D318D49184602F0F6FA884B93F82D31184602F0C0F9002387F82C3009E097F82C30814A0021D15497F82C3001333D
:400C000087F82C3097F82C30132BF1D997F83630022B40F066820B2387F83630784B93F82D31184602F00EFA754B93F82D01764B1B780122194602F051FB714B93F82D3163
:400C4000184602F0FFF9002387F82B3009E097F82B306A4A0021D15497F82B30013387F82B3097F82B30132BF1D93AE2644B93F82D31184602F0E6F9614B93F82D01624B83
:400C80001B780122194602F029FB0A2004F088FE5B4B93F82D31184602F0D4F9584B1B78184602F0CFF9564B1878574B1B780122194602F013FB0A2004F072FE504B1B78C7
:400CC000184602F0BFF94E4B93F82D31184602F0B9F94B4B1B78184602F0B4F9002387F82A3009E097F82A30444A0021D15497F82A30013387F82A3097F82A30132BF1D9B9
:400D000003F054FBF0E13D4BDB78832B40F0E78097F834300A2B40F0E280384B1B7AE12B00F0DD80002387F829300BE097F82930334A1344302283F80B2197F8293001339E
:400D400087F8293097F82930052BEFD9002387F835302F4B00221A70002387F83430072387F8283021E097F82830244AD35C002B1FD097F82830214AD35CFF2B19D097F8C5
:400D80002830073B97F828201C498A5C07F138010B4403F8342C97F83530013387F8353097F82830013387F8283097F828300B2BD9D9062387F837301BE097F8373097F840
:400DC000352007F138010A4412F8341C0C4A13440A4683F80B2197F83530002B1AD097F83530013B87F8353097F83730013B87F8373097F83730002BDFD10CE0F889FF1F90
:400E0000B884FF1FE184FF1FEF89FF1F0E86FF1FF089FF1F00BFB64B93F80B31303B1B015AB2B34B93F80C31303BDBB25BB213435BB2DAB2AE4B83F82920AD4B93F80D31A4
:400E4000303B1B015AB2AA4B93F80E31303BDBB25BB213435BB2DAB2A54B83F82A20A44B93F80F31303B1B015AB2A14B93F81031303BDBB25BB213435BB2DAB29C4B83F81C
:400E80002B20002387F8373013E097F83730984A134493F8292097F837309BB20C339BB21946104605F058F897F83730013387F8373097F83730022BE7D9002387F8273033
:400EC00009E097F827308B4A0021D15497F82730013387F8273097F82730132BF1D9854BDB78832B0AD197F83430012B06D1814B1A7A814B1A700A2387F834307D4BDB78A7
:400F0000832B58D197F83630032B54D1002387F83630784BDA793B7F9A422CD1754B1A7A7B7F9A4227D1734B5A7ABB7F9A4222D1704B9A7AFB7F9A421DD16E4BDB7AFF2BD9
:400F400019D1002387F826300EE097F8263007F13802134413F8243C184604F0D5FE97F82630013387F8263097F82630052BECD9042004F015FD5F4B1B7A012B02D101234F
:400F800087F834305B4B1B7A022B02D1022387F83430002387F8253009E097F82530554A0021D15497F82530013387F8253097F82530132BF1D94F4BDB78832B44D197F84B
:400FC00036300A2B40D1002387F83630072387F824301EE097F82430464AD35C002B1CD097F82430434AD35CFF2B16D097F82430073B97F824203F498A5C203AD1B23C4A11
:4010000013440A4683F8232197F82430013387F8243097F824300E2BDCD9002387F8233009E097F82330334A0021D15497F82330013387F8233097F82330132BF1D92C4BC3
:401040001B78184602F0D0F92A4BDB78832B4AD197F836300B2B46D1002387F83630072387F822301EE097F82230224AD35C002B1CD097F822301F4AD35CFF2B16D097F845
:401080002230073B97F822201A498A5C203AD1B2174A13440A4683F8502297F82230013387F8223097F822300E2BDCD9002387F8213009E097F821300E4A0021D15497F812
:4010C0002130013387F8213097F82130132BF1D9074B93F82D31184602F086F903E000BF02E000BF00E000BF002387F8203090E4B884FF1FF889FF1FF089FF1F80B489B064
:4011000000AF78600B467B800023FB830023BB617B68002B2FD1002368E0FB8BDB0B9BB2BB60FB8B5B00FB837B681B781A46BB6942FA03F31BB203F001031AB2B7F91E3096
:4011400013431BB2FB83BB690133BB61BB69072B07DD0023BB617B6801337B607B88013B7B80BB68002B06D0FB8B83F4FF4383F07A03DB43FB837B88002BCED100237B61FA
:4011800013E0FB8BDB0B9BB2BB60FB8B5B00FB83BB68002B06D0FB8B83F4FF4383F07A03DB43FB837B6901337B617B690F2BE8DD00237B824FF400437B610123FB6011E051
:4011C000FA8B7B691340002B06D0FB681AB2B7F9123013431BB27B827B695B107B61FB685B00FB607B69002BEAD17B8A18462437BD4680BC704700BFF0B587B000AF184B82
:401200001B787B71164B5B7803F00F033B71154B1B783A799A4240F0CE83124B002283F82B210123FB750CE0FB7D013BFA7D0C49895C0C4A13440A4683F85120FB7D013387
:40124000FB75FA7D7B7901339A42EDDB054B93F85330652B40F07F820523BB7525E000BF8089FF1FB884FF1FCD4B93F8553003F00F03591ECB4B1B781D46BB7D581FBB7D68
:40128000C74A134493F85160C54C2A4692002A440B469B000B445B00134423440344013332461A70BB7D0133BB75BA7DBC4B93F8543004339A42D7DBB94B93F8553003F083
:4012C0000F03591EB74B1B781D46B54B93F8553003F00F03581EB34B1B78B14C1A4692001A4403469B0003445B001344234401331B781B09DBB23033DCB2A9482A46920064
:401300002A4453001A460B461B015B1A5B0013440344833322461A70A14B93F8553003F00F03591E9F4B1B781D469D4B93F8553003F00F03581E9B4B1B78994C1A469200EE
:401340001A4403469B0003445B001344234401331B7803F00F03DBB23033DCB290482A4692002A4453001A460B461B015B1A5B0013440344843322461A70894B93F855301E
:4013800003F00F03591E874B1B781D46844B93F8553003F00F03581E824B1B78804C1A4692001A4403469B0003445B001344234402331B781B09DBB23033DCB278482A4635
:4013C00092002A4453001A460B461B015B1A5B0013440344853322461A70714B93F8553003F00F03591E6F4B1B781D466C4B93F8553003F00F03581E6A4B1B78684C1A461F
:4014000092001A4403469B0003445B001344234402331B7803F00F03DBB23033DCB260482A4692002A4453001A460B461B015B1A5B0013440344863322461A70584B93F8AE
:40144000553003F00F03591E564B1B781D46544B93F8553003F00F03581E524B1B78504C1A4692001A4403469B0003445B001344234403331B781B09DBB23033DCB248484F
:401480002A4692002A4453001A460B461B015B1A5B0013440344873322461A70404B93F8553003F00F03591E3E4B1B781D463C4B93F8553003F00F03581E3A4B1B78384C3E
:4014C0001A4692001A4403469B0003445B001344234403331B7803F00F03DBB23033DCB22F482A4692002A4453001A460B461B015B1A5B0013440344883322461A70284B77
:4015000093F8553003F00F03591E264B1B781D46234B93F8553003F00F03581E214B1B781F4C1A4692001A4403469B0003445B001344234404331B781B09DBB23033DCB255
:4015400017482A4692002A4453001A460B461B015B1A5B0013440344893322461A70104B93F8553003F00F03591E0E4B1B781D460B4B93F8553003F00F03581E094B1B7862
:40158000074C1A4692001A4403469B0003445B001344234404331B7803F00F03DBB203E0B884FF1FEF89FF1F3033DCB2B8482A4692002A4453001A460B461B015B1A5B00C4
:4015C000134403448A3322461A70B14B93F8553003F00F03591EAF4B1B781D46AC4B93F8553003F00F03581EAA4B1B78A84C1A4692001A4403469B0003445B001344234494
:4016000005331B781B09DBB23033DCB2A0482A4692002A4453001A460B461B015B1A5B00134403448B3322461A70994B93F8553003F00F03591E974B1B781D46944B93F8F5
:40164000553003F00F03581E924B1B78904C1A4692001A4403469B0003445B001344234405331B7803F00F03DBB23033DCB288482A4692002A4453001A460B461B015B1A67
:401680005B00134403448C3322461A7000237B753AE07F4B93F8553003F00F03591E7D4B1B7897F915007A4C1A4692001A4453001A460B461B015B1A5B00134423440344F2
:4016C00083331B78302B24D1714B93F8553003F00F03591E6F4B1B7897F915006C4C1A4692001A4453001A460B461B015B1A5B00134423440344833300221A7097F91530E3
:40170000DBB20133DBB27B7597F91530072BC0DD00E000BF012004F0C5F93B7943F05003DBB2184604F006FF594B93F852305BB203F00F035BB263F03F035BB2DBB21846DA
:4017400004F0F8FEFA2004F0F5FE042004F028F9002004F0A7F94E4B93F85330022B40F0138104233B751BE03B7D043B3A7D48490A4492F85110464A13440A4683F83920A4
:401780003B7D043B3A7D043241490A4492F851103F4A13440A4683F835203B7D01333B753B7D072BE0D93A4B93F839301B09DBB23033DAB2364B83F80321354B93F8393096
:4017C00003F00F03DBB23033DAB2314B83F804212F4B93F83A301B09DBB23033DAB22C4B83F805212A4B93F83A3003F00F03DBB23033DAB2264B83F80621254B93F83B30C1
:401800001B09DBB23033DAB2214B83F80721204B93F83B3003F00F03DBB23033DAB21C4B83F808211A4B93F83C301B09DBB23033DAB2174B83F80921154B93F83C3003F0BF
:401840000F03DBB23033DAB2114B83F80A210023FB7414E097F913300D4A134493F80331302B1BD197F91330094A1344002283F8032197F91330DBB20133DBB2FB7497F96D
:401880001320054B1B7801339A42E3DB07E000BFB884FF1FEF89FF1FB289FF1F00BF5A4B93F835301B09DBB23033DAB2564B83F8FB20554B93F8353003F00F03DBB23033A5
:4018C000DAB2514B83F8FC204F4B93F836301B09DBB23033DAB24C4B83F8FD204A4B93F8363003F00F03DBB23033DAB2464B83F8FE20454B93F837301B09DBB23033DAB27C
:40190000414B83F8FF20404B93F8373003F00F03DBB23033DAB23C4B83F800213A4B93F838301B09DBB23033DAB2374B83F80121354B93F8383003F00F03DBB23033DAB235
:40194000314B83F802210023BB7414E097F912302D4A134493F8FB30302B11D197F91230294A1344002283F8FB2097F91230DBB20133DBB2BB7497F91230072BE6DD00E02A
:4019800000BF002004F08EF81F4B93F85330032B11D11D4B93F85430042B0CD11A4B062283F82B21184B93F8583003F00F03DAB2154B83F82C21144B93F82D313A799A4269
:4019C00040F0E383104B002283F82B2101237B740CE07B7C013B7A7C0C49895C0A4A13440A4683F87E217B7C01337B747A7C7B7901339A42EDDB044B93F88031652B40F06F
:401A0000958205233B7425E0B884FF1F8089FF1FCD4B93F8823103F00F03591ECB4B1B781D463B7C581F3B7CC74A134493F87E61C54C2A4692002A440B469B000B445B0086
:401A400013442344034403F5977332461A703B7C01333B743A7CBC4B93F8813104339A42D6DBB94B93F8823103F00F03591EB74B1B781D46B44B93F8823103F00F03581E97
:401A8000B24B1B78B04C1A4692001A4403469B0003445B001344234403F597731B781B09DBB23033DCB2A8482A4692002A4453001A460B461B015B1A5B001344034403F5E9
:401AC000D87322461A70A04B93F8823103F00F03591E9E4B1B781D469B4B93F8823103F00F03581E994B1B78974C1A4692001A4403469B0003445B001344234403F5977396
:401B00001B7803F00F03DBB23033DCB28E482A4692002A4453001A460B461B015B1A5B001344034403F2B11322461A70864B93F8823103F00F03591E844B1B781D46824BF3
:401B400093F8823103F00F03581E804B1B787E4C1A4692001A4403469B0003445B001344234403F22F131B781B09DBB23033DCB275482A4692002A4453001A460B461B0137
:401B80005B1A5B001344034403F5D97322461A706D4B93F8823103F00F03591E6B4B1B781D46694B93F8823103F00F03581E674B1B78654C1A4692001A4403469B00034485
:401BC0005B001344234403F22F131B7803F00F03DBB23033DCB25C482A4692002A4453001A460B461B015B1A5B001344034403F2B31322461A70544B93F8823103F00F034E
:401C0000591E524B1B781D464F4B93F8823103F00F03581E4D4B1B784B4C1A4692001A4403469B0003445B001344234403F598731B781B09DBB23033DCB243482A4692002C
:401C40002A4453001A460B461B015B1A5B001344034403F5DA7322461A703B4B93F8823103F00F03591E394B1B781D46364B93F8823103F00F03581E344B1B78324C1A464D
:401C800092001A4403469B0003445B001344234403F598731B7803F00F03DBB23033DCB229482A4692002A4453001A460B461B015B1A5B001344034403F2B51322461A70B9
:401CC000214B93F8823103F00F03591E1F4B1B781D461D4B93F8823103F00F03581E1B4B1B78194C1A4692001A4403469B0003445B001344234403F231131B781B09DBB2CE
:401D00003033DCB210482A4692002A4453001A460B461B015B1A5B001344034403F5DB7322461A70084B93F8823103F00F03591E064B1B781D46044B93F8823103F00F033E
:401D4000581E024B1B7803E0B884FF1FEF89FF1FC44C1A4692001A4403469B0003445B001344234403F231131B7803F00F03DBB23033DCB2BB482A4692002A4453001A4621
:401D80000B461B015B1A5B001344034403F2B71322461A70B34B93F8823103F00F03591EB14B1B781D46AF4B93F8823103F00F03581EAD4B1B78AB4C1A4692001A4403461F
:401DC0009B0003445B001344234403F599731B781B09DBB23033DCB2A2482A4692002A4453001A460B461B015B1A5B001344034403F5DC7322461A709A4B93F8823103F078
:401E00000F03591E984B1B781D46964B93F8823103F00F03581E944B1B78924C1A4692001A4403469B0003445B001344234403F599731B7803F00F03DBB23033DCB28948D7
:401E40002A4692002A4453001A460B461B015B1A5B001344034403F2B91322461A700023FB733CE07F4B93F8823103F00F03591E7D4B1B7897F90F007A4C1A4692001A4470
:401E800053001A460B461B015B1A5B0013442344034403F5D8731B78302B25D1714B93F8823103F00F03591E6F4B1B7897F90F006C4C1A4692001A4453001A460B461B017C
:401EC0005B1A5B0013442344034403F5D87300221A7097F90F30DBB20133DBB2FB7397F90F30072BBEDD00E000BF012003F0DAFD3B7943F05003DBB2184604F01BFB594B9A
:401F000093F87F315BB203F00F035BB263F03F035BB2DBB2184604F00DFBFA2004F00AFB042003F03DFD002003F0BCFD4D4B93F88031022B40F012810423BB731BE0BB7B44
:401F4000043BBA7B47490A4492F87E11454A13440A4683F86621BB7B043BBA7B043241490A4492F87E113F4A13440A4683F86221BB7B0133BB73BB7B072BE0D9394B93F8F7
:401F800066311B09DBB23033DAB2364B83F83022344B93F8663103F00F03DBB23033DAB2304B83F831222F4B93F867311B09DBB23033DAB22B4B83F832222A4B93F8673117
:401FC00003F00F03DBB23033DAB2264B83F83322244B93F868311B09DBB23033DAB2214B83F834221F4B93F8683103F00F03DBB23033DAB21B4B83F835221A4B93F86931DE
:402000001B09DBB23033DAB2164B83F83622154B93F8693103F00F03DBB23033DAB2114B83F8372200237B7314E097F90D300D4A134493F83032302B1AD197F90D30094AC3
:402040001344002283F8302297F90D30DBB20133DBB27B7397F90D20044B1B7801339A42E3DB06E0B884FF1FEF89FF1FB289FF1F00BF584B93F862311B09DBB23033DAB255
:40208000544B83F82822534B93F8623103F00F03DBB23033DAB24F4B83F829224D4B93F863311B09DBB23033DAB24A4B83F82A22484B93F8633103F00F03DBB23033DAB239
:4020C000444B83F82B22434B93F864311B09DBB23033DAB23F4B83F82C223E4B93F8643103F00F03DBB23033DAB23A4B83F82D22384B93F865311B09DBB23033DAB2354BAB
:4021000083F82E22334B93F8653103F00F03DBB23033DAB22F4B83F82F2200233B7314E097F90C302B4A134493F82832302B11D197F90C30274A1344002283F8282297F9E4
:402140000C30DBB20133DBB23B7397F90C30072BE6DD00E000BF002003F0A4FC1D4B93F88031032B11D11B4B93F88131042B0CD1184B062283F85822164B93F8853103F09C
:402180000F03DAB2134B83F85922124B93F85A323A799A4240F03D830123FB720CE0FB7A013BFA7A0C49895C0A4A13440A4683F8AB22FB7A0133FB72FA7A7B7901339A428D
:4021C000EDDB044B93F8AD32652B40F04F820523BB7225E0B884FF1F8089FF1FCD4B93F8AF3203F00F03591ECB4B1B781D46BB7A581FBB7AC74A134493F8AB62C54C2A4684
:4022000092002A440B469B000B445B0013442344034403F25B2332461A70BB7A0133BB72BA7ABC4B93F8AE3204339A42D6DBB94B93F8AF3203F00F03591EB74B1B781D46AA
:40224000B44B93F8AF3203F00F03581EB24B1B78B04C1A4692001A4403469B0003445B001344234403F25B231B781B09DBB23033DCB2A8482A4692002A4453001A460B464C
:402280001B015B1A5B001344034403F2DD2322461A70A04B93F8AF3203F00F03591E9E4B1B781D469B4B93F8AF3203F00F03581E994B1B78974C1A4692001A4403469B00A0
:4022C00003445B001344234403F25B231B7803F00F03DBB23033DCB28E482A4692002A4453001A460B461B015B1A5B001344034403F2DE2322461A70864B93F8AF3203F009
:402300000F03591E844B1B781D46824B93F8AF3203F00F03581E804B1B787E4C1A4692001A4403469B0003445B001344234403F517731B781B09DBB23033DCB275482A46FB
:4023400092002A4453001A460B461B015B1A5B001344034403F2DF2322461A706D4B93F8AF3203F00F03591E6B4B1B781D46694B93F8AF3203F00F03581E674B1B78654C09
:402380001A4692001A4403469B0003445B001344234403F517731B7803F00F03DBB23033DCB25C482A4692002A4453001A460B461B015B1A5B001344034403F53873224644
:4023C0001A70544B93F8AF3203F00F03591E524B1B781D464F4B93F8AF3203F00F03581E4D4B1B784B4C1A4692001A4403469B0003445B001344234403F25D231B781B0936
:40240000DBB23033DCB243482A4692002A4453001A460B461B015B1A5B001344034403F2E12322461A703B4B93F8AF3203F00F03591E394B1B781D46364B93F8AF3203F0E2
:402440000F03581E344B1B78324C1A4692001A4403469B0003445B001344234403F25D231B7803F00F03DBB23033DCB229482A4692002A4453001A460B461B015B1A5B0054
:402480001344034403F2E22322461A70214B93F8AF3203F00F03591E1F4B1B781D461D4B93F8AF3203F00F03581E1B4B1B78194C1A4692001A4403469B0003445B00134404
:4024C000234403F25E231B781B09DBB23033DCB210482A4692002A4453001A460B461B015B1A5B001344034403F2E32322461A70084B93F8AF3203F00F03591E064B1B7868
:402500001D46044B93F8AF3203F00F03581E024B1B7803E0B884FF1FEF89FF1FC24C1A4692001A4403469B0003445B001344234403F25E231B7803F00F03DBB23033DCB221
:40254000B9482A4692002A4453001A460B461B015B1A5B001344034403F5397322461A70B14B93F8AF3203F00F03591EAF4B1B781D46AD4B93F8AF3203F00F03581EAB4B1D
:402580001B78A94C1A4692001A4403469B0003445B001344234403F25F231B781B09DBB23033DCB2A0482A4692002A4453001A460B461B015B1A5B001344034403F2E52370
:4025C00022461A70984B93F8AF3203F00F03591E964B1B781D46944B93F8AF3203F00F03581E924B1B78904C1A4692001A4403469B0003445B001344234403F25F231B7897
:4026000003F00F03DBB23033DCB287482A4692002A4453001A460B461B015B1A5B001344034403F2E62322461A70012003F03AFA3B7943F05003DBB2184603F07BFF7A4BBB
:4026400093F8AC325BB203F00F035BB263F03F035BB2DBB2184603F06DFFFA2003F06AFF042003F09DF9002003F01CFA6E4B93F8AD32022B40F0CD8004237B721BE07B7AC9
:40268000043B7A7A68490A4492F8AB12664A13440A4683F893227B7A043B7A7A043262490A4492F8AB12604A13440A4683F88F227B7A01337B727B7A072BE0D95A4B93F8D9
:4026C00093321B09DBB23033DAB2574B83F85D23554B93F8933203F00F03DBB23033DAB2514B83F85E23504B93F894321B09DBB23033DAB24C4B83F85F234B4B93F89432C8
:4027000003F00F03DBB23033DAB2474B83F86023454B93F895321B09DBB23033DAB2424B83F86123404B93F8953203F00F03DBB23033DAB23C4B83F862233B4B93F89632BC
:402740001B09DBB23033DAB2374B83F86323364B93F8963203F00F03DBB23033DAB2324B83F86423304B93F88F321B09DBB23033DAB22D4B83F855232B4B93F88F3203F0DB
:402780000F03DBB23033DAB2274B83F85623264B93F890321B09DBB23033DAB2224B83F85723214B93F8903203F00F03DBB23033DAB21D4B83F858231B4B93F891321B09F5
:4027C000DBB23033DAB2184B83F85923164B93F8913203F00F03DBB23033DAB2124B83F85A23114B93F892321B09DBB23033DAB20D4B83F85B230C4B93F8923203F00F0337
:40280000DBB23033DAB2084B83F85C23002003F049F9054B93F887333A799A4240F0438301233B7211E000BFB884FF1FEF89FF1F3B7A013B3A7A0C49895C0C4A13440A4613
:4028400083F8D8233B7A01333B723A7A7B7901339A42EDDB054B93F8DA33652B40F050820523FB7126E000BF8089FF1FB884FF1FCD4B93F8DC3303F00F03591ECB4B1B78A1
:402880001D46FB79581FFB79C74A134493F8D863C54C2A4692002A440B469B000B445B0013442344034403F5627332461A70FB790133FB71FA79BC4B93F8DB3304339A4203
:4028C000D6DBB94B93F8DC3303F00F03591EB74B1B781D46B44B93F8DC3303F00F03581EB24B1B78B04C1A4692001A4403469B0003445B001344234403F562731B781B095D
:40290000DBB23033DCB2A8482A4692002A4453001A460B461B015B1A5B001344034403F20A4322461A70A04B93F8DC3303F00F03591E9E4B1B781D469B4B93F8DC3303F0A4
:402940000F03581E994B1B78974C1A4692001A4403469B0003445B001344234403F562731B7803F00F03DBB23033DCB28E482A4692002A4453001A460B461B015B1A5B00C8
:402980001344034403F20B4322461A70864B93F8DC3303F00F03591E844B1B781D46824B93F8DC3303F00F03581E804B1B787E4C1A4692001A4403469B0003445B00134461
:4029C000234403F289331B781B09DBB23033DCB275482A4692002A4453001A460B461B015B1A5B001344034403F20C4322461A706D4B93F8DC3303F00F03591E6B4B1B7882
:402A00001D46694B93F8DC3303F00F03581E674B1B78654C1A4692001A4403469B0003445B001344234403F289331B7803F00F03DBB23033DCB25C482A4692002A445300B2
:402A40001A460B461B015B1A5B001344034403F20D4322461A70544B93F8DC3303F00F03591E524B1B781D464F4B93F8DC3303F00F03581E4D4B1B784B4C1A4692001A44DB
:402A800003469B0003445B001344234403F28A331B781B09DBB23033DCB243482A4692002A4453001A460B461B015B1A5B001344034403F20E4322461A703B4B93F8DC330A
:402AC00003F00F03591E394B1B781D46364B93F8DC3303F00F03581E344B1B78324C1A4692001A4403469B0003445B001344234403F28A331B7803F00F03DBB23033DCB25E
:402B000029482A4692002A4453001A460B461B015B1A5B001344034403F20F4322461A70214B93F8DC3303F00F03591E1F4B1B781D461D4B93F8DC3303F00F03581E1B4B28
:402B40001B78194C1A4692001A4403469B0003445B001344234403F28B331B781B09DBB23033DCB210482A4692002A4453001A460B461B015B1A5B001344034403F58263AE
:402B800022461A70084B93F8DC3303F00F03591E064B1B781D46044B93F8DC3303F00F03581E024B1B7803E0B884FF1FEF89FF1FBF4C1A4692001A4403469B0003445B007B
:402BC0001344234403F28B331B7803F00F03DBB23033DCB2B6482A4692002A4453001A460B461B015B1A5B001344034403F2114322461A70AE4B93F8DC3303F00F03591E08
:402C0000AC4B1B781D46AA4B93F8DC3303F00F03581EA84B1B78A64C1A4692001A4403469B0003445B001344234403F563731B781B09DBB23033DCB29D482A4692002A4439
:402C400053001A460B461B015B1A5B001344034403F2124322461A70954B93F8DC3303F00F03591E934B1B781D46914B93F8DC3303F00F03581E8F4B1B788D4C1A46920097
:402C80001A4403469B0003445B001344234403F563731B7803F00F03DBB23033DCB284482A4692002A4453001A460B461B015B1A5B001344034403F2134322461A70012066
:402CC00002F0F0FE3B7943F05003DBB2184603F031FC774B93F8D9335BB203F00F035BB263F03F035BB2DBB2184603F023FCFA2003F020FC042002F053FE002002F0D2FE26
:402D00006B4B93F8DA33022B40F0CD800423BB711BE0BB79043BBA7965490A4492F8D813634A13440A4683F8C023BB79043BBA7904325F490A4492F8D8135D4A13440A46EF
:402D400083F8BC23BB790133BB71BB79072BE0D9574B93F8C0331B09DBB23033DAB2544B83F88A24524B93F8C03303F00F03DBB23033DAB24E4B83F88B244D4B93F8C13348
:402D80001B09DBB23033DAB2494B83F88C24484B93F8C13303F00F03DBB23033DAB2444B83F88D24424B93F8C2331B09DBB23033DAB23F4B83F88E243D4B93F8C23303F007
:402DC0000F03DBB23033DAB2394B83F88F24384B93F8C3331B09DBB23033DAB2344B83F89024334B93F8C33303F00F03DBB23033DAB22F4B83F891242D4B93F8BC331B0901
:402E0000DBB23033DAB22A4B83F88224284B93F8BC3303F00F03DBB23033DAB2244B83F88324234B93F8BD331B09DBB23033DAB21F4B83F884241E4B93F8BD3303F00F0382
:402E4000DBB23033DAB21A4B83F88524184B93F8BE331B09DBB23033DAB2154B83F88624134B93F8BE3303F00F03DBB23033DAB20F4B83F887240E4B93F8BF331B09DBB2E7
:402E80003033DAB20A4B83F88824094B93F8BF3303F00F03DBB23033DAB2054B83F88924002002F0FFFD00BF1C37BD46F0BD00BFB884FF1FEF89FF1F90B585B000AF0346EC
:402EC000FB71274BFF221A70254BFF2283F82D21234BFF2283F85A22214BFF2283F88723012002F0DFFDFB7943F05003DBB2184603F020FB202003F01DFBFA2003F01AFB68
:402F0000042002F04DFD002002F0CCFD03F08AFA0346BB730023FB7309E0FC7B03F03AFA03461A460F4B1A55FB7B0133FB73FA7BBB7B9A42F1D303F0BDFA4FF4967002F096
:402F40002FFDBB7B002B05D0064B1B7803F00F03DBB200E0FF2318461437BD4690BD00BFB884FF1F8089FF1F80B584B000AF0346FB710023FB7306E0FB7B2E4A0021D154C6
:402F8000FB7B0133FB73FB7B312BF5D9012002F089FDFB7943F05003DAB2264B1A70254B30225A70234B01229A70224B0122DA70204B06221A7105211E48FEF79FF80346BF
:402FC0001A461D4B1A801C4B1B881B0A9BB2DAB21A4B1A70184B1B88DAB2194B1A70184B1A78144B5A71154B1A78124B9A71114B0322DA710F4BFA221A720023BB7308E078
:40300000BB7B0C4AD35C184603F094FABB7B0133BB73BB7B092BF3D9042002F0C1FC002002F040FDC82002F0BBFC7B7B18461037BD4680BDB489FF1FF489FF1F6C89FF1F91
:40304000F689FF1F90B585B000AF0346FB710023FB7306E0FB7B5A4A0021D154FB7B0133FB73FB7B312BF5D9012002F01BFDFB7943F05003DBB2184603F05CFA202003F0BA
:4030800059FAFA2003F056FA032002F089FC002002F008FD03F0C6F903467B720123BB7309E0BC7B03F076F903461A46444B1A55BB7B0133BB73BA7B7B7A01339A42F0DBAF
:4030C0003F4A7B7A137003F0F5F97B7A032B05D9FEF792F8642002F063FC65E0642002F05FFC384B1B78FA799A4212D100237B730BE07B7B7A7B3249895C324A13440A46D1
:4031000083F851207B7B01337B737A7B7B7A9A42EFD32C4B93F82D31FA799A4212D100233B730BE03B7B3A7B2549895C254A13440A4683F87E213B7B01333B733A7B7B7A85
:403140009A42EFD31F4B93F85A32FA799A4212D10023FB720BE0FB7AFA7A1949895C194A13440A4683F8AB22FB7A0133FB72FA7A7B7A9A42EFD3134B93F88733FA799A42F2
:4031800012D10023BB720BE0BB7ABA7A0C49895C0C4A13440A4683F8D823BB7A0133BB72BA7A7B7A9A42EFD37B7A002B02D0044B5B7800E0002318461437BD4690BD00BFAF
:4031C0008089FF1FB884FF1F90B585B000AF03463960FB71012002F065FCFB7943F05003DAB2394B1A70384B30225A70364B05229A70354B0322DA703B681A78324B1A7152
:403200003B685A78304B5A713B689A782E4B9A7107212D48FDF772FF03461A462B4B1A802A4B1B881B0A9BB2DAB2294B1A70274B1B88DAB2274B1A70264B1A78224BDA7173
:40324000234B1A78204B1A721F4B03225A721E4BFA229A720023FB7308E0FB7B1A4AD35C184603F067F9FB7B0133FB73FB7B0B2BF3D9042002F094FB002002F013FC03F0EF
:40328000D1F803467B730023BB7309E0BC7B03F081F803461A46104B1A55BB7B0133BB73BA7B7B7B9A42F1D303F004F9642002F077FB7B7B002B02D0074B5B7800E0002368
:4032C00018461437BD4690BDB489FF1FF489FF1F6C89FF1FF689FF1F8089FF1F90B585B000AF0346FB710B46BB7113467B71BB791B015AB297F9053013435BB27B730120D5
:4033000002F0D0FBFB7943F05003DAB2314B1A70304B30225A702F4B65229A702D4B0122DA702C4A7B7B137105212A48FDF7E6FE03461A46284B1A80274B1B881B0A9BB220
:40334000DAB2264B1A70244B1B88DAB2244B1A70234B1A781F4B5A71204B1A781D4B9A711C4B0322DA711B4BFA221A720023FB7308E0FB7B174AD35C184603F0DBF8FB7B8C
:403380000133FB73FB7B092BF3D9042002F008FB002002F087FB03F045F803463B730023BB7309E0BC7B02F0F5FF03461A460D4B1A55BB7B0133BB73BA7B3B7B9A42F1D337
:4033C00003F078F8642002F0EBFA00BF1437BD4690BD00BFB489FF1FF489FF1F6C89FF1FF689FF1F8089FF1F90B593B000AF0346FB71CC4B1B780133DAB2CA4B1A70C94B20
:403400001B78C94A82FB03121213DB17D31ADBB23033DAB2C54B5A71C24B1B781A46C24B83FB02131913D317CB1A42F2107101FB03F3D31ABE4A82FB03129211DB17D31AAE
:40344000DBB23033DAB2B94B1A71B64B1B781A46B54B83FB02131913D317CB1A42F2107101FB03F3D31AB24A82FB03129111DA178A1A4FF47A7101FB02F29A1AAD4B83FB1E
:4034800002135911D317CB1ADBB23033DAB2A74BDA70A44B1B78A44A82FB03121113DA178A1A42F2107101FB02F29A1AA04B83FB02139911D317CB1A4FF47A7101FB03F3DB
:4034C000D31A9C4A82FB03125111DA178A1A642101FB02F29A1A984B83FB02139910D317CB1ADBB23033DAB2904B9A708D4B1B788D4A82FB03121113DA178A1A42F21071B6
:4035000001FB02F29A1A8A4B83FB02139911D317CB1A4FF47A7101FB03F3D31A854A82FB03125111DA178A1A642101FB02F29A1A814B83FB02139910D317C91A0B469B00B7
:403540000B445B00D11ACBB23033DAB2774B5A70012387F847300FE097F84730734AD35C97F8472092B21146184602F0F5FC97F84730013387F8473097F84730052BEBD9C7
:40358000002387F846300BE097F846306B4AD35C184602F0B9FB97F84630013387F8463097F84630052BEFD9042002F0F9F902F063FB0346BB7297F90A300C2B18DD002309
:4035C00087F845300CE097F8454002F00DFB03461A465B4B1A5597F84530013387F8453097F8452097F90A309A42ECDB0023BB72002387F844300BE097F84430514AD35C74
:40360000184602F0A7FD97F84430013387F8443097F84430152BEFD94B4B1B78184602F099FD002387F843300BE097F84330474AD35C184602F08EFD97F84330013387F800
:40364000433097F84330152BEFD93F4B1B78184602F080FD002387F842300BE097F842303B4AD35C184602F075FD97F84230013387F8423097F84230152BEFD9324B1B782E
:40368000184602F067FD002387F841300BE097F84130304AD35C184602F05CFD97F84130013387F8413097F84130152BEFD9264B1B78184602F04EFD002387F840300BE03E
:4036C00097F84030244AD35C184602F043FD97F84030013387F8403097F84030152BEFD9194B1B78184602F035FD002387F83F300BE097F83F30194AD35C184602F02AFDF9
:4037000097F83F30013387F83F3097F83F30152BEFD90D4B1B78184602F01CFD002387F83E3029E0F389FF1FAD8BDB68B084FF1FD34D62101F85EB5167666666E883FF1FFB
:40374000F889FF1FD480FF1FCC80FF1FEC80FF1F0481FF1F1C81FF1F3481FF1F4C81FF1F97F83E30BD4AD35C184602F0F3FC97F83E30013387F83E3097F83E30172BEFD991
:40378000B74B1B78184602F0E5FC002387F83D300BE097F83D30B34AD35C184602F0DAFC97F83D30013387F83D3097F83D300C2BEFD9AD4B1B7A1B09DBB23033DBB2184658
:4037C00002F0C8FCA84B1B7A03F00F03DBB23033DBB2184602F0BEFC2F2002F0BBFCA24BDB791B09DBB23033DBB2184602F0B2FC9D4BDB7903F00F03DBB23033DBB218460B
:4038000002F0A8FC2F2002F0A5FC974B9B791B09DBB23033DBB2184602F09CFC924B9B7903F00F03DBB23033DBB2184602F092FC8B4B1B78184602F08DFC002387F83C30F0
:403840000BE097F83C30894AD35C184602F082FC97F83C30013387F83C3097F83C300C2BEFD9814B9B7A1B09DBB23033DBB2184602F070FC7C4B9B7A03F00F03DBB230336F
:40388000DBB2184602F066FC3A2002F063FC764BDB7A1B09DBB23033DBB2184602F05AFC714BDB7A03F00F03DBB23033DBB2184602F050FC3A2002F04DFC6B4B1B7B1B098D
:4038C000DBB23033DBB2184602F044FC664B1B7B03F00F03DBB23033DBB2184602F03AFC5F4B1B78184602F035FC002387F83B300BE097F83B30594AD35C184602F02AFC74
:4039000097F83B30013387F83B3097F83B30172BEFD9534B1B78184602F01CFC002387F83A300BE097F83A30514AD35C184602F011FC97F83A30013387F83A3097F83A30AC
:403940000C2BEFD9052387F839300BE097F83930484AD35C184602F0FDFB97F83930013B87F8393097F83930002BEFD13C4B1B78184602F0EFFB002387F838300BE097F875
:4039800038303D4AD35C184602F0E4FB97F83830013387F8383097F838300C2BEFD9374B1B78FA799A4240F04981002387F837300DE097F83730314A134493F82331184659
:4039C00002F0C8FB97F83730013387F8373097F83730072BEDD9224B1B78184602F0BAFB002387F836300BE097F83630244AD35C184602F0AFFB97F83630013387F8363082
:403A000097F836300C2BEFD91C4B1B783133DBB2184602F09FFB124B1B78184602F09AFB002387F835300BE097F83530154AD35C184602F08FFB97F83530013387F835308E
:403A400097F835300C2BEFD90C4B93F82C31012B2BD1002387F8343022E000BFD083FF1FCC80FF1FA881FF1FF889FF1FB881FF1F6882FF1FB084FF1FC881FF1FB884FF1FF2
:403A8000F881FF1F0882FF1F97F83430BC4AD35C184602F05FFB97F83430013387F8343097F83430072BEFD913E0002387F833300BE097F83330B34AD35C184602F04AFB68
:403AC00097F83330013387F8333097F83330072BEFD9AD4B1B78184602F03CFB002387F832300BE097F83230A84AD35C184602F031FB97F83230013387F8323097F832304C
:403B00000C2BEFD9002387F8313018E097F83130C3F108039E4A1278934202D12E2002F019FB97F831309B4A134493F80331184602F010FB97F83130013387F8313097F895
:403B40003130072BE2D9202002F004FB924B1B78184602F0FFFA8C4B1B78184602F0FAFA002387F830300BE097F830308B4AD35C184602F0EFFA97F83030013387F8303044
:403B800097F830300C2BEFD9854B1B78184602F0E1FA202002F0DEFA002387F82F300DE097F82F307B4A134493F8FB30184602F0D1FA97F82F30013387F82F3097F82F30C8
:403BC000072BEDD9704B1B78184602F0C3FA002387F82E300BE097F82E30724AD35C184602F0B8FA97F82E30013387F82E3097F82E300C2BEFD96A4B1B78184602F0AAFA87
:403C0000202002F0A7FA012387F82D300DE097F82D30604A134493F80B31184602F09AFA97F82D30013387F82D3097F82D30052BEDD9554B1B78184602F08CFA554B93F81A
:403C40002D31FA799A4240F04B81002387F82C300DE097F82C304F4A134493F85032184602F078FA97F82C30013387F82C3097F82C30072BEDD9444B1B78184602F06AFA53
:403C8000002387F82B300BE097F82B30464AD35C184602F05FFA97F82B30013387F82B3097F82B300C2BEFD93A4B93F82D313133DBB2184602F04EFA334B1B78184602F091
:403CC00049FA002387F82A300BE097F82A30374AD35C184602F03EFA97F82A30013387F82A3097F82A300C2BEFD92A4B93F85932022B14D1002387F829300BE097F8293030
:403D00001F4AD35C184602F025FA97F82930013387F8293097F82930072BEFD913E0002387F828300BE097F82830164AD35C184602F010FA97F82830013387F8283097F87D
:403D40002830072BEFD9104B1B78184602F002FA002387F827300BE097F827300B4AD35C184602F0F7F997F82730013387F8273097F827300C2BEFD9002387F8263030E04C
:403D80009481FF1F9C81FF1FCC80FF1F2882FF1FB289FF1FB884FF1FD080FF1F4882FF1F9883FF1F1882FF1FF881FF1F0882FF1F97F82630C3F10803BB4A1278934202D14F
:403DC0002E2002F0C7F997F82630B84A134493F83032184602F0BEF997F82630013387F8263097F82630072BE2D9202002F0B2F9AF4B1B78184602F0ADF9AE4B1B78184687
:403E000002F0A8F9002387F825300BE097F82530A94AD35C184602F09DF997F82530013387F8253097F825300C2BEFD9A34B1B78184602F08FF9202002F08CF9002387F8A0
:403E400024300DE097F82430984A134493F82832184602F07FF997F82430013387F8243097F82430072BEDD9924B1B78184602F071F9002387F823300BE097F82330904AAD
:403E8000D35C184602F066F997F82330013387F8233097F823300C2BEFD9884B1B78184602F058F9202002F055F9012387F822300DE097F822307D4A134493F838321846A0
:403EC00002F048F997F82230013387F8223097F82230052BEDD9774B1B78184602F03AF9724B93F85A32FA799A4240F00681002387F821300DE097F821306C4A134493F8C8
:403F00007D33184602F026F997F82130013387F8213097F82130072BEDD9664B1B78184602F018F9002387F820300BE097F82030644AD35C184602F00DF997F820300133FF
:403F400087F8203097F820300C2BEFD9574B93F85A323133DBB2184602F0FCF8554B1B78184602F0F7F80023FB7708E0FB7F564AD35C184602F0EEF8FB7F0133FB77FB7F9E
:403F80000C2BF3D90023BB7708E0BB7F4F4AD35C184602F0DFF8BB7F0133BB77BB7F072BF3D9444B1B78184602F0D4F800237B7708E07B7F464AD35C184602F0CBF87B7FBF
:403FC00001337B777B7F0C2BF3D900233B7714E03B7FC3F10803344A1278934202D12E2002F0B8F83B7F314A134493F85D33184602F0B0F83B7F01333B773B7F072BE7D9D1
:40400000202002F0A7F82A4B1B78184602F0A2F8284B1B78184602F09DF80023FB7608E0FB7E254AD35C184602F094F8FB7E0133FB76FB7E0C2BF3D9204B1B78184602F07B
:4040400089F8202002F086F80023BB760AE0BB7E164A134493F85533184602F07BF8BB7E0133BB76BB7E072BF1D9124B1B78184602F070F800237B7608E07B7E104AD35C12
:40408000184602F067F87B7E01337B767B7E0C2BF3D90A4B1B78184602F05CF8202002F059F801233B7620E0B289FF1FB884FF1FD080FF1FCC80FF1F4882FF1F9883FF1FA7
:4040C0001882FF1FF881FF1F0882FF1F9481FF1F2882FF1F3B7EA74A134493F86533184602F038F83B7E01333B763B7E052BF1D9A14B1B78184602F02DF89E4B93F88733B7
:40410000FA799A4240F0E1800023FB750AE0FB7D984A134493F8AA34184602F01BF8FB7D0133FB75FB7D072BF1D90023BB7508E0BB7D924AD35C184602F00CF8BB7D0133D7
:40414000BB75BB7D0C2BF3D98A4B93F887333133DBB2184601F0FEFF874B1B78184601F0F9FF854B1B78184601F0F4FF00237B7508E07B7D824AD35C184601F0EBFF7B7D0D
:4041800001337B757B7D0C2BF3D900233B7508E03B7D7C4AD35C184601F0DCFF3B7D01333B753B7D072BF3D90023FB7408E0FB7C754AD35C184601F0CDFFFB7C0133FB74E8
:4041C000FB7C0C2BF3D90023BB7414E0BB7CC3F108036E4A1278934202D12E2001F0BAFFBB7C644A134493F88A34184601F0B2FFBB7C0133BB74BB7C072BE7D9202001F0AE
:40420000A9FF634B1B78184601F0A4FF5A4B1B78184601F09FFF00237B7408E07B7C5D4AD35C184601F096FF7B7C01337B747B7C0C2BF3D9584B1B78184601F08BFF202070
:4042400001F088FF00233B740AE03B7C494A134493F88234184601F07DFF3B7C01333B743B7C072BF1D9444B1B78184601F072FF0023FB7308E0FB7B484AD35C184601F02F
:4042800069FFFB7B0133FB73FB7B0C2BF3D9424B1B78184601F05EFF202001F05BFF0123BB730AE0BB7B334A134493F89234184601F050FFBB7B0133BB73BB7B052BF1D9B1
:4042C0002D4B1B78184601F045FF00237B7308E07B7B334AD35C184601F03CFF7B7B01337B737B7B172BF3D9234B1B78184601F031FF00233B7308E03B7B2A4AD35C1846EF
:4043000001F028FF3B7B01333B733B7B152BF3D9194B1B78184601F01DFF0023FB7208E0FB7A214AD35C184601F014FFFB7A0133FB72FB7A152BF3D90F4B1B78184601F0ED
:4043400009FF0D4B1B78184601F004FF0A4B1B78184601F0FFFE084B1B78184601F0FAFE054B1B78184601F0F5FE00BF4C37BD4690BD00BFB884FF1FCC80FF1FF881FF1FC6
:404380000882FF1F9481FF1F2882FF1FB289FF1FD080FF1F4882FF1F9883FF1F1882FF1FD083FF1F6481FF1F7C81FF1F90B59DB000AF002387F86E300BE097F86E30C44A84
:4043C000D35C184601F0A0FC97F86E30013387F86E3097F86E30052BEFD90A2001F0E0FA01F04AFC034687F83F3097F83F300C2B19D9002387F86D300CE097F86D4001F01E
:40440000F3FB03461A46B34B1A5597F86D30013387F86D3097F86D2097F83F309A42ECD3002387F83F301D2001F094FE702001F091FE012001F08EFE002001F08BFEA64B3D
:404440001B780133DAB2A44B1A70A34B1B78A34A82FB03121213DB17D31ADBB23033DAB29F4B5A719C4B1B781A469C4B83FB02131913D317CB1A42F2107101FB03F3D31A58
:40448000984A82FB03129211DB17D31ADBB23033DAB2934B1A71904B1B781A468F4B83FB02131913D317CB1A42F2107101FB03F3D31A8C4A82FB03129111DA178A1A4FF475
:4044C0007A7101FB02F29A1A874B83FB02135911D317CB1ADBB23033DAB2814BDA707E4B1B787E4A82FB03121113DA178A1A42F2107101FB02F29A1A7A4B83FB0213991133
:40450000D317CB1A4FF47A7101FB03F3D31A764A82FB03125111DA178A1A642101FB02F29A1A724B83FB02139910D317CB1ADBB23033DAB26A4B9A70674B1B78674A82FBB7
:4045400003121113DA178A1A42F2107101FB02F29A1A644B83FB02139911D317CB1A4FF47A7101FB03F3D31A5F4A82FB03125111DA178A1A642101FB02F29A1A5B4B83FBCD
:4045800002139910D317C91A0B469B000B445B00D11ACBB23033DAB2514B5A70072387F86C3010E097F86C30063B4D4AD35C97F86C2092B21146184601F0CEFC97F86C30BC
:4045C000013387F86C3097F86C300C2BEAD9484B1B78184601F0BEFD002387F86B300BE097F86B30434AD35C184601F0B3FD97F86B30013387F86B3097F86B30152BEFD960
:404600003B4B1B78184601F0A5FD002387F86A300BE097F86A30384AD35C184601F09AFD97F86A30013387F86A3097F86A30152BEFD92F4B1B78184601F08CFD002387F85B
:4046400069300BE097F869302C4AD35C184601F081FD97F86930013387F8693097F86930152BEFD9224B1B78184601F073FD002387F868300BE097F86830214AD35C184675
:4046800001F068FD97F86830013387F8683097F86830152BEFD9164B1B78184601F05AFD002387F867300BE097F86730154AD35C184601F04FFD97F86730013387F8673086
:4046C00097F86730172BEFD9002387F8663027E0E883FF1FF889FF1FEE89FF1FAD8BDB68E889FF1FD34D62101F85EB5167666666CC80FF1FD480FF1FEC80FF1F0481FF1F70
:404700001C81FF1FD083FF1F97F86630C34AD35C184601F01FFD97F86630013387F8663097F866300C2BEFD9BD4B9B791B09DBB23033DBB2184601F00DFDB94B9B7903F0CE
:404740000F03DBB23033DBB2184601F003FD2F2001F000FDB24BDB791B09DBB23033DBB2184601F0F7FCAE4BDB7903F00F03DBB23033DBB2184601F0EDFC2F2001F0EAFCBD
:40478000A74B1B7A1B09DBB23033DBB2184601F0E1FCA34B1B7A03F00F03DBB23033DBB2184601F0D7FC9F4B1B78184601F0D2FC002387F865300BE097F865309A4AD35C8B
:4047C000184601F0C7FC97F86530013387F8653097F865300C2BEFD9914B9B7A1B09DBB23033DBB2184601F0B5FC8D4B9B7A03F00F03DBB23033DBB2184601F0ABFC3A20C7
:4048000001F0A8FC864BDB7A1B09DBB23033DBB2184601F09FFC824BDB7A03F00F03DBB23033DBB2184601F095FC3A2001F092FC7B4B1B7B1B09DBB23033DBB2184601F089
:4048400089FC774B1B7B03F00F03DBB23033DBB2184601F07FFC734B1B78184601F07AFC002387F864300BE097F864306F4AD35C184601F06FFC97F86430013387F86430A9
:4048800097F86430172BEFD9002387F863300BE097F86330664AD35C184601F05BFC97F86330013387F8633097F863300C2BEFD9052387F862300BE097F862305D4AD35C60
:4048C000184601F047FC97F86230013B87F8623097F86230002BEFD1524B1B78184601F039FC504B1B78184601F034FC002387F861300BE097F861304F4AD35C184601F0F6
:4049000029FC97F86130013387F8613097F861300C2BEFD9494B1B783133DBB2184601F019FC404B1B78184601F014FC002387F860300BE097F86030414AD35C184601F091
:4049400009FC97F86030013387F8603097F860300F2BEFD9334B1B78184601F0FBFB002387F85F3018E097F85F30C3F10A03354A1278934202D12E2001F0ECFB97F85F305C
:404980002E4A134493F88330184601F0E3FB97F85F30013387F85F3097F85F30092BE2D9204B1B78184601F0D5FB002387F85E3010E097F85E3087F86F3097F85E301F4A52
:4049C000134493F88330002B09D197F85E30013387F85E3097F85E30092BEAD900E000BF002387F85D300BE097F85D30164AD35C184601F0AFFB97F85D30013387F85D30F2
:404A000097F85D300F2BEFD9064B1B78184601F0A1FB002387F85C302EE000BFA881FF1FF889FF1FCC80FF1FB881FF1FD083FF1F5882FF1FE889FF1FF881FF1FB884FF1FFE
:404A40009C83FF1FB289FF1FAC83FF1F97F85C4097F85C309BB224339BB2184601F006FB03461A4607F17003234403F8642C97F85C30013387F85C3097F85C30092BE5D95F
:404A8000002387F85B3019E097F85B30C3F10A03C44A1278934202D12E2001F05BFB97F85B3007F17002134413F8643C184601F051FB97F85B30013387F85B3097F85B308D
:404AC000092BE1D9B84B1B78184601F043FB97F86F3087F85A302DE097F85A2097F86F30D31A97F85A20B1490A4492F8832007F170010B4403F8582C97F85A2097F86F3051
:404B0000D31A97F85A2007F170010A4412F8642C07F170010B4403F84C2C97F85A3007F170021344002203F8702C97F85A30013387F85A3097F85A30092BCDD907F1240308
:404B4000184602F04BF90346BB6307F11803184602F044F903467B637A6BBB6BD31A3B633B6B39460A22184602F07FF9002387F859300BE097F859308D4AD35C184601F041
:404B8000E9FA97F85930013387F8593097F85930112BEFD9844B1B78184601F0DBFA002387F8583019E097F85830C3F10A037D4A1278934202D12E2001F0CCFA97F858300C
:404BC00007F17002134413F8703C184601F0C2FA97F85830013387F8583097F85830092BE1D9714B1B78184601F0B4FA002387F857300BE097F857306E4AD35C184601F02F
:404C0000A9FA97F85730013387F8573097F85730172BEFD9644B1B78184601F09BFA002387F856300BE097F85630634AD35C184601F090FA97F85630013387F8563097F881
:404C400056300C2BEFD9594B93F82D313133DBB2184601F07FFA544B1B78184601F07AFA002387F855300BE097F85530534AD35C184601F06FFA97F85530013387F855307E
:404C800097F855300F2BEFD9474B1B78184601F061FA002387F8543018E097F85430C3F10A03404A1278934202D12E2001F052FA97F854303D4A134493F8B031184601F02A
:404CC00049FA97F85430013387F8543097F85430092BE2D9344B1B78184601F03BFA002387F853300BE097F85330354AD35C184601F030FA97F85330013387F8533097F86F
:404D000053300F2BEFD9284B1B78184601F022FA002387F8523015E097F8524097F852309BB22E339BB2184601F0A0F903461A4607F17003234403F8642C97F85230013304
:404D400087F8523097F85230092BE5D9002387F8513019E097F85130C3F10A03114A1278934202D12E2001F0F5F997F8513007F17002134413F8643C184601F0EBF997F84A
:404D80005130013387F8513097F85130092BE1D9054B1B78184601F0DDF997F86F3087F850303DE0B289FF1FCC80FF1FB884FF1FBC83FF1FD083FF1FF881FF1F9C83FF1F2F
:404DC000AC83FF1F97F8502097F86F30D31A97F85020C9490A4492F8B02107F170010B4403F8582C97F8502097F86F30D31A97F8502007F170010A4412F8642C07F1700188
:404E00000B4403F84C2C97F8503007F170021344002203F8702C97F85030013387F8503097F85030092BCDD907F12403184601F0D5FF0346BB6307F11803184601F0CEFF24
:404E400003467B637A6BBB6BD31A3B633B6B39460A22184602F009F8002387F84F300BE097F84F30A54AD35C184601F073F997F84F30013387F84F3097F84F30112BEFD98E
:404E80009F4B1B78184601F065F9002387F84E3019E097F84E30C3F10A039A4A1278934202D12E2001F056F997F84E3007F17002134413F8703C184601F04CF997F84E3017
:404EC000013387F84E3097F84E30092BE1D98C4B1B78184601F03EF98B4B1B78013B022B40F30681002387F84D300BE097F84D30864AD35C184601F02DF997F84D30013340
:404F000087F84D3097F84D30172BEFD97C4B1B78184601F01FF9002387F84C300BE097F84C307B4AD35C184601F014F997F84C30013387F84C3097F84C300C2BEFD96E4B3D
:404F400093F85A323133DBB2184601F003F96C4B1B78184601F0FEF8002387F84B3018E097F84B30C3F10A03664A1278934202D12E2001F0EFF897F84B305F4A134493F8D2
:404F8000DD32184601F0E6F897F84B30013387F84B3097F84B30092BE2D9594B1B78184601F0D8F8002387F84A300BE097F84A30584AD35C184601F0CDF897F84A300133FC
:404FC00087F84A3097F84A300F2BEFD94C4B1B78184601F0BFF8002387F849300BE097F849304A4AD35C184601F0B4F897F84930013387F8493097F84930172BEFD9404BE0
:405000001B78184601F0A6F8002387F848300BE097F848303E4AD35C184601F09BF897F84830013387F8483097F848300C2BEFD9314B93F887333133DBB2184601F08AF890
:405040002F4B1B78184601F085F8002387F8473018E097F84730C3F10A032A4A1278934202D12E2001F076F897F84730224A134493F80A34184601F06DF897F847300133AC
:4050800087F8473097F84730092BE2D91C4B1B78184601F05FF8002387F846300BE097F846301C4AD35C184601F054F897F84630013387F8463097F846300F2BEFD90023D5
:4050C00087F845300BE097F84530104AD35C184601F040F897F84530013387F8453097F84530172BEFD9064B1B78184601F032F8002387F844301BE0B884FF1FBC83FF1F5E
:40510000CC80FF1FB289FF1FF289FF1FD083FF1FF881FF1FAC83FF1F97F844304A4AD35C184601F017F897F84430013387F8443097F84430172BEFD9444B1B78184601F0F2
:4051400009F8002387F843300BE097F84330404AD35C184600F0FEFF97F84330013387F8433097F84330152BEFD9384B1B78184600F0F0FF002387F842300BE097F84230A3
:40518000344AD35C184600F0E5FF97F84230013387F8423097F84230152BEFD92B4B1B78184600F0D7FF294B1B78184600F0D2FF264B1B78184600F0CDFF244B1B78184610
:4051C00000F0C8FF214B1B78184600F0C3FF002387F8413013E097F841301F4A134493F8832097F841309BB224339BB21946104600F0B2FE97F84130013387F8413097F8FC
:405200004130092BE7D9002387F8403013E097F84030114A134493F8B02197F840309BB22E339BB21946104600F096FE97F84030013387F8403097F84030092BE7D900BFF0
:405240007437BD4690BD00BFD083FF1FCC80FF1F6481FF1F7C81FF1FB884FF1F80B584B000AFF860B9607A607A68B968F86801F0FEFD00BF1037BD4680BD00BF80B483B003
:4052800000AF0346FB71FEE780B483B000AF434B00221A60424B10221A70424B01221A70414B00221A70414B4FF432721A80404B01221A703F4B03221A703F4B3F4A92B2D5
:4052C0001A803F4B47F608021A803E4B00221A803D4B4FF480421A803C4B09221A703C4B0C221A703B4B12221A703B4B19221A70BFF35F8F394B01221A70BFF35F8F00BF03
:405300002A4B1B889BB2002BFAD100237B600DE07B68DA00324B13441946324A7B6852F823309BB20B807B6801337B607B68582BEED9BFF35F8F294B01221A70BFF35F8FE3
:4053400000BF294B1B78DBB203F00103002BF8D100BF264B1B78DBB203F00103002BF8D100BF234B1B78DBB203F00103002BF8D100BF204B1B78DBB203F00103002BF8D147
:4053800000BF1D4B1B78DBB203F00103002BF8D100BF0C37BD4680BC704700BF8884FF1F007600401070004019700040007800400278004003780040047800405000000062
:4053C00006780040047600400676004029700040397000406970004079700040147000400C78004034700000187000402870004038700040687000407870004080B582B01A
:4054000000AF454B19221A80444B18221A70444B19221A80434B18221A70434B4FF49C721A80424B18221A70414B4FF49C721A80404B18221A70404B4FF49C721A803F4BBF
:4054400018221A703E4B40F209221A803D4B18221A703D4B47F22F521A803C4B19221A703B4B02221A704FF0402308221A70394B03221A70384B394A1278D2B21A70384B96
:4054800008221A80374B41F251221A800023FB7019237B6014E0FB785B00DAB2324B1B78DBB203F00103DBB21343DBB203F00303FB704FF4F07001F0BFF97B68013B7B60C5
:4054C0007B68002B02D0FB78032BE4D17B68002B02D10320FFF7D2FE244B4FF480721A80224B07221A70224B00221A70214B48221A701E4B00221A701F4B02221A701F4A3F
:405500001E4B1B78DBB243F07F03DBB2137000BF0837BD4680BD00BF80400040824000408440004086400040884000408A4000408C4000408E4000409040004092400040C6
:405540009440004096400040984000409A4000400043004000420040A14600400801004922420040204200402542004004400040064000400840004001400040A24300402C
:4055800080B483B000AF0B4B1B78FB710A4AFB7903F00703DBB21370084AFB791B09DBB21370074B44221A7000BF0C37BD4680BC704700BFCF0100496E5800406F58004092
:4055C0007658004080B500AF72B62D4A2C4B1B78DBB243F00403DBB21370FFF755FE294A284B1B78DBB243F00203DBB21370264A254B1B78DBB243F00203DBB21370234AED
:40560000224B1B78DBB243F04003DBB21370204A1F4B1B78DBB243F01003DBB213700A221C491D48FFF71AFE0A221C491C48FFF715FE0A221B491C48FFF710FE0A221B4983
:405640001B48FFF70BFE1B4A1A4B1B78DBB243F00803DBB21370184B60221A70FFF7CEFE154B80221A70154B01221A70FFF788FF0E2206491248FFF7F1FD00BF80BD00BFD1
:40568000E84600400350014013500140A0430040C2430040941F0048F0510040A01F004810510040AC1F004820510040B81F0048305100402243004000480040040008409B
:4056C000B043004080B500AF01F08CFB03461B680C2B00D1FEE7FEE780B586B000AF224B7B61224B3B61204B7B6135E03B691B68FB603B695B68BB603B699B683B6000234C
:405700007B600CE0FB681A68BB681A60BB680433BB60FB680433FB607B6804337B607A683B689A42EED13B69DB683B6000237B6008E0BB6800221A60BB680433BB607B6822
:4057400004337B607A683B689A42F2D13B6910333B617B69013B7B617B69002BC6D101F047FBFAF7F3FEFEE701000000E472000080B582B000AF184B184A1A60184A184B63
:405780001B6843F40073136000237B600FE07B68032B04D8134A7B6852F8233000E0124B12497A6841F822307B6801337B607B682F2BECD90E4B1B78DAB20E4B1A700E4BE5
:4057C0000A4A1A60FFF7FEFE0C4B00221A6000BF0837BD4680BD00BF0CED00E00004FA0514ED00E000000000C55600000080FF1FBC760040C480FF1F08ED00E0C080FF1F7C
:4058000080B500AF064B1B78002B04D100F00AF8034B01221A7000F063F800BF80BD00BF8C84FF1F80B582B000AF284A274B1B78DBB243F00203DBB21370254B1B78DBB28D
:4058400023F07003FB71224AFB7943F03003DBB21370204A1F4B1B78DBB223F03003DBB213701C4A1B4B1B78DBB243F03003DBB21370184A174B1B78DBB223F00F03DBB29E
:405880001370144A134B1B78DBB243F00F03DBB21370642000F048F8322000F055F8002000F062F80C4A0C4B1B78DBB243F00103DBB21370094A094B1B78DBB243F0010375
:4058C000DBB2137000BF0837BD4680BD004F0040024F00400B4F0040A3430040014F004080B400AF0D4A0D4B1B78DBB243F00103DBB213700A4A0A4B1B78DBB243F00103F1
:40590000DBB21370074A074B1B78DBB243F00103DBB2137000BFBD4680BC7047A3430040B3430040004F004080B483B000AF0346FB71044BFA7992B21A8000BF0C37BD463D
:4059400080BC7047044F004080B483B000AF0346FB71044BFA7992B21A8000BF0C37BD4680BC7047064F004080B483B000AF0346FB71044AFB79137000BF0C37BD4680BC58
:40598000704700BF034F004080B483B000AF0346FB7101BE00BF0C37BD4680BC704700BF80B582B000AF786008E00C4B1B68184600F042FF7B68A3F500437B607B68B3F53B
:4059C000004FF2D8064B1B687A6802FB03F3184600F032FF00BF0837BD4680BDFC83FF1FF483FF1F80B582B000AF0346FB80FB88054A127802FB03F3184600F01DFF00BFA4
:405A00000837BD4680BD00BFF883FF1F80B584B000AF03463960FB710F4B1B68FB60FB791F2B02D90020FFF7AFFFFB7903F01F0310339B00FA6813441B68BB60FB7903F06F
:405A40001F0310339B00FA6813443A681A60BB6818461037BD4680BD08ED00E080B582B000AF03460A46FB711346BB71BB79072B02D90020FFF788FFFB791F2B02D900203D
:405A8000FFF782FFFB7903F01F0303F1604303F56443BA795201D2B21A7000BF0837BD4680BD00BF80B485B000AF0346FB710B4B1B78DBB223F00403FB730849FB799B00F4
:405AC000DBB203F00403DAB2FB7B1343DBB20B7000BF1437BD4680BC704700BF1051004080B500AF064B1B78002B04D100F00AF8034B01221A7000F03BF800BF80BD00BFCC
:405B00008D84FF1F80B500AF11490620FFF77EFF07210620FFF7A2FF0E4B00221A700E4B72221A700D4B20221A700D490720FFF76DFF07210720FFF791FF0A4B06221A701F
:405B4000094B47221A70094B02221A7000BF80BDC15D00009084FF1F8664004086650040995E000024650040346500408565004080B582B000AF00F07EFE0346FB71154AE2
:405B8000144B1B78DBB243F02003DBB21370124A114B1B78DBB243F01003DBB213700F4B40221A600E4A0E4B1B78DBB243F01003DBB213700B4B80221A60084B80221A6094
:405BC00000F0A2F9FB79184600F059FE00BF0837BD4680BD966400409665004000E100E09565004080E200E080B483B000AF1B4B40221A601A4B1B78BB711A4B1B787B71B1
:405C0000194B1B78DBB2002B03D1BA797B799A4217D0BB79154AD35CFB71BB790133BB71BB79132B01D90023BB710D4ABB7913700D4B1B78DBB2002B06D00B4B00221A7011
:405C400002E00B4B1B78FB710A4B40221A60FB7918460C37BD4680BC704700BF80E100E09184FF1F9284FF1F9384FF1F188AFF1F4665004000E100E080B483B000AF1D4B2B
:405C800040221A601C4B1B78DAB21C4B1B78DBB29A420AD11A4B1B78DBB2002B02D01423FB711DE00023FB711AE0134B1B78DAB2124B1B78DBB29A4208D2104B1B78DAB26F
:405CC0000D4B1B78DBB2D31AFB7109E00B4B1B78DAB2094B1B78DBB2D31ADBB21433FB71084B40221A60FB7918460C37BD4680BC704700BF80E100E09184FF1F9284FF1F33
:405D00009384FF1F00E100E080B485B000AF0346FB71254B1B78FB73244B1B78BB73FA7BBB7B9A4208D2FA7BBB7B013B9A420CBF01230023DBB207E0FA7BBB7BD31A072B8B
:405D40000CBF01230023DBB2002BE2D1BA7BFB7B9A420AD1164B1B78DBB203F00403002B03D1144AFB79137018E0FB7B072B01D90023FB73FB7B1049FA79CA54FB7B013360
:405D8000FB73094AFB7B1370094B1B78DBB203F00203002B02D0094B80221A6000BF1437BD4680BC704700BF8F84FF1F8E84FF1F6565004045650040108AFF1F00E200E0C2
:405DC00080B483B000AF0023FB712B4B1B78BB71BB797B71BB7903F01E03002B0CD097F9063003F01E035AB2244B1B785BB213435BB2DAB2214B1A70BB7903F02003002B0B
:405E000030D01F4B1B787B711E4B1B78DBB219461D4A7B7953540123FB71FB79002B21D01A4B1B78DBB2002B02D0194B01221A70144B1B78DBB20133DAB2124B1A70114B5A
:405E40001B78DBB2132B02D90E4B00221A700D4B1B78DAB20F4B1B78DBB29A4202D10B4B01221A70BB7903F02003002BADD100BF0C37BD4680BC7047666500409084FF1F19
:405E8000466500409284FF1F188AFF1F9384FF1F9484FF1F9184FF1F80B400AF17E0154B1B78DBB2072B02D9124B00221A70124B104A1278D2B21146104A525CD2B21A70C3
:405EC0000C4B1B78DBB20133DAB20A4B1A70094B1B78DAB20A4B1B789A4206D0094B1B78DBB203F00403002BD9D000BFBD4680BC704700BF8E84FF1F45650040108AFF1FF7
:405F00008F84FF1F6565004080B400AF094A094B1B78DBB243F00103DBB21370064A064B1B78DBB243F00103DBB2137000BFBD4680BC7047A2430040B243004080B500AF3A
:405F400000F01AFD00F02AFD00BF80BD80B500AFFFF7F4FF00BF80BD80B584B000AF03460A46FB711346BB8000F086FDBB88B3F5006F70D2BB881B097B817B891B019BB2AE
:405F8000BA88D31A3B8100F0ABFE0346002B5FD1FA1D39890123402000F0BCFDF860FB68072B4CD14FF0FF33FB6000BF2D4B1B78DBB203F00203002BF8D02A4B1B78DBB206
:405FC00003F00203002B08D0264B1B78DBB29B08DBB2002B01D10023FB60FB68002B2AD1214B1A78204B5B787989402000F0FAFD0346072B1BD14FF0FF33FB6000BF194B06
:406000001B78DBB203F00203002BF8D0154B1B78DBB203F00203002B17D0124B1B78DBB29B08DBB2002B10D10023FB600DE04FF0FF33FB6009E04FF0FF33FB6005E0FB68DE
:40604000012B02D04FF0FF33FB6000F07DFE04E00423FB6001E00123FB60FB6818461037BD4680BD22470040348BFF1F80B584B000AF0346FB8000F0FEFB0346FB7300F0EB
:40608000D3FCFB8803F1804303F500431B78BB7300F0E2FCFB7B184600F0F1FBBB7B18461037BD4680BD00BF80B500AF064B1B78002B04D100F00AF8034B01221A7000F0DE
:4060C00023F800BF80BD00BF9684FF1F80B500AF09490220FFF79AFC07210220FFF7BEFC064B06221A70064B47221A70054B02221A7000BF80BD00BF0D6200002F64004072
:406100003F6400408B64004080B582B000AF00F0B2FB0346FB710C4A0B4B1B78DBB243F01003DBB21370094B04221A60084B04221A6000F0A3F8FB79184600F0A0FB00BF35
:406140000837BD4680BD00BF9B64004080E200E000E100E080B485B000AF0346FB71254B1B78FB73244B1B78BB73FA7BBB7B9A4208D2FA7BBB7B013B9A420CBF01230023FB
:40618000DBB207E0FA7BBB7BD31A042B0CBF01230023DBB2002BE2D1BA7BFB7B9A420AD1164B1B78DBB203F00403002B03D1144AFB79137018E0FB7B042B01D90023FB73EE
:4061C000FB7B1049FA79CA54FB7B0133FB73094AFB7B1370094B1B78DBB203F00203002B02D0094B04221A6000BF1437BD4680BC704700BF9884FF1F9784FF1F6B6400403D
:406200004C6400402C8AFF1F00E200E080B400AF17E0154B1B78DBB2042B02D9124B00221A70124B104A1278D2B21146104A525CD2B21A700C4B1B78DBB20133DAB20A4BAD
:406240001A70094B1B78DAB20A4B1B789A4206D0094B1B78DBB203F00403002BD9D000BFBD4680BC704700BF9784FF1F4C6400402C8AFF1F9884FF1F6B64004080B400AFA8
:40628000094A094B1B78DBB243F00403DBB21370064A064B1B78DBB243F00403DBB2137000BFBD4680BC7047A2430040B243004080B500AF064B1B78002B04D100F00AF8F9
:4062C000034B01221A7000F031F800BF80BD00BF9A84FF1F80B500AF0D490120FFF796FB07210120FFF7BAFB0A4B00221A700A4B72221A70094B20221A70094B06221A7023
:40630000084B47221A70084B00221A7000BF80BD696500009B84FF1F8A6500408B6500402B6400403B6400408865004080B582B000AF00F0A0FA0346FB71124A114B1B7837
:40634000DBB243F02003DBB213700F4A0E4B1B78DBB243F01003DBB213700C4B02221A600B4A0B4B1B78DBB243F01003DBB2137000F046FAFB79184600F081FA00BF083781
:40638000BD4680BD9A6500409B65004000E100E09865004080B483B000AF1B4B02221A601A4B1B78BB711A4B1B787B71194B1B78DBB2002B03D1BA797B799A4218D0BB795C
:4063C000154AD35CFB71BB790133BB7197F90630002B01DA0023BB710C4ABB7913700D4B1B78DBB2002B06D00A4B00221A7002E00A4B1B78FB710A4B02221A60FB79184672
:406400000C37BD4680BC704780E100E09C84FF1F9D84FF1F9E84FF1F348AFF1F4B65004000E100E080B483B000AF1D4B02221A601C4B1B78DAB21C4B1B78DBB29A420AD1B8
:406440001A4B1B78DBB2002B02D08023FB711DE00023FB711AE0134B1B78DAB2124B1B78DBB29A4208D2104B1B78DAB20D4B1B78DBB2D31AFB7109E00B4B1B78DAB2094B58
:406480001B78DBB2D31ADBB2803BFB71084B02221A60FB7918460C37BD4680BC704700BF80E100E09C84FF1F9D84FF1F9E84FF1F00E100E080B582B000AF00F0DCF903467D
:4064C000FB71154A144B1B78DBB243F00103DBB21370114A104B1B78DBB223F00103DBB21370FB79184600F0CAF90C4B02221A600B4B00221A700B4B00221A700A4B002219
:406500001A700A4B00221A70094B02221A6000BF0837BD4680BD00BF9B65004080E100E09C84FF1F9D84FF1F9E84FF1F9F84FF1F00E100E080B483B000AF0346FB7100BF17
:40654000074B1B78DBB203F00403002BF8D1054AFB79137000BF0C37BD4680BC704700BF686500404865004080B483B000AF0023FB712C4B1B78BB71BB797B71BB7903F0A2
:406580001E03002B0CD097F9063003F01E035AB2254B1B785BB213435BB2DAB2224B1A70BB7903F02003002B31D0204B1B787B711F4B1B78DBB219461E4A7B795354012367
:4065C000FB71FB79002B22D01B4B1B78DBB2002B02D01A4B01221A70154B1B78DBB20133DAB2134B1A70124B1B78DBB25BB2002B02DA0F4B00221A700D4B1B78DAB2104B78
:406600001B78DBB29A4202D10B4B01221A70BB7903F02003002BACD100BF0C37BD4680BC704700BF6B6500409B84FF1F4B6500409D84FF1F348AFF1F9E84FF1F9F84FF1F06
:406640009C84FF1F80B500AF064B1B78002B04D100F00AF8034B01221A7000F031F800BF80BD00BFA184FF1F80B500AF0D490020FFF7CCF907210020FFF7F0F90A4B00225D
:406680001A700A4B72221A70094B20221A70094B06221A70084B47221A70084B00221A7000BF80BD25670000A284FF1F896400408A6400402664004036640040856400407E
:4066C00080B582B000AF00F0D6F80346FB71114A104B1B78DBB243F02003DBB213700E4A0D4B1B78DBB243F01003DBB213700B4B01221A600A4A0A4B1B78DBB243F01003AD
:40670000DBB21370FB79184600F0B9F800BF0837BD4680BD996400409A64004000E100E09564004080B483B000AF0023FB712C4B1B78BB71BB797B71BB7903F01E03002BB5
:406740000CD097F9063003F01E035AB2254B1B785BB213435BB2DAB2224B1A70BB7903F02003002B31D0204B1B787B711F4B1B78DBB219461E4A7B7953540123FB71FB7911
:40678000002B22D01B4B1B78DBB2002B02D01A4B01221A70154B1B78DBB20133DAB2134B1A70124B1B78DBB25BB2002B02DA0F4B00221A700D4B1B78DAB2104B1B78DBB276
:4067C0009A4202D10B4B01221A70BB7903F02003002BACD100BF0C37BD4680BC704700BF6A640040A284FF1F4D640040A484FF1FB48AFF1FA584FF1FA684FF1FA384FF1F85
:4068000080B400AF094A094B1B78DBB243F00803DBB21370064A064B1B78DBB243F00803DBB2137000BFBD4680BC7047A2430040B243004000000000142816D902B401213F
:4068400014381049097811F0C001890904B40E4A515C04BC00BF00BF00BF8841FDD500BF00BF02BC704700BF00BF70F10400FCD570470B050709EFF3108072B6704780F307
:4068800010887047004800407268000080B582B000AF00F0F1F84FF0FF337B6000F020FA0346002B24D1012000F0E8F90346072B1BD10221124800F003F90346022B0DD163
:4068C00000237B6002E00120FFF78CF80D4B1B78DBB203F00203002BF5D006E0094B1B78DBB203F00203002BE3D000F02DFA01E004237B607B6818460837BD4680BD00BF14
:40690000348BFF1F2247004080B582B000AF00F0B3F800F0E5F90346002B23D100F03CFA78607B68072B1AD102E00120FFF75AF8104B1B78DBB203F00203002BF5D00D4BE6
:406940001B78DBB203F00203002B08D0094B1B78DBB29B08DBB2002B01D100237B6000F0F3F901E004237B607B6818460837BD4680BD00BF2247004080B582B000AFFFF76A
:40698000C3FF78607B68002B02D1FFF77FFF78607B6818460837BD4680BD00BF80B582B000AFFFF768FF0346FB71194A184B1B78DBB243F00803DBB21370164A154B1B78E2
:4069C000DBB243F00803DBB21370134BC8221A70124A124B1B78DBB243F01003DBB213700F4A0F4B1B78DBB243F01003DBB2137000BF0C4B1B78DBB203F02003002BF8D053
:406A0000FB791846FFF73BFF00BF0837BD4680BDA0430040B043004001470040AC430040BC4300400047004080B400AF094A094B1B78DBB243F00103DBB2137000BF054B43
:406A40001B78DBB203F00203002BF8D000BFBD4680BC70470247004080B400AF054A054B1B78DBB223F00103DBB2137000BFBD4680BC70470247004080B582B000AFFFF7BA
:406A8000FAFE0346FB710C4A0B4B1B78DBB243F00803DBB21370094A084B1B78DBB243F00803DBB21370FB791846FFF7E8FE00BF0837BD4680BD00BFA0430040B0430040FA
:406AC00080B584B000AF78600B46FB700023FB7313E00120FEF786FF0C4B1B78DBB203F00103002BF5D0FB7B7A681344084A1278D2B21A70FB7B0133FB73FA7BFB789A42F8
:406B0000EAD3FB7B18461037BD4680BD224700402047004080B485B000AF3A601A460346FB710B46BB801346BB710723FB60FB793E2B02D8BB791F2B05D9FB793F2B45D981
:406B4000BB790F2B42D8254B1B78DBB203F00203002B38D0224BB6221A70214BD4221A701F4B01221A701D4B1B78DBB203F00203002B25D11A4AFB791370194ABB881B0A39
:406B80009BB2DBB203F00103DBB21370144BBA88D2B21A70124ABB79013BDBB213700023FB7208E00E49FB7A3A6813441B780B70FB7A0133FB72FA7ABB799A42F2D307E0D8
:406BC0000923FB6004E00423FB6001E00123FB60FB6818461437BD4680BC7047224700402047004090B484B000AF0446084611461A462346FB710346BB800B46BB71134651
:406C0000FB700723FB601B4B1B78DBB203F00203002B26D0184BB6221A70174BD8221A70154B05221A70134B1B78DBB203F00203002B13D1104AFB7913700F4ABB881B0A72
:406C40009BB2DBB213700C4BBA88D2B21A700A4ABB791370084AFB78137004E00923FB6001E00423FB60FB6818461037BD4690BC704700BF224700402047004080B485B069
:406C800000AF0346FB710723FB60134B1B78DBB203F00203002B16D0104BB6221A700F4BE1221A700D4B0E221A700B4B1B78DBB203F00203002B03D1084AFB79137004E014
:406CC0000923FB6001E00423FB60FB6818461437BD4680BC704700BF224700402047004080B582B000AF04237B60FFF7C4FD0346FB70124B1B78002B16D1104B01221A700C
:406D000000237B600E4B1B6803F00103002B0BD00B4A0B4B1B6823F00103136000BF00BF00BF084B01221A60FB781846FFF7A7FD7B6818460837BD4680BD00BFA884FF1F63
:406D400004000840AC84FF1F80B582B000AFFFF792FD0346FB710D4B00221A700C4B1B68012B0BD10B4A0B4B1B6843F00103136000BF00BF00BF064B00221A60FB7918466F
:406D8000FFF77DFD00BF0837BD4680BDA884FF1FAC84FF1F0400084080B483B000AF07237B600C4B1B78DBB203F00203002B09D0094BB6221A70084BE0221A70064B0D229E
:406DC0001A7001E004237B607B6818460C37BD4680BC704722470040204700400A22002100F0D6B8014B1868704700BF6084FF1F0E4B70B51E460E4C0025E41AA410A54253
:406E000004D056F8253098470135F8E700F058FA084B094C1E46E41AA4100025A54204D056F8253098470135F8E770BDCC720000CC720000CC720000D4720000931E222B45
:406E400010B50C4602D90020087010BD0A2A06D1002804DA2D230B704042012100E00021214400F09FF8204610BDFFF7E7BF10B5431E0A44914204D011F8014B03F8014FC4
:406E8000F8E710BD2DE9F0470F4680463F48D0F800903D4615F8014B09EB0400407800F0080000F0FF0608B12F46F2E72D2C03D1BD1C7C78012603E02B2C04BF7C78BD1C74
:406EC00013B1102B0AD15BE0302C57D1287800F0DF0058284DD16C7810230235002E14BF4FF0004C6FF0004CBCFBF3FA0027384603FB1ACC09EB040E9EF801E01EF0040F9C
:406F000001D0303C0BE01EF0030E1BD0BEF1010F0CBF4FF0370E4FF0570ECEEB0404A34210DDB7F1FF3F0AD0504506D801D1644503DC03FB0040012701E04FF0FF3715F884
:406F4000014BD7E77B1C0CD1002E4FF0220314BF4FF000406FF00040C8F800302AB9BDE8F08706B1404272B107B1691E1160BDE8F0873024002BB1D10823AFE70A23ADE776
:406F8000302CA3D0AAE7BDE8F08700BF6484FF1F13460A46014602480068FFF773BF00BF6084FF1FF0B58BB003460F466D461A4C04F1200E2E4620686168083403C67445C8
:406FC0003546F7D1217920683171911E222930604FF0000001D938701CE07D1EB3FBF2F402FB14330AAE334413F8283C411C05F8013F23460CB10846F0E77C543A18C11A50
:407000008B4206DAF95C1478FC5402F801190133F5E738460BB0F0BD9A71000000000000313233345AA50480030006005AA5048003000900280000003000000038000000E8
:4070400040000000480000004800000048000000480000008884FF1F8884FF1F8884FF1F8884FF1F8884FF1F8884FF1F8884FF1F8884FF1F8884FF1F00000048080000489E
:40708000100000481800004828000048B40A0048D40A00482000004834000048B400004834010048B401004834020048B402004834030048B403004834040048B4040048A8
:4070C00034050048B405004834060048B406004834070048B407004834080048B408004834090048B4090048340A0048F40A0048040B0048140B0048940B0048140C004819
:40710000940C0048140D0048940D0048140E0048940E0048140F0048940F00481410004894100048141100489411004814120048941200481413004894130048141400488F
:407140009414004814150048941500481416004894160048141700489417004814180048941800481419004894190048141A0048941A0048141B0048941B0048141C0048CF
:40718000941C0048141D0048941D0048141E0048941E0048141F00484300303132333435363738396162636465666768696A6B6C6D6E6F707172737475767778797A000007
:4071C0002020202020202020202828282828202020202020202020202020202020202020881010101010101010101010101010100404040404040404040410101010101067
:407200001041414141414101010101010101010101010101010101010101011010101010104242424242420202020202020202020202020202020202020202101010102030
