:400000000080002011000000614400006144000080B500AF024A034B1B68136004F02AFABC760040FA460040010000000020004001000000002001400100000000480040FB
:400040000100000000480140010000000100000008000223000008760800032300001076080004230000287608000523000030760500062300002070050007230000307065
:4000800005000823000060700500FE230000707010000A220000005130000B22000040511000FE220000C05180000D220000000000020E220000800180010F220000000466
:4000C0008001102200000006000211220000000E800112220000001480011322000000168000142200000041000115220000004480001622000000478000172200000048FC
:400100008000FE220000004D070019230000085207001A230000105207001B230000185207001C23000078520C001D230000004F0C001E2300000C4F0C001F230000184FD8
:4001400020002023000070642000FE23000070650800222300000051800023230000800080002423000000088000252300008008800026230000000A800027230000800A08
:40018000800028230000000C800029230000800C80002A230000001880002B230000801880002C230000001A80002D230000801A10002E230000105010002F2300000050FF
:4001C000800030230000804D800031230000004C800032230000804C8000332300008047800034230000004680003523000080468000362300000045800037230000804589
:40020000800038230000001B800039230000801B80003A230000801580003B230000001980003C230000801980003D230000801780003E230000000980003F2300008009A4
:400240008000402300008007800041230000000B800042230000800B8000432300008005800044230000000D800045230000800D800046230000800380004723000000018A
:400280008000482300000049800049230000804980004A230000804880004B230000004380004C230000804380004D230000004280004E230000804280004F230000804125
:4002C00080005023000000408000FE230000804010B5054C237833B9044B13B10448AFF300800123237010BDF083FF1F0000000054520000084B10B51BB108490848AFF36A
:4003000000800848036803B910BD074B002BFBD0BDE81040184700BF00000000F483FF1F54520000C880FF1F0000000090B583B000AF684B1B78FF2B07D0664B93F82331FF
:40034000FF2B02D1644B01221A70624B1B78FF2B07D0604B93F82331FF2B02D05E4B02221A705C4B93F84632FF2B07D0594B93F86933FF2B02D1584B03221A70554B93F816
:400380004632FF2B07D0534B93F86933FF2B02D0514B04221A70504B1B78012B09D14D4B1B78184602F05CF803461A46494B83F84C20494B1B78022B14D1464B1B781846D5
:4003C00002F04EF803461A46424B83F84C20414B93F82331184602F043F803461A463D4B83F86F213C4B1B78032B2ED10023FB7128E0FC79374B1B78184602F031F803464C
:400400001A46344B234483F84C20FC79314B93F82331184602F024F803461A462D4B234483F86F21FC792B4B93F84632184602F017F803461A46274B234483F89222FB794E
:400440000133FB71FB79042BD3D9234B1B78042B3BD10023FB7135E0FC791E4B1B78184601F0FEFF03461A461A4B234483F84C20FC79184B93F82331184601F0F1FF034655
:400480001A46144B234483F86F21FC79114B93F84632184601F0E4FF03461A460D4B234483F89222FC790B4B93F86933184601F0D7FF03461A46074B234483F8B523FB792E
:4004C0000133FB71FB79042BC6D900BF0C37BD4690BD00BF2884FF1F3089FF1F90B583B000AF9B4B03221A7004F058F862B604F0A3F904F03DFC04F045FD04F0F5FB954B99
:40050000012283F82920934B042283F82A20914B202283F82B208F4B002283F84C218D4B842283F84D218B4B552283F84E21894B93F829301B09DBB23033DAB2854B83F802
:400540000B21844B93F8293003F00F03DBB23033DAB2804B83F80C217E4B93F82A301B09DBB23033DAB27B4B83F80D21794B93F82A3003F00F03DBB23033DAB2754B83F886
:400580000E21744B93F82B301B09DBB23033DAB2704B83F80F216F4B93F82B3003F00F03DBB23033DAB26B4B83F81021694B93F84C311B09DBB23033DAB2664B83F82E2206
:4005C000644B93F84C3103F00F03DBB23033DAB2604B83F82F225F4B93F84D311B09DBB23033DAB25B4B83F830225A4B93F84D3103F00F03DBB23033DAB2564B83F83122E8
:40060000544B93F84E311B09DBB23033DAB2514B83F832224F4B93F84E3103F00F03DBB23033DAB24B4B83F833220023FB710BE0FC79FB79184601F04DFE03461A46464B44
:400640001A55FB790133FB71FB790F2BF0D9424B5A78404B1A70404B9A783E4B83F823213D4BDA783B4B83F846223B4B1A79394B83F86923374B00221A70364B012283F8F3
:400680002321364B00221A70354B00221A7004F069FC0346012B0DD12E4B93F823313149184601F09FFF2B4B93F82331184601F069FE01E0FFF73AFE04F034F80346002B84
:4006C000E5D1244B93F82331184601F0C9FE214B93F82301214B1B780122194602F00EF81C4B1B78184601F0BBFE1D4B1B78012B07D11B4B00221A70164B1B78184602F0F5
:4007000083F8174B1B78022B08D1154B00221A70104B93F82331184602F076F8104B1B78042B07D10E4B00221A700A4B1B78184603F092F90A4B1B78052BA8D1084B00227B
:400740001A70044B93F82331184603F085F99EE7FA88FF1F2884FF1FB888FF1F2E89FF1F2F89FF1F7485FF1F80B489B000AF78600B467B800023FB830023BB617B68002BB5
:400780002FD1002368E0FB8BDB0B9BB2BB60FB8B5B00FB837B681B781A46BB6942FA03F31BB203F001031AB2B7F91E3013431BB2FB83BB690133BB61BB69072B07DD00236F
:4007C000BB617B6801337B607B88013B7B80BB68002B06D0FB8B83F4FF4383F07A03DB43FB837B88002BCED100237B6113E0FB8BDB0B9BB2BB60FB8B5B00FB83BB68002B82
:4008000006D0FB8B83F4FF4383F07A03DB43FB837B6901337B617B690F2BE8DD00237B824FF400437B610123FB6011E0FA8B7B691340002B06D0FB681AB2B7F9123013431A
:400840001BB27B827B695B107B61FB685B00FB607B69002BEAD17B8A18462437BD4680BC704700BFF0B585B000AF164B1B78FB70144B5B7803F00F03BB70134B1B78BA78C0
:400880009A4240F02F830123FB730CE0FB7B013BFA7B0C49895C0C4A13440A4683F85120FB7B0133FB73FA7BFB7801339A42EDDB054B93F85330652B40F03E820523BB73A6
:4008C00025E000BFC888FF1F2884FF1FCD4B93F8553003F00F03591ECB4B1B781D46BB7B581FBB7BC74A134493F85160C54C2A4692002A440B469B000B445B0013442344F0
:400900000344013332461A70BB7B0133BB73BA7BBC4B93F8543004339A42D7DBB94B93F8553003F00F03591EB74B1B781D46B54B93F8553003F00F03581EB34B1B78B14CF1
:400940001A4692001A4403469B0003445B001344234401331B781B09DBB23033DCB2A9482A4692002A4453001A460B461B015B1A5B0013440344833322461A70A14B93F86C
:40098000553003F00F03591E9F4B1B781D469D4B93F8553003F00F03581E9B4B1B78994C1A4692001A4403469B0003445B001344234401331B7803F00F03DBB23033DCB2A7
:4009C00090482A4692002A4453001A460B461B015B1A5B0013440344843322461A70894B93F8553003F00F03591E874B1B781D46844B93F8553003F00F03581E824B1B7896
:400A0000804C1A4692001A4403469B0003445B001344234402331B781B09DBB23033DCB278482A4692002A4453001A460B461B015B1A5B0013440344853322461A70714BC8
:400A400093F8553003F00F03591E6F4B1B781D466C4B93F8553003F00F03581E6A4B1B78684C1A4692001A4403469B0003445B001344234402331B7803F00F03DBB23033AB
:400A8000DCB260482A4692002A4453001A460B461B015B1A5B0013440344863322461A70584B93F8553003F00F03591E564B1B781D46544B93F8553003F00F03581E524BCA
:400AC0001B78504C1A4692001A4403469B0003445B001344234403331B781B09DBB23033DCB248482A4692002A4453001A460B461B015B1A5B0013440344873322461A708E
:400B0000404B93F8553003F00F03591E3E4B1B781D463C4B93F8553003F00F03581E3A4B1B78384C1A4692001A4403469B0003445B001344234403331B7803F00F03DBB282
:400B40003033DCB22F482A4692002A4453001A460B461B015B1A5B0013440344883322461A70284B93F8553003F00F03591E264B1B781D46234B93F8553003F00F03581E03
:400B8000214B1B781F4C1A4692001A4403469B0003445B001344234404331B781B09DBB23033DCB217482A4692002A4453001A460B461B015B1A5B0013440344893322464A
:400BC0001A70104B93F8553003F00F03591E0E4B1B781D460B4B93F8553003F00F03581E094B1B78074C1A4692001A4403469B0003445B001344234404331B7803F00F03B7
:400C0000DBB203E02884FF1F2E89FF1F3033DCB2B9482A4692002A4453001A460B461B015B1A5B00134403448A3322461A70B24B93F8553003F00F03591EB04B1B781D468C
:400C4000AD4B93F8553003F00F03581EAB4B1B78A94C1A4692001A4403469B0003445B001344234405331B781B09DBB23033DCB2A1482A4692002A4453001A460B461B01F9
:400C80005B1A5B00134403448B3322461A709A4B93F8553003F00F03591E984B1B781D46954B93F8553003F00F03581E934B1B78914C1A4692001A4403469B0003445B003D
:400CC0001344234405331B7803F00F03DBB23033DCB289482A4692002A4453001A460B461B015B1A5B00134403448C3322461A70834B04221A70012004F018F9BB7843F05E
:400D00005003DBB2184603F0D9FE7B4B93F852305BB203F00F035BB263F03F035BB2DBB2184603F0CBFEFA2003F0C8FE042003F015FD002004F0FAF86F4B93F85330022B79
:400D400040F0D08004237B731BE07B7B043B7A7B69490A4492F85110674A13440A4683F839207B7B043B7A7B043263490A4492F85110614A13440A4683F835207B7B013311
:400D80007B737B7B072BE0D95B4B93F839301B09DBB23033DAB2584B83F80321564B93F8393003F00F03DBB23033DAB2524B83F80421514B93F83A301B09DBB23033DAB264
:400DC0004D4B83F805214C4B93F83A3003F00F03DBB23033DAB2484B83F80621464B93F83B301B09DBB23033DAB2434B83F80721414B93F83B3003F00F03DBB23033DAB21D
:400E00003D4B83F808213C4B93F83C301B09DBB23033DAB2384B83F80921374B93F83C3003F00F03DBB23033DAB2334B83F80A21314B93F835301B09DBB23033DAB22E4B9D
:400E400083F8FB202C4B93F8353003F00F03DBB23033DAB2284B83F8FC20274B93F836301B09DBB23033DAB2234B83F8FD20224B93F8363003F00F03DBB23033DAB21E4B99
:400E800083F8FE201C4B93F837301B09DBB23033DAB2194B83F8FF20174B93F8373003F00F03DBB23033DAB2134B83F80021124B93F838301B09DBB23033DAB20E4B83F80F
:400EC00001210D4B93F8383003F00F03DBB23033DAB2094B83F80221094B01221A70002004F024F8044B93F82331BA789A4240F0508301233B7312E02884FF1F2E89FF1F3F
:400F00002F89FF1F3B7B013B3A7B0C49895C0C4A13440A4683F874213B7B01333B733A7BFB7801339A42EDDB054B93F87631652B40F053820523FB7226E000BFC888FF1F76
:400F40002884FF1FCD4B93F8783103F00F03591ECB4B1B781D46FB7A581FFB7AC74A134493F87461C54C2A4692002A440B469B000B445B0013442344034403F59273324619
:400F80001A70FB7A0133FB72FA7ABC4B93F8773104339A42D6DBB94B93F8783103F00F03591EB74B1B781D46B44B93F8783103F00F03581EB24B1B78B04C1A4692001A44E9
:400FC00003469B0003445B001344234403F592731B781B09DBB23033DCB2A8482A4692002A4453001A460B461B015B1A5B001344034403F5D37322461A70A04B93F878313E
:4010000003F00F03591E9E4B1B781D469B4B93F8783103F00F03581E994B1B78974C1A4692001A4403469B0003445B001344234403F592731B7803F00F03DBB23033DCB2BF
:401040008E482A4692002A4453001A460B461B015B1A5B001344034403F2A71322461A70864B93F8783103F00F03591E844B1B781D46824B93F8783103F00F03581E804B6E
:401080001B787E4C1A4692001A4403469B0003445B001344234403F225131B781B09DBB23033DCB275482A4692002A4453001A460B461B015B1A5B001344034403F5D473E3
:4010C00022461A706D4B93F8783103F00F03591E6B4B1B781D46694B93F8783103F00F03581E674B1B78654C1A4692001A4403469B0003445B001344234403F225131B783D
:4011000003F00F03DBB23033DCB25C482A4692002A4453001A460B461B015B1A5B001344034403F2A91322461A70544B93F8783103F00F03591E524B1B781D464F4B93F8E0
:40114000783103F00F03581E4D4B1B784B4C1A4692001A4403469B0003445B001344234403F593731B781B09DBB23033DCB243482A4692002A4453001A460B461B015B1A32
:401180005B001344034403F5D57322461A703B4B93F8783103F00F03591E394B1B781D46364B93F8783103F00F03581E344B1B78324C1A4692001A4403469B0003445B00BE
:4011C0001344234403F593731B7803F00F03DBB23033DCB229482A4692002A4453001A460B461B015B1A5B001344034403F2AB1322461A70214B93F8783103F00F03591EED
:401200001F4B1B781D461D4B93F8783103F00F03581E1B4B1B78194C1A4692001A4403469B0003445B001344234403F227131B781B09DBB23033DCB210482A4692002A4419
:4012400053001A460B461B015B1A5B001344034403F5D67322461A70084B93F8783103F00F03591E064B1B781D46044B93F8783103F00F03581E024B1B7803E02884FF1FD8
:401280002E89FF1F594C1A4692001A4403469B0003445B001344234403F227131B7803F00F03DBB23033DCB250482A4692002A4453001A460B461B015B1A5B001344034445
:4012C00003F2AD1322461A70484B93F8783103F00F03591E464B1B781D46444B93F8783103F00F03581E424B1B78404C1A4692001A4403469B0003445B001344234403F507
:4013000094731B781B09DBB23033DCB237482A4692002A4453001A460B461B015B1A5B001344034403F5D77322461A702F4B93F8783103F00F03591E2D4B1B781D462B4BB2
:4013400093F8783103F00F03581E294B1B78274C1A4692001A4403469B0003445B001344234403F594731B7803F00F03DBB23033DCB21E482A4692002A4453001A460B46C1
:401380001B015B1A5B001344034403F2AF1322461A70184B05221A70012003F0C7FDBB7843F05003DBB2184603F088FB0F4B93F875315BB203F00F035BB263F03F035BB2A8
:4013C000DBB2184603F07AFBFA2003F077FB042003F0C4F9002003F0A9FD044B93F87631022B40F0D6800423BB7221E02884FF1F2E89FF1F2F89FF1FBB7A043BBA7A774928
:401400000A4492F87411754A13440A4683F85C21BB7A043BBA7A043270490A4492F874116E4A13440A4683F85821BB7A0133BB72BB7A072BE0D9694B93F85C311B09DBB277
:401440003033DAB2654B83F82622644B93F85C3103F00F03DBB23033DAB2604B83F827225E4B93F85D311B09DBB23033DAB25B4B83F82822594B93F85D3103F00F03DBB237
:401480003033DAB2554B83F82922544B93F85E311B09DBB23033DAB2504B83F82A224F4B93F85E3103F00F03DBB23033DAB24B4B83F82B22494B93F85F311B09DBB23033C6
:4014C000DAB2464B83F82C22444B93F85F3103F00F03DBB23033DAB2404B83F82D223F4B93F858311B09DBB23033DAB23B4B83F81E223A4B93F8583103F00F03DBB2303379
:40150000DAB2364B83F81F22344B93F859311B09DBB23033DAB2314B83F820222F4B93F8593103F00F03DBB23033DAB22B4B83F821222A4B93F85A311B09DBB23033DAB206
:40154000264B83F82222254B93F85A3103F00F03DBB23033DAB2214B83F823221F4B93F85B311B09DBB23033DAB21C4B83F824221A4B93F85B3103F00F03DBB23033DAB2C2
:40158000164B83F82522164B02221A70002003F0CDFC124B93F84632BA789A4240F0428301237B720CE07B7A013B7A7A0D49895C0A4A13440A4683F897227B7A01337B7218
:4015C0007A7AFB7801339A42EDDB044B93F89932652B40F0518205233B7227E02884FF1F2F89FF1FC888FF1FCD4B93F89B3203F00F03591ECB4B1B781D463B7A581F3B7AB1
:40160000C74A134493F89762C54C2A4692002A440B469B000B445B0013442344034403F2472332461A703B7A01333B723A7ABC4B93F89A3204339A42D6DBB94B93F89B3279
:4016400003F00F03591EB74B1B781D46B44B93F89B3203F00F03581EB24B1B78B04C1A4692001A4403469B0003445B001344234403F247231B781B09DBB23033DCB2A84880
:401680002A4692002A4453001A460B461B015B1A5B001344034403F2C92322461A70A04B93F89B3203F00F03591E9E4B1B781D469B4B93F89B3203F00F03581E994B1B788B
:4016C000974C1A4692001A4403469B0003445B001344234403F247231B7803F00F03DBB23033DCB28E482A4692002A4453001A460B461B015B1A5B001344034403F2CA2348
:4017000022461A70864B93F89B3203F00F03591E844B1B781D46824B93F89B3203F00F03581E804B1B787E4C1A4692001A4403469B0003445B001344234403F512731B78E1
:401740001B09DBB23033DCB275482A4692002A4453001A460B461B015B1A5B001344034403F2CB2322461A706D4B93F89B3203F00F03591E6B4B1B781D46694B93F89B32F3
:4017800003F00F03581E674B1B78654C1A4692001A4403469B0003445B001344234403F512731B7803F00F03DBB23033DCB25C482A4692002A4453001A460B461B015B1AE8
:4017C0005B001344034403F5337322461A70544B93F89B3203F00F03591E524B1B781D464F4B93F89B3203F00F03581E4D4B1B784B4C1A4692001A4403469B0003445B0055
:401800001344234403F249231B781B09DBB23033DCB243482A4692002A4453001A460B461B015B1A5B001344034403F2CD2322461A703B4B93F89B3203F00F03591E394B16
:401840001B781D46364B93F89B3203F00F03581E344B1B78324C1A4692001A4403469B0003445B001344234403F249231B7803F00F03DBB23033DCB229482A4692002A44A2
:4018800053001A460B461B015B1A5B001344034403F2CE2322461A70214B93F89B3203F00F03591E1F4B1B781D461D4B93F89B3203F00F03581E1B4B1B78194C1A46920097
:4018C0001A4403469B0003445B001344234403F24A231B781B09DBB23033DCB210482A4692002A4453001A460B461B015B1A5B001344034403F2CF2322461A70084B93F8A2
:401900009B3203F00F03591E064B1B781D46044B93F89B3203F00F03581E024B1B7803E02884FF1F2E89FF1FC34C1A4692001A4403469B0003445B001344234403F24A238E
:401940001B7803F00F03DBB23033DCB2BA482A4692002A4453001A460B461B015B1A5B001344034403F5347322461A70B24B93F89B3203F00F03591EB04B1B781D46AE4B05
:4019800093F89B3203F00F03581EAC4B1B78AA4C1A4692001A4403469B0003445B001344234403F24B231B781B09DBB23033DCB2A1482A4692002A4453001A460B461B012F
:4019C0005B1A5B001344034403F2D12322461A70994B93F89B3203F00F03591E974B1B781D46954B93F89B3203F00F03581E934B1B78914C1A4692001A4403469B00034492
:401A00005B001344234403F24B231B7803F00F03DBB23033DCB288482A4692002A4453001A460B461B015B1A5B001344034403F2D22322461A70012003F078FABB7843F07E
:401A40005003DBB2184603F039F87B4B93F898325BB203F00F035BB263F03F035BB2DBB2184603F02BF8FA2003F028F8042002F075FE002003F05AFA6F4B93F89932022BCD
:401A800040F0D0800423FB711BE0FB79043BFA7969490A4492F89712674A13440A4683F87F22FB79043BFA79043263490A4492F89712614A13440A4683F87B22FB790133B0
:401AC000FB71FB79072BE0D95B4B93F87F321B09DBB23033DAB2584B83F84923564B93F87F3203F00F03DBB23033DAB2524B83F84A23514B93F880321B09DBB23033DAB2B3
:401B00004D4B83F84B234C4B93F8803203F00F03DBB23033DAB2484B83F84C23464B93F881321B09DBB23033DAB2434B83F84D23414B93F8813203F00F03DBB23033DAB21F
:401B40003D4B83F84E233C4B93F882321B09DBB23033DAB2384B83F84F23374B93F8823203F00F03DBB23033DAB2334B83F85023314B93F87B321B09DBB23033DAB22E4BA0
:401B800083F841232C4B93F87B3203F00F03DBB23033DAB2284B83F84223274B93F87C321B09DBB23033DAB2234B83F84323224B93F87C3203F00F03DBB23033DAB21E4B99
:401BC00083F844231C4B93F87D321B09DBB23033DAB2194B83F84523174B93F87D3203F00F03DBB23033DAB2134B83F84623124B93F87E321B09DBB23033DAB20E4B83F810
:401C000047230D4B93F87E3203F00F03DBB23033DAB2094B83F84823094B03221A70002003F084F9044B93F86933BA789A4240F047830123BB7112E02884FF1F2E89FF1FFA
:401C40002F89FF1FBB79013BBA790C49895C0C4A13440A4683F8BA23BB790133BB71BA79FB7801339A42EDDB054B93F8BC33652B40F0508205237B7126E000BFC888FF1FA7
:401C80002884FF1FCD4B93F8BE3303F00F03591ECB4B1B781D467B79581F7B79C74A134493F8BA63C54C2A4692002A440B469B000B445B0013442344034403F26A333246A9
:401CC0001A707B7901337B717A79BC4B93F8BD3304339A42D6DBB94B93F8BE3303F00F03591EB74B1B781D46B44B93F8BE3303F00F03581EB24B1B78B04C1A4692001A4447
:401D000003469B0003445B001344234403F26A331B781B09DBB23033DCB2A8482A4692002A4453001A460B461B015B1A5B001344034403F57B7322461A70A04B93F8BE336B
:401D400003F00F03591E9E4B1B781D469B4B93F8BE3303F00F03581E994B1B78974C1A4692001A4403469B0003445B001344234403F26A331B7803F00F03DBB23033DCB295
:401D80008E482A4692002A4453001A460B461B015B1A5B001344034403F2ED3322461A70864B93F8BE3303F00F03591E844B1B781D46824B93F8BE3303F00F03581E804B2B
:401DC0001B787E4C1A4692001A4403469B0003445B001344234403F26B331B781B09DBB23033DCB275482A4692002A4453001A460B461B015B1A5B001344034403F2EE3359
:401E000022461A706D4B93F8BE3303F00F03591E6B4B1B781D46694B93F8BE3303F00F03581E674B1B78654C1A4692001A4403469B0003445B001344234403F26B331B78F9
:401E400003F00F03DBB23033DCB25C482A4692002A4453001A460B461B015B1A5B001344034403F2EF3322461A70544B93F8BE3303F00F03591E524B1B781D464F4B93F8E5
:401E8000BE3303F00F03581E4D4B1B784B4C1A4692001A4403469B0003445B001344234403F55B731B781B09DBB23033DCB243482A4692002A4453001A460B461B015B1AD5
:401EC0005B001344034403F57C7322461A703B4B93F8BE3303F00F03591E394B1B781D46364B93F8BE3303F00F03581E344B1B78324C1A4692001A4403469B0003445B003A
:401F00001344234403F55B731B7803F00F03DBB23033DCB229482A4692002A4453001A460B461B015B1A5B001344034403F2F13322461A70214B93F8BE3303F00F03591E29
:401F40001F4B1B781D461D4B93F8BE3303F00F03581E1B4B1B78194C1A4692001A4403469B0003445B001344234403F26D331B781B09DBB23033DCB210482A4692002A441E
:401F800053001A460B461B015B1A5B001344034403F2F23322461A70084B93F8BE3303F00F03591E064B1B781D46044B93F8BE3303F00F03581E024B1B7803E02884FF1F22
:401FC0002E89FF1FC04C1A4692001A4403469B0003445B001344234403F26D331B7803F00F03DBB23033DCB2B7482A4692002A4453001A460B461B015B1A5B0013440344C4
:4020000003F2F33322461A70AF4B93F8BE3303F00F03591EAD4B1B781D46AB4B93F8BE3303F00F03581EA94B1B78A74C1A4692001A4403469B0003445B001344234403F2C3
:402040006E331B781B09DBB23033DCB29E482A4692002A4453001A460B461B015B1A5B001344034403F57D7322461A70964B93F8BE3303F00F03591E944B1B781D46924B41
:4020800093F8BE3303F00F03581E904B1B788E4C1A4692001A4403469B0003445B001344234403F26E331B7803F00F03DBB23033DCB285482A4692002A4453001A460B4660
:4020C0001B015B1A5B001344034403F2F53322461A70012002F02AFFBB7843F05003DBB2184602F0EBFC784B93F8BB335BB203F00F035BB263F03F035BB2DBB2184602F0B4
:40210000DDFCFA2002F0DAFC042002F027FB002002F00CFF6C4B93F8BC33022B40F0D08004233B711BE03B79043B3A7966490A4492F8BA13644A13440A4683F8A2233B79A0
:40214000043B3A79043260490A4492F8BA135E4A13440A4683F89E233B7901333B713B79072BE0D9584B93F8A2331B09DBB23033DAB2554B83F86C24534B93F8A23303F0EC
:402180000F03DBB23033DAB24F4B83F86D244E4B93F8A3331B09DBB23033DAB24A4B83F86E24494B93F8A33303F00F03DBB23033DAB2454B83F86F24434B93F8A4331B0987
:4021C000DBB23033DAB2404B83F870243E4B93F8A43303F00F03DBB23033DAB23A4B83F87124394B93F8A5331B09DBB23033DAB2354B83F87224344B93F8A53303F00F03C9
:40220000DBB23033DAB2304B83F873242E4B93F89E331B09DBB23033DAB22B4B83F86424294B93F89E3303F00F03DBB23033DAB2254B83F86524244B93F89F331B09DBB265
:402240003033DAB2204B83F866241F4B93F89F3303F00F03DBB23033DAB21B4B83F86724194B93F8A0331B09DBB23033DAB2164B83F86824144B93F8A03303F00F03DBB232
:402280003033DAB2104B83F869240F4B93F8A1331B09DBB23033DAB20B4B83F86A240A4B93F8A13303F00F03DBB23033DAB2064B83F86B24064B04221A70002002F036FE3D
:4022C00000BF1437BD46F0BD2884FF1F2E89FF1F2F89FF1F90B585B000AF0346FB71274BFF221A70254BFF2283F82321234BFF2283F84622214BFF2283F86923012002F04B
:4023000015FEFB7943F05003DBB2184602F0D6FB202002F0D3FBFA2002F0D0FB042002F01DFA002002F002FE02F040FB0346BB730023FB7309E0FC7B02F0F0FA03461A46B2
:402340000F4B1A55FB7B0133FB73FA7BBB7B9A42F1D302F073FB4FF4967002F0FFF9BB7B002B05D0064B1B7803F00F03DBB200E0FF2318461437BD4690BD00BF2884FF1F6E
:40238000C888FF1F80B584B000AF0346FB710023FB7306E0FB7B2E4A0021D154FB7B0133FB73FB7B312BF5D9012002F0BFFDFB7943F05003DAB2264B1A70254B30225A70A3
:4023C000234B01229A70224B0122DA70204B06221A7105211E48FEF7C7F903461A461D4B1A801C4B1B881B0A9BB2DAB21A4B1A70184B1B88DAB2194B1A70184B1A78144B93
:402400005A71154B1A78124B9A71114B0322DA710F4BFA221A720023BB7308E0BB7B0C4AD35C184602F04AFBBB7B0133BB73BB7B092BF3D9042002F091F9002002F076FD2D
:40244000C82002F08BF97B7B18461037BD4680BDFC88FF1F3289FF1FB488FF1F3489FF1F90B585B000AF0346FB710023FB7306E0FB7B5A4A0021D154FB7B0133FB73FB7B30
:40248000312BF5D9012002F051FDFB7943F05003DBB2184602F012FB202002F00FFBFA2002F00CFB032002F059F9002002F03EFD02F07CFA03467B720123BB7309E0BC7B9A
:4024C00002F02CFA03461A46444B1A55BB7B0133BB73BA7B7B7A01339A42F0DB3F4A7B7A137002F0ABFA7B7A032B05D9FEF7BAF9642002F033F965E0642002F02FF9384B37
:402500001B78FA799A4212D100237B730BE07B7B7A7B3249895C324A13440A4683F851207B7B01337B737A7B7B7A9A42EFD32C4B93F82331FA799A4212D100233B730BE09C
:402540003B7B3A7B2549895C254A13440A4683F874213B7B01333B733A7B7B7A9A42EFD31F4B93F84632FA799A4212D10023FB720BE0FB7AFA7A1949895C194A13440A4643
:4025800083F89722FB7A0133FB72FA7A7B7A9A42EFD3134B93F86933FA799A4212D10023BB720BE0BB7ABA7A0C49895C0C4A13440A4683F8BA23BB7A0133BB72BA7A7B7A21
:4025C0009A42EFD37B7A002B02D0044B5B7800E0002318461437BD4690BD00BFC888FF1F2884FF1F90B585B000AF03463960FB71012002F09BFCFB7943F05003DAB23A4B0A
:402600001A70394B30225A70374B05229A70364B0322DA703B681A78334B1A713B685A78314B5A713B689A782F4B9A7107212E48FEF79AF803461A462C4B1A802B4B1B88A1
:402640001B0A9BB2DAB22A4B1A70284B1B88DAB2284B1A70274B1A78234BDA71244B1A78214B1A72204B03225A721F4BFA229A720023FB7308E0FB7B1B4AD35C184602F047
:402680001DFAFB7B0133FB73FB7B0B2BF3D9042002F064F8002002F049FC02F087F903467B730023BB7309E0BC7B02F037F903461A46114B1A55BB7B0133BB73BA7B7B7B37
:4026C0009A42F1D302F0BAF94FF4FA7002F046F87B7B002B02D0084B5B7800E0002318461437BD4690BD00BFFC88FF1F3289FF1FB488FF1F3489FF1FC888FF1F90B585B04C
:4027000000AF0346FB710B46BB7113467B71BB791B015AB297F9053013435BB27B73012002F004FCFB7943F05003DAB2314B1A70304B30225A702F4B65229A702D4B012225
:40274000DA702C4A7B7B137105212A48FEF70CF803461A46284B1A80274B1B881B0A9BB2DAB2264B1A70244B1B88DAB2244B1A70234B1A781F4B5A71204B1A781D4B9A718E
:402780001C4B0322DA711B4BFA221A720023FB7308E0FB7B174AD35C184602F08FF9FB7B0133FB73FB7B092BF3D9042001F0D6FF002002F0BBFB02F0F9F803463B730023A0
:4027C000BB7309E0BC7B02F0A9F803461A460D4B1A55BB7B0133BB73BA7B3B7B9A42F1D302F02CF9C82001F0B9FF00BF1437BD4690BD00BFFC88FF1F3289FF1FB488FF1FCF
:402800003489FF1FC888FF1F80B598B000AF0346FB71C54B1B78FA799A4240F05082002387F85F300BE097F85F30C04AD35C184602F0FEFB97F85F30013387F85F3097F8CF
:402840005F30152BEFD9BA4B1B78184602F0F0FB002387F85E300BE097F85E30B54AD35C184602F0E5FB97F85E30013387F85E3097F85E30152BEFD9AD4B1B78184602F0FA
:40288000D7FB002387F85D300BE097F85D30AA4AD35C184602F0CCFB97F85D30013387F85D3097F85D30172BEFD9A14B1B78184602F0BEFB002387F85C300BE097F85C3098
:4028C0009E4AD35C184602F0B3FB97F85C30013387F85C3097F85C300C2BEFD9012387F85B300DE097F85B308F4A134493F80B31184602F09DFB97F85B30013387F85B30E3
:4029000097F85B30052BEDD9894B1B78184602F08FFB002387F85A300BE097F85A30884AD35C184602F084FB97F85A30013387F85A3097F85A300C2BEFD9824B1B7818461A
:4029400002F076FB002387F859300DE097F85930754A134493F8FB30184602F069FB97F85930013387F8593097F85930072BEDD96F4B1B78184602F05BFB002387F85830C3
:402980000BE097F85830704AD35C184602F050FB97F85830013387F8583097F858300C2BEFD9002387F8573018E097F85730C3F10803664A1278934202D12E2002F038FBDE
:4029C00097F85730584A134493F80331184602F02FFB97F85730013387F8573097F85730072BE2D95A4B1B78184602F021FB504B1B78184602F01CFB002387F856300BE0F0
:402A000097F85630534AD35C184602F011FB97F85630013387F8563097F856300C2BEFD9002387F855300BE097F855304A4AD35C184602F0FDFA97F85530013387F855307B
:402A400097F85530072BEFD9394B1B78184602F0EFFA002387F854300BE097F854303F4AD35C184602F0E4FA97F85430013387F8543097F854300C2BEFD92B4B1B78313325
:402A8000DBB2184602F0D4FA294B1B78184602F0CFFA002387F853300BE097F85330304AD35C184602F0C4FA97F85330013387F8533097F853300C2BEFD9002387F85230F5
:402AC0000BE097F85230274AD35C184602F0B0FA97F85230013387F8523097F85230062BEFD9134B1B78184602F0A2FA002387F851300BE097F851300F4AD35C184602F01D
:402B000097FA97F85130013387F8513097F85130172BEFD9064B1B78184602F089FA002387F850302CE000BF2884FF1F5481FF1FCC80FF1F3C81FF1F6483FF1FF081FF1F6C
:402B40002082FF1F6083FF1F0082FF1FFA88FF1FD080FF1FE081FF1F6C81FF1FD081FF1FA081FF1F3481FF1F97F85030BA4AD35C184602F05DFA97F85030013387F85030B0
:402B800097F850300C2BEFD9B44B1B78184602F04FFA002387F84F300BE097F84F30B04AD35C184602F044FA97F84F30013387F84F3097F84F300C2BEFD9A84B1B781846DA
:402BC00002F036FA002387F84E300BE097F84E30A44AD35C184602F02BFA97F84E30013387F84E3097F84E30172BEFD99B4B1B78184602F01DFA002387F84D300BE097F83B
:402C00004D30994AD35C184602F012FA97F84D30013387F84D3097F84D30152BEFD98F4B1B78184602F004FA002387F84C300BE097F84C308D4AD35C184602F0F9F997F8B3
:402C40004C30013387F84C3097F84C30152BEFD9824B1B78184602F0EBF9002387F84B300BE097F84B30824AD35C184602F0E0F997F84B30013387F84B3097F84B30152B4A
:402C8000EFD9764B1B78184602F0D2F9002387F84A300BE097F84A30764AD35C184602F0C7F997F84A30013387F84A3097F84A30152BEFD9694B1B78184602F0B9F96E4B85
:402CC00093F82331FA799A4240F04E82002387F849300BE097F84930684AD35C184602F0A7F997F84930013387F8493097F84930152BEFD9594B1B78184602F099F9002347
:402D000087F848300BE097F848305D4AD35C184602F08EF997F84830013387F8483097F84830152BEFD94D4B1B78184602F080F9002387F847300BE097F84730494AD35CFC
:402D4000184602F075F997F84730013387F8473097F84730172BEFD9404B1B78184602F067F9002387F846300BE097F84630454AD35C184602F05CF997F84630013387F864
:402D8000463097F846300C2BEFD9012387F845300DE097F84530384A134493F82E32184602F046F997F84530013387F8453097F84530052BEDD9294B1B78184602F038F98F
:402DC000002387F844300BE097F844302E4AD35C184602F02DF997F84430013387F8443097F844300C2BEFD9284B1B78184602F01FF9002387F843300DE097F843301E4AAC
:402E0000134493F81E32184602F012F997F84330013387F8433097F84330072BEDD90F4B1B78184602F004F9002387F842300BE097F84230164AD35C184602F0F9F897F84A
:402E40004230013387F8423097F842300C2BEFD9002387F8413036E09081FF1FCC80FF1F8081FF1F6483FF1F1C81FF1F0481FF1FEC80FF1FD480FF1F2884FF1F5481FF1FBE
:402E80003C81FF1FF081FF1F2082FF1F6083FF1F0082FF1F97F84130C3F10803C44A1278934202D12E2002F0C3F897F84130C14A134493F82632184602F0BAF897F8413006
:402EC000013387F8413097F84130072BE2D9BA4B1B78184602F0ACF8B84B1B78184602F0A7F8002387F840300BE097F84030B44AD35C184602F09CF897F84030013387F8F1
:402F0000403097F840300C2BEFD9002387F83F300BE097F83F30AB4AD35C184602F088F897F83F30013387F83F3097F83F30082BEFD9A24B1B78184602F07AF8002387F838
:402F40003E300BE097F83E309F4AD35C184602F06FF897F83E30013387F83E3097F83E300C2BEFD9934B93F823313133DBB2184602F05EF8914B1B78184602F059F800238B
:402F800087F83D300BE097F83D30904AD35C184602F04EF897F83D30013387F83D3097F83D300C2BEFD9002387F83C300BE097F83C30874AD35C184602F03AF897F83C3017
:402FC000013387F83C3097F83C30062BEFD97B4B1B78184602F02CF8002387F83B300BE097F83B307B4AD35C184602F021F897F83B30013387F83B3097F83B30172BEFD986
:403000006E4B1B78184602F013F8002387F83A300BE097F83A30704AD35C184602F008F897F83A30013387F83A3097F83A300C2BEFD9624B1B78184601F0FAFF002387F888
:4030400039300BE097F83930644AD35C184601F0EFFF97F83930013387F8393097F839300C2BEFD9554B1B78184601F0E1FF002387F838300BE097F83830564AD35C184664
:4030800001F0D6FF97F83830013387F8383097F83830172BEFD9494B1B78184601F0C8FF002387F837300BE097F837304C4AD35C184601F0BDFF97F83730013387F8373030
:4030C00097F83730152BEFD93C4B1B78184601F0AFFF002387F836300BE097F83630414AD35C184601F0A4FF97F83630013387F8363097F83630152BEFD9304B1B781846B0
:4031000001F096FF002387F835300BE097F83530354AD35C184601F08BFF97F83530013387F8353097F83530152BEFD9234B1B78184601F07DFF002387F834300BE097F848
:4031400034302A4AD35C184601F072FF97F83430013387F8343097F83430152BEFD9174B1B78184601F064FF124B93F84632FA799A4240F06A82002387F833300BE097F892
:4031800033301B4AD35C184601F052FF97F83330013387F8333097F83330152BEFD9074B1B78184601F044FF002387F832302DE0FA88FF1F2884FF1FD080FF1FCC80FF1FAC
:4031C000E081FF1F7481FF1FD081FF1FA081FF1F3481FF1F6483FF1F9081FF1F8081FF1F1C81FF1F0481FF1FEC80FF1FD480FF1F5481FF1F97F83230CB4AD35C184601F098
:4032000017FF97F83230013387F8323097F83230152BEFD9C54B1B78184601F009FF002387F831300BE097F83130C14AD35C184601F0FEFE97F83130013387F8313097F889
:403240003130172BEFD9B94B1B78184601F0F0FE002387F830300BE097F83030B54AD35C184601F0E5FE97F83030013387F8303097F830300C2BEFD9012387F82F300DE0F4
:4032800097F82F30AC4A134493F85133184601F0CFFE97F82F30013387F82F3097F82F30052BEDD9A14B1B78184601F0C1FE002387F82E300BE097F82E30A04AD35C1846E8
:4032C00001F0B6FE97F82E30013387F82E3097F82E300C2BEFD99A4B1B78184601F0A8FE002387F82D300DE097F82D30924A134493F84133184601F09BFE97F82D300133C0
:4033000087F82D3097F82D30072BEDD9874B1B78184601F08DFE002387F82C300BE097F82C30884AD35C184601F082FE97F82C30013387F82C3097F82C300C2BEFD90023E3
:4033400087F82B3018E097F82B30C3F108037E4A1278934202D12E2001F06AFE97F82B30754A134493F84933184601F061FE97F82B30013387F82B3097F82B30072BE2D9AD
:40338000724B1B78184601F053FE684B1B78184601F04EFE002387F82A300BE097F82A306B4AD35C184601F043FE97F82A30013387F82A3097F82A300C2BEFD9002387F878
:4033C00029300BE097F82930624AD35C184601F02FFE97F82930013387F8293097F82930072BEFD9514B1B78184601F021FE002387F828300BE097F82830574AD35C1846DD
:4034000001F016FE97F82830013387F8283097F828300C2BEFD9484B93F846323133DBB2184601F005FE414B1B78184601F000FE002387F827300BE097F82730474AD35CE0
:40344000184601F0F5FD97F82730013387F8273097F827300C2BEFD9002387F826300BE097F826303E4AD35C184601F0E1FD97F82630013387F8263097F82630062BEFD9BE
:403480002A4B1B78184601F0D3FD002387F825300BE097F82530264AD35C184601F0C8FD97F82530013387F8253097F82530172BEFD91E4B1B78184601F0BAFD002387F8EE
:4034C00024300BE097F82430264AD35C184601F0AFFD97F82430013387F8243097F824300C2BEFD9114B1B78184601F0A1FD002387F823300BE097F823301B4AD35C1846B4
:4035000001F096FD97F82330013387F8233097F823300C2BEFD9054B1B78184601F088FD002387F822302DE03C81FF1FCC80FF1F6483FF1FF081FF1F2884FF1F2082FF1F23
:403540006083FF1F0082FF1FFA88FF1FD080FF1FE081FF1F6C81FF1FD081FF1FA081FF1F3481FF1F9081FF1F8081FF1F97F82230AC4AD35C184601F05BFD97F82230013381
:4035800087F8223097F82230172BEFD9A64B1B78184601F04DFD002387F821300BE097F82130A24AD35C184601F042FD97F82130013387F8213097F82130152BEFD99A4B1A
:4035C0001B78184601F034FD002387F820300BE097F82030964AD35C184601F029FD97F82030013387F8203097F82030152BEFD98D4B1B78184601F01BFD0023FB7708E060
:40360000FB7F8C4AD35C184601F012FDFB7F0133FB77FB7F152BF3D9834B1B78184601F007FD0023BB7708E0BB7F834AD35C184601F0FEFCBB7F0133BB77BB7F152BF3D9B1
:40364000794B1B78184601F0F3FC7C4B93F86933FA799A4240F0E48100237B7708E07B7F774AD35C184601F0E3FC7B7F01337B777B7F152BF3D96C4B1B78184601F0D8FC3B
:4036800000233B7708E03B7F6E4AD35C184601F0CFFC3B7F01333B773B7F152BF3D9624B1B78184601F0C4FC0023FB7608E0FB7E5C4AD35C184601F0BBFCFB7E0133FB76EF
:4036C000FB7E172BF3D9584B1B78184601F0B0FC0023BB7608E0BB7E5B4AD35C184601F0A7FCBB7E0133BB76BB7E0C2BF3D901237B760AE07B7E514A134493F87434184682
:4037000001F096FC7B7E01337B767B7E052BF1D9454B1B78184601F08BFC00233B7608E03B7E4A4AD35C184601F082FC3B7E01333B763B7E0C2BF3D9454B1B78184601F02B
:4037400077FC0023FB750AE0FB7D3C4A134493F86434184601F06CFCFB7D0133FB75FB7D072BF1D9304B1B78184601F061FC0023BB7508E0BB7D374AD35C184601F058FC1A
:40378000BB7D0133BB75BB7D0C2BF3D900237B7514E07B7DC3F108032F4A1278934202D12E2001F045FC7B7D244A134493F86C34184601F03DFC7B7D01337B757B7D072B93
:4037C000E7D9264B1B78184601F032FC164B1B78184601F02DFC00233B7508E03B7D204AD35C184601F024FC3B7D01333B753B7D0C2BF3D90023FB7408E0FB7C194AD35CC7
:40380000184601F015FCFB7C0133FB74FB7C082BF3D9054B1B78184601F00AFC0023BB742BE000BF6483FF1FCC80FF1F1C81FF1F0481FF1FEC80FF1FD480FF1F2884FF1FB1
:403840005481FF1F3C81FF1FF081FF1F2082FF1F6083FF1F0082FF1FFA88FF1FD080FF1FE081FF1F7481FF1FBB7C6F4AD35C184601F0DEFBBB7C0133BB74BB7C0C2BF3D9CF
:403880006A4B93F869333133DBB2184601F0D0FB674B1B78184601F0CBFB00237B7408E07B7C644AD35C184601F0C2FB7B7C01337B747B7C0C2BF3D900233B7408E03B7C68
:4038C0005D4AD35C184601F0B3FB3B7C01333B743B7C062BF3D9564B1B78184601F0A8FB0023FB7308E0FB7B544AD35C184601F09FFBFB7B0133FB73FB7B172BF3D94C4BA9
:403900001B78184601F094FB0023BB7308E0BB7B4B4AD35C184601F08BFBBB7B0133BB73BB7B0C2BF3D9424B1B78184601F080FB00237B7308E07B7B424AD35C184601F05A
:4039400077FB7B7B01337B737B7B0C2BF3D9384B1B78184601F06CFB00233B7308E03B7B364AD35C184601F063FB3B7B01333B733B7B172BF3D92E4B1B78184601F058FB23
:403980000023FB7208E0FB7A2F4AD35C184601F04FFBFB7A0133FB72FB7A152BF3D9244B1B78184601F044FB0023BB7208E0BB7A264AD35C184601F03BFBBB7A0133BB728B
:4039C000BB7A152BF3D91A4B1B78184601F030FB00237B7208E07B7A1D4AD35C184601F027FB7B7A01337B727B7A152BF3D9104B1B78184601F01CFB00233B7208E03B7A48
:403A0000144AD35C184601F013FB3B7A01333B723B7A152BF3D9064B1B78184601F008FB00BF6037BD4680BDD081FF1F2884FF1FCC80FF1FA081FF1F3481FF1F6483FF1FBF
:403A40009081FF1F8081FF1F1C81FF1F0481FF1FEC80FF1FD480FF1F80B58AB000AF0346FB71B94B1B78FA799A4240F06381002387F827300BE097F82730B44AD35C18467C
:403A800001F0D6FA97F82730013387F8273097F82730152BEFD9AE4B1B78184601F0C8FA002387F826300BE097F82630A94AD35C184601F0BDFA97F82630013387F82630EC
:403AC00097F82630152BEFD9A14B1B78184601F0AFFA002387F825300BE097F825309E4AD35C184601F0A4FA97F82530013387F8253097F82530172BEFD9954B1B781846ED
:403B000001F096FA002387F824300BE097F82430924AD35C184601F08BFA97F82430013387F8243097F824300C2BEFD9022387F8233018E097F82330C3F10A03884A1278A7
:403B4000934202D12E2001F073FA97F823307E4A134493F88330184601F06AFA97F82330013387F8233097F82330092BE2D9784B1B78184601F05CFA002387F822300BE06C
:403B800097F82230774AD35C184601F051FA97F82230013387F8223097F822300C2BEFD9694B1B783133DBB2184601F041FA684B1B78184601F03CFA002387F821300BE069
:403BC00097F82130684AD35C184601F031FA97F82130013387F8213097F821300C2BEFD95B4B1B78184601F023FA002387F820300BE097F82030584AD35C184601F018FA34
:403C000097F82030013387F8203097F82030172BEFD94F4B1B78184601F00AFA0023FB7708E0FB7F514AD35C184601F001FAFB7F0133FB77FB7F0C2BF3D9454B1B78184610
:403C400001F0F6F90023BB7708E0BB7F484AD35C184601F0EDF9BB7F0133BB77BB7F0C2BF3D93B4B1B78184601F0E2F900237B7708E07B7F384AD35C184601F0D9F97B7F14
:403C800001337B777B7F172BF3D9314B1B78184601F0CEF900233B7708E03B7F354AD35C184601F0C5F93B7F01333B773B7F152BF3D9274B1B78184601F0BAF90023FB767E
:403CC00008E0FB7E2C4AD35C184601F0B1F9FB7E0133FB76FB7E152BF3D91D4B1B78184601F0A6F90023BB7608E0BB7E234AD35C184601F09DF9BB7E0133BB76BB7E152B2C
:403D0000F3D9134B1B78184601F092F900237B7608E07B7E1A4AD35C184601F089F97B7E01337B767B7E152BF3D9094B1B78184601F07EF9044B93F82331FA799A4240F016
:403D4000598100233B7626E02884FF1F5481FF1FCC80FF1F3C81FF1F6483FF1F1082FF1FFA88FF1FD081FF1F3082FF1F9081FF1F8081FF1F1C81FF1F0481FF1FEC80FF1FC3
:403D8000D480FF1F3B7E9D4AD35C184601F050F93B7E01333B763B7E152BF3D9984B1B78184601F045F90023FB7508E0FB7D954AD35C184601F03CF9FB7D0133FB75FB7DAB
:403DC000152BF3D98E4B1B78184601F031F90023BB7508E0BB7D8C4AD35C184601F028F9BB7D0133BB75BB7D172BF3D9844B1B78184601F01DF900237B7508E07B7D834A81
:403E0000D35C184601F014F97B7D01337B757B7D0C2BF3D902233B7514E03B7DC3F10A037B4A1278934202D12E2001F001F93B7D784A134493F8A631184601F0F9F83B7D43
:403E400001333B753B7D092BE7D96D4B1B78184601F0EEF80023FB7408E0FB7C6E4AD35C184601F0E5F8FB7C0133FB74FB7C0C2BF3D9684B93F823313133DBB2184601F0C8
:403E8000D7F85F4B1B78184601F0D2F80023BB7408E0BB7C614AD35C184601F0C9F8BB7C0133BB74BB7C0C2BF3D9554B1B78184601F0BEF800237B7408E07B7C524AD35CBA
:403EC000184601F0B5F87B7C01337B747B7C172BF3D94B4B1B78184601F0AAF800233B7408E03B7C4E4AD35C184601F0A1F83B7C01333B743B7C0C2BF3D9414B1B7818469C
:403F000001F096F80023FB7308E0FB7B454AD35C184601F08DF8FB7B0133FB73FB7B0C2BF3D9374B1B78184601F082F80023BB7308E0BB7B344AD35C184601F079F8BB7B00
:403F40000133BB73BB7B172BF3D92D4B1B78184601F06EF800237B7308E07B7B324AD35C184601F065F87B7B01337B737B7B152BF3D9234B1B78184601F05AF800233B7308
:403F800008E03B7B294AD35C184601F051F83B7B01333B733B7B152BF3D9194B1B78184601F046F80023FB7208E0FB7A204AD35C184601F03DF8FB7A0133FB72FB7A152B76
:403FC000F3D90F4B1B78184601F032F80023BB7208E0BB7A174AD35C184601F029F8BB7A0133BB72BB7A152BF3D9054B1B78184601F01EF800BF2837BD4680BD5481FF1FB2
:40400000CC80FF1F3C81FF1F6483FF1F1082FF1FFA88FF1F2884FF1FD081FF1F3082FF1F9081FF1F8081FF1F1C81FF1F0481FF1FEC80FF1FD480FF1F80B584B000AFF860C5
:40404000B9607A607A68B968F86801F0F7F800BF1037BD4680BD00BF80B483B000AF0346FB71FEE780B483B000AF434B00221A60424B10221A70424B01221A70414B0022E4
:404080001A70414B4FF420721A80404B01221A703F4B03221A703F4B3F4A92B21A803F4B47F608021A803E4B00221A803D4B4FF480421A803C4B09221A703C4B0C221A70C7
:4040C0003B4B18221A703B4B21221A70BFF35F8F394B01221A70BFF35F8F00BF2A4B1B889BB2002BFAD100237B600DE07B68DA00324B13441946324A7B6852F823309BB274
:404100000B807B6801337B607B684F2BEED9BFF35F8F294B01221A70BFF35F8F00BF294B1B78DBB203F00103002BF8D100BF264B1B78DBB203F00103002BF8D100BF234BD7
:404140001B78DBB203F00103002BF8D100BF204B1B78DBB203F00103002BF8D100BF1D4B1B78DBB203F00103002BF8D100BF0C37BD4680BC704700BF1084FF1F00760040AE
:404180001070004019700040007800400278004003780040047800405000000006780040047600400676004029700040397000406970004079700040147000400C7800407D
:4041C00058520000187000402870004038700040687000407870004080B582B000AF3B4B4FF49C721A803A4B18221A70394B4FF49C721A80384B18221A70384B40F20922E7
:404200001A80374B18221A70364B47F22F521A80354B19221A70354B02221A704FF0402308221A70324B03221A70324B324A1278D2B21A70314B08221A80314B41F25122E1
:404240001A800023FB7019237B6014E0FB785B00DAB22C4B1B78DBB203F00103DBB21343DBB203F00303FB704FF4F07000F090FF7B68013B7B607B68002B02D0FB78032BB2
:40428000E4D17B68002B02D10320FFF7E5FE1E4B4FF480721A801C4B07221A701B4B00221A701B4B48221A70174B00221A70194B02221A70184A184B1B78DBB243F00F0364
:4042C000DBB2137000BF0837BD4680BD80400040824000408440004086400040884000408A4000408C4000408E4000400043004000420040A1460040080100492242004016
:40430000204200402542004004400040064000400840004001400040A243004080B483B000AF0B4B1B78FB710A4AFB7903F00703DBB21370084AFB791B09DBB21370074B70
:4043400044221A7000BF0C37BD4680BC704700BFCF0100496E5800406F5800407658004080B500AF72B62D4A2C4B1B78DBB243F00403DBB21370FFF775FE294A284B1B781C
:40438000DBB243F00203DBB21370264A254B1B78DBB243F00203DBB21370234A224B1B78DBB243F04003DBB21370204A1F4B1B78DBB243F01003DBB213700A221C491D4820
:4043C000FFF73AFE0A221C491C48FFF735FE0A221B491C48FFF730FE0A221B491B48FFF72BFE1B4A1A4B1B78DBB243F00803DBB21370184B60221A70FFF7EEFE154B8022BC
:404400001A70154B01221A70FFF788FF0E2206491248FFF711FE00BF80BD00BFE84600400350014013500140A0430040C24300402C170048F051004038170048105100407D
:4044400044170048205100405017004830510040224300400048004004000840B043004080B500AF00F0BEFE03461B680C2B00D1FEE7FEE780B586B000AF224B7B61224BCE
:404480003B61204B7B6135E03B691B68FB603B695B68BB603B699B683B6000237B600CE0FB681A68BB681A60BB680433BB60FB680433FB607B6804337B607A683B689A4292
:4044C000EED13B69DB683B6000237B6008E0BB6800221A60BB680433BB607B6804337B607A683B689A42F2D13B6910333B617B69013B7B617B69002BC6D100F079FEFBF7CA
:40450000EDFFFEE701000000C053000080B582B000AF184B184A1A60184A184B1B6843F40073136000237B600FE07B68032B04D8134A7B6852F8233000E0124B12497A68AB
:4045400041F822307B6801337B607B682F2BECD90E4B1B78DAB20E4B1A700E4B0A4A1A60FFF7FEFE0C4B00221A6000BF0837BD4680BD00BF0CED00E00004FA0514ED00E09B
:4045800000000000614400000080FF1FBC760040C480FF1F08ED00E0C080FF1F80B500AF064B1B78002B04D100F00AF8034B01221A7000F063F800BF80BD00BF1484FF1F40
:4045C00080B582B000AF284A274B1B78DBB243F00203DBB21370254B1B78DBB223F07003FB71224AFB7943F03003DBB21370204A1F4B1B78DBB223F03003DBB213701C4AD1
:404600001B4B1B78DBB243F03003DBB21370184A174B1B78DBB223F00F03DBB21370144A134B1B78DBB243F00F03DBB21370642000F048F8322000F055F8002000F062F887
:404640000C4A0C4B1B78DBB243F00103DBB21370094A094B1B78DBB243F00103DBB2137000BF0837BD4680BD004F0040024F00400B4F0040A3430040014F004080B400AF87
:404680000D4A0D4B1B78DBB243F00103DBB213700A4A0A4B1B78DBB243F00103DBB21370074A074B1B78DBB243F00103DBB2137000BFBD4680BC7047A3430040B3430040B9
:4046C000004F004080B483B000AF0346FB71044BFA7992B21A8000BF0C37BD4680BC7047044F004080B483B000AF0346FB71044BFA7992B21A8000BF0C37BD4680BC7047D2
:40470000064F004080B483B000AF0346FB71044AFB79137000BF0C37BD4680BC704700BF034F004080B400AF054B1B78DBB203F004039B08DBB21846BD4680BC704700BFFB
:404740002151004080B483B000AF0346FB7101BE00BF0C37BD4680BC704700BF80B582B000AF786008E00C4B1B68184600F010FD7B68A3F500437B607B68B3F5004FF2D8FE
:40478000064B1B687A6802FB03F3184600F000FD00BF0837BD4680BD8883FF1F8083FF1F80B584B000AF03463960FB710F4B1B68FB60FB791F2B02D90020FFF7C3FFFB79FA
:4047C00003F01F0310339B00FA6813441B68BB60FB7903F01F0310339B00FA6813443A681A60BB6818461037BD4680BD08ED00E080B582B000AF03460A46FB711346BB71B6
:40480000BB79072B02D90020FFF79CFFFB791F2B02D90020FFF796FFFB7903F01F0303F1604303F56443BA795201D2B21A7000BF0837BD4680BD00BF80B500AF064B1B782A
:40484000002B04D100F00AF8034B01221A7000F031F800BF80BD00BF1584FF1F80B500AF0D490020FFF79CFF07210020FFF7C0FF0A4B00221A700A4B72221A70094B2022CE
:404880001A70094B06221A70084B47221A70084B00221A7000BF80BDF14A00001684FF1F896500408A6500402A6500403A6500408B65004080B582B000AF00F088FC034626
:4048C000FB71124A114B1B78DBB243F02003DBB213700F4A0E4B1B78DBB243F01003DBB213700C4B01221A600B4A0B4B1B78DBB243F01003DBB2137000F068F9FB791846AE
:4049000000F069FC00BF0837BD4680BD996500409A65004000E100E09B65004080B483B000AF1B4B01221A601A4B1B78BB711A4B1B787B71194B1B78DBB2002B03D1BA798F
:404940007B799A4218D0BB79154AD35CFB71BB790133BB7197F90630002B01DA0023BB710C4ABB7913700D4B1B78DBB2002B06D00A4B00221A7002E00A4B1B78FB710A4B90
:4049800001221A60FB7918460C37BD4680BC704780E100E01784FF1F1884FF1F1984FF1F3889FF1F4965004000E100E080B483B000AF1D4B01221A601C4B1B78DAB21C4B4A
:4049C0001B78DBB29A420AD11A4B1B78DBB2002B02D08023FB711DE00023FB711AE0134B1B78DAB2124B1B78DBB29A4208D2104B1B78DAB20D4B1B78DBB2D31AFB7109E0E5
:404A00000B4B1B78DAB2094B1B78DBB2D31ADBB2803BFB71084B01221A60FB7918460C37BD4680BC704700BF80E100E01784FF1F1884FF1F1984FF1F00E100E080B582B09B
:404A400000AF00F0C4FB0346FB71154A144B1B78DBB243F00103DBB21370114A104B1B78DBB223F00103DBB21370FB79184600F0B2FB0C4B01221A600B4B00221A700B4B46
:404A800000221A700A4B00221A700A4B00221A70094B01221A6000BF0837BD4680BD00BF9965004080E100E01784FF1F1884FF1F1984FF1F1A84FF1F00E100E080B483B0C9
:404AC00000AF0346FB7100BF074B1B78DBB203F00403002BF8D1054AFB79137000BF0C37BD4680BC704700BF6B6500404B65004080B483B000AF0023FB712C4B1B78BB715B
:404B0000BB797B71BB7903F01E03002B0CD097F9063003F01E035AB2254B1B785BB213435BB2DAB2224B1A70BB7903F02003002B31D0204B1B787B711F4B1B78DBB21946E1
:404B40001E4A7B7953540123FB71FB79002B22D01B4B1B78DBB2002B02D01A4B01221A70154B1B78DBB20133DAB2134B1A70124B1B78DBB25BB2002B02DA0F4B00221A70BD
:404B80000D4B1B78DAB2104B1B78DBB29A4202D10B4B01221A70BB7903F02003002BACD100BF0C37BD4680BC704700BF6A6500401684FF1F496500401884FF1F3889FF1F5A
:404BC0001984FF1F1A84FF1F1784FF1F80B400AF094A094B1B78DBB243F00203DBB21370064A064B1B78DBB243F00203DBB2137000BFBD4680BC7047A2430040B24300407B
:404C000080B500AF224A224B1B78DBB203F00103DBB213701F4A1F4B1B78DBB223F00303DBB213701C4A1C4B1B78DBB223F03003DBB21370184A184B1B78DBB243F03003E6
:404C4000DBB21370144A144B1B78DBB223F00F03DBB21370104A104B1B78DBB243F00F03DBB213700D4A0D4B1B78DBB243F00103DBB2137045F6C95000F058F845F6C950EA
:404C800000F066F8002000F041F800BF80BD00BF0C4F00400E4F0040174F00400D4F004080B400AF0D4A0D4B1B78DBB243F00203DBB213700A4A0A4B1B78DBB243F002032D
:404CC000DBB21370074A074B1B78DBB243F00103DBB2137000BFBD4680BC7047A3430040B34300400C4F004080B500AF064B1B78002B04D1FFF784FF034B01221A70FFF7BC
:404D0000CFFF00BF80BD00BF1C84FF1F80B483B000AF0346FB71044AFB79137000BF0C37BD4680BC704700BF0F4F004080B485B000AF0346FB80FB88FB81044AFB89138087
:404D400000BF1437BD4680BC704700BF104F004080B483B000AF0346FB80044AFB88138000BF0C37BD4680BC704700BF124F004080B500AF064B1B78002B04D100F00AF885
:404D8000034B01221A7000F031F800BF80BD00BF1D84FF1F80B500AF0D490120FFF700FD07210120FFF724FD0A4B00221A700A4B72221A70094B20221A70094B06221A701D
:404DC000084B47221A70084B00221A7000BF80BD514E00001E84FF1F8A6400408D6400402B6400403B6400408C64004080B582B000AF00F0ECF90346FB71114A104B1B78ED
:404E0000DBB243F02003DBB213700E4A0D4B1B78DBB243F01003DBB213700B4B02221A600A4A0A4B1B78DBB243F01003DBB21370FB79184600F0CFF900BF0837BD4680BD7E
:404E40009A6400409D64004000E100E09C64004080B483B000AF0023FB712C4B1B78BB71BB797B71BB7903F01E03002B0CD097F9063003F01E035AB2254B1B785BB213431C
:404E80005BB2DAB2224B1A70BB7903F02003002B31D0204B1B787B711F4B1B78DBB219461E4A7B7953540123FB71FB79002B22D01B4B1B78DBB2002B02D01A4B01221A7060
:404EC000154B1B78DBB20133DAB2134B1A70124B1B78DBB25BB2002B02DA0F4B00221A700D4B1B78DAB2104B1B78DBB29A4202D10B4B01221A70BB7903F02003002BACD15D
:404F000000BF0C37BD4680BC704700BF6D6400401E84FF1F4A6400402084FF1FB889FF1F2184FF1F2284FF1F1F84FF1F80B485B000AF0346FB710A4B1B78DBB223F0010339
:404F4000FB730749FB7903F00103DAB2FB7B1343DBB20B7000BF1437BD4680BC704700BF2051004080B400AF054B1B78DBB203F00803DB08DBB21846BD4680BC704700BF64
:404F80002151004080B500AF064B1B78002B04D100F00AF8034B01221A7000F023F800BF80BD00BF2484FF1F80B500AF09490220FFF7F6FB07210220FFF71AFC064B0622F0
:404FC0001A70064B47221A70054B02221A7000BF80BD00BFE950000029640040396400408864004080B582B000AF00F0F0F80346FB710C4A0B4B1B78DBB243F01003DBB2D9
:405000001370094B04221A60084B04221A6000F0A3F8FB79184600F0DEF800BF0837BD4680BD00BF9864004080E200E000E100E080B485B000AF0346FB71254B1B78FB7369
:40504000244B1B78BB73FA7BBB7B9A4208D2FA7BBB7B013B9A420CBF01230023DBB207E0FA7BBB7BD31A042B0CBF01230023DBB2002BE2D1BA7BFB7B9A420AD1164B1B78BC
:40508000DBB203F00403002B03D1144AFB79137018E0FB7B042B01D90023FB73FB7B1049FA79CA54FB7B0133FB73094AFB7B1370094B1B78DBB203F00203002B02D0094B8C
:4050C00004221A6000BF1437BD4680BC704700BF2684FF1F2584FF1F6864004048640040388AFF1F00E200E080B400AF17E0154B1B78DBB2042B02D9124B00221A70124B5E
:40510000104A1278D2B21146104A525CD2B21A700C4B1B78DBB20133DAB20A4B1A70094B1B78DAB20A4B1B789A4206D0094B1B78DBB203F00403002BD9D000BFBD4680BC37
:40514000704700BF2584FF1F48640040388AFF1F2684FF1F6864004080B400AF094A094B1B78DBB243F00103DBB21370064A064B1B78DBB243F00103DBB2137000BFBD4697
:4051800080BC7047A2430040B243004000000000142816D902B4012114381049097811F0C001890904B40E4A515C04BC00BF00BF00BF8841FDD500BF00BF02BC704700BF1E
:4051C00000BF70F10400FCD570470B050709EFF3108072B6704780F31088704700480040CA510000014B1868704700BFEC83FF1F0E4B70B51E460E4C0025E41AA410A54264
:4052000004D056F8253098470135F8E700F0C6F8084B094C1E46E41AA4100025A54204D056F8253098470135F8E770BDA8530000A8530000A8530000B053000010B5431ED9
:405240000A44914204D011F8014B03F8014FF8E710BD00000000000028000000300000003800000040000000480000004800000048000000480000001084FF1F1084FF1F99
:405280001084FF1F1084FF1F1084FF1F1084FF1F1084FF1F1084FF1F1084FF1F1084FF1F1084FF1F1084FF1F1084FF1F1084FF1F1084FF1F000000480800004810000048F4
:4052C00018000048280000483400004840000048CC050048EC050048200000484C000048CC0000484C010048CC0100484C020048CC0200484C030048CC0300484C040048DC
:40530000CC0400484C0500480C0600481C0600482C060048AC0600482C070048AC0700482C080048AC0800482C090048AC0900482C0A0048AC0A00482C0B0048AC0B004822
:405340002C0C0048AC0C00482C0D0048AC0D00482C0E0048AC0E00482C0F0048AC0F00482C100048AC1000482C110048AC1100482C120048AC1200482C130048AC130048F5
:405380002C140048AC1400482C150048AC1500482C160048AC16004843000000F8B500BFF8BC08BC9E467047F50200000D450000F8B500BFF8BC08BC9E467047D1020000DA
:4053C000D0530000C880FF1F2803000050060000000000000A00000047000000204553544143494F4E20444520534552564943494F200000202020205052554542415320DD
:405400004D455053414E20202020000020202054656C3A20283537293132333435362020202000002020204E49543A203930302E3132332E34353620202000003132332DE5
:405440004142430020534953504554524F4C20494E47454E49455249412000002020534F4C5543494F4E455320504152412045445320000044696573656C2020436F727296
:4054800069656E746500000046656368612020202020203A20000000486F7261202020202020203A20000000506C6163612020202020203A200000004B696C6F6D657472E0
:4054C000616A653A200000005469706F202020202020203A20000000506F736963696F6E2020203A2000000050726F647563746F2020203A2000000050707520202020206F
:405500002020203A20000000566F6C756D656E202020203A20000000546F742E566F6C202020203A2000000044696E65726F20202020203A20000000436965727265204E5E
:405540006F20203A20000000436F6E736563757469766F3A2000000053616C646F2020202020203A20000000456D7072657361202020203A200000004375656E74612020E2
:405580002020203A2000000053657269616C20202020203A200000005469706F204375656E74613A2000000056697369746173204469613A200000005669736974617320F3
:4055C00053656D3A2000000056697369746173204D65733A20000000566F6C756D656E204469613A20000000566F6C756D656E2053656D3A20000000566F6C756D656E20B1
:405600004D65733A2000000044696E65726F20446961203A2000000044696E65726F2053656D203A2000000044696E65726F204D6573203A2000000056616C6F72205072BC
:405640006F672E3A200000004669726D612020202020203A20000000436564756C6120202020203A20000000240000002A2A2A2A2A2A2A2A2A2A2A2A2A2A2A2A2A2A2A2A0F
:405680002A2A2A2A00366E01C05D0000180000000000E02E00000000000000000000000000000000000000000000000000000000000000009853000000000000000000006F
:4056C000000000000000000000000000000000000000000000000000000000000000000000000000000000000000000000000000000000008C83FF1F00000000000000007D
:405700000000000000000000000000000000000000000000000000000000000000000000000000000000000000000000000000000000000000000000000000000000000069
:405740000000000000000000000000000000000000000000000000000000000000000000000000000000000000000000000000000000000000000000000000000000000029
:4057800000000000000000000000000000000000000000000000000000000000000000000000000000000000000000000000000000000000000000000000000000000000E9
:4057C00000000000000000000000000000000000000000000000000000000000000000000000000000000000000000000000000000000000000000000000000000000000A9
:020000040003F7
:0200000480007A
:400000008000000040000000000000000D000000800000000000000020200000100000003F00000000000000003000000000000000008D00008000000000000000004B005C
:40004000008000000000000000004B0000000000000000000000000000000000000000000000000000000000000000000000000000000000000000000000000000000000B5
:40008000000000000008000000000004000000000000000000000000000000000000000000000000000400000000000100000000000000000000000000000000000000002F
:4000C000000000000000000000000000000408007301041880020000000035000080000003E014100060008873480C80008000604A0014000000000000A00000100160F8B0
:4001000080040F020800800000001551140200000000CB0E1CFFFFFF0000F0440C000000010004000404040400000001000000000000C000000040020000000000000000DC
:40014000000000000000000000000000000000000F0000000000000100000B0200000000000004000C000200040009020F00000000000000200000000400100120011000CC
:40018000070008020000200000000141030000000040000000FF07FF4020F0050800000000000000040404000100000140A8402000000000000000000000000000000000D1
:4001C000000000000000000000000000004F00002600591000030004370048200000100051002010590626097F4600090401004E02040002064F00000000794F400830306E
:4002000007070E400000A820000000042506040003000C0E14FFFFFF62A0F0410C0000000000021304040404222200010000000000004002001030100010101200000000CC
:4002400000000000000000000000000000002800D100244C000000000000000800200003A84C1513D1112C0E02005400001100460000000000000000000000000300344A84
:400280000C0FC0308280282800004000010000000000040000FF07FF4020F0050800000000000000040404000202000140A8402000000000000000000000000000000000E1
:4002C0000000000000000000000000002400410501030E04712088000000000800000040C343302C502300540000800002000100B0004700007A80044000037880007F1FA3
:4003000000000060000020880000010024030000000B00EC31FFFFFF0000F0440C000000010000000404040422220001000000000000C000000040020000000000000000D0
:400340000000000000000000000000000000000014050A4A201F000000080314000004001F1200091F1F00001400090020000000200000200400002000000000101C08035E
:4003800007202040080020000000011000000000000000000000000000000000000000001C000400040400042220000100000000000000000000000000000000000000000E
:4003C000000000000000000000000000000000002400410081000E010000000002000100300047004300300050000002400003000000000000000000710008010000800389
:400400007F00000300008000000004440000000000000000000000000000000000000000000000000404000001000001000000000000000000000000000000000000000068
:400440000000000000000000000000007F06000959262619100000000000000F0021791E060400022600590037034804043F000002000000513F20000000000040073008D4
:4004800007200E100080A8020000001024010300060EC00009FFFFFF62A0F0410C000000000002110404040411110001000000000000400200103010001010120000000072
:4004C00000000000000000000000000000000020001F00000000000000400000000000000014000A000000200002000500000000011F0000010000000109001201200018C2
:40050000004000070000000000000011030000000000040000FF07FF4020F005080000001C000400040404041111000140A84020000000000000000000000000000000005F
:4005400000000000000000000000000000006500000098402300D400000000009A0864502301CC00030004030002000000000800007500020076000100230044E040500C1C
:400580001F30000300282A80000000112403000000E000BC32FFFFFF0000F0440C000000010000000404040411110001000000000000C0000000400200000000000000009E
:4005C0000000000000000000000000000000000000000000000000000000000000000000000000000F0072000F3C000000000000000000000000000000000000000000002F
:400600000000000000723C0F0000000002000000000000000000000002000000070000000000000000000000070004000000000000000000000000000000000000000000E7
:400640000000000000000000000000000000000000000000000000010000000000000000002000000000000000000000000000000000000000000000000000000000000059
:400680000000000000000000000000000000000000000000000000000000020000000000000000000000000000000000000000000000000000200000000000000000000018
:4006C00000000000000000000000000000000000000000000000000000000000000000000000000000000000000000000000000000000000000000000000000000000000FA
:4007000000000000000000000000000100000000000000000000000000000000000000000800000000000000000000000000000000000000000000000000000000000000B0
:40074000000000000000000000000000080000000000000000000000000000000000000004000000000000000000000000000200000000000000000000000000000000006B
:400780000000010000000000000004000000000000000000080000000000000000000000000000000000000000000000000000000800000000000000000000000000000024
:4007C00008000000000000000000000000000000000000000000000000000000000000000100000000000000000000000000000000000000000000000000000000000000F0
:4008000000000000000000000000000000000000000000000000000000000800000000000000000000000000000000000100000000000000000000000000000000000000AF
:400840000000000000000000000000000000000000000000000000000000000000000000000000000000000000000000000000000000000000000000000000000000000078
:400880000000000000000000000000000000000000000000000000000000000000000000000000000000000000000000000000000000000000000000000000000000000038
:4008C00008000000000000000000000000000000000000000000000000000000100000000000000000000000000000000800000000000000000000000000000000000000D8
:400900000000000000000000000000000000000000000000000000000000010000000000000000000000000000000000200000000000000000000000000000000000000096
:400940000000000000000000000000000000000000000000000000000000000000000000000000000000000000000000000000000000000000000000000000000400000073
:400980000000000000000000000000000000000000000000000000000000000000000000000000000000000000000000000000000000000000000000000000000000000037
:4009C00000000000000000000000000000000000000000000000000000000000000000000000000000000000000000000200000000000000000000000000000000000000F5
:400A00000400000000000000000000000000000000000000000000000000000000000000000000000000000000000000000000000012001000000000010800080054040027
:400A400000004000000040000038001620008A080000409400800400010000162000880000024411800400010000000800000004002800010002000040010000000040004B
:400A80000000000500010800200100888200000400000000000000000000000000000000000000000000000000000000000000000000020400000000200000040054080172
:400AC000000040000281000081004010200004001028C001000010000000000000000000008101000000000000000000700070001700000000007A00FE004B00E200000017
:400B00000000F3000D0000000000000000000000000000000100100000000000000000000000000000000000000000000000000000000000000000000000000000000000A4
:400B40000000000000000000000000000000000000000000000000000000000000000000000000000000000000000000000000000000000000000000000000000000000075
:400B80000000000000000000000000000000000000000000000010000000000000000000000000000000000000000000000000A800100010000042140028800280000808CD
:400BC00001004000002106280010188000011401008008004020008000800000008001080000800048020004200000006000448000000000200008000000000010000000EC
:400C00000000000000002000000000000000000000000000005400000000000080000018000000000000000000000000800000000000000000000000000000000800000020
:400C400060000200220000004000010000010000000000200000040100000000000000000000000000000000000000006E00FF009E000000000015001B002B000F00040010
:400C80000000040000000000000000000000000000000000100000000000000000000000000000000000000000000000000000000000000000000000000000000000000020
:400CC00000000000000000000000000000000000000000000000000000000000000000000000000000000000000000000000000000000000000000000000000000000000F4
:400D0000000000000000000000000000000000000000010010000000000000000000000000000000000000000000000040000020820004600202260000802020440001002D
:400D4000000000040840240100884840000280000045000800400000000080400000400000010064208000000008120000080000008040214001000000000000400040001A
:400D80000000841000000000000068010000000000000040000000000000000000000000000000000000000000000000000000000040004120400000000000000280900003
:400DC0000000008004000224000000090000000040008000000000000000000080010010090004040000000000000000F500A7002B00000000009800F800EC00B2000000E9
:400E00000000F00080000000000000000200000000000000000000000000000000000000000000000000000000000000000000000000000000000000000000000000000040
:400E40000000000000000000000000000000000000000000000000000000000000000000000000000000000000000000000000000000000000000000000000000000000072
:400E80000000000000000000000000000000000000000A00000000000000000000000000000000000000000000000000000001200400900082080400000028018200001426
:400EC000000000000015054004802001500850000200002400940140000000404800100000000025100A0040800000080008440000800000028000200000000100400008FA
:400F0000004000000002C0000020200000000000000000002020000200000000800000140000000000000000000000000000000000000000400004204A0400000008186067
:400F400000200503048282000821140A00000400204080088000000000000000040000000000000000000000000000003500EF000F00000000008F00EE005F0017000C0058
:400F80000000010000000000000000000000000000000000000000000000000000000000000000000000000000000000000000000000000000000000000000000000000030
:400FC00000000000000000000000000000000000000000000000000000000000000000000000000000000000000000000000000000000000000000000000000000000000F1
:40100000000000000000000000000000000000000000000000000000000001000000000000000000000000000000000014800000002480000000852040080005200004025F
:4010400000501801048A0800000450100024484000080421000800080020800120000800000000251021064000C0180100000000400010240000000000000004000000006E
:4010800000000A00080100000011400880208000000000000000000000000000000000000000000000000000000000000000000000000000000000000000000000000000A4
:4010C00000000000000000000000000000000000000000000000000000000000000000000000000000000000000000007700EF00FE00000000003600E600FE00E000000092
:401100000000F3000D0000000000000000000000000000000000000000000000000000000000000000000000000000000000000000000000000000000000000000000000AF
:40114000000000000000000000000000000000000000000000000020000000200000000000000000000000000000000000000000000000000000000000000000000000002F
:40118000000000000000000000000000000000000000000000000000000000000000000000000000000000000000000000000000000000000000000000000000000000002F
:4011C00000000000000000000000000000000000000000200000000000000000000000000000000000000000000000000000000000000000000000000000000000000000CF
:4012000000000000000000000000000000000000000000000000000000000000000000000000000000000000000000000000000000000000000000000000000000000000AE
:40124000000000000000000000000000000000000000000000000000000000000000000000000000000000000000000000000000000000000000000000000000000000006E
:40128000000000000000000000000002000000000000000000000000000000000000000000000000000000000000000000000000000000000000000000000000000000002C
:4012C00000000000000000020000000000000000000000000000000000000000000000000000000200000000000000000000000000000000000000000000000000000000EA
:4013000000008000000000000000000000000000000000000000000000000000000000000000000000000000000000000000400000000000000000000000000000000000ED
:4013400000008000000000000000000000000000000000000000000000000000000000001000000000000000000000000000000000000000000000000000000000000000DD
:4013800000000000000000000000000000000000000080000000000000000000000000000000000000000000000000000000000000000000000000000000000000000000AD
:4013C00000000000100000000000000000000000000000000000000000000000000000000000000000000000000000000000000000000000000000000000000000000000DD
:401400000000000000000000000000000800000000000000000000000000000000000000000000000000000000000000000000000800000800000000000000000000000094
:4014400000008000000000000000000000000000000000080000000000000000000000000000000000000000000000000000000000001000000000000000000000000000D4
:40148000000000004000000000000000000000000000500000000000000000000000000000000000000000000000000000000000000000000000000000000000000000009C
:4014C00000000000000000000000000000000000000000000000000000000000000000000000000000000000000000000000000000000000000000000000000000000000EC
:40150000000000000000000400000004000000040000000000000000000000000000000000000000000000000000000000000000000000000000000000000000000000049B
:4015400000008000000000040000000000000000000000080020000000000000000000000000000000000000000000000000000000000000000000000000000000000000BF
:401580000000C000400000000000000000000000000000000000000000008000000000000000000000000000000000000000000000000000000000000000000000000004A7
:4015C0000000800000000004002000000000000000000008000000040000000400000000000000000000000000000000000000000000000000000000000000000000000037
:4016000000000000000000000000000000000000000000000000C00000000000000000000000000000000000000000000000000000000000000000000000000000000000EA
:401640000000000000000000000000000000000000000000000000000000000000004008002000000000000000000000000000000000000000000000000000000000000002
:40168000000000000000000000000000000000000000000000000000000000000000000000000000000000000000000000000000000000000000000000000000000000002A
:4016C000000000000000000000000000000000000000000000000000000000000000000000000000000000000000000000000000000000000000000070000000000000007A
:4017000000000000000000000000000000000000000000000000000000000000000000000000000000000000000000002000102020002000000000008000408B8B008000C3
:40174000000000000500000F020002000000000080000080800080000000000000000000000000000000000000000000000000000000000000000000000000000000000051
:401780000000000000000000000000000000000000000000000000000000000000000000000000000000000000000000000000000000000000000000000000000000000029
:4017C00000000000000000000000000000000000000000000000000000000000000000000000000000000000000000000000000000000000000000000000000000000000E9
:4018000000000000000000000000000000000000000000000000000000000000000000000000000000000000000000000000000000000000000000000000000000000000A8
:401840000000000000000000000000000000000000000000000000000000000000000000000000000000000000000000000000000000000000000000000000000000000068
:0200000490006A
:0400000000004005B7
:0200000490105A
:04000000BC90ACAF55
:0200000490303A
:0200000035E3E6
:0200000490402A
:4000000000000000000000000000000000000000000000000000000000000000000000000000000000000000000000000000000000000000000000000000000000000000C0
:400040000000000000000000000000000000000000000000000000000000000000000000000000000000000000000000000000000000000000000000000000000000000080
:400080000000000000000000000000000000000000000000000000000000000000000000000000000000000000000000000000000000000000000000000000000000000040
:4000C0000000000000000000000000000000000000000000000000000000000000000000000000000000000000000000000000000000000000000000000000000000000000
:0200000490501A
:0C00000000012E16106900012E37464C3E
:00000001FF