:400000000080002011000000595900005959000080B500AF024A034B1B68136005F0A6FCBC760040FA46004001000000002000400100000000200140010000000048004062
:400040000100000000480140010000000100000008000223000008760800032300001076080004230000287608000523000030760500062300002070050007230000307065
:4000800005000823000060700500FE23000070703000FE220000405180000B220000000200010C220000004480000D220000004780000E22000000488000FE220000004D5C
:4000C0000700102300000052070011230000085207001223000010520700132300001852060014230000605207001523000078520C0016230000004F2000172300007064E0
:400100002000FE2300007065080019230000005180001A230000000080001B230000800080001C230000800280001D230000000480001E230000800480001F230000000607
:40014000800020230000800680002123000000088000222300008008800023230000000A800024230000800A800025230000000C800026230000800C800027230000000EFB
:40018000800028230000800E800029230000001480002A230000801480002B230000001680002C230000801680002D230000001880002E230000801880002F230000001A1F
:4001C000800030230000801A10003123000010501000322300000050800033230000804D800034230000004C800035230000804C80003623000080478000372300000046EF
:400200008000382300008046800039230000004580003A230000804580003B230000001B80003C230000801B80003D230000001580003E230000801580003F230000001981
:400240008000402300008019800041230000001780004223000080178000432300000009800044230000800980004523000000078000462300008007800047230000000BD8
:40028000800048230000800B800049230000000580004A230000800580004B230000000D80004C230000800D80004D230000000380004E230000800380004F230000000F86
:4002C000800050230000800F800051230000000180005223000080018000532300000049800054230000804980005523000080488000562300000043800057230000804359
:400300008000582300000042800059230000804280005A230000004180005B230000804180005C23000000408000FE230000804010B5054C237833B9044B13B10448AFF387
:4003400000800123237010BDA084FF1F00000000AC720000084B10B51BB108490848AFF300800848036803B910BD074B002BFBD0BDE81040184700BF00000000A484FF1F8D
:40038000AC720000C880FF1F0000000090B583B000AF724B1B78FF2B07D0704B93F82D31FF2B02D16E4B01221A706C4B1B78FF2B07D06A4B93F82D31FF2B02D0684B02227E
:4003C0001A70664B93F85A32FF2B07D0634B93F88733FF2B02D1624B03221A705F4B93F85A32FF2B07D05D4B93F88733FF2B02D05B4B04221A705A4B1B78012B09D1574B7D
:400400001B78184602F05AFF03461A46534B83F84C20534B1B78022B29D1504B93F82B31062B04D14D4B1B78184602F0D9FE4B4B93F85832062B05D1484B93F82D31184694
:4004400002F0CEFE454B1B78184602F037FF03461A46424B83F84C20404B93F82D31184602F02CFF03461A463C4B83F879213C4B1B78032B2ED10023FB7128E0FC79374BEF
:400480001B78184602F01AFF03461A46334B234483F84C20FC79314B93F82D31184602F00DFF03461A462D4B234483F87921FC792A4B93F85A32184602F000FF03461A46FF
:4004C000264B234483F8A622FB790133FB71FB79042BD3D9224B1B78042B3BD10023FB7135E0FC791D4B1B78184602F0E7FE03461A461A4B234483F84C20FC79174B93F83C
:400500002D31184602F0DAFE03461A46134B234483F87921FC79114B93F85A32184602F0CDFE03461A460D4B234483F8A622FC790A4B93F88733184602F0C0FE03461A463E
:40054000064B234483F8D323FB790133FB71FB79042BC6D900BF0C37BD4690BDF084FF1F2A8AFF1F90B58FB000AF864A07F11C0310681860844A07F1140310681860918856
:40058000927999809A71814A07F10C03106818609188927999809A717D4B03221A7005F079FA62B605F0CEFF06F096F905F0C6FE05F0E0FB05F014FE002005F0A1FE034637
:4005C0005A2B19D1002387F8373010E097F8374097F837309BB2184605F092FE03461A466C4B1A5597F83730013387F8373097F83730052BEAD915E000215A2005F0F6FD27
:40060000012387F8373009E097F83730614A3021D15497F83730013387F8373097F83730052BF1D95B4B5B7903F00F03DBB21B01DAB2584B1B7903F00F03DBB219469B0039
:40064000CB1ADB00DBB21344DAB2524B9B7803F00F03DBB2194689000B445B00D9B24D4BDB7803F00F03DBB2184680000344184684001846234603449B00DBB20B44DBB255
:400680001344DAB2434B5B7803F00F03DBB21344DAB2414B1A70062005F032FE03465A2B1CD1002387F8373013E097F837309C1D97F837309BB206339BB2184605F020FE80
:4006C00003461A46354B1A5597F83730013387F8373097F83730052BE7D916E006215A2005F084FD012387F837300AE097F8373006332A4A3021D15497F83730013387F8A9
:40070000373097F83730052BF0D9244B5B7903F00F03DBB21B01DAB2204B1B7903F00F03DBB219469B00CB1ADB00DBB21344DAB21A4B9B7803F00F03DBB2194689000B44EA
:400740005B00D9B2154BDB7803F00F03DBB2184680000344184684001846234603449B00DBB20B44DBB21344DAB20C4B5B7803F00F03DBB21344DAB2094B1A70002387F833
:40078000373094E0B0720000B4720000BC720000EA89FF1FE884FF1F2B8AFF1F208AFF1F268AFF1F97F8374097F837309BB20C339BB2184605F0A4FD03461A46C64B23447A
:4007C00083F8292097F8374097F837309BB20F339BB2184605F094FD03461A46BE4B234483F82C2097F8374097F837309BB212339BB2184605F084FD03461A46B64B2344D9
:4008000083F82F2097F8374097F837309BB215339BB2184605F074FD03461A46AE4B234483F8322097F8374097F837309BB218339BB2184605F064FD03461A46A64B2344E0
:4008400083F8562197F8374097F837309BB21B339BB2184605F054FD03461A469E4B234483F8592197F8374097F837309BB21E339BB2184605F044FD03461A46964B2344A4
:4008800083F85C2197F8374097F837309BB221339BB2184605F034FD03461A468E4B234483F85F2197F83730013387F8373097F83730022B7FF676AF874B93F829301B0947
:4008C000DBB23033DAB2844B83F80B21824B93F8293003F00F03DBB23033DAB27E4B83F80C217D4B93F82A301B09DBB23033DAB2794B83F80D21784B93F82A3003F00F03FC
:40090000DBB23033DAB2744B83F80E21724B93F82B301B09DBB23033DAB26F4B83F80F216D4B93F82B3003F00F03DBB23033DAB2694B83F81021684B93F856311B09DBB235
:400940003033DAB2644B83F83822634B93F8563103F00F03DBB23033DAB25F4B83F839225D4B93F857311B09DBB23033DAB25A4B83F83A22584B93F8573103F00F03DBB224
:400980003033DAB2544B83F83B22534B93F858311B09DBB23033DAB24F4B83F83C224E4B93F8583103F00F03DBB23033DAB24A4B83F83D22002387F833300FE097F8334079
:4009C00097F83330184602F0B3FB03461A46434B1A5597F83330013387F8333097F833300F2BEBD93D4B5A783B4B1A703B4B9A78394B83F82D21394BDA78374B83F85A22CB
:400A0000364B1A79344B83F88723334B00221A70314B012283F82D21314B00221A70002387F836302F4B00221A70FFF7AFFC05F06DFA034687F8203097F82030042B16D904
:400A4000002387F832300CE097F8324005F016FA03461A46244B1A5597F83230013387F8323097F8322097F820309A42ECD3042005F0E0F81C4B1B7A1C2B25D01C2B05DC47
:400A80000A2B58D00B2B00F0A1803BE1CA2B3CD0CC2B00F0EA80AA2B40F03481012387F83630002387F8313009E097F831300E4A0021D15497F83130013387F8313097F854
:400AC0003130132BF1D944E3022387F83630002387F8303014E000BFF084FF1FA889FF1F278AFF1F288AFF1F308AFF1F97F83030C24A0021D15497F83030013387F830300C
:400B000097F83030132BF1D923E3032387F83630002387F82F3009E097F82F30B74A0021D15497F82F30013387F82F3097F82F30132BF1D90DE397F83630012B19D100237A
:400B400087F83630AE4B1B78184602F049FB002387F82E3009E097F82E30A84A0021D15497F82E30013387F82E3097F82E30132BF1D997F83630022B40F0E6820A2387F809
:400B800036309F4B1B78184602F098FB9C4B18789C4B1B780122194602F052FC984B1B78184602F08BFB002387F82D3009E097F82D30924A0021D15497F82D30013387F8DB
:400BC0002D3097F82D30132BF1D9BDE297F83630012B1AD1002387F83630894B93F82D31184602F0FDFA002387F82C3009E097F82C30824A0021D15497F82C30013387F86B
:400C00002C3097F82C30132BF1D997F83630022B40F09C820B2387F83630794B93F82D31184602F04BFB764B93F82D01754B1B780122194602F004FC714B93F82D3118465B
:400C400002F03CFB002387F82B3009E097F82B306A4A0021D15497F82B30013387F82B3097F82B30132BF1D970E2654B93F82D31184602F023FB624B93F82D01614B1B7899
:400C80000122194602F0DCFB0A2004F0D3FF5C4B93F82D31184602F011FB594B1B78184602F00CFB564B1878564B1B780122194602F0C6FB0A2004F0BDFF514B1B7818467E
:400CC00002F0FCFA4E4B93F82D31184602F0F6FA4B4B1B78184602F0F1FA002387F82A3009E097F82A30454A0021D15497F82A30013387F82A3097F82A30132BF1D903F069
:400D00008DFC26E23D4BDB78832B40F0E48097F834300A2B40F0DF80384B1B7AE12B00F0DA80002387F829300BE097F82930344A1344302283F80B2197F82930013387F8A9
:400D4000293097F82930052BEFD9002387F835302D4B00221A70002387F83430072387F8283021E097F82830244AD35C002B1FD097F82830214AD35CFF2B19D097F82830EE
:400D8000073B97F828201D498A5C07F138010B4403F8342C97F83530013387F8353097F82830013387F8283097F828300B2BD9D9062387F837301BE097F8373097F8352042
:400DC00007F138010A4412F8341C0D4A13440A4683F80B2197F83530002B17D097F83530013B87F8353097F83730013B87F8373097F83730002BDFD109E000BF308AFF1FF2
:400E0000F084FF1F278AFF1F288AFF1F00BFB44B93F80B31303B1B015AB2B14B93F80C31303BDBB25BB213435BB2DAB2AC4B83F82920AB4B93F80D31303B1B015AB2A84BB1
:400E400093F80E31303BDBB25BB213435BB2DAB2A34B83F82A20A24B93F80F31303B1B015AB29F4B93F81031303BDBB25BB213435BB2DAB29A4B83F82B20002387F8373058
:400E800013E097F83730964A134493F8292097F837309BB20C339BB21946104605F0A6F997F83730013387F8373097F83730022BE7D9002387F8273009E097F82730894A98
:400EC0000021D15497F82730013387F8273097F82730132BF1D9834BDB78832B0AD197F83430012B06D17F4B1A7A7F4B1A700A2387F834307B4BDB78832B58D197F8363087
:400F0000032B54D1002387F83630764BDA793B7F9A422CD1734B1A7A7B7F9A4227D1714B5A7ABB7F9A4222D16E4B9A7AFB7F9A421DD16C4BDB7AFF2B19D1002387F82630CD
:400F40000EE097F8263007F13802134413F8243C184605F023F897F82630013387F8263097F82630052BECD9042004F063FE5D4B1B7A012B02D1012387F83430594B1B7A7F
:400F8000022B02D1022387F83430002387F8253009E097F82530534A0021D15497F82530013387F8253097F82530132BF1D94D4BDB78832B5DD197F836300A2B59D100236C
:400FC00087F83630072387F8243037E097F82430444AD35C002B35D097F82430414AD35CFF2B2FD097F824303E4AD35C602B14D997F824303B4AD35C7A2B0ED897F824304B
:40100000073B97F8242037498A5C203AD1B2344A13440A4683F823210BE097F82430073B97F824202F49895C2D4A13440A4683F8232197F82430013387F8243097F824308A
:401040000E2BC3D9002387F8233009E097F82330244A0021D15497F82330013387F8233097F82330132BF1D91D4B1B78184602F06DFA1C4BDB78832B6AD197F836300B2BD5
:4010800066D1002387F83630072387F822303EE097F82230134AD35C002B3CD097F82230104AD35CFF2B36D097F822300D4AD35C602B1BD997F822300A4AD35C7A2B15D8BE
:4010C00097F82230073B97F8222006498A5C203AD1B2034A13440A4683F8502212E000BFF084FF1F308AFF1F288AFF1F97F82230073B97F822201949895C194A13440A46D9
:4011000083F8502297F82230013387F8223097F822300E2BBCD9002387F8213009E097F821300E4A0021D15497F82130013387F8213097F82130132BF1D9094B93F82D31CA
:40114000184602F003FA03E000BF02E000BF00E000BF002387F8203067E400BF308AFF1FF084FF1F80B489B000AF78600B467B800023FB830023BB617B68002B2FD1002389
:4011800068E0FB8BDB0B9BB2BB60FB8B5B00FB837B681B781A46BB6942FA03F31BB203F001031AB2B7F91E3013431BB2FB83BB690133BB61BB69072B07DD0023BB617B6889
:4011C00001337B607B88013B7B80BB68002B06D0FB8B83F4FF4383F07A03DB43FB837B88002BCED100237B6113E0FB8BDB0B9BB2BB60FB8B5B00FB83BB68002B06D0FB8B1B
:4012000083F4FF4383F07A03DB43FB837B6901337B617B690F2BE8DD00237B824FF400437B610123FB6011E0FA8B7B691340002B06D0FB681AB2B7F9123013431BB27B82A2
:401240007B695B107B61FB685B00FB607B69002BEAD17B8A18462437BD4680BC704700BFF0B587B000AF184B1B787B71164B5B7803F00F033B71154B1B783A799A4240F0E9
:401280005184124B002283F82B210123FB750CE0FB7D013BFA7D0C49895C0C4A13440A4683F85120FB7D0133FB75FA7D7B7901339A42EDDB054B93F85330652B40F07F82C7
:4012C0000523BB7525E000BFB889FF1FF084FF1FCD4B93F8553003F00F03591ECB4B1B781D46BB7D581FBB7DC74A134493F85160C54C2A4692002A440B469B000B445B008F
:40130000134423440344013332461A70BB7D0133BB75BA7DBC4B93F8543004339A42D7DBB94B93F8553003F00F03591EB74B1B781D46B54B93F8553003F00F03581EB34BB3
:401340001B78B14C1A4692001A4403469B0003445B001344234401331B781B09DBB23033DCB2A9482A4692002A4453001A460B461B015B1A5B0013440344833322461A7049
:40138000A14B93F8553003F00F03591E9F4B1B781D469D4B93F8553003F00F03581E9B4B1B78994C1A4692001A4403469B0003445B001344234401331B7803F00F03DBB217
:4013C0003033DCB290482A4692002A4453001A460B461B015B1A5B0013440344843322461A70894B93F8553003F00F03591E874B1B781D46844B93F8553003F00F03581EFB
:40140000824B1B78804C1A4692001A4403469B0003445B001344234402331B781B09DBB23033DCB278482A4692002A4453001A460B461B015B1A5B001344034485332246A4
:401440001A70714B93F8553003F00F03591E6F4B1B781D466C4B93F8553003F00F03581E6A4B1B78684C1A4692001A4403469B0003445B001344234402331B7803F00F034B
:40148000DBB23033DCB260482A4692002A4453001A460B461B015B1A5B0013440344863322461A70584B93F8553003F00F03591E564B1B781D46544B93F8553003F00F03E3
:4014C000581E524B1B78504C1A4692001A4403469B0003445B001344234403331B781B09DBB23033DCB248482A4692002A4453001A460B461B015B1A5B0013440344873363
:4015000022461A70404B93F8553003F00F03591E3E4B1B781D463C4B93F8553003F00F03581E3A4B1B78384C1A4692001A4403469B0003445B001344234403331B7803F025
:401540000F03DBB23033DCB22F482A4692002A4453001A460B461B015B1A5B0013440344883322461A70284B93F8553003F00F03591E264B1B781D46234B93F8553003F0E2
:401580000F03581E214B1B781F4C1A4692001A4403469B0003445B001344234404331B781B09DBB23033DCB217482A4692002A4453001A460B461B015B1A5B0013440344DC
:4015C000893322461A70104B93F8553003F00F03591E0E4B1B781D460B4B93F8553003F00F03581E094B1B78074C1A4692001A4403469B0003445B001344234404331B788E
:4016000003F00F03DBB203E0F084FF1F278AFF1F3033DCB2B8482A4692002A4453001A460B461B015B1A5B00134403448A3322461A70B14B93F8553003F00F03591EAF4BB4
:401640001B781D46AC4B93F8553003F00F03581EAA4B1B78A84C1A4692001A4403469B0003445B001344234405331B781B09DBB23033DCB2A0482A4692002A4453001A466A
:401680000B461B015B1A5B00134403448B3322461A70994B93F8553003F00F03591E974B1B781D46944B93F8553003F00F03581E924B1B78904C1A4692001A4403469B006D
:4016C00003445B001344234405331B7803F00F03DBB23033DCB288482A4692002A4453001A460B461B015B1A5B00134403448C3322461A7000237B753AE07F4B93F85530B6
:4017000003F00F03591E7D4B1B7897F915007A4C1A4692001A4453001A460B461B015B1A5B0013442344034483331B78302B24D1714B93F8553003F00F03591E6F4B1B78F4
:4017400097F915006C4C1A4692001A4453001A460B461B015B1A5B00134423440344833300221A7097F91530DBB20133DBB27B7597F91530072BC0DD00E000BF012004F0FA
:40178000DBFA3B7943F05003DBB2184605F01CF8594B93F852305BB203F00F035BB263F03F035BB2DBB2184605F00EF8FA2005F00BF8042004F03EFA002004F0BDFA4E4B08
:4017C00093F85330022B40F0138104233B751BE03B7D043B3A7D48490A4492F85110464A13440A4683F839203B7D043B3A7D043241490A4492F851103F4A13440A4683F843
:4018000035203B7D01333B753B7D072BE0D93A4B93F839301B09DBB23033DAB2364B83F80321354B93F8393003F00F03DBB23033DAB2314B83F804212F4B93F83A301B0937
:40184000DBB23033DAB22C4B83F805212A4B93F83A3003F00F03DBB23033DAB2264B83F80621254B93F83B301B09DBB23033DAB2214B83F80721204B93F83B3003F00F035B
:40188000DBB23033DAB21C4B83F808211A4B93F83C301B09DBB23033DAB2174B83F80921154B93F83C3003F00F03DBB23033DAB2114B83F80A210023FB7414E097F913306B
:4018C0000D4A134493F80331302B1BD197F91330094A1344002283F8032197F91330DBB20133DBB2FB7497F91320054B1B7801339A42E3DB07E000BFF084FF1F278AFF1FEB
:40190000EA89FF1F00BF9C4B93F835301B09DBB23033DAB2984B83F8FB20974B93F8353003F00F03DBB23033DAB2934B83F8FC20914B93F836301B09DBB23033DAB28E4B59
:4019400083F8FD208C4B93F8363003F00F03DBB23033DAB2884B83F8FE20874B93F837301B09DBB23033DAB2834B83F8FF20824B93F8373003F00F03DBB23033DAB27E4B45
:4019800083F800217C4B93F838301B09DBB23033DAB2794B83F80121774B93F8383003F00F03DBB23033DAB2734B83F802210023BB7414E097F912306F4A134493F8FB3060
:4019C000302B11D197F912306B4A1344002283F8FB2097F91230DBB20133DBB2BB7497F91230072BE6DD00E000BF002004F0A4F9614B93F85330032B40F094805E4B93F84E
:401A00005430042B40F08E805B4B062283F82B21594B93F8583003F00F03DAB2564B83F82C21554B93F82C315A1E534B93F8573003F00F03DBB23033D8B24F4913465B00F4
:401A400013445B000B4403F5887302461A704A4B93F82C315A1E484B93F857301B09DBB23033D8B2444913465B0013445B000B4403F20F1302461A703F4B93F82C315A1E53
:401A80003D4B93F8563003F00F03DBB23033D8B2394913465B0013445B000B4403F5877302461A70344B93F82C315A1E324B93F856301B09DBB23033D8B22F4913465B00DC
:401AC00013445B000B4403F20D1302461A702A4B93F82C315A1E284B93F8553003F00F03DBB23033D8B2244913465B0013445B000B4403F5867302461A701F4B93F82C31F0
:401B00005A1E1D4B93F855301B09DBB23033D8B2194913465B0013445B000B4403F20B1302461A70144B93F82D313A799A4240F06784114B002283F82B2101237B740CE0E5
:401B40007B7C013B7A7C0D49895C0B4A13440A4683F87E217B7C01337B747A7C7B7901339A42EDDB044B93F88031652B40F0968205233B7426E000BFF084FF1FB889FF1F1F
:401B8000CD4B93F8823103F00F03591ECB4B1B781D463B7C581F3B7CC74A134493F87E61C54C2A4692002A440B469B000B445B0013442344034403F5977332461A703B7CB9
:401BC00001333B743A7CBC4B93F8813104339A42D6DBB94B93F8823103F00F03591EB74B1B781D46B44B93F8823103F00F03581EB24B1B78B04C1A4692001A4403469B0016
:401C000003445B001344234403F597731B781B09DBB23033DCB2A8482A4692002A4453001A460B461B015B1A5B001344034403F5D87322461A70A04B93F8823103F00F03BC
:401C4000591E9E4B1B781D469B4B93F8823103F00F03581E994B1B78974C1A4692001A4403469B0003445B001344234403F597731B7803F00F03DBB23033DCB28E482A4623
:401C800092002A4453001A460B461B015B1A5B001344034403F2B11322461A70864B93F8823103F00F03591E844B1B781D46824B93F8823103F00F03581E804B1B787E4CED
:401CC0001A4692001A4403469B0003445B001344234403F22F131B781B09DBB23033DCB275482A4692002A4453001A460B461B015B1A5B001344034403F5D97322461A70F3
:401D00006D4B93F8823103F00F03591E6B4B1B781D46694B93F8823103F00F03581E674B1B78654C1A4692001A4403469B0003445B001344234403F22F131B7803F00F03BF
:401D4000DBB23033DCB25C482A4692002A4453001A460B461B015B1A5B001344034403F2B31322461A70544B93F8823103F00F03591E524B1B781D464F4B93F8823103F0DF
:401D80000F03581E4D4B1B784B4C1A4692001A4403469B0003445B001344234403F598731B781B09DBB23033DCB243482A4692002A4453001A460B461B015B1A5B001344CB
:401DC000034403F5DA7322461A703B4B93F8823103F00F03591E394B1B781D46364B93F8823103F00F03581E344B1B78324C1A4692001A4403469B0003445B00134423444D
:401E000003F598731B7803F00F03DBB23033DCB229482A4692002A4453001A460B461B015B1A5B001344034403F2B51322461A70214B93F8823103F00F03591E1F4B1B7848
:401E40001D461D4B93F8823103F00F03581E1B4B1B78194C1A4692001A4403469B0003445B001344234403F231131B781B09DBB23033DCB210482A4692002A4453001A4603
:401E80000B461B015B1A5B001344034403F5DB7322461A70084B93F8823103F00F03591E064B1B781D46044B93F8823103F00F03581E024B1B7803E0F084FF1F278AFF1F8F
:401EC000C44C1A4692001A4403469B0003445B001344234403F231131B7803F00F03DBB23033DCB2BB482A4692002A4453001A460B461B015B1A5B001344034403F2B7132F
:401F000022461A70B34B93F8823103F00F03591EB14B1B781D46AF4B93F8823103F00F03581EAD4B1B78AB4C1A4692001A4403469B0003445B001344234403F599731B78A5
:401F40001B09DBB23033DCB2A2482A4692002A4453001A460B461B015B1A5B001344034403F5DC7322461A709A4B93F8823103F00F03591E984B1B781D46964B93F8823107
:401F800003F00F03581E944B1B78924C1A4692001A4403469B0003445B001344234403F599731B7803F00F03DBB23033DCB289482A4692002A4453001A460B461B015B1AD2
:401FC0005B001344034403F2B91322461A700023FB733CE07F4B93F8823103F00F03591E7D4B1B7897F90F007A4C1A4692001A4453001A460B461B015B1A5B001344234446
:40200000034403F5D8731B78302B25D1714B93F8823103F00F03591E6F4B1B7897F90F006C4C1A4692001A4453001A460B461B015B1A5B0013442344034403F5D87300226E
:402040001A7097F90F30DBB20133DBB2FB7397F90F30072BBEDD00E000BF012003F06CFE3B7943F05003DBB2184604F0ADFB594B93F87F315BB203F00F035BB263F03F033E
:402080005BB2DBB2184604F09FFBFA2004F09CFB042003F0CFFD002003F04EFE4D4B93F88031022B40F012810423BB731BE0BB7B043BBA7B47490A4492F87E11454A134418
:4020C0000A4683F86621BB7B043BBA7B043241490A4492F87E113F4A13440A4683F86221BB7B0133BB73BB7B072BE0D9394B93F866311B09DBB23033DAB2364B83F8302242
:40210000344B93F8663103F00F03DBB23033DAB2304B83F831222F4B93F867311B09DBB23033DAB22B4B83F832222A4B93F8673103F00F03DBB23033DAB2264B83F8332258
:40214000244B93F868311B09DBB23033DAB2214B83F834221F4B93F8683103F00F03DBB23033DAB21B4B83F835221A4B93F869311B09DBB23033DAB2164B83F83622154BEA
:4021800093F8693103F00F03DBB23033DAB2114B83F8372200237B7314E097F90D300D4A134493F83032302B1AD197F90D30094A1344002283F8302297F90D30DBB20133A2
:4021C000DBB27B7397F90D20044B1B7801339A42E3DB06E0F084FF1F278AFF1FEA89FF1F00BF9A4B93F862311B09DBB23033DAB2964B83F82822954B93F8623103F00F0314
:40220000DBB23033DAB2914B83F829228F4B93F863311B09DBB23033DAB28C4B83F82A228A4B93F8633103F00F03DBB23033DAB2864B83F82B22854B93F864311B09DBB29A
:402240003033DAB2814B83F82C22804B93F8643103F00F03DBB23033DAB27C4B83F82D227A4B93F865311B09DBB23033DAB2774B83F82E22754B93F8653103F00F03DBB257
:402280003033DAB2714B83F82F2200233B7314E097F90C306D4A134493F82832302B11D197F90C30694A1344002283F8282297F90C30DBB20133DBB23B7397F90C30072B63
:4022C000E6DD00E000BF002003F036FD5F4B93F88031032B40F094805C4B93F88131042B40F08E80594B062283F85822574B93F8853103F00F03DAB2544B83F85922534B25
:4023000093F859325A1E514B93F8843103F00F03DBB23033D8B24D4913465B0013445B000B4403F23D2302461A70484B93F859325A1E464B93F884311B09DBB23033D8B2B2
:40234000424913465B0013445B000B4403F50F7302461A703D4B93F859325A1E3B4B93F8833103F00F03DBB23033D8B2374913465B0013445B000B4403F23B2302461A701D
:40238000324B93F859325A1E304B93F883311B09DBB23033D8B22D4913465B0013445B000B4403F23A2302461A70284B93F859325A1E264B93F8823103F00F03DBB23033C6
:4023C000D8B2224913465B0013445B000B4403F2392302461A701D4B93F859325A1E1B4B93F882311B09DBB23033D8B2174913465B0013445B000B4403F50E7302461A7078
:40240000124B93F85A323A799A4240F03E830123FB720CE0FB7A013BFA7A0D49895C0B4A13440A4683F8AB22FB7A0133FB72FA7A7B7901339A42EDDB044B93F8AD32652BE8
:4024400040F050820523BB7226E000BFF084FF1FB889FF1FCD4B93F8AF3203F00F03591ECB4B1B781D46BB7A581FBB7AC74A134493F8AB62C54C2A4692002A440B469B00F5
:402480000B445B0013442344034403F25B2332461A70BB7A0133BB72BA7ABC4B93F8AE3204339A42D6DBB94B93F8AF3203F00F03591EB74B1B781D46B44B93F8AF3203F0B6
:4024C0000F03581EB24B1B78B04C1A4692001A4403469B0003445B001344234403F25B231B781B09DBB23033DCB2A8482A4692002A4453001A460B461B015B1A5B001344E5
:40250000034403F2DD2322461A70A04B93F8AF3203F00F03591E9E4B1B781D469B4B93F8AF3203F00F03581E994B1B78974C1A4692001A4403469B0003445B001344234400
:4025400003F25B231B7803F00F03DBB23033DCB28E482A4692002A4453001A460B461B015B1A5B001344034403F2DE2322461A70864B93F8AF3203F00F03591E844B1B78FB
:402580001D46824B93F8AF3203F00F03581E804B1B787E4C1A4692001A4403469B0003445B001344234403F517731B781B09DBB23033DCB275482A4692002A4453001A46B1
:4025C0000B461B015B1A5B001344034403F2DF2322461A706D4B93F8AF3203F00F03591E6B4B1B781D46694B93F8AF3203F00F03581E674B1B78654C1A4692001A440346A1
:402600009B0003445B001344234403F517731B7803F00F03DBB23033DCB25C482A4692002A4453001A460B461B015B1A5B001344034403F5387322461A70544B93F8AF32C5
:4026400003F00F03591E524B1B781D464F4B93F8AF3203F00F03581E4D4B1B784B4C1A4692001A4403469B0003445B001344234403F25D231B781B09DBB23033DCB243483F
:402680002A4692002A4453001A460B461B015B1A5B001344034403F2E12322461A703B4B93F8AF3203F00F03591E394B1B781D46364B93F8AF3203F00F03581E344B1B78CF
:4026C000324C1A4692001A4403469B0003445B001344234403F25D231B7803F00F03DBB23033DCB229482A4692002A4453001A460B461B015B1A5B001344034403F2E223D4
:4027000022461A70214B93F8AF3203F00F03591E1F4B1B781D461D4B93F8AF3203F00F03581E1B4B1B78194C1A4692001A4403469B0003445B001344234403F25E231B78A9
:402740001B09DBB23033DCB210482A4692002A4453001A460B461B015B1A5B001344034403F2E32322461A70084B93F8AF3203F00F03591E064B1B781D46044B93F8AF3237
:4027800003F00F03581E024B1B7803E0F084FF1F278AFF1FC24C1A4692001A4403469B0003445B001344234403F25E231B7803F00F03DBB23033DCB2B9482A4692002A44DB
:4027C00053001A460B461B015B1A5B001344034403F5397322461A70B14B93F8AF3203F00F03591EAF4B1B781D46AD4B93F8AF3203F00F03581EAB4B1B78A94C1A46920092
:402800001A4403469B0003445B001344234403F25F231B781B09DBB23033DCB2A0482A4692002A4453001A460B461B015B1A5B001344034403F2E52322461A70984B93F807
:40284000AF3203F00F03591E964B1B781D46944B93F8AF3203F00F03581E924B1B78904C1A4692001A4403469B0003445B001344234403F25F231B7803F00F03DBB230337F
:40288000DCB287482A4692002A4453001A460B461B015B1A5B001344034403F2E62322461A70012003F048FA3B7943F05003DBB2184603F089FF7A4B93F8AC325BB203F0A9
:4028C0000F035BB263F03F035BB2DBB2184603F07BFFFA2003F078FF042003F0ABF9002003F02AFA6E4B93F8AD32022B40F0CD8004237B721BE07B7A043B7A7A68490A4446
:4029000092F8AB12664A13440A4683F893227B7A043B7A7A043262490A4492F8AB12604A13440A4683F88F227B7A01337B727B7A072BE0D95A4B93F893321B09DBB23033AF
:40294000DAB2574B83F85D23554B93F8933203F00F03DBB23033DAB2514B83F85E23504B93F894321B09DBB23033DAB24C4B83F85F234B4B93F8943203F00F03DBB2303329
:40298000DAB2474B83F86023454B93F895321B09DBB23033DAB2424B83F86123404B93F8953203F00F03DBB23033DAB23C4B83F862233B4B93F896321B09DBB23033DAB28F
:4029C000374B83F86323364B93F8963203F00F03DBB23033DAB2324B83F86423304B93F88F321B09DBB23033DAB22D4B83F855232B4B93F88F3203F00F03DBB23033DAB26B
:402A0000274B83F85623264B93F890321B09DBB23033DAB2224B83F85723214B93F8903203F00F03DBB23033DAB21D4B83F858231B4B93F891321B09DBB23033DAB2184B21
:402A400083F85923164B93F8913203F00F03DBB23033DAB2124B83F85A23114B93F892321B09DBB23033DAB20D4B83F85B230C4B93F8923203F00F03DBB23033DAB2084BC4
:402A800083F85C23002003F057F9054B93F887333A799A4240F0438301233B7211E000BFF084FF1F278AFF1F3B7A013B3A7A0C49895C0C4A13440A4683F8D8233B7A013382
:402AC0003B723A7A7B7901339A42EDDB054B93F8DA33652B40F050820523FB7126E000BFB889FF1FF084FF1FCD4B93F8DC3303F00F03591ECB4B1B781D46FB79581FFB794C
:402B0000C74A134493F8D863C54C2A4692002A440B469B000B445B0013442344034403F5627332461A70FB790133FB71FA79BC4B93F8DB3304339A42D6DBB94B93F8DC33F3
:402B400003F00F03591EB74B1B781D46B44B93F8DC3303F00F03581EB24B1B78B04C1A4692001A4403469B0003445B001344234403F562731B781B09DBB23033DCB2A848BB
:402B80002A4692002A4453001A460B461B015B1A5B001344034403F20A4322461A70A04B93F8DC3303F00F03591E9E4B1B781D469B4B93F8DC3303F00F03581E994B1B7891
:402BC000974C1A4692001A4403469B0003445B001344234403F562731B7803F00F03DBB23033DCB28E482A4692002A4453001A460B461B015B1A5B001344034403F20B4364
:402C000022461A70864B93F8DC3303F00F03591E844B1B781D46824B93F8DC3303F00F03581E804B1B787E4C1A4692001A4403469B0003445B001344234403F289331B7814
:402C40001B09DBB23033DCB275482A4692002A4453001A460B461B015B1A5B001344034403F20C4322461A706D4B93F8DC3303F00F03591E6B4B1B781D46694B93F8DC33F9
:402C800003F00F03581E674B1B78654C1A4692001A4403469B0003445B001344234403F289331B7803F00F03DBB23033DCB25C482A4692002A4453001A460B461B015B1A9F
:402CC0005B001344034403F20D4322461A70544B93F8DC3303F00F03591E524B1B781D464F4B93F8DC3303F00F03581E4D4B1B784B4C1A4692001A4403469B0003445B0015
:402D00001344234403F28A331B781B09DBB23033DCB243482A4692002A4453001A460B461B015B1A5B001344034403F20E4322461A703B4B93F8DC3303F00F03591E394B0D
:402D40001B781D46364B93F8DC3303F00F03581E344B1B78324C1A4692001A4403469B0003445B001344234403F28A331B7803F00F03DBB23033DCB229482A4692002A44FA
:402D800053001A460B461B015B1A5B001344034403F20F4322461A70214B93F8DC3303F00F03591E1F4B1B781D461D4B93F8DC3303F00F03581E1B4B1B78194C1A4692009D
:402DC0001A4403469B0003445B001344234403F28B331B781B09DBB23033DCB210482A4692002A4453001A460B461B015B1A5B001344034403F5826322461A70084B93F846
:402E0000DC3303F00F03591E064B1B781D46044B93F8DC3303F00F03581E024B1B7803E0F084FF1F278AFF1FBF4C1A4692001A4403469B0003445B001344234403F28B33E6
:402E40001B7803F00F03DBB23033DCB2B6482A4692002A4453001A460B461B015B1A5B001344034403F2114322461A70AE4B93F8DC3303F00F03591EAC4B1B781D46AA4B14
:402E800093F8DC3303F00F03581EA84B1B78A64C1A4692001A4403469B0003445B001344234403F563731B781B09DBB23033DCB29D482A4692002A4453001A460B461B0179
:402EC0005B1A5B001344034403F2124322461A70954B93F8DC3303F00F03591E934B1B781D46914B93F8DC3303F00F03581E8F4B1B788D4C1A4692001A4403469B000344AC
:402F00005B001344234403F563731B7803F00F03DBB23033DCB284482A4692002A4453001A460B461B015B1A5B001344034403F2134322461A70012002F0FEFE3B7943F097
:402F40005003DBB2184603F03FFC774B93F8D9335BB203F00F035BB263F03F035BB2DBB2184603F031FCFA2003F02EFC042002F061FE002002F0E0FE6B4B93F8DA33022BA9
:402F800040F0CD800423BB711BE0BB79043BBA7965490A4492F8D813634A13440A4683F8C023BB79043BBA7904325F490A4492F8D8135D4A13440A4683F8BC23BB79013326
:402FC000BB71BB79072BE0D9574B93F8C0331B09DBB23033DAB2544B83F88A24524B93F8C03303F00F03DBB23033DAB24E4B83F88B244D4B93F8C1331B09DBB23033DAB2E8
:40300000494B83F88C24484B93F8C13303F00F03DBB23033DAB2444B83F88D24424B93F8C2331B09DBB23033DAB23F4B83F88E243D4B93F8C23303F00F03DBB23033DAB296
:40304000394B83F88F24384B93F8C3331B09DBB23033DAB2344B83F89024334B93F8C33303F00F03DBB23033DAB22F4B83F891242D4B93F8BC331B09DBB23033DAB22A4B1B
:4030800083F88224284B93F8BC3303F00F03DBB23033DAB2244B83F88324234B93F8BD331B09DBB23033DAB21F4B83F884241E4B93F8BD3303F00F03DBB23033DAB21A4B10
:4030C00083F88524184B93F8BE331B09DBB23033DAB2154B83F88624134B93F8BE3303F00F03DBB23033DAB20F4B83F887240E4B93F8BF331B09DBB23033DAB20A4B83F887
:403100008824094B93F8BF3303F00F03DBB23033DAB2054B83F88924002002F00DFE00BF1C37BD46F0BD00BFF084FF1F278AFF1F90B585B000AF0346FB71274BFF221A701F
:40314000254BFF2283F82D21234BFF2283F85A22214BFF2283F88723012002F0EDFDFB7943F05003DBB2184603F02EFB202003F02BFBFA2003F028FB042002F05BFD0020A8
:4031800002F0DAFD03F098FA0346BB730023FB7309E0FC7B03F048FA03461A460F4B1A55FB7B0133FB73FA7BBB7B9A42F1D303F0CBFA4FF4967002F03DFDBB7B002B05D0EC
:4031C000064B1B7803F00F03DBB200E0FF2318461437BD4690BD00BFF084FF1FB889FF1F80B584B000AF0346FB710023FB7306E0FB7B2E4A0021D154FB7B0133FB73FB7BA8
:40320000312BF5D9012002F097FDFB7943F05003DAB2264B1A70254B30225A70234B01229A70224B0122DA70204B06221A7105211E48FDF797FF03461A461D4B1A801C4BF5
:403240001B881B0A9BB2DAB21A4B1A70184B1B88DAB2194B1A70184B1A78144B5A71154B1A78124B9A71114B0322DA710F4BFA221A720023BB7308E0BB7B0C4AD35C1846A5
:4032800003F0A2FABB7B0133BB73BB7B092BF3D9042002F0CFFC002002F04EFDC82002F0C9FC7B7B18461037BD4680BDEC89FF1F2C8AFF1FA489FF1F2E8AFF1F90B585B0F7
:4032C00000AF0346FB710023FB7306E0FB7B5A4A0021D154FB7B0133FB73FB7B312BF5D9012002F029FDFB7943F05003DBB2184603F06AFA202003F067FAFA2003F064FA67
:40330000032002F097FC002002F016FD03F0D4F903467B720123BB7309E0BC7B03F084F903461A46444B1A55BB7B0133BB73BA7B7B7A01339A42F0DB3F4A7B7A137003F0B0
:4033400003FA7B7A032B05D9FDF78AFF642002F071FC65E0642002F06DFC384B1B78FA799A4212D100237B730BE07B7B7A7B3249895C324A13440A4683F851207B7B013303
:403380007B737A7B7B7A9A42EFD32C4B93F82D31FA799A4212D100233B730BE03B7B3A7B2549895C254A13440A4683F87E213B7B01333B733A7B7B7A9A42EFD31F4B93F886
:4033C0005A32FA799A4212D10023FB720BE0FB7AFA7A1949895C194A13440A4683F8AB22FB7A0133FB72FA7A7B7A9A42EFD3134B93F88733FA799A4212D10023BB720BE0E5
:40340000BB7ABA7A0C49895C0C4A13440A4683F8D823BB7A0133BB72BA7A7B7A9A42EFD37B7A002B02D0044B5B7800E0002318461437BD4690BD00BFB889FF1FF084FF1F59
:4034400090B585B000AF0346FB710B46BB7113467B71BB791B015AB297F9053013435BB27B73012002F068FCFB7943F05003DAB2314B1A70304B30225A702F4B65229A7095
:403480002D4B0122DA702C4A7B7B137105212A48FDF768FE03461A46284B1A80274B1B881B0A9BB2DAB2264B1A70244B1B88DAB2244B1A70234B1A781F4B5A71204B1A78B8
:4034C0001D4B9A711C4B0322DA711B4BFA221A720023FB7308E0FB7B174AD35C184603F073F9FB7B0133FB73FB7B092BF3D9042002F0A0FB002002F01FFC03F0DDF80346BB
:403500003B730023BB7309E0BC7B03F08DF803461A460D4B1A55BB7B0133BB73BA7B3B7B9A42F1D303F010F9642002F083FB00BF1437BD4690BD00BFEC89FF1F2C8AFF1FF1
:40354000A489FF1F2E8AFF1FB889FF1F90B595B000AF0346FB71CC4B1B780133DAB2CA4B1A70C94B1B78C94A82FB03121213DB17D31ADBB23033DAB2C54B5A71C24B1B788D
:403580001A46C24B83FB02131913D317CB1A42F2107101FB03F3D31ABE4A82FB03129211DB17D31ADBB23033DAB2B94B1A71B64B1B781A46B54B83FB02131913D317CB1AD3
:4035C00042F2107101FB03F3D31AB24A82FB03129111DA178A1A4FF47A7101FB02F29A1AAD4B83FB02135911D317CB1ADBB23033DAB2A74BDA70A44B1B78A44A82FB031222
:403600001113DA178A1A42F2107101FB02F29A1AA04B83FB02139911D317CB1A4FF47A7101FB03F3D31A9C4A82FB03125111DA178A1A642101FB02F29A1A984B83FB021366
:403640009910D317CB1ADBB23033DAB2904B9A708D4B1B788D4A82FB03121113DA178A1A42F2107101FB02F29A1A8A4B83FB02139911D317CB1A4FF47A7101FB03F3D31A9D
:40368000854A82FB03125111DA178A1A642101FB02F29A1A814B83FB02139910D317C91A0B469B000B445B00D11ACBB23033DAB2774B5A70012387F84F300FE097F84F301C
:4036C000734AD35C97F84F2092B21146184602F08DFD97F84F30013387F84F3097F84F30052BEBD9002387F84E300BE097F84E306B4AD35C184602F051FC97F84E3001334F
:4037000087F84E3097F84E30052BEFD90A2002F091FA02F0FBFB0346FB7397F90F300C2B18DD002387F84D300CE097F84D4002F0A5FB03461A465B4B1A5597F84D3001338F
:4037400087F84D3097F84D2097F90F309A42ECDB0023FB73002387F84C300BE097F84C30514AD35C184602F03FFE97F84C30013387F84C3097F84C30152BEFD94B4B1B786D
:40378000184602F031FE002387F84B300BE097F84B30474AD35C184602F026FE97F84B30013387F84B3097F84B30152BEFD93F4B1B78184602F018FE002387F84A300BE070
:4037C00097F84A303B4AD35C184602F00DFE97F84A30013387F84A3097F84A30152BEFD9324B1B78184602F0FFFD002387F849300BE097F84930304AD35C184602F0F4FD16
:4038000097F84930013387F8493097F84930152BEFD9264B1B78184602F0E6FD002387F848300BE097F84830244AD35C184602F0DBFD97F84830013387F8483097F8483003
:40384000152BEFD9194B1B78184602F0CDFD002387F847300BE097F84730194AD35C184602F0C2FD97F84730013387F8473097F84730152BEFD90D4B1B78184602F0B4FD5A
:40388000002387F8463029E02B8AFF1FAD8BDB68E884FF1FD34D62101F85EB51676666661C84FF1F308AFF1FD480FF1FCC80FF1FEC80FF1F0481FF1F1C81FF1F3481FF1FD7
:4038C0004C81FF1F97F84630BD4AD35C184602F08BFD97F84630013387F8463097F84630172BEFD9B74B1B78184602F07DFD002387F845300BE097F84530B34AD35C18469E
:4039000002F072FD97F84530013387F8453097F845300C2BEFD9AD4B1B7A1B09DBB23033DBB2184602F060FDA84B1B7A03F00F03DBB23033DBB2184602F056FD2F2002F02E
:4039400053FDA24BDB791B09DBB23033DBB2184602F04AFD9D4BDB7903F00F03DBB23033DBB2184602F040FD2F2002F03DFD974B9B791B09DBB23033DBB2184602F034FDA0
:40398000924B9B7903F00F03DBB23033DBB2184602F02AFD8B4B1B78184602F025FD002387F844300BE097F84430894AD35C184602F01AFD97F84430013387F8443097F81C
:4039C00044300C2BEFD9814B9B7A1B09DBB23033DBB2184602F008FD7C4B9B7A03F00F03DBB23033DBB2184602F0FEFC3A2002F0FBFC764BDB7A1B09DBB23033DBB218467D
:403A000002F0F2FC714BDB7A03F00F03DBB23033DBB2184602F0E8FC3A2002F0E5FC6B4B1B7B1B09DBB23033DBB2184602F0DCFC664B1B7B03F00F03DBB23033DBB2184676
:403A400002F0D2FC5F4B1B78184602F0CDFC002387F843300BE097F84330594AD35C184602F0C2FC97F84330013387F8433097F84330172BEFD9534B1B78184602F0B4FCE9
:403A8000002387F842300BE097F84230514AD35C184602F0A9FC97F84230013387F8423097F842300C2BEFD9052387F841300BE097F84130484AD35C184602F095FC97F8ED
:403AC0004130013B87F8413097F84130002BEFD13C4B1B78184602F087FC002387F840300BE097F840303D4AD35C184602F07CFC97F84030013387F8403097F840300C2B7F
:403B0000EFD9374B1B78FA799A4240F05381002387F83F300DE097F83F30314A134493F82331184602F060FC97F83F30013387F83F3097F83F30072BEDD9224B1B78184688
:403B400002F052FC002387F83E300BE097F83E30244AD35C184602F047FC97F83E30013387F83E3097F83E300C2BEFD91C4B1B783133DBB2184602F037FC124B1B78184607
:403B800002F032FC002387F83D300BE097F83D30154AD35C184602F027FC97F83D30013387F83D3097F83D300C2BEFD90C4B93F82C31012B2BD1002387F83C3022E000BFA1
:403BC0000484FF1FCC80FF1FDC81FF1F308AFF1FEC81FF1F9C82FF1FE884FF1FFC81FF1FF084FF1F2C82FF1F3C82FF1F97F83C30C54AD35C184602F0F7FB97F83C30013392
:403C000087F83C3097F83C30082BEFD913E0002387F83B300BE097F83B30BC4AD35C184602F0E2FB97F83B30013387F83B3097F83B30082BEFD9B64B1B78184602F0D4FB9C
:403C4000002387F83A300BE097F83A30B14AD35C184602F0C9FB97F83A30013387F83A3097F83A300C2BEFD9AB4B1B78184602F0BBFB202002F0B8FB012387F8393017E091
:403C8000A64B93F82C315A1E97F83910A34813465B0013445B0003440B4403F20B131B78184602F0A1FB97F83930013387F8393097F83930052BE3D9954B1B78184602F0A7
:403CC00093FB002387F838300BE097F83830944AD35C184602F088FB97F83830013387F8383097F838300C2BEFD9002387F8373018E097F83730C3F108038A4A1278934279
:403D000002D12E2002F070FB97F83730834A134493F80331184602F067FB97F83730013387F8373097F83730072BE2D9202002F05BFB7D4B1B78184602F056FB744B1B78B1
:403D4000184602F051FB002387F836300BE097F83630764AD35C184602F046FB97F83630013387F8363097F836300C2BEFD96A4B1B78184602F038FB202002F035FB0023ED
:403D800087F835300DE097F83530644A134493F8FB30184602F028FB97F83530013387F8353097F83530072BEDD9594B1B78184602F01AFB594B93F82D31FA799A4240F070
:403DC0005581002387F834300DE097F83430534A134493F85032184602F006FB97F83430013387F8343097F83430072BEDD9484B1B78184602F0F8FA002387F833300BE068
:403E000097F833304A4AD35C184602F0EDFA97F83330013387F8333097F833300C2BEFD93E4B93F82D313133DBB2184602F0DCFA374B1B78184602F0D7FA002387F83230DA
:403E40000BE097F832303B4AD35C184602F0CCFA97F83230013387F8323097F832300C2BEFD92E4B93F85932022B14D1002387F831300BE097F83130234AD35C184602F03B
:403E8000B3FA97F83130013387F8313097F83130082BEFD913E0002387F830300BE097F830301A4AD35C184602F09EFA97F83030013387F8303097F83030082BEFD9144BD1
:403EC0001B78184602F090FA002387F82F300BE097F82F300F4AD35C184602F085FA97F82F30013387F82F3097F82F300C2BEFD9094B1B78184602F077FA202002F074FAEF
:403F0000012387F82E302FE0C481FF1FD081FF1FCC80FF1F4C82FF1FCC83FF1FF084FF1F5C82FF1FEA89FF1FD080FF1F7C82FF1F2C82FF1F3C82FF1FD14B93F859325A1EE1
:403F400097F82E10CE4813465B0013445B0003440B4403F50E731B78184602F045FA97F82E30013387F82E3097F82E30052BE3D9C44B1B78184602F037FA002387F82D30CE
:403F80000BE097F82D30C04AD35C184602F02CFA97F82D30013387F82D3097F82D300C2BEFD9002387F82C3018E097F82C30C3F10803B64A1278934202D12E2002F014FA74
:403FC00097F82C30AE4A134493F83032184602F00BFA97F82C30013387F82C3097F82C30072BE2D9202002F0FFF9A94B1B78184602F0FAF9A34B1B78184602F0F5F900239D
:4040000087F82B300BE097F82B30A24AD35C184602F0EAF997F82B30013387F82B3097F82B300C2BEFD99C4B1B78184602F0DCF9202002F0D9F9002387F82A300DE097F887
:404040002A308F4A134493F82832184602F0CCF997F82A30013387F82A3097F82A30072BEDD9884B1B78184602F0BEF9844B93F85A32FA799A4240F03081002387F8293067
:404080000DE097F829307E4A134493F87D33184602F0AAF997F82930013387F8293097F82930072BEDD9774B1B78184602F09CF9002387F828300BE097F82830774AD35C14
:4040C000184602F091F997F82830013387F8283097F828300C2BEFD9694B93F85A323133DBB2184602F080F9664B1B78184602F07BF9002387F827300BE097F82730684A05
:40410000D35C184602F070F997F82730013387F8273097F827300C2BEFD9002387F826300BE097F826305F4AD35C184602F05CF997F82630013387F8263097F82630072B78
:40414000EFD9504B1B78184602F04EF9002387F825300BE097F825304B4AD35C184602F043F997F82530013387F8253097F825300C2BEFD9002387F8243018E097F82430FC
:40418000C3F10803414A1278934202D12E2002F02BF997F824303A4A134493F85D33184602F022F997F82430013387F8243097F82430072BE2D9202002F016F9344B1B78CE
:4041C000184602F011F92F4B1B78184602F00CF9002387F823300BE097F823302D4AD35C184602F001F997F82330013387F8233097F823300C2BEFD9274B1B78184602F033
:40420000F3F8202002F0F0F8002387F822300DE097F822301A4A134493F85533184602F0E3F897F82230013387F8223097F82230072BEDD9134B1B78184602F0D5F80023CE
:4042400087F821300BE097F82130174AD35C184602F0CAF897F82130013387F8213097F821300C2BEFD90C4B1B78184602F0BCF8202002F0B9F8012387F8203024E000BFB7
:40428000F084FF1FCC80FF1F5C82FF1FEA89FF1FD080FF1F7C82FF1FCC83FF1F2C82FF1F3C82FF1FC481FF1F4C82FF1F97F82030B44A134493F86533184602F095F897F8C4
:4042C0002030013387F8203097F82030052BEDD9AD4B1B78184602F087F8AA4B93F88733FA799A4240F0E1800023FB770AE0FB7FA44A134493F8AA34184602F075F8FB7F44
:404300000133FB77FB7F072BF1D90023BB7708E0BB7F9E4AD35C184602F066F8BB7F0133BB77BB7F0C2BF3D9964B93F887333133DBB2184602F058F8934B1B78184602F0D0
:4043400053F8914B1B78184602F04EF800237B7708E07B7F8E4AD35C184602F045F87B7F01337B777B7F0C2BF3D900233B7708E03B7F884AD35C184602F036F83B7F013361
:404380003B773B7F072BF3D90023FB7608E0FB7E814AD35C184602F027F8FB7E0133FB76FB7E0C2BF3D90023BB7614E0BB7EC3F108037A4A1278934202D12E2002F014F819
:4043C000BB7E704A134493F88A34184602F00CF8BB7E0133BB76BB7E072BE7D9202002F003F86F4B1B78184601F0FEFF664B1B78184601F0F9FF00237B7608E07B7E694A14
:40440000D35C184601F0F0FF7B7E01337B767B7E0C2BF3D9644B1B78184601F0E5FF202001F0E2FF00233B760AE03B7E554A134493F88234184601F0D7FF3B7E01333B76FD
:404440003B7E072BF1D9504B1B78184601F0CCFF0023FB7508E0FB7D544AD35C184601F0C3FFFB7D0133FB75FB7D0C2BF3D94E4B1B78184601F0B8FF202001F0B5FF01239C
:40448000BB750AE0BB7D3F4A134493F89234184601F0AAFFBB7D0133BB75BB7D052BF1D9394B1B78184601F09FFF00237B7508E07B7D3F4AD35C184601F096FF7B7D0133F4
:4044C0007B757B7D172BF3D92F4B1B78184601F08BFF00233B7508E03B7D364AD35C184601F082FF3B7D01333B753B7D152BF3D9254B1B78184601F077FF234B1B78184667
:4045000001F072FF0023FB7408E0FB7C2A4AD35C184601F069FFFB7C0133FB74FB7C152BF3D9194B1B78184601F05EFF0023BB7408E0BB7C1E4AD35C184601F055FFBB7CAC
:404540000133BB74BB7C172BF3D90F4B1B78184601F04AFF00237B7408E07B7C174AD35C184601F041FF7B7C01337B747B7C152BF3D9054B1B78184601F036FF00233B74A8
:4045800027E000BFF084FF1FCC80FF1F2C82FF1F3C82FF1FC481FF1F5C82FF1FEA89FF1FD080FF1F7C82FF1FCC83FF1F4C82FF1F0484FF1F9481FF1FAC81FF1F6481FF1F97
:4045C0003B7C144AD35C184601F00EFF3B7C01333B743B7C152BF3D90F4B1B78184601F003FF0D4B1B78184601F0FEFE0A4B1B78184601F0F9FE084B1B78184601F0F4FEF5
:40460000054B1B78184601F0EFFE00BF5437BD4690BD00BF7C81FF1FCC80FF1F90B59DB000AF002387F86E300BE097F86E30C44AD35C184601F0B2FC97F86E30013387F8CA
:404640006E3097F86E30052BEFD90A2001F0F2FA01F05CFC034687F83F3097F83F300C2B19D9002387F86D300CE097F86D4001F005FC03461A46B34B1A5597F86D300133FA
:4046800087F86D3097F86D2097F83F309A42ECD3002387F83F301D2001F0A6FE702001F0A3FE012001F0A0FE002001F09DFEA64B1B780133DAB2A44B1A70A34B1B78A34A9D
:4046C00082FB03121213DB17D31ADBB23033DAB29F4B5A719C4B1B781A469C4B83FB02131913D317CB1A42F2107101FB03F3D31A984A82FB03129211DB17D31ADBB230332A
:40470000DAB2934B1A71904B1B781A468F4B83FB02131913D317CB1A42F2107101FB03F3D31A8C4A82FB03129111DA178A1A4FF47A7101FB02F29A1A874B83FB021359117A
:40474000D317CB1ADBB23033DAB2814BDA707E4B1B787E4A82FB03121113DA178A1A42F2107101FB02F29A1A7A4B83FB02139911D317CB1A4FF47A7101FB03F3D31A764A72
:4047800082FB03125111DA178A1A642101FB02F29A1A724B83FB02139910D317CB1ADBB23033DAB26A4B9A70674B1B78674A82FB03121113DA178A1A42F2107101FB02F25E
:4047C0009A1A644B83FB02139911D317CB1A4FF47A7101FB03F3D31A5F4A82FB03125111DA178A1A642101FB02F29A1A5B4B83FB02139910D317C91A0B469B000B445B009D
:40480000D11ACBB23033DAB2514B5A70072387F86C3010E097F86C30063B4D4AD35C97F86C2092B21146184601F0E0FC97F86C30013387F86C3097F86C300C2BEAD9484B41
:404840001B78184601F0D0FD002387F86B300BE097F86B30434AD35C184601F0C5FD97F86B30013387F86B3097F86B30152BEFD93B4B1B78184601F0B7FD002387F86A3068
:404880000BE097F86A30384AD35C184601F0ACFD97F86A30013387F86A3097F86A30152BEFD92F4B1B78184601F09EFD002387F869300BE097F869302C4AD35C184601F05B
:4048C00093FD97F86930013387F8693097F86930152BEFD9224B1B78184601F085FD002387F868300BE097F86830214AD35C184601F07AFD97F86830013387F8683097F806
:404900006830152BEFD9164B1B78184601F06CFD002387F867300BE097F86730154AD35C184601F061FD97F86730013387F8673097F86730172BEFD9002387F8663027E0C7
:404940001C84FF1F308AFF1F268AFF1FAD8BDB68208AFF1FD34D62101F85EB5167666666CC80FF1FD480FF1FEC80FF1F0481FF1F1C81FF1F0484FF1F97F86630C34AD35CBA
:40498000184601F031FD97F86630013387F8663097F866300C2BEFD9BD4B9B791B09DBB23033DBB2184601F01FFDB94B9B7903F00F03DBB23033DBB2184601F015FD2F2076
:4049C00001F012FDB24BDB791B09DBB23033DBB2184601F009FDAE4BDB7903F00F03DBB23033DBB2184601F0FFFC2F2001F0FCFCA74B1B7A1B09DBB23033DBB2184601F0A8
:404A0000F3FCA34B1B7A03F00F03DBB23033DBB2184601F0E9FC9F4B1B78184601F0E4FC002387F865300BE097F865309A4AD35C184601F0D9FC97F86530013387F86530B9
:404A400097F865300C2BEFD9914B9B7A1B09DBB23033DBB2184601F0C7FC8D4B9B7A03F00F03DBB23033DBB2184601F0BDFC3A2001F0BAFC864BDB7A1B09DBB23033DBB230
:404A8000184601F0B1FC824BDB7A03F00F03DBB23033DBB2184601F0A7FC3A2001F0A4FC7B4B1B7B1B09DBB23033DBB2184601F09BFC774B1B7B03F00F03DBB23033DBB2BC
:404AC000184601F091FC734B1B78184601F08CFC002387F864300BE097F864306F4AD35C184601F081FC97F86430013387F8643097F86430172BEFD9002387F863300BE003
:404B000097F86330664AD35C184601F06DFC97F86330013387F8633097F863300C2BEFD9052387F862300BE097F862305D4AD35C184601F059FC97F86230013B87F8623006
:404B400097F86230002BEFD1524B1B78184601F04BFC504B1B78184601F046FC002387F861300BE097F861304F4AD35C184601F03BFC97F86130013387F8613097F8613094
:404B80000C2BEFD9494B1B783133DBB2184601F02BFC404B1B78184601F026FC002387F860300BE097F86030414AD35C184601F01BFC97F86030013387F8603097F86030FC
:404BC0000F2BEFD9334B1B78184601F00DFC002387F85F3018E097F85F30C3F10A03354A1278934202D12E2001F0FEFB97F85F302E4A134493F88330184601F0F5FB97F860
:404C00005F30013387F85F3097F85F30092BE2D9204B1B78184601F0E7FB002387F85E3010E097F85E3087F86F3097F85E301F4A134493F88330002B09D197F85E3001339B
:404C400087F85E3097F85E30092BEAD900E000BF002387F85D300BE097F85D30164AD35C184601F0C1FB97F85D30013387F85D3097F85D300F2BEFD9064B1B78184601F0F7
:404C8000B3FB002387F85C302EE000BFDC81FF1F308AFF1FCC80FF1FEC81FF1F0484FF1F8C82FF1F208AFF1F2C82FF1FF084FF1FD083FF1FEA89FF1FE083FF1F97F85C405D
:404CC00097F85C309BB224339BB2184601F018FB03461A4607F17003234403F8642C97F85C30013387F85C3097F85C30092BE5D9002387F85B3019E097F85B30C3F10A03D8
:404D0000C44A1278934202D12E2001F06DFB97F85B3007F17002134413F8643C184601F063FB97F85B30013387F85B3097F85B30092BE1D9B84B1B78184601F055FB97F835
:404D40006F3087F85A302DE097F85A2097F86F30D31A97F85A20B1490A4492F8832007F170010B4403F8582C97F85A2097F86F30D31A97F85A2007F170010A4412F8642C27
:404D800007F170010B4403F84C2C97F85A3007F170021344002203F8702C97F85A30013387F85A3097F85A30092BCDD907F12403184602F05BF90346BB6307F11803184651
:404DC00002F054F903467B637A6BBB6BD31A3B633B6B39460A22184602F08FF9002387F859300BE097F859308D4AD35C184601F0FBFA97F85930013387F8593097F85930AA
:404E0000112BEFD9844B1B78184601F0EDFA002387F8583019E097F85830C3F10A037D4A1278934202D12E2001F0DEFA97F8583007F17002134413F8703C184601F0D4FA1F
:404E400097F85830013387F8583097F85830092BE1D9714B1B78184601F0C6FA002387F857300BE097F857306E4AD35C184601F0BBFA97F85730013387F8573097F8573002
:404E8000172BEFD9644B1B78184601F0ADFA002387F856300BE097F85630634AD35C184601F0A2FA97F85630013387F8563097F856300C2BEFD9594B93F82D313133DBB2E1
:404EC000184601F091FA544B1B78184601F08CFA002387F855300BE097F85530534AD35C184601F081FA97F85530013387F8553097F855300F2BEFD9474B1B78184601F03F
:404F000073FA002387F8543018E097F85430C3F10A03404A1278934202D12E2001F064FA97F854303D4A134493F8B031184601F05BFA97F85430013387F8543097F854305B
:404F4000092BE2D9344B1B78184601F04DFA002387F853300BE097F85330354AD35C184601F042FA97F85330013387F8533097F853300F2BEFD9284B1B78184601F034FA60
:404F8000002387F8523015E097F8524097F852309BB22E339BB2184601F0B2F903461A4607F17003234403F8642C97F85230013387F8523097F85230092BE5D9002387F8C0
:404FC000513019E097F85130C3F10A03114A1278934202D12E2001F007FA97F8513007F17002134413F8643C184601F0FDF997F85130013387F8513097F85130092BE1D996
:40500000054B1B78184601F0EFF997F86F3087F850303DE0EA89FF1FCC80FF1FF084FF1FF083FF1F0484FF1F2C82FF1FD083FF1FE083FF1F97F8502097F86F30D31A97F8E1
:405040005020C9490A4492F8B02107F170010B4403F8582C97F8502097F86F30D31A97F8502007F170010A4412F8642C07F170010B4403F84C2C97F8503007F17002134469
:40508000002203F8702C97F85030013387F8503097F85030092BCDD907F12403184601F0E5FF0346BB6307F11803184601F0DEFF03467B637A6BBB6BD31A3B633B6B394632
:4050C0000A22184602F019F8002387F84F300BE097F84F30A54AD35C184601F085F997F84F30013387F84F3097F84F30112BEFD99F4B1B78184601F077F9002387F84E3070
:4051000019E097F84E30C3F10A039A4A1278934202D12E2001F068F997F84E3007F17002134413F8703C184601F05EF997F84E30013387F84E3097F84E30092BE1D98C4BB7
:405140001B78184601F050F98B4B1B78013B022B40F30681002387F84D300BE097F84D30864AD35C184601F03FF997F84D30013387F84D3097F84D30172BEFD97C4B1B7830
:40518000184601F031F9002387F84C300BE097F84C307B4AD35C184601F026F997F84C30013387F84C3097F84C300C2BEFD96E4B93F85A323133DBB2184601F015F96C4BE7
:4051C0001B78184601F010F9002387F84B3018E097F84B30C3F10A03664A1278934202D12E2001F001F997F84B305F4A134493F8DD32184601F0F8F897F84B30013387F829
:405200004B3097F84B30092BE2D9594B1B78184601F0EAF8002387F84A300BE097F84A30584AD35C184601F0DFF897F84A30013387F84A3097F84A300F2BEFD94C4B1B7820
:40524000184601F0D1F8002387F849300BE097F849304A4AD35C184601F0C6F897F84930013387F8493097F84930172BEFD9404B1B78184601F0B8F8002387F848300BE0D0
:4052800097F848303E4AD35C184601F0ADF897F84830013387F8483097F848300C2BEFD9314B93F887333133DBB2184601F09CF82F4B1B78184601F097F8002387F847306B
:4052C00018E097F84730C3F10A032A4A1278934202D12E2001F088F897F84730224A134493F80A34184601F07FF897F84730013387F8473097F84730092BE2D91C4B1B7813
:40530000184601F071F8002387F846300BE097F846301C4AD35C184601F066F897F84630013387F8463097F846300F2BEFD9002387F845300BE097F84530104AD35C184649
:4053400001F052F897F84530013387F8453097F84530172BEFD9064B1B78184601F044F8002387F844301BE0F084FF1FF083FF1FCC80FF1FEA89FF1F2A8AFF1F0484FF1FA2
:405380002C82FF1FE083FF1F97F844304A4AD35C184601F029F897F84430013387F8443097F84430172BEFD9444B1B78184601F01BF8002387F843300BE097F84330404A23
:4053C000D35C184601F010F897F84330013387F8433097F84330152BEFD9384B1B78184601F002F8002387F842300BE097F84230344AD35C184600F0F7FF97F84230013370
:4054000087F8423097F84230152BEFD92B4B1B78184600F0E9FF294B1B78184600F0E4FF264B1B78184600F0DFFF244B1B78184600F0DAFF214B1B78184600F0D5FF00235E
:4054400087F8413013E097F841301F4A134493F8832097F841309BB224339BB21946104600F0C4FE97F84130013387F8413097F84130092BE7D9002387F8403013E097F857
:405480004030114A134493F8B02197F840309BB22E339BB21946104600F0A8FE97F84030013387F8403097F84030092BE7D900BF7437BD4690BD00BF0484FF1FCC80FF1F8B
:4054C0006481FF1F7C81FF1FF084FF1F80B584B000AFF860B9607A607A68B968F86801F00EFE00BF1037BD4680BD00BF80B483B000AF0346FB71FEE780B483B000AF434BE0
:4055000000221A60424B10221A70424B01221A70414B00221A70414B4FF438721A80404B01221A703F4B03221A703F4B3F4A92B21A803F4B47F608021A803E4B00221A80EF
:405540003D4B4FF480421A803C4B09221A703C4B0A221A703B4B0F221A703B4B18221A70BFF35F8F394B01221A70BFF35F8F00BF2A4B1B889BB2002BFAD100237B600DE08A
:405580007B68DA00324B13441946324A7B6852F823309BB20B807B6801337B607B685B2BEED9BFF35F8F294B01221A70BFF35F8F00BF294B1B78DBB203F00103002BF8D166
:4055C00000BF264B1B78DBB203F00103002BF8D100BF234B1B78DBB203F00103002BF8D100BF204B1B78DBB203F00103002BF8D100BF1D4B1B78DBB203F00103002BF8D1D1
:4056000000BF0C37BD4680BC704700BFC084FF1F007600401070004019700040007800400278004003780040047800405000000006780040047600400676004029700040CC
:40564000397000406970004079700040147000400C780040C4720000187000402870004038700040687000407870004080B582B000AF454B19221A80444B18221A70444B1C
:4056800019221A80434B18221A70434B4FF49C721A80424B18221A70414B4FF49C721A80404B18221A70404B4FF49C721A803F4B18221A703E4B40F209221A803D4B18222D
:4056C0001A703D4B47F22F521A803C4B19221A703B4B02221A704FF0402308221A70394B03221A70384B394A1278D2B21A70384B08221A80374B41F251221A800023FB7006
:4057000019237B6014E0FB785B00DAB2324B1B78DBB203F00103DBB21343DBB203F00303FB704FF4F07001F0CFF97B68013B7B607B68002B02D0FB78032BE4D17B68002B02
:4057400002D10320FFF7D2FE244B4FF480721A80224B07221A70224B00221A70214B48221A701E4B00221A701F4B02221A701F4A1E4B1B78DBB243F07F03DBB2137000BFF3
:405780000837BD4680BD00BF80400040824000408440004086400040884000408A4000408C4000408E40004090400040924000409440004096400040984000409A400040F5
:4057C0000043004000420040A14600400801004922420040204200402542004004400040064000400840004001400040A243004080B483B000AF0B4B1B78FB710A4AFB79D3
:4058000003F00703DBB21370084AFB791B09DBB21370074B44221A7000BF0C37BD4680BC704700BFCF0100496E5800406F5800407658004080B500AF72B6324A314B1B789D
:40584000DBB243F00403DBB21370FFF755FE2E4A2D4B1B78DBB243F00203DBB213702B4A2A4B1B78DBB243F00203DBB21370284A274B1B78DBB243F04003DBB21370254A65
:40588000244B1B78DBB243F01003DBB213700A2221492248FFF71AFE0A2221492148FFF715FE0A2220492148FFF710FE0A2220492048FFF70BFE0A221F492048FFF706FEF9
:4058C0000A221F491F48FFF701FE1F4A1E4B1B78DBB243F00803DBB213701C4B60221A70FFF7C4FE194B80221A70194B01221A70FFF77EFF0E2206491648FFF7E7FD00BFC3
:4059000080BD00BFE84600400350014013500140A0430040C2430040A421004800510040B0210048C0510040BC210048F0510040C821004810510040D421004820510040EF
:40594000E021004830510040224300400048004004000840B043004080B500AF01F08AFB03461B680C2B00D1FEE7FEE780B586B000AF224B7B61224B3B61204B7B6135E0B1
:405980003B691B68FB603B695B68BB603B699B683B6000237B600CE0FB681A68BB681A60BB680433BB60FB680433FB607B6804337B607A683B689A42EED13B69DB683B6034
:4059C00000237B6008E0BB6800221A60BB680433BB607B6804337B607A683B689A42F2D13B6910333B617B69013B7B617B69002BC6D101F045FBFAF7B5FDFEE70100000095
:405A00008075000080B582B000AF184B184A1A60184A184B1B6843F40073136000237B600FE07B68032B04D8134A7B6852F8233000E0124B12497A6841F822307B680133E4
:405A40007B607B682F2BECD90E4B1B78DAB20E4B1A700E4B0A4A1A60FFF7ECFE0C4B00221A6000BF0837BD4680BD00BF0CED00E00004FA0514ED00E0000000005959000088
:405A80000080FF1FBC760040C480FF1F08ED00E0C080FF1F80B500AF064B1B78002B04D100F00AF8034B01221A7000F063F800BF80BD00BFC484FF1F80B582B000AF284A98
:405AC000274B1B78DBB243F00203DBB21370254B1B78DBB223F07003FB71224AFB7943F03003DBB21370204A1F4B1B78DBB223F03003DBB213701C4A1B4B1B78DBB243F08B
:405B00003003DBB21370184A174B1B78DBB223F00F03DBB21370144A134B1B78DBB243F00F03DBB21370642000F048F8322000F055F8002000F062F80C4A0C4B1B78DBB25E
:405B400043F00103DBB21370094A094B1B78DBB243F00103DBB2137000BF0837BD4680BD004F0040024F00400B4F0040A3430040014F004080B400AF0D4A0D4B1B78DBB270
:405B800043F00103DBB213700A4A0A4B1B78DBB243F00103DBB21370074A074B1B78DBB243F00103DBB2137000BFBD4680BC7047A3430040B3430040004F004080B483B07D
:405BC00000AF0346FB71044BFA7992B21A8000BF0C37BD4680BC7047044F004080B483B000AF0346FB71044BFA7992B21A8000BF0C37BD4680BC7047064F004080B483B0B7
:405C000000AF0346FB71044AFB79137000BF0C37BD4680BC704700BF034F004080B483B000AF0346FB7101BE00BF0C37BD4680BC704700BF80B582B000AF786008E00C4B04
:405C40001B68184600F040FF7B68A3F500437B607B68B3F5004FF2D8064B1B687A6802FB03F3184600F030FF00BF0837BD4680BD3084FF1F2884FF1F80B582B000AF034678
:405C8000FB80FB88054A127802FB03F3184600F01BFF00BF0837BD4680BD00BF2C84FF1F80B584B000AF03463960FB710F4B1B68FB60FB791F2B02D90020FFF7AFFFFB7978
:405CC00003F01F0310339B00FA6813441B68BB60FB7903F01F0310339B00FA6813443A681A60BB6818461037BD4680BD08ED00E080B582B000AF03460A46FB711346BB71A1
:405D0000BB79072B02D90020FFF788FFFB791F2B02D90020FFF782FFFB7903F01F0303F1604303F56443BA795201D2B21A7000BF0837BD4680BD00BF80B485B000AF0346A4
:405D4000FB710B4B1B78DBB223F00403FB730849FB799B00DBB203F00403DAB2FB7B1343DBB20B7000BF1437BD4680BC704700BF1051004080B500AF064B1B78002B04D14A
:405D800000F00AF8034B01221A7000F03BF800BF80BD00BFC584FF1F80B500AF11490620FFF77EFF07210620FFF7A2FF0E4B00221A700E4B72221A700D4B20221A700D49FF
:405DC0000720FFF76DFF07210720FFF791FF0A4B06221A70094B47221A70094B02221A7000BF80BD55600000C884FF1F85650040876400402D6100002F6400403F64004041
:405E00008B64004080B582B000AF00F07CFE0346FB71154A144B1B78DBB243F02003DBB21370124A114B1B78DBB243F01003DBB213700F4B40221A600E4A0E4B1B78DBB285
:405E400043F01003DBB213700B4B80221A60084B80221A6000F0A2F9FB79184600F057FE00BF0837BD4680BD956500409764004000E100E09B64004080E200E080B483B0ED
:405E800000AF1B4B40221A601A4B1B78BB711A4B1B787B71194B1B78DBB2002B03D1BA797B799A4217D0BB79154AD35CFB71BB790133BB71BB79132B01D90023BB710D4AC8
:405EC000BB7913700D4B1B78DBB2002B06D00B4B00221A7002E00B4B1B78FB710A4B40221A60FB7918460C37BD4680BC704700BF80E100E0C984FF1FCA84FF1FCB84FF1FB9
:405F0000508AFF1F4765004000E100E080B483B000AF1D4B40221A601C4B1B78DAB21C4B1B78DBB29A420AD11A4B1B78DBB2002B02D01423FB711DE00023FB711AE0134B95
:405F40001B78DAB2124B1B78DBB29A4208D2104B1B78DAB20D4B1B78DBB2D31AFB7109E00B4B1B78DAB2094B1B78DBB2D31ADBB21433FB71084B40221A60FB7918460C3741
:405F8000BD4680BC704700BF80E100E0C984FF1FCA84FF1FCB84FF1F00E100E080B485B000AF0346FB71254B1B78FB73244B1B78BB73FA7BBB7B9A4208D2FA7BBB7B013B30
:405FC0009A420CBF01230023DBB207E0FA7BBB7BD31A072B0CBF01230023DBB2002BE2D1BA7BFB7B9A420AD1164B1B78DBB203F00403002B03D1144AFB79137018E0FB7B59
:40600000072B01D90023FB73FB7B1049FA79CA54FB7B0133FB73094AFB7B1370094B1B78DBB203F00203002B02D0094B80221A6000BF1437BD4680BC704700BFC784FF1FFE
:40604000C684FF1F6B6400404C640040488AFF1F00E200E080B483B000AF0023FB712B4B1B78BB71BB797B71BB7903F01E03002B0CD097F9063003F01E035AB2244B1B78D6
:406080005BB213435BB2DAB2214B1A70BB7903F02003002B30D01F4B1B787B711E4B1B78DBB219461D4A7B7953540123FB71FB79002B21D01A4B1B78DBB2002B02D0194BA0
:4060C00001221A70144B1B78DBB20133DAB2124B1A70114B1B78DBB2132B02D90E4B00221A700D4B1B78DAB20F4B1B78DBB29A4202D10B4B01221A70BB7903F02003002B1B
:40610000ADD100BF0C37BD4680BC704767640040C884FF1F47650040CA84FF1F508AFF1FCB84FF1FCC84FF1FC984FF1F80B400AF17E0154B1B78DBB2072B02D9124B0022F8
:406140001A70124B104A1278D2B21146104A525CD2B21A700C4B1B78DBB20133DAB20A4B1A70094B1B78DAB20A4B1B789A4206D0094B1B78DBB203F00403002BD9D000BF3F
:40618000BD4680BC704700BFC684FF1F4C640040488AFF1FC784FF1F6B64004080B400AF094A094B1B78DBB243F00103DBB21370064A064B1B78DBB243F00103DBB2137071
:4061C00000BFBD4680BC7047A2430040B243004080B500AF00F018FD00F028FD00BF80BD80B500AFFFF7F4FF00BF80BD80B584B000AF03460A46FB711346BB8000F084FDAB
:40620000BB88B3F5006F70D2BB881B097B817B891B019BB2BA88D31A3B8100F0A9FE0346002B5FD1FA1D39890123402000F0BAFDF860FB68072B4CD14FF0FF33FB6000BF33
:406240002D4B1B78DBB203F00203002BF8D02A4B1B78DBB203F00203002B08D0264B1B78DBB29B08DBB2002B01D10023FB60FB68002B2AD1214B1A78204B5B7879894020A8
:4062800000F0F8FD0346072B1BD14FF0FF33FB6000BF194B1B78DBB203F00203002BF8D0154B1B78DBB203F00203002B17D0124B1B78DBB29B08DBB2002B10D10023FB60D7
:4062C0000DE04FF0FF33FB6009E04FF0FF33FB6005E0FB68012B02D04FF0FF33FB6000F07BFE04E00423FB6001E00123FB60FB6818461037BD4680BD224700406C8BFF1FE9
:4063000080B584B000AF0346FB8000F0FCFB0346FB7300F0D1FCFB8803F1804303F500431B78BB7300F0E0FCFB7B184600F0EFFBBB7B18461037BD4680BD00BF80B500AFB8
:40634000064B1B78002B04D100F00AF8034B01221A7000F023F800BF80BD00BFCE84FF1F80B500AF09490220FFF79AFC07210220FFF7BEFC064B06221A70064B47221A70F1
:40638000054B02221A7000BF80BD00BFA164000026650040366500408664004080B582B000AF00F0B0FB0346FB710C4A0B4B1B78DBB243F01003DBB21370094B04221A60D3
:4063C000084B04221A6000F0A3F8FB79184600F09EFB00BF0837BD4680BD00BF9664004080E200E000E100E080B485B000AF0346FB71254B1B78FB73244B1B78BB73FA7BA7
:40640000BB7B9A4208D2FA7BBB7B013B9A420CBF01230023DBB207E0FA7BBB7BD31A042B0CBF01230023DBB2002BE2D1BA7BFB7B9A420AD1164B1B78DBB203F00403002BDB
:4064400003D1144AFB79137018E0FB7B042B01D90023FB73FB7B1049FA79CA54FB7B0133FB73094AFB7B1370094B1B78DBB203F00203002B02D0094B04221A6000BF1437C0
:40648000BD4680BC704700BFD084FF1FCF84FF1F6664004046640040648AFF1F00E200E080B400AF17E0154B1B78DBB2042B02D9124B00221A70124B104A1278D2B21146F9
:4064C000104A525CD2B21A700C4B1B78DBB20133DAB20A4B1A70094B1B78DAB20A4B1B789A4206D0094B1B78DBB203F00403002BD9D000BFBD4680BC704700BFCF84FF1F3C
:4065000046640040648AFF1FD084FF1F6664004080B400AF094A094B1B78DBB243F00403DBB21370064A064B1B78DBB243F00403DBB2137000BFBD4680BC7047A243004010
:40654000B243004080B500AF064B1B78002B04D100F00AF8034B01221A7000F031F800BF80BD00BFD284FF1F80B500AF0D490120FFF796FB07210120FFF7BAFB0A4B00229C
:406580001A700A4B72221A70094B20221A70094B06221A70084B47221A70084B00221A7000BF80BDFD670000D384FF1F8A6500408B65004020640040306400408164004082
:4065C00080B582B000AF00F09EFA0346FB71124A114B1B78DBB243F02003DBB213700F4A0E4B1B78DBB243F01003DBB213700C4B02221A600B4A0B4B1B78DBB243F01003DC
:40660000DBB2137000F046FAFB79184600F07FFA00BF0837BD4680BD9A6500409B65004000E100E09164004080B483B000AF1B4B02221A601A4B1B78BB711A4B1B787B710A
:40664000194B1B78DBB2002B03D1BA797B799A4218D0BB79154AD35CFB71BB790133BB7197F90630002B01DA0023BB710C4ABB7913700D4B1B78DBB2002B06D00A4B0022D2
:406680001A7002E00A4B1B78FB710A4B02221A60FB7918460C37BD4680BC704780E100E0D484FF1FD584FF1FD684FF1F6C8AFF1F4964004000E100E080B483B000AF1D4B36
:4066C00002221A601C4B1B78DAB21C4B1B78DBB29A420AD11A4B1B78DBB2002B02D08023FB711DE00023FB711AE0134B1B78DAB2124B1B78DBB29A4208D2104B1B78DAB2F7
:406700000D4B1B78DBB2D31AFB7109E00B4B1B78DAB2094B1B78DBB2D31ADBB2803BFB71084B02221A60FB7918460C37BD4680BC704700BF80E100E0D484FF1FD584FF1F2C
:40674000D684FF1F00E100E080B582B000AF00F0DAF90346FB71154A144B1B78DBB243F00103DBB21370114A104B1B78DBB223F00103DBB21370FB79184600F0C8F90C4B56
:4067800002221A600B4B00221A700B4B00221A700A4B00221A700A4B00221A70094B02221A6000BF0837BD4680BD00BF9964004080E100E0D484FF1FD584FF1FD684FF1F63
:4067C000D784FF1F00E100E080B483B000AF0346FB7100BF074B1B78DBB203F00403002BF8D1054AFB79137000BF0C37BD4680BC704700BF616400404164004080B483B027
:4068000000AF0023FB712C4B1B78BB71BB797B71BB7903F01E03002B0CD097F9063003F01E035AB2254B1B785BB213435BB2DAB2224B1A70BB7903F02003002B31D0204BB8
:406840001B787B711F4B1B78DBB219461E4A7B7953540123FB71FB79002B22D01B4B1B78DBB2002B02D01A4B01221A70154B1B78DBB20133DAB2134B1A70124B1B78DBB252
:406880005BB2002B02DA0F4B00221A700D4B1B78DAB2104B1B78DBB29A4202D10B4B01221A70BB7903F02003002BACD100BF0C37BD4680BC704700BF6B650040D384FF1FEC
:4068C00049640040D584FF1F6C8AFF1FD684FF1FD784FF1FD484FF1F80B500AF064B1B78002B04D100F00AF8034B01221A7000F031F800BF80BD00BFD984FF1F80B500AFD1
:406900000D490020FFF7CCF907210020FFF7F0F90A4B00221A700A4B72221A70094B20221A70094B06221A70084B47221A70084B00221A7000BF80BDB9690000DA84FF1F86
:406940008A6400408965004025650040356500408465004080B582B000AF00F0D4F80346FB71114A104B1B78DBB243F02003DBB213700E4A0D4B1B78DBB243F01003DBB288
:4069800013700B4B01221A600A4A0A4B1B78DBB243F01003DBB21370FB79184600F0B7F800BF0837BD4680BD9A6400409965004000E100E09465004080B483B000AF0023E4
:4069C000FB712C4B1B78BB71BB797B71BB7903F01E03002B0CD097F9063003F01E035AB2254B1B785BB213435BB2DAB2224B1A70BB7903F02003002B31D0204B1B787B714A
:406A00001F4B1B78DBB219461E4A7B7953540123FB71FB79002B22D01B4B1B78DBB2002B02D01A4B01221A70154B1B78DBB20133DAB2134B1A70124B1B78DBB25BB2002BD7
:406A400002DA0F4B00221A700D4B1B78DAB2104B1B78DBB29A4202D10B4B01221A70BB7903F02003002BACD100BF0C37BD4680BC704700BF69650040DA84FF1F496500406F
:406A8000DC84FF1FEC8AFF1FDD84FF1FDE84FF1FDB84FF1F80B400AF094A094B1B78DBB243F00803DBB21370064A064B1B78DBB243F00803DBB2137000BFBD4680BC70478C
:406AC000A2430040B2430040142816D902B4012114381049097811F0C001890904B40E4A515C04BC00BF00BF00BF8841FDD500BF00BF02BC704700BF00BF70F10400FCD5C3
:406B000070470B050709EFF3108072B6704780F31088704700480040026B000080B582B000AF00F0F1F84FF0FF337B6000F020FA0346002B24D1012000F0E8F90346072B5B
:406B40001BD10221124800F003F90346022B0DD100237B6002E00120FFF78EF80D4B1B78DBB203F00203002BF5D006E0094B1B78DBB203F00203002BE3D000F02DFA01E067
:406B800004237B607B6818460837BD4680BD00BF6C8BFF1F2247004080B582B000AF00F0B3F800F0E5F90346002B23D100F03CFA78607B68072B1AD102E00120FFF75CF864
:406BC000104B1B78DBB203F00203002BF5D00D4B1B78DBB203F00203002B08D0094B1B78DBB29B08DBB2002B01D100237B6000F0F3F901E004237B607B6818460837BD46DE
:406C000080BD00BF2247004080B582B000AFFFF7C3FF78607B68002B02D1FFF77FFF78607B6818460837BD4680BD00BF80B582B000AFFFF768FF0346FB71194A184B1B78DC
:406C4000DBB243F00803DBB21370164A154B1B78DBB243F00803DBB21370134BC8221A70124A124B1B78DBB243F01003DBB213700F4A0F4B1B78DBB243F01003DBB21370E1
:406C800000BF0C4B1B78DBB203F02003002BF8D0FB791846FFF73BFF00BF0837BD4680BDA0430040B043004001470040AC430040BC4300400047004080B400AF094A094BF8
:406CC0001B78DBB243F00103DBB2137000BF054B1B78DBB203F00203002BF8D000BFBD4680BC70470247004080B400AF054A054B1B78DBB223F00103DBB2137000BFBD464A
:406D000080BC70470247004080B582B000AFFFF7FAFE0346FB710C4A0B4B1B78DBB243F00803DBB21370094A084B1B78DBB243F00803DBB21370FB791846FFF7E8FE00BF83
:406D40000837BD4680BD00BFA0430040B043004080B584B000AF78600B46FB700023FB7313E00120FEF788FF0C4B1B78DBB203F00103002BF5D0FB7B7A681344084A1278C9
:406D8000D2B21A70FB7B0133FB73FA7BFB789A42EAD3FB7B18461037BD4680BD224700402047004080B485B000AF3A601A460346FB710B46BB801346BB710723FB60FB79B0
:406DC0003E2B02D8BB791F2B05D9FB793F2B45D9BB790F2B42D8254B1B78DBB203F00203002B38D0224BB6221A70214BD4221A701F4B01221A701D4B1B78DBB203F0020363
:406E0000002B25D11A4AFB791370194ABB881B0A9BB2DBB203F00103DBB21370144BBA88D2B21A70124ABB79013BDBB213700023FB7208E00E49FB7A3A6813441B780B7054
:406E4000FB7A0133FB72FA7ABB799A42F2D307E00923FB6004E00423FB6001E00123FB60FB6818461437BD4680BC7047224700402047004090B484B000AF04460846114617
:406E80001A462346FB710346BB800B46BB711346FB700723FB601B4B1B78DBB203F00203002B26D0184BB6221A70174BD8221A70154B05221A70134B1B78DBB203F0020382
:406EC000002B13D1104AFB7913700F4ABB881B0A9BB2DBB213700C4BBA88D2B21A700A4ABB791370084AFB78137004E00923FB6001E00423FB60FB6818461037BD4690BCF5
:406F0000704700BF224700402047004080B485B000AF0346FB710723FB60134B1B78DBB203F00203002B16D0104BB6221A700F4BE1221A700D4B0E221A700B4B1B78DBB286
:406F400003F00203002B03D1084AFB79137004E00923FB6001E00423FB60FB6818461437BD4680BC704700BF224700402047004080B582B000AF04237B60FFF7C4FD0346DA
:406F8000FB70124B1B78002B16D1104B01221A7000237B600E4B1B6803F00103002B0BD00B4A0B4B1B6823F00103136000BF00BF00BF084B01221A60FB781846FFF7A7FD35
:406FC0007B6818460837BD4680BD00BFE084FF1F04000840E484FF1F80B582B000AFFFF792FD0346FB710D4B00221A700C4B1B68012B0BD10B4A0B4B1B6843F001031360B0
:4070000000BF00BF00BF064B00221A60FB791846FFF77DFD00BF0837BD4680BDE084FF1FE484FF1F0400084080B483B000AF07237B600C4B1B78DBB203F00203002B09D0C4
:40704000094BB6221A70084BE0221A70064B0D221A7001E004237B607B6818460C37BD4680BC704722470040204700400A22002100F0D6B8014B1868704700BF9484FF1F81
:407080000E4B70B51E460E4C0025E41AA410A54204D056F8253098470135F8E700F05EFA084B094C1E46E41AA4100025A54204D056F8253098470135F8E770BD68750000E4
:4070C000687500006875000070750000931E222B10B50C4602D90020087010BD0A2A06D1002804DA2D230B704042012100E00021214400F09FF8204610BDFFF7E7BF10B59B
:40710000431E0A44914204D011F8014B03F8014FF8E710BD2DE9F0470F4680463F48D0F800903D4615F8014B09EB0400407800F0080000F0FF0608B12F46F2E72D2C03D1B9
:40714000BD1C7C78012603E02B2C04BF7C78BD1C13B1102B0AD15BE0302C57D1287800F0DF0058284DD16C7810230235002E14BF4FF0004C6FF0004CBCFBF3FA00273846DD
:4071800003FB1ACC09EB040E9EF801E01EF0040F01D0303C0BE01EF0030E1BD0BEF1010F0CBF4FF0370E4FF0570ECEEB0404A34210DDB7F1FF3F0AD0504506D801D1644528
:4071C00003DC03FB0040012701E04FF0FF3715F8014BD7E77B1C0CD1002E4FF0220314BF4FF000406FF00040C8F800302AB9BDE8F08706B1404272B107B1691E1160BDE846
:40720000F0873024002BB1D10823AFE70A23ADE7302CA3D0AAE7BDE8F08700BF9884FF1F13460A46014602480068FFF773BF00BF9484FF1FF0B58BB003460F466D461A4C89
