:400000000080002011000000257000002570000080B500AF024A034B1B68136007F034F8BC760040FA46004001000000002000400100000000200140010000000048004010
:400040000100000000480140010000000100000008000223000008760800032300001076080004230000287608000523000030760500062300002070050007230000307065
:4000800005000823000060700500FE23000070703000FE220000405180000B220000000200010C220000004480000D220000004780000E22000000488000FE220000004D5C
:4000C0000700102300000052070011230000085207001223000010520700132300001852060014230000605207001523000078520C0016230000004F2000172300007064E0
:400100002000FE2300007065080019230000005180001A230000000080001B230000800080001C230000800280001D230000000480001E230000800480001F230000000607
:40014000800020230000800680002123000000088000222300008008800023230000000A800024230000800A800025230000000C800026230000800C800027230000000EFB
:40018000800028230000800E800029230000001480002A230000801480002B230000001680002C230000801680002D230000001880002E230000801880002F230000001A1F
:4001C000800030230000801A10003123000010501000322300000050800033230000804D800034230000004C800035230000804C80003623000080478000372300000046EF
:400200008000382300008046800039230000004580003A230000804580003B230000001B80003C230000801B80003D230000001580003E230000801580003F230000001981
:400240008000402300008019800041230000001780004223000080178000432300000009800044230000800980004523000000078000462300008007800047230000000BD8
:40028000800048230000800B800049230000000580004A230000800580004B230000000D80004C230000800D80004D230000000380004E230000800380004F230000000F86
:4002C000800050230000800F800051230000000180005223000080018000532300000049800054230000804980005523000080488000562300000043800057230000804359
:400300008000582300000042800059230000804280005A230000004180005B230000804180005C23000000408000FE230000804010B5054C237833B9044B13B10448AFF387
:4003400000800123237010BD5887FF1F0000000094990000084B10B51BB108490848AFF300800848036803B910BD074B002BFBD0BDE81040184700BF000000005C87FF1F08
:4003800094990000C880FF1F0000000080B500AF274B1B78FF2B07D0254B93F83531FF2B02D1244B01221A70214B1B78FF2B07D01F4B93F83531FF2B02D01E4B02221A70D8
:4003C0001C4B1B78022B31D1194B93F82B31062B08D1174B1B78184603F00AFD144B002283F83421124B93F86032062B09D1104B93F83531184603F0FBFC0D4B002283F8D3
:4004000069220B4B1B78184603F060FD03461A46074B83F84C20064B93F83531184603F055FD03461A46024B83F8812100BF80BDB087FF1F128DFF1F90B597B000AFC74A66
:4004400007F11C0310681860C54A07F11403106818609188927999809A71C24A07F10C03106818609188927999809A71BE4B03221A7040F6C41006F06BFF06F099FE62B60D
:4004800007F0EEFB07F0B6FD07F0E6FA07F000F807F034FAB54B002283F83421B34B002283F86922002007F0B9FA03465A2B19D1002387F8573010E097F8574097F85730D8
:4004C0009BB2184607F0AAFA03461A46A84B1A5597F85730013387F8573097F85730052BEAD915E000215A2007F00EFA012387F8573009E097F857309D4A3021D15497F8AE
:400500005730013387F8573097F85730052BF1D9974B5B7903F00F03DBB21B01DAB2944B1B7903F00F03DBB219469B00CB1ADB00DBB21344DAB28E4B9B7803F00F03DBB24D
:40054000194689000B445B00D9B2894BDB7803F00F03DBB2184680000344184684001846234603449B00DBB20B44DBB21344DAB27F4B5B7803F00F03DBB21344DAB27D4BCF
:400580001A70062007F04AFA03465A2B1CD1002387F8573013E097F857309C1D97F857309BB206339BB2184607F038FA03461A46714B1A5597F85730013387F8573097F887
:4005C0005730052BE7D916E006215A2007F09CF9012387F857300AE097F857300633664A3021D15497F85730013387F8573097F85730052BF0D9604B5B7903F00F03DBB268
:400600001B01DAB25C4B1B7903F00F03DBB219469B00CB1ADB00DBB21344DAB2564B9B7803F00F03DBB2194689000B445B00D9B2514BDB7803F00F03DBB218468000034412
:40064000184684001846234603449B00DBB20B44DBB21344DAB2484B5B7803F00F03DBB21344DAB2454B1A7017E0002387F853300FE097F8534097F85330184603F060FBC3
:4006800003461A463E4B1A5597F85330013387F8533097F853300F2BEBD9344B1B78FF2BE3D0324B00221A70304B012283F83521344B00221A70002387F85630324B0022C8
:4006C0001A70324B02221A70FFF760FE06F0ACFF034687F8233097F82330042B16D9002387F852300CE097F8524006F055FF03461A46274B1A5597F85230013387F85230EA
:4007000097F8522097F823309A42ECD3042006F01FFE1F4B1B7A1C2B66D01C2B13DC0A2B00F090800A2B04DC012B3CD0022B3FD0AEE30C2B00F0B9810C2BC0F222810D2BDE
:4007400000F04D82A4E3AA2B37D0AA2B22DC4E2B00F07483532B00F04C8399E3989900009C990000A4990000CA8CFF1FB087FF1FA887FF1F138DFF1F088DFF1F0E8DFF1F88
:40078000888CFF1F0F8DFF1F108DFF1F128DFF1F288DFF1FCC2B00F0B682E12B00F06783CA2B38D074E3E12387F8563001F08FB8E22387F8563001F08AB8012387F8563002
:4007C000002387F8513009E097F85130BF4A0021D15497F85130013387F8513097F85130132BF1D901F073B86B2387F85630002387F8503009E097F85030B44A0021D15425
:4008000097F85030013387F8503097F85030132BF1D901F05CB8032387F85630002387F84F3009E097F84F30A84A0021D15497F84F30013387F84F3097F84F30132BF1D989
:4008400001F045B897F85630012B19D1002387F856309F4B1B78184603F0CAFA002387F84E3009E097F84E30984A0021D15497F84E30013387F84E3097F84E30132BF1D914
:4008800097F85630022B26D10A2387F85630904B1B78184603F01AFB8D4B18788D4B1B780122194603F05EFC894B1B78184603F00DFB002387F84D3009E097F84D30834AB6
:4008C0000021D15497F84D30013387F84D3097F84D30132BF1D997F856306B2B40F0E8871A2387F856307A4B1B78184603F0EEFA774B1878774B1B780122194603F032FCFB
:40090000734B1B78184603F0E1FA002387F84C3009E097F84C306D4A0021D15497F84C30013387F84C3097F84C30132BF1D9002387F84B300BE097F84B30654A1344202284
:4009400083F8232197F84B30013387F84B3097F84B30072BEFD9002387F84A300BE097F84A305B4A1344202283F82D2197F84A30013387F84A3097F84A30052BEFD900F03E
:4009800097BF97F85630012B1AD1002387F856304F4B93F83531184603F02AFA002387F8493009E097F84930484A0021D15497F84930013387F8493097F84930132BF1D965
:4009C00097F85630022B17D10B2387F85630404B93F83531184603F079FA3D4B93F835013C4B1B780122194603F0BCFB384B93F83531184603F06AFA97F856306B2B40F0C7
:400A000059871B2387F85630314B93F83531184603F05CFA2E4B93F835012E4B1B780122194603F09FFB2A4B93F83531184603F04DFA002387F8483009E097F84830234AB5
:400A40000021D15497F84830013387F8483097F84830132BF1D9002387F847300BE097F847301B4A1344202283F8582297F84730013387F8473097F84730072BEFD900239F
:400A800087F846300BE097F84630114A1344202283F8622297F84630013387F8463097F84630052BEFD900F005BF97F85630012B20D1002387F85630054B93F86A32184650
:400AC00003F096F9002387F845300FE0288DFF1FB087FF1F0F8DFF1F97F84530D44A0021D15497F84530013387F8453097F84530132BF1D997F85630022B17D10C2387F814
:400B00005630CC4B93F86A32184603F0DFF9C94B93F86A02C84B1B780122194603F022FBC44B93F86A32184603F0D0F997F856306B2B40F0C1861C2387F85630BD4B93F83C
:400B40006A32184603F0C2F9BA4B93F86A02BA4B1B780122194603F005FBB64B93F86A32184603F0B3F9002387F8443009E097F84430AF4A0021D15497F84430013387F8A8
:400B8000443097F84430132BF1D9002387F843300BE097F84330A74A1344202283F88D2397F84330013387F8433097F84330072BEFD9002387F842300BE097F842309D4AF4
:400BC0001344202283F8972397F84230013387F8423097F84230052BEFD900F06DBE97F85630012B1AD1002387F85630914B93F89F33184603F0FCF8002387F8413009E01F
:400C000097F841308A4A0021D15497F84130013387F8413097F84130132BF1D997F85630022B17D10C2387F85630824B93F89F33184603F04BF97F4B93F89F037E4B1B78FE
:400C40000122194603F08EFA7A4B93F89F33184603F03CF997F856306B2B40F02F861D2387F85630734B93F89F33184603F02EF9704B93F89F03704B1B780122194603F0BC
:400C800071FA6C4B93F89F33184603F01FF9002387F8403009E097F84030654A0021D15497F84030013387F8403097F84030132BF1D9002387F83F300BE097F83F305D4A93
:400CC0001344202283F8C22497F83F30013387F83F3097F83F30072BEFD9002387F83E300BE097F83E30534A1344202283F8CC2497F83E30013387F83E3097F83E30052BFE
:400D0000EFD900F0DBBD4B4B93F83531184603F0DDF8484B93F83501474B1B780122194603F020FA0A2006F013FB424B93F83531184603F0CBF83F4B1B78184603F0C6F8C2
:400D40003C4B18783C4B1B780122194603F00AFA0A2006F0FDFA374B1B78184603F0B6F8344B93F83531184603F0B0F8314B93F83501314B1B780222194603F0F3F90A205D
:400D800006F0E6FA2B4B93F83531184603F09EF8284B1B78184603F099F8264B1878264B1B780222194603F0DDF90A2006F0D0FA204B1B78184603F089F81E4B93F83531C2
:400DC000184603F083F8002387F83D3009E097F83D30174A0021D15497F83D30013387F83D3097F83D30132BF1D903F041FA00F06EBD97F85630AC2B08D10E4B012283F867
:400E000034210C4B1B78184604F05EFD97F85630BC2B40F05585074B012283F86922054B93F83531184604F04FFD00F049BD00BF288DFF1FB087FF1F0F8DFF1F97F85630BA
:400E4000AC2B06D1002387F85630BD4B002283F8342197F85630BC2B40F03485002387F85630B74B002283F8692200F02BBD97F85630E12B02D1C12387F8563097F85630A1
:400E8000E22B40F02185C22387F8563000F01CBDAC4BDB78832B40F0DB8097F854300A2B40F0D680A74B1B7AE12B00F0D180002387F83C300BE097F83C30A14A13443022EF
:400EC00083F80B2197F83C30013387F83C3097F83C30052BEFD9002387F855309A4B00221A70002387F85430072387F83B3021E097F83B30934AD35C002B1FD097F83B3031
:400F0000904AD35CFF2B19D097F83B30073B97F83B208C498A5C07F158010B4403F8542C97F85530013387F8553097F83B30013387F83B3097F83B300B2BD9D9062387F8AB
:400F400057301BE097F8573097F8552007F158010A4412F8541C7A4A13440A4683F80B2197F85530002B0ED097F85530013B87F8553097F85730013B87F8573097F85730CB
:400F8000002BDFD100E000BF6D4B93F80B31303B1B015AB26A4B93F80C31303BDBB25BB213435BB2DAB2664B83F82920644B93F80D31303B1B015AB2614B93F80E31303BD3
:400FC000DBB25BB213435BB2DAB25D4B83F82A205B4B93F80F31303B1B015AB2584B93F81031303BDBB25BB213435BB2DAB2544B83F82B20002387F8573013E097F85730FD
:401000004F4A134493F8292097F857309BB20C339BB21946104606F077FC97F85730013387F8573097F85730022BE7D9002387F83A3009E097F83A30424A0021D15497F83D
:401040003A30013387F83A3097F83A30132BF1D93C4BDB78832B0AD197F85430012B06D1384B1A7A384B1A700A2387F85430354BDB78832B58D197F85630032B54D10023E6
:4010800087F856302F4BDA793B7F9A422CD12D4B1A7A7B7F9A4227D12A4B5A7ABB7F9A4222D1284B9A7AFB7F9A421DD1254BDB7AFF2B19D1002387F839300EE097F839300A
:4010C00007F15802134413F8443C184606F0F4FA97F83930013387F8393097F83930052BECD9042006F034F9164B1B7A012B02D1012387F85430134B1B7A022B02D10223FE
:4011000087F85430002387F8383009E097F838300C4A0021D15497F83830013387F8383097F83830132BF1D9064BDB78832B43D197F856301A2B3FD1072387F8373022E033
:40114000B087FF1F288DFF1F108DFF1F97F83730B54AD35C002B1AD097F83730B24AD35CFF2B14D097F83730073B97F83720AE49895CAE4A13440A4683F82D2197F83730CC
:40118000013387F8373097F837300E2BDED9002387F8363009E097F83630A34A0021D15497F83630013387F8363097F83630132BF1D90A2387F856309B4BDB78832B7BD1A6
:4011C00097F85630C12B77D1072387F835301EE097F83530944AD35C002B1CD097F83530914AD35CFF2B16D097F83530073B97F835208D498A5C303AD1B28C4A13440A4634
:4012000083F80B2197F83530013387F8353097F835300A2BDCD9002387F8343009E097F83430814A0021D15497F83430013387F8343097F83430132BF1D97C4B93F80B3197
:40124000303B1B015AB2794B93F80C31303BDBB25BB213435BB2DAB2744B83F82920734B93F80D31303B1B015AB2704B93F80E31303BDBB25BB213435BB2DAB26B4B83F814
:401280002A206A4B93F80F31303B1B015AB2674B93F81031303BDBB25BB213435BB2DAB2624B83F82B20614B1B786149184602F0CFFE002387F856305B4BDB78832B7CD1CA
:4012C00097F85630C22B78D1072387F833301EE097F83330544AD35C002B1CD097F83330514AD35CFF2B16D097F83330073B97F833204D498A5C303AD1B24C4A13440A463B
:4013000083F8402297F83330013387F8333097F833300A2BDCD9002387F8323009E097F83230414A0021D15497F83230013387F8323097F83230132BF1D93C4B93F84032BA
:40134000303B1B015AB2394B93F84132303BDBB25BB213435BB2DAB2344B83F85E21334B93F84232303B1B015AB2304B93F84332303BDBB25BB213435BB2DAB22B4B83F87B
:401380005F212A4B93F84432303B1B015AB2274B93F84532303BDBB25BB213435BB2DAB2224B83F86021214B93F835312149184602F04EFE002387F856301B4BDB78832BE1
:4013C0006DD197F856300A2B69D1002387F85630072387F8313040E097F83130124AD35C002B3ED097F831300F4AD35CFF2B38D097F831300C4AD35C602B1DD997F8313095
:40140000094AD35C7A2B17D897F83130073B97F8312005498A5C203AD1B2044A13440A4683F8232114E000BF288DFF1FB087FF1FD987FF1F0E89FF1F97F83130073B97F8F0
:401440003120B549895CB54A13440A4683F8232197F83130013387F8313097F831300E2BBAD9002387F8303009E097F83030AA4A0021D15497F83030013387F8303097F86E
:401480003030132BF1D9A54B1B78184604F01CFAA24B012283F83421AC2387F856309E4BDB78832B3DD197F856301B2B39D1072387F82F301CE097F82F30974AD35C002B9B
:4014C0001AD097F82F30944AD35CFF2B14D097F82F30073B97F82F208F49895C8F4A13440A4683F8622297F82F30013387F82F3097F82F300E2BDED9002387F82E3009E0E8
:4015000097F82E30844A0021D15497F82E30013387F82E3097F82E30132BF1D90B2387F856307D4BDB78832B65D197F856300B2B61D1002387F85630072387F82D3037E0C3
:4015400097F82D30744AD35C002B35D097F82D30714AD35CFF2B2FD097F82D306E4AD35C602B14D997F82D306B4AD35C7A2B0ED897F82D30073B97F82D2067498A5C203AC3
:40158000D1B2664A13440A4683F858220BE097F82D30073B97F82D205F49895C5F4A13440A4683F8582297F82D30013387F82D3097F82D300E2BC3D9002387F82C3009E0F1
:4015C00097F82C30544A0021D15497F82C30013387F82C3097F82C30132BF1D94F4B93F83531184604F070F94C4B012283F86922BC2387F85630484BDB78832B3DD197F814
:4016000056301C2B39D1072387F82B301CE097F82B30414AD35C002B1AD097F82B303E4AD35CFF2B14D097F82B30073B97F82B203949895C394A13440A4683F8972397F810
:401640002B30013387F82B3097F82B300E2BDED9002387F82A3009E097F82A302E4A0021D15497F82A30013387F82A3097F82A30132BF1D90C2387F85630274BDB78832B0D
:4016800069D197F856300C2B65D1002387F85630072387F8293037E097F829301E4AD35C002B35D097F829301B4AD35CFF2B2FD097F82930184AD35C602B14D997F8293000
:4016C000154AD35C7A2B0ED897F82930073B97F8292011498A5C203AD1B2104A13440A4683F88D230BE097F82930073B97F829200949895C094A13440A4683F88D2397F8AE
:401700002930013387F8293097F829300E2BC3D9002387F828300DE0288DFF1FB087FF1F97F828306C4A0021D15497F82830013387F8283097F82830132BF1D9674B93F877
:401740006A32184604F0C0F8644B012283F89E23CC2387F85630604BDB78832B3DD197F856301D2B39D1072387F827301CE097F82730594AD35C002B1AD097F82730564A51
:40178000D35CFF2B14D097F82730073B97F827205149895C514A13440A4683F8CC2497F82730013387F8273097F827300E2BDED9002387F8263009E097F82630464A002185
:4017C000D15497F82630013387F8263097F82630132BF1D90D2387F856303F4BDB78832B74D197F856300D2B70D1002387F85630072387F8253037E097F82530364AD35C86
:40180000002B35D097F82530334AD35CFF2B2FD097F82530304AD35C602B14D997F825302D4AD35C7A2B0ED897F82530073B97F8252029498A5C203AD1B2284A13440A465D
:4018400083F8C2240BE097F82530073B97F825202149895C214A13440A4683F8C22497F82530013387F8253097F825300E2BC3D9002387F8243009E097F82430164A002178
:40188000D15497F82430013387F8243097F82430132BF1D9114B93F89F33184604F014F80E4B012283F8D324DC2387F856300DE000BF0CE000BF0AE000BF08E000BF06E098
:4018C00000BF04E000BF02E000BF00E000BF002387F82330FEF7F8BE288DFF1FB087FF1F80B489B000AF78600B467B800023FB830023BB617B68002B2FD1002368E0FB8B5F
:40190000DB0B9BB2BB60FB8B5B00FB837B681B781A46BB6942FA03F31BB203F001031AB2B7F91E3013431BB2FB83BB690133BB61BB69072B07DD0023BB617B6801337B60C0
:401940007B88013B7B80BB68002B06D0FB8B83F4FF4383F07A03DB43FB837B88002BCED100237B6113E0FB8BDB0B9BB2BB60FB8B5B00FB83BB68002B06D0FB8B83F4FF43E9
:4019800083F07A03DB43FB837B6901337B617B690F2BE8DD00237B824FF400437B610123FB6011E0FA8B7B691340002B06D0FB681AB2B7F9123013431BB27B827B695B1085
:4019C0007B61FB685B00FB607B69002BEAD17B8A18462437BD4680BC704700BFF0B589B000AF184B1B78FB71164B5B7803F00F03BB71154B1B78BA799A4240F05184124BFD
:401A0000002283F82B210123FB770CE0FB7F013BFA7F0C49895C0C4A13440A4683F85120FB7F0133FB77FA7FFB7901339A42EDDB054B93F85330652B40F07F820523BB778B
:401A400025E000BF988CFF1FB087FF1FCD4B93F8553003F00F03591ECB4B1B781D46BB7F581FBB7FC74A134493F85160C54C2A4692002A440B469B000B445B0013442344F7
:401A80000344013332461A70BB7F0133BB77BA7FBC4B93F8543004339A42D7DBB94B93F8553003F00F03591EB74B1B781D46B54B93F8553003F00F03581EB34B1B78B14C54
:401AC0001A4692001A4403469B0003445B001344234401331B781B09DBB23033DCB2A9482A4692002A4453001A460B461B015B1A5B0013440344833322461A70A14B93F8DB
:401B0000553003F00F03591E9F4B1B781D469D4B93F8553003F00F03581E9B4B1B78994C1A4692001A4403469B0003445B001344234401331B7803F00F03DBB23033DCB215
:401B400090482A4692002A4453001A460B461B015B1A5B0013440344843322461A70894B93F8553003F00F03591E874B1B781D46844B93F8553003F00F03581E824B1B7804
:401B8000804C1A4692001A4403469B0003445B001344234402331B781B09DBB23033DCB278482A4692002A4453001A460B461B015B1A5B0013440344853322461A70714B37
:401BC00093F8553003F00F03591E6F4B1B781D466C4B93F8553003F00F03581E6A4B1B78684C1A4692001A4403469B0003445B001344234402331B7803F00F03DBB230331A
:401C0000DCB260482A4692002A4453001A460B461B015B1A5B0013440344863322461A70584B93F8553003F00F03591E564B1B781D46544B93F8553003F00F03581E524B38
:401C40001B78504C1A4692001A4403469B0003445B001344234403331B781B09DBB23033DCB248482A4692002A4453001A460B461B015B1A5B0013440344873322461A70FC
:401C8000404B93F8553003F00F03591E3E4B1B781D463C4B93F8553003F00F03581E3A4B1B78384C1A4692001A4403469B0003445B001344234403331B7803F00F03DBB2F1
:401CC0003033DCB22F482A4692002A4453001A460B461B015B1A5B0013440344883322461A70284B93F8553003F00F03591E264B1B781D46234B93F8553003F00F03581E72
:401D0000214B1B781F4C1A4692001A4403469B0003445B001344234404331B781B09DBB23033DCB217482A4692002A4453001A460B461B015B1A5B001344034489332246B8
:401D40001A70104B93F8553003F00F03591E0E4B1B781D460B4B93F8553003F00F03581E094B1B78074C1A4692001A4403469B0003445B001344234404331B7803F00F0325
:401D8000DBB203E0B087FF1F0F8DFF1F3033DCB2B8482A4692002A4453001A460B461B015B1A5B00134403448A3322461A70B14B93F8553003F00F03591EAF4B1B781D468E
:401DC000AC4B93F8553003F00F03581EAA4B1B78A84C1A4692001A4403469B0003445B001344234405331B781B09DBB23033DCB2A0482A4692002A4453001A460B461B016C
:401E00005B1A5B00134403448B3322461A70994B93F8553003F00F03591E974B1B781D46944B93F8553003F00F03581E924B1B78904C1A4692001A4403469B0003445B00B0
:401E40001344234405331B7803F00F03DBB23033DCB288482A4692002A4453001A460B461B015B1A5B00134403448C3322461A7000237B773AE07F4B93F8553003F00F03C9
:401E8000591E7D4B1B7897F91D007A4C1A4692001A4453001A460B461B015B1A5B0013442344034483331B78302B24D1714B93F8553003F00F03591E6F4B1B7897F91D00BD
:401EC0006C4C1A4692001A4453001A460B461B015B1A5B00134423440344833300221A7097F91D30DBB20133DBB27B7797F91D30072BC0DD00E000BF012005F0ABFABB792C
:401F000043F05003DBB2184605F0ECFF594B93F852305BB203F00F035BB263F03F035BB2DBB2184605F0DEFFFA2005F0DBFF042005F00EFA002005F08DFA4E4B93F85330D4
:401F4000022B40F0138104233B771BE03B7F043B3A7F48490A4492F85110464A13440A4683F839203B7F043B3A7F043241490A4492F851103F4A13440A4683F835203B7FB0
:401F800001333B773B7F072BE0D93A4B93F839301B09DBB23033DAB2364B83F80321354B93F8393003F00F03DBB23033DAB2314B83F804212F4B93F83A301B09DBB23033C9
:401FC000DAB22C4B83F805212A4B93F83A3003F00F03DBB23033DAB2264B83F80621254B93F83B301B09DBB23033DAB2214B83F80721204B93F83B3003F00F03DBB23033D4
:40200000DAB21C4B83F808211A4B93F83C301B09DBB23033DAB2174B83F80921154B93F83C3003F00F03DBB23033DAB2114B83F80A210023FB7614E097F91B300D4A13441B
:4020400093F80331302B1BD197F91B30094A1344002283F8032197F91B30DBB20133DBB2FB7697F91B20054B1B7801339A42E3DB07E000BFB087FF1F0F8DFF1FCA8CFF1FD5
:4020800000BF9C4B93F835301B09DBB23033DAB2984B83F8FB20974B93F8353003F00F03DBB23033DAB2934B83F8FC20914B93F836301B09DBB23033DAB28E4B83F8FD20CB
:4020C0008C4B93F8363003F00F03DBB23033DAB2884B83F8FE20874B93F837301B09DBB23033DAB2834B83F8FF20824B93F8373003F00F03DBB23033DAB27E4B83F80021BA
:402100007C4B93F838301B09DBB23033DAB2794B83F80121774B93F8383003F00F03DBB23033DAB2734B83F802210023BB7614E097F91A306F4A134493F8FB30302B11D12D
:4021400097F91A306B4A1344002283F8FB2097F91A30DBB20133DBB2BB7697F91A30072BE6DD00E000BF002005F074F9614B93F85330032B40F094805E4B93F85430042B65
:4021800040F08E805B4B062283F82B21594B93F8583003F00F03DAB2564B83F82C21554B93F82C315A1E534B93F8573003F00F03DBB23033D8B24F4913465B0013445B006E
:4021C0000B4403F5887302461A704A4B93F82C315A1E484B93F857301B09DBB23033D8B2444913465B0013445B000B4403F20F1302461A703F4B93F82C315A1E3D4B93F86B
:40220000563003F00F03DBB23033D8B2394913465B0013445B000B4403F5877302461A70344B93F82C315A1E324B93F856301B09DBB23033D8B22F4913465B0013445B00B5
:402240000B4403F20D1302461A702A4B93F82C315A1E284B93F8553003F00F03DBB23033D8B2244913465B0013445B000B4403F5867302461A701F4B93F82C315A1E1D4B3A
:4022800093F855301B09DBB23033D8B2194913465B0013445B000B4403F20B1302461A70144B93F83531BA799A4240F06784114B002283F8602201237B760CE07B7E013B49
:4022C0007A7E0D49895C0B4A13440A4683F886217B7E01337B767A7EFB7901339A42EDDB044B93F88831652B40F0968205233B7626E000BFB087FF1F988CFF1FCD4B93F8E8
:402300008A3103F00F03591ECB4B1B781D463B7E581F3B7EC74A134493F88661C54C2A4692002A440B469B000B445B0013442344034403F59B7332461A703B7E01333B76D5
:402340003A7EBC4B93F8893104339A42D6DBB94B93F88A3103F00F03591EB74B1B781D46B44B93F88A3103F00F03581EB24B1B78B04C1A4692001A4403469B0003445B00B5
:402380001344234403F59B731B781B09DBB23033DCB2A8482A4692002A4453001A460B461B015B1A5B001344034403F5DC7322461A70A04B93F88A3103F00F03591E9E4B67
:4023C0001B781D469B4B93F88A3103F00F03581E994B1B78974C1A4692001A4403469B0003445B001344234403F59B731B7803F00F03DBB23033DCB28E482A4692002A44F0
:4024000053001A460B461B015B1A5B001344034403F2B91322461A70864B93F88A3103F00F03591E844B1B781D46824B93F88A3103F00F03581E804B1B787E4C1A4692005B
:402440001A4403469B0003445B001344234403F237131B781B09DBB23033DCB275482A4692002A4453001A460B461B015B1A5B001344034403F5DD7322461A706D4B93F80E
:402480008A3103F00F03591E6B4B1B781D46694B93F88A3103F00F03581E674B1B78654C1A4692001A4403469B0003445B001344234403F237131B7803F00F03DBB2303373
:4024C000DCB25C482A4692002A4453001A460B461B015B1A5B001344034403F2BB1322461A70544B93F88A3103F00F03591E524B1B781D464F4B93F88A3103F00F03581EA8
:402500004D4B1B784B4C1A4692001A4403469B0003445B001344234403F59C731B781B09DBB23033DCB243482A4692002A4453001A460B461B015B1A5B001344034403F588
:40254000DE7322461A703B4B93F88A3103F00F03591E394B1B781D46364B93F88A3103F00F03581E344B1B78324C1A4692001A4403469B0003445B001344234403F59C73E9
:402580001B7803F00F03DBB23033DCB229482A4692002A4453001A460B461B015B1A5B001344034403F2BD1322461A70214B93F88A3103F00F03591E1F4B1B781D461D4BE9
:4025C00093F88A3103F00F03581E1B4B1B78194C1A4692001A4403469B0003445B001344234403F239131B781B09DBB23033DCB210482A4692002A4453001A460B461B01CA
:402600005B1A5B001344034403F5DF7322461A70084B93F88A3103F00F03591E064B1B781D46044B93F88A3103F00F03581E024B1B7803E0B087FF1F0F8DFF1FC44C1A4642
:4026400092001A4403469B0003445B001344234403F239131B7803F00F03DBB23033DCB2BB482A4692002A4453001A460B461B015B1A5B001344034403F2BF1322461A7015
:40268000B34B93F88A3103F00F03591EB14B1B781D46AF4B93F88A3103F00F03581EAD4B1B78AB4C1A4692001A4403469B0003445B001344234403F59D731B781B09DBB24B
:4026C0003033DCB2A2482A4692002A4453001A460B461B015B1A5B001344034403F5E07322461A709A4B93F88A3103F00F03591E984B1B781D46964B93F88A3103F00F0318
:40270000581E944B1B78924C1A4692001A4403469B0003445B001344234403F59D731B7803F00F03DBB23033DCB289482A4692002A4453001A460B461B015B1A5B00134499
:40274000034403F2C11322461A700023FB753CE07F4B93F88A3103F00F03591E7D4B1B7897F917007A4C1A4692001A4453001A460B461B015B1A5B0013442344034403F517
:40278000DC731B78302B25D1714B93F88A3103F00F03591E6F4B1B7897F917006C4C1A4692001A4453001A460B461B015B1A5B0013442344034403F5DC7300221A7097F9F4
:4027C0001730DBB20133DBB2FB7597F91730072BBEDD00E000BF012004F03CFEBB7943F05003DBB2184605F07DFB594B93F887315BB203F00F035BB263F03F035BB2DBB2FB
:40280000184605F06FFBFA2005F06CFB042004F09FFD002004F01EFE4D4B93F88831022B40F012810423BB751BE0BB7D043BBA7D47490A4492F88611454A13440A4683F805
:402840006E21BB7D043BBA7D043241490A4492F886113F4A13440A4683F86A21BB7D0133BB75BB7D072BE0D9394B93F86E311B09DBB23033DAB2364B83F83822344B93F849
:402880006E3103F00F03DBB23033DAB2304B83F839222F4B93F86F311B09DBB23033DAB22B4B83F83A222A4B93F86F3103F00F03DBB23033DAB2264B83F83B22244B93F8B1
:4028C00070311B09DBB23033DAB2214B83F83C221F4B93F8703103F00F03DBB23033DAB21B4B83F83D221A4B93F871311B09DBB23033DAB2164B83F83E22154B93F8713100
:4029000003F00F03DBB23033DAB2114B83F83F2200237B7514E097F915300D4A134493F83832302B1AD197F91530094A1344002283F8382297F91530DBB20133DBB27B7590
:4029400097F91520044B1B7801339A42E3DB06E0B087FF1F0F8DFF1FCA8CFF1F00BF9C4B93F86A311B09DBB23033DAB2984B83F83022974B93F86A3103F00F03DBB2303360
:40298000DAB2934B83F83122914B93F86B311B09DBB23033DAB28E4B83F832228C4B93F86B3103F00F03DBB23033DAB2884B83F83322874B93F86C311B09DBB23033DAB2D8
:4029C000834B83F83422824B93F86C3103F00F03DBB23033DAB27E4B83F835227C4B93F86D311B09DBB23033DAB2794B83F83622774B93F86D3103F00F03DBB23033DAB294
:402A0000734B83F8372200233B7514E097F914306F4A134493F83032302B11D197F914306B4A1344002283F8302297F91430DBB20133DBB23B7597F91430072BE6DD00E0E5
:402A400000BF002004F006FD614B93F88831032B40F094805E4B93F88931042B40F08E805B4B062283F86022594B93F88D3103F00F03DAB2564B83F86122554B93F861321D
:402A80005A1E534B93F88C3103F00F03DBB23033D8B24F4913465B0013445B000B4403F2452302461A704A4B93F861325A1E484B93F88C311B09DBB23033D8B24449134633
:402AC0005B0013445B000B4403F5117302461A703F4B93F861325A1E3D4B93F88B3103F00F03DBB23033D8B2394913465B0013445B000B4403F2432302461A70344B93F850
:402B000061325A1E324B93F88B311B09DBB23033D8B22F4913465B0013445B000B4403F2422302461A702A4B93F861325A1E284B93F88A3103F00F03DBB23033D8B224491F
:402B400013465B0013445B000B4403F2412302461A701F4B93F861325A1E1D4B93F88A311B09DBB23033D8B2194913465B0013445B000B4403F5107302461A70144B93F8DB
:402B80006A32BA799A4240F06784114B002283F895230123FB740CE0FB7C013BFA7C0D49895C0B4A13440A4683F8BB22FB7C0133FB74FA7CFB7901339A42EDDB044B93F8B1
:402BC000BD32652B40F096820523BB7426E000BFB087FF1F988CFF1FCD4B93F8BF3203F00F03591ECB4B1B781D46BB7C581FBB7CC74A134493F8BB62C54C2A4692002A44C9
:402C00000B469B000B445B0013442344034403F26B2332461A70BB7C0133BB74BA7CBC4B93F8BE3204339A42D6DBB94B93F8BF3203F00F03591EB74B1B781D46B44B93F8E0
:402C4000BF3203F00F03581EB24B1B78B04C1A4692001A4403469B0003445B001344234403F26B231B781B09DBB23033DCB2A8482A4692002A4453001A460B461B015B1A1B
:402C80005B001344034403F2ED2322461A70A04B93F8BF3203F00F03591E9E4B1B781D469B4B93F8BF3203F00F03581E994B1B78974C1A4692001A4403469B0003445B0055
:402CC0001344234403F26B231B7803F00F03DBB23033DCB28E482A4692002A4453001A460B461B015B1A5B001344034403F2EE2322461A70864B93F8BF3203F00F03591EE8
:402D0000844B1B781D46824B93F8BF3203F00F03581E804B1B787E4C1A4692001A4403469B0003445B001344234403F51B731B781B09DBB23033DCB275482A4692002A4466
:402D400053001A460B461B015B1A5B001344034403F2EF2322461A706D4B93F8BF3203F00F03591E6B4B1B781D46694B93F8BF3203F00F03581E674B1B78654C1A469200DD
:402D80001A4403469B0003445B001344234403F51B731B7803F00F03DBB23033DCB25C482A4692002A4453001A460B461B015B1A5B001344034403F53C7322461A70544BFB
:402DC00093F8BF3203F00F03591E524B1B781D464F4B93F8BF3203F00F03581E4D4B1B784B4C1A4692001A4403469B0003445B001344234403F26D231B781B09DBB2303335
:402E0000DCB243482A4692002A4453001A460B461B015B1A5B001344034403F2F12322461A703B4B93F8BF3203F00F03591E394B1B781D46364B93F8BF3203F00F03581E10
:402E4000344B1B78324C1A4692001A4403469B0003445B001344234403F26D231B7803F00F03DBB23033DCB229482A4692002A4453001A460B461B015B1A5B001344034424
:402E800003F2F22322461A70214B93F8BF3203F00F03591E1F4B1B781D461D4B93F8BF3203F00F03581E1B4B1B78194C1A4692001A4403469B0003445B001344234403F20C
:402EC0006E231B781B09DBB23033DCB210482A4692002A4453001A460B461B015B1A5B001344034403F2F32322461A70084B93F8BF3203F00F03591E064B1B781D46044BD8
:402F000093F8BF3203F00F03581E024B1B7803E0B087FF1F0F8DFF1FC44C1A4692001A4403469B0003445B001344234403F26E231B7803F00F03DBB23033DCB2BB482A4615
:402F400092002A4453001A460B461B015B1A5B001344034403F53D7322461A70B34B93F8BF3203F00F03591EB14B1B781D46AF4B93F8BF3203F00F03581EAD4B1B78AB4CCE
:402F80001A4692001A4403469B0003445B001344234403F26F231B781B09DBB23033DCB2A2482A4692002A4453001A460B461B015B1A5B001344034403F2F52322461A70DA
:402FC0009A4B93F8BF3203F00F03591E984B1B781D46964B93F8BF3203F00F03581E944B1B78924C1A4692001A4403469B0003445B001344234403F26F231B7803F00F0340
:40300000DBB23033DCB289482A4692002A4453001A460B461B015B1A5B001344034403F2F62322461A7000237B743CE07F4B93F8BF3203F00F03591E7D4B1B7897F9110057
:403040007A4C1A4692001A4453001A460B461B015B1A5B0013442344034403F2ED231B78302B25D1714B93F8BF3203F00F03591E6F4B1B7897F911006C4C1A4692001A44B2
:4030800053001A460B461B015B1A5B0013442344034403F2ED2300221A7097F91130DBB20133DBB27B7497F91130072BBEDD00E000BF012004F0CEF9BB7943F05003DBB2FC
:4030C000184604F00FFF594B93F8BC325BB203F00F035BB263F03F035BB2DBB2184604F001FFFA2004F0FEFE042004F031F9002004F0B0F94D4B93F8BD32022B40F01281A8
:4031000004233B741BE03B7C043B3A7C47490A4492F8BB12454A13440A4683F8A3223B7C043B3A7C043241490A4492F8BB123F4A13440A4683F89F223B7C01333B743B7C99
:40314000072BE0D9394B93F8A3321B09DBB23033DAB2364B83F86D23344B93F8A33203F00F03DBB23033DAB2304B83F86E232F4B93F8A4321B09DBB23033DAB22B4B83F801
:403180006F232A4B93F8A43203F00F03DBB23033DAB2264B83F87023244B93F8A5321B09DBB23033DAB2214B83F871231F4B93F8A53203F00F03DBB23033DAB21B4B83F88D
:4031C00072231A4B93F8A6321B09DBB23033DAB2164B83F87323154B93F8A63203F00F03DBB23033DAB2114B83F874230023FB7314E097F90F300D4A134493F86D33302B26
:403200001AD197F90F30094A1344002283F86D2397F90F30DBB20133DBB2FB7397F90F20044B1B7801339A42E3DB06E0B087FF1F0F8DFF1FCA8CFF1F00BF9C4B93F89F3298
:403240001B09DBB23033DAB2984B83F86523974B93F89F3203F00F03DBB23033DAB2934B83F86623914B93F8A0321B09DBB23033DAB28E4B83F867238C4B93F8A03203F049
:403280000F03DBB23033DAB2884B83F86823874B93F8A1321B09DBB23033DAB2834B83F86923824B93F8A13203F00F03DBB23033DAB27E4B83F86A237C4B93F8A2321B093B
:4032C000DBB23033DAB2794B83F86B23774B93F8A23203F00F03DBB23033DAB2734B83F86C230023BB7314E097F90E306F4A134493F86533302B11D197F90E306B4A1344BE
:40330000002283F8652397F90E30DBB20133DBB2BB7397F90E30072BE6DD00E000BF002004F098F8614B93F8BD32032B40F094805E4B93F8BE32042B40F08E805B4B062221
:4033400083F89523594B93F8C23203F00F03DAB2564B83F89623554B93F896335A1E534B93F8C13203F00F03DBB23033D8B24F4913465B0013445B000B4403F27A33024653
:403380001A704A4B93F896335A1E484B93F8C1321B09DBB23033D8B2444913465B0013445B000B4403F2793302461A703F4B93F896335A1E3D4B93F8C03203F00F03DBB2D1
:4033C0003033D8B2394913465B0013445B000B4403F55E7302461A70344B93F896335A1E324B93F8C0321B09DBB23033D8B22F4913465B0013445B000B4403F27733024617
:403400001A702A4B93F896335A1E284B93F8BF3203F00F03DBB23033D8B2244913465B0013445B000B4403F2763302461A701F4B93F896335A1E1D4B93F8BF321B09DBB2F6
:403440003033D8B2194913465B0013445B000B4403F2753302461A70144B93F89F33BA799A4240F06784114B002283F8CA2401237B730CE07B7B013B7A7B0D49895C0B4A57
:4034800013440A4683F8F0237B7B01337B737A7BFB7901339A42EDDB044B93F8F233652B40F0968205233B7326E000BFB087FF1F988CFF1FCD4B93F8F43303F00F03591E2F
:4034C000CB4B1B781D463B7B581F3B7BC74A134493F8F063C54C2A4692002A440B469B000B445B0013442344034403F5687332461A703B7B01333B733A7BBC4B93F8F333A1
:4035000004339A42D6DBB94B93F8F43303F00F03591EB74B1B781D46B44B93F8F43303F00F03581EB24B1B78B04C1A4692001A4403469B0003445B001344234403F568737E
:403540001B781B09DBB23033DCB2A8482A4692002A4453001A460B461B015B1A5B001344034403F2224322461A70A04B93F8F43303F00F03591E9E4B1B781D469B4B93F873
:40358000F43303F00F03581E994B1B78974C1A4692001A4403469B0003445B001344234403F568731B7803F00F03DBB23033DCB28E482A4692002A4453001A460B461B012C
:4035C0005B1A5B001344034403F2234322461A70864B93F8F43303F00F03591E844B1B781D46824B93F8F43303F00F03581E804B1B787E4C1A4692001A4403469B000344AF
:403600005B001344234403F2A1331B781B09DBB23033DCB275482A4692002A4453001A460B461B015B1A5B001344034403F2244322461A706D4B93F8F43303F00F03591E84
:403640006B4B1B781D46694B93F8F43303F00F03581E674B1B78654C1A4692001A4403469B0003445B001344234403F2A1331B7803F00F03DBB23033DCB25C482A469200AE
:403680002A4453001A460B461B015B1A5B001344034403F2254322461A70544B93F8F43303F00F03591E524B1B781D464F4B93F8F43303F00F03581E4D4B1B784B4C1A4676
:4036C00092001A4403469B0003445B001344234403F2A2331B781B09DBB23033DCB243482A4692002A4453001A460B461B015B1A5B001344034403F2264322461A703B4B38
:4037000093F8F43303F00F03591E394B1B781D46364B93F8F43303F00F03581E344B1B78324C1A4692001A4403469B0003445B001344234403F2A2331B7803F00F03DBB220
:403740003033DCB229482A4692002A4453001A460B461B015B1A5B001344034403F2274322461A70214B93F8F43303F00F03591E1F4B1B781D461D4B93F8F43303F00F037F
:40378000581E1B4B1B78194C1A4692001A4403469B0003445B001344234403F2A3331B781B09DBB23033DCB210482A4692002A4453001A460B461B015B1A5B00134403444B
:4037C00003F5856322461A70084B93F8F43303F00F03591E064B1B781D46044B93F8F43303F00F03581E024B1B7803E0B087FF1F0F8DFF1FC44C1A4692001A4403469B009D
:4038000003445B001344234403F2A3331B7803F00F03DBB23033DCB2BB482A4692002A4453001A460B461B015B1A5B001344034403F2294322461A70B34B93F8F43303F050
:403840000F03591EB14B1B781D46AF4B93F8F43303F00F03581EAD4B1B78AB4C1A4692001A4403469B0003445B001344234403F569731B781B09DBB23033DCB2A2482A462D
:4038800092002A4453001A460B461B015B1A5B001344034403F22A4322461A709A4B93F8F43303F00F03591E984B1B781D46964B93F8F43303F00F03581E944B1B78924CDC
:4038C0001A4692001A4403469B0003445B001344234403F569731B7803F00F03DBB23033DCB289482A4692002A4453001A460B461B015B1A5B001344034403F22B432246B0
:403900001A700023FB723CE07F4B93F8F43303F00F03591E7D4B1B7897F90B007A4C1A4692001A4453001A460B461B015B1A5B0013442344034403F222431B78302B25D11A
:40394000714B93F8F43303F00F03591E6F4B1B7897F90B006C4C1A4692001A4453001A460B461B015B1A5B0013442344034403F2224300221A7097F90B30DBB20133DBB259
:40398000FB7297F90B30072BBEDD00E000BF012003F060FDBB7943F05003DBB2184604F0A1FA594B93F8F1335BB203F00F035BB263F03F035BB2DBB2184604F093FAFA2024
:4039C00004F090FA042003F0C3FC002003F042FD4D4B93F8F233022B40F012810423BB721BE0BB7A043BBA7A47490A4492F8F013454A13440A4683F8D823BB7A043BBA7A33
:403A0000043241490A4492F8F0133F4A13440A4683F8D423BB7A0133BB72BB7A072BE0D9394B93F8D8331B09DBB23033DAB2364B83F8A224344B93F8D83303F00F03DBB270
:403A40003033DAB2304B83F8A3242F4B93F8D9331B09DBB23033DAB22B4B83F8A4242A4B93F8D93303F00F03DBB23033DAB2264B83F8A524244B93F8DA331B09DBB23033D3
:403A8000DAB2214B83F8A6241F4B93F8DA3303F00F03DBB23033DAB21B4B83F8A7241A4B93F8DB331B09DBB23033DAB2164B83F8A824154B93F8DB3303F00F03DBB2303366
:403AC000DAB2114B83F8A92400237B7214E097F909300D4A134493F8A234302B1AD197F90930094A1344002283F8A22497F90930DBB20133DBB27B7297F90920044B1B78FF
:403B000001339A42E3DB06E0B087FF1F0F8DFF1FCA8CFF1F00BF894B93F8D4331B09DBB23033DAB2854B83F89A24844B93F8D43303F00F03DBB23033DAB2804B83F89B2499
:403B40007E4B93F8D5331B09DBB23033DAB27B4B83F89C24794B93F8D53303F00F03DBB23033DAB2754B83F89D24744B93F8D6331B09DBB23033DAB2704B83F89E246F4BCF
:403B800093F8D63303F00F03DBB23033DAB26B4B83F89F24694B93F8D7331B09DBB23033DAB2664B83F8A024644B93F8D73303F00F03DBB23033DAB2604B83F8A124002350
:403BC0003B7214E097F908305C4A134493F89A34302B11D197F90830584A1344002283F89A2497F90830DBB20133DBB23B7297F90830072BE6DD00E000BF002003F02AFC55
:403C00004E4B93F8F233032B40F094804B4B93F8F333042B40F08E80484B062283F8CA24464B93F8F73303F00F03DAB2434B83F8CB24424B93F8CB345A1E404B93F8F63354
:403C400003F00F03DBB23033D8B23C4913465B0013445B000B4403F2AF4302461A70374B93F8CB345A1E354B93F8F6331B09DBB23033D8B2314913465B0013445B000B444D
:403C800003F2AE4302461A702C4B93F8CB345A1E2A4B93F8F53303F00F03DBB23033D8B2264913465B0013445B000B4403F2AD4302461A70214B93F8CB345A1E1F4B93F8EE
:403CC000F5331B09DBB23033D8B21C4913465B0013445B000B4403F2AC4302461A70174B93F8CB345A1E154B93F8F43303F00F03DBB23033D8B2114913465B0013445B0079
:403D00000B4403F2AB4302461A700C4B93F8CB345A1E0A4B93F8F4331B09DBB23033D8B2064913465B0013445B000B4403F2AA4302461A7000BF2437BD46F0BDB087FF1FAA
:403D400090B585B000AF0346FB71274BFF221A70254BFF2283F83521234BFF2283F86A22214BFF2283F89F23012003F073FBFB7943F05003DBB2184604F0B4F8202004F04B
:403D8000B1F8FA2004F0AEF8042003F0E1FA002003F060FB04F01EF80346BB730023FB7309E0FC7B03F0CEFF03461A460F4B1A55FB7B0133FB73FA7BBB7B9A42F1D304F04B
:403DC00051F84FF4967003F0C3FABB7B002B05D0064B1B7803F00F03DBB200E0FF2318461437BD4690BD00BFB087FF1F988CFF1F80B584B000AF0346FB710023FB7306E040
:403E0000FB7B2E4A0021D154FB7B0133FB73FB7B312BF5D9012003F01DFBFB7943F05003DAB2264B1A70254B30225A70234B01229A70224B0122DA70204B06221A710521A4
:403E40001E48FDF74DFD03461A461D4B1A801C4B1B881B0A9BB2DAB21A4B1A70184B1B88DAB2194B1A70184B1A78144B5A71154B1A78124B9A71114B0322DA710F4BFA22C1
:403E80001A720023BB7308E0BB7B0C4AD35C184604F028F8BB7B0133BB73BB7B092BF3D9042003F055FA002003F0D4FAC82003F04FFA7B7B18461037BD4680BDCC8CFF1F86
:403EC000148DFF1F848CFF1F168DFF1F90B585B000AF0346FB710023FB7306E0FB7B5A4A0021D154FB7B0133FB73FB7B312BF5D9012003F0AFFAFB7943F05003DBB2184605
:403F000003F0F0FF202003F0EDFFFA2003F0EAFF032003F01DFA002003F09CFA03F05AFF03467B720123BB7309E0BC7B03F00AFF03461A46444B1A55BB7B0133BB73BA7B50
:403F40007B7A01339A42F0DB3F4A7B7A137003F089FF7B7A032B05D9FDF740FD642003F0F7F965E0642003F0F3F9384B1B78FA799A4212D100237B730BE07B7B7A7B32490A
:403F8000895C324A13440A4683F851207B7B01337B737A7B7B7A9A42EFD32C4B93F83531FA799A4212D100233B730BE03B7B3A7B2549895C254A13440A4683F886213B7B6B
:403FC00001333B733A7B7B7A9A42EFD31F4B93F86A32FA799A4212D10023FB720BE0FB7AFA7A1949895C194A13440A4683F8BB22FB7A0133FB72FA7A7B7A9A42EFD3134B4C
:4040000093F89F33FA799A4212D10023BB720BE0BB7ABA7A0C49895C0C4A13440A4683F8F023BB7A0133BB72BA7A7B7A9A42EFD37B7A002B02D0044B5B7800E000231846B6
:404040001437BD4690BD00BF988CFF1FB087FF1F90B585B000AF03463960FB71012003F0F9F9FB7943F05003DAB2394B1A70384B30225A70364B05229A70354B0322DA70FE
:404080003B681A78324B1A713B685A78304B5A713B689A782E4B9A7107212D48FDF720FC03461A462B4B1A802A4B1B881B0A9BB2DAB2294B1A70274B1B88DAB2274B1A70B8
:4040C000264B1A78224BDA71234B1A78204B1A721F4B03225A721E4BFA229A720023FB7308E0FB7B1A4AD35C184603F0FBFEFB7B0133FB73FB7B0B2BF3D9042003F028F98E
:40410000002003F0A7F903F065FE03467B730023BB7309E0BC7B03F015FE03461A46104B1A55BB7B0133BB73BA7B7B7B9A42F1D303F098FE642003F00BF97B7B002B02D0FB
:40414000074B5B7800E0002318461437BD4690BDCC8CFF1F148DFF1F848CFF1F168DFF1F988CFF1F90B585B000AF0346FB710B46BB7113467B71BB791B015AB297F90530F7
:4041800013435BB27B73012003F064F9FB7943F05003DAB2314B1A70304B30225A702F4B65229A702D4B0122DA702C4A7B7B137105212A48FDF794FB03461A46284B1A8069
:4041C000274B1B881B0A9BB2DAB2264B1A70244B1B88DAB2244B1A70234B1A781F4B5A71204B1A781D4B9A711C4B0322DA711B4BFA221A720023FB7308E0FB7B174AD35C11
:40420000184603F06FFEFB7B0133FB73FB7B092BF3D9042003F09CF8002003F01BF903F0D9FD03463B730023BB7309E0BC7B03F089FD03461A460D4B1A55BB7B0133BB73AE
:40424000BA7B3B7B9A42F1D303F00CFE642003F07FF800BF1437BD4690BD00BFCC8CFF1F148DFF1F848CFF1F168DFF1F988CFF1F90B5A5B000AF002387F88F301BE0002381
:4042800087F88E300BE097F88E30C94AD35C184603F012FA97F88E30013387F88E3097F88E30052BEFD9052003F052F803F0BCF9034687F88F3097F88F30002BDFD097F89F
:4042C0008F300C2B54D9002387F88D300CE097F88D4003F061F903461A46B64B1A5597F88D30013387F88D3097F88D2097F88F309A42ECD3002387F88F3039E0002387F891
:404300008C300BE097F88C30A94AD35C184603F0D3F997F88C30013387F88C3097F88C30052BEFD9042003F013F803F07DF9034687F88F3097F88F300C2B19D9002387F824
:404340008B300CE097F88B4003F026F903461A46984B1A5597F88B30013387F88B3097F88B2097F88F309A42ECD3002387F88F30904B1B7A002BC1D08F4B1B780133DAB29A
:404380008D4B1A708C4B1B788C4A82FB03121213DB17D31ADBB23033DAB2894B5A71864B1B781A46854B83FB02131913D317CB1A42F2107101FB03F3D31A824A82FB031296
:4043C0009211DB17D31ADBB23033DAB27C4B1A71794B1B781A46794B83FB02131913D317CB1A42F2107101FB03F3D31A754A82FB03129111DA178A1A4FF47A7101FB02F22A
:404400009A1A714B83FB02135911D317CB1ADBB23033DAB26A4BDA70674B1B78674A82FB03121113DA178A1A42F2107101FB02F29A1A644B83FB02139911D317CB1A4FF42D
:404440007A7101FB03F3D31A5F4A82FB03125111DA178A1A642101FB02F29A1A5B4B83FB02139910D317CB1ADBB23033DAB2544B9A70514B1B78514A82FB03121113DA17D0
:404480008A1A42F2107101FB02F29A1A4D4B83FB02139911D317CB1A4FF47A7101FB03F3D31A494A82FB03125111DA178A1A642101FB02F29A1A454B83FB02139910D31753
:4044C000C91A0B469B000B445B00D11ACBB23033DAB23B4B5A70072387F88A3010E097F88A30063B364AD35C97F88A2092B21146184603F009FA97F88A30013387F88A3032
:4045000097F88A300C2BEAD9314B1B78184603F0F9FA002387F889300BE097F889302D4AD35C184603F0EEFA97F88930013387F8893097F889301F2BEFD9254B1B78184609
:4045400003F0E0FA002387F888300BE097F88830214AD35C184603F0D5FA97F88830013387F8883097F888301F2BEFD9184B1B78184603F0C7FA002387F887300BE097F842
:404580008730164AD35C184603F0BCFA97F88730013387F8873097F887301F2BEFD90C4B1B78184603F0AEFA002387F8863023E0D486FF1F288DFF1F0E8DFF1FAD8BDB68E9
:4045C000088DFF1FD34D62101F85EB5167666666CC80FF1FF480FF1F1481FF1F3481FF1F97F88630C04AD35C184603F08BFA97F88630013387F8863097F886301F2BEFD922
:40460000BA4B1B78184603F07DFA002387F885300BE097F88530B64AD35C184603F072FA97F88530013387F8853097F885301F2BEFD9AE4B1B78184603F064FA002387F8C9
:4046400084300BE097F88430AA4AD35C184603F059FA97F88430013387F8843097F884301F2BEFD9A14B1B78184603F04BFA002387F883300BE097F883309F4AD35C184685
:4046800003F040FA97F88330013387F8833097F883301F2BEFD9954B1B78184603F032FA002387F882300BE097F88230934AD35C184603F027FA97F88230013387F882303D
:4046C00097F882300C2BEFD98D4B1B7A1B09DBB23033DBB2184603F015FA894B1B7A03F00F03DBB23033DBB2184603F00BFA2F2003F008FA824BDB791B09DBB23033DBB2C5
:40470000184603F0FFF97E4BDB7903F00F03DBB23033DBB2184603F0F5F92F2003F0F2F9774B9B791B09DBB23033DBB2184603F0E9F9734B9B7903F00F03DBB23033DBB227
:40474000184603F0DFF9694B1B78184603F0DAF9002387F881300BE097F88130694AD35C184603F0CFF997F88130013387F8813097F881300C2BEFD9614B9B7A1B09DBB2D7
:404780003033DBB2184603F0BDF95D4B9B7A03F00F03DBB23033DBB2184603F0B3F93A2003F0B0F9564BDB7A1B09DBB23033DBB2184603F0A7F9524BDB7A03F00F03DBB2C4
:4047C0003033DBB2184603F09DF93A2003F09AF94B4B1B7B1B09DBB23033DBB2184603F091F9474B1B7B03F00F03DBB23033DBB2184603F087F93D4B1B78184603F082F9F8
:40480000002387F880300BE097F880303A4AD35C184603F077F997F88030013387F8803097F880301F2BEFD9304B1B78184603F069F9002387F87F300BE097F87F30324ADE
:40484000D35C184603F05EF997F87F30013387F87F3097F87F300C2BEFD9052387F87E300BE097F87E30294AD35C184603F04AF997F87E30013B87F87E3097F87E30002BC3
:40488000EFD11A4B1B78184603F03CF9174B1B78184603F037F9002387F87D300BE097F87D301B4AD35C184603F02CF997F87D30013387F87D3097F87D300C2BEFD9154B8D
:4048C0001B783133DBB2184603F01CF9074B1B78184603F017F9054B1B78184603F012F9002387F87C3023E05481FF1FCC80FF1F7481FF1F9481FF1FB486FF1F8C84FF1FCF
:40490000288DFF1F9C84FF1F3C85FF1F088DFF1FDC84FF1FB087FF1F97F87C30C94AD35C184603F0EFF897F87C30013387F87C3097F87C300F2BEFD9C34B1B78184603F083
:40494000E1F8002387F87B300BE097F87B30BF4AD35C184603F0D6F897F87B30013387F87B3097F87B300C2BEFD9B74B1B78184603F0C8F8002387F87A300BE097F87A30AE
:40498000B34AD35C184603F0BDF897F87A30013387F87A3097F87A30082BEFD9002387F8793018E097F87930C3F10A03A94A1278934202D12E2003F0A5F897F87930A64A94
:4049C000134493F88330184603F09CF897F87930013387F8793097F87930092BE2D99A4B1B78184603F08EF8002387F878300BE097F87830994AD35C184603F083F897F85A
:404A00007830013387F8783097F878300F2BEFD98D4B1B78184603F075F8002387F8773015E097F8774097F877309BB224339BB2184602F0F3FF03461A4607F19003234489
:404A400003F8802C97F87730013387F8773097F87730092BE5D9002387F8763019E097F87630C3F10A037B4A1278934202D12E2003F048F897F8763007F19002134413F807
:404A8000803C184603F03EF897F87630013387F8763097F87630092BE1D997F8433087F875302DE097F8752097F84330D31A97F8752069490A4492F8832007F190010B4493
:404AC00003F8742C97F8752097F84330D31A97F8752007F190010A4412F8802C07F190010B4403F8682C97F8753007F190021344002203F88C2C97F87530013387F875307A
:404B000097F87530092BCDD93A4607F128035449184603F097FEF8633A4607F11C035049184603F08FFEB863BA6BFB6BD31A7B633B1D7A6B4A49184603F060FE424B1B78C8
:404B4000184602F0DFFF002387F874300BE097F87430444AD35C184602F0D4FF97F87430013387F8743097F87430112BEFD9364B1B78184602F0C6FF002387F8733019E09B
:404B800097F87330C3F10A03324A1278934202D12E2002F0B7FF97F8733007F19002134413F88C3C184602F0ADFF97F87330013387F8733097F87330092BE1D9002387F832
:404BC000723013E097F87230234A134493F8832097F872309BB224339BB21946104602F093FE97F87230013387F8723097F87230092BE7D9144B1B78184602F083FF124BD7
:404C00001B78184602F07EFF002387F871300BE097F871300B4AD35C184602F073FF97F87130013387F8713097F871300F2BEFD9054B1B78184602F065FF002387F87030E1
:404C40001EE000BF8086FF1FCC80FF1FEC84FF1F7482FF1FCA8CFF1FB087FF1F9086FF1FAC990000A086FF1F97F87030CD4AD35C184602F047FF97F87030013387F8703034
:404C800097F870300C2BEFD9C74B1B78184602F039FF002387F86F300BE097F86F30C34AD35C184602F02EFF97F86F30013387F86F3097F86F30082BEFD9002387F86E309D
:404CC00018E097F86E30C3F10A03B94A1278934202D12E2002F016FF97F86E30B54A134493F8A130184602F00DFF97F86E30013387F86E3097F86E30092BE2D9AA4B1B78E7
:404D0000184602F0FFFE002387F86D300BE097F86D30A94AD35C184602F0F4FE97F86D30013387F86D3097F86D300F2BEFD99E4B1B78184602F0E6FE002387F86C3015E0DF
:404D400097F86C4097F86C309BB238339BB2184602F064FE03461A4607F19003234403F8802C97F86C30013387F86C3097F86C30092BE5D9002387F86B3019E097F86B30DD
:404D8000C3F10A038A4A1278934202D12E2002F0B9FE97F86B3007F19002134413F8803C184602F0AFFE97F86B30013387F86B3097F86B30092BE1D997F8433087F86A30BB
:404DC0002DE097F86A2097F84330D31A97F86A2078490A4492F8A12007F190010B4403F8742C97F86A2097F84330D31A97F86A2007F190010A4412F8802C07F190010B4432
:404E000003F8682C97F86A3007F190021344002203F88C2C97F86A30013387F86A3097F86A30092BCDD93A4607F128036349184603F008FDF8633A4607F11C035F491846EE
:404E400003F000FDB863BA6BFB6BD31A7B633B1D7A6B5A49184603F0D1FC534B1B78184602F050FE002387F869300BE097F86930534AD35C184602F045FE97F869300133FB
:404E800087F8693097F86930112BEFD9464B1B78184602F037FE002387F8683019E097F86830C3F10A03424A1278934202D12E2002F028FE97F8683007F19002134413F8B3
:404EC0008C3C184602F01EFE97F86830013387F8683097F86830092BE1D9002387F8673013E097F86730334A134493F8A12097F867309BB238339BB21946104602F004FDB2
:404F000097F86730013387F8673097F86730092BE7D9254B1B78184602F0F4FD002387F866300BE097F86630264AD35C184602F0E9FD97F86630013387F8663097F86630F3
:404F40001F2BEFD9184B1B78184602F0DBFD002387F865300BE097F865301B4AD35C184602F0D0FD97F86530013387F8653097F865300C2BEFD90F4B93F835313133DBB23F
:404F8000184602F0BFFD084B1B78184602F0BAFD054B1B78184602F0B5FD002387F8643020E000BFEC84FF1FCC80FF1F8C82FF1FCA8CFF1FB087FF1F9086FF1FAC990000B8
:404FC000A086FF1FB486FF1FDC84FF1F97F86430D34AD35C184602F095FD97F86430013387F8643097F864300F2BEFD9CD4B1B78184602F087FD002387F863300BE097F889
:405000006330C94AD35C184602F07CFD97F86330013387F8633097F863300C2BEFD9C14B1B78184602F06EFD002387F862300BE097F86230BD4AD35C184602F063FD97F83A
:405040006230013387F8623097F86230092BEFD9002387F8613018E097F86130C3F10A03B34A1278934202D12E2002F04BFD97F86130B04A134493F8B831184602F042FD05
:4050800097F86130013387F8613097F86130092BE2D9A44B1B78184602F034FD002387F860300BE097F86030A34AD35C184602F029FD97F86030013387F8603097F860302B
:4050C0000F2BEFD9974B1B78184602F01BFD002387F85F3015E097F85F4097F85F309BB22E339BB2184602F099FC03461A4607F19003234403F8802C97F85F30013387F86C
:405100005F3097F85F30092BE5D9002387F85E3019E097F85E30C3F10A03854A1278934202D12E2002F0EEFC97F85E3007F19002134413F8803C184602F0E4FC97F85E308C
:40514000013387F85E3097F85E30092BE1D9754B1B78184602F0D6FC97F8433087F85D302DE097F85D2097F84330D31A97F85D2070490A4492F8B82107F190010B4403F80F
:40518000742C97F85D2097F84330D31A97F85D2007F190010A4412F8802C07F190010B4403F8682C97F85D3007F190021344002203F88C2C97F85D30013387F85D3097F897
:4051C0005D30092BCDD93A4607F128035B49184603F038FBF8633A4607F11C035749184603F030FBB863BA6BFB6BD31A7B633B1D7A6B5249184603F001FB002387F85C30AB
:405200000BE097F85C304E4AD35C184602F07AFC97F85C30013387F85C3097F85C30112BEFD9404B1B78184602F06CFC002387F85B3019E097F85B30C3F10A033C4A12787B
:40524000934202D12E2002F05DFC97F85B3007F19002134413F88C3C184602F053FC97F85B30013387F85B3097F85B30092BE1D9002387F85A3013E097F85A302D4A13441A
:4052800093F8B82197F85A309BB22E339BB21946104602F039FB97F85A30013387F85A3097F85A30092BE7D91E4B1B78184602F029FC1C4B1B78184602F024FC002387F8BB
:4052C00059300BE097F85930174AD35C184602F019FC97F85930013387F8593097F859300C2BEFD90F4B1B78184602F00BFC002387F858300BE097F85830124AD35C184669
:4053000002F000FC97F85830013387F8583097F85830082BEFD9002387F857302DE000BF8086FF1FCC80FF1FEC84FF1F8082FF1FCA8CFF1FB087FF1F9086FF1FAC990000A8
:40534000A086FF1F8C82FF1F97F85730C3F10A03C94A1278934202D12E2002F0D3FB97F85730C64A134493F8D631184602F0CAFB97F85730013387F8573097F85730092BD5
:40538000E2D9BF4B1B78184602F0BCFB002387F856300BE097F85630BA4AD35C184602F0B1FB97F85630013387F8563097F856300F2BEFD9B24B1B78184602F0A3FB002331
:4053C00087F8553015E097F8554097F855309BB242339BB2184602F021FB03461A4607F19003234403F8802C97F85530013387F8553097F85530092BE5D9002387F8543047
:4054000019E097F85430C3F10A039B4A1278934202D12E2002F076FB97F8543007F19002134413F8803C184602F06CFB97F85430013387F8543097F85430092BE1D9904B3F
:405440001B78184602F05EFB97F8433087F853302DE097F8532097F84330D31A97F8532086490A4492F8D62107F190010B4403F8742C97F8532097F84330D31A97F85320E8
:4054800007F190010A4412F8802C07F190010B4403F8682C97F8533007F190021344002203F88C2C97F85330013387F8533097F85330092BCDD93A4607F128037249184640
:4054C00003F0C0F9F8633A4607F11C036E49184603F0B8F9B863BA6BFB6BD31A7B633B1D7A6B6949184603F089F9002387F852300BE097F85230654AD35C184602F002FBD7
:4055000097F85230013387F8523097F85230112BEFD95B4B1B78184602F0F4FA002387F8513019E097F85130C3F10A03524A1278934202D12E2002F0E5FA97F8513007F1B7
:405540009002134413F88C3C184602F0DBFA97F85130013387F8513097F85130092BE1D9002387F8503013E097F85030434A134493F8D62197F850309BB242339BB2194601
:40558000104602F0C1F997F85030013387F8503097F85030092BE7D9394B1B78184602F0B1FA3B4B1B78013B022B40F31981002387F84F300BE097F84F30364AD35C18461C
:4055C00002F0A0FA97F84F30013387F84F3097F84F301F2BEFD92A4B1B78184602F092FA002387F84E300BE097F84E302A4AD35C184602F087FA97F84E30013387F84E3011
:4056000097F84E300C2BEFD91C4B93F86A323133DBB2184602F076FA194B1B78184602F071FA002387F84D3018E097F84D30C3F10A03114A1278934202D12E2002F062FA60
:4056400097F84D300D4A134493F8ED32184602F059FA97F84D30013387F84D3097F84D30092BE2D9064B1B78184602F04BFA002387F84C301EE000BFCA8CFF1FB087FF1FCF
:40568000CC80FF1F9086FF1FAC990000A086FF1F128DFF1FB486FF1FDC84FF1F97F84C30814AD35C184602F02DFA97F84C30013387F84C3097F84C300F2BEFD97B4B1B7814
:4056C000184602F01FFA002387F84B300BE097F84B30774AD35C184602F014FA97F84B30013387F84B3097F84B301F2BEFD96F4B1B78184602F006FA002387F84A300BE0E9
:4057000097F84A306B4AD35C184602F0FBF997F84A30013387F84A3097F84A300C2BEFD9654B93F89F333133DBB2184602F0EAF95E4B1B78184602F0E5F9002387F8493044
:4057400018E097F84930C3F10A035C4A1278934202D12E2002F0D6F997F84930564A134493F82234184602F0CDF997F84930013387F8493097F84930092BE2D94B4B1B7837
:40578000184602F0BFF9002387F848300BE097F84830454AD35C184602F0B4F997F84830013387F8483097F848300F2BEFD9002387F847300BE097F847303D4AD35C1846C1
:4057C00002F0A0F997F84730013387F8473097F84730172BEFD9354B1B78184602F092F9002387F846300BE097F84630304AD35C184602F087F997F84630013387F8463041
:4058000097F846301F2BEFD9284B1B78184602F079F9002387F845300BE097F84530284AD35C184602F06EF997F84530013387F8453097F845301F2BEFD91C4B1B78184691
:4058400002F060F9002387F844300BE097F844301C4AD35C184602F055F997F84430013387F8443097F844301F2BEFD90F4B1B78184602F047F90D4B1B78184602F042F974
:405880000A4B1B78184602F03DF9084B1B78184602F038F9054B1B78184602F033F900BF9437BD4690BD00BF9086FF1FCC80FF1FB486FF1FDC84FF1FB087FF1FCA8CFF1FDE
:4058C000B481FF1FD481FF1F90B595B000AF0346FB7100237B72CA4B1B78CA4A82FB03121213DB17D31ADBB23033DAB2C64B5A71C34B1B781A46C34B83FB02131913D31782
:40590000CB1A42F2107101FB03F3D31ABF4A82FB03129211DB17D31ADBB23033DAB2BA4B1A71B74B1B781A46B64B83FB02131913D317CB1A42F2107101FB03F3D31AB34AB0
:4059400082FB03129111DA178A1A4FF47A7101FB02F29A1AAE4B83FB02135911D317CB1ADBB23033DAB2A84BDA70A54B1B78A54A82FB03121113DA178A1A42F2107101FBA0
:4059800002F29A1AA14B83FB02139911D317CB1A4FF47A7101FB03F3D31A9D4A82FB03125111DA178A1A642101FB02F29A1A994B83FB02139910D317CB1ADBB23033DAB236
:4059C000914B9A708E4B1B788E4A82FB03121113DA178A1A42F2107101FB02F29A1A8B4B83FB02139911D317CB1A4FF47A7101FB03F3D31A864A82FB03125111DA178A1A91
:405A0000642101FB02F29A1A824B83FB02139910D317C91A0B469B000B445B00D11ACBB23033DAB2784B5A70012387F84F300FE097F84F30744AD35C97F84F2092B2114648
:405A4000184601F061FF97F84F30013387F84F3097F84F30052BEBD9002387F84E300BE097F84E306C4AD35C184601F025FE97F84E30013387F84E3097F84E30052BEFD983
:405A8000042001F065FC01F0CFFD03467B7297F909300C2BE0DD97F909300C2B18DD002387F84D300CE097F84D4001F075FD03461A465A4B1A5597F84D30013387F84D3048
:405AC00097F84D2097F909309A42ECDB00237B72002387F84C300BE097F84C30504AD35C184602F00FF897F84C30013387F84C3097F84C301F2BEFD94A4B1B78184602F02B
:405B000001F8002387F84B300BE097F84B30464AD35C184601F0F6FF97F84B30013387F84B3097F84B300C2BEFD9404B1B78FA799A425BD13D4B93F83431012B28D10023BD
:405B400087F84A300BE097F84A30394AD35C184601F0D8FF97F84A30013387F84A3097F84A30032BEFD9052387F849300BE097F84930304AD35C184601F0C4FF97F8493055
:405B8000013B87F8493097F84930002BEFD12DE0002387F848300BE097F84830244AD35C184601F0AFFF97F84830013387F8483097F84830032BEFD9052387F847300BE0D3
:405BC00097F84730104AD35C184601F09BFF97F84730013B87F8473097F84730002BEFD1074B1B780133DAB2054B1A700D4B1B78184601F087FF002387F8463028E000BFE6
:405C0000138DFF1FAD8BDB68A887FF1FD34D62101F85EB5167666666D486FF1F288DFF1FD480FF1FCC80FF1F4C85FF1FB087FF1F7884FF1F008DFF1F97F84630BA4AD35C6B
:405C4000184601F05FFF97F84630013387F8463097F846301F2BEFD9B44B1B78184601F051FF002387F845300BE097F84530B04AD35C184601F046FF97F84530013387F887
:405C8000453097F845301F2BEFD9A84B1B78184601F038FF002387F844300BE097F84430A44AD35C184601F02DFF97F84430013387F8443097F844301F2BEFD99B4B1B78F9
:405CC000184601F01FFF002387F843300BE097F84330994AD35C184601F014FF97F84330013387F8433097F843301F2BEFD98F4B1B78184601F006FF002387F842300BE0C5
:405D000097F842308D4AD35C184601F0FBFE97F84230013387F8423097F842301F2BEFD9824B1B78184601F0EDFE002387F841300BE097F84130824AD35C184601F0E2FE19
:405D400097F84130013387F8413097F841301F2BEFD9764B1B78184601F0D4FE002387F840300BE097F84030764AD35C184601F0C9FE97F84030013387F8403097F8403056
:405D80001F2BEFD9694B1B78184601F0BBFE002387F83F300BE097F83F30634AD35C184601F0B0FE97F83F30013387F83F3097F83F301F2BEFD95D4B1B78184601F0A2FE55
:405DC000002387F83E300BE097F83E305E4AD35C184601F097FE97F83E30013387F83E3097F83E300C2BEFD9584B1B7A1B09DBB23033DAB2564B1A70544B1B7A03F00F039A
:405E0000DBB23033DAB2524B5A70504BDB791B09DBB23033DAB24E4B9A704C4BDB7903F00F03DBB23033DAB2494BDA70474B9B791B09DBB23033DAB2454B1A71434B9B7900
:405E400003F00F03DBB23033DAB2414B5A713F4B9B7A1B09DBB23033DAB23E4B1A703B4B9B7A03F00F03DBB23033DAB2394B5A70364BDB7A1B09DBB23033DAB2354B9A708E
:405E8000324BDB7A03F00F03DBB23033DAB2314BDA702E4B1B7B1B09DBB23033DAB22D4B1A712A4B1B7B03F00F03DBB23033DAB2284B5A71284B1B78FA799A4240F0F6844E
:405EC000254B93F83431012B40F0C380204B1B78184601F017FE1E4B5B78184601F012FE2F2001F00FFE1A4B9B78184601F00AFE174BDB78184601F005FE2F2001F002FE43
:405F0000134B1B79184601F0FDFD114B5B79184601F0F8FD054B1B78184601F0F3FD002387F83D3026E000BFB486FF1FCC80FF1FF480FF1F1481FF1F3481FF1F5481FF1FEF
:405F40007481FF1F9481FF1F8C84FF1F288DFF1F188DFF1F208DFF1FB087FF1F97F83D30BB4AD35C184601F0CDFD97F83D30013387F83D3097F83D300C2BEFD9B54B1B7804
:405F8000184601F0BFFDB34B5B78184601F0BAFD3A2001F0B7FDAF4B9B78184601F0B2FDAC4BDB78184601F0ADFD3A2001F0AAFDA84B1B79184601F0A5FDA64B5B79184625
:405FC00001F0A0FDA44B1B78184601F09BFD002387F83C300BE097F83C30A04AD35C184601F090FD97F83C30013387F83C3097F83C301F2BEFD9002387F83B300BE097F813
:406000003B30974AD35C184601F07CFD97F83B30013387F83B3097F83B301F2BEFD98E4B1B78184601F06EFD002387F83A300BE097F83A30894AD35C184601F063FD97F8A3
:406040003A30013387F83A3097F83A301F2BEFD9DCE0844B1B7A1B09DBB23033DBB2184601F050FD7F4B1B7A03F00F03DBB23033DBB2184601F046FD2F2001F043FD794B7A
:40608000DB791B09DBB23033DBB2184601F03AFD744BDB7903F00F03DBB23033DBB2184601F030FD2F2001F02DFD6E4B9B791B09DBB23033DBB2184601F024FD694B9B7944
:4060C00003F00F03DBB23033DBB2184601F01AFD614B1B78184601F015FD002387F839300BE097F839305A4AD35C184601F00AFD97F83930013387F8393097F839300C2BBE
:40610000EFD9584B9B7A1B09DBB23033DBB2184601F0F8FC534B9B7A03F00F03DBB23033DBB2184601F0EEFC3A2001F0EBFC4D4BDB7A1B09DBB23033DBB2184601F0E2FCA0
:40614000484BDB7A03F00F03DBB23033DBB2184601F0D8FC3A2001F0D5FC424B1B7B1B09DBB23033DBB2184601F0CCFC3D4B1B7B03F00F03DBB23033DBB2184601F0C2FCEE
:40618000354B1B78184601F0BDFC002387F838300BE097F83830314AD35C184601F0B2FC97F83830013387F8383097F838301F2BEFD9002387F837300BE097F837302A4AB8
:4061C000D35C184601F09EFC97F83730013387F8373097F837301F2BEFD91F4B1B78184601F090FC002387F836300BE097F836301A4AD35C184601F085FC97F83630013323
:4062000087F8363097F836301F2BEFD9124B1B78184601F077FC002387F835300BE097F83530124AD35C184601F06CFC97F83530013387F8353097F835300C2BEFD9064B48
:406240001B78184601F05EFC002387F834301BE09C84FF1F208DFF1FCC80FF1FB486FF1F3482FF1F288DFF1F5482FF1F7C84FF1F97F83430CF4AD35C184601F043FC97F805
:406280003430013387F8343097F834300C2BEFD9C94B1B783133DBB2184601F033FCC74B1B78184601F02EFC002387F833300BE097F83330C24AD35C184601F023FC97F823
:4062C0003330013387F8333097F833301F2BEFD9BA4B1B78184601F015FC002387F832300BE097F83230B74AD35C184601F00AFC97F83230013387F8323097F832300C2B96
:40630000EFD9002387F831300DE097F83130AA4A134493F82331184601F0F4FB97F83130013387F8313097F83130072BEDD9A34B1B78184601F0E6FB002387F830300BE0C3
:4063400097F83030A04AD35C184601F0DBFB97F83030013387F8303097F830300C2BEFD9002387F82F300DE097F82F30924A134493F82D31184601F0C5FB97F82F300133D7
:4063800087F82F3097F82F30052BEDD98B4B1B78184601F0B7FB002387F82E300BE097F82E30874AD35C184601F0ACFB97F82E30013387F82E3097F82E301F2BEFD97F4B1C
:4063C0001B78184601F09EFB002387F82D300BE097F82D307D4AD35C184601F093FB97F82D30013387F82D3097F82D301F2BEFD9724B1B78184601F085FB002387F82C3062
:406400000BE097F82C30724AD35C184601F07AFB97F82C30013387F82C3097F82C301F2BEFD9664B1B78184601F06CFB002387F82B300BE097F82B30664AD35C184601F0E6
:4064400061FB97F82B30013387F82B3097F82B301F2BEFD9594B1B78184601F053FB002387F82A300BE097F82A30554AD35C184601F048FB97F82A30013387F82A3097F843
:406480002A301F2BEFD94D4B1B78184601F03AFB494B93F82C31012B13D1002387F829300BE097F829304C4AD35C184601F02AFB97F82930013387F8293097F82930082B1F
:4064C000EFD93D4B93F82C31022B13D1002387F828300BE097F82830404AD35C184601F011FB97F82830013387F8283097F82830082BEFD9304B93F82C31032B13D1002307
:4065000087F827300BE097F82730354AD35C184601F0F8FA97F82730013387F8273097F82730082BEFD9254B1B78184601F0EAFA002387F8263018E097F82630C3F108032A
:40654000284A1278934202D12E2001F0DBFA97F82630194A134493F80331184601F0D2FA97F82630013387F8263097F82630072BE2D9202001F0C6FA1B4B1B78184601F0F1
:40658000C1FA202001F0BEFA202001F0BBFA202001F0B8FA202001F0B5FA202001F0B2FA124B1B78184601F0ADFA012387F8253036E000BFDC84FF1FB087FF1FCC80FF1FC1
:4065C000B486FF1F9882FF1FA882FF1FB882FF1FD882FF1FF882FF1F7482FF1F8082FF1F8C82FF1FCA8CFF1FD080FF1F7C86FF1FBC4B93F82C315A1E97F82510B948134674
:406600005B0013445B0003440B4403F20B131B78184601F077FA97F82530013387F8253097F82530052BE3D9202001F06BFA202001F068FA202001F065FA202001F062FA4F
:40664000A94B1B78184601F05DFA002387F824300DE097F82430A34A134493F8FB30184601F050FA97F82430013387F8243097F82430072BEDD99B4B012283F834219B4B10
:406680001B78184601F03EFA002387F823300BE097F82330964AD35C184601F033FA97F82330013387F8233097F823301F2BEFD98E4B1B78184601F025FA002387F82230C9
:4066C0000BE097F822308B4AD35C184601F01AFA97F82230013387F8223097F822301F2BEFD9824B1B78184601F00CFA002387F821300BE097F821307F4AD35C184601F0D4
:4067000001FA97F82130013387F8213097F821301F2BEFD9754B1B78184601F0F3F9002387F820300BE097F82030744AD35C184601F0E8F997F82030013387F8203097F8B0
:4067400020300C2BEFD9202001F0DCF9664B1B78184601F0D7F9202001F0D4F90023FB770AE0FB7F5F4A134493F8FB30184601F0C9F9FB7F0133FB77FB7F072BF1D92020CD
:4067800001F0C0F9202001F0BDF9202001F0BAF9242001F0B7F9302001F0B4F9534B1B78184601F0AFF90023BB7708E0BB7F544AD35C184601F0A6F9BB7F0133BB77BB7F5D
:4067C0000C2BF3D9484B1B78184601F09BF9202001F098F900237B770AE07B7F414A134493F8FB30184601F08DF97B7F01337B777B7F072BF1D93D4B1B78184601F082F96A
:4068000000233B7708E03B7F3E4AD35C184601F079F93B7F01333B773B7F0C2BF3D9242001F070F9302001F06DF9304B1B78184601F068F90023FB7608E0FB7E324AD35C69
:40684000184601F05FF9FB7E0133FB76FB7E0C2BF3D9254B1B78184601F054F9202001F051F90023BB760AE0BB7E1E4A134493F8FB30184601F046F9BB7E0133BB76BB7E6C
:40688000072BF1D9194B1B78184601F03BF900237B7608E07B7E164AD35C184601F032F97B7E01337B767B7E1F2BF3D90F4B1B78184601F027F900233B7608E03B7E134A09
:4068C000D35C184601F01EF93B7E01333B763B7E1F2BF3D9054B1B78184601F013F90023FB751EE0B087FF1F7C86FF1FCC80FF1FB486FF1F1883FF1F3883FF1F5883FF1F05
:406900006883FF1F7883FF1F8883FF1F9883FF1FFB7D934AD35C184601F0F4F8FB7D0133FB75FB7D1F2BF3D98E4B1B78184601F0E9F80023BB7508E0BB7D8B4AD35C1846F9
:4069400001F0E0F8BB7D0133BB75BB7D1F2BF3D9844B1B78184601F0D5F800237B7508E07B7D824AD35C184601F0CCF87B7D01337B757B7D1F2BF3D97A4B1B78184601F014
:40698000C1F800233B7508E03B7D794AD35C184601F0B8F83B7D01333B753B7D1F2BF3D9704B1B78184601F0ADF80023FB7408E0FB7C704AD35C184601F0A4F8FB7C01339E
:4069C000FB74FB7C1F2BF3D9664B1B78184601F099F80023BB7408E0BB7C674AD35C184601F090F8BB7C0133BB74BB7C1F2BF3D95C4B1B78184601F085F800237B7408E068
:406A00007B7C5E4AD35C184601F07CF87B7C01337B747B7C1F2BF3D900233B7408E03B7C564AD35C184601F06DF83B7C01333B743B7C1F2BF3D94B4B1B78184601F062F871
:406A40000023FB7308E0FB7B4D4AD35C184601F059F8FB7B0133FB73FB7B1F2BF3D9414B1B78184601F04EF83E4B1B78184601F049F80023BB7308E0BB7B424AD35C184635
:406A800001F040F8BB7B0133BB73BB7B1F2BF3D9344B1B78184601F035F800237B7308E07B7B364AD35C184601F02CF87B7B01337B737B7B1F2BF3D92A4B1B78184601F0AF
:406AC00021F800233B7308E03B7B2F4AD35C184601F018F83B7B01333B733B7B1F2BF3D9204B1B78184601F00DF80023FB7208E0FB7A264AD35C184601F004F8FB7A0133D1
:406B0000FB72FB7A1F2BF3D9164B1B78184600F0F9FF144B1B78184600F0F4FF114B1B78184600F0EFFF0F4B1B78184600F0EAFF0C4B1B78184600F0E5FF0023BB7208E04D
:406B4000BB7ABA7A1249895C124AD154BB7A0133BB72BB7A052BF3D900BF5437BD4690BDB883FF1FCC80FF1FD883FF1FF883FF1F1884FF1F3884FF1F5884FF1FB486FF1FCF
:406B8000F481FF1F1482FF1FB481FF1FD481FF1FA887FF1F008DFF1F80B584B000AFF860B9607A607A68B968F86801F01BFE00BF1037BD4680BD00BF80B483B000AF03469C
:406BC000FB71FEE780B483B000AF434B00221A60424B10221A70424B01221A70414B00221A70414B4FF438721A80404B01221A703F4B03221A703F4B3F4A92B21A803F4B4A
:406C000047F608021A803E4B00221A803D4B4FF480421A803C4B09221A703C4B0A221A703B4B0F221A703B4B18221A70BFF35F8F394B01221A70BFF35F8F00BF2A4B1B88BB
:406C40009BB2002BFAD100237B600DE07B68DA00324B13441946324A7B6852F823309BB20B807B6801337B607B685B2BEED9BFF35F8F294B01221A70BFF35F8F00BF294B6C
:406C80001B78DBB203F00103002BF8D100BF264B1B78DBB203F00103002BF8D100BF234B1B78DBB203F00103002BF8D100BF204B1B78DBB203F00103002BF8D100BF1D4BFA
:406CC0001B78DBB203F00103002BF8D100BF0C37BD4680BC704700BF7887FF1F0076004010700040197000400078004002780040037800400478004050000000067800407F
:406D0000047600400676004029700040397000406970004079700040147000400C780040B0990000187000402870004038700040687000407870004080B582B000AF454B9A
:406D400019221A80444B18221A70444B19221A80434B18221A70434B4FF49C721A80424B18221A70414B4FF49C721A80404B18221A70404B4FF49C721A803F4B18221A70E1
:406D80003E4B40F209221A803D4B18221A703D4B47F22F521A803C4B19221A703B4B02221A704FF0402308221A70394B03221A70384B394A1278D2B21A70384B08221A803D
:406DC000374B41F251221A800023FB7019237B6014E0FB785B00DAB2324B1B78DBB203F00103DBB21343DBB203F00303FB704FF4F07001F0F9F97B68013B7B607B68002BE8
:406E000002D0FB78032BE4D17B68002B02D10320FFF7D2FE244B4FF480721A80224B07221A70224B00221A70214B48221A701E4B00221A701F4B02221A701F4A1E4B1B78F7
:406E4000DBB243F07F03DBB2137000BF0837BD4680BD00BF80400040824000408440004086400040884000408A4000408C4000408E40004090400040924000409440004055
:406E800096400040984000409A4000400043004000420040A14600400801004922420040204200402542004004400040064000400840004001400040A243004080B483B080
:406EC00000AF0B4B1B78FB710A4AFB7903F00703DBB21370084AFB791B09DBB21370074B44221A7000BF0C37BD4680BC704700BFCF0100496E5800406F5800407658004092
:406F000080B500AF72B6324A314B1B78DBB243F00403DBB21370FFF755FE2E4A2D4B1B78DBB243F00203DBB213702B4A2A4B1B78DBB243F00203DBB21370284A274B1B7879
:406F4000DBB243F04003DBB21370254A244B1B78DBB243F01003DBB213700A2221492248FFF71AFE0A2221492148FFF715FE0A2220492148FFF710FE0A2220492048FFF79F
:406F80000BFE0A221F492048FFF706FE0A221F491F48FFF701FE1F4A1E4B1B78DBB243F00803DBB213701C4B60221A70FFF7C4FE194B80221A70194B01221A70FFF77EFF63
:406FC0000E2206491648FFF7E7FD00BF80BD00BFE84600400350014013500140A0430040C2430040A421004800510040B0210048C0510040BC210048F0510040C821004832
:4070000010510040D421004820510040E021004830510040224300400048004004000840B043004080B500AF01F0B0FB03461B680C2B00D1FEE7FEE780B584B000AF7860FD
:407040000F4B1A687B6813441A460E4BD31A802B09DC0B4B1B68FB60094B1A687B681344074A136007E001F091FB02460C2313604FF0FF33FB60FB6818461037BD4680BD5A
:40708000DC86FF1F708EFF1F80B586B000AF224B7B61224B3B61204B7B6135E03B691B68FB603B695B68BB603B699B683B6000237B600CE0FB681A68BB681A60BB68043360
:4070C000BB60FB680433FB607B6804337B607A683B689A42EED13B69DB683B6000237B6008E0BB6800221A60BB680433BB607B6804337B607A683B689A42F2D13B691033CF
:407100003B617B69013B7B617B69002BC6D101F043FBF9F791F9FEE701000000049D000080B582B000AF184B184A1A60184A184B1B6843F40073136000237B600FE07B6857
:40714000032B04D8134A7B6852F8233000E0124B12497A6841F822307B6801337B607B682F2BECD90E4B1B78DAB20E4B1A700E4B0A4A1A60FFF7C4FE0C4B00221A6000BF43
:407180000837BD4680BD00BF0CED00E00004FA0514ED00E000000000257000000080FF1FBC760040C480FF1F08ED00E0C080FF1F80B500AF064B1B78002B04D100F00AF8E0
:4071C000034B01221A7000F063F800BF80BD00BF7C87FF1F80B582B000AF284A274B1B78DBB243F00203DBB21370254B1B78DBB223F07003FB71224AFB7943F03003DBB2B6
:407200001370204A1F4B1B78DBB223F03003DBB213701C4A1B4B1B78DBB243F03003DBB21370184A174B1B78DBB223F00F03DBB21370144A134B1B78DBB243F00F03DBB258
