:400000000080002011000000294600002946000080B500AF024A034B1B68136004F00EFBBC760040FA46004001000000002000400100000000200140010000000048004082
:400040000100000000480140010000000100000008000223000008760800032300001076080004230000287608000523000030760500062300002070050007230000307065
:4000800005000823000060700500FE230000707010000A220000005130000B22000040511000FE220000C05180030D220000000080000E220000800480010F2200000006E0
:4000C00080001022000000410001112200000044800012220000004780001322000000488000FE220000004D070015230000085207001623000010520700172300001852CA
:4001000007001823000078520C0019230000004F0C001A2300000C4F0C001B230000184F20001C23000070642000FE230000706508001E230000005180001F23000000041E
:4001400080002023000000088000212300008008800022230000000A800023230000800A800024230000000C800025230000800C800026230000000E800027230000800EF3
:400180008000282300000014800029230000801480002A230000001680002B230000801680002C230000001880002D230000801880002E230000001A80002F230000801A13
:4001C00010003023000010501000312300000050800032230000804D800033230000004C800034230000804C800035230000804780003623000000468000372300008046C3
:400200008000382300000045800039230000804580003A230000001B80003B230000801B80003C230000001580003D230000801580003E230000001980003F2300008019AE
:4002400080004023000000178000412300008017800042230000000980004323000080098000442300008007800045230000000B800046230000800B8000472300000005E8
:400280008000482300008005800049230000000D80004A230000800D80004B230000800380004C230000000F80004D230000800F80004E230000004980004F230000804978
:4002C00080005023000080488000512300000043800052230000804380005323000000428000542300008042800055230000804180005623000000408000FE230000804010
:4003000010B5054C237833B9044B13B10448AFF300800123237010BD1884FF1F000000001C5F0000084B10B51BB108490848AFF300800848036803B910BD074B002BFBD0B3
:40034000BDE81040184700BF000000001C84FF1F1C5F0000C880FF1F0000000090B583B000AF684B1B78FF2B07D0664B93F82331FF2B02D1644B01221A70624B1B78FF2B0A
:4003800007D0604B93F82331FF2B02D05E4B02221A705C4B93F84632FF2B07D0594B93F86933FF2B02D1584B03221A70554B93F84632FF2B07D0534B93F86933FF2B02D05F
:4003C000514B04221A70504B1B78012B09D14D4B1B78184602F020FA03461A46494B83F84C20494B1B78022B14D1464B1B78184602F012FA03461A46424B83F84C20414B62
:4004000093F82331184602F007FA03461A463D4B83F86F213C4B1B78032B2ED10023FB7128E0FC79374B1B78184602F0F5F903461A46344B234483F84C20FC79314B93F8B8
:400440002331184602F0E8F903461A462D4B234483F86F21FC792B4B93F84632184602F0DBF903461A46274B234483F89222FB790133FB71FB79042BD3D9234B1B78042B0E
:400480003BD10023FB7135E0FC791E4B1B78184602F0C2F903461A461A4B234483F84C20FC79184B93F82331184602F0B5F903461A46144B234483F86F21FC79114B93F829
:4004C0004632184602F0A8F903461A460D4B234483F89222FC790B4B93F86933184602F09BF903461A46074B234483F8B523FB790133FB71FB79042BC6D900BF0C37BD4616
:4005000090BD00BF6C84FF1F7D89FF1F90B583B000AF4C4B03221A7004F024F962B604F073FA04F00DFD04F005FE04F007FF05F03BF9002005F0C8F903465A2B13D10023C3
:40054000FB710CE0FC79FB799BB2184605F0BCF903461A463C4B1A55FB790133FB71FB79052BEFD910E000215A2005F023F90123FB7106E0FB79344A3021D154FB790133A4
:40058000FB71FB79052BF5D92F4B5B7903F00F03DBB21B01DAB22C4B1B7903F00F03DBB219469B00CB1ADB00DBB21344DAB2264B9B7803F00F03DBB2194689000B445B0066
:4005C000D9B2214BDB7803F00F03DBB2184680000344184684001846234603449B00DBB20B44DBB21344DAB2174B5B7803F00F03DBB21344DAB2154B1A70062005F064F917
:4006000003465A2B16D10023FB710FE0FB799C1DFB799BB206339BB2184605F055F903461A460B4B1A55FB790133FB71FB79052BECD91AE000215A2005F0BCF80123FB71B9
:4006400010E000BF3E89FF1F6484FF1F7E89FF1F7489FF1FFB790633B04A3021D154FB790133FB71FB79052BF4D9AC4B5B7903F00F03DBB21B01DAB2A84B1B7903F00F036D
:40068000DBB219469B00CB1ADB00DBB21344DAB2A24B9B7803F00F03DBB2194689000B445B00D9B29D4BDB7803F00F03DBB2184680000344184684001846234603449B0057
:4006C000DBB20B44DBB21344DAB2944B5B7803F00F03DBB21344DAB2914B1A7004F0ECFB904B012283F829208E4B042283F82A208C4B202283F82B208A4B002283F84C2102
:40070000884B842283F84D21864B552283F84E21844B93F829301B09DBB23033DAB2814B83F80B217F4B93F8293003F00F03DBB23033DAB27B4B83F80C217A4B93F82A3018
:400740001B09DBB23033DAB2764B83F80D21754B93F82A3003F00F03DBB23033DAB2714B83F80E216F4B93F82B301B09DBB23033DAB26C4B83F80F216A4B93F82B3003F0B3
:400780000F03DBB23033DAB2664B83F81021654B93F84C311B09DBB23033DAB2614B83F82E22604B93F84C3103F00F03DBB23033DAB25C4B83F82F225A4B93F84D311B0906
:4007C000DBB23033DAB2574B83F83022554B93F84D3103F00F03DBB23033DAB2514B83F83122504B93F84E311B09DBB23033DAB24C4B83F832224B4B93F84E3103F00F032A
:40080000DBB23033DAB2474B83F833220023BB710BE0BC79BB79184601F038FF03461A46414B1A55BB790133BB71BB790F2BF0D93D4B5A783B4B1A703B4B9A78394B83F841
:400840002321394BDA78374B83F84622364B1A79344B83F86923334B00221A70314B012283F82321314B00221A70314B01221A7004F030FE03463B703B78082B12D900237C
:400880007B7109E07C7904F0DDFD03461A46294B1A557B7901337B717A793B789A42F1D300233B705A2004F05DFE224B1B7A302B18D11C4B1B782049184602F06FF8194B5F
:4008C0001B78184601F03AFF00233B7106E03B79184A0021D1543B7901333B713B79132BF5D901E0FFF73AFD124B1B7A352B34D10C4B1B78184601F08FFF0A4B18780B4B11
:400900001B780122194602F0D5F8064B1B78184601F082FF0023FB7017E000BF7489FF1F7A89FF1F6C84FF1FFC88FF1F7B89FF1F7C89FF1F8489FF1F9584FF1FFB783F4A5C
:400940000021D154FB780133FB70FB78132BF5D93B4B1B78184602F033F9384B1B7A362B27D1374B93F82331184601F055FF344B93F82301334B1B780122194602F09AF851
:400980002F4B93F82331184601F046FF0023BB7006E0BB78294A0021D154BB780133BB70BB78132BF5D9264B93F82331184602F007F9224B1B7A372B7FF45AAF204B1B78DB
:4009C000184601F029FF1E4B18781E4B1B780122194602F06FF81A4B1B78184601F01CFF174B93F82331184601F016FF144B93F82301144B1B780122194602F05BF8104B87
:400A000093F82331184601F007FF00237B7006E07B780A4A0021D1547B7801337B707B78132BF5D9064B1B78184602F0E7FF044B93F82331184602F0E1FF19E78489FF1F4D
:400A40006C84FF1F7B89FF1F80B489B000AF78600B467B800023FB830023BB617B68002B2FD1002368E0FB8BDB0B9BB2BB60FB8B5B00FB837B681B781A46BB6942FA03F34E
:400A80001BB203F001031AB2B7F91E3013431BB2FB83BB690133BB61BB69072B07DD0023BB617B6801337B607B88013B7B80BB68002B06D0FB8B83F4FF4383F07A03DB437D
:400AC000FB837B88002BCED100237B6113E0FB8BDB0B9BB2BB60FB8B5B00FB83BB68002B06D0FB8B83F4FF4383F07A03DB43FB837B6901337B617B690F2BE8DD00237B82A0
:400B00004FF400437B610123FB6011E0FA8B7B691340002B06D0FB681AB2B7F9123013431BB27B827B695B107B61FB685B00FB607B69002BEAD17B8A18462437BD4680BCDA
:400B4000704700BFF0B587B000AF164B1B783B72144B5B7803F00F03FB71134B1B78FA799A4240F0B0830123FB750CE0FB7D013BFA7D0C49895C0C4A13440A4683F85120BF
:400B8000FB7D0133FB75FA7D3B7A01339A42EDDB054B93F85330652B40F07F820523BB7525E000BF0C89FF1F6C84FF1FCD4B93F8553003F00F03591ECB4B1B781D46BB7D31
:400BC000581FBB7DC74A134493F85160C54C2A4692002A440B469B000B445B00134423440344013332461A70BB7D0133BB75BA7DBC4B93F8543004339A42D7DBB94B93F813
:400C0000553003F00F03591EB74B1B781D46B54B93F8553003F00F03581EB34B1B78B14C1A4692001A4403469B0003445B001344234401331B781B09DBB23033DCB2A948B4
:400C40002A4692002A4453001A460B461B015B1A5B0013440344833322461A70A14B93F8553003F00F03591E9F4B1B781D469D4B93F8553003F00F03581E9B4B1B78994CA5
:400C80001A4692001A4403469B0003445B001344234401331B7803F00F03DBB23033DCB290482A4692002A4453001A460B461B015B1A5B0013440344843322461A70894B03
:400CC00093F8553003F00F03591E874B1B781D46844B93F8553003F00F03581E824B1B78804C1A4692001A4403469B0003445B001344234402331B781B09DBB23033DCB21C
:400D000078482A4692002A4453001A460B461B015B1A5B0013440344853322461A70714B93F8553003F00F03591E6F4B1B781D466C4B93F8553003F00F03581E6A4B1B78C9
:400D4000684C1A4692001A4403469B0003445B001344234402331B7803F00F03DBB23033DCB260482A4692002A4453001A460B461B015B1A5B0013440344863322461A708F
:400D8000584B93F8553003F00F03591E564B1B781D46544B93F8553003F00F03581E524B1B78504C1A4692001A4403469B0003445B001344234403331B781B09DBB2303306
:400DC000DCB248482A4692002A4453001A460B461B015B1A5B0013440344873322461A70404B93F8553003F00F03591E3E4B1B781D463C4B93F8553003F00F03581E3A4BFE
:400E00001B78384C1A4692001A4403469B0003445B001344234403331B7803F00F03DBB23033DCB22F482A4692002A4453001A460B461B015B1A5B00134403448833224623
:400E40001A70284B93F8553003F00F03591E264B1B781D46234B93F8553003F00F03581E214B1B781F4C1A4692001A4403469B0003445B001344234404331B781B09DBB210
:400E80003033DCB217482A4692002A4453001A460B461B015B1A5B0013440344893322461A70104B93F8553003F00F03591E0E4B1B781D460B4B93F8553003F00F03581E1F
:400EC000094B1B78074C1A4692001A4403469B0003445B001344234404331B7803F00F03DBB203E06C84FF1F7B89FF1F3033DCB2B6482A4692002A4453001A460B461B0136
:400F00005B1A5B00134403448A3322461A70AF4B93F8553003F00F03591EAD4B1B781D46AA4B93F8553003F00F03581EA84B1B78A64C1A4692001A4403469B0003445B0052
:400F40001344234405331B781B09DBB23033DCB29E482A4692002A4453001A460B461B015B1A5B00134403448B3322461A70974B93F8553003F00F03591E954B1B781D466E
:400F8000924B93F8553003F00F03581E904B1B788E4C1A4692001A4403469B0003445B001344234405331B7803F00F03DBB23033DCB286482A4692002A4453001A460B465D
:400FC0001B015B1A5B00134403448C3322461A7000237B753AE07D4B93F8553003F00F03591E7B4B1B7897F91500784C1A4692001A4453001A460B461B015B1A5B001344DC
:401000002344034483331B78302B24D16F4B93F8553003F00F03591E6D4B1B7897F915006A4C1A4692001A4453001A460B461B015B1A5B00134423440344833300221A70D6
:4010400097F91530DBB20133DBB27B7597F91530072BC0DD00E000BF012004F04FF8FB7943F05003DBB2184603F010FE574B93F852305BB203F00F035BB263F03F035BB268
:40108000DBB2184603F002FEFA2003F0FFFD042003F038FC002004F031F84C4B93F85330022B40F0108104233B751BE03B7D043B3A7D46490A4492F85110444A13440A46B1
:4010C00083F839203B7D043B3A7D04323F490A4492F851103D4A13440A4683F835203B7D01333B753B7D072BE0D9384B93F839301B09DBB23033DAB2344B83F80321334B87
:4011000093F8393003F00F03DBB23033DAB22F4B83F804212D4B93F83A301B09DBB23033DAB22A4B83F80521284B93F83A3003F00F03DBB23033DAB2244B83F80621234B95
:4011400093F83B301B09DBB23033DAB21F4B83F807211E4B93F83B3003F00F03DBB23033DAB21A4B83F80821184B93F83C301B09DBB23033DAB2154B83F80921134B93F8FB
:401180003C3003F00F03DBB23033DAB20F4B83F80A210023FB7414E097F913300B4A134493F80331302B15D197F91330074A1344002283F8032197F91330DBB20133DBB2E0
:4011C000FB7497F91330072BE6DD04E06C84FF1F7B89FF1F00BF4E4B93F835301B09DBB23033DAB24A4B83F8FB20494B93F8353003F00F03DBB23033DAB2454B83F8FC2065
:40120000434B93F836301B09DBB23033DAB2404B83F8FD203E4B93F8363003F00F03DBB23033DAB23A4B83F8FE20394B93F837301B09DBB23033DAB2354B83F8FF20344BA4
:4012400093F8373003F00F03DBB23033DAB2304B83F800212E4B93F838301B09DBB23033DAB22B4B83F80121294B93F8383003F00F03DBB23033DAB2254B83F802210023AC
:40128000BB7414E097F91230214A134493F8FB30302B11D197F912301D4A1344002283F8FB2097F91230DBB20133DBB2BB7497F91230072BE6DD00E000BF164B01221A7079
:4012C000002003F01BFF124B93F82331FA799A4240F03F8301237B740CE07B7C013B7A7C0D49895C0A4A13440A4683F874217B7C01337B747A7C3B7A01339A42EDDB044BEA
:4013000093F87631652B40F0518205233B7427E06C84FF1F7C89FF1F0C89FF1FCD4B93F8783103F00F03591ECB4B1B781D463B7C581F3B7CC74A134493F87461C54C2A4624
:4013400092002A440B469B000B445B0013442344034403F5927332461A703B7C01333B743A7CBC4B93F8773104339A42D6DBB94B93F8783103F00F03591EB74B1B781D46D9
:40138000B44B93F8783103F00F03581EB24B1B78B04C1A4692001A4403469B0003445B001344234403F592731B781B09DBB23033DCB2A8482A4692002A4453001A460B46C9
:4013C0001B015B1A5B001344034403F5D37322461A70A04B93F8783103F00F03591E9E4B1B781D469B4B93F8783103F00F03581E994B1B78974C1A4692001A4403469B0096
:4014000003445B001344234403F592731B7803F00F03DBB23033DCB28E482A4692002A4453001A460B461B015B1A5B001344034403F2A71322461A70864B93F8783103F0CC
:401440000F03591E844B1B781D46824B93F8783103F00F03581E804B1B787E4C1A4692001A4403469B0003445B001344234403F225131B781B09DBB23033DCB275482A4657
:4014800092002A4453001A460B461B015B1A5B001344034403F5D47322461A706D4B93F8783103F00F03591E6B4B1B781D46694B93F8783103F00F03581E674B1B78654C00
:4014C0001A4692001A4403469B0003445B001344234403F225131B7803F00F03DBB23033DCB25C482A4692002A4453001A460B461B015B1A5B001344034403F2A91322465A
:401500001A70544B93F8783103F00F03591E524B1B781D464F4B93F8783103F00F03581E4D4B1B784B4C1A4692001A4403469B0003445B001344234403F593731B781B09EB
:40154000DBB23033DCB243482A4692002A4453001A460B461B015B1A5B001344034403F5D57322461A703B4B93F8783103F00F03591E394B1B781D46364B93F8783103F0DA
:401580000F03581E344B1B78324C1A4692001A4403469B0003445B001344234403F593731B7803F00F03DBB23033DCB229482A4692002A4453001A460B461B015B1A5B009A
:4015C0001344034403F2AB1322461A70214B93F8783103F00F03591E1F4B1B781D461D4B93F8783103F00F03581E1B4B1B78194C1A4692001A4403469B0003445B0013448A
:40160000234403F227131B781B09DBB23033DCB210482A4692002A4453001A460B461B015B1A5B001344034403F5D67322461A70084B93F8783103F00F03591E064B1B786F
:401640001D46044B93F8783103F00F03581E024B1B7803E06C84FF1F7B89FF1FC24C1A4692001A4403469B0003445B001344234403F227131B7803F00F03DBB23033DCB22F
:40168000B9482A4692002A4453001A460B461B015B1A5B001344034403F2AD1322461A70B14B93F8783103F00F03591EAF4B1B781D46AD4B93F8783103F00F03581EAB4B4B
:4016C0001B78A94C1A4692001A4403469B0003445B001344234403F594731B781B09DBB23033DCB2A0482A4692002A4453001A460B461B015B1A5B001344034403F5D77372
:4017000022461A70984B93F8783103F00F03591E964B1B781D46944B93F8783103F00F03581E924B1B78904C1A4692001A4403469B0003445B001344234403F594731B784D
:4017400003F00F03DBB23033DCB287482A4692002A4453001A460B461B015B1A5B001344034403F2AF1322461A70012003F0C6FCFB7943F05003DBB2184603F087FA7A4B7C
:4017800093F875315BB203F00F035BB263F03F035BB2DBB2184603F079FAFA2003F076FA042003F0AFF8002003F0A8FC6E4B93F87631022B40F0CD800423FB731BE0FB7B59
:4017C000043BFA7B68490A4492F87411664A13440A4683F85C21FB7B043BFA7B043262490A4492F87411604A13440A4683F85821FB7B0133FB73FB7B072BE0D95A4B93F882
:401800005C311B09DBB23033DAB2574B83F82622554B93F85C3103F00F03DBB23033DAB2514B83F82722504B93F85D311B09DBB23033DAB24C4B83F828224B4B93F85D311E
:4018400003F00F03DBB23033DAB2474B83F82922454B93F85E311B09DBB23033DAB2424B83F82A22404B93F85E3103F00F03DBB23033DAB23C4B83F82B223B4B93F85F31DB
:401880001B09DBB23033DAB2374B83F82C22364B93F85F3103F00F03DBB23033DAB2324B83F82D22304B93F858311B09DBB23033DAB22D4B83F81E222B4B93F8583103F0FA
:4018C0000F03DBB23033DAB2274B83F81F22264B93F859311B09DBB23033DAB2224B83F82022214B93F8593103F00F03DBB23033DAB21D4B83F821221B4B93F85A311B0914
:40190000DBB23033DAB2184B83F82222164B93F85A3103F00F03DBB23033DAB2124B83F82322114B93F85B311B09DBB23033DAB20D4B83F824220C4B93F85B3103F00F0355
:40194000DBB23033DAB2084B83F82522002003F0D5FB054B93F84632FA799A4240F043830123BB7311E000BF6C84FF1F7B89FF1FBB7B013BBA7B0C49895C0C4A13440A464B
:4019800083F89722BB7B0133BB73BA7B3B7A01339A42EDDB054B93F89932652B40F0508205237B7326E000BF0C89FF1F6C84FF1FCD4B93F89B3203F00F03591ECB4B1B7830
:4019C0001D467B7B581F7B7BC74A134493F89762C54C2A4692002A440B469B000B445B0013442344034403F2472332461A707B7B01337B737A7BBC4B93F89A3204339A423A
:401A0000D6DBB94B93F89B3203F00F03591EB74B1B781D46B44B93F89B3203F00F03581EB24B1B78B04C1A4692001A4403469B0003445B001344234403F247231B781B091D
:401A4000DBB23033DCB2A8482A4692002A4453001A460B461B015B1A5B001344034403F2C92322461A70A04B93F89B3203F00F03591E9E4B1B781D469B4B93F89B3203F058
:401A80000F03581E994B1B78974C1A4692001A4403469B0003445B001344234403F247231B7803F00F03DBB23033DCB28E482A4692002A4453001A460B461B015B1A5B0005
:401AC0001344034403F2CA2322461A70864B93F89B3203F00F03591E844B1B781D46824B93F89B3203F00F03581E804B1B787E4C1A4692001A4403469B0003445B00134415
:401B0000234403F512731B781B09DBB23033DCB275482A4692002A4453001A460B461B015B1A5B001344034403F2CB2322461A706D4B93F89B3203F00F03591E6B4B1B7827
:401B40001D46694B93F89B3203F00F03581E674B1B78654C1A4692001A4403469B0003445B001344234403F512731B7803F00F03DBB23033DCB25C482A4692002A445300F7
:401B80001A460B461B015B1A5B001344034403F5337322461A70544B93F89B3203F00F03591E524B1B781D464F4B93F89B3203F00F03581E4D4B1B784B4C1A4692001A44D5
:401BC00003469B0003445B001344234403F249231B781B09DBB23033DCB243482A4692002A4453001A460B461B015B1A5B001344034403F2CD2322461A703B4B93F89B32CD
:401C000003F00F03591E394B1B781D46364B93F89B3203F00F03581E344B1B78324C1A4692001A4403469B0003445B001344234403F249231B7803F00F03DBB23033DCB2BF
:401C400029482A4692002A4453001A460B461B015B1A5B001344034403F2CE2322461A70214B93F89B3203F00F03591E1F4B1B781D461D4B93F89B3203F00F03581E1B4BDC
:401C80001B78194C1A4692001A4403469B0003445B001344234403F24A231B781B09DBB23033DCB210482A4692002A4453001A460B461B015B1A5B001344034403F2CF23C4
:401CC00022461A70084B93F89B3203F00F03591E064B1B781D46044B93F89B3203F00F03581E024B1B7803E06C84FF1F7B89FF1FC24C1A4692001A4403469B0003445B008B
:401D00001344234403F24A231B7803F00F03DBB23033DCB2B9482A4692002A4453001A460B461B015B1A5B001344034403F5347322461A70B14B93F89B3203F00F03591E0D
:401D4000AF4B1B781D46AD4B93F89B3203F00F03581EAB4B1B78A94C1A4692001A4403469B0003445B001344234403F24B231B781B09DBB23033DCB2A0482A4692002A44A6
:401D800053001A460B461B015B1A5B001344034403F2D12322461A70984B93F89B3203F00F03591E964B1B781D46944B93F89B3203F00F03581E924B1B78904C1A4692003C
:401DC0001A4403469B0003445B001344234403F24B231B7803F00F03DBB23033DCB287482A4692002A4453001A460B461B015B1A5B001344034403F2D22322461A700120FE
:401E000003F07CF9FB7943F05003DBB2184602F03DFF7A4B93F898325BB203F00F035BB263F03F035BB2DBB2184602F02FFFFA2002F02CFF042002F065FD002003F05EF928
:401E40006E4B93F89932022B40F0CD8004233B731BE03B7B043B3A7B68490A4492F89712664A13440A4683F87F223B7B043B3A7B043262490A4492F89712604A13440A462D
:401E800083F87B223B7B01333B733B7B072BE0D95A4B93F87F321B09DBB23033DAB2574B83F84923554B93F87F3203F00F03DBB23033DAB2514B83F84A23504B93F880320E
:401EC0001B09DBB23033DAB24C4B83F84B234B4B93F8803203F00F03DBB23033DAB2474B83F84C23454B93F881321B09DBB23033DAB2424B83F84D23404B93F8813203F050
:401F00000F03DBB23033DAB23C4B83F84E233B4B93F882321B09DBB23033DAB2374B83F84F23364B93F8823203F00F03DBB23033DAB2324B83F85023304B93F87B321B0949
:401F4000DBB23033DAB22D4B83F841232B4B93F87B3203F00F03DBB23033DAB2274B83F84223264B93F87C321B09DBB23033DAB2224B83F84323214B93F87C3203F00F03CB
:401F8000DBB23033DAB21D4B83F844231B4B93F87D321B09DBB23033DAB2184B83F84523164B93F87D3203F00F03DBB23033DAB2124B83F84623114B93F87E321B09DBB230
:401FC0003033DAB20D4B83F847230C4B93F87E3203F00F03DBB23033DAB2084B83F84823002003F08BF8054B93F86933FA799A4240F043830123FB7211E000BF6C84FF1FC8
:402000007B89FF1FFB7A013BFA7A0C49895C0C4A13440A4683F8BA23FB7A0133FB72FA7A3B7A01339A42EDDB054B93F8BC33652B40F050820523BB7226E000BF0C89FF1F8A
:402040006C84FF1FCD4B93F8BE3303F00F03591ECB4B1B781D46BB7A581FBB7AC74A134493F8BA63C54C2A4692002A440B469B000B445B0013442344034403F26A3332461F
:402080001A70BB7A0133BB72BA7ABC4B93F8BD3304339A42D6DBB94B93F8BE3303F00F03591EB74B1B781D46B44B93F8BE3303F00F03581EB24B1B78B04C1A4692001A44C0
:4020C00003469B0003445B001344234403F26A331B781B09DBB23033DCB2A8482A4692002A4453001A460B461B015B1A5B001344034403F57B7322461A70A04B93F8BE33A8
:4021000003F00F03591E9E4B1B781D469B4B93F8BE3303F00F03581E994B1B78974C1A4692001A4403469B0003445B001344234403F26A331B7803F00F03DBB23033DCB2D1
:402140008E482A4692002A4453001A460B461B015B1A5B001344034403F2ED3322461A70864B93F8BE3303F00F03591E844B1B781D46824B93F8BE3303F00F03581E804B67
:402180001B787E4C1A4692001A4403469B0003445B001344234403F26B331B781B09DBB23033DCB275482A4692002A4453001A460B461B015B1A5B001344034403F2EE3395
:4021C00022461A706D4B93F8BE3303F00F03591E6B4B1B781D46694B93F8BE3303F00F03581E674B1B78654C1A4692001A4403469B0003445B001344234403F26B331B7836
:4022000003F00F03DBB23033DCB25C482A4692002A4453001A460B461B015B1A5B001344034403F2EF3322461A70544B93F8BE3303F00F03591E524B1B781D464F4B93F821
:40224000BE3303F00F03581E4D4B1B784B4C1A4692001A4403469B0003445B001344234403F55B731B781B09DBB23033DCB243482A4692002A4453001A460B461B015B1A11
:402280005B001344034403F57C7322461A703B4B93F8BE3303F00F03591E394B1B781D46364B93F8BE3303F00F03581E344B1B78324C1A4692001A4403469B0003445B0076
:4022C0001344234403F55B731B7803F00F03DBB23033DCB229482A4692002A4453001A460B461B015B1A5B001344034403F2F13322461A70214B93F8BE3303F00F03591E66
:402300001F4B1B781D461D4B93F8BE3303F00F03581E1B4B1B78194C1A4692001A4403469B0003445B001344234403F26D331B781B09DBB23033DCB210482A4692002A445A
:4023400053001A460B461B015B1A5B001344034403F2F23322461A70084B93F8BE3303F00F03591E064B1B781D46044B93F8BE3303F00F03581E024B1B7803E06C84FF1F1A
:402380007B89FF1FBF4C1A4692001A4403469B0003445B001344234403F26D331B7803F00F03DBB23033DCB2B6482A4692002A4453001A460B461B015B1A5B0013440344B5
:4023C00003F2F33322461A70AE4B93F8BE3303F00F03591EAC4B1B781D46AA4B93F8BE3303F00F03581EA84B1B78A64C1A4692001A4403469B0003445B001344234403F205
:402400006E331B781B09DBB23033DCB29D482A4692002A4453001A460B461B015B1A5B001344034403F57D7322461A70954B93F8BE3303F00F03591E934B1B781D46914B81
:4024400093F8BE3303F00F03581E8F4B1B788D4C1A4692001A4403469B0003445B001344234403F26E331B7803F00F03DBB23033DCB284482A4692002A4453001A460B469F
:402480001B015B1A5B001344034403F2F53322461A70012002F032FEFB7943F05003DBB2184602F0F3FB774B93F8BB335BB203F00F035BB263F03F035BB2DBB2184602F0A2
:4024C000E5FBFA2002F0E2FB042002F01BFA002002F014FE6B4B93F8BC33022B40F0CD8004237B721BE07B7A043B7A7A65490A4492F8BA13634A13440A4683F8A2237B7AD7
:40250000043B7A7A04325F490A4492F8BA135D4A13440A4683F89E237B7A01337B727B7A072BE0D9574B93F8A2331B09DBB23033DAB2544B83F86C24524B93F8A23303F029
:402540000F03DBB23033DAB24E4B83F86D244D4B93F8A3331B09DBB23033DAB2494B83F86E24484B93F8A33303F00F03DBB23033DAB2444B83F86F24424B93F8A4331B09C9
:40258000DBB23033DAB23F4B83F870243D4B93F8A43303F00F03DBB23033DAB2394B83F87124384B93F8A5331B09DBB23033DAB2344B83F87224334B93F8A53303F00F030B
:4025C000DBB23033DAB22F4B83F873242D4B93F89E331B09DBB23033DAB22A4B83F86424284B93F89E3303F00F03DBB23033DAB2244B83F86524234B93F89F331B09DBB2A8
:402600003033DAB21F4B83F866241E4B93F89F3303F00F03DBB23033DAB21A4B83F86724184B93F8A0331B09DBB23033DAB2154B83F86824134B93F8A03303F00F03DBB274
:402640003033DAB20F4B83F869240E4B93F8A1331B09DBB23033DAB20A4B83F86A24094B93F8A13303F00F03DBB23033DAB2054B83F86B24002002F041FD00BF1C37BD4660
:40268000F0BD00BF6C84FF1F7B89FF1F90B585B000AF0346FB71274BFF221A70254BFF2283F82321234BFF2283F84622214BFF2283F86923012002F021FDFB7943F0500302
:4026C000DBB2184602F0E2FA202002F0DFFAFA2002F0DCFA042002F015F9002002F00EFD02F04CFA0346BB730023FB7309E0FC7B02F0FCF903461A460F4B1A55FB7B013350
:40270000FB73FA7BBB7B9A42F1D302F07FFA4FF4967002F0F7F8BB7B002B05D0064B1B7803F00F03DBB200E0FF2318461437BD4690BD00BF6C84FF1F0C89FF1F80B584B0BB
:4027400000AF0346FB710023FB7306E0FB7B2E4A0021D154FB7B0133FB73FB7B312BF5D9012002F0CBFCFB7943F05003DAB2264B1A70254B30225A70234B01229A70224BA3
:402780000122DA70204B06221A7105211E48FEF75BF903461A461D4B1A801C4B1B881B0A9BB2DAB21A4B1A70184B1B88DAB2194B1A70184B1A78144B5A71154B1A78124B29
:4027C0009A71114B0322DA710F4BFA221A720023BB7308E0BB7B0C4AD35C184602F056FABB7B0133BB73BB7B092BF3D9042002F089F8002002F082FCC82002F083F87B7B2C
:4028000018461037BD4680BD4089FF1F8089FF1FF888FF1F8289FF1F90B585B000AF0346FB710023FB7306E0FB7B5A4A0021D154FB7B0133FB73FB7B312BF5D9012002F05E
:402840005DFCFB7943F05003DBB2184602F01EFA202002F01BFAFA2002F018FA032002F051F8002002F04AFC02F088F903467B720123BB7309E0BC7B02F038F903461A460E
:40288000444B1A55BB7B0133BB73BA7B7B7A01339A42F0DB3F4A7B7A137002F0B7F97B7A032B05D9FEF74EF9642002F02BF865E0642002F027F8384B1B78FA799A4212D1E2
:4028C00000237B730BE07B7B7A7B3249895C324A13440A4683F851207B7B01337B737A7B7B7A9A42EFD32C4B93F82331FA799A4212D100233B730BE03B7B3A7B2549895CE0
:40290000254A13440A4683F874213B7B01333B733A7B7B7A9A42EFD31F4B93F84632FA799A4212D10023FB720BE0FB7AFA7A1949895C194A13440A4683F89722FB7A013360
:40294000FB72FA7A7B7A9A42EFD3134B93F86933FA799A4212D10023BB720BE0BB7ABA7A0C49895C0C4A13440A4683F8BA23BB7A0133BB72BA7A7B7A9A42EFD37B7A002B7C
:4029800002D0044B5B7800E0002318461437BD4690BD00BF0C89FF1F6C84FF1F90B585B000AF03463960FB71012002F0A7FBFB7943F05003DAB23A4B1A70394B30225A7046
:4029C000374B05229A70364B0322DA703B681A78334B1A713B685A78314B5A713B689A782F4B9A7107212E48FEF72EF803461A462C4B1A802B4B1B881B0A9BB2DAB22A4B01
:402A00001A70284B1B88DAB2284B1A70274B1A78234BDA71244B1A78214B1A72204B03225A721F4BFA229A720023FB7308E0FB7B1B4AD35C184602F029F9FB7B0133FB73BC
:402A4000FB7B0B2BF3D9042001F05CFF002002F055FB02F093F803467B730023BB7309E0BC7B02F043F803461A46114B1A55BB7B0133BB73BA7B7B7B9A42F1D302F0C6F833
:402A80004FF4FA7001F03EFF7B7B002B02D0084B5B7800E0002318461437BD4690BD00BF4089FF1F8089FF1FF888FF1F8289FF1F0C89FF1F90B585B000AF0346FB710B46B0
:402AC000BB7113467B71BB791B015AB297F9053013435BB27B73012002F010FBFB7943F05003DAB2314B1A70304B30225A702F4B65229A702D4B0122DA702C4A7B7B1371D2
:402B000005212A48FDF7A0FF03461A46284B1A80274B1B881B0A9BB2DAB2264B1A70244B1B88DAB2244B1A70234B1A781F4B5A71204B1A781D4B9A711C4B0322DA711B4B2D
:402B4000FA221A720023FB7308E0FB7B174AD35C184602F09BF8FB7B0133FB73FB7B092BF3D9042001F0CEFE002002F0C7FA02F005F803463B730023BB7309E0BC7B01F0C1
:402B8000B5FF03461A460D4B1A55BB7B0133BB73BA7B3B7B9A42F1D302F038F8C82001F0B1FE00BF1437BD4690BD00BF4089FF1F8089FF1FF888FF1F8289FF1F0C89FF1F83
:402BC00090B591B000AF0346FB71BD4B1B780133DAB2BB4B1A70BA4B1B78BA4A82FB03121213DB17D31ADBB23033DAB2B64B5A71B34B1B781A46B34B83FB02131913D317EE
:402C0000CB1A42F2107101FB03F3D31AAF4A82FB03129211DB17D31ADBB23033DAB2AA4B1A71A74B1B781A46A64B83FB02131913D317CB1A42F2107101FB03F3D31AA34A2D
:402C400082FB03129111DA178A1A4FF47A7101FB02F29A1A9E4B83FB02135911D317CB1ADBB23033DAB2984BDA70954B1B78954A82FB03121113DA178A1A42F2107101FB0D
:402C800002F29A1A914B83FB02139911D317CB1A4FF47A7101FB03F3D31A8D4A82FB03125111DA178A1A642101FB02F29A1A894B83FB02139910D317CB1ADBB23033DAB293
:402CC000814B9A707E4B1B787E4A82FB03121113DA178A1A42F2107101FB02F29A1A7B4B83FB02139911D317CB1A4FF47A7101FB03F3D31A764A82FB03125111DA178A1A0E
:402D0000642101FB02F29A1A724B83FB02139910D317C91A0B469B000B445B00D11ACBB23033DAB2684B5A70012387F83F300FE097F83F30644AD35C97F83F2092B21146D5
:402D4000184602F037FD97F83F30013387F83F3097F83F30052BEBD9002387F83E300BE097F83E305C4AD35C184602F0FBFB97F83E30013387F83E3097F83E30052BEFD997
:402D8000042001F0BFFD02F0A5FB03463B7297F908300C2B18DD002387F83D300CE097F83D4002F04FFB03461A464C4B1A5597F83D30013387F83D3097F83D2097F9083004
:402DC0009A42ECDB00233B72002387F83C300BE097F83C30424AD35C184602F001FA97F83C30013387F83C3097F83C30152BEFD93C4B1B78184602F0F3F9002387F83B30E6
:402E00000BE097F83B30384AD35C184602F0E8F997F83B30013387F83B3097F83B30152BEFD9304B1B78184602F0DAF9002387F83A300BE097F83A302C4AD35C184602F09B
:402E4000CFF997F83A30013387F83A3097F83A30152BEFD9234B1B78184602F0C1F9002387F839300BE097F83930214AD35C184602F0B6F997F83930013387F8393097F83E
:402E80003930152BEFD9002387F838300BE097F83830184AD35C184602F0A2F997F83830013387F8383097F83830172BEFD90D4B1B78184602F094F9002387F8373027E04E
:402EC0007E89FF1FAD8BDB686484FF1FD34D62101F85EB51676666669C83FF1F8489FF1FD480FF1FCC80FF1FEC80FF1F0481FF1F1C81FF1F8483FF1F97F83730C44AD35C9D
:402F0000184602F06DF997F83730013387F8373097F837300C2BEFD9BE4B1B7A03F00F03DBB23033DBB2184602F05AF9B94B1B7A1B09DBB23033DBB2184602F051F92F20F0
:402F400002F04EF9B34BDB7903F00F03DBB23033DBB2184602F044F9AE4BDB791B09DBB23033DBB2184602F03BF92F2002F038F9A84B9B7903F00F03DBB23033DBB21846EC
:402F800002F02EF9A34B9B791B09DBB23033DBB2184602F025F9A04B1B78184602F020F9002387F836300BE097F836309B4AD35C184602F015F997F83630013387F8363098
:402FC00097F836300C2BEFD9924B1B7B03F00F03DBB23033DBB2184602F002F98D4B1B7B1B09DBB23033DBB2184602F0F9F83A2002F0F6F8874BDB7A03F00F03DBB23033F7
:40300000DBB2184602F0ECF8824BDB7A1B09DBB23033DBB2184602F0E3F83A2002F0E0F87C4B9B7A03F00F03DBB23033DBB2184602F0D6F8774B9B7A1B09DBB23033DBB2C9
:40304000184602F0CDF8744B1B78184602F0C8F8002387F835300BE097F83530704AD35C184602F0BDF897F83530013387F8353097F83530172BEFD9674B1B78184602F066
:40308000AFF8002387F834300BE097F83430654AD35C184602F0A4F897F83430013387F8343097F834300C2BEFD95B4B1B78184602F096F85C4B1B78FA799A4240F02E8140
:4030C000002387F833300BE097F83330574AD35C184602F085F897F83330013387F8333097F83330062BEFD9002387F832300BE097F832304E4AD35C184602F071F897F86F
:403100003230013387F8323097F832300C2BEFD9454B1B783133DBB2184602F061F83E4B1B78184602F05CF83B4B1B78184602F057F8002387F831300BE097F831303D4A8E
:40314000D35C184602F04CF897F83130013387F8313097F831300C2BEFD9002387F830300BE097F83030344AD35C184602F038F897F83030013387F8303097F83030072B6D
:40318000EFD9002387F82F300BE097F82F302B4AD35C184602F024F897F82F30013387F82F3097F82F300C2BEFD9002387F82E3018E097F82E30C3F10803214A1278934202
:4031C00002D12E2002F00CF897F82E30164A134493F80331184602F003F897F82E30013387F82E3097F82E30072BE2D9202001F0F7FF144B1B78184601F0F2FF064B1B78F5
:40320000184601F0EDFF002387F82D3028E000BF8081FF1F8489FF1FCC80FF1F9081FF1F8483FF1FA081FF1F6C84FF1F3481FF1FD081FF1FE081FF1F6C81FF1F0082FF1FCC
:403240003E89FF1FD080FF1F97F82D30CC4AD35C184601F0C5FF97F82D30013387F82D3097F82D300C2BEFD9C64B1B78184601F0B7FF202001F0B4FF002387F82C300DE058
:4032800097F82C30C04A134493F8FB30184601F0A7FF97F82C30013387F82C3097F82C30072BEDD9B94B1B78184601F099FF002387F82B300BE097F82B30B54AD35C18465E
:4032C00001F08EFF97F82B30013387F82B3097F82B300C2BEFD9AB4B1B78184601F080FF202001F07DFF012387F82A300DE097F82A30A54A134493F80B31184601F070FFCD
:4033000097F82A30013387F82A3097F82A30052BEDD99E4B1B78184601F062FF9A4B93F82331FA799A4240F01281002387F829300BE097F82930974AD35C184601F050FF3A
:4033400097F82930013387F8293097F82930062BEFD9002387F828300BE097F828308E4AD35C184601F03CFF97F82830013387F8283097F828300C2BEFD9834B93F8233196
:403380003133DBB2184601F02BFF804B1B78184601F026FF7D4B1B78184601F021FF002387F827300BE097F827307C4AD35C184601F016FF97F82730013387F8273097F865
:4033C00027300C2BEFD9002387F826300BE097F82630734AD35C184601F002FF97F82630013387F8263097F82630072BEFD9002387F825300BE097F825306A4AD35C18469F
:4034000001F0EEFE97F82530013387F8253097F825300C2BEFD9002387F8243018E097F82430C3F10803604A1278934202D12E2001F0D6FE97F82430534A134493F82632A7
:40344000184601F0CDFE97F82430013387F8243097F82430072BE2D9202001F0C1FE534B1B78184601F0BCFE484B1B78184601F0B7FE002387F823300BE097F82330404AD8
:40348000D35C184601F0ACFE97F82330013387F8233097F823300C2BEFD93A4B1B78184601F09EFE202001F09BFE002387F822300DE097F82230344A134493F81E3218467E
:4034C00001F08EFE97F82230013387F8223097F82230072BEDD92D4B1B78184601F080FE002387F821300BE097F82130284AD35C184601F075FE97F82130013387F82130B3
:4035000097F821300C2BEFD91E4B1B78184601F067FE202001F064FE012387F820300DE097F82030184A134493F82E32184601F057FE97F82030013387F8203097F82030A1
:40354000052BEDD9114B1B78184601F049FE0E4B93F84632FA799A4240F0F7800023FB7708E0FB7F0B4AD35C184601F039FEFB7F0133FB77FB7F062BF3D90023BB7720E091
:403580002082FF1F6083FF1F6C84FF1FCC80FF1FF081FF1F3481FF1FD081FF1FE081FF1F6C81FF1F0082FF1F3E89FF1FD080FF1FBB7FAD4AD35C184601F012FEBB7F013357
:4035C000BB77BB7F0C2BF3D9A84B93F846323133DBB2184601F004FEA54B1B78184601F0FFFDA34B1B78184601F0FAFD00237B7708E07B7F9F4AD35C184601F0F1FD7B7F49
:4036000001337B777B7F0C2BF3D900233B7708E03B7F994AD35C184601F0E2FD3B7F01333B773B7F072BF3D90023FB7608E0FB7E924AD35C184601F0D3FDFB7E0133FB761B
:40364000FB7E0C2BF3D90023BB7614E0BB7EC3F108038B4A1278934202D12E2001F0C0FDBB7E824A134493F84933184601F0B8FDBB7E0133BB76BB7E072BE7D9202001F02A
:40368000AFFD804B1B78184601F0AAFD784B1B78184601F0A5FD00237B7608E07B7E7A4AD35C184601F09CFD7B7E01337B767B7E0C2BF3D9754B1B78184601F091FD202069
:4036C00001F08EFD00233B760AE03B7E674A134493F84133184601F083FD3B7E01333B763B7E072BF1D9624B1B78184601F078FD0023FB7508E0FB7D654AD35C184601F08A
:403700006FFDFB7D0133FB75FB7D0C2BF3D95F4B1B78184601F064FD202001F061FD0123BB750AE0BB7D514A134493F85133184601F056FDBB7D0133BB75BB7D052BF1D923
:403740004B4B1B78184601F04BFD484B93F86933FA799A4240F0F78000237B7508E07B7D4C4AD35C184601F03BFD7B7D01337B757B7D062BF3D900233B7508E03B7D3A4A92
:40378000D35C184601F02CFD3B7D01333B753B7D0C2BF3D9354B93F869333133DBB2184601F01EFD324B1B78184601F019FD304B1B78184601F014FD0023FB7408E0FB7C35
:4037C0002C4AD35C184601F00BFDFB7C0133FB74FB7C0C2BF3D90023BB7408E0BB7C264AD35C184601F0FCFCBB7C0133BB74BB7C072BF3D900237B7408E07B7C1F4AD35C8A
:40380000184601F0EDFC7B7C01337B747B7C0C2BF3D900233B7414E03B7CC3F10803184A1278934202D12E2001F0DAFC3B7C0F4A134493F86C34184601F0D2FC3B7C0133BD
:403840003B743B7C072BE7D9202001F0C9FC0D4B1B78184601F0C4FC054B1B78184601F0BFFC0023FB7320E0D081FF1F6C84FF1FCC80FF1FE081FF1F6C81FF1F0082FF1F71
:403880003E89FF1FD080FF1F2082FF1F6083FF1FF081FF1F3481FF1FFB7B504AD35C184601F09EFCFB7B0133FB73FB7B0C2BF3D94B4B1B78184601F093FC202001F090FC15
:4038C0000023BB730AE0BB7B464A134493F86434184601F085FCBB7B0133BB73BB7B072BF1D9414B1B78184601F07AFC00237B7308E07B7B3D4AD35C184601F071FC7B7B78
:4039000001337B737B7B0C2BF3D9354B1B78184601F066FC202001F063FC01233B730AE03B7B304A134493F87434184601F058FC3B7B01333B733B7B052BF1D92A4B1B78AF
:40394000184601F04DFC0023FB7208E0FB7A284AD35C184601F044FCFB7A0133FB72FB7A172BF3D9204B1B78184601F039FC0023BB7208E0BB7A1F4AD35C184601F030FCF7
:40398000BB7A0133BB72BB7A152BF3D9164B1B78184601F025FC00237B7208E07B7A164AD35C184601F01CFC7B7A01337B727B7A152BF3D90C4B1B78184601F011FC0A4B37
:4039C0001B78184601F00CFC074B1B78184601F007FC00BF4437BD4690BD00BF2082FF1F6083FF1F6C84FF1FCC80FF1FF081FF1F8483FF1F3C81FF1F5481FF1F80B58AB033
:403A000000AF0346FB71A74B1B780133DAB2A54B1A70A44B1B78A44A82FB03121213DB17D31ADBB23033DAB2A04B5A719D4B1B781A469D4B83FB02131913D317CB1A42F2A6
:403A4000107101FB03F3D31A994A82FB03129211DB17D31ADBB23033DAB2944B1A71914B1B781A46904B83FB02131913D317CB1A42F2107101FB03F3D31A8D4A82FB0312D4
:403A80009111DA178A1A4FF47A7101FB02F29A1A884B83FB02135911D317CB1ADBB23033DAB2824BDA707F4B1B787F4A82FB03121113DA178A1A42F2107101FB02F29A1A01
:403AC0007B4B83FB02139911D317CB1A4FF47A7101FB03F3D31A774A82FB03125111DA178A1A642101FB02F29A1A734B83FB02139910D317CB1ADBB23033DAB26B4B9A706F
:403B0000684B1B78684A82FB03121113DA178A1A42F2107101FB02F29A1A654B83FB02139911D317CB1A4FF47A7101FB03F3D31A604A82FB03125111DA178A1A642101FB6C
:403B400002F29A1A5C4B83FB02139910D317C91A0B469B000B445B00D11ACBB23033DAB2524B5A70072387F8273010E097F82730063B4E4AD35C97F8272092B211461846EC
:403B800001F018FE97F82730013387F8273097F827300C2BEAD9494B1B78184601F020FB002387F826300BE097F82630444AD35C184601F015FB97F82630013387F82630CB
:403BC00097F82630152BEFD93C4B1B78184601F007FB002387F825300BE097F82530394AD35C184601F0FCFA97F82530013387F8253097F82530152BEFD9304B1B7818466C
:403C000001F0EEFA002387F824300BE097F824302D4AD35C184601F0E3FA97F82430013387F8243097F82430152BEFD9234B1B78184601F0D5FA002387F823300BE097F8B2
:403C40002330224AD35C184601F0CAFA97F82330013387F8233097F82330152BEFD9174B1B78184601F0BCFA002387F822300BE097F82230164AD35C184601F0B1FA97F89F
:403C80002230013387F8223097F82230172BEFD90A4B1B78184601F0A3FA002387F8213024E000BF7A89FF1FAD8BDB687489FF1FD34D62101F85EB5167666666CC80FF1F0C
:403CC000D480FF1FEC80FF1F0481FF1F1C81FF1F8483FF1F97F82130AD4AD35C184601F07FFA97F82130013387F8213097F821300C2BEFD9A74B1B7A03F00F03DBB2303338
:403D0000DBB2184601F06CFAA24B1B7A1B09DBB23033DBB2184601F063FA2F2001F060FA9C4BDB7903F00F03DBB23033DBB2184601F056FA974BDB791B09DBB23033DBB2A5
:403D4000184601F04DFA2F2001F04AFA914B9B7903F00F03DBB23033DBB2184601F040FA8C4B9B791B09DBB23033DBB2184601F037FA894B1B78184601F032FA002387F89E
:403D800020300BE097F82030844AD35C184601F027FA97F82030013387F8203097F820300C2BEFD97B4B1B7B03F00F03DBB23033DBB2184601F014FA764B1B7B1B09DBB279
:403DC0003033DBB2184601F00BFA3A2001F008FA704BDB7A03F00F03DBB23033DBB2184601F0FEF96B4BDB7A1B09DBB23033DBB2184601F0F5F93A2001F0F2F9654B9B7A76
:403E000003F00F03DBB23033DBB2184601F0E8F9604B9B7A1B09DBB23033DBB2184601F0DFF95D4B1B78184601F0DAF90023FB7708E0FB7F5A4AD35C184601F0D1F9FB7F8E
:403E40000133FB77FB7F172BF3D9534B1B78184601F0C6F90023BB7708E0BB7F514AD35C184601F0BDF9BB7F0133BB77BB7F0C2BF3D901237B7708E07B7F4B4AD35C184698
:403E800001F0AEF97B7F01337B777B7F052BF3D9414B1B78184601F0A3F900233B7708E03B7F424AD35C184601F09AF93B7F01333B773B7F0C2BF3D9FB793133DBB2184616
:403EC00001F08EF9344B1B78184601F089F90023FB7608E0FB7E364AD35C184601F080F9FB7E0133FB76FB7E0F2BF3D92A4B1B78184601F075F92F4B1B78FA799A423DD12F
:403F00000023BB7614E0BB7EC3F10A032A4A1278934202D12E2001F063F9BB7E254A134493F88330184601F05BF9BB7E0133BB76BB7E092BE7D9184B1B78184601F050F9C5
:403F400000237B7608E07B7E1C4AD35C184601F047F97B7E01337B767B7E0F2BF3D900233B7608E03B7E0E4AD35C184601F038F93B7E01333B763B7E172BF3D90D4B93F847
:403F80002331FA799A4256D10023FB752DE000BF8081FF1F8489FF1FCC80FF1F9081FF1F8483FF1F3082FF1F7489FF1FD081FF1F6483FF1F6C84FF1F3E89FF1F7483FF1F69
:403FC000FB7DC3F10A03824A1278934202D12E2001F006F9FB7D7F4A134493F8A631184601F0FEF8FB7D0133FB75FB7D092BE7D9794B1B78184601F0F3F80023BB7508E0B9
:40400000BB7D764AD35C184601F0EAF8BB7D0133BB75BB7D0F2BF3D900237B7508E07B7D6F4AD35C184601F0DBF87B7D01337B757B7D172BF3D9674B93F84632FA799A422B
:404040003DD100233B7514E03B7DC3F10A03604A1278934202D12E2001F0C2F83B7D5D4A134493F8C932184601F0BAF83B7D01333B753B7D092BE7D9574B1B78184601F014
:40408000AFF80023FB7408E0FB7C544AD35C184601F0A6F8FB7C0133FB74FB7C0F2BF3D90023BB7408E0BB7C4D4AD35C184601F097F8BB7C0133BB74BB7C172BF3D9454B93
:4040C00093F86933FA799A423DD100237B7414E07B7CC3F10A033E4A1278934202D12E2001F07EF87B7C3B4A134493F8EC33184601F076F87B7C01337B747B7C092BE7D9D0
:40410000354B1B78184601F06BF800233B7408E03B7C324AD35C184601F062F83B7C01333B743B7C0F2BF3D90023FB7308E0FB7B2B4AD35C184601F053F8FB7B0133FB7359
:40414000FB7B172BF3D9244B1B78184601F048F80023BB7308E0BB7B214AD35C184601F03FF8BB7B0133BB73BB7B172BF3D91A4B1B78184601F034F800237B7308E07B7B5D
:40418000184AD35C184601F02BF87B7B01337B737B7B152BF3D9104B1B78184601F020F800233B7308E03B7B0F4AD35C184601F017F83B7B01333B733B7B152BF3D9064B8D
:4041C0001B78184601F00CF800BF2837BD4680BD3E89FF1F6C84FF1FCC80FF1F7483FF1F8483FF1F3C81FF1F5481FF1F80B584B000AFF860B9607A607A68B968F86801F05F
:4042000081FE00BF1037BD4680BD00BF80B483B000AF0346FB71FEE780B483B000AF434B00221A60424B10221A70424B01221A70414B00221A70414B4FF42C721A80404BBD
:4042400001221A703F4B03221A703F4B3F4A92B21A803F4B47F608021A803E4B00221A803D4B4FF480421A803C4B09221A703C4B0C221A703B4B14221A703B4B1D221A7080
:40428000BFF35F8F394B01221A70BFF35F8F00BF2A4B1B889BB2002BFAD100237B600DE07B68DA00324B13441946324A7B6852F823309BB20B807B6801337B607B68552B6F
:4042C000EED9BFF35F8F294B01221A70BFF35F8F00BF294B1B78DBB203F00103002BF8D100BF264B1B78DBB203F00103002BF8D100BF234B1B78DBB203F00103002BF8D1E5
:4043000000BF204B1B78DBB203F00103002BF8D100BF1D4B1B78DBB203F00103002BF8D100BF0C37BD4680BC704700BF3884FF1F007600401070004019700040007800408E
:404340000278004003780040047800405000000006780040047600400676004029700040397000406970004079700040147000400C780040205F00001870004028700040DD
:4043800038700040687000407870004080B582B000AF3E4B19221A803D4B18221A703D4B4FF49C721A803C4B18221A703B4B4FF49C721A803A4B18221A703A4B40F20922BB
:4043C0001A80394B18221A70384B47F22F521A80374B19221A70374B02221A704FF0402308221A70344B03221A70344B344A1278D2B21A70334B08221A80334B41F251220E
:404400001A800023FB7019237B6014E0FB785B00DAB22E4B1B78DBB203F00103DBB21343DBB203F00303FB704FF4F07001F06CFA7B68013B7B607B68002B02D0FB78032B16
:40444000E4D17B68002B02D10320FFF7DFFE204B4FF480721A801E4B07221A701D4B00221A701D4B48221A70194B00221A701B4B02221A701A4A1A4B1B78DBB243F01F0388
:40448000DBB2137000BF0837BD4680BD80400040824000408440004086400040884000408A4000408C4000408E40004090400040924000400043004000420040A146004028
:4044C0000801004922420040204200402542004004400040064000400840004001400040A243004080B483B000AF0B4B1B78FB710A4AFB7903F00703DBB21370084AFB793F
:404500001B09DBB21370074B44221A7000BF0C37BD4680BC704700BFCF0100496E5800406F5800407658004080B500AF72B62D4A2C4B1B78DBB243F00403DBB21370FFF7C0
:404540006BFE294A284B1B78DBB243F00203DBB21370264A254B1B78DBB243F00203DBB21370234A224B1B78DBB243F04003DBB21370204A1F4B1B78DBB243F01003DBB2F5
:4045800013700A221C491D48FFF730FE0A221C491C48FFF72BFE0A221B491C48FFF726FE0A221B491B48FFF721FE1B4A1A4B1B78DBB243F00803DBB21370184B60221A708D
:4045C000FFF7E4FE154B80221A70154B01221A70FFF788FF0E2206491248FFF707FE00BF80BD00BFE84600400350014013500140A0430040C24300402C1C0048F05100401F
:40460000381C004810510040441C004820510040501C004830510040224300400048004004000840B043004080B500AF01F03EFC03461B680C2B00D1FEE7FEE780B586B0AB
:4046400000AF224B7B61224B3B61204B7B6135E03B691B68FB603B695B68BB603B699B683B6000237B600CE0FB681A68BB681A60BB680433BB60FB680433FB607B680433A7
:404680007B607A683B689A42EED13B69DB683B6000237B6008E0BB6800221A60BB680433BB607B6804337B607A683B689A42F2D13B6910333B617B69013B7B617B69002BBC
:4046C000C6D101F0F9FBFBF721FFFEE701000000A060000080B582B000AF184B184A1A60184A184B1B6843F40073136000237B600FE07B68032B04D8134A7B6852F82330D5
:4047000000E0124B12497A6841F822307B6801337B607B682F2BECD90E4B1B78DAB20E4B1A700E4B0A4A1A60FFF7FEFE0C4B00221A6000BF0837BD4680BD00BF0CED00E043
:404740000004FA0514ED00E000000000294600000080FF1FBC760040C480FF1F08ED00E0C080FF1F80B500AF064B1B78002B04D100F00AF8034B01221A7000F063F800BF82
:4047800080BD00BF3C84FF1F80B582B000AF284A274B1B78DBB243F00203DBB21370254B1B78DBB223F07003FB71224AFB7943F03003DBB21370204A1F4B1B78DBB223F0DE
:4047C0003003DBB213701C4A1B4B1B78DBB243F03003DBB21370184A174B1B78DBB223F00F03DBB21370144A134B1B78DBB243F00F03DBB21370642000F048F8322000F0D4
:4048000055F8002000F062F80C4A0C4B1B78DBB243F00103DBB21370094A094B1B78DBB243F00103DBB2137000BF0837BD4680BD004F0040024F00400B4F0040A343004081
:40484000014F004080B400AF0D4A0D4B1B78DBB243F00103DBB213700A4A0A4B1B78DBB243F00103DBB21370074A074B1B78DBB243F00103DBB2137000BFBD4680BC7047E0
:40488000A3430040B3430040004F004080B483B000AF0346FB71044BFA7992B21A8000BF0C37BD4680BC7047044F004080B483B000AF0346FB71044BFA7992B21A8000BFED
:4048C0000C37BD4680BC7047064F004080B483B000AF0346FB71044AFB79137000BF0C37BD4680BC704700BF034F004080B483B000AF0346FB7101BE00BF0C37BD4680BCC6
:40490000704700BF80B582B000AF786008E00C4B1B68184600F0F8FF7B68A3F500437B607B68B3F5004FF2D8064B1B687A6802FB03F3184600F0E8FF00BF0837BD4680BDB3
:40494000B083FF1FA883FF1F80B582B000AF0346FB80FB88054A127802FB03F3184600F0D3FF00BF0837BD4680BD00BFAC83FF1F80B584B000AF03463960FB710F4B1B68C7
:40498000FB60FB791F2B02D90020FFF7AFFFFB7903F01F0310339B00FA6813441B68BB60FB7903F01F0310339B00FA6813443A681A60BB6818461037BD4680BD08ED00E068
:4049C00080B582B000AF03460A46FB711346BB71BB79072B02D90020FFF788FFFB791F2B02D90020FFF782FFFB7903F01F0303F1604303F56443BA795201D2B21A7000BFF7
:404A00000837BD4680BD00BF80B500AF064B1B78002B04D100F00AF8034B01221A7000F031F800BF80BD00BF3D84FF1F80B500AF0D490020FFF79CFF07210020FFF7C0FFE8
:404A40000A4B00221A700A4B72221A70094B20221A70094B06221A70084B47221A70084B00221A7000BF80BDC14C00003E84FF1F88650040846500402A6500403A6500406A
:404A80008964004080B582B000AF00F05CFF0346FB71124A114B1B78DBB243F02003DBB213700F4A0E4B1B78DBB243F01003DBB213700C4B01221A600B4A0B4B1B78DBB28E
:404AC00043F01003DBB2137000F068F9FB79184600F03DFF00BF0837BD4680BD986500409465004000E100E09964004080B483B000AF1B4B01221A601A4B1B78BB711A4BBD
:404B00001B787B71194B1B78DBB2002B03D1BA797B799A4218D0BB79154AD35CFB71BB790133BB7197F90630002B01DA0023BB710C4ABB7913700D4B1B78DBB2002B06D025
:404B40000A4B00221A7002E00A4B1B78FB710A4B01221A60FB7918460C37BD4680BC704780E100E03F84FF1F4084FF1F4184FF1F9C89FF1F4B65004000E100E080B483B0BF
:404B800000AF1D4B01221A601C4B1B78DAB21C4B1B78DBB29A420AD11A4B1B78DBB2002B02D08023FB711DE00023FB711AE0134B1B78DAB2124B1B78DBB29A4208D2104B5B
:404BC0001B78DAB20D4B1B78DBB2D31AFB7109E00B4B1B78DAB2094B1B78DBB2D31ADBB2803BFB71084B01221A60FB7918460C37BD4680BC704700BF80E100E03F84FF1F76
:404C00004084FF1F4184FF1F00E100E080B582B000AF00F098FE0346FB71154A144B1B78DBB243F00103DBB21370114A104B1B78DBB223F00103DBB21370FB79184600F0B9
:404C400086FE0C4B01221A600B4B00221A700B4B00221A700A4B00221A700A4B00221A70094B01221A6000BF0837BD4680BD00BF9B65004080E100E03F84FF1F4084FF1F84
:404C80004184FF1F4284FF1F00E100E080B483B000AF0346FB7100BF074B1B78DBB203F00403002BF8D1054AFB79137000BF0C37BD4680BC704700BF69640040496500408A
:404CC00080B483B000AF0023FB712C4B1B78BB71BB797B71BB7903F01E03002B0CD097F9063003F01E035AB2254B1B785BB213435BB2DAB2224B1A70BB7903F02003002B19
:404D000031D0204B1B787B711F4B1B78DBB219461E4A7B7953540123FB71FB79002B22D01B4B1B78DBB2002B02D01A4B01221A70154B1B78DBB20133DAB2134B1A70124B61
:404D40001B78DBB25BB2002B02DA0F4B00221A700D4B1B78DAB2104B1B78DBB29A4202D10B4B01221A70BB7903F02003002BACD100BF0C37BD4680BC704700BF64650040A3
:404D80003E84FF1F4B6500404084FF1F9C89FF1F4184FF1F4284FF1F3F84FF1F80B400AF094A094B1B78DBB243F00403DBB21370064A064B1B78DBB243F00403DBB2137057
:404DC00000BFBD4680BC7047A2430040B243004080B500AF224A224B1B78DBB203F00103DBB213701F4A1F4B1B78DBB223F00303DBB213701C4A1C4B1B78DBB223F0300371
:404E0000DBB21370184A184B1B78DBB243F03003DBB21370144A144B1B78DBB223F00F03DBB21370104A104B1B78DBB243F00F03DBB213700D4A0D4B1B78DBB243F00103C5
:404E4000DBB2137045F6C95000F058F845F6C95000F066F8002000F041F800BF80BD00BF0C4F00400E4F0040174F00400D4F004080B400AF0D4A0D4B1B78DBB243F0020384
:404E8000DBB213700A4A0A4B1B78DBB243F00203DBB21370074A074B1B78DBB243F00103DBB2137000BFBD4680BC7047A3430040B34300400C4F004080B500AF064B1B7853
:404EC000002B04D1FFF784FF034B01221A70FFF7CFFF00BF80BD00BF4484FF1F80B483B000AF0346FB71044AFB79137000BF0C37BD4680BC704700BF0F4F004080B485B00B
:404F000000AF0346FB80FB88FB81044AFB89138000BF1437BD4680BC704700BF104F004080B483B000AF0346FB80044AFB88138000BF0C37BD4680BC704700BF124F0040A6
:404F400080B500AF064B1B78002B04D100F00AF8034B01221A7000F031F800BF80BD00BF4584FF1F80B500AF0D490120FFF700FD07210120FFF724FD0A4B00221A700A4BBD
:404F800072221A70094B20221A70094B06221A70084B47221A70084B00221A7000BF80BD215000004684FF1F8E6400408D6400402F6400403F6400408C64004080B582B063
:404FC00000AF00F0C0FC0346FB71114A104B1B78DBB243F02003DBB213700E4A0D4B1B78DBB243F01003DBB213700B4B02221A600A4A0A4B1B78DBB243F01003DBB213702C
:40500000FB79184600F0A3FC00BF0837BD4680BD9E6400409D64004000E100E09C64004080B483B000AF0023FB712C4B1B78BB71BB797B71BB7903F01E03002B0CD097F973
:40504000063003F01E035AB2254B1B785BB213435BB2DAB2224B1A70BB7903F02003002B31D0204B1B787B711F4B1B78DBB219461E4A7B7953540123FB71FB79002B22D077
:405080001B4B1B78DBB2002B02D01A4B01221A70154B1B78DBB20133DAB2134B1A70124B1B78DBB25BB2002B02DA0F4B00221A700D4B1B78DAB2104B1B78DBB29A4202D1FB
:4050C0000B4B01221A70BB7903F02003002BACD100BF0C37BD4680BC704700BF6D6400404684FF1F4E6400404884FF1F1C8AFF1F4984FF1F4A84FF1F4784FF1F80B485B042
:4051000000AF0346FB710A4B1B78DBB223F00103FB730749FB7903F00103DAB2FB7B1343DBB20B7000BF1437BD4680BC704700BF2051004080B500AF064B1B78002B04D1BE
:4051400000F00AF8034B01221A7000F023F800BF80BD00BF4C84FF1F80B500AF09490220FFF706FC07210220FFF72AFC064B06221A70064B47221A70054B02221A7000BFD4
:4051800080BD00BF9952000029640040396400408A64004080B582B000AF00F0D4FB0346FB710C4A0B4B1B78DBB243F01003DBB21370094B04221A60084B04221A6000F0AD
:4051C000A3F8FB79184600F0C2FB00BF0837BD4680BD00BF9A64004080E200E000E100E080B485B000AF0346FB71254B1B78FB73244B1B78BB73FA7BBB7B9A4208D2FA7B13
:40520000BB7B013B9A420CBF01230023DBB207E0FA7BBB7BD31A042B0CBF01230023DBB2002BE2D1BA7BFB7B9A420AD1164B1B78DBB203F00403002B03D1144AFB79137025
:4052400018E0FB7B042B01D90023FB73FB7B1049FA79CA54FB7B0133FB73094AFB7B1370094B1B78DBB203F00203002B02D0094B04221A6000BF1437BD4680BC704700BF46
:405280004E84FF1F4D84FF1F6A6400404A6400409C8AFF1F00E200E080B400AF17E0154B1B78DBB2042B02D9124B00221A70124B104A1278D2B21146104A525CD2B21A706E
:4052C0000C4B1B78DBB20133DAB20A4B1A70094B1B78DAB20A4B1B789A4206D0094B1B78DBB203F00403002BD9D000BFBD4680BC704700BF4D84FF1F4A6400409C8AFF1FB4
:405300004E84FF1F6A64004080B400AF094A094B1B78DBB243F00203DBB21370064A064B1B78DBB243F00203DBB2137000BFBD4680BC7047A2430040B243004080B500AF81
:40534000064B1B78002B04D100F00AF8034B01221A7000F03BF800BF80BD00BF5084FF1F80B500AF11490320FFF702FB07210320FFF726FB0E4B00221A700E4B72221A705A
:405380000D4B20221A700D490420FFF7F1FA07210420FFF715FB0A4B06221A70094B47221A70094B02221A7000BF80BD1D5600005384FF1F8765004088640040F5560000C5
:4053C00026650040366500408B64004080B582B000AF00F0B8FA0346FB71154A144B1B78DBB243F02003DBB21370124A114B1B78DBB243F01003DBB213700F4B08221A60FB
:405400000E4A0E4B1B78DBB243F01003DBB213700B4B10221A60084B10221A6000F0A2F9FB79184600F093FA00BF0837BD4680BD976500409864004000E100E09B640040B4
:4054400080E200E080B483B000AF1B4B08221A601A4B1B78BB711A4B1B787B71194B1B78DBB2002B03D1BA797B799A4217D0BB79154AD35CFB71BB790133BB71BB79132B21
:4054800001D90023BB710D4ABB7913700D4B1B78DBB2002B06D00B4B00221A7002E00B4B1B78FB710A4B08221A60FB7918460C37BD4680BC704700BF80E100E05484FF1F09
:4054C0005584FF1F5684FF1FAC8AFF1F4465004000E100E080B483B000AF1D4B08221A601C4B1B78DAB21C4B1B78DBB29A420AD11A4B1B78DBB2002B02D01423FB711DE0B7
:405500000023FB711AE0134B1B78DAB2124B1B78DBB29A4208D2104B1B78DAB20D4B1B78DBB2D31AFB7109E00B4B1B78DAB2094B1B78DBB2D31ADBB21433FB71084B08226B
:405540001A60FB7918460C37BD4680BC704700BF80E100E05484FF1F5584FF1F5684FF1F00E100E080B485B000AF0346FB71254B1B78FB73244B1B78BB73FA7BBB7B9A420B
:4055800008D2FA7BBB7B013B9A420CBF01230023DBB207E0FA7BBB7BD31A072B0CBF01230023DBB2002BE2D1BA7BFB7B9A420AD1164B1B78DBB203F00403002B03D1144A47
:4055C000FB79137018E0FB7B072B01D90023FB73FB7B1049FA79CA54FB7B0133FB73094AFB7B1370094B1B78DBB203F00203002B02D0094B10221A6000BF1437BD4680BC33
:40560000704700BF5284FF1F5184FF1F6B64004048640040A48AFF1F00E200E080B483B000AF0023FB712B4B1B78BB71BB797B71BB7903F01E03002B0CD097F9063003F002
:405640001E035AB2244B1B785BB213435BB2DAB2214B1A70BB7903F02003002B30D01F4B1B787B711E4B1B78DBB219461D4A7B7953540123FB71FB79002B21D01A4B1B78A9
:40568000DBB2002B02D0194B01221A70144B1B78DBB20133DAB2124B1A70114B1B78DBB2132B02D90E4B00221A700D4B1B78DAB20F4B1B78DBB29A4202D10B4B01221A70EC
:4056C000BB7903F02003002BADD100BF0C37BD4680BC7047686400405384FF1F446500405584FF1FAC8AFF1F5684FF1F5784FF1F5484FF1F80B400AF17E0154B1B78DBB249
:40570000072B02D9124B00221A70124B104A1278D2B21146104A525CD2B21A700C4B1B78DBB20133DAB20A4B1A70094B1B78DAB20A4B1B789A4206D0094B1B78DBB203F097
:405740000403002BD9D000BFBD4680BC704700BF5184FF1F48640040A48AFF1F5284FF1F6B64004080B400AF094A094B1B78DBB243F00103DBB21370064A064B1B78DBB2FA
:4057800043F00103DBB2137000BFBD4680BC7047A2430040B243004080B500AF00F054F900F064F900BF80BD80B500AFFFF7F4FF00BF80BD80B584B000AF03460A46FB7143
:4057C0001346BB8000F0C0F9BB88B3F5006F70D2BB881B097B817B891B019BB2BA88D31A3B8100F0E5FA0346002B5FD1FA1D39890123402000F0F6F9F860FB68072B4CD15C
:405800004FF0FF33FB6000BF2D4B1B78DBB203F00203002BF8D02A4B1B78DBB203F00203002B08D0264B1B78DBB29B08DBB2002B01D10023FB60FB68002B2AD1214B1A7807
:40584000204B5B787989402000F034FA0346072B1BD14FF0FF33FB6000BF194B1B78DBB203F00203002BF8D0154B1B78DBB203F00203002B17D0124B1B78DBB29B08DBB2D2
:40588000002B10D10023FB600DE04FF0FF33FB6009E04FF0FF33FB6005E0FB68012B02D04FF0FF33FB6000F0B7FA04E00423FB6001E00123FB60FB6818461037BD4680BD2F
:4058C00022470040C08AFF1F80B584B000AF0346FB8000F038F80346FB7300F00DF9FB8803F1804303F500431B78BB7300F01CF9FB7B184600F02BF8BB7B18461037BD46EE
:4059000080BD00BF00000000142816D902B4012114381049097811F0C001890904B40E4A515C04BC00BF00BF00BF8841FDD500BF00BF02BC704700BF00BF70F10400FCD5F2
:4059400070470B050709EFF3108072B6704780F310887047004800404259000080B582B000AF00F0F1F84FF0FF337B6000F020FA0346002B24D1012000F0E8F90346072BFF
:405980001BD10221124800F003F90346022B0DD100237B6002E00120FEF7D6FF0D4B1B78DBB203F00203002BF5D006E0094B1B78DBB203F00203002BE3D000F02DFA01E0EB
:4059C00004237B607B6818460837BD4680BD00BFC08AFF1F2247004080B582B000AF00F0B3F800F0E5F90346002B23D100F03CFA78607B68072B1AD102E00120FEF7A4FF95
:405A0000104B1B78DBB203F00203002BF5D00D4B1B78DBB203F00203002B08D0094B1B78DBB29B08DBB2002B01D100237B6000F0F3F901E004237B607B6818460837BD46AF
:405A400080BD00BF2247004080B582B000AFFFF7C3FF78607B68002B02D1FFF77FFF78607B6818460837BD4680BD00BF80B582B000AFFFF768FF0346FB71194A184B1B78AE
:405A8000DBB243F00803DBB21370164A154B1B78DBB243F00803DBB21370134BC8221A70124A124B1B78DBB243F01003DBB213700F4A0F4B1B78DBB243F01003DBB21370B3
:405AC00000BF0C4B1B78DBB203F02003002BF8D0FB791846FFF73BFF00BF0837BD4680BDA0430040B043004001470040AC430040BC4300400047004080B400AF094A094BCA
:405B00001B78DBB243F00103DBB2137000BF054B1B78DBB203F00203002BF8D000BFBD4680BC70470247004080B400AF054A054B1B78DBB223F00103DBB2137000BFBD461B
:405B400080BC70470247004080B582B000AFFFF7FAFE0346FB710C4A0B4B1B78DBB243F00803DBB21370094A084B1B78DBB243F00803DBB21370FB791846FFF7E8FE00BF55
:405B80000837BD4680BD00BFA0430040B043004080B584B000AF78600B46FB700023FB7313E00120FEF7D0FE0C4B1B78DBB203F00103002BF5D0FB7B7A681344084A127854
:405BC000D2B21A70FB7B0133FB73FA7BFB789A42EAD3FB7B18461037BD4680BD224700402047004080B485B000AF3A601A460346FB710B46BB801346BB710723FB60FB7982
:405C00003E2B02D8BB791F2B05D9FB793F2B45D9BB790F2B42D8254B1B78DBB203F00203002B38D0224BB6221A70214BD4221A701F4B01221A701D4B1B78DBB203F0020334
:405C4000002B25D11A4AFB791370194ABB881B0A9BB2DBB203F00103DBB21370144BBA88D2B21A70124ABB79013BDBB213700023FB7208E00E49FB7A3A6813441B780B7026
:405C8000FB7A0133FB72FA7ABB799A42F2D307E00923FB6004E00423FB6001E00123FB60FB6818461437BD4680BC7047224700402047004090B484B000AF044608461146E9
:405CC0001A462346FB710346BB800B46BB711346FB700723FB601B4B1B78DBB203F00203002B26D0184BB6221A70174BD8221A70154B05221A70134B1B78DBB203F0020354
:405D0000002B13D1104AFB7913700F4ABB881B0A9BB2DBB213700C4BBA88D2B21A700A4ABB791370084AFB78137004E00923FB6001E00423FB60FB6818461037BD4690BCC6
:405D4000704700BF224700402047004080B485B000AF0346FB710723FB60134B1B78DBB203F00203002B16D0104BB6221A700F4BE1221A700D4B0E221A700B4B1B78DBB258
:405D800003F00203002B03D1084AFB79137004E00923FB6001E00423FB60FB6818461437BD4680BC704700BF224700402047004080B582B000AF04237B60FFF7C4FD0346AC
:405DC000FB70124B1B78002B16D1104B01221A7000237B600E4B1B6803F00103002B0BD00B4A0B4B1B6823F00103136000BF00BF00BF084B01221A60FB781846FFF7A7FD07
:405E00007B6818460837BD4680BD00BF5C84FF1F040008406084FF1F80B582B000AFFFF792FD0346FB710D4B00221A700C4B1B68012B0BD10B4A0B4B1B6843F00103136089
:405E400000BF00BF00BF064B00221A60FB791846FFF77DFD00BF0837BD4680BD5C84FF1F6084FF1F0400084080B483B000AF07237B600C4B1B78DBB203F00203002B09D09E
:405E8000094BB6221A70084BE0221A70064B0D221A7001E004237B607B6818460C37BD4680BC70472247004020470040014B1868704700BF1484FF1F0E4B70B51E460E4C62
:405EC0000025E41AA410A54204D056F8253098470135F8E700F0D2F8084B094C1E46E41AA4100025A54204D056F8253098470135F8E770BD886000008860000088600000A5
:405F00009060000010B5431E0A44914204D011F8014B03F8014FF8E710BD00000000000028000000300000003800000040000000480000004800000048000000480000001A
:405F40003884FF1F3884FF1F3884FF1F3884FF1F3884FF1F3884FF1F3884FF1F3884FF1F3884FF1F3884FF1F3884FF1F000000480800004810000048180000482800004803
:405F80003400004840000048CC080048EC080048200000484C000048CC0000484C010048CC0100484C020048CC0200484C030048CC0300484C040048CC0400484C05004828
:405FC000CC0500484C060048CC0600484C070048CC0700484C0800480C0900481C0900482C090048AC0900482C0A0048AC0A00482C0B0048AC0B00482C0C0048AC0C0048C4
:406000002C0D0048AC0D00482C0E0048AC0E00482C0F0048AC0F00482C100048AC1000482C110048AC1100482C120048AC1200482C130048AC1300482C140048AC14004818
:406040002C150048AC1500482C160048AC1600482C170048AC1700482C180048AC1800482C190048AC1900482C1A0048AC1A00482C1B0048AC1B004843000000F8B500BF49
:40608000F8BC08BC9E46704725030000D5460000F8B500BFF8BC08BC9E46704701030000B0600000C880FF1F50030000B0060000000000000A00000047000000204553542B
:4060C0004143494F4E20444520534552564943494F2000002020202050525545424153204D455053414E20202020000020202054656C3A20283537293132333435362020E2
:40610000202000002020204E49543A203930302E3132332E34353620202000003132332D4142430020534953504554524F4C20494E47454E49455249412000002020534F85
:406140004C5543494F4E455320504152412045445320000044696573656C2020436F727269656E746500000046656368612020202020203A20000000486F72612020202021
:406180002020203A20000000506C6163612020202020203A200000004B696C6F6D657472616A653A200000005469706F202020202020203A20000000506F736963696F6E3F
:4061C0002020203A2000000050726F647563746F2020203A2000000050707520202020202020203A20000000566F6C756D656E202020203A20000000546F742E566F6C20D6
:406200002020203A2000000044696E65726F20202020203A20000000436965727265204E6F20203A20000000436F6E736563757469766F3A2000000053616C646F20202039
:406240002020203A20000000456D7072657361202020203A200000004375656E746120202020203A2000000053657269616C20202020203A200000005469706F2043756530
:406280006E74613A2000000056697369746173204469613A20000000566973697461732053656D3A2000000056697369746173204D65733A20000000566F6C756D656E20CC
:4062C0004469613A20000000566F6C756D656E2053656D3A20000000566F6C756D656E204D65733A2000000044696E65726F20446961203A2000000044696E65726F20534F
:40630000656D203A2000000044696E65726F204D6573203A2000000056616C6F722050726F672E3A200000004669726D612020202020203A20000000436564756C61202016
:406340002020203A200000002400000056616C6F722061637475616C3A20202056616C6F7220616E746572696F723A202A2A2A2A2A2A2A2A2A2A2A2A2A2A2A2A2A2A2A2ADD
:406380002A2A2A2A5AA503812007000000366E01C05D0000180000000000E02E000000000000000000000000000000000000000000000000000000000000000078600000CB
:4063C000000000000000000000000000000000000000000000000000000000000000000000000000000000000000000000000000000000000000000000000000B483FF1F48
:40640000000000000000000000000000000000000000000000000000000000000000000000000000000000000000000000000000000000000000000000000000000000005C
:40644000000000000000000000000000000000000000000000000000000000000000000000000000000000000000000000000000000000000000000000000000000000001C
:4064800000000000000000000000000000000000000000000000000000000000000000000000000000000000000000000000000000000000000000000000000000000000DC
:4064C000000000000000000000000000000000000000000000000000000000000000000000000000000000000000000000000000000000000000000000000000000000009C
:020000040003F7
:0200000480007A
:400000008000000040000000000000000D00000080800000080000002000000010000000FF03000000000000004000000000000000009C00008000000000000000004B0012
:40004000008000000000000000004B0000000000000000000000000000000000000000000000000000000000000000000000000000000000000000000000000000000000B5
:40008000000000008000000000004000000000000000000000000000000000000000000000000000040000000000000100000000000000000000000000000000000000007B
:4000C0000000000000000000000000000000021500030234002A001400000100000000000003001C00030204000001000000000002000000020000280000002002000138C1
:40010000000F0000000000280000050031020000000C00EB31FFFFFF0000F0440C000000180004000404040400000001000000000000C000000040020000000000000000BC
:4001400000000000000000000000000000000000000C007100000003001402000000000000DC0022000900D001000020000002000000000000100040001000AC0200011FC1
:4001800000E000000000002000000500060000000000000400FF07FF4020F0050800000001000000040404041021000140A840200000000000000000000000000000000043
:4001C000000000000000000000000000000000001B23201C52002001000029000000000000184027000000181B0060000440000718002000800000100023000C8001041EF2
:400200000360780020208008000015015402000000E0CB000EFFFFFF0000F0440C000000010004000404040411110001000000000000C0000000400200000000000000007F
:400240000000000000000000000000000002000000000000000000000000000000000000000000000000000000000000000100000000010000000000000000000000000179
:400280000102000000000000000000146204000000000ECB34FFFFFF0000F0440C000000010004000404040403030001000000000000C00000004002000000000000000059
:4002C00000000000000000000000000003B004470071788800C300300000400000400003232454417A01040E43022C010000000000500500A00000800000088000001F7FA3
:400300008000608000008800000010400000000000000000000000000000000000000000010000000404000433300001000000000000000000000000000000000000000014
:400340000000000000000000000000001F0000000C7E1200007E00000002000000480024000004000400000104201950000000001F14002800000B0100000000000C1002BB
:4003800007010870080022000000001000000000000000000000000000000000000000001C00040004040004333000010000000000000000000000000000000000000000F3
:4003C0000000000000000000000000007F00001059062609000410020000000F0003790426005900004F000037004820044F000002000010064600095141200E40303008AC
:4004000007070E400000A8200000004123060500040E0C0005FFFFFF62A0F0410C00000000000213040404043333000100000000000040020010301000101012000000007A
:40044000000000000000000000000000000000000000900000000000000000000000000065009800D0000D00650018000000000002002C0000000000000000006000030004
:400480001C0088000A00A00000000100040000000000004000FF07FF4020F0050800000000000000040004000303000140A8402000000000000000000000000000000000F0
:4004C0000000000000000000000000007800040000144649001F0800080A01514E013026388042007E800000008080002000000010000000301F0000008080003E070118D8
:400500008060708000000200000010504603010002C0E0000AFFFFFF62A0F0410C0000001C0004000404040400200001000000000000400200103010001010120000000042
:400540000000000000000000000000000000000000000000000000000000010000000000020200000000000000010000000000000100000001000000000000000001000072
:40058000000003028000000000000041000000000000000000000000000000000000000000000000040400000000000100000000000000000000000000000000000000006C
:4005C00000000000000000000000000000000008330044000000000324004000000C0C030000010000010006500000007200080C0001000E43003000400000007C000000DE
:400600000000030F8000008000004000010000000000004000FF07FF4020F0050800000000000000040404000000000140A840200000000000000000000000000000000070
:40064000000000000000000000000000000000000000CB008202000041000000CF023000F0000F00FF000000C30000002000000110000000300200003000CF01F00138009C
:400680000402030020000A080000000100000000000000000000000000000000000000000000021304040004000000010000000000000000000000000000000000000000DC
:4006C00000000000000000000000000000000000003F00000C0012001F000000000104000C241112000000001F10002804002000000A0314003F000000000000200007061E
:40070000100108382000080200004000000000000000000000000000000000000000000000000213040400042220000100000000000000000000000000000000000000009A
:400740000000000000000000000000004000037881200E0000A30054247A418400000000300347840000008550000000710008080240010043C3302C000000000000801F1D
:400780007F60008000000028000004406502000000E00B0C16FFFFFF0000F0440C000000000000000404040022020001000000000000C0000000400200000000000000008A
:4007C00000000000000000000000000000000000000000040003000000000000000000000000000414002101000022082200150008001100140323000002000031000003CE
:40080000030C0C008008220000000014030000000000040000FF07FF4020F0050800000000000000040404000202000140A84020000000000000000000000000000000001D
:4008400000000000000000000000000010060009060300040026790959002610000400023700482F51002010042F000000000000260059000201002E7F2F000030070E10FA
:400880004008072000008A020000000453040100020C00E021FFFFFF62A0F0410C0000000000000004040400220200010000000000004002001030100010101200000000A1
:4008C000000000000000000000000000000000000000000000000000000000000000000000000000380F0F0F0F3C72000000000000000000000000000000000000000000D6
:400900003C0000727200000000000000050000000000000000000500040000000F00000000000000000000000F000800000000000000000000000000000000000000000063
:4009400000000000000000000000000000000000000000000000000000000000000000000080000100000000000000000000000000000000000000000000000000000000F6
:4009800000000000000000000000000000000000000000000200080000000000000000000000000000000000000000000000000000000000008000000000000000000000AD
:4009C00000000000000000000000000000000000000000000000000000000000000000000000000000000000000000000000000000000000000000000000000000000000F7
:400A000000000000000000000000000000000000000000020000000000000000000000000000000000000000000000000000000000000000000000000000000000000000B4
:400A40000000000000000000000000000000000000000000000000000000000000000000040000000000000000000000000002000000000000000000000000000000000070
:400A8000000001000000000000000000000000000000000008000000000000000000000000000000000000000000000000000000000000000000000000000000000000002D
:400AC00008000000000000000000000000000000000000000000000000000000000000080002000000000000000000000000000000000000000000000000000000000000E4
:400B000000000000000000000000000000000000000000000400020000000000000000000000000000000000000000000002000000000000000000000000000000000000AD
:400B40000000000000000000000000000000000000000000000000000000000000000000000000000000000000000000000000000000000000000000000000000000000075
:400B8000000000080000000000000000000000000000000000000000000000000000000000000000000000000000000000000000000000000000000000000000000000002D
:400BC00008000000000000000000000000000000000000000000020000000000000000000000000000000000000000000800000000000000000000000000000000000000E3
:400C000002000000000000000000000000000000000000000000000000000000000000000000000000000000000000000000020000000000000000000000000000000000B0
:400C40000000000000000000000000000000000000000000000000000000000000000000000000000000000000000000000000000000000000000000000000000400000070
:400C80000000000000000000000000000000000000000000000000000000000000000000000000000000000000000000000000000000000000000000000000000000000034
:400CC00000000000000000000000000000000000000000000000000000000000000000000000000000000000000000000200000000000000000000000000000000000000F2
