:400000000080002011000000154800001548000080B500AF024A034B1B68136004F004FCBC760040FA460040010000000020004001000000002001400100000000480040AF
:400040000100000000480140010000000100000008000223000008760800032300001076080004230000287608000523000030760500062300002070050007230000307065
:4000800005000823000060700500FE230000707010000A220000005130000B22000040511000FE220000C05180030D220000000080000E220000800480010F2200000006E0
:4000C00080001022000000410001112200000044800012220000004780001322000000488000FE220000004D070015230000085207001623000010520700172300001852CA
:4001000007001823000078520C0019230000004F0C001A2300000C4F0C001B230000184F20001C23000070642000FE230000706508001E230000005180001F23000000041E
:4001400080002023000000088000212300008008800022230000000A800023230000800A800024230000000C800025230000800C800026230000000E800027230000800EF3
:400180008000282300000014800029230000801480002A230000001680002B230000801680002C230000001880002D230000801880002E230000001A80002F230000801A13
:4001C00010003023000010501000312300000050800032230000804D800033230000004C800034230000804C800035230000804780003623000000468000372300008046C3
:400200008000382300000045800039230000804580003A230000001B80003B230000801B80003C230000001580003D230000801580003E230000001980003F2300008019AE
:4002400080004023000000178000412300008017800042230000000980004323000080098000442300008007800045230000000B800046230000800B8000472300000005E8
:400280008000482300008005800049230000000D80004A230000800D80004B230000800380004C230000000F80004D230000800F80004E230000004980004F230000804978
:4002C00080005023000080488000512300000043800052230000804380005323000000428000542300008042800055230000804180005623000000408000FE230000804010
:4003000010B5054C237833B9044B13B10448AFF300800123237010BDF883FF1F00000000245A0000084B10B51BB108490848AFF300800848036803B910BD074B002BFBD0D1
:40034000BDE81040184700BF00000000FC83FF1F245A0000C880FF1F0000000090B583B000AF684B1B78FF2B07D0664B93F82331FF2B02D1644B01221A70624B1B78FF2B28
:4003800007D0604B93F82331FF2B02D05E4B02221A705C4B93F84632FF2B07D0594B93F86933FF2B02D1584B03221A70554B93F84632FF2B07D0534B93F86933FF2B02D05F
:4003C000514B04221A70504B1B78012B09D14D4B1B78184602F01AF903461A46494B83F84C20494B1B78022B14D1464B1B78184602F00CF903461A46424B83F84C20414B70
:4004000093F82331184602F001F903461A463D4B83F86F213C4B1B78032B2ED10023FB7128E0FC79374B1B78184602F0EFF803461A46344B234483F84C20FC79314B93F8C6
:400440002331184602F0E2F803461A462D4B234483F86F21FC792B4B93F84632184602F0D5F803461A46274B234483F89222FB790133FB71FB79042BD3D9234B1B78042B1C
:400480003BD10023FB7135E0FC791E4B1B78184602F0BCF803461A461A4B234483F84C20FC79184B93F82331184602F0AFF803461A46144B234483F86F21FC79114B93F837
:4004C0004632184602F0A2F803461A460D4B234483F89222FC790B4B93F86933184602F095F803461A46074B234483F8B523FB790133FB71FB79042BC6D900BF0C37BD4624
:4005000090BD00BF3C84FF1F4489FF1F90B583B000AFAC4B03221A7004F01AFA62B604F055FB04F0EFFD04F0E7FE04F0E9FF04F0A5FDA54B012283F82920A34B042283F824
:400540002A20A14B202283F82B209F4B002283F84C219D4B842283F84D219B4B552283F84E21994B93F829301B09DBB23033DAB2954B83F80B21944B93F8293003F00F03D4
:40058000DBB23033DAB2904B83F80C218E4B93F82A301B09DBB23033DAB28B4B83F80D21894B93F82A3003F00F03DBB23033DAB2854B83F80E21844B93F82B301B09DBB245
:4005C0003033DAB2804B83F80F217F4B93F82B3003F00F03DBB23033DAB27B4B83F81021794B93F84C311B09DBB23033DAB2764B83F82E22744B93F84C3103F00F03DBB2A2
:400600003033DAB2704B83F82F226F4B93F84D311B09DBB23033DAB26B4B83F830226A4B93F84D3103F00F03DBB23033DAB2664B83F83122644B93F84E311B09DBB23033D3
:40064000DAB2614B83F832225F4B93F84E3103F00F03DBB23033DAB25B4B83F833220023FB710BE0FC79FB79184601F009FF03461A46564B1A55FB790133FB71FB790F2B93
:40068000F0D9524B5A78504B1A70504B9A784E4B83F823214D4BDA784B4B83F846224B4B1A79494B83F86923474B00221A70464B012283F82321464B00221A70454B012210
:4006C0001A7004F0E9FF03467B707B78082B12D90023BB7109E0BC7904F096FF03461A463D4B1A55BB790133BB71BA797B789A42F1D300237B705A2005F016F8364B1B7ABE
:40070000302B18D1304B1B783449184602F040F82D4B1B78184601F00BFF00237B7106E07B792D4A0021D1547B7901337B717B79132BF5D901E0FFF711FE274B1B7A352BF7
:4007400023D1214B1B78184601F060FF1E4B18781F4B1B780122194602F0A6F81A4B1B78184601F053FF00233B7106E03B791A4A0021D1543B7901333B713B79132BF5D9D0
:40078000114B1B78184602F015F9134B1B7A362B36D10D4B93F82331184601F037FF0A4B93F823010A4B1B780122194602F07CF8054B93F82331184601F028FF0023FB70CE
:4007C00015E000BF0E89FF1F3C84FF1FCC88FF1F4289FF1F4389FF1F4C89FF1F6584FF1FFB782A4A0021D154FB780133FB70FB78132BF5D9264B93F82331184602F0DAF843
:40080000224B1B7A372B7FF45CAF214B1B78184601F0FCFE1E4B18781E4B1B780122194602F042F81A4B1B78184601F0EFFE184B93F82331184601F0E9FE154B93F8230130
:40084000144B1B780122194602F02EF8104B93F82331184601F0DAFE0023BB7006E0BB780A4A0021D154BB780133BB70BB78132BF5D9074B1B78184603F0BEFA044B93F8F1
:400880002331184603F0B8FA1BE700BF4C89FF1F3C84FF1F4289FF1F80B489B000AF78600B467B800023FB830023BB617B68002B2FD1002368E0FB8BDB0B9BB2BB60FB8B73
:4008C0005B00FB837B681B781A46BB6942FA03F31BB203F001031AB2B7F91E3013431BB2FB83BB690133BB61BB69072B07DD0023BB617B6801337B607B88013B7B80BB6888
:40090000002B06D0FB8B83F4FF4383F07A03DB43FB837B88002BCED100237B6113E0FB8BDB0B9BB2BB60FB8B5B00FB83BB68002B06D0FB8B83F4FF4383F07A03DB43FB830A
:400940007B6901337B617B690F2BE8DD00237B824FF400437B610123FB6011E0FA8B7B691340002B06D0FB681AB2B7F9123013431BB27B827B695B107B61FB685B00FB606C
:400980007B69002BEAD17B8A18462437BD4680BC704700BFF0B585B000AF164B1B787B70144B5B7803F00F033B70134B1B783A789A4240F072830123FB730CE0FB7B013BDC
:4009C000FA7B0C49895C0C4A13440A4683F85120FB7B0133FB73FA7B7B7801339A42EDDB054B93F85330652B40F03E820523BB7325E000BFDC88FF1F3C84FF1FCD4B93F80C
:400A0000553003F00F03591ECB4B1B781D46BB7B581FBB7BC74A134493F85160C54C2A4692002A440B469B000B445B00134423440344013332461A70BB7B0133BB73BA7B03
:400A4000BC4B93F8543004339A42D7DBB94B93F8553003F00F03591EB74B1B781D46B54B93F8553003F00F03581EB34B1B78B14C1A4692001A4403469B0003445B001344CD
:400A8000234401331B781B09DBB23033DCB2A9482A4692002A4453001A460B461B015B1A5B0013440344833322461A70A14B93F8553003F00F03591E9F4B1B781D469D4B8F
:400AC00093F8553003F00F03581E9B4B1B78994C1A4692001A4403469B0003445B001344234401331B7803F00F03DBB23033DCB290482A4692002A4453001A460B461B01C7
:400B00005B1A5B0013440344843322461A70894B93F8553003F00F03591E874B1B781D46844B93F8553003F00F03581E824B1B78804C1A4692001A4403469B0003445B001A
:400B40001344234402331B781B09DBB23033DCB278482A4692002A4453001A460B461B015B1A5B0013440344853322461A70714B93F8553003F00F03591E6F4B1B781D46ED
:400B80006C4B93F8553003F00F03581E6A4B1B78684C1A4692001A4403469B0003445B001344234402331B7803F00F03DBB23033DCB260482A4692002A4453001A460B46FC
:400BC0001B015B1A5B0013440344863322461A70584B93F8553003F00F03591E564B1B781D46544B93F8553003F00F03581E524B1B78504C1A4692001A4403469B00034489
:400C00005B001344234403331B781B09DBB23033DCB248482A4692002A4453001A460B461B015B1A5B0013440344873322461A70404B93F8553003F00F03591E3E4B1B78C3
:400C40001D463C4B93F8553003F00F03581E3A4B1B78384C1A4692001A4403469B0003445B001344234403331B7803F00F03DBB23033DCB22F482A4692002A4453001A46E9
:400C80000B461B015B1A5B0013440344883322461A70284B93F8553003F00F03591E264B1B781D46234B93F8553003F00F03581E214B1B781F4C1A4692001A4403469B00AF
:400CC00003445B001344234404331B781B09DBB23033DCB217482A4692002A4453001A460B461B015B1A5B0013440344893322461A70104B93F8553003F00F03591E0E4BDD
:400D00001B781D460B4B93F8553003F00F03581E094B1B78074C1A4692001A4403469B0003445B001344234404331B7803F00F03DBB203E03C84FF1F4289FF1F3033DCB217
:400D4000C2482A4692002A4453001A460B461B015B1A5B00134403448A3322461A70BB4B93F8553003F00F03591EB94B1B781D46B64B93F8553003F00F03581EB44B1B7812
:400D8000B24C1A4692001A4403469B0003445B001344234405331B781B09DBB23033DCB2AA482A4692002A4453001A460B461B015B1A5B00134403448B3322461A70A34BA6
:400DC00093F8553003F00F03591EA14B1B781D469E4B93F8553003F00F03581E9C4B1B789A4C1A4692001A4403469B0003445B001344234405331B7803F00F03DBB230335D
:400E0000DCB292482A4692002A4453001A460B461B015B1A5B00134403448C3322461A708C4B04221A70012004F04AFA3B7843F05003DBB2184604F00BF8844B93F85230C4
:400E40005BB203F00F035BB263F03F035BB2DBB2184603F0FDFFFA2003F0FAFF042003F047FE002004F02CFA784B93F85330022B40F0138104237B731BE07B7B043B7A7B3F
:400E800072490A4492F85110704A13440A4683F839207B7B043B7A7B04326C490A4492F851106A4A13440A4683F835207B7B01337B737B7B072BE0D9644B93F839301B09D0
:400EC000DBB23033DAB2614B83F803215F4B93F8393003F00F03DBB23033DAB25B4B83F804215A4B93F83A301B09DBB23033DAB2564B83F80521554B93F83A3003F00F03B0
:400F0000DBB23033DAB2514B83F806214F4B93F83B301B09DBB23033DAB24C4B83F807214A4B93F83B3003F00F03DBB23033DAB2464B83F80821454B93F83C301B09DBB214
:400F40003033DAB2414B83F80921404B93F83C3003F00F03DBB23033DAB23C4B83F80A2100233B7314E097F90C30384A134493F80331302B11D197F90C30344A13440022F8
:400F800083F8032197F90C30DBB20133DBB23B7397F90C30072BE6DD00E000BF2B4B93F835301B09DBB23033DAB2284B83F8FB20264B93F8353003F00F03DBB23033DAB279
:400FC000224B83F8FC20214B93F836301B09DBB23033DAB21D4B83F8FD201C4B93F8363003F00F03DBB23033DAB2184B83F8FE20164B93F837301B09DBB23033DAB2134BCA
:4010000083F8FF20114B93F8373003F00F03DBB23033DAB20D4B83F800210C4B93F838301B09DBB23033DAB2084B83F80121074B93F8383003F00F03DBB23033DAB2034B65
:4010400083F802210023FB721BE000BF3C84FF1F4289FF1F4389FF1F97F90B30214A134493F8FB30302B11D197F90B301D4A1344002283F8FB2097F90B30DBB20133DBB2FD
:40108000FB7297F90B30072BE6DD00E000BF164B01221A70002004F013F9124B93F823313A789A4240F04B830123BB720CE0BB7A013BBA7A0D49895C0A4A13440A4683F8DB
:4010C0007421BB7A0133BB72BA7A7B7801339A42EDDB044B93F87631652B40F0548205237B7227E03C84FF1F4389FF1FDC88FF1FCD4B93F8783103F00F03591ECB4B1B78D8
:401100001D467B7A581F7B7AC74A134493F87461C54C2A4692002A440B469B000B445B0013442344034403F5927332461A707B7A01337B727A7ABC4B93F8773104339A42B1
:40114000D6DBB94B93F8783103F00F03591EB74B1B781D46B44B93F8783103F00F03581EB24B1B78B04C1A4692001A4403469B0003445B001344234403F592731B781B0990
:40118000DBB23033DCB2A8482A4692002A4453001A460B461B015B1A5B001344034403F5D37322461A70A04B93F8783103F00F03591E9E4B1B781D469B4B93F8783103F00C
:4011C0000F03581E994B1B78974C1A4692001A4403469B0003445B001344234403F592731B7803F00F03DBB23033DCB28E482A4692002A4453001A460B461B015B1A5B0030
:401200001344034403F2A71322461A70864B93F8783103F00F03591E844B1B781D46824B93F8783103F00F03581E804B1B787E4C1A4692001A4403469B0003445B00134458
:40124000234403F225131B781B09DBB23033DCB275482A4692002A4453001A460B461B015B1A5B001344034403F5D47322461A706D4B93F8783103F00F03591E6B4B1B7808
:401280001D46694B93F8783103F00F03581E674B1B78654C1A4692001A4403469B0003445B001344234403F225131B7803F00F03DBB23033DCB25C482A4692002A44530034
:4012C0001A460B461B015B1A5B001344034403F2A91322461A70544B93F8783103F00F03591E524B1B781D464F4B93F8783103F00F03581E4D4B1B784B4C1A4692001A44D3
:4013000003469B0003445B001344234403F593731B781B09DBB23033DCB243482A4692002A4453001A460B461B015B1A5B001344034403F5D57322461A703B4B93F87831C1
:4013400003F00F03591E394B1B781D46364B93F8783103F00F03581E344B1B78324C1A4692001A4403469B0003445B001344234403F593731B7803F00F03DBB23033DCB20F
:4013800029482A4692002A4453001A460B461B015B1A5B001344034403F2AB1322461A70214B93F8783103F00F03591E1F4B1B781D461D4B93F8783103F00F03581E1B4B20
:4013C0001B78194C1A4692001A4403469B0003445B001344234403F227131B781B09DBB23033DCB210482A4692002A4453001A460B461B015B1A5B001344034403F5D67366
:4014000022461A70084B93F8783103F00F03591E064B1B781D46044B93F8783103F00F03581E024B1B7803E03C84FF1F4289FF1F594C1A4692001A4403469B0003445B006D
:401440001344234403F227131B7803F00F03DBB23033DCB250482A4692002A4453001A460B461B015B1A5B001344034403F2AD1322461A70484B93F8783103F00F03591EE9
:40148000464B1B781D46444B93F8783103F00F03581E424B1B78404C1A4692001A4403469B0003445B001344234403F594731B781B09DBB23033DCB237482A4692002A4404
:4014C00053001A460B461B015B1A5B001344034403F5D77322461A702F4B93F8783103F00F03591E2D4B1B781D462B4B93F8783103F00F03581E294B1B78274C1A46920001
:401500001A4403469B0003445B001344234403F594731B7803F00F03DBB23033DCB21E482A4692002A4453001A460B461B015B1A5B001344034403F2AF1322461A70184B84
:4015400005221A70012003F0BBFE3B7843F05003DBB2184603F07CFC0F4B93F875315BB203F00F035BB263F03F035BB2DBB2184603F06EFCFA2003F06BFC042003F0B8FA8D
:40158000002003F09DFE044B93F87631022B40F0D68004233B7221E03C84FF1F4289FF1F4389FF1F3B7A043B3A7A77490A4492F87411754A13440A4683F85C213B7A043BAC
:4015C0003A7A043270490A4492F874116E4A13440A4683F858213B7A01333B723B7A072BE0D9694B93F85C311B09DBB23033DAB2654B83F82622644B93F85C3103F00F03B7
:40160000DBB23033DAB2604B83F827225E4B93F85D311B09DBB23033DAB25B4B83F82822594B93F85D3103F00F03DBB23033DAB2554B83F82922544B93F85E311B09DBB2E4
:401640003033DAB2504B83F82A224F4B93F85E3103F00F03DBB23033DAB24B4B83F82B22494B93F85F311B09DBB23033DAB2464B83F82C22444B93F85F3103F00F03DBB2A1
:401680003033DAB2404B83F82D223F4B93F858311B09DBB23033DAB23B4B83F81E223A4B93F8583103F00F03DBB23033DAB2364B83F81F22344B93F859311B09DBB2303368
:4016C000DAB2314B83F820222F4B93F8593103F00F03DBB23033DAB22B4B83F821222A4B93F85A311B09DBB23033DAB2264B83F82222254B93F85A3103F00F03DBB230330B
:40170000DAB2214B83F823221F4B93F85B311B09DBB23033DAB21C4B83F824221A4B93F85B3103F00F03DBB23033DAB2164B83F82522164B02221A70002003F0C1FD124B4B
:4017400093F846323A789A4240F042830123FB710CE0FB79013BFA790D49895C0A4A13440A4683F89722FB790133FB71FA797B7801339A42EDDB044B93F89932652B40F023
:4017800051820523BB7127E03C84FF1F4389FF1FDC88FF1FCD4B93F89B3203F00F03591ECB4B1B781D46BB79581FBB79C74A134493F89762C54C2A4692002A440B469B0081
:4017C0000B445B0013442344034403F2472332461A70BB790133BB71BA79BC4B93F89A3204339A42D6DBB94B93F89B3203F00F03591EB74B1B781D46B44B93F89B3203F0D6
:401800000F03581EB24B1B78B04C1A4692001A4403469B0003445B001344234403F247231B781B09DBB23033DCB2A8482A4692002A4453001A460B461B015B1A5B001344C5
:40184000034403F2C92322461A70A04B93F89B3203F00F03591E9E4B1B781D469B4B93F89B3203F00F03581E994B1B78974C1A4692001A4403469B0003445B001344234409
:4018800003F247231B7803F00F03DBB23033DCB28E482A4692002A4453001A460B461B015B1A5B001344034403F2CA2322461A70864B93F89B3203F00F03591E844B1B7804
:4018C0001D46824B93F89B3203F00F03581E804B1B787E4C1A4692001A4403469B0003445B001344234403F512731B781B09DBB23033DCB275482A4692002A4453001A4697
:401900000B461B015B1A5B001344034403F2CB2322461A706D4B93F89B3203F00F03591E6B4B1B781D46694B93F89B3203F00F03581E674B1B78654C1A4692001A440346A9
:401940009B0003445B001344234403F512731B7803F00F03DBB23033DCB25C482A4692002A4453001A460B461B015B1A5B001344034403F5337322461A70544B93F89B32B0
:4019800003F00F03591E524B1B781D464F4B93F89B3203F00F03581E4D4B1B784B4C1A4692001A4403469B0003445B001344234403F249231B781B09DBB23033DCB2434834
:4019C0002A4692002A4453001A460B461B015B1A5B001344034403F2CD2322461A703B4B93F89B3203F00F03591E394B1B781D46364B93F89B3203F00F03581E344B1B78D8
:401A0000324C1A4692001A4403469B0003445B001344234403F249231B7803F00F03DBB23033DCB229482A4692002A4453001A460B461B015B1A5B001344034403F2CE23C8
:401A400022461A70214B93F89B3203F00F03591E1F4B1B781D461D4B93F89B3203F00F03581E1B4B1B78194C1A4692001A4403469B0003445B001344234403F24A231B78B2
:401A80001B09DBB23033DCB210482A4692002A4453001A460B461B015B1A5B001344034403F2CF2322461A70084B93F89B3203F00F03591E064B1B781D46044B93F89B3240
:401AC00003F00F03581E024B1B7803E03C84FF1F4289FF1FC34C1A4692001A4403469B0003445B001344234403F24A231B7803F00F03DBB23033DCB2BA482A4692002A4454
:401B000053001A460B461B015B1A5B001344034403F5347322461A70B24B93F89B3203F00F03591EB04B1B781D46AE4B93F89B3203F00F03581EAC4B1B78AA4C1A46920086
:401B40001A4403469B0003445B001344234403F24B231B781B09DBB23033DCB2A1482A4692002A4453001A460B461B015B1A5B001344034403F2D12322461A70994B93F8FA
:401B80009B3203F00F03591E974B1B781D46954B93F89B3203F00F03581E934B1B78914C1A4692001A4403469B0003445B001344234403F24B231B7803F00F03DBB2303384
:401BC000DCB288482A4692002A4453001A460B461B015B1A5B001344034403F2D22322461A70012003F06CFB3B7843F05003DBB2184603F02DF97B4B93F898325BB203F0DA
:401C00000F035BB263F03F035BB2DBB2184603F01FF9FA2003F01CF9042002F069FF002003F04EFB6F4B93F89932022B40F0D08004237B711BE07B79043B7A7969490A4400
:401C400092F89712674A13440A4683F87F227B79043B7A79043263490A4492F89712614A13440A4683F87B227B7901337B717B79072BE0D95B4B93F87F321B09DBB23033E1
:401C8000DAB2584B83F84923564B93F87F3203F00F03DBB23033DAB2524B83F84A23514B93F880321B09DBB23033DAB24D4B83F84B234C4B93F8803203F00F03DBB2303368
:401CC000DAB2484B83F84C23464B93F881321B09DBB23033DAB2434B83F84D23414B93F8813203F00F03DBB23033DAB23D4B83F84E233C4B93F882321B09DBB23033DAB2CE
:401D0000384B83F84F23374B93F8823203F00F03DBB23033DAB2334B83F85023314B93F87B321B09DBB23033DAB22E4B83F841232C4B93F87B3203F00F03DBB23033DAB2A9
:401D4000284B83F84223274B93F87C321B09DBB23033DAB2234B83F84323224B93F87C3203F00F03DBB23033DAB21E4B83F844231C4B93F87D321B09DBB23033DAB2194B5F
:401D800083F84523174B93F87D3203F00F03DBB23033DAB2134B83F84623124B93F87E321B09DBB23033DAB20E4B83F847230D4B93F87E3203F00F03DBB23033DAB2094B03
:401DC00083F84823094B03221A70002003F078FA044B93F869333A789A4240F0478301233B7112E03C84FF1F4289FF1F4389FF1F3B79013B3A790C49895C0C4A13440A462A
:401E000083F8BA233B7901333B713A797B7801339A42EDDB054B93F8BC33652B40F050820523FB7026E000BFDC88FF1F3C84FF1FCD4B93F8BE3303F00F03591ECB4B1B786B
:401E40001D46FB78581FFB78C74A134493F8BA63C54C2A4692002A440B469B000B445B0013442344034403F26A3332461A70FB780133FB70FA78BC4B93F8BD3304339A42C9
:401E8000D6DBB94B93F8BE3303F00F03591EB74B1B781D46B44B93F8BE3303F00F03581EB24B1B78B04C1A4692001A4403469B0003445B001344234403F26A331B781B091E
:401EC000DBB23033DCB2A8482A4692002A4453001A460B461B015B1A5B001344034403F57B7322461A70A04B93F8BE3303F00F03591E9E4B1B781D469B4B93F8BE3303F087
:401F00000F03581E994B1B78974C1A4692001A4403469B0003445B001344234403F26A331B7803F00F03DBB23033DCB28E482A4692002A4453001A460B461B015B1A5B004D
:401F40001344034403F2ED3322461A70864B93F8BE3303F00F03591E844B1B781D46824B93F8BE3303F00F03581E804B1B787E4C1A4692001A4403469B0003445B00134415
:401F8000234403F26B331B781B09DBB23033DCB275482A4692002A4453001A460B461B015B1A5B001344034403F2EE3322461A706D4B93F8BE3303F00F03591E6B4B1B7836
:401FC0001D46694B93F8BE3303F00F03581E674B1B78654C1A4692001A4403469B0003445B001344234403F26B331B7803F00F03DBB23033DCB25C482A4692002A44530039
:402000001A460B461B015B1A5B001344034403F2EF3322461A70544B93F8BE3303F00F03591E524B1B781D464F4B93F8BE3303F00F03581E4D4B1B784B4C1A4692001A448F
:4020400003469B0003445B001344234403F55B731B781B09DBB23033DCB243482A4692002A4453001A460B461B015B1A5B001344034403F57C7322461A703B4B93F8BE33BD
:4020800003F00F03591E394B1B781D46364B93F8BE3303F00F03581E344B1B78324C1A4692001A4403469B0003445B001344234403F55B731B7803F00F03DBB23033DCB2B2
:4020C00029482A4692002A4453001A460B461B015B1A5B001344034403F2F13322461A70214B93F8BE3303F00F03591E1F4B1B781D461D4B93F8BE3303F00F03581E1B4BDD
:402100001B78194C1A4692001A4403469B0003445B001344234403F26D331B781B09DBB23033DCB210482A4692002A4453001A460B461B015B1A5B001344034403F2F233D9
:4021400022461A70084B93F8BE3303F00F03591E064B1B781D46044B93F8BE3303F00F03581E024B1B7803E03C84FF1F4289FF1FC04C1A4692001A4403469B0003445B0029
:402180001344234403F26D331B7803F00F03DBB23033DCB2B7482A4692002A4453001A460B461B015B1A5B001344034403F2F33322461A70AF4B93F8BE3303F00F03591EBA
:4021C000AD4B1B781D46AB4B93F8BE3303F00F03581EA94B1B78A74C1A4692001A4403469B0003445B001344234403F26E331B781B09DBB23033DCB29E482A4692002A44D5
:4022000053001A460B461B015B1A5B001344034403F57D7322461A70964B93F8BE3303F00F03591E944B1B781D46924B93F8BE3303F00F03581E904B1B788E4C1A4692007A
:402240001A4403469B0003445B001344234403F26E331B7803F00F03DBB23033DCB285482A4692002A4453001A460B461B015B1A5B001344034403F2F53322461A70012015
:4022800003F01EF83B7843F05003DBB2184602F0DFFD784B93F8BB335BB203F00F035BB263F03F035BB2DBB2184602F0D1FDFA2002F0CEFD042002F01BFC002003F000F86C
:4022C0006C4B93F8BC33022B40F0D0800423BB701BE0BB78043BBA7866490A4492F8BA13644A13440A4683F8A223BB78043BBA78043260490A4492F8BA135E4A13440A46AF
:4023000083F89E23BB780133BB70BB78072BE0D9584B93F8A2331B09DBB23033DAB2554B83F86C24534B93F8A23303F00F03DBB23033DAB24F4B83F86D244E4B93F8A33344
:402340001B09DBB23033DAB24A4B83F86E24494B93F8A33303F00F03DBB23033DAB2454B83F86F24434B93F8A4331B09DBB23033DAB2404B83F870243E4B93F8A43303F0FF
:402380000F03DBB23033DAB23A4B83F87124394B93F8A5331B09DBB23033DAB2354B83F87224344B93F8A53303F00F03DBB23033DAB2304B83F873242E4B93F89E331B09F9
:4023C000DBB23033DAB22B4B83F86424294B93F89E3303F00F03DBB23033DAB2254B83F86524244B93F89F331B09DBB23033DAB2204B83F866241F4B93F89F3303F00F037B
:40240000DBB23033DAB21B4B83F86724194B93F8A0331B09DBB23033DAB2164B83F86824144B93F8A03303F00F03DBB23033DAB2104B83F869240F4B93F8A1331B09DBB2DF
:402440003033DAB20B4B83F86A240A4B93F8A13303F00F03DBB23033DAB2064B83F86B24064B04221A70002002F02AFF00BF1437BD46F0BD3C84FF1F4289FF1F4389FF1FD7
:4024800090B585B000AF0346FB71274BFF221A70254BFF2283F82321234BFF2283F84622214BFF2283F86923012002F009FFFB7943F05003DBB2184602F0CAFC202002F0E1
:4024C000C7FCFA2002F0C4FC042002F011FB002002F0F6FE02F034FC0346BB730023FB7309E0FC7B02F0E4FB03461A460F4B1A55FB7B0133FB73FA7BBB7B9A42F1D302F003
:4025000067FC4FF4967002F0F3FABB7B002B05D0064B1B7803F00F03DBB200E0FF2318461437BD4690BD00BF3C84FF1FDC88FF1F80B584B000AF0346FB710023FB7306E006
:40254000FB7B2E4A0021D154FB7B0133FB73FB7B312BF5D9012002F0B3FEFB7943F05003DAB2264B1A70254B30225A70234B01229A70224B0122DA70204B06221A710521E5
:402580001E48FEF789F903461A461D4B1A801C4B1B881B0A9BB2DAB21A4B1A70184B1B88DAB2194B1A70184B1A78144B5A71154B1A78124B9A71114B0322DA710F4BFA2261
:4025C0001A720023BB7308E0BB7B0C4AD35C184602F03EFCBB7B0133BB73BB7B092BF3D9042002F085FA002002F06AFEC82002F07FFA7B7B18461037BD4680BD1089FF1F0F
:402600004689FF1FC888FF1F4889FF1F90B585B000AF0346FB710023FB7306E0FB7B5A4A0021D154FB7B0133FB73FB7B312BF5D9012002F045FEFB7943F05003DBB21846A8
:4026400002F006FC202002F003FCFA2002F000FC032002F04DFA002002F032FE02F070FB03467B720123BB7309E0BC7B02F020FB03461A46444B1A55BB7B0133BB73BA7B09
:402680007B7A01339A42F0DB3F4A7B7A137002F09FFB7B7A032B05D9FEF77CF9642002F027FA65E0642002F023FA384B1B78FA799A4212D100237B730BE07B7B7A7B324939
:4026C000895C324A13440A4683F851207B7B01337B737A7B7B7A9A42EFD32C4B93F82331FA799A4212D100233B730BE03B7B3A7B2549895C254A13440A4683F874213B7B68
:4027000001333B733A7B7B7A9A42EFD31F4B93F84632FA799A4212D10023FB720BE0FB7AFA7A1949895C194A13440A4683F89722FB7A0133FB72FA7A7B7A9A42EFD3134B6C
:4027400093F86933FA799A4212D10023BB720BE0BB7ABA7A0C49895C0C4A13440A4683F8BA23BB7A0133BB72BA7A7B7A9A42EFD37B7A002B02D0044B5B7800E000231846FB
:402780001437BD4690BD00BFDC88FF1F3C84FF1F90B585B000AF03463960FB71012002F08FFDFB7943F05003DAB23A4B1A70394B30225A70374B05229A70364B0322DA7071
:4027C0003B681A78334B1A713B685A78314B5A713B689A782F4B9A7107212E48FEF75CF803461A462C4B1A802B4B1B881B0A9BB2DAB22A4B1A70284B1B88DAB2284B1A704F
:40280000274B1A78234BDA71244B1A78214B1A72204B03225A721F4BFA229A720023FB7308E0FB7B1B4AD35C184602F011FBFB7B0133FB73FB7B0B2BF3D9042002F058F91E
:40284000002002F03DFD02F07BFA03467B730023BB7309E0BC7B02F02BFA03461A46114B1A55BB7B0133BB73BA7B7B7B9A42F1D302F0AEFA4FF4FA7002F03AF97B7B002B82
:4028800002D0084B5B7800E0002318461437BD4690BD00BF1089FF1F4689FF1FC888FF1F4889FF1FDC88FF1F90B585B000AF0346FB710B46BB7113467B71BB791B015AB2E6
:4028C00097F9053013435BB27B73012002F0F8FCFB7943F05003DAB2314B1A70304B30225A702F4B65229A702D4B0122DA702C4A7B7B137105212A48FDF7CEFF03461A46B6
:40290000284B1A80274B1B881B0A9BB2DAB2264B1A70244B1B88DAB2244B1A70234B1A781F4B5A71204B1A781D4B9A711C4B0322DA711B4BFA221A720023FB7308E0FB7B6C
:40294000174AD35C184602F083FAFB7B0133FB73FB7B092BF3D9042002F0CAF8002002F0AFFC02F0EDF903463B730023BB7309E0BC7B02F09DF903461A460D4B1A55BB7B69
:402980000133BB73BA7B3B7B9A42F1D302F020FAC82002F0ADF800BF1437BD4690BD00BF1089FF1F4689FF1FC888FF1F4889FF1FDC88FF1F90B59BB000AF0346FB710023EC
:4029C00087F867300BE097F86730CC4AD35C184602F0AAFE97F86730013387F8673097F86730052BEFD9042002F082F802F054FE03467B7397F90D300C2B18DD002387F83F
:402A000066300CE097F8664002F0FEFD03461A46BB4B1A5597F86630013387F8663097F8662097F90D309A42ECDB00237B73B54B1B78FA799A4240F0DE82002387F8653027
:402A40000BE097F86530B04AD35C184602F0AAFC97F86530013387F8653097F86530152BEFD9AA4B1B78184602F09CFC002387F864300BE097F86430A54AD35C184602F06E
:402A800091FC97F86430013387F8643097F86430152BEFD99D4B1B78184602F083FC002387F863300BE097F863309A4AD35C184602F078FC97F86330013387F8633097F89A
:402AC0006330172BEFD9914B1B78184602F06AFC002387F862300BE097F862308E4AD35C184602F05FFC97F86230013387F8623097F862300C2BEFD9884B1B78184602F0E6
:402B000051FC202002F04EFC012387F861300DE097F861307B4A134493F80B31184602F041FC97F86130013387F8613097F86130052BEDD9754B1B78184602F033FC0023AC
:402B400087F860300BE097F86030754AD35C184602F028FC97F86030013387F8603097F860300C2BEFD96D4B1B78184602F01AFC202002F017FC002387F85F300DE097F8B7
:402B80005F30604A134493F8FB30184602F00AFC97F85F30013387F85F3097F85F30072BEDD95A4B1B78184602F0FCFB002387F85E300BE097F85E305A4AD35C184602F029
:402BC000F1FB97F85E30013387F85E3097F85E300C2BEFD9002387F85D3018E097F85D30C3F10803504A1278934202D12E2002F0D9FB97F85D30434A134493F80331184670
:402C000002F0D0FB97F85D30013387F85D3097F85D30072BE2D9202002F0C4FB434B1B78184602F0BFFB394B1B78184602F0BAFB002387F85C300BE097F85C303C4AD35C51
:402C4000184602F0AFFB97F85C30013387F85C3097F85C300C2BEFD9002387F85B300BE097F85B30334AD35C184602F09BFB97F85B30013387F85B3097F85B30072BEFD9B6
:402C8000224B1B78184602F08DFB002387F85A300BE097F85A30284AD35C184602F082FB97F85A30013387F85A3097F85A300C2BEFD9144B1B783133DBB2184602F072FB90
:402CC000124B1B78184602F06DFB002387F859300BE097F85930194AD35C184602F062FB97F85930013387F8593097F859300C2BEFD9002387F858302EE000BF7C83FF1F40
:402D00004C89FF1F3C84FF1F5481FF1FCC80FF1F3C81FF1F6483FF1FF081FF1F6083FF1F2082FF1F0082FF1F0E89FF1FD080FF1FE081FF1F6C81FF1FD081FF1FA081FF1F3A
:402D400097F85830BE4AD35C184602F02BFB97F85830013387F8583097F85830062BEFD9B84B1B78184602F01DFB002387F857300BE097F85730B44AD35C184602F012FB7B
:402D800097F85730013387F8573097F85730172BEFD9AC4B1B78184602F004FB002387F856300BE097F85630A84AD35C184602F0F9FA97F85630013387F8563097F85630DB
:402DC0000C2BEFD9A24B9B7A1B09DBB23033DBB2184602F0E7FA9E4B9B7A03F00F03DBB23033DBB2184602F0DDFA3A2002F0DAFA974BDB7A1B09DBB23033DBB2184602F011
:402E0000D1FA934BDB7A03F00F03DBB23033DBB2184602F0C7FA3A2002F0C4FA8C4B1B7B1B09DBB23033DBB2184602F0BBFA884B1B7B03F00F03DBB23033DBB2184602F0A9
:402E4000B1FA804B1B78184602F0ACFA002387F855300BE097F855307E4AD35C184602F0A1FA97F85530013387F8553097F855300C2BEFD9764B9B791B09DBB23033DBB276
:402E8000184602F08FFA724B9B7903F00F03DBB23033DBB2184602F085FA2F2002F082FA6B4BDB791B09DBB23033DBB2184602F079FA674BDB7903F00F03DBB23033DBB264
:402EC000184602F06FFA2F2002F06CFA604B1B7A1B09DBB23033DBB2184602F063FA5C4B1B7A03F00F03DBB23033DBB2184602F059FA544B1B78184602F054FA002387F811
:402F000054300BE097F854304F4AD35C184602F049FA97F85430013387F8543097F85430172BEFD9474B1B78184602F03BFA002387F853300BE097F85330474AD35C184663
:402F400002F030FA97F85330013387F8533097F85330152BEFD93B4B1B78184602F022FA002387F852300BE097F852303B4AD35C184602F017FA97F85230013387F85230D3
:402F800097F85230152BEFD92E4B1B78184602F009FA002387F851300BE097F85130304AD35C184602F0FEF997F85130013387F8513097F85130152BEFD9224B1B781846D1
:402FC00002F0F0F9002387F850300BE097F85030244AD35C184602F0E5F997F85030013387F8503097F85030152BEFD9154B1B78184602F0D7F91C4B93F82331FA799A420E
:4030000040F06B82002387F84F300BE097F84F30164AD35C184602F0C5F997F84F30013387F84F3097F84F30152BEFD9054B1B78184602F0B7F9002387F84E3024E000BFA0
:403040003481FF1FCC80FF1F6483FF1F9081FF1F4C89FF1F8081FF1F1C81FF1F0481FF1FEC80FF1FD480FF1F3C84FF1F5481FF1F97F84E30CB4AD35C184602F093F997F8E6
:403080004E30013387F84E3097F84E30152BEFD9C54B1B78184602F085F9002387F84D300BE097F84D30C14AD35C184602F07AF997F84D30013387F84D3097F84D30172B3E
:4030C000EFD9B94B1B78184602F06CF9002387F84C300BE097F84C30B54AD35C184602F061F997F84C30013387F84C3097F84C300C2BEFD9012387F84B300DE097F84B3077
:40310000AC4A134493F82E32184602F04BF997F84B30013387F84B3097F84B30052BEDD9A14B1B78184602F03DF9002387F84A300BE097F84A30A04AD35C184602F032F9E2
:4031400097F84A30013387F84A3097F84A300C2BEFD99A4B1B78184602F024F9002387F849300DE097F84930924A134493F81E32184602F017F997F84930013387F849307A
:4031800097F84930072BEDD9874B1B78184602F009F9002387F848300BE097F84830884AD35C184602F0FEF897F84830013387F8483097F848300C2BEFD9002387F84730B4
:4031C00018E097F84730C3F108037E4A1278934202D12E2002F0E6F897F84730754A134493F82632184602F0DDF897F84730013387F8473097F84730072BE2D9724B1B7863
:40320000184602F0CFF8684B1B78184602F0CAF8002387F846300BE097F846306B4AD35C184602F0BFF897F84630013387F8463097F846300C2BEFD9002387F845300BE0F8
:4032400097F84530624AD35C184602F0ABF897F84530013387F8453097F84530082BEFD9514B1B78184602F09DF8002387F844300BE097F84430574AD35C184602F092F88F
:4032800097F84430013387F8443097F844300C2BEFD9484B93F823313133DBB2184602F081F8414B1B78184602F07CF8002387F843300BE097F84330474AD35C184602F0C1
:4032C00071F897F84330013387F8433097F843300C2BEFD9002387F842300BE097F842303E4AD35C184602F05DF897F84230013387F8423097F84230062BEFD92A4B1B78B8
:40330000184602F04FF8002387F841300BE097F84130264AD35C184602F044F897F84130013387F8413097F84130172BEFD91E4B1B78184602F036F8002387F840300BE028
:4033400097F84030264AD35C184602F02BF897F84030013387F8403097F840300C2BEFD9114B1B78184602F01DF8002387F83F300BE097F83F301B4AD35C184602F012F8E0
:4033800097F83F30013387F83F3097F83F300C2BEFD9054B1B78184602F004F8002387F83E302DE03C81FF1FCC80FF1F6483FF1FF081FF1F3C84FF1F2082FF1F6083FF1F2C
:4033C0000082FF1F0E89FF1FD080FF1FE081FF1F7481FF1FD081FF1FA081FF1F3481FF1F9081FF1F8081FF1F97F83E30CD4AD35C184601F0D7FF97F83E30013387F83E3023
:4034000097F83E30172BEFD9C74B1B78184601F0C9FF002387F83D300BE097F83D30C34AD35C184601F0BEFF97F83D30013387F83D3097F83D30152BEFD9BB4B1B78184674
:4034400001F0B0FF002387F83C300BE097F83C30B74AD35C184601F0A5FF97F83C30013387F83C3097F83C30152BEFD9AE4B1B78184601F097FF002387F83B300BE097F880
:403480003B30AC4AD35C184601F08CFF97F83B30013387F83B3097F83B30152BEFD9A24B1B78184601F07EFF002387F83A300BE097F83A30A04AD35C184601F073FF97F8E3
:4034C0003A30013387F83A3097F83A30152BEFD9954B1B78184601F065FF984B93F84632FA799A4240F05282002387F839300BE097F83930924AD35C184601F053FF97F8BC
:403500003930013387F8393097F83930152BEFD9854B1B78184601F045FF002387F838300BE097F83830874AD35C184601F03AFF97F83830013387F8383097F83830152B53
:40354000EFD9794B1B78184601F02CFF002387F837300BE097F83730724AD35C184601F021FF97F83730013387F8373097F83730172BEFD96C4B1B78184601F013FF002390
:4035800087F836300BE097F836306F4AD35C184601F008FF97F83630013387F8363097F836300C2BEFD9012387F835300DE097F83530624A134493F85133184601F0F2FECC
:4035C00097F83530013387F8353097F83530052BEDD9554B1B78184601F0E4FE002387F834300BE097F83430584AD35C184601F0D9FE97F83430013387F8343097F8343099
:403600000C2BEFD9524B1B78184601F0CBFE002387F833300DE097F83330484A134493F84133184601F0BEFE97F83330013387F8333097F83330072BEDD93B4B1B78184603
:4036400001F0B0FE002387F832300BE097F83230404AD35C184601F0A5FE97F83230013387F8323097F832300C2BEFD9002387F8313018E097F83130C3F10803364A127876
:40368000934202D12E2001F08DFE97F831302B4A134493F84933184601F084FE97F83130013387F8313097F83130072BE2D92B4B1B78184601F076FE1B4B1B78184601F00F
:4036C00071FE002387F830300BE097F83030244AD35C184601F066FE97F83030013387F8303097F830300C2BEFD9002387F82F300BE097F82F301B4AD35C184601F052FE32
:4037000097F82F30013387F82F3097F82F30072BEFD9054B1B78184601F044FE002387F82E302DE06483FF1FCC80FF1F1C81FF1F0481FF1FEC80FF1FD480FF1F3C84FF1F79
:403740005481FF1F3C81FF1FF081FF1F2082FF1F6083FF1F0082FF1F0E89FF1FD080FF1FE081FF1F6C81FF1F97F82E30C74AD35C184601F017FE97F82E30013387F82E304F
:4037800097F82E300C2BEFD9C14B93F846323133DBB2184601F006FEBE4B1B78184601F001FE002387F82D300BE097F82D30BA4AD35C184601F0F6FD97F82D30013387F8F6
:4037C0002D3097F82D300C2BEFD9002387F82C300BE097F82C30B14AD35C184601F0E2FD97F82C30013387F82C3097F82C30062BEFD9A84B1B78184601F0D4FD002387F82F
:403800002B300BE097F82B30A54AD35C184601F0C9FD97F82B30013387F82B3097F82B30172BEFD99B4B1B78184601F0BBFD002387F82A300BE097F82A309A4AD35C184678
:4038400001F0B0FD97F82A30013387F82A3097F82A300C2BEFD98F4B1B78184601F0A2FD002387F829300BE097F829308E4AD35C184601F097FD97F82930013387F82930C5
:4038800097F829300C2BEFD9824B1B78184601F089FD002387F828300BE097F82830804AD35C184601F07EFD97F82830013387F8283097F82830172BEFD9764B1B781846C8
:4038C00001F070FD002387F827300BE097F82730764AD35C184601F065FD97F82730013387F8273097F82730152BEFD9694B1B78184601F057FD002387F826300BE097F8C6
:4039000026306B4AD35C184601F04CFD97F82630013387F8263097F82630152BEFD95D4B1B78184601F03EFD002387F825300BE097F825305F4AD35C184601F033FD97F869
:403940002530013387F8253097F82530152BEFD9504B1B78184601F025FD002387F824300BE097F82430544AD35C184601F01AFD97F82430013387F8243097F82430152B5B
:40398000EFD9444B1B78184601F00CFD404B93F86933FA799A4240F01882002387F823300BE097F82330454AD35C184601F0FAFC97F82330013387F8233097F82330152B2B
:4039C000EFD9344B1B78184601F0ECFC002387F822300BE097F82230394AD35C184601F0E1FC97F82230013387F8223097F82230152BEFD9274B1B78184601F0D3FC002303
:403A000087F821300BE097F82130254AD35C184601F0C8FC97F82130013387F8213097F82130172BEFD91B4B1B78184601F0BAFC002387F820300BE097F82030214AD35C18
:403A4000184601F0AFFC97F82030013387F8203097F820300C2BEFD90123FB770AE0FB7F0B4A134493F87434184601F09BFCFB7F0133FB77FB7F052BF1D9064B1B781846F7
:403A800001F090FC0023BB7727E000BFD081FF1F3C84FF1FCC80FF1FA081FF1F3481FF1F6483FF1F9081FF1F8081FF1F1C81FF1F0481FF1FEC80FF1FD480FF1F5481FF1F05
:403AC0003C81FF1FF081FF1FBB7FA54AD35C184601F068FCBB7F0133BB77BB7F0C2BF3D9A04B1B78184601F05DFC00237B770AE07B7F9D4A134493F86434184601F052FC57
:403B00007B7F01337B777B7F072BF1D9974B1B78184601F047FC00233B7708E03B7F944AD35C184601F03EFC3B7F01333B773B7F0C2BF3D90023FB7614E0FB7EC3F108033E
:403B40008C4A1278934202D12E2001F02BFCFB7E854A134493F86C34184601F023FCFB7E0133FB76FB7E072BE7D9834B1B78184601F018FC7D4B1B78184601F013FC002376
:403B8000BB7608E0BB7E7D4AD35C184601F00AFCBB7E0133BB76BB7E0C2BF3D900237B7608E07B7E764AD35C184601F0FBFB7B7E01337B767B7E082BF3D96C4B1B781846A7
:403BC00001F0F0FB00233B7608E03B7E6D4AD35C184601F0E7FB3B7E01333B763B7E0C2BF3D9614B93F869333133DBB2184601F0D9FB5E4B1B78184601F0D4FB0023FB752F
:403C000008E0FB7D604AD35C184601F0CBFBFB7D0133FB75FB7D0C2BF3D90023BB7508E0BB7D5A4AD35C184601F0BCFBBB7D0133BB75BB7D062BF3D94C4B1B78184601F009
:403C4000B1FB00237B7508E07B7D514AD35C184601F0A8FB7B7D01337B757B7D172BF3D9424B1B78184601F09DFB00233B7508E03B7D484AD35C184601F094FB3B7D0133C2
:403C80003B753B7D0C2BF3D9384B1B78184601F089FB0023FB7408E0FB7C3F4AD35C184601F080FBFB7C0133FB74FB7C0C2BF3D92E4B1B78184601F075FB0023BB7408E0A4
:403CC000BB7C334AD35C184601F06CFBBB7C0133BB74BB7C172BF3D9244B1B78184601F061FB00237B7408E07B7C2C4AD35C184601F058FB7B7C01337B747B7C152BF3D94A
:403D00001A4B1B78184601F04DFB00233B7408E03B7C234AD35C184601F044FB3B7C01333B743B7C152BF3D9104B1B78184601F039FB0023FB7308E0FB7B1A4AD35C1846AB
:403D400001F030FBFB7B0133FB73FB7B152BF3D9064B1B78184601F025FB0023BB732CE02082FF1F6083FF1F3C84FF1FCC80FF1F0082FF1F0E89FF1FD080FF1FE081FF1F92
:403D80007481FF1FD081FF1FA081FF1F3481FF1F6483FF1F9081FF1F8081FF1F1C81FF1F0481FF1FEC80FF1FBB7B114AD35C184601F0F8FABB7B0133BB73BB7B152BF3D959
:403DC0000C4B1B78184601F0EDFA0A4B1B78184601F0E8FA074B1B78184601F0E3FA054B1B78184601F0DEFA00BF6C37BD4690BDD480FF1FCC80FF1F80B58AB000AF03467A
:403E0000FB71B94B1B78FA799A4240F06381002387F827300BE097F82730B44AD35C184601F0C0FA97F82730013387F8273097F82730152BEFD9AE4B1B78184601F0B2FAB7
:403E4000002387F826300BE097F82630A94AD35C184601F0A7FA97F82630013387F8263097F82630152BEFD9A14B1B78184601F099FA002387F825300BE097F825309E4A7E
:403E8000D35C184601F08EFA97F82530013387F8253097F82530172BEFD9954B1B78184601F080FA002387F824300BE097F82430924AD35C184601F075FA97F82430013342
:403EC00087F8243097F824300C2BEFD9022387F8233018E097F82330C3F10A03884A1278934202D12E2001F05DFA97F823307E4A134493F88330184601F054FA97F8233023
:403F0000013387F8233097F82330092BE2D9784B1B78184601F046FA002387F822300BE097F82230774AD35C184601F03BFA97F82230013387F8223097F822300C2BEFD9CB
:403F4000694B1B783133DBB2184601F02BFA684B1B78184601F026FA002387F821300BE097F82130684AD35C184601F01BFA97F82130013387F8213097F821300C2BEFD91A
:403F80005B4B1B78184601F00DFA002387F820300BE097F82030584AD35C184601F002FA97F82030013387F8203097F82030172BEFD94F4B1B78184601F0F4F90023FB77D1
:403FC00008E0FB7F514AD35C184601F0EBF9FB7F0133FB77FB7F0C2BF3D9454B1B78184601F0E0F90023BB7708E0BB7F484AD35C184601F0D7F9BB7F0133BB77BB7F0C2B12
:40400000F3D93B4B1B78184601F0CCF900237B7708E07B7F384AD35C184601F0C3F97B7F01337B777B7F172BF3D9314B1B78184601F0B8F900233B7708E03B7F354AD35C78
:40404000184601F0AFF93B7F01333B773B7F152BF3D9274B1B78184601F0A4F90023FB7608E0FB7E2C4AD35C184601F09BF9FB7E0133FB76FB7E152BF3D91D4B1B78184679
:4040800001F090F90023BB7608E0BB7E234AD35C184601F087F9BB7E0133BB76BB7E152BF3D9134B1B78184601F07CF900237B7608E07B7E1A4AD35C184601F073F97B7ED2
:4040C00001337B767B7E152BF3D9094B1B78184601F068F9044B93F82331FA799A4240F0598100233B7626E03C84FF1F5481FF1FCC80FF1F3C81FF1F6483FF1F1082FF1FD3
:404100000E89FF1FD081FF1F3082FF1F9081FF1F8081FF1F1C81FF1F0481FF1FEC80FF1FD480FF1F3B7E9D4AD35C184601F03AF93B7E01333B763B7E152BF3D9984B1B78B9
:40414000184601F02FF90023FB7508E0FB7D954AD35C184601F026F9FB7D0133FB75FB7D152BF3D98E4B1B78184601F01BF90023BB7508E0BB7D8C4AD35C184601F012F918
:40418000BB7D0133BB75BB7D172BF3D9844B1B78184601F007F900237B7508E07B7D834AD35C184601F0FEF87B7D01337B757B7D0C2BF3D902233B7514E03B7DC3F10A03DF
:4041C0007B4A1278934202D12E2001F0EBF83B7D784A134493F8A631184601F0E3F83B7D01333B753B7D092BE7D96D4B1B78184601F0D8F80023FB7408E0FB7C6E4AD35CBF
:40420000184601F0CFF8FB7C0133FB74FB7C0C2BF3D9684B93F823313133DBB2184601F0C1F85F4B1B78184601F0BCF80023BB7408E0BB7C614AD35C184601F0B3F8BB7C8D
:404240000133BB74BB7C0C2BF3D9554B1B78184601F0A8F800237B7408E07B7C524AD35C184601F09FF87B7C01337B747B7C172BF3D94B4B1B78184601F094F800233B74E8
:4042800008E03B7C4E4AD35C184601F08BF83B7C01333B743B7C0C2BF3D9414B1B78184601F080F80023FB7308E0FB7B454AD35C184601F077F8FB7B0133FB73FB7B0C2B5C
:4042C000F3D9374B1B78184601F06CF80023BB7308E0BB7B344AD35C184601F063F8BB7B0133BB73BB7B172BF3D92D4B1B78184601F058F800237B7308E07B7B324AD35C44
:40430000184601F04FF87B7B01337B737B7B152BF3D9234B1B78184601F044F800233B7308E03B7B294AD35C184601F03BF83B7B01333B733B7B152BF3D9194B1B781846FF
:4043400001F030F80023FB7208E0FB7A204AD35C184601F027F8FB7A0133FB72FB7A152BF3D90F4B1B78184601F01CF80023BB7208E0BB7A174AD35C184601F013F8BB7ABD
:404380000133BB72BB7A152BF3D9054B1B78184601F008F800BF2837BD4680BD5481FF1FCC80FF1F3C81FF1F6483FF1F1082FF1F0E89FF1F3C84FF1FD081FF1F3082FF1F0C
:4043C0009081FF1F8081FF1F1C81FF1F0481FF1FEC80FF1FD480FF1F80B584B000AFF860B9607A607A68B968F86801F00FFB00BF1037BD4680BD00BF80B483B000AF0346F0
:40440000FB71FEE780B483B000AF434B00221A60424B10221A70424B01221A70414B00221A70414B4FF42C721A80404B01221A703F4B03221A703F4B3F4A92B21A803F4B3D
:4044400047F608021A803E4B00221A803D4B4FF480421A803C4B09221A703C4B0C221A703B4B14221A703B4B1D221A70BFF35F8F394B01221A70BFF35F8F00BF2A4B1B8897
:404480009BB2002BFAD100237B600DE07B68DA00324B13441946324A7B6852F823309BB20B807B6801337B607B68552BEED9BFF35F8F294B01221A70BFF35F8F00BF294B5A
:4044C0001B78DBB203F00103002BF8D100BF264B1B78DBB203F00103002BF8D100BF234B1B78DBB203F00103002BF8D100BF204B1B78DBB203F00103002BF8D100BF1D4BE2
:404500001B78DBB203F00103002BF8D100BF0C37BD4680BC704700BF1884FF1F007600401070004019700040007800400278004003780040047800405000000006780040C9
:40454000047600400676004029700040397000406970004079700040147000400C780040285A0000187000402870004038700040687000407870004080B582B000AF3E4B50
:4045800019221A803D4B18221A703D4B4FF49C721A803C4B18221A703B4B4FF49C721A803A4B18221A703A4B40F209221A80394B18221A70384B47F22F521A80374B19220A
:4045C0001A70374B02221A704FF0402308221A70344B03221A70344B344A1278D2B21A70334B08221A80334B41F251221A800023FB7019237B6014E0FB785B00DAB22E4B7C
:404600001B78DBB203F00103DBB21343DBB203F00303FB704FF4F07001F0A2F97B68013B7B607B68002B02D0FB78032BE4D17B68002B02D10320FFF7DFFE204B4FF48072B9
:404640001A801E4B07221A701D4B00221A701D4B48221A70194B00221A701B4B02221A701A4A1A4B1B78DBB243F01F03DBB2137000BF0837BD4680BD804000408240004062
:404680008440004086400040884000408A4000408C4000408E40004090400040924000400043004000420040A14600400801004922420040204200402542004004400040B3
:4046C000064000400840004001400040A243004080B483B000AF0B4B1B78FB710A4AFB7903F00703DBB21370084AFB791B09DBB21370074B44221A7000BF0C37BD4680BC49
:40470000704700BFCF0100496E5800406F5800407658004080B500AF72B62D4A2C4B1B78DBB243F00403DBB21370FFF76BFE294A284B1B78DBB243F00203DBB21370264A4E
:40474000254B1B78DBB243F00203DBB21370234A224B1B78DBB243F04003DBB21370204A1F4B1B78DBB243F01003DBB213700A221C491D48FFF730FE0A221C491C48FFF792
:404780002BFE0A221B491C48FFF726FE0A221B491B48FFF721FE1B4A1A4B1B78DBB243F00803DBB21370184B60221A70FFF7E4FE154B80221A70154B01221A70FFF788FF25
:4047C0000E2206491248FFF707FE00BF80BD00BFE84600400350014013500140A0430040C24300402C1C0048F0510040381C004810510040441C004820510040501C0048C1
:4048000030510040224300400048004004000840B043004080B500AF01F0CCF803461B680C2B00D1FEE7FEE780B586B000AF224B7B61224B3B61204B7B6135E03B691B68E5
:40484000FB603B695B68BB603B699B683B6000237B600CE0FB681A68BB681A60BB680433BB60FB680433FB607B6804337B607A683B689A42EED13B69DB683B6000237B60AE
:4048800008E0BB6800221A60BB680433BB607B6804337B607A683B689A42F2D13B6910333B617B69013B7B617B69002BC6D101F087F8FBF72BFEFEE701000000A85B00002A
:4048C00080B582B000AF184B184A1A60184A184B1B6843F40073136000237B600FE07B68032B04D8134A7B6852F8233000E0124B12497A6841F822307B6801337B607B686D
:404900002F2BECD90E4B1B78DAB20E4B1A700E4B0A4A1A60FFF7FEFE0C4B00221A6000BF0837BD4680BD00BF0CED00E00004FA0514ED00E000000000154800000080FF1F3C
:40494000BC760040C480FF1F08ED00E0C080FF1F80B500AF064B1B78002B04D100F00AF8034B01221A7000F063F800BF80BD00BF1C84FF1F80B582B000AF284A274B1B782A
:40498000DBB243F00203DBB21370254B1B78DBB223F07003FB71224AFB7943F03003DBB21370204A1F4B1B78DBB223F03003DBB213701C4A1B4B1B78DBB243F03003DBB221
:4049C0001370184A174B1B78DBB223F00F03DBB21370144A134B1B78DBB243F00F03DBB21370642000F048F8322000F055F8002000F062F80C4A0C4B1B78DBB243F0010339
:404A0000DBB21370094A094B1B78DBB243F00103DBB2137000BF0837BD4680BD004F0040024F00400B4F0040A3430040014F004080B400AF0D4A0D4B1B78DBB243F00103C1
:404A4000DBB213700A4A0A4B1B78DBB243F00103DBB21370074A074B1B78DBB243F00103DBB2137000BFBD4680BC7047A3430040B3430040004F004080B483B000AF03460D
:404A8000FB71044BFA7992B21A8000BF0C37BD4680BC7047044F004080B483B000AF0346FB71044BFA7992B21A8000BF0C37BD4680BC7047064F004080B483B000AF034608
:404AC000FB71044AFB79137000BF0C37BD4680BC704700BF034F004080B483B000AF0346FB7101BE00BF0C37BD4680BC704700BF80B582B000AF786008E00C4B1B6818466D
:404B000000F02EFF7B68A3F500437B607B68B3F5004FF2D8064B1B687A6802FB03F3184600F01EFF00BF0837BD4680BD9083FF1F8883FF1F80B584B000AF03463960FB7109
:404B40000F4B1B68FB60FB791F2B02D90020FFF7C3FFFB7903F01F0310339B00FA6813441B68BB60FB7903F01F0310339B00FA6813443A681A60BB6818461037BD4680BD8A
:404B800008ED00E080B582B000AF03460A46FB711346BB71BB79072B02D90020FFF79CFFFB791F2B02D90020FFF796FFFB7903F01F0303F1604303F56443BA795201D2B281
:404BC0001A7000BF0837BD4680BD00BF80B500AF064B1B78002B04D100F00AF8034B01221A7000F031F800BF80BD00BF1D84FF1F80B500AF0D490020FFF79CFF07210020B3
:404C0000FFF7C0FF0A4B00221A700A4B72221A70094B20221A70094B06221A70084B47221A70084B00221A7000BF80BD854E00001E84FF1F88650040846500402A6500402C
:404C40003A6500408964004080B582B000AF00F0A6FE0346FB71124A114B1B78DBB243F02003DBB213700F4A0E4B1B78DBB243F01003DBB213700C4B01221A600B4A0B4BC4
:404C80001B78DBB243F01003DBB2137000F068F9FB79184600F087FE00BF0837BD4680BD986500409465004000E100E09964004080B483B000AF1B4B01221A601A4B1B7823
:404CC000BB711A4B1B787B71194B1B78DBB2002B03D1BA797B799A4218D0BB79154AD35CFB71BB790133BB7197F90630002B01DA0023BB710C4ABB7913700D4B1B78DBB2D4
:404D0000002B06D00A4B00221A7002E00A4B1B78FB710A4B01221A60FB7918460C37BD4680BC704780E100E01F84FF1F2084FF1F2184FF1F6489FF1F4B65004000E100E0FB
:404D400080B483B000AF1D4B01221A601C4B1B78DAB21C4B1B78DBB29A420AD11A4B1B78DBB2002B02D08023FB711DE00023FB711AE0134B1B78DAB2124B1B78DBB29A4267
:404D800008D2104B1B78DAB20D4B1B78DBB2D31AFB7109E00B4B1B78DAB2094B1B78DBB2D31ADBB2803BFB71084B01221A60FB7918460C37BD4680BC704700BF80E100E060
:404DC0001F84FF1F2084FF1F2184FF1F00E100E080B582B000AF00F0E2FD0346FB71154A144B1B78DBB243F00103DBB21370114A104B1B78DBB223F00103DBB21370FB797C
:404E0000184600F0D0FD0C4B01221A600B4B00221A700B4B00221A700A4B00221A700A4B00221A70094B01221A6000BF0837BD4680BD00BF9B65004080E100E01F84FF1F2D
:404E40002084FF1F2184FF1F2284FF1F00E100E080B483B000AF0346FB7100BF074B1B78DBB203F00403002BF8D1054AFB79137000BF0C37BD4680BC704700BF6964004034
:404E80004965004080B483B000AF0023FB712C4B1B78BB71BB797B71BB7903F01E03002B0CD097F9063003F01E035AB2254B1B785BB213435BB2DAB2224B1A70BB7903F0B7
:404EC0002003002B31D0204B1B787B711F4B1B78DBB219461E4A7B7953540123FB71FB79002B22D01B4B1B78DBB2002B02D01A4B01221A70154B1B78DBB20133DAB2134B39
:404F00001A70124B1B78DBB25BB2002B02DA0F4B00221A700D4B1B78DAB2104B1B78DBB29A4202D10B4B01221A70BB7903F02003002BACD100BF0C37BD4680BC704700BF03
:404F4000646500401E84FF1F4B6500402084FF1F6489FF1F2184FF1F2284FF1F1F84FF1F80B400AF094A094B1B78DBB243F00403DBB21370064A064B1B78DBB243F0040374
:404F8000DBB2137000BFBD4680BC7047A2430040B243004080B500AF224A224B1B78DBB203F00103DBB213701F4A1F4B1B78DBB223F00303DBB213701C4A1C4B1B78DBB2E5
:404FC00023F03003DBB21370184A184B1B78DBB243F03003DBB21370144A144B1B78DBB223F00F03DBB21370104A104B1B78DBB243F00F03DBB213700D4A0D4B1B78DBB2F5
:4050000043F00103DBB2137045F6C95000F058F845F6C95000F066F8002000F041F800BF80BD00BF0C4F00400E4F0040174F00400D4F004080B400AF0D4A0D4B1B78DBB2C3
:4050400043F00203DBB213700A4A0A4B1B78DBB243F00203DBB21370074A074B1B78DBB243F00103DBB2137000BFBD4680BC7047A3430040B34300400C4F004080B500AF3D
:40508000064B1B78002B04D1FFF784FF034B01221A70FFF7CFFF00BF80BD00BF2484FF1F80B483B000AF0346FB71044AFB79137000BF0C37BD4680BC704700BF0F4F0040EE
:4050C00080B485B000AF0346FB80FB88FB81044AFB89138000BF1437BD4680BC704700BF104F004080B483B000AF0346FB80044AFB88138000BF0C37BD4680BC704700BF1D
:40510000124F004080B500AF064B1B78002B04D100F00AF8034B01221A7000F031F800BF80BD00BF2584FF1F80B500AF0D490120FFF700FD07210120FFF724FD0A4B002259
:405140001A700A4B72221A70094B20221A70094B06221A70084B47221A70084B00221A7000BF80BDE55100002684FF1F8E6400408D6400402F6400403F6400408C64004084
:4051800080B582B000AF00F00AFC0346FB71114A104B1B78DBB243F02003DBB213700E4A0D4B1B78DBB243F01003DBB213700B4B02221A600A4A0A4B1B78DBB243F01003C9
:4051C000DBB21370FB79184600F0EDFB00BF0837BD4680BD9E6400409D64004000E100E09C64004080B483B000AF0023FB712C4B1B78BB71BB797B71BB7903F01E03002BC5
:405200000CD097F9063003F01E035AB2254B1B785BB213435BB2DAB2224B1A70BB7903F02003002B31D0204B1B787B711F4B1B78DBB219461E4A7B7953540123FB71FB7966
:40524000002B22D01B4B1B78DBB2002B02D01A4B01221A70154B1B78DBB20133DAB2134B1A70124B1B78DBB25BB2002B02DA0F4B00221A700D4B1B78DAB2104B1B78DBB2CB
:405280009A4202D10B4B01221A70BB7903F02003002BACD100BF0C37BD4680BC704700BF6D6400402684FF1F4E6400402884FF1FE489FF1F2984FF1F2A84FF1F2784FF1F13
:4052C00080B485B000AF0346FB710A4B1B78DBB223F00103FB730749FB7903F00103DAB2FB7B1343DBB20B7000BF1437BD4680BC704700BF2051004080B500AF064B1B7894
:40530000002B04D100F00AF8034B01221A7000F023F800BF80BD00BF2C84FF1F80B500AF09490220FFF706FC07210220FFF72AFC064B06221A70064B47221A70054B02227B
:405340001A7000BF80BD00BF5D54000029640040396400408A64004080B582B000AF00F01EFB0346FB710C4A0B4B1B78DBB243F01003DBB21370094B04221A60084B0422FC
:405380001A6000F0A3F8FB79184600F00CFB00BF0837BD4680BD00BF9A64004080E200E000E100E080B485B000AF0346FB71254B1B78FB73244B1B78BB73FA7BBB7B9A42EC
:4053C00008D2FA7BBB7B013B9A420CBF01230023DBB207E0FA7BBB7BD31A042B0CBF01230023DBB2002BE2D1BA7BFB7B9A420AD1164B1B78DBB203F00403002B03D1144A0C
:40540000FB79137018E0FB7B042B01D90023FB73FB7B1049FA79CA54FB7B0133FB73094AFB7B1370094B1B78DBB203F00203002B02D0094B04221A6000BF1437BD4680BC03
:40544000704700BF2E84FF1F2D84FF1F6A6400404A640040648AFF1F00E200E080B400AF17E0154B1B78DBB2042B02D9124B00221A70124B104A1278D2B21146104A525CBC
:40548000D2B21A700C4B1B78DBB20133DAB20A4B1A70094B1B78DAB20A4B1B789A4206D0094B1B78DBB203F00403002BD9D000BFBD4680BC704700BF2D84FF1F4A64004048
:4054C000648AFF1F2E84FF1F6A64004080B400AF094A094B1B78DBB243F00203DBB21370064A064B1B78DBB243F00203DBB2137000BFBD4680BC7047A2430040B2430040B8
:4055000080B500AF064B1B78002B04D100F00AF8034B01221A7000F03BF800BF80BD00BF3084FF1F80B500AF11490320FFF702FB07210320FFF726FB0E4B00221A700E4BF2
:4055400072221A700D4B20221A700D490420FFF7F1FA07210420FFF715FB0A4B06221A70094B47221A70094B02221A7000BF80BDE15700003384FF1F87650040886400408B
:40558000B958000026650040366500408B64004080B582B000AF00F002FA0346FB71154A144B1B78DBB243F02003DBB21370124A114B1B78DBB243F01003DBB213700F4B82
:4055C00008221A600E4A0E4B1B78DBB243F01003DBB213700B4B10221A60084B10221A6000F0A2F9FB79184600F0DDF900BF0837BD4680BD976500409864004000E100E045
:405600009B64004080E200E080B483B000AF1B4B08221A601A4B1B78BB711A4B1B787B71194B1B78DBB2002B03D1BA797B799A4217D0BB79154AD35CFB71BB790133BB7192
:40564000BB79132B01D90023BB710D4ABB7913700D4B1B78DBB2002B06D00B4B00221A7002E00B4B1B78FB710A4B08221A60FB7918460C37BD4680BC704700BF80E100E0CB
:405680003484FF1F3584FF1F3684FF1F748AFF1F4465004000E100E080B483B000AF1D4B08221A601C4B1B78DAB21C4B1B78DBB29A420AD11A4B1B78DBB2002B02D0142300
:4056C000FB711DE00023FB711AE0134B1B78DAB2124B1B78DBB29A4208D2104B1B78DAB20D4B1B78DBB2D31AFB7109E00B4B1B78DAB2094B1B78DBB2D31ADBB21433FB71BE
:40570000084B08221A60FB7918460C37BD4680BC704700BF80E100E03484FF1F3584FF1F3684FF1F00E100E080B485B000AF0346FB71254B1B78FB73244B1B78BB73FA7B3E
:40574000BB7B9A4208D2FA7BBB7B013B9A420CBF01230023DBB207E0FA7BBB7BD31A072B0CBF01230023DBB2002BE2D1BA7BFB7B9A420AD1164B1B78DBB203F00403002BA5
:4057800003D1144AFB79137018E0FB7B072B01D90023FB73FB7B1049FA79CA54FB7B0133FB73094AFB7B1370094B1B78DBB203F00203002B02D0094B10221A6000BF14377E
:4057C000BD4680BC704700BF3284FF1F3184FF1F6B640040486400406C8AFF1F00E200E080B483B000AF0023FB712B4B1B78BB71BB797B71BB7903F01E03002B0CD097F9A3
:40580000063003F01E035AB2244B1B785BB213435BB2DAB2214B1A70BB7903F02003002B30D01F4B1B787B711E4B1B78DBB219461D4A7B7953540123FB71FB79002B21D0B6
:405840001A4B1B78DBB2002B02D0194B01221A70144B1B78DBB20133DAB2124B1A70114B1B78DBB2132B02D90E4B00221A700D4B1B78DAB20F4B1B78DBB29A4202D10B4BDF
:4058800001221A70BB7903F02003002BADD100BF0C37BD4680BC7047686400403384FF1F446500403584FF1F748AFF1F3684FF1F3784FF1F3484FF1F80B400AF17E0154BD2
:4058C0001B78DBB2072B02D9124B00221A70124B104A1278D2B21146104A525CD2B21A700C4B1B78DBB20133DAB20A4B1A70094B1B78DAB20A4B1B789A4206D0094B1B7836
:40590000DBB203F00403002BD9D000BFBD4680BC704700BF3184FF1F486400406C8AFF1F3284FF1F6B64004080B400AF094A094B1B78DBB243F00103DBB21370064A064B50
:405940001B78DBB243F00103DBB2137000BFBD4680BC7047A2430040B243004000000000142816D902B4012114381049097811F0C001890904B40E4A515C04BC00BF00BF39
:4059800000BF8841FDD500BF00BF02BC704700BF00BF70F10400FCD570470B050709EFF3108072B6704780F310887047004800409A590000014B1868704700BFF483FF1FAA
:4059C0000E4B70B51E460E4C0025E41AA410A54204D056F8253098470135F8E700F0D2F8084B094C1E46E41AA4100025A54204D056F8253098470135F8E770BD905B00003B
:405A0000905B0000905B0000985B000010B5431E0A44914204D011F8014B03F8014FF8E710BD000000000000280000003000000038000000400000004800000048000000D6
:405A400048000000480000001884FF1F1884FF1F1884FF1F1884FF1F1884FF1F1884FF1F1884FF1F1884FF1F1884FF1F1884FF1F1884FF1F000000480800004810000048A8
:405A800018000048280000483400004840000048CC080048EC080048200000484C000048CC0000484C010048CC0100484C020048CC0200484C030048CC0300484C0400480E
:405AC000CC0400484C050048CC0500484C060048CC0600484C070048CC0700484C0800480C0900481C0900482C090048AC0900482C0A0048AC0A00482C0B0048AC0B004898
:405B00002C0C0048AC0C00482C0D0048AC0D00482C0E0048AC0E00482C0F0048AC0F00482C100048AC1000482C110048AC1100482C120048AC1200482C130048AC1300482D
:405B40002C140048AC1400482C150048AC1500482C160048AC1600482C170048AC1700482C180048AC1800482C190048AC1900482C1A0048AC1A00482C1B0048AC1B00486D
:405B800043000000F8B500BFF8BC08BC9E46704725030000C1480000F8B500BFF8BC08BC9E46704701030000B85B0000C880FF1F3003000090060000000000000A00000023
:405BC00047000000204553544143494F4E20444520534552564943494F2000002020202050525545424153204D455053414E20202020000020202054656C3A202835372909
:405C00003132333435362020202000002020204E49543A203930302E3132332E34353620202000003132332D4142430020534953504554524F4C20494E47454E4945524958
:405C4000412000002020534F4C5543494F4E455320504152412045445320000044696573656C2020436F727269656E746500000046656368612020202020203A20000000ED
:405C8000486F7261202020202020203A20000000506C6163612020202020203A200000004B696C6F6D657472616A653A200000005469706F202020202020203A200000007E
:405CC000506F736963696F6E2020203A2000000050726F647563746F2020203A2000000050707520202020202020203A20000000566F6C756D656E202020203A200000004D
:405D0000546F742E566F6C202020203A2000000044696E65726F20202020203A20000000436965727265204E6F20203A20000000436F6E736563757469766F3A20000000DB
:405D400053616C646F2020202020203A20000000456D7072657361202020203A200000004375656E746120202020203A2000000053657269616C20202020203A20000000BB
:405D80005469706F204375656E74613A2000000056697369746173204469613A20000000566973697461732053656D3A2000000056697369746173204D65733A20000000FE
:405DC000566F6C756D656E204469613A20000000566F6C756D656E2053656D3A20000000566F6C756D656E204D65733A2000000044696E65726F20446961203A2000000022
:405E000044696E65726F2053656D203A2000000044696E65726F204D6573203A2000000056616C6F722050726F672E3A200000004669726D612020202020203A20000000D5
:405E4000436564756C6120202020203A20000000240000002A2A2A2A2A2A2A2A2A2A2A2A2A2A2A2A2A2A2A2A2A2A2A2A5AA503812007000000366E01C05D00001800000042
:405E80000000E02E0000000000000000000000000000000000000000000000000000000000000000805B0000000000000000000000000000000000000000000000000000F9
:405EC0000000000000000000000000000000000000000000000000000000000000000000000000009483FF1F0000000000000000000000000000000000000000000000006D
:405F00000000000000000000000000000000000000000000000000000000000000000000000000000000000000000000000000000000000000000000000000000000000061
:405F40000000000000000000000000000000000000000000000000000000000000000000000000000000000000000000000000000000000000000000000000000000000021
:405F800000000000000000000000000000000000000000000000000000000000000000000000000000000000000000000000000000000000000000000000000000000000E1
:405FC00000000000000000000000000000000000000000000000000000000000000000000000000000000000000000000000000000000000000000000000000000000000A1
:020000040003F7
:0200000480007A
:400000008000000040000000000000000D00000080800000080000002000000010000000FF03000000000000004000000000000000009C00008000000000000000004B0012
:40004000008000000000000000004B0000000000000000000000000000000000000000000000000000000000000000000000000000000000000000000000000000000000B5
:40008000000000008000000000004000000000000000000000000000000000000000000000000000040000000000000100000000000000000000000000000000000000007B
:4000C0000000000000000000000000000000021500030234002A001400000100000000000003001C00030204000001000000000002000000020000280000002002000138C1
:40010000000F0000000000280000050031020000000C00EB31FFFFFF0000F0440C000000180004000404040400000001000000000000C000000040020000000000000000BC
:4001400000000000000000000000000000000000000C007100000003001402000000000000DC0022000900D001000020000002000000000000100040001000AC0200011FC1
:4001800000E000000000002000000500060000000000000400FF07FF4020F0050800000001000000040404041021000140A840200000000000000000000000000000000043
:4001C000000000000000000000000000000000001B23201C52002001000029000000000000184027000000181B0060000440000718002000800000100023000C8001041EF2
:400200000360780020208008000015015402000000E0CB000EFFFFFF0000F0440C000000010004000404040411110001000000000000C0000000400200000000000000007F
:400240000000000000000000000000000002000000000000000000000000000000000000000000000000000000000000000100000000010000000000000000000000000179
:400280000102000000000000000000146204000000000ECB34FFFFFF0000F0440C000000010004000404040403030001000000000000C00000004002000000000000000059
:4002C00000000000000000000000000003B004470071788800C300300000400000400003232454417A01040E43022C010000000000500500A00000800000088000001F7FA3
:400300008000608000008800000010400000000000000000000000000000000000000000010000000404000433300001000000000000000000000000000000000000000014
:400340000000000000000000000000001F0000000C7E1200007E00000002000000480024000004000400000104201950000000001F14002800000B0100000000000C1002BB
:4003800007010870080022000000001000000000000000000000000000000000000000001C00040004040004333000010000000000000000000000000000000000000000F3
:4003C0000000000000000000000000007F00001059062609000410020000000F0003790426005900004F000037004820044F000002000010064600095141200E40303008AC
:4004000007070E400000A8200000004123060500040E0C0005FFFFFF62A0F0410C00000000000213040404043333000100000000000040020010301000101012000000007A
:40044000000000000000000000000000000000000000900000000000000000000000000065009800D0000D00650018000000000002002C0000000000000000006000030004
:400480001C0088000A00A00000000100040000000000004000FF07FF4020F0050800000000000000040004000303000140A8402000000000000000000000000000000000F0
:4004C0000000000000000000000000007800040000144649001F0800080A01514E013026388042007E800000008080002000000010000000301F0000008080003E070118D8
:400500008060708000000200000010504603010002C0E0000AFFFFFF62A0F0410C0000001C0004000404040400200001000000000000400200103010001010120000000042
:400540000000000000000000000000000000000000000000000000000000010000000000020200000000000000010000000000000100000001000000000000000001000072
:40058000000003028000000000000041000000000000000000000000000000000000000000000000040400000000000100000000000000000000000000000000000000006C
:4005C00000000000000000000000000000000008330044000000000324004000000C0C030000010000010006500000007200080C0001000E43003000400000007C000000DE
:400600000000030F8000008000004000010000000000004000FF07FF4020F0050800000000000000040404000000000140A840200000000000000000000000000000000070
:40064000000000000000000000000000000000000000CB008202000041000000CF023000F0000F00FF000000C30000002000000110000000300200003000CF01F00138009C
:400680000402030020000A080000000100000000000000000000000000000000000000000000021304040004000000010000000000000000000000000000000000000000DC
:4006C00000000000000000000000000000000000003F00000C0012001F000000000104000C241112000000001F10002804002000000A0314003F000000000000200007061E
:40070000100108382000080200004000000000000000000000000000000000000000000000000213040400042220000100000000000000000000000000000000000000009A
:400740000000000000000000000000004000037881200E0000A30054247A418400000000300347840000008550000000710008080240010043C3302C000000000000801F1D
:400780007F60008000000028000004406502000000E00B0C16FFFFFF0000F0440C000000000000000404040022020001000000000000C0000000400200000000000000008A
:4007C00000000000000000000000000000000000000000040003000000000000000000000000000414002101000022082200150008001100140323000002000031000003CE
:40080000030C0C008008220000000014030000000000040000FF07FF4020F0050800000000000000040404000202000140A84020000000000000000000000000000000001D
:4008400000000000000000000000000010060009060300040026790959002610000400023700482F51002010042F000000000000260059000201002E7F2F000030070E10FA
:400880004008072000008A020000000453040100020C00E021FFFFFF62A0F0410C0000000000000004040400220200010000000000004002001030100010101200000000A1
:4008C000000000000000000000000000000000000000000000000000000000000000000000000000380F0F0F0F3C72000000000000000000000000000000000000000000D6
:400900003C0000727200000000000000050000000000000000000500040000000F00000000000000000000000F000800000000000000000000000000000000000000000063
:4009400000000000000000000000000000000000000000000000000000000000000000000080000100000000000000000000000000000000000000000000000000000000F6
:4009800000000000000000000000000000000000000000000200080000000000000000000000000000000000000000000000000000000000008000000000000000000000AD
:4009C00000000000000000000000000000000000000000000000000000000000000000000000000000000000000000000000000000000000000000000000000000000000F7
:400A000000000000000000000000000000000000000000020000000000000000000000000000000000000000000000000000000000000000000000000000000000000000B4
:400A40000000000000000000000000000000000000000000000000000000000000000000040000000000000000000000000002000000000000000000000000000000000070
:400A8000000001000000000000000000000000000000000008000000000000000000000000000000000000000000000000000000000000000000000000000000000000002D
:400AC00008000000000000000000000000000000000000000000000000000000000000080002000000000000000000000000000000000000000000000000000000000000E4
:400B000000000000000000000000000000000000000000000400020000000000000000000000000000000000000000000002000000000000000000000000000000000000AD
:400B40000000000000000000000000000000000000000000000000000000000000000000000000000000000000000000000000000000000000000000000000000000000075
:400B8000000000080000000000000000000000000000000000000000000000000000000000000000000000000000000000000000000000000000000000000000000000002D
:400BC00008000000000000000000000000000000000000000000020000000000000000000000000000000000000000000800000000000000000000000000000000000000E3
:400C000002000000000000000000000000000000000000000000000000000000000000000000000000000000000000000000020000000000000000000000000000000000B0
:400C40000000000000000000000000000000000000000000000000000000000000000000000000000000000000000000000000000000000000000000000000000400000070
:400C80000000000000000000000000000000000000000000000000000000000000000000000000000000000000000000000000000000000000000000000000000000000034
:400CC00000000000000000000000000000000000000000000000000000000000000000000000000000000000000000000200000000000000000000000000000000000000F2
:400D0000040000000000000000000000000000000000000000000000000000000000000000000000000000000000000000000000008500040000050080002004200040100D
:400D400000002448022005010801220800240004005900000020400100800008200088004001204408000010008220040004000040600006208001000080200000000080CC
:400D800000020000000000000000000000000000000000000000000000000000000000000000000000000000000000000008000000100000040200000010000008000010EB
:400DC000021000000004040E002040008000880020001180000000000200000000000400840008040000000000000000F000E300EE00000000003C00FE00F600F200100029
:400E0000000000000000000000000000000020000000300000000000000020000000000000000000000000000000000008404008000000010040A80000000020A000009079
:400E400000001010048001090000008020140102000081000120400100000000000855000000400800580000000000004018010000000000040100000000000000000010BF
:400E80000000000002000004000000008400000100000000000000000000000000000000000000000000000000000000804000010000008002000080000081044010A0105F
:400EC000004002200020101901810002A4484010100000800000000000010000004000000000000000000000000000008F002F006F00000000000C005F000E000F000400FD
:400F0000000003000D000000000000000000510008000000000000000200000000000000000000000000000000000000040001809000000A088000000000620010006010BD
:400F4000800000040400000410004500000060108000880418200080000008082800000000008801060041100004000008000000000000000000021200000000088000009C
:400F80000000000000000000000001000000000000000000000000000004000900000000800404000000000000000000000000000000000000011000200002420000000026
:400FC0000011800200000000020010400000000008000002000000080000000000800010000004000000000000000000CD00B5003E00000000006700D6004F0004000C000A
:4010000000008000000000000000000010000000E000000030004000000080000000000000000000000000000000000028400000000812000000AA0000408020A100001093
:40104000000001114400A10000808000080904000000000100A100000008028002000000000000110010000000000022000000000080000000000000000000000000000073
:4010800000000111000000020020002000000000000000000210002000000000A0000010000000000000000000000000000000000000000000000101000001100080000067
:4010C0000400002000080018000000000000000000000000000000100000000000000018000800000000000000000000A700BF00DF0000000000CD00A100A4001000000015
:4011000000000100000000000000000000000000000000001000040000000000000000000000000000000000000000000080000000003140000001020880100400004000CA
:4011400000000018000400010000800404000010000404180040000800100002800014000000300884000010000822000000000000000258C0200000000020040000000850
:40118000010004000004910000010000000000008200000800000000000000000000000000000000000000000000000000000000000000000000000000000500800028005D
:4011C0000400000000E04000800000000000000041005009000040000000000004000000200000000000000000000000B100C1006800000000003C006E00EE007000040067
