:4000000000800020110000009D5B00009D5B000080B500AF024A034B1B68136005F0C8FDBC760040FA460040010000000020004001000000002001400100000000480040B3
:400040000100000000480140010000000100000008000223000008760800032300001076080004230000287608000523000030760500062300002070050007230000307065
:4000800005000823000060700500FE23000070703000FE220000405180000B220000000200010C220000004480000D220000004780000E22000000488000FE220000004D5C
:4000C0000700102300000052070011230000085207001223000010520700132300001852060014230000605207001523000078520C0016230000004F2000172300007064E0
:400100002000FE2300007065080019230000005180001A230000000080001B230000800080001C230000800280001D230000000480001E230000800480001F230000000607
:40014000800020230000800680002123000000088000222300008008800023230000000A800024230000800A800025230000000C800026230000800C800027230000000EFB
:40018000800028230000800E800029230000001480002A230000801480002B230000001680002C230000801680002D230000001880002E230000801880002F230000001A1F
:4001C000800030230000801A10003123000010501000322300000050800033230000804D800034230000004C800035230000804C80003623000080478000372300000046EF
:400200008000382300008046800039230000004580003A230000804580003B230000001B80003C230000801B80003D230000001580003E230000801580003F230000001981
:400240008000402300008019800041230000001780004223000080178000432300000009800044230000800980004523000000078000462300008007800047230000000BD8
:40028000800048230000800B800049230000000580004A230000800580004B230000000D80004C230000800D80004D230000000380004E230000800380004F230000000F86
:4002C000800050230000800F800051230000000180005223000080018000532300000049800054230000804980005523000080488000562300000043800057230000804359
:400300008000582300000042800059230000804280005A230000004180005B230000804180005C23000000408000FE230000804010B5054C237833B9044B13B10448AFF387
:4003400000800123237010BD1885FF1F00000000F4740000084B10B51BB108490848AFF300800848036803B910BD074B002BFBD0BDE81040184700BF000000001C85FF1F51
:40038000F4740000C880FF1F0000000090B583B000AF764B1B78FF2B07D0744B93F83531FF2B02D1724B01221A70704B1B78FF2B07D06E4B93F83531FF2B02D06C4B02220C
:4003C0001A706A4B93F86A32FF2B07D0674B93F89F33FF2B02D1664B03221A70634B93F86A32FF2B07D0614B93F89F33FF2B02D05F4B04221A705E4B1B78012B09D15B4B0D
:400400001B78184603F0BCF803461A46574B83F84C20574B1B78022B31D1544B93F82B31062B08D1514B1B78184603F03BF84F4B002283F834214D4B93F86032062B09D1FF
:400440004A4B93F83531184603F02CF8474B002283F86922454B1B78184603F091F803461A46424B83F84C20404B93F83531184603F086F803461A463C4B83F881213C4B8E
:400480001B78032B2ED10023FB7128E0FC79374B1B78184603F074F803461A46334B234483F84C20FC79314B93F83531184603F067F803461A462D4B234483F88121FC797D
:4004C0002A4B93F86A32184603F05AF803461A46264B234483F8B622FB790133FB71FB79042BD3D9224B1B78042B3BD10023FB7135E0FC791D4B1B78184603F041F8034664
:400500001A461A4B234483F84C20FC79174B93F83531184603F034F803461A46134B234483F88121FC79114B93F86A32184603F027F803461A460D4B234483F8B622FC7940
:400540000A4B93F89F33184603F01AF803461A46064B234483F8EB23FB790133FB71FB79042BC6D900BF0C37BD4690BD6885FF1FCA8AFF1F90B593B000AFC44A07F11C03FB
:4005800010681860C24A07F11403106818609188927999809A71BF4A07F10C03106818609188927999809A71BB4B03221A7005F093FB62B606F0E8F806F0B0FA05F0E0FF16
:4005C00005F0FAFC05F02EFFB44B002283F83421B24B002283F86922002005F0B3FF03465A2B19D1002387F8473010E097F8474097F847309BB2184605F0A4FF03461A4648
:40060000A74B1A5597F84730013387F8473097F84730052BEAD915E000215A2005F008FF012387F8473009E097F847309C4A3021D15497F84730013387F8473097F8473009
:40064000052BF1D9964B5B7903F00F03DBB21B01DAB2934B1B7903F00F03DBB219469B00CB1ADB00DBB21344DAB28D4B9B7803F00F03DBB2194689000B445B00D9B2884BF6
:40068000DB7803F00F03DBB2184680000344184684001846234603449B00DBB20B44DBB21344DAB27E4B5B7803F00F03DBB21344DAB27C4B1A70062005F044FF03465A2BCB
:4006C0001CD1002387F8473013E097F847309C1D97F847309BB206339BB2184605F032FF03461A46704B1A5597F84730013387F8473097F84730052BE7D916E006215A2055
:4007000005F096FE012387F847300AE097F847300633654A3021D15497F84730013387F8473097F84730052BF0D95F4B5B7903F00F03DBB21B01DAB25B4B1B7903F00F03A2
:40074000DBB219469B00CB1ADB00DBB21344DAB2554B9B7803F00F03DBB2194689000B445B00D9B2504BDB7803F00F03DBB2184680000344184684001846234603449B0030
:40078000DBB20B44DBB21344DAB2474B5B7803F00F03DBB21344DAB2444B1A70002387F843300FE097F8434097F84330184602F021FE03461A463E4B1A5597F8433001339C
:4007C00087F8433097F843300F2BEBD9384B5A78324B1A70364B9A78304B83F83521344BDA782E4B83F86A22314B1A792B4B83F89F232A4B00221A70284B012283F8352131
:400800002C4B00221A70002387F846302A4B00221A70FFF7BBFD05F09BFC034687F8233097F82330042B16D9002387F842300CE097F8424005F044FC03461A461F4B1A553F
:4008400097F84230013387F8423097F8422097F823309A42ECD3042005F00EFB174B1B7A4E2B00F059824E2B2ADC0A2B00F088800A2B04DC012B34D0022B37D074E20B2BD6
:4008800000F01D811C2B4DD06EE200BFF8740000FC74000004750000828AFF1F6885FF1F6085FF1FCB8AFF1FC08AFF1FC68AFF1F408AFF1FC78AFF1FC88AFF1FD08AFF1F22
:4008C000CA2B46D0CA2B05DC532B00F00882AA2B11D049E2CC2B00F08D81E12B00F0348242E2E12387F8463000F094BDE22387F8463000F08FBD012387F84630002387F848
:40090000413009E097F84130B74A0021D15497F84130013387F8413097F84130132BF1D900F078BD6B2387F84630002387F8403009E097F84030AC4A0021D15497F840300D
:40094000013387F8403097F84030132BF1D900F061BD032387F84630002387F83F3009E097F83F30A04A0021D15497F83F30013387F83F3097F83F30132BF1D900F04ABDDF
:4009800097F84630012B19D1002387F84630974B1B78184602F086FD002387F83E3009E097F83E30904A0021D15497F83E30013387F83E3097F83E30132BF1D997F846307E
:4009C000022B26D10A2387F84630884B1B78184602F0D6FD854B1878854B1B780122194602F01AFF814B1B78184602F0C9FD002387F83D3009E097F83D307B4A0021D15464
:400A000097F83D30013387F83D3097F83D30132BF1D997F846306B2B40F0F1841A2387F84630724B1B78184602F0AAFD6F4B18786F4B1B780122194602F0EEFE6B4B1B789D
:400A4000184602F09DFD002387F83C3009E097F83C30654A0021D15497F83C30013387F83C3097F83C30132BF1D9002387F83B300BE097F83B305D4A1344202283F8232197
:400A800097F83B30013387F83B3097F83B30072BEFD9002387F83A300BE097F83A30534A1344202283F82D2197F83A30013387F83A3097F83A30052BEFD900F0A0BC97F859
:400AC0004630012B1AD1002387F84630474B93F83531184602F0E6FC002387F8393009E097F83930404A0021D15497F83930013387F8393097F83930132BF1D997F84630C7
:400B0000022B17D10B2387F84630384B93F83531184602F035FD354B93F83501344B1B780122194602F078FE304B93F83531184602F026FD97F846306B2B40F062841B237C
:400B400087F84630294B93F83531184602F018FD264B93F83501264B1B780122194602F05BFE224B93F83531184602F009FD002387F8383009E097F838301B4A0021D1546A
:400B800097F83830013387F8383097F83830132BF1D9002387F837300BE097F83730134A1344202283F8582297F83730013387F8373097F83730072BEFD9002387F8363047
:400BC0000BE097F83630094A1344202283F8622297F83630013387F8363097F83630052BEFD900F00EBC00BFD08AFF1F6885FF1FC78AFF1FC54B93F83531184602F0C0FCB7
:400C0000C24B93F83501C24B1B780122194602F003FE0A2005F030F9BC4B93F83531184602F0AEFCB94B1B78184602F0A9FCB74B1878B74B1B780122194602F0EDFD0A205C
:400C400005F01AF9B14B1B78184602F099FCAF4B93F83531184602F093FCAC4B93F83501AB4B1B780222194602F0D6FD0A2005F003F9A64B93F83531184602F081FCA34BED
:400C80001B78184602F07CFCA04B1878A04B1B780222194602F0C0FD0A2005F0EDF89B4B1B78184602F06CFC984B93F83531184602F066FC002387F8353009E097F835300F
:400CC000944A0021D15497F83530013387F8353097F83530132BF1D903F0B0FD9AE397F84630AC2B08D1894B012283F83421874B1B78184602F016FE97F84630BC2B40F04A
:400D00008283824B012283F86922804B93F83531184602F007FE76E397F84630AC2B06D1002387F84630794B002283F8342197F84630BC2B40F06983002387F84630734BEF
:400D4000002283F8692260E397F84630E12B02D1C12387F8463097F84630E22B40F05783C22387F8463052E36A4BDB78832B40F0E38097F844300A2B40F0DE80654B1B7ACC
:400D8000E12B00F0D980002387F834300BE097F834305E4A1344302283F80B2197F83430013387F8343097F83430052BEFD9002387F84530584B00221A70002387F8443091
:400DC000072387F8333021E097F83330514AD35C002B1FD097F833304E4AD35CFF2B19D097F83330073B97F833204A498A5C07F148010B4403F8442C97F84530013387F803
:400E0000453097F83330013387F8333097F833300B2BD9D9062387F847301BE097F8473097F8452007F148010A4412F8441C374A13440A4683F80B2197F84530002B0ED072
:400E400097F84530013B87F8453097F84730013B87F8473097F84730002BDFD100E000BF2A4B93F80B31303B1B015AB2274B93F80C31303BDBB25BB213435BB2DAB2234B1B
:400E800083F82920214B93F80D31303B1B015AB21E4B93F80E31303BDBB25BB213435BB2DAB21A4B83F82A20184B93F80F31303B1B015AB2154B93F81031303BDBB25BB263
:400EC00013435BB2DAB2114B83F82B20002387F8473013E097F847300C4A134493F8292097F847309BB20C339BB21946104605F09FFA97F84730013387F8473097F84730F6
:400F0000022BE7D9002387F8323011E06885FF1FC78AFF1FD08AFF1FC88AFF1F97F83230AE4A0021D15497F83230013387F8323097F83230132BF1D9A84BDB78832B0AD170
:400F400097F84430012B06D1A44B1A7AA44B1A700A2387F84430A14BDB78832B58D197F84630032B54D1002387F846309B4BDA793B7F9A422CD1994B1A7A7B7F9A4227D1B7
:400F8000964B5A7ABB7F9A4222D1944B9A7AFB7F9A421DD1914BDB7AFF2B19D1002387F831300EE097F8313007F14802134413F8343C184605F014F997F83130013387F8FF
:400FC000313097F83130052BECD9042004F054FF824B1B7A012B02D1012387F844307F4B1B7A022B02D1022387F84430002387F8303009E097F83030784A0021D15497F8E0
:401000003030013387F8303097F83030132BF1D9724BDB78832B3DD197F846301A2B39D1072387F82F301CE097F82F306B4AD35C002B1AD097F82F30684AD35CFF2B14D05E
:4010400097F82F30073B97F82F206449895C654A13440A4683F82D2197F82F30013387F82F3097F82F300E2BDED9002387F82E3009E097F82E30594A0021D15497F82E3027
:40108000013387F82E3097F82E30132BF1D90A2387F84630514BDB78832B45D197F84630C12B41D1072387F82D301EE097F82D304A4AD35C002B1CD097F82D30474AD35CDC
:4010C000FF2B16D097F82D30073B97F82D2043498A5C303AD1B2434A13440A4683F8292097F82D30013387F82D3097F82D300A2BDCD9002387F82C3009E097F82C30374A5A
:401100000021D15497F82C30013387F82C3097F82C30132BF1D9334B1B783349184602F0F1FA002387F846302C4BDB78832B46D197F84630C22B42D1072387F82B301EE006
:4011400097F82B30254AD35C002B1CD097F82B30224AD35CFF2B16D097F82B30073B97F82B201E498A5C303AD1B21E4A13440A4683F85E2197F82B30013387F82B3097F86B
:401180002B300A2BDCD9002387F82A3009E097F82A30124A0021D15497F82A30013387F82A3097F82A30132BF1D90E4B93F835310E49184602F0A6FA002387F84630074B98
:4011C000DB78832B6ED197F846300A2B6AD1002387F84630072387F8293041E0D08AFF1FC88AFF1F6885FF1F9185FF1FC686FF1F97F829308A4AD35C002B35D097F829306B
:40120000874AD35CFF2B2FD097F82930844AD35C602B14D997F82930814AD35C7A2B0ED897F82930073B97F829207D498A5C203AD1B27C4A13440A4683F823210BE097F88A
:401240002930073B97F829207549895C754A13440A4683F8232197F82930013387F8293097F829300E2BC3D9002387F8283009E097F828306A4A0021D15497F828300133A3
:4012800087F8283097F82830132BF1D9654B1B78184602F047FB634B012283F83421AC2387F846305E4BDB78832B3DD197F846301B2B39D1072387F827301CE097F827303F
:4012C000574AD35C002B1AD097F82730544AD35CFF2B14D097F82730073B97F827205049895C504A13440A4683F8622297F82730013387F8273097F827300E2BDED90023A3
:4013000087F8263009E097F82630454A0021D15497F82630013387F8263097F82630132BF1D90B2387F846303D4BDB78832B70D197F846300B2B6CD1002387F846300723B3
:4013400087F8253037E097F82530354AD35C002B35D097F82530324AD35CFF2B2FD097F825302F4AD35C602B14D997F825302C4AD35C7A2B0ED897F82530073B97F82520F6
:4013800027498A5C203AD1B2264A13440A4683F858220BE097F82530073B97F825202049895C204A13440A4683F8582297F82530013387F8253097F825300E2BC3D90023ED
:4013C00087F8243009E097F82430154A0021D15497F82430013387F8243097F82430132BF1D9104B93F83531184602F09BFA0D4B012283F86922BC2387F8463009E000BFA6
:4014000008E000BF06E000BF04E000BF02E000BF00E000BF002387F82330FFF7FAB900BFD08AFF1F6885FF1F80B489B000AF78600B467B800023FB830023BB617B68002B6F
:401440002FD1002368E0FB8BDB0B9BB2BB60FB8B5B00FB837B681B781A46BB6942FA03F31BB203F001031AB2B7F91E3013431BB2FB83BB690133BB61BB69072B07DD0023A2
:40148000BB617B6801337B607B88013B7B80BB68002B06D0FB8B83F4FF4383F07A03DB43FB837B88002BCED100237B6113E0FB8BDB0B9BB2BB60FB8B5B00FB83BB68002BB5
:4014C00006D0FB8B83F4FF4383F07A03DB43FB837B6901337B617B690F2BE8DD00237B824FF400437B610123FB6011E0FA8B7B691340002B06D0FB681AB2B7F9123013434E
:401500001BB27B827B695B107B61FB685B00FB607B69002BEAD17B8A18462437BD4680BC704700BFF0B587B000AF184B1B787B71164B5B7803F00F033B71154B1B783A7968
:401540009A4240F05184124B002283F82B210123FB750CE0FB7D013BFA7D0C49895C0C4A13440A4683F85120FB7D0133FB75FA7D7B7901339A42EDDB054B93F85330652B29
:4015800040F07F820523BB7525E000BF508AFF1F6885FF1FCD4B93F8553003F00F03591ECB4B1B781D46BB7D581FBB7DC74A134493F85160C54C2A4692002A440B469B0033
:4015C0000B445B00134423440344013332461A70BB7D0133BB75BA7DBC4B93F8543004339A42D7DBB94B93F8553003F00F03591EB74B1B781D46B54B93F8553003F00F03BB
:40160000581EB34B1B78B14C1A4692001A4403469B0003445B001344234401331B781B09DBB23033DCB2A9482A4692002A4453001A460B461B015B1A5B0013440344833304
:4016400022461A70A14B93F8553003F00F03591E9F4B1B781D469D4B93F8553003F00F03581E9B4B1B78994C1A4692001A4403469B0003445B001344234401331B7803F001
:401680000F03DBB23033DCB290482A4692002A4453001A460B461B015B1A5B0013440344843322461A70894B93F8553003F00F03591E874B1B781D46844B93F8553003F021
:4016C0000F03581E824B1B78804C1A4692001A4403469B0003445B001344234402331B781B09DBB23033DCB278482A4692002A4453001A460B461B015B1A5B00134403447A
:40170000853322461A70714B93F8553003F00F03591E6F4B1B781D466C4B93F8553003F00F03581E6A4B1B78684C1A4692001A4403469B0003445B001344234402331B786D
:4017400003F00F03DBB23033DCB260482A4692002A4453001A460B461B015B1A5B0013440344863322461A70584B93F8553003F00F03591E564B1B781D46544B93F8553020
:4017800003F00F03581E524B1B78504C1A4692001A4403469B0003445B001344234403331B781B09DBB23033DCB248482A4692002A4453001A460B461B015B1A5B0013449C
:4017C0000344873322461A70404B93F8553003F00F03591E3E4B1B781D463C4B93F8553003F00F03581E3A4B1B78384C1A4692001A4403469B0003445B00134423440333E8
:401800001B7803F00F03DBB23033DCB22F482A4692002A4453001A460B461B015B1A5B0013440344883322461A70284B93F8553003F00F03591E264B1B781D46234B93F811
:40184000553003F00F03581E214B1B781F4C1A4692001A4403469B0003445B001344234404331B781B09DBB23033DCB217482A4692002A4453001A460B461B015B1A5B003F
:4018800013440344893322461A70104B93F8553003F00F03591E0E4B1B781D460B4B93F8553003F00F03581E094B1B78074C1A4692001A4403469B0003445B0013442344F7
:4018C00004331B7803F00F03DBB203E06885FF1FC78AFF1F3033DCB2B8482A4692002A4453001A460B461B015B1A5B00134403448A3322461A70B14B93F8553003F00F0380
:40190000591EAF4B1B781D46AC4B93F8553003F00F03581EAA4B1B78A84C1A4692001A4403469B0003445B001344234405331B781B09DBB23033DCB2A0482A4692002A44E9
:4019400053001A460B461B015B1A5B00134403448B3322461A70994B93F8553003F00F03591E974B1B781D46944B93F8553003F00F03581E924B1B78904C1A4692001A44DB
:4019800003469B0003445B001344234405331B7803F00F03DBB23033DCB288482A4692002A4453001A460B461B015B1A5B00134403448C3322461A7000237B753AE07F4B1F
:4019C00093F8553003F00F03591E7D4B1B7897F915007A4C1A4692001A4453001A460B461B015B1A5B0013442344034483331B78302B24D1714B93F8553003F00F03591E6F
:401A00006F4B1B7897F915006C4C1A4692001A4453001A460B461B015B1A5B00134423440344833300221A7097F91530DBB20133DBB27B7597F91530072BC0DD00E000BFFF
:401A4000012004F09BFA3B7943F05003DBB2184604F0DCFF594B93F852305BB203F00F035BB263F03F035BB2DBB2184604F0CEFFFA2004F0CBFF042004F0FEF9002004F0AF
:401A80007DFA4E4B93F85330022B40F0138104233B751BE03B7D043B3A7D48490A4492F85110464A13440A4683F839203B7D043B3A7D043241490A4492F851103F4A13443B
:401AC0000A4683F835203B7D01333B753B7D072BE0D93A4B93F839301B09DBB23033DAB2364B83F80321354B93F8393003F00F03DBB23033DAB2314B83F804212F4B93F838
:401B00003A301B09DBB23033DAB22C4B83F805212A4B93F83A3003F00F03DBB23033DAB2264B83F80621254B93F83B301B09DBB23033DAB2214B83F80721204B93F83B300F
:401B400003F00F03DBB23033DAB21C4B83F808211A4B93F83C301B09DBB23033DAB2174B83F80921154B93F83C3003F00F03DBB23033DAB2114B83F80A210023FB7414E076
:401B800097F913300D4A134493F80331302B1BD197F91330094A1344002283F8032197F91330DBB20133DBB2FB7497F91320054B1B7801339A42E3DB07E000BF6885FF1FAB
:401BC000C78AFF1F828AFF1F00BF9C4B93F835301B09DBB23033DAB2984B83F8FB20974B93F8353003F00F03DBB23033DAB2934B83F8FC20914B93F836301B09DBB23033F4
:401C0000DAB28E4B83F8FD208C4B93F8363003F00F03DBB23033DAB2884B83F8FE20874B93F837301B09DBB23033DAB2834B83F8FF20824B93F8373003F00F03DBB2303372
:401C4000DAB27E4B83F800217C4B93F838301B09DBB23033DAB2794B83F80121774B93F8383003F00F03DBB23033DAB2734B83F802210023BB7414E097F912306F4A1344FE
:401C800093F8FB30302B11D197F912306B4A1344002283F8FB2097F91230DBB20133DBB2BB7497F91230072BE6DD00E000BF002004F064F9614B93F85330032B40F0948049
:401CC0005E4B93F85430042B40F08E805B4B062283F82B21594B93F8583003F00F03DAB2564B83F82C21554B93F82C315A1E534B93F8573003F00F03DBB23033D8B24F49B2
:401D000013465B0013445B000B4403F5887302461A704A4B93F82C315A1E484B93F857301B09DBB23033D8B2444913465B0013445B000B4403F20F1302461A703F4B93F8B1
:401D40002C315A1E3D4B93F8563003F00F03DBB23033D8B2394913465B0013445B000B4403F5877302461A70344B93F82C315A1E324B93F856301B09DBB23033D8B22F49F8
:401D800013465B0013445B000B4403F20D1302461A702A4B93F82C315A1E284B93F8553003F00F03DBB23033D8B2244913465B0013445B000B4403F5867302461A701F4B61
:401DC00093F82C315A1E1D4B93F855301B09DBB23033D8B2194913465B0013445B000B4403F20B1302461A70144B93F835313A799A4240F06784114B002283F82B2101230E
:401E00007B740CE07B7C013B7A7C0D49895C0B4A13440A4683F886217B7C01337B747A7C7B7901339A42EDDB044B93F88831652B40F0968205233B7426E000BF6885FF1F57
:401E4000508AFF1FCD4B93F88A3103F00F03591ECB4B1B781D463B7C581F3B7CC74A134493F88661C54C2A4692002A440B469B000B445B0013442344034403F59B7332462B
:401E80001A703B7C01333B743A7CBC4B93F8893104339A42D6DBB94B93F88A3103F00F03591EB74B1B781D46B44B93F88A3103F00F03581EB24B1B78B04C1A4692001A44DE
:401EC00003469B0003445B001344234403F59B731B781B09DBB23033DCB2A8482A4692002A4453001A460B461B015B1A5B001344034403F5DC7322461A70A04B93F88A310B
:401F000003F00F03591E9E4B1B781D469B4B93F88A3103F00F03581E994B1B78974C1A4692001A4403469B0003445B001344234403F59B731B7803F00F03DBB23033DCB295
:401F40008E482A4692002A4453001A460B461B015B1A5B001344034403F2B91322461A70864B93F88A3103F00F03591E844B1B781D46824B93F88A3103F00F03581E804B29
:401F80001B787E4C1A4692001A4403469B0003445B001344234403F237131B781B09DBB23033DCB275482A4692002A4453001A460B461B015B1A5B001344034403F5DD73B9
:401FC00022461A706D4B93F88A3103F00F03591E6B4B1B781D46694B93F88A3103F00F03581E674B1B78654C1A4692001A4403469B0003445B001344234403F237131B78F8
:4020000003F00F03DBB23033DCB25C482A4692002A4453001A460B461B015B1A5B001344034403F2BB1322461A70544B93F88A3103F00F03591E524B1B781D464F4B93F8AD
:402040008A3103F00F03581E4D4B1B784B4C1A4692001A4403469B0003445B001344234403F59C731B781B09DBB23033DCB243482A4692002A4453001A460B461B015B1A08
:402080005B001344034403F5DE7322461A703B4B93F88A3103F00F03591E394B1B781D46364B93F88A3103F00F03581E344B1B78324C1A4692001A4403469B0003445B0082
:4020C0001344234403F59C731B7803F00F03DBB23033DCB229482A4692002A4453001A460B461B015B1A5B001344034403F2BD1322461A70214B93F88A3103F00F03591EB1
:402100001F4B1B781D461D4B93F88A3103F00F03581E1B4B1B78194C1A4692001A4403469B0003445B001344234403F239131B781B09DBB23033DCB210482A4692002A44E6
:4021400053001A460B461B015B1A5B001344034403F5DF7322461A70084B93F88A3103F00F03591E064B1B781D46044B93F88A3103F00F03581E024B1B7803E06885FF1F5B
:40218000C78AFF1FC44C1A4692001A4403469B0003445B001344234403F239131B7803F00F03DBB23033DCB2BB482A4692002A4453001A460B461B015B1A5B0013440344B4
:4021C00003F2BF1322461A70B34B93F88A3103F00F03591EB14B1B781D46AF4B93F88A3103F00F03581EAD4B1B78AB4C1A4692001A4403469B0003445B001344234403F5AB
:402200009D731B781B09DBB23033DCB2A2482A4692002A4453001A460B461B015B1A5B001344034403F5E07322461A709A4B93F88A3103F00F03591E984B1B781D46964BD3
:4022400093F88A3103F00F03581E944B1B78924C1A4692001A4403469B0003445B001344234403F59D731B7803F00F03DBB23033DCB289482A4692002A4453001A460B4656
:402280001B015B1A5B001344034403F2C11322461A700023FB733CE07F4B93F88A3103F00F03591E7D4B1B7897F90F007A4C1A4692001A4453001A460B461B015B1A5B00A0
:4022C00013442344034403F5DC731B78302B25D1714B93F88A3103F00F03591E6F4B1B7897F90F006C4C1A4692001A4453001A460B461B015B1A5B0013442344034403F54F
:40230000DC7300221A7097F90F30DBB20133DBB2FB7397F90F30072BBEDD00E000BF012003F02CFE3B7943F05003DBB2184604F06DFB594B93F887315BB203F00F035BB217
:4023400063F03F035BB2DBB2184604F05FFBFA2004F05CFB042003F08FFD002003F00EFE4D4B93F88831022B40F012810423BB731BE0BB7B043BBA7B47490A4492F8861196
:40238000454A13440A4683F86E21BB7B043BBA7B043241490A4492F886113F4A13440A4683F86A21BB7B0133BB73BB7B072BE0D9394B93F86E311B09DBB23033DAB2364B46
:4023C00083F83822344B93F86E3103F00F03DBB23033DAB2304B83F839222F4B93F86F311B09DBB23033DAB22B4B83F83A222A4B93F86F3103F00F03DBB23033DAB2264B69
:4024000083F83B22244B93F870311B09DBB23033DAB2214B83F83C221F4B93F8703103F00F03DBB23033DAB21B4B83F83D221A4B93F871311B09DBB23033DAB2164B83F8DF
:402440003E22154B93F8713103F00F03DBB23033DAB2114B83F83F2200237B7314E097F90D300D4A134493F83832302B1AD197F90D30094A1344002283F8382297F90D30C0
:40248000DBB20133DBB27B7397F90D20044B1B7801339A42E3DB06E06885FF1FC78AFF1F828AFF1F00BF9A4B93F86A311B09DBB23033DAB2964B83F83022954B93F86A31CB
:4024C00003F00F03DBB23033DAB2914B83F831228F4B93F86B311B09DBB23033DAB28C4B83F832228A4B93F86B3103F00F03DBB23033DAB2864B83F83322854B93F86C3154
:402500001B09DBB23033DAB2814B83F83422804B93F86C3103F00F03DBB23033DAB27C4B83F835227A4B93F86D311B09DBB23033DAB2774B83F83622754B93F86D3103F052
:402540000F03DBB23033DAB2714B83F8372200233B7314E097F90C306D4A134493F83032302B11D197F90C30694A1344002283F8302297F90C30DBB20133DBB23B7397F957
:402580000C30072BE6DD00E000BF002003F0F6FC5F4B93F88831032B40F094805C4B93F88931042B40F08E80594B062283F86022574B93F88D3103F00F03DAB2544B83F82E
:4025C0006122534B93F861325A1E514B93F88C3103F00F03DBB23033D8B24D4913465B0013445B000B4403F2452302461A70484B93F861325A1E464B93F88C311B09DBB294
:402600003033D8B2424913465B0013445B000B4403F5117302461A703D4B93F861325A1E3B4B93F88B3103F00F03DBB23033D8B2374913465B0013445B000B4403F2432325
:4026400002461A70324B93F861325A1E304B93F88B311B09DBB23033D8B22D4913465B0013445B000B4403F2422302461A70284B93F861325A1E264B93F88A3103F00F03F9
:40268000DBB23033D8B2224913465B0013445B000B4403F2412302461A701D4B93F861325A1E1B4B93F88A311B09DBB23033D8B2174913465B0013445B000B4403F510737D
:4026C00002461A70124B93F86A323A799A4240F03E830123FB720CE0FB7A013BFA7A0D49895C0B4A13440A4683F8BB22FB7A0133FB72FA7A7B7901339A42EDDB044B93F8A3
:40270000BD32652B40F050820523BB7226E000BF6885FF1F508AFF1FCD4B93F8BF3203F00F03591ECB4B1B781D46BB7A581FBB7AC74A134493F8BB62C54C2A4692002A446D
:402740000B469B000B445B0013442344034403F26B2332461A70BB7A0133BB72BA7ABC4B93F8BE3204339A42D6DBB94B93F8BF3203F00F03591EB74B1B781D46B44B93F8AB
:40278000BF3203F00F03581EB24B1B78B04C1A4692001A4403469B0003445B001344234403F26B231B781B09DBB23033DCB2A8482A4692002A4453001A460B461B015B1AE0
:4027C0005B001344034403F2ED2322461A70A04B93F8BF3203F00F03591E9E4B1B781D469B4B93F8BF3203F00F03581E994B1B78974C1A4692001A4403469B0003445B001A
:402800001344234403F26B231B7803F00F03DBB23033DCB28E482A4692002A4453001A460B461B015B1A5B001344034403F2EE2322461A70864B93F8BF3203F00F03591EAC
:40284000844B1B781D46824B93F8BF3203F00F03581E804B1B787E4C1A4692001A4403469B0003445B001344234403F51B731B781B09DBB23033DCB275482A4692002A442B
:4028800053001A460B461B015B1A5B001344034403F2EF2322461A706D4B93F8BF3203F00F03591E6B4B1B781D46694B93F8BF3203F00F03581E674B1B78654C1A469200A2
:4028C0001A4403469B0003445B001344234403F51B731B7803F00F03DBB23033DCB25C482A4692002A4453001A460B461B015B1A5B001344034403F53C7322461A70544BC0
:4029000093F8BF3203F00F03591E524B1B781D464F4B93F8BF3203F00F03581E4D4B1B784B4C1A4692001A4403469B0003445B001344234403F26D231B781B09DBB23033F9
:40294000DCB243482A4692002A4453001A460B461B015B1A5B001344034403F2F12322461A703B4B93F8BF3203F00F03591E394B1B781D46364B93F8BF3203F00F03581ED5
:40298000344B1B78324C1A4692001A4403469B0003445B001344234403F26D231B7803F00F03DBB23033DCB229482A4692002A4453001A460B461B015B1A5B0013440344E9
:4029C00003F2F22322461A70214B93F8BF3203F00F03591E1F4B1B781D461D4B93F8BF3203F00F03581E1B4B1B78194C1A4692001A4403469B0003445B001344234403F2D1
:402A00006E231B781B09DBB23033DCB210482A4692002A4453001A460B461B015B1A5B001344034403F2F32322461A70084B93F8BF3203F00F03591E064B1B781D46044B9C
:402A400093F8BF3203F00F03581E024B1B7803E06885FF1FC78AFF1FC24C1A4692001A4403469B0003445B001344234403F26E231B7803F00F03DBB23033DCB2B9482A4673
:402A800092002A4453001A460B461B015B1A5B001344034403F53D7322461A70B14B93F8BF3203F00F03591EAF4B1B781D46AD4B93F8BF3203F00F03581EAB4B1B78A94C9D
:402AC0001A4692001A4403469B0003445B001344234403F26F231B781B09DBB23033DCB2A0482A4692002A4453001A460B461B015B1A5B001344034403F2F52322461A70A1
:402B0000984B93F8BF3203F00F03591E964B1B781D46944B93F8BF3203F00F03581E924B1B78904C1A4692001A4403469B0003445B001344234403F26F231B7803F00F030E
:402B4000DBB23033DCB287482A4692002A4453001A460B461B015B1A5B001344034403F2F62322461A70012003F008FA3B7943F05003DBB2184603F049FF7A4B93F8BC3256
:402B80005BB203F00F035BB263F03F035BB2DBB2184603F03BFFFA2003F038FF042003F06BF9002003F0EAF96E4B93F8BD32022B40F0CD8004237B721BE07B7A043B7A7A73
:402BC00068490A4492F8BB12664A13440A4683F8A3227B7A043B7A7A043262490A4492F8BB12604A13440A4683F89F227B7A01337B727B7A072BE0D95A4B93F8A3321B098E
:402C0000DBB23033DAB2574B83F86D23554B93F8A33203F00F03DBB23033DAB2514B83F86E23504B93F8A4321B09DBB23033DAB24C4B83F86F234B4B93F8A43203F00F0306
:402C4000DBB23033DAB2474B83F87023454B93F8A5321B09DBB23033DAB2424B83F87123404B93F8A53203F00F03DBB23033DAB23C4B83F872233B4B93F8A6321B09DBB26B
:402C80003033DAB2374B83F87323364B93F8A63203F00F03DBB23033DAB2324B83F87423304B93F89F321B09DBB23033DAB22D4B83F865232B4B93F89F3203F00F03DBB248
:402CC0003033DAB2274B83F86623264B93F8A0321B09DBB23033DAB2224B83F86723214B93F8A03203F00F03DBB23033DAB21D4B83F868231B4B93F8A1321B09DBB23033FF
:402D0000DAB2184B83F86923164B93F8A13203F00F03DBB23033DAB2124B83F86A23114B93F8A2321B09DBB23033DAB20D4B83F86B230C4B93F8A23203F00F03DBB2303391
:402D4000DAB2084B83F86C23002003F017F9054B93F89F333A799A4240F0438301233B7211E000BF6885FF1FC78AFF1F3B7A013B3A7A0C49895C0C4A13440A4683F8F023B0
:402D80003B7A01333B723A7A7B7901339A42EDDB054B93F8F233652B40F050820523FB7126E000BF508AFF1F6885FF1FCD4B93F8F43303F00F03591ECB4B1B781D46FB7949
:402DC000581FFB79C74A134493F8F063C54C2A4692002A440B469B000B445B0013442344034403F5687332461A70FB790133FB71FA79BC4B93F8F33304339A42D6DBB94BAA
:402E000093F8F43303F00F03591EB74B1B781D46B44B93F8F43303F00F03581EB24B1B78B04C1A4692001A4403469B0003445B001344234403F568731B781B09DBB23033A6
:402E4000DCB2A8482A4692002A4453001A460B461B015B1A5B001344034403F2224322461A70A04B93F8F43303F00F03591E9E4B1B781D469B4B93F8F43303F00F03581E7F
:402E8000994B1B78974C1A4692001A4403469B0003445B001344234403F568731B7803F00F03DBB23033DCB28E482A4692002A4453001A460B461B015B1A5B001344034467
:402EC00003F2234322461A70864B93F8F43303F00F03591E844B1B781D46824B93F8F43303F00F03581E804B1B787E4C1A4692001A4403469B0003445B001344234403F216
:402F0000A1331B781B09DBB23033DCB275482A4692002A4453001A460B461B015B1A5B001344034403F2244322461A706D4B93F8F43303F00F03591E6B4B1B781D46694B39
:402F400093F8F43303F00F03581E674B1B78654C1A4692001A4403469B0003445B001344234403F2A1331B7803F00F03DBB23033DCB25C482A4692002A4453001A460B46A3
:402F80001B015B1A5B001344034403F2254322461A70544B93F8F43303F00F03591E524B1B781D464F4B93F8F43303F00F03581E4D4B1B784B4C1A4692001A4403469B001B
:402FC00003445B001344234403F2A2331B781B09DBB23033DCB243482A4692002A4453001A460B461B015B1A5B001344034403F2264322461A703B4B93F8F43303F00F035C
:40300000591E394B1B781D46364B93F8F43303F00F03581E344B1B78324C1A4692001A4403469B0003445B001344234403F2A2331B7803F00F03DBB23033DCB229482A460C
:4030400092002A4453001A460B461B015B1A5B001344034403F2274322461A70214B93F8F43303F00F03591E1F4B1B781D461D4B93F8F43303F00F03581E1B4B1B78194C84
:403080001A4692001A4403469B0003445B001344234403F2A3331B781B09DBB23033DCB210482A4692002A4453001A460B461B015B1A5B001344034403F5856322461A7054
:4030C000084B93F8F43303F00F03591E064B1B781D46044B93F8F43303F00F03581E024B1B7803E06885FF1FC78AFF1FBF4C1A4692001A4403469B0003445B0013442344B0
:4031000003F2A3331B7803F00F03DBB23033DCB2B6482A4692002A4453001A460B461B015B1A5B001344034403F2294322461A70AE4B93F8F43303F00F03591EAC4B1B78AE
:403140001D46AA4B93F8F43303F00F03581EA84B1B78A64C1A4692001A4403469B0003445B001344234403F569731B781B09DBB23033DCB29D482A4692002A4453001A46AD
:403180000B461B015B1A5B001344034403F22A4322461A70954B93F8F43303F00F03591E934B1B781D46914B93F8F43303F00F03581E8F4B1B788D4C1A4692001A44034616
:4031C0009B0003445B001344234403F569731B7803F00F03DBB23033DCB284482A4692002A4453001A460B461B015B1A5B001344034403F22B4322461A70012002F0BEFEFC
:403200003B7943F05003DBB2184603F0FFFB774B93F8F1335BB203F00F035BB263F03F035BB2DBB2184603F0F1FBFA2003F0EEFB042002F021FE002002F0A0FE6B4B93F864
:40324000F233022B40F0CD800423BB711BE0BB79043BBA7965490A4492F8F013634A13440A4683F8D823BB79043BBA7904325F490A4492F8F0135D4A13440A4683F8D42319
:40328000BB790133BB71BB79072BE0D9574B93F8D8331B09DBB23033DAB2544B83F8A224524B93F8D83303F00F03DBB23033DAB24E4B83F8A3244D4B93F8D9331B09DBB234
:4032C0003033DAB2494B83F8A424484B93F8D93303F00F03DBB23033DAB2444B83F8A524424B93F8DA331B09DBB23033DAB23F4B83F8A6243D4B93F8DA3303F00F03DBB244
:403300003033DAB2394B83F8A724384B93F8DB331B09DBB23033DAB2344B83F8A824334B93F8DB3303F00F03DBB23033DAB22F4B83F8A9242D4B93F8D4331B09DBB23033DA
:40334000DAB22A4B83F89A24284B93F8D43303F00F03DBB23033DAB2244B83F89B24234B93F8D5331B09DBB23033DAB21F4B83F89C241E4B93F8D53303F00F03DBB23033AD
:40338000DAB21A4B83F89D24184B93F8D6331B09DBB23033DAB2154B83F89E24134B93F8D63303F00F03DBB23033DAB20F4B83F89F240E4B93F8D7331B09DBB23033DAB213
:4033C0000A4B83F8A024094B93F8D73303F00F03DBB23033DAB2054B83F8A124002002F0CDFD00BF1C37BD46F0BD00BF6885FF1FC78AFF1F90B585B000AF0346FB71274B18
:40340000FF221A70254BFF2283F83521234BFF2283F86A22214BFF2283F89F23012002F0ADFDFB7943F05003DBB2184603F0EEFA202003F0EBFAFA2003F0E8FA042002F085
:403440001BFD002002F09AFD03F058FA0346BB730023FB7309E0FC7B03F008FA03461A460F4B1A55FB7B0133FB73FA7BBB7B9A42F1D303F08BFA4FF4967002F0FDFCBB7B32
:40348000002B05D0064B1B7803F00F03DBB200E0FF2318461437BD4690BD00BF6885FF1F508AFF1F80B584B000AF0346FB710023FB7306E0FB7B2E4A0021D154FB7B0133B7
:4034C000FB73FB7B312BF5D9012002F057FDFB7943F05003DAB2264B1A70254B30225A70234B01229A70224B0122DA70204B06221A7105211E48FDF797FF03461A461D4B90
:403500001A801C4B1B881B0A9BB2DAB21A4B1A70184B1B88DAB2194B1A70184B1A78144B5A71154B1A78124B9A71114B0322DA710F4BFA221A720023BB7308E0BB7B0C4A6E
:40354000D35C184603F062FABB7B0133BB73BB7B092BF3D9042002F08FFC002002F00EFDC82002F089FC7B7B18461037BD4680BD848AFF1FCC8AFF1F3C8AFF1FCE8AFF1FAF
:4035800090B585B000AF0346FB710023FB7306E0FB7B5A4A0021D154FB7B0133FB73FB7B312BF5D9012002F0E9FCFB7943F05003DBB2184603F02AFA202003F027FAFA203C
:4035C00003F024FA032002F057FC002002F0D6FC03F094F903467B720123BB7309E0BC7B03F044F903461A46444B1A55BB7B0133BB73BA7B7B7A01339A42F0DB3F4A7B7A54
:40360000137003F0C3F97B7A032B05D9FDF78AFF642002F031FC65E0642002F02DFC384B1B78FA799A4212D100237B730BE07B7B7A7B3249895C324A13440A4683F85120B5
:403640007B7B01337B737A7B7B7A9A42EFD32C4B93F83531FA799A4212D100233B730BE03B7B3A7B2549895C254A13440A4683F886213B7B01333B733A7B7B7A9A42EFD37E
:403680001F4B93F86A32FA799A4212D10023FB720BE0FB7AFA7A1949895C194A13440A4683F8BB22FB7A0133FB72FA7A7B7A9A42EFD3134B93F89F33FA799A4212D100230D
:4036C000BB720BE0BB7ABA7A0C49895C0C4A13440A4683F8F023BB7A0133BB72BA7A7B7A9A42EFD37B7A002B02D0044B5B7800E0002318461437BD4690BD00BF508AFF1F60
:403700006885FF1F90B585B000AF03463960FB71012002F033FCFB7943F05003DAB2394B1A70384B30225A70364B05229A70354B0322DA703B681A78324B1A713B685A783F
:40374000304B5A713B689A782E4B9A7107212D48FDF76AFE03461A462B4B1A802A4B1B881B0A9BB2DAB2294B1A70274B1B88DAB2274B1A70264B1A78224BDA71234B1A78AC
:40378000204B1A721F4B03225A721E4BFA229A720023FB7308E0FB7B1A4AD35C184603F035F9FB7B0133FB73FB7B0B2BF3D9042002F062FB002002F0E1FB03F09FF8034661
:4037C0007B730023BB7309E0BC7B03F04FF803461A46104B1A55BB7B0133BB73BA7B7B7B9A42F1D303F0D2F8642002F045FB7B7B002B02D0074B5B7800E000231846143723
:40380000BD4690BD848AFF1FCC8AFF1F3C8AFF1FCE8AFF1F508AFF1F90B585B000AF0346FB710B46BB7113467B71BB791B015AB297F9053013435BB27B73012002F09EFB88
:40384000FB7943F05003DAB2314B1A70304B30225A702F4B65229A702D4B0122DA702C4A7B7B137105212A48FDF7DEFD03461A46284B1A80274B1B881B0A9BB2DAB2264BA4
:403880001A70244B1B88DAB2244B1A70234B1A781F4B5A71204B1A781D4B9A711C4B0322DA711B4BFA221A720023FB7308E0FB7B174AD35C184603F0A9F8FB7B0133FB73D4
:4038C000FB7B092BF3D9042002F0D6FA002002F055FB03F013F803463B730023BB7309E0BC7B02F0C3FF03461A460D4B1A55BB7B0133BB73BA7B3B7B9A42F1D303F046F82C
:40390000642002F0B9FA00BF1437BD4690BD00BF848AFF1FCC8AFF1F3C8AFF1FCE8AFF1F508AFF1F90B593B000AF0346FB71002387F84730CC4B1B78CC4A82FB03121213D7
:40394000DB17D31ADBB23033DAB2C94B5A71C64B1B781A46C54B83FB02131913D317CB1A42F2107101FB03F3D31AC24A82FB03129211DB17D31ADBB23033DAB2BC4B1A71A9
:40398000B94B1B781A46B94B83FB02131913D317CB1A42F2107101FB03F3D31AB54A82FB03129111DA178A1A4FF47A7101FB02F29A1AB14B83FB02135911D317CB1ADBB2FB
:4039C0003033DAB2AA4BDA70A74B1B78A74A82FB03121113DA178A1A42F2107101FB02F29A1AA44B83FB02139911D317CB1A4FF47A7101FB03F3D31A9F4A82FB031251119A
:403A0000DA178A1A642101FB02F29A1A9B4B83FB02139910D317CB1ADBB23033DAB2944B9A70914B1B78914A82FB03121113DA178A1A42F2107101FB02F29A1A8D4B83FB2E
:403A400002139911D317CB1A4FF47A7101FB03F3D31A894A82FB03125111DA178A1A642101FB02F29A1A854B83FB02139910D317C91A0B469B000B445B00D11ACBB23033EC
:403A8000DAB27B4B5A70012387F846300FE097F84630774AD35C97F8462092B21146184602F0C6FC97F84630013387F8463097F84630052BEBD91BE0002387F845300BE027
:403AC00097F845306E4AD35C184602F089FB97F84530013387F8453097F84530052BEFD9052002F0C9F902F033FB034687F8473097F94730002BDFD097F947300C2B19DD92
:403B0000002387F844300CE097F8444002F0D8FA03461A465B4B1A5597F84430013387F8443097F8442097F947309A42ECDB002387F84730002387F843300BE097F843300C
:403B4000514AD35C184602F071FD97F84330013387F8433097F843301F2BEFD94B4B1B78184602F063FD002387F842300BE097F84230474AD35C184602F058FD97F8423042
:403B8000013387F8423097F842301F2BEFD93F4B1B78184602F04AFD002387F841300BE097F841303B4AD35C184602F03FFD97F84130013387F8413097F841301F2BEFD9A5
:403BC000324B1B78184602F031FD002387F840300BE097F84030304AD35C184602F026FD97F84030013387F8403097F840301F2BEFD9264B1B78184602F018FD002387F8E1
:403C00003F300BE097F83F30244AD35C184602F00DFD97F83F30013387F83F3097F83F301F2BEFD9194B1B78184602F0FFFC002387F83E300BE097F83E30194AD35C1846DB
:403C400002F0F4FC97F83E30013387F83E3097F83E301F2BEFD90D4B1B78184602F0E6FC002387F83D3029E0CB8AFF1FAD8BDB686085FF1FD34D62101F85EB516766666604
:403C80009484FF1FD08AFF1FD480FF1FCC80FF1FF480FF1F1481FF1F3481FF1F5481FF1F7481FF1F97F83D30BC4AD35C184602F0BDFC97F83D30013387F83D3097F83D300A
:403CC0001F2BEFD9B64B1B78184602F0AFFC002387F83C300BE097F83C30B24AD35C184602F0A4FC97F83C30013387F83C3097F83C300C2BEFD9AC4B1B7A1B09DBB2303360
:403D0000DBB2184602F092FCA74B1B7A03F00F03DBB23033DBB2184602F088FC2F2002F085FCA14BDB791B09DBB23033DBB2184602F07CFC9C4BDB7903F00F03DBB23033A0
:403D4000DBB2184602F072FC2F2002F06FFC964B9B791B09DBB23033DBB2184602F066FC914B9B7903F00F03DBB23033DBB2184602F05CFC8A4B1B78184602F057FC0023BC
:403D800087F83B300BE097F83B30884AD35C184602F04CFC97F83B30013387F83B3097F83B300C2BEFD9804B9B7A1B09DBB23033DBB2184602F03AFC7B4B9B7A03F00F03A3
:403DC000DBB23033DBB2184602F030FC3A2002F02DFC754BDB7A1B09DBB23033DBB2184602F024FC704BDB7A03F00F03DBB23033DBB2184602F01AFC3A2002F017FC6A4B23
:403E00001B7B1B09DBB23033DBB2184602F00EFC654B1B7B03F00F03DBB23033DBB2184602F004FC5E4B1B78184602F0FFFB002387F83A300BE097F83A30584AD35C184634
:403E400002F0F4FB97F83A30013387F83A3097F83A301F2BEFD9564B1B78FA799A4240F02082534B93F83431012B2CD1002387F839300BE097F839304E4AD35C184602F02F
:403E8000D5FB97F83930013387F8393097F839301F2BEFD9424B1B78184602F0C7FB002387F838300BE097F838303C4AD35C184602F0BCFB97F83830013387F8383097F899
:403EC00038301F2BEFD9364B1B78184602F0AEFB002387F837300BE097F83730364AD35C184602F0A3FB97F83730013387F8373097F837300C2BEFD92D4B93F83431012B1B
:403F000014D1052387F836300BE097F836302B4AD35C184602F08AFB97F83630013B87F8363097F83630002BEFD119E0052387F835300BE097F83530214AD35C184602F072
:403F400075FB97F83530013B87F8353097F83530002BEFD11B4B1B780133DAB2194B1A700F4B1B78184602F061FB002387F834300BE097F83430144AD35C184602F056FB8C
:403F800097F83430013387F8343097F834300C2BEFD9002387F8333026E000BF7484FF1FCC80FF1F4C82FF1FD08AFF1F5C82FF1F6885FF1F1482FF1F0C83FF1FB88AFF1F8F
:403FC0006085FF1FCB8AFF1F6C82FF1F97F83330C84A134493F82331184602F027FB97F83330013387F8333097F83330072BEDD9C14B1B78184602F019FB002387F832309A
:404000000BE097F83230BD4AD35C184602F00EFB97F83230013387F8323097F832300C2BEFD9002387F831300DE097F83130B14A134493F82D31184602F0F8FA97F83130D2
:40404000013387F8313097F83130052BEDD9AA4B1B78184602F0EAFA002387F830300BE097F83030A64AD35C184602F0DFFA97F83030013387F8303097F830300C2BEFD976
:404080009C4B1B783133DBB2184602F0CFFA9A4B1B78184602F0CAFA002387F82F300BE097F82F30974AD35C184602F0BFFA97F82F30013387F82F3097F82F300C2BEFD910
:4040C0008C4B93F82C31012B14D1002387F82E300BE097F82E308C4AD35C184602F0A6FA97F82E30013387F82E3097F82E30082BEFD913E0002387F82D300BE097F82D3074
:40410000824AD35C184602F091FA97F82D30013387F82D3097F82D30082BEFD9764B1B78184602F083FA002387F82C300BE097F82C30774AD35C184602F078FA97F82C3034
:40414000013387F82C3097F82C300C2BEFD9714B1B78184602F06AFA202002F067FA012387F82B3017E0634B93F82C315A1E97F82B10604813465B0013445B0003440B443F
:4041800003F20B131B78184602F050FA97F82B30013387F82B3097F82B30052BE3D9564B1B78184602F042FA002387F82A300BE097F82A30584AD35C184602F037FA97F880
:4041C0002A30013387F82A3097F82A300C2BEFD9002387F8293018E097F82930C3F108034E4A1278934202D12E2002F01FFA97F82930404A134493F80331184602F016FACB
:4042000097F82930013387F8293097F82930072BE2D9202002F00AFA414B1B78184602F005FA354B1B78184602F000FA002387F828300BE097F828303A4AD35C184602F0E5
:40424000F5F997F82830013387F8283097F828300C2BEFD92F4B1B78184602F0E7F9202002F0E4F9002387F827300DE097F82730204A134493F8FB30184602F0D7F997F83A
:404280002730013387F8273097F82730072BEDD9194B1B78184602F0C9F9164B012283F83421144B93F83531FA799A4240F00C82104B93F86932012B48D1002387F8263047
:4042C0000BE097F82630184AD35C184602F0AEF997F82630013387F8263097F826301F2BEFD9054B1B78184602F0A0F9002387F8253027E06885FF1FCC80FF1F7C82FF1F26
:404300009C82FF1FAC82FF1F3482FF1F4082FF1FBC82FF1F3C84FF1FCC82FF1F828AFF1FD080FF1FEC82FF1F1482FF1F97F82530BC4AD35C184602F079F997F825300133D0
:4043400087F8253097F825301F2BEFD9B64B1B78184602F06BF9002387F824300BE097F82430B24AD35C184602F060F997F82430013387F8243097F824300C2BEFD9AC4BD0
:4043800093F86932012B14D1052387F823300BE097F82330A74AD35C184602F047F997F82330013B87F8233097F82330002BEFD119E0052387F822300BE097F822309E4AEC
:4043C000D35C184602F032F997F82230013B87F8223097F82230002BEFD1984B1B780133DAB2964B1A70904B1B78184602F01EF9002387F821300BE097F82130904AD35C1C
:40440000184602F013F997F82130013387F8213097F821300C2BEFD9002387F820300DE097F82030824A134493F85832184602F0FDF897F82030013387F8203097F8203061
:40444000072BEDD9784B1B78184602F0EFF80023FB7708E0FB7F7B4AD35C184602F0E6F8FB7F0133FB77FB7F0C2BF3D90023BB770AE0BB7F6E4A134493F86232184602F00A
:40448000D5F8BB7F0133BB77BB7F052BF1D9664B1B78184602F0CAF800237B7708E07B7F694AD35C184602F0C1F87B7F01337B777B7F0C2BF3D95E4B93F835313133DBB27B
:4044C000184602F0B3F8584B1B78184602F0AEF800233B7708E03B7F5C4AD35C184602F0A5F83B7F01333B773B7F0C2BF3D9504B93F86132022B0FD10023FB7608E0FB7E44
:40450000534AD35C184602F091F8FB7E0133FB76FB7E082BF3D90EE00023BB7608E0BB7E4C4AD35C184602F081F8BB7E0133BB76BB7E082BF3D93C4B1B78184602F076F8A1
:4045400000237B7608E07B7E434AD35C184602F06DF87B7E01337B767B7E0C2BF3D93F4B1B78184602F062F8202002F05FF801233B7614E02E4B93F861325A1E397E2C4868
:4045800013465B0013445B0003440B4403F510731B78184602F04AF83B7E01333B763B7E052BE7D9204B1B78184602F03FF80023FB7508E0FB7D2A4AD35C184602F036F87F
:4045C000FB7D0133FB75FB7D0C2BF3D90023BB7514E0BB7DC3F10803224A1278934202D12E2002F023F8BB7D114A134493F83832184602F01BF8BB7D0133BB75BB7D072BA5
:40460000E7D9202002F012F8174B1B78184602F00DF8054B1B78184602F008F800237B752DE000BF7484FF1FCC80FF1F0C83FF1F6885FF1FB88AFF1F6085FF1FCB8AFF1F14
:404640006C82FF1F7C82FF1F9C82FF1FAC82FF1F3482FF1F4082FF1FBC82FF1F3C84FF1FCC82FF1F828AFF1FD080FF1F7B7D684AD35C184601F0DAFF7B7D01337B757B7D83
:404680000C2BF3D9634B1B78184601F0CFFF202001F0CCFF00233B750AE03B7D5E4A134493F83032184601F0C1FF3B7D01333B753B7D072BF1D9594B1B78184601F0B6FFA2
:4046C000554B012283F869220023FB7408E0FB7C534AD35C184601F0A9FFFB7C0133FB74FB7C1F2BF3D94D4B1B78184601F09EFF0023BB7408E0BB7C4A4AD35C184601F0FC
:4047000095FFBB7C0133BB74BB7C1F2BF3D9434B1B78184601F08AFF404B1B78184601F085FF00237B7408E07B7C3F4AD35C184601F07CFF7B7C01337B747B7C1F2BF3D97A
:40474000364B1B78184601F071FF00233B7408E03B7C334AD35C184601F068FF3B7C01333B743B7C1F2BF3D92C4B1B78184601F05DFF0023FB7308E0FB7B2C4AD35C184685
:4047800001F054FFFB7B0133FB73FB7B1F2BF3D9224B1B78184601F049FF0023BB7308E0BB7B234AD35C184601F040FFBB7B0133BB73BB7B1F2BF3D9184B1B78184601F0B8
:4047C00035FF164B1B78184601F030FF134B1B78184601F02BFF114B1B78184601F026FF0E4B1B78184601F021FF00237B7308E07B7B7A7B0F49895C0F4AD1547B7B013322
:404800007B737B7B052BF3D900BF4C37BD4690BDEC82FF1F3C84FF1F6885FF1FCC80FF1F7484FF1FD481FF1FF481FF1F9481FF1FB481FF1F6085FF1FB88AFF1F90B59DB090
:4048400000AF002387F86F301BE0002387F86D300BE097F86D30C94AD35C184601F0C0FC97F86D30013387F86D3097F86D30052BEFD9052001F000FB01F06AFC034687F8DA
:404880006F3097F86F30002BDFD097F86F300C2B19D9002387F86C300CE097F86C4001F00FFC03461A46B64B1A5597F86C30013387F86C3097F86C2097F86F309A42ECD322
:4048C000002387F86F301D2001F0B0FE702001F0ADFE012001F0AAFE002001F0A7FEA94B1B780133DAB2A74B1A70A64B1B78A64A82FB03121213DB17D31ADBB23033DAB2B6
:40490000A24B5A719F4B1B781A469F4B83FB02131913D317CB1A42F2107101FB03F3D31A9B4A82FB03129211DB17D31ADBB23033DAB2964B1A71934B1B781A46924B83FBC9
:4049400002131913D317CB1A42F2107101FB03F3D31A8F4A82FB03129111DA178A1A4FF47A7101FB02F29A1A8A4B83FB02135911D317CB1ADBB23033DAB2844BDA70814B1D
:404980001B78814A82FB03121113DA178A1A42F2107101FB02F29A1A7D4B83FB02139911D317CB1A4FF47A7101FB03F3D31A794A82FB03125111DA178A1A642101FB02F253
:4049C0009A1A754B83FB02139910D317CB1ADBB23033DAB26D4B9A706A4B1B786A4A82FB03121113DA178A1A42F2107101FB02F29A1A674B83FB02139911D317CB1A4FF459
:404A00007A7101FB03F3D31A624A82FB03125111DA178A1A642101FB02F29A1A5E4B83FB02139910D317C91A0B469B000B445B00D11ACBB23033DAB2544B5A70072387F89D
:404A40006B3010E097F86B30063B504AD35C97F86B2092B21146184601F0EAFC97F86B30013387F86B3097F86B300C2BEAD94B4B1B78184601F0DAFD002387F86A300BE07B
:404A800097F86A30464AD35C184601F0CFFD97F86A30013387F86A3097F86A301F2BEFD93E4B1B78184601F0C1FD002387F869300BE097F869303B4AD35C184601F0B6FD15
:404AC00097F86930013387F8693097F869301F2BEFD9324B1B78184601F0A8FD002387F868300BE097F868302F4AD35C184601F09DFD97F86830013387F8683097F868308E
:404B00001F2BEFD9254B1B78184601F08FFD002387F867300BE097F86730244AD35C184601F084FD97F86730013387F8673097F867301F2BEFD9194B1B78184601F076FD6D
:404B4000002387F866300BE097F86630184AD35C184601F06BFD97F86630013387F8663097F866301F2BEFD90C4B1B78184601F05DFD002387F8653028E000BF9484FF1F39
:404B8000D08AFF1FC68AFF1FAD8BDB68C08AFF1FD34D62101F85EB5167666666CC80FF1FD480FF1FF480FF1F1481FF1F3481FF1F7484FF1F97F86530C54AD35C184601F066
:404BC00035FD97F86530013387F8653097F865300C2BEFD9BF4B9B791B09DBB23033DBB2184601F023FDBB4B9B7903F00F03DBB23033DBB2184601F019FD2F2001F016FD72
:404C0000B44BDB791B09DBB23033DBB2184601F00DFDB04BDB7903F00F03DBB23033DBB2184601F003FD2F2001F000FDA94B1B7A1B09DBB23033DBB2184601F0F7FCA54B6E
:404C40001B7A03F00F03DBB23033DBB2184601F0EDFCA14B1B78184601F0E8FC002387F864300BE097F864309C4AD35C184601F0DDFC97F86430013387F8643097F8643025
:404C80000C2BEFD9934B9B7A1B09DBB23033DBB2184601F0CBFC8F4B9B7A03F00F03DBB23033DBB2184601F0C1FC3A2001F0BEFC884BDB7A1B09DBB23033DBB2184601F0B1
:404CC000B5FC844BDB7A03F00F03DBB23033DBB2184601F0ABFC3A2001F0A8FC7D4B1B7B1B09DBB23033DBB2184601F09FFC794B1B7B03F00F03DBB23033DBB2184601F064
:404D000095FC754B1B78184601F090FC002387F863300BE097F86330714AD35C184601F085FC97F86330013387F8633097F863301F2BEFD9684B1B78184601F077FC0023F1
:404D400087F862300BE097F86230664AD35C184601F06CFC97F86230013387F8623097F862300C2BEFD9052387F861300BE097F861305D4AD35C184601F058FC97F861301E
:404D8000013B87F8613097F86130002BEFD1524B1B78184601F04AFC4F4B1B78184601F045FC002387F860300BE097F860304F4AD35C184601F03AFC97F86030013387F8BF
:404DC000603097F860300C2BEFD9494B1B783133DBB2184601F02AFC3F4B1B78184601F025FC002387F85F300BE097F85F30414AD35C184601F01AFC97F85F30013387F8C1
:404E00005F3097F85F300F2BEFD9334B1B78184601F00CFC002387F85E3018E097F85E30C3F10A03344A1278934202D12E2001F0FDFB97F85E302E4A134493F883301846E6
:404E400001F0F4FB97F85E30013387F85E3097F85E30092BE2D9204B1B78184601F0E6FB002387F85D3010E097F85D3087F86E3097F85D301E4A134493F88330002B09D144
:404E800097F85D30013387F85D3097F85D30092BEAD900E000BF002387F85C300BE097F85C30164AD35C184601F0C0FB97F85C30013387F85C3097F85C300F2BEFD9064B4F
:404EC0001B78184601F0B2FB002387F85B302DE04C82FF1FD08AFF1FCC80FF1F5C82FF1F7484FF1FFC82FF1FC08AFF1F9C82FF1F6885FF1F4084FF1F828AFF1F5084FF1FC0
:404F000097F85B4097F85B309BB224339BB2184601F018FB03461A4607F17003234403F8642C97F85B30013387F85B3097F85B30092BE5D9002387F85A3019E097F85A3032
:404F4000C3F10A03C44A1278934202D12E2001F06DFB97F85A3007F17002134413F8643C184601F063FB97F85A30013387F85A3097F85A30092BE1D9B84B1B78184601F015
:404F800055FB97F86E3087F859302DE097F8592097F86E30D31A97F85920B1490A4492F8832007F170010B4403F8582C97F8592097F86E30D31A97F8592007F170010A44A8
:404FC00012F8642C07F170010B4403F84C2C97F8593007F170021344002203F8702C97F85930013387F8593097F85930092BCDD907F12403184602F05DF90346BB6307F1F0
:405000001803184602F056F903467B637A6BBB6BD31A3B633B6B39460A22184602F091F9002387F858300BE097F858308D4AD35C184601F0FBFA97F85830013387F8583006
:4050400097F85830112BEFD9844B1B78184601F0EDFA002387F8573019E097F85730C3F10A037D4A1278934202D12E2001F0DEFA97F8573007F17002134413F8703C184688
:4050800001F0D4FA97F85730013387F8573097F85730092BE1D9714B1B78184601F0C6FA002387F856300BE097F856306E4AD35C184601F0BBFA97F85630013387F856301E
:4050C00097F856301F2BEFD9644B1B78184601F0ADFA002387F855300BE097F85530634AD35C184601F0A2FA97F85530013387F8553097F855300C2BEFD9594B93F8353170
:405100003133DBB2184601F091FA544B1B78184601F08CFA002387F854300BE097F85430534AD35C184601F081FA97F85430013387F8543097F854300F2BEFD9474B1B785F
:40514000184601F073FA002387F8533018E097F85330C3F10A03404A1278934202D12E2001F064FA97F853303D4A134493F8B831184601F05BFA97F85330013387F85330DA
:4051800097F85330092BE2D9344B1B78184601F04DFA002387F852300BE097F85230354AD35C184601F042FA97F85230013387F8523097F852300F2BEFD9284B1B78184630
:4051C00001F034FA002387F8513015E097F8514097F851309BB22E339BB2184601F0B2F903461A4607F17003234403F8642C97F85130013387F8513097F85130092BE5D907
:40520000002387F8503019E097F85030C3F10A03114A1278934202D12E2001F007FA97F8503007F17002134413F8643C184601F0FDF997F85030013387F8503097F85030A5
:40524000092BE1D9054B1B78184601F0EFF997F86E3087F84F303DE0828AFF1FCC80FF1F6885FF1F6084FF1F7484FF1F9C82FF1F4084FF1F5084FF1F97F84F2097F86E30EC
:40528000D31A97F84F20C9490A4492F8B82107F170010B4403F8582C97F84F2097F86E30D31A97F84F2007F170010A4412F8642C07F170010B4403F84C2C97F84F3007F171
:4052C00070021344002203F8702C97F84F30013387F84F3097F84F30092BCDD907F12403184601F0E7FF0346BB6307F11803184601F0E0FF03467B637A6BBB6BD31A3B634B
:405300003B6B39460A22184602F01BF8002387F84E300BE097F84E30A54AD35C184601F085F997F84E30013387F84E3097F84E30112BEFD99F4B1B78184601F077F9002308
:4053400087F84D3019E097F84D30C3F10A039A4A1278934202D12E2001F068F997F84D3007F17002134413F8703C184601F05EF997F84D30013387F84D3097F84D30092B0F
:40538000E1D98C4B1B78184601F050F98B4B1B78013B022B40F30681002387F84C300BE097F84C30864AD35C184601F03FF997F84C30013387F84C3097F84C301F2BEFD9B4
:4053C0007C4B1B78184601F031F9002387F84B300BE097F84B307B4AD35C184601F026F997F84B30013387F84B3097F84B300C2BEFD96E4B93F86A323133DBB2184601F005
:4054000015F96C4B1B78184601F010F9002387F84A3018E097F84A30C3F10A03664A1278934202D12E2001F001F997F84A305F4A134493F8ED32184601F0F8F897F84A30C8
:40544000013387F84A3097F84A30092BE2D9594B1B78184601F0EAF8002387F849300BE097F84930584AD35C184601F0DFF897F84930013387F8493097F849300F2BEFD95C
:405480004C4B1B78184601F0D1F8002387F848300BE097F848304A4AD35C184601F0C6F897F84830013387F8483097F848301F2BEFD9404B1B78184601F0B8F8002387F8C4
:4054C00047300BE097F847303E4AD35C184601F0ADF897F84730013387F8473097F847300C2BEFD9314B93F89F333133DBB2184601F09CF82F4B1B78184601F097F80023A9
:4055000087F8463018E097F84630C3F10A032A4A1278934202D12E2001F088F897F84630224A134493F82234184601F07FF897F84630013387F8463097F84630092BE2D9C2
:405540001C4B1B78184601F071F8002387F845300BE097F845301C4AD35C184601F066F897F84530013387F8453097F845300F2BEFD9002387F844300BE097F84430104AA1
:40558000D35C184601F052F897F84430013387F8443097F84430172BEFD9064B1B78184601F044F8002387F843301BE06885FF1F6084FF1FCC80FF1F828AFF1FCA8AFF1F5A
:4055C0007484FF1F9C82FF1F5084FF1F97F843304A4AD35C184601F029F897F84330013387F8433097F843301F2BEFD9444B1B78184601F01BF8002387F842300BE097F8E4
:405600004230404AD35C184601F010F897F84230013387F8423097F842301F2BEFD9384B1B78184601F002F8002387F841300BE097F84130344AD35C184600F0F7FF97F8D2
:405640004130013387F8413097F841301F2BEFD92B4B1B78184600F0E9FF294B1B78184600F0E4FF264B1B78184600F0DFFF244B1B78184600F0DAFF214B1B78184600F066
:40568000D5FF002387F8403013E097F840301F4A134493F8832097F840309BB224339BB21946104600F0C4FE97F84030013387F8403097F84030092BE7D9002387F83F30A7
:4056C00013E097F83F30114A134493F8B82197F83F309BB22E339BB21946104600F0A8FE97F83F30013387F83F3097F83F30092BE7D900BF7437BD4690BD00BF7484FF1FBE
:40570000CC80FF1F9481FF1FB481FF1F6885FF1F80B584B000AFF860B9607A607A68B968F86801F010FE00BF1037BD4680BD00BF80B483B000AF0346FB71FEE780B483B08D
:4057400000AF434B00221A60424B10221A70424B01221A70414B00221A70414B4FF438721A80404B01221A703F4B03221A703F4B3F4A92B21A803F4B47F608021A803E4B2C
:4057800000221A803D4B4FF480421A803C4B09221A703C4B0A221A703B4B0F221A703B4B18221A70BFF35F8F394B01221A70BFF35F8F00BF2A4B1B889BB2002BFAD1002354
:4057C0007B600DE07B68DA00324B13441946324A7B6852F823309BB20B807B6801337B607B685B2BEED9BFF35F8F294B01221A70BFF35F8F00BF294B1B78DBB203F0010350
:40580000002BF8D100BF264B1B78DBB203F00103002BF8D100BF234B1B78DBB203F00103002BF8D100BF204B1B78DBB203F00103002BF8D100BF1D4B1B78DBB203F001038E
:40584000002BF8D100BF0C37BD4680BC704700BF3885FF1F0076004010700040197000400078004002780040037800400478004050000000067800400476004006760040F6
:4058800029700040397000406970004079700040147000400C7800400C750000187000402870004038700040687000407870004080B582B000AF454B19221A80444B1822CF
:4058C0001A70444B19221A80434B18221A70434B4FF49C721A80424B18221A70414B4FF49C721A80404B18221A70404B4FF49C721A803F4B18221A703E4B40F209221A8094
:405900003D4B18221A703D4B47F22F521A803C4B19221A703B4B02221A704FF0402308221A70394B03221A70384B394A1278D2B21A70384B08221A80374B41F251221A808F
:405940000023FB7019237B6014E0FB785B00DAB2324B1B78DBB203F00103DBB21343DBB203F00303FB704FF4F07001F0D1F97B68013B7B607B68002B02D0FB78032BE4D13E
:405980007B68002B02D10320FFF7D2FE244B4FF480721A80224B07221A70224B00221A70214B48221A701E4B00221A701F4B02221A701F4A1E4B1B78DBB243F07F03DBB2E5
:4059C000137000BF0837BD4680BD00BF80400040824000408440004086400040884000408A4000408C4000408E40004090400040924000409440004096400040984000408B
:405A00009A4000400043004000420040A14600400801004922420040204200402542004004400040064000400840004001400040A243004080B483B000AF0B4B1B78FB713E
:405A40000A4AFB7903F00703DBB21370084AFB791B09DBB21370074B44221A7000BF0C37BD4680BC704700BFCF0100496E5800406F5800407658004080B500AF72B6324AA2
:405A8000314B1B78DBB243F00403DBB21370FFF755FE2E4A2D4B1B78DBB243F00203DBB213702B4A2A4B1B78DBB243F00203DBB21370284A274B1B78DBB243F04003DBB206
:405AC0001370254A244B1B78DBB243F01003DBB213700A2221492248FFF71AFE0A2221492148FFF715FE0A2220492148FFF710FE0A2220492048FFF70BFE0A221F492048BF
:405B0000FFF706FE0A221F491F48FFF701FE1F4A1E4B1B78DBB243F00803DBB213701C4B60221A70FFF7C4FE194B80221A70194B01221A70FFF77EFF0E2206491648FFF729
:405B4000E7FD00BF80BD00BFE84600400350014013500140A0430040C2430040A421004800510040B0210048C0510040BC210048F0510040C821004810510040D4210048BB
:405B800020510040E021004830510040224300400048004004000840B043004080B500AF01F08CFB03461B680C2B00D1FEE7FEE780B586B000AF224B7B61224B3B61204BAD
:405BC0007B6135E03B691B68FB603B695B68BB603B699B683B6000237B600CE0FB681A68BB681A60BB680433BB60FB680433FB607B6804337B607A683B689A42EED13B69DF
:405C0000DB683B6000237B6008E0BB6800221A60BB680433BB607B6804337B607A683B689A42F2D13B6910333B617B69013B7B617B69002BC6D101F047FBFAF79BFCFEE78E
:405C400001000000C877000080B582B000AF184B184A1A60184A184B1B6843F40073136000237B600FE07B68032B04D8134A7B6852F8233000E0124B12497A6841F822306E
:405C80007B6801337B607B682F2BECD90E4B1B78DAB20E4B1A700E4B0A4A1A60FFF7ECFE0C4B00221A6000BF0837BD4680BD00BF0CED00E00004FA0514ED00E000000000E1
:405CC0009D5B00000080FF1FBC760040C480FF1F08ED00E0C080FF1F80B500AF064B1B78002B04D100F00AF8034B01221A7000F063F800BF80BD00BF3C85FF1F80B582B006
:405D000000AF284A274B1B78DBB243F00203DBB21370254B1B78DBB223F07003FB71224AFB7943F03003DBB21370204A1F4B1B78DBB223F03003DBB213701C4A1B4B1B78E7
:405D4000DBB243F03003DBB21370184A174B1B78DBB223F00F03DBB21370144A134B1B78DBB243F00F03DBB21370642000F048F8322000F055F8002000F062F80C4A0C4B7C
:405D80001B78DBB243F00103DBB21370094A094B1B78DBB243F00103DBB2137000BF0837BD4680BD004F0040024F00400B4F0040A3430040014F004080B400AF0D4A0D4B2E
:405DC0001B78DBB243F00103DBB213700A4A0A4B1B78DBB243F00103DBB21370074A074B1B78DBB243F00103DBB2137000BFBD4680BC7047A3430040B3430040004F004082
:405E000080B483B000AF0346FB71044BFA7992B21A8000BF0C37BD4680BC7047044F004080B483B000AF0346FB71044BFA7992B21A8000BF0C37BD4680BC7047064F004074
:405E400080B483B000AF0346FB71044AFB79137000BF0C37BD4680BC704700BF034F004080B483B000AF0346FB7101BE00BF0C37BD4680BC704700BF80B582B000AF78609A
:405E800008E00C4B1B68184600F042FF7B68A3F500437B607B68B3F5004FF2D8064B1B687A6802FB03F3184600F032FF00BF0837BD4680BDA884FF1FA084FF1F80B582B0FB
:405EC00000AF0346FB80FB88054A127802FB03F3184600F01DFF00BF0837BD4680BD00BFA484FF1F80B584B000AF03463960FB710F4B1B68FB60FB791F2B02D90020FFF7E6
:405F0000AFFFFB7903F01F0310339B00FA6813441B68BB60FB7903F01F0310339B00FA6813443A681A60BB6818461037BD4680BD08ED00E080B582B000AF03460A46FB71C1
:405F40001346BB71BB79072B02D90020FFF788FFFB791F2B02D90020FFF782FFFB7903F01F0303F1604303F56443BA795201D2B21A7000BF0837BD4680BD00BF80B485B0D5
:405F800000AF0346FB710B4B1B78DBB223F00403FB730849FB799B00DBB203F00403DAB2FB7B1343DBB20B7000BF1437BD4680BC704700BF1051004080B500AF064B1B7810
:405FC000002B04D100F00AF8034B01221A7000F03BF800BF80BD00BF3D85FF1F80B500AF11490620FFF77EFF07210620FFF7A2FF0E4B00221A700E4B72221A700D4B202224
:406000001A700D490720FFF76DFF07210720FFF791FF0A4B06221A70094B47221A70094B02221A7000BF80BD996200004085FF1F8565004087640040716300002F640040FC
:406040003F6400408B64004080B582B000AF00F07EFE0346FB71154A144B1B78DBB243F02003DBB21370124A114B1B78DBB243F01003DBB213700F4B40221A600E4A0E4B7E
:406080001B78DBB243F01003DBB213700B4B80221A60084B80221A6000F0A2F9FB79184600F059FE00BF0837BD4680BD956500409764004000E100E09B64004080E200E0F0
:4060C00080B483B000AF1B4B40221A601A4B1B78BB711A4B1B787B71194B1B78DBB2002B03D1BA797B799A4217D0BB79154AD35CFB71BB790133BB71BB79132B01D90023A2
:40610000BB710D4ABB7913700D4B1B78DBB2002B06D00B4B00221A7002E00B4B1B78FB710A4B40221A60FB7918460C37BD4680BC704700BF80E100E04185FF1F4285FF1F6E
:406140004385FF1FF08AFF1F4765004000E100E080B483B000AF1D4B40221A601C4B1B78DAB21C4B1B78DBB29A420AD11A4B1B78DBB2002B02D01423FB711DE00023FB7125
:406180001AE0134B1B78DAB2124B1B78DBB29A4208D2104B1B78DAB20D4B1B78DBB2D31AFB7109E00B4B1B78DAB2094B1B78DBB2D31ADBB21433FB71084B40221A60FB7948
:4061C00018460C37BD4680BC704700BF80E100E04185FF1F4285FF1F4385FF1F00E100E080B485B000AF0346FB71254B1B78FB73244B1B78BB73FA7BBB7B9A4208D2FA7B54
:40620000BB7B013B9A420CBF01230023DBB207E0FA7BBB7BD31A072B0CBF01230023DBB2002BE2D1BA7BFB7B9A420AD1164B1B78DBB203F00403002B03D1144AFB79137012
:4062400018E0FB7B072B01D90023FB73FB7B1049FA79CA54FB7B0133FB73094AFB7B1370094B1B78DBB203F00203002B02D0094B80221A6000BF1437BD4680BC704700BFB7
:406280003F85FF1F3E85FF1F6B6400404C640040E88AFF1F00E200E080B483B000AF0023FB712B4B1B78BB71BB797B71BB7903F01E03002B0CD097F9063003F01E035AB29B
:4062C000244B1B785BB213435BB2DAB2214B1A70BB7903F02003002B30D01F4B1B787B711E4B1B78DBB219461D4A7B7953540123FB71FB79002B21D01A4B1B78DBB2002B92
:4063000002D0194B01221A70144B1B78DBB20133DAB2124B1A70114B1B78DBB2132B02D90E4B00221A700D4B1B78DAB20F4B1B78DBB29A4202D10B4B01221A70BB7903F0F0
:406340002003002BADD100BF0C37BD4680BC7047676400404085FF1F476500404285FF1FF08AFF1F4385FF1F4485FF1F4185FF1F80B400AF17E0154B1B78DBB2072B02D9EA
:40638000124B00221A70124B104A1278D2B21146104A525CD2B21A700C4B1B78DBB20133DAB20A4B1A70094B1B78DAB20A4B1B789A4206D0094B1B78DBB203F00403002BE6
:4063C000D9D000BFBD4680BC704700BF3E85FF1F4C640040E88AFF1F3F85FF1F6B64004080B400AF094A094B1B78DBB243F00103DBB21370064A064B1B78DBB243F0010345
:40640000DBB2137000BFBD4680BC7047A2430040B243004080B500AF00F01AFD00F02AFD00BF80BD80B500AFFFF7F4FF00BF80BD80B584B000AF03460A46FB711346BB80C5
:4064400000F086FDBB88B3F5006F70D2BB881B097B817B891B019BB2BA88D31A3B8100F0ABFE0346002B5FD1FA1D39890123402000F0BCFDF860FB68072B4CD14FF0FF3394
:40648000FB6000BF2D4B1B78DBB203F00203002BF8D02A4B1B78DBB203F00203002B08D0264B1B78DBB29B08DBB2002B01D10023FB60FB68002B2AD1214B1A78204B5B78AE
:4064C0007989402000F0FAFD0346072B1BD14FF0FF33FB6000BF194B1B78DBB203F00203002BF8D0154B1B78DBB203F00203002B17D0124B1B78DBB29B08DBB2002B10D1AF
:406500000023FB600DE04FF0FF33FB6009E04FF0FF33FB6005E0FB68012B02D04FF0FF33FB6000F07DFE04E00423FB6001E00123FB60FB6818461037BD4680BD224700403B
:406540000C8CFF1F80B584B000AF0346FB8000F0FEFB0346FB7300F0D3FCFB8803F1804303F500431B78BB7300F0E2FCFB7B184600F0F1FBBB7B18461037BD4680BD00BF9C
:4065800080B500AF064B1B78002B04D100F00AF8034B01221A7000F023F800BF80BD00BF4685FF1F80B500AF09490220FFF79AFC07210220FFF7BEFC064B06221A70064B45
:4065C00047221A70054B02221A7000BF80BD00BFE566000026650040366500408664004080B582B000AF00F0B2FB0346FB710C4A0B4B1B78DBB243F01003DBB21370094BF6
:4066000004221A60084B04221A6000F0A3F8FB79184600F0A0FB00BF0837BD4680BD00BF9664004080E200E000E100E080B485B000AF0346FB71254B1B78FB73244B1B7865
:40664000BB73FA7BBB7B9A4208D2FA7BBB7B013B9A420CBF01230023DBB207E0FA7BBB7BD31A042B0CBF01230023DBB2002BE2D1BA7BFB7B9A420AD1164B1B78DBB203F028
:406680000403002B03D1144AFB79137018E0FB7B042B01D90023FB73FB7B1049FA79CA54FB7B0133FB73094AFB7B1370094B1B78DBB203F00203002B02D0094B04221A6056
:4066C00000BF1437BD4680BC704700BF4885FF1F4785FF1F6664004046640040048BFF1F00E200E080B400AF17E0154B1B78DBB2042B02D9124B00221A70124B104A1278F5
:40670000D2B21146104A525CD2B21A700C4B1B78DBB20133DAB20A4B1A70094B1B78DAB20A4B1B789A4206D0094B1B78DBB203F00403002BD9D000BFBD4680BC704700BF8F
:406740004785FF1F46640040048BFF1F4885FF1F6664004080B400AF094A094B1B78DBB243F00403DBB21370064A064B1B78DBB243F00403DBB2137000BFBD4680BC7047EF
:40678000A2430040B243004080B500AF064B1B78002B04D100F00AF8034B01221A7000F031F800BF80BD00BF4A85FF1F80B500AF0D490120FFF796FB07210120FFF7BAFB33
:4067C0000A4B00221A700A4B72221A70094B20221A70094B06221A70084B47221A70084B00221A7000BF80BD416A00004B85FF1F8A6500408B65004020640040306400402E
:406800008164004080B582B000AF00F0A0FA0346FB71124A114B1B78DBB243F02003DBB213700F4A0E4B1B78DBB243F01003DBB213700C4B02221A600B4A0B4B1B78DBB2B8
:4068400043F01003DBB2137000F046FAFB79184600F081FA00BF0837BD4680BD9A6500409B65004000E100E09164004080B483B000AF1B4B02221A601A4B1B78BB711A4BFF
:406880001B787B71194B1B78DBB2002B03D1BA797B799A4218D0BB79154AD35CFB71BB790133BB7197F90630002B01DA0023BB710C4ABB7913700D4B1B78DBB2002B06D088
:4068C0000A4B00221A7002E00A4B1B78FB710A4B02221A60FB7918460C37BD4680BC704780E100E04C85FF1F4D85FF1F4E85FF1F0C8BFF1F4964004000E100E080B483B088
:4069000000AF1D4B02221A601C4B1B78DAB21C4B1B78DBB29A420AD11A4B1B78DBB2002B02D08023FB711DE00023FB711AE0134B1B78DAB2124B1B78DBB29A4208D2104BBC
:406940001B78DAB20D4B1B78DBB2D31AFB7109E00B4B1B78DAB2094B1B78DBB2D31ADBB2803BFB71084B02221A60FB7918460C37BD4680BC704700BF80E100E04C85FF1FC9
:406980004D85FF1F4E85FF1F00E100E080B582B000AF00F0DCF90346FB71154A144B1B78DBB243F00103DBB21370114A104B1B78DBB223F00103DBB21370FB79184600F0C1
:4069C000CAF90C4B02221A600B4B00221A700B4B00221A700A4B00221A700A4B00221A70094B02221A6000BF0837BD4680BD00BF9964004080E100E04C85FF1F4D85FF1F8D
:406A00004E85FF1F4F85FF1F00E100E080B483B000AF0346FB7100BF074B1B78DBB203F00403002BF8D1054AFB79137000BF0C37BD4680BC704700BF6164004041640040E1
:406A400080B483B000AF0023FB712C4B1B78BB71BB797B71BB7903F01E03002B0CD097F9063003F01E035AB2254B1B785BB213435BB2DAB2224B1A70BB7903F02003002B7B
:406A800031D0204B1B787B711F4B1B78DBB219461E4A7B7953540123FB71FB79002B22D01B4B1B78DBB2002B02D01A4B01221A70154B1B78DBB20133DAB2134B1A70124BC4
:406AC0001B78DBB25BB2002B02DA0F4B00221A700D4B1B78DAB2104B1B78DBB29A4202D10B4B01221A70BB7903F02003002BACD100BF0C37BD4680BC704700BF6B650040FF
:406B00004B85FF1F496400404D85FF1F0C8BFF1F4E85FF1F4F85FF1F4C85FF1F80B500AF064B1B78002B04D100F00AF8034B01221A7000F031F800BF80BD00BF5185FF1F86
:406B400080B500AF0D490020FFF7CCF907210020FFF7F0F90A4B00221A700A4B72221A70094B20221A70094B06221A70084B47221A70084B00221A7000BF80BDFD6B000096
:406B80005285FF1F8A6400408965004025650040356500408465004080B582B000AF00F0D6F80346FB71114A104B1B78DBB243F02003DBB213700E4A0D4B1B78DBB243F0EF
:406BC0001003DBB213700B4B01221A600A4A0A4B1B78DBB243F01003DBB21370FB79184600F0B9F800BF0837BD4680BD9A6400409965004000E100E09465004080B483B0D2
:406C000000AF0023FB712C4B1B78BB71BB797B71BB7903F01E03002B0CD097F9063003F01E035AB2254B1B785BB213435BB2DAB2224B1A70BB7903F02003002B31D0204BB4
:406C40001B787B711F4B1B78DBB219461E4A7B7953540123FB71FB79002B22D01B4B1B78DBB2002B02D01A4B01221A70154B1B78DBB20133DAB2134B1A70124B1B78DBB24E
:406C80005BB2002B02DA0F4B00221A700D4B1B78DAB2104B1B78DBB29A4202D10B4B01221A70BB7903F02003002BACD100BF0C37BD4680BC704700BF696500405285FF1F6A
:406CC000496500405485FF1F8C8BFF1F5585FF1F5685FF1F5385FF1F80B400AF094A094B1B78DBB243F00803DBB21370064A064B1B78DBB243F00803DBB2137000BFBD46CA
:406D000080BC7047A2430040B243004000000000142816D902B4012114381049097811F0C001890904B40E4A515C04BC00BF00BF00BF8841FDD500BF00BF02BC704700BF82
:406D400000BF70F10400FCD570470B050709EFF3108072B6704780F310887047004800404A6D000080B582B000AF00F0F1F84FF0FF337B6000F020FA0346002B24D1012026
:406D800000F0E8F90346072B1BD10221124800F003F90346022B0DD100237B6002E00120FFF78CF80D4B1B78DBB203F00203002BF5D006E0094B1B78DBB203F00203002B86
:406DC000E3D000F02DFA01E004237B607B6818460837BD4680BD00BF0C8CFF1F2247004080B582B000AF00F0B3F800F0E5F90346002B23D100F03CFA78607B68072B1AD123
:406E000002E00120FFF75AF8104B1B78DBB203F00203002BF5D00D4B1B78DBB203F00203002B08D0094B1B78DBB29B08DBB2002B01D100237B6000F0F3F901E004237B60D3
:406E40007B6818460837BD4680BD00BF2247004080B582B000AFFFF7C3FF78607B68002B02D1FFF77FFF78607B6818460837BD4680BD00BF80B582B000AFFFF768FF0346DC
:406E8000FB71194A184B1B78DBB243F00803DBB21370164A154B1B78DBB243F00803DBB21370134BC8221A70124A124B1B78DBB243F01003DBB213700F4A0F4B1B78DBB230
:406EC00043F01003DBB2137000BF0C4B1B78DBB203F02003002BF8D0FB791846FFF73BFF00BF0837BD4680BDA0430040B043004001470040AC430040BC43004000470040EA
:406F000080B400AF094A094B1B78DBB243F00103DBB2137000BF054B1B78DBB203F00203002BF8D000BFBD4680BC70470247004080B400AF054A054B1B78DBB223F001034F
:406F4000DBB2137000BFBD4680BC70470247004080B582B000AFFFF7FAFE0346FB710C4A0B4B1B78DBB243F00803DBB21370094A084B1B78DBB243F00803DBB21370FB7968
:406F80001846FFF7E8FE00BF0837BD4680BD00BFA0430040B043004080B584B000AF78600B46FB700023FB7313E00120FEF786FF0C4B1B78DBB203F00103002BF5D0FB7BA5
:406FC0007A681344084A1278D2B21A70FB7B0133FB73FA7BFB789A42EAD3FB7B18461037BD4680BD224700402047004080B485B000AF3A601A460346FB710B46BB8013467E
:40700000BB710723FB60FB793E2B02D8BB791F2B05D9FB793F2B45D9BB790F2B42D8254B1B78DBB203F00203002B38D0224BB6221A70214BD4221A701F4B01221A701D4B13
:407040001B78DBB203F00203002B25D11A4AFB791370194ABB881B0A9BB2DBB203F00103DBB21370144BBA88D2B21A70124ABB79013BDBB213700023FB7208E00E49FB7A01
:407080003A6813441B780B70FB7A0133FB72FA7ABB799A42F2D307E00923FB6004E00423FB6001E00123FB60FB6818461437BD4680BC7047224700402047004090B484B06C
:4070C00000AF0446084611461A462346FB710346BB800B46BB711346FB700723FB601B4B1B78DBB203F00203002B26D0184BB6221A70174BD8221A70154B05221A70134BBA
:407100001B78DBB203F00203002B13D1104AFB7913700F4ABB881B0A9BB2DBB213700C4BBA88D2B21A700A4ABB791370084AFB78137004E00923FB6001E00423FB60FB688E
:4071400018461037BD4690BC704700BF224700402047004080B485B000AF0346FB710723FB60134B1B78DBB203F00203002B16D0104BB6221A700F4BE1221A700D4B0E2250
:407180001A700B4B1B78DBB203F00203002B03D1084AFB79137004E00923FB6001E00423FB60FB6818461437BD4680BC704700BF224700402047004080B582B000AF042373
:4071C0007B60FFF7C4FD0346FB70124B1B78002B16D1104B01221A7000237B600E4B1B6803F00103002B0BD00B4A0B4B1B6823F00103136000BF00BF00BF084B01221A6083
:40720000FB781846FFF7A7FD7B6818460837BD4680BD00BF5885FF1F040008405C85FF1F80B582B000AFFFF792FD0346FB710D4B00221A700C4B1B68012B0BD10B4A0B4B3D
