:400000000080002011000000617100006171000080B500AF024A034B1B68136007F0D2F8BC760040FA460040010000000020004001000000002001400100000000480040F8
:400040000100000000480140010000000100000008000223000008760800032300001076080004230000287608000523000030760500062300002070050007230000307065
:4000800005000823000060700500FE23000070703000FE220000405180000B220000000200010C220000004480000D220000004780000E22000000488000FE220000004D5C
:4000C0000700102300000052070011230000085207001223000010520700132300001852060014230000605207001523000078520C0016230000004F2000172300007064E0
:400100002000FE2300007065080019230000005180001A230000000080001B230000800080001C230000800280001D230000000480001E230000800480001F230000000607
:40014000800020230000800680002123000000088000222300008008800023230000000A800024230000800A800025230000000C800026230000800C800027230000000EFB
:40018000800028230000800E800029230000001480002A230000801480002B230000001680002C230000801680002D230000001880002E230000801880002F230000001A1F
:4001C000800030230000801A10003123000010501000322300000050800033230000804D800034230000004C800035230000804C80003623000080478000372300000046EF
:400200008000382300008046800039230000004580003A230000804580003B230000001B80003C230000801B80003D230000001580003E230000801580003F230000001981
:400240008000402300008019800041230000001780004223000080178000432300000009800044230000800980004523000000078000462300008007800047230000000BD8
:40028000800048230000800B800049230000000580004A230000800580004B230000000D80004C230000800D80004D230000000380004E230000800380004F230000000F86
:4002C000800050230000800F800051230000000180005223000080018000532300000049800054230000804980005523000080488000562300000043800057230000804359
:400300008000582300000042800059230000804280005A230000004180005B230000804180005C23000000408000FE230000804010B5054C237833B9044B13B10448AFF387
:4003400000800123237010BD4885FF1F00000000CC9A0000084B10B51BB108490848AFF300800848036803B910BD074B002BFBD0BDE81040184700BF000000004C85FF1FF3
:40038000CC9A0000C880FF1F0000000080B500AF274B1B78FF2B07D0254B93F83531FF2B02D1244B01221A70214B1B78FF2B07D01F4B93F83531FF2B02D01E4B02221A709F
:4003C0001C4B1B78022B31D1194B93F82B31062B08D1174B1B78184603F00AFD144B002283F83421124B93F86032062B09D1104B93F83531184603F0FBFC0D4B002283F8D3
:4004000069220B4B1B78184603F060FD03461A46074B83F84C20064B93F83531184603F055FD03461A46024B83F8812100BF80BDA085FF1F028BFF1F90B597B000AFC74A8A
:4004400007F11C0310681860C54A07F11403106818609188927999809A71C24A07F10C03106818609188927999809A71BE4B03221A7040F6C41007F009F806F037FF62B6D6
:4004800007F08CFC07F054FE07F084FB07F09EF807F0D2FAB54B002283F83421B34B002283F86922002007F057FB03465A2B19D1002387F8573010E097F8574097F8573020
:4004C0009BB2184607F048FB03461A46A84B1A5597F85730013387F8573097F85730052BEAD915E000215A2007F0ACFA012387F8573009E097F857309D4A3021D15497F871
:400500005730013387F8573097F85730052BF1D9974B5B7903F00F03DBB21B01DAB2944B1B7903F00F03DBB219469B00CB1ADB00DBB21344DAB28E4B9B7803F00F03DBB24D
:40054000194689000B445B00D9B2894BDB7803F00F03DBB2184680000344184684001846234603449B00DBB20B44DBB21344DAB27F4B5B7803F00F03DBB21344DAB27D4BCF
:400580001A70062007F0E8FA03465A2B1CD1002387F8573013E097F857309C1D97F857309BB206339BB2184607F0D6FA03461A46714B1A5597F85730013387F8573097F84B
:4005C0005730052BE7D916E006215A2007F03AFA012387F857300AE097F857300633664A3021D15497F85730013387F8573097F85730052BF0D9604B5B7903F00F03DBB2C9
:400600001B01DAB25C4B1B7903F00F03DBB219469B00CB1ADB00DBB21344DAB2564B9B7803F00F03DBB2194689000B445B00D9B2514BDB7803F00F03DBB218468000034412
:40064000184684001846234603449B00DBB20B44DBB21344DAB2484B5B7803F00F03DBB21344DAB2454B1A7017E0002387F853300FE097F8534097F85330184603F060FBC3
:4006800003461A463E4B1A5597F85330013387F8533097F853300F2BEBD9344B1B78FF2BE3D0324B00221A70304B012283F83521344B00221A70002387F85630324B0022C8
:4006C0001A70324B02221A70FFF760FE07F04AF8034687F8233097F82330042B16D9002387F852300CE097F8524006F0F3FF03461A46274B1A5597F85230013387F85230B4
:4007000097F8522097F823309A42ECD3042006F0BDFE1F4B1B7A1C2B66D01C2B13DC0A2B00F090800A2B04DC012B3CD0022B3FD0AEE30C2B00F0B9810C2BC0F222810D2B40
:4007400000F04D82A4E3AA2B37D0AA2B22DC4E2B00F07483532B00F04C8399E3D09A0000D49A0000DC9A0000BA8AFF1FA085FF1F9885FF1F038BFF1FF88AFF1FFE8AFF1F4B
:40078000788AFF1FFF8AFF1F008BFF1F028BFF1F188BFF1FCC2B00F0B682E12B00F06783CA2B38D074E3E12387F8563001F08FB8E22387F8563001F08AB8012387F856305D
:4007C000002387F8513009E097F85130BF4A0021D15497F85130013387F8513097F85130132BF1D901F073B86B2387F85630002387F8503009E097F85030B44A0021D15425
:4008000097F85030013387F8503097F85030132BF1D901F05CB8032387F85630002387F84F3009E097F84F30A84A0021D15497F84F30013387F84F3097F84F30132BF1D989
:4008400001F045B897F85630012B19D1002387F856309F4B1B78184603F0CAFA002387F84E3009E097F84E30984A0021D15497F84E30013387F84E3097F84E30132BF1D914
:4008800097F85630022B26D10A2387F85630904B1B78184603F01AFB8D4B18788D4B1B780122194603F05EFC894B1B78184603F00DFB002387F84D3009E097F84D30834AB6
:4008C0000021D15497F84D30013387F84D3097F84D30132BF1D997F856306B2B40F0E8871A2387F856307A4B1B78184603F0EEFA774B1878774B1B780122194603F032FCFB
:40090000734B1B78184603F0E1FA002387F84C3009E097F84C306D4A0021D15497F84C30013387F84C3097F84C30132BF1D9002387F84B300BE097F84B30654A1344202284
:4009400083F8232197F84B30013387F84B3097F84B30072BEFD9002387F84A300BE097F84A305B4A1344202283F82D2197F84A30013387F84A3097F84A30052BEFD900F03E
:4009800097BF97F85630012B1AD1002387F856304F4B93F83531184603F02AFA002387F8493009E097F84930484A0021D15497F84930013387F8493097F84930132BF1D965
:4009C00097F85630022B17D10B2387F85630404B93F83531184603F079FA3D4B93F835013C4B1B780122194603F0BCFB384B93F83531184603F06AFA97F856306B2B40F0C7
:400A000059871B2387F85630314B93F83531184603F05CFA2E4B93F835012E4B1B780122194603F09FFB2A4B93F83531184603F04DFA002387F8483009E097F84830234AB5
:400A40000021D15497F84830013387F8483097F84830132BF1D9002387F847300BE097F847301B4A1344202283F8582297F84730013387F8473097F84730072BEFD900239F
:400A800087F846300BE097F84630114A1344202283F8622297F84630013387F8463097F84630052BEFD900F005BF97F85630012B20D1002387F85630054B93F86A32184650
:400AC00003F096F9002387F845300FE0188BFF1FA085FF1FFF8AFF1F97F84530D44A0021D15497F84530013387F8453097F84530132BF1D997F85630022B17D10C2387F84B
:400B00005630CC4B93F86A32184603F0DFF9C94B93F86A02C84B1B780122194603F022FBC44B93F86A32184603F0D0F997F856306B2B40F0C1861C2387F85630BD4B93F83C
:400B40006A32184603F0C2F9BA4B93F86A02BA4B1B780122194603F005FBB64B93F86A32184603F0B3F9002387F8443009E097F84430AF4A0021D15497F84430013387F8A8
:400B8000443097F84430132BF1D9002387F843300BE097F84330A74A1344202283F88D2397F84330013387F8433097F84330072BEFD9002387F842300BE097F842309D4AF4
:400BC0001344202283F8972397F84230013387F8423097F84230052BEFD900F06DBE97F85630012B1AD1002387F85630914B93F89F33184603F0FCF8002387F8413009E01F
:400C000097F841308A4A0021D15497F84130013387F8413097F84130132BF1D997F85630022B17D10C2387F85630824B93F89F33184603F04BF97F4B93F89F037E4B1B78FE
:400C40000122194603F08EFA7A4B93F89F33184603F03CF997F856306B2B40F02F861D2387F85630734B93F89F33184603F02EF9704B93F89F03704B1B780122194603F0BC
:400C800071FA6C4B93F89F33184603F01FF9002387F8403009E097F84030654A0021D15497F84030013387F8403097F84030132BF1D9002387F83F300BE097F83F305D4A93
:400CC0001344202283F8C22497F83F30013387F83F3097F83F30072BEFD9002387F83E300BE097F83E30534A1344202283F8CC2497F83E30013387F83E3097F83E30052BFE
:400D0000EFD900F0DBBD4B4B93F83531184603F0DDF8484B93F83501474B1B780122194603F020FA0A2006F0B1FB424B93F83531184603F0CBF83F4B1B78184603F0C6F824
:400D40003C4B18783C4B1B780122194603F00AFA0A2006F09BFB374B1B78184603F0B6F8344B93F83531184603F0B0F8314B93F83501314B1B780222194603F0F3F90A20BE
:400D800006F084FB2B4B93F83531184603F09EF8284B1B78184603F099F8264B1878264B1B780222194603F0DDF90A2006F06EFB204B1B78184603F089F81E4B93F8353184
:400DC000184603F083F8002387F83D3009E097F83D30174A0021D15497F83D30013387F83D3097F83D30132BF1D904F05FFC00F06EBD97F85630AC2B08D10E4B012283F846
:400E000034210C4B1B78184603F032FA97F85630BC2B40F05585074B012283F86922054B93F83531184603F023FA00F049BD00BF188BFF1FA085FF1FFF8AFF1F97F8563051
:400E4000AC2B06D1002387F85630BD4B002283F8342197F85630BC2B40F03485002387F85630B74B002283F8692200F02BBD97F85630E12B02D1C12387F8563097F85630A1
:400E8000E22B40F02185C22387F8563000F01CBDAC4BDB78832B40F0DB8097F854300A2B40F0D680A74B1B7AE12B00F0D180002387F83C300BE097F83C30A14A13443022EF
:400EC00083F80B2197F83C30013387F83C3097F83C30052BEFD9002387F855309A4B00221A70002387F85430072387F83B3021E097F83B30934AD35C002B1FD097F83B3031
:400F0000904AD35CFF2B19D097F83B30073B97F83B208C498A5C07F158010B4403F8542C97F85530013387F8553097F83B30013387F83B3097F83B300B2BD9D9062387F8AB
:400F400057301BE097F8573097F8552007F158010A4412F8541C7A4A13440A4683F80B2197F85530002B0ED097F85530013B87F8553097F85730013B87F8573097F85730CB
:400F8000002BDFD100E000BF6D4B93F80B31303B1B015AB26A4B93F80C31303BDBB25BB213435BB2DAB2664B83F82920644B93F80D31303B1B015AB2614B93F80E31303BD3
:400FC000DBB25BB213435BB2DAB25D4B83F82A205B4B93F80F31303B1B015AB2584B93F81031303BDBB25BB213435BB2DAB2544B83F82B20002387F8573013E097F85730FD
:401000004F4A134493F8292097F857309BB20C339BB21946104606F015FD97F85730013387F8573097F85730022BE7D9002387F83A3009E097F83A30424A0021D15497F89E
:401040003A30013387F83A3097F83A30132BF1D93C4BDB78832B0AD197F85430012B06D1384B1A7A384B1A700A2387F85430354BDB78832B58D197F85630032B54D10023E6
:4010800087F856302F4BDA793B7F9A422CD12D4B1A7A7B7F9A4227D12A4B5A7ABB7F9A4222D1284B9A7AFB7F9A421DD1254BDB7AFF2B19D1002387F839300EE097F839300A
:4010C00007F15802134413F8443C184606F092FB97F83930013387F8393097F83930052BECD9042006F0D2F9164B1B7A012B02D1012387F85430134B1B7A022B02D10223C1
:4011000087F85430002387F8383009E097F838300C4A0021D15497F83830013387F8383097F83830132BF1D9064BDB78832B43D197F856301A2B3FD1072387F8373022E033
:40114000A085FF1F188BFF1F008BFF1F97F83730B54AD35C002B1AD097F83730B24AD35CFF2B14D097F83730073B97F83720AE49895CAE4A13440A4683F82D2197F8373002
:40118000013387F8373097F837300E2BDED9002387F8363009E097F83630A34A0021D15497F83630013387F8363097F83630132BF1D90A2387F856309B4BDB78832B7BD1A6
:4011C00097F85630C12B77D1072387F835301EE097F83530944AD35C002B1CD097F83530914AD35CFF2B16D097F83530073B97F835208D498A5C303AD1B28C4A13440A4634
:4012000083F80B2197F83530013387F8353097F835300A2BDCD9002387F8343009E097F83430814A0021D15497F83430013387F8343097F83430132BF1D97C4B93F80B3197
:40124000303B1B015AB2794B93F80C31303BDBB25BB213435BB2DAB2744B83F82920734B93F80D31303B1B015AB2704B93F80E31303BDBB25BB213435BB2DAB26B4B83F814
:401280002A206A4B93F80F31303B1B015AB2674B93F81031303BDBB25BB213435BB2DAB2624B83F82B20614B1B786149184602F0CFFE002387F856305B4BDB78832B7CD1CA
:4012C00097F85630C22B78D1072387F833301EE097F83330544AD35C002B1CD097F83330514AD35CFF2B16D097F83330073B97F833204D498A5C303AD1B24C4A13440A463B
:4013000083F8402297F83330013387F8333097F833300A2BDCD9002387F8323009E097F83230414A0021D15497F83230013387F8323097F83230132BF1D93C4B93F84032BA
:40134000303B1B015AB2394B93F84132303BDBB25BB213435BB2DAB2344B83F85E21334B93F84232303B1B015AB2304B93F84332303BDBB25BB213435BB2DAB22B4B83F87B
:401380005F212A4B93F84432303B1B015AB2274B93F84532303BDBB25BB213435BB2DAB2224B83F86021214B93F835312149184602F04EFE002387F856301B4BDB78832BE1
:4013C0006DD197F856300A2B69D1002387F85630072387F8313040E097F83130124AD35C002B3ED097F831300F4AD35CFF2B38D097F831300C4AD35C602B1DD997F8313095
:40140000094AD35C7A2B17D897F83130073B97F8312005498A5C203AD1B2044A13440A4683F8232114E000BF188BFF1FA085FF1FC985FF1FFE86FF1F97F83130073B97F839
:401440003120B549895CB54A13440A4683F8232197F83130013387F8313097F831300E2BBAD9002387F8303009E097F83030AA4A0021D15497F83030013387F8303097F86E
:401480003030132BF1D9A54B1B78184602F0F0FEA24B012283F83421AC2387F856309E4BDB78832B3DD197F856301B2B39D1072387F82F301CE097F82F30974AD35C002BC5
:4014C0001AD097F82F30944AD35CFF2B14D097F82F30073B97F82F208F49895C8F4A13440A4683F8622297F82F30013387F82F3097F82F300E2BDED9002387F82E3009E0E8
:4015000097F82E30844A0021D15497F82E30013387F82E3097F82E30132BF1D90B2387F856307D4BDB78832B65D197F856300B2B61D1002387F85630072387F82D3037E0C3
:4015400097F82D30744AD35C002B35D097F82D30714AD35CFF2B2FD097F82D306E4AD35C602B14D997F82D306B4AD35C7A2B0ED897F82D30073B97F82D2067498A5C203AC3
:40158000D1B2664A13440A4683F858220BE097F82D30073B97F82D205F49895C5F4A13440A4683F8582297F82D30013387F82D3097F82D300E2BC3D9002387F82C3009E0F1
:4015C00097F82C30544A0021D15497F82C30013387F82C3097F82C30132BF1D94F4B93F83531184602F044FE4C4B012283F86922BC2387F85630484BDB78832B3DD197F83D
:4016000056301C2B39D1072387F82B301CE097F82B30414AD35C002B1AD097F82B303E4AD35CFF2B14D097F82B30073B97F82B203949895C394A13440A4683F8972397F810
:401640002B30013387F82B3097F82B300E2BDED9002387F82A3009E097F82A302E4A0021D15497F82A30013387F82A3097F82A30132BF1D90C2387F85630274BDB78832B0D
:4016800069D197F856300C2B65D1002387F85630072387F8293037E097F829301E4AD35C002B35D097F829301B4AD35CFF2B2FD097F82930184AD35C602B14D997F8293000
:4016C000154AD35C7A2B0ED897F82930073B97F8292011498A5C203AD1B2104A13440A4683F88D230BE097F82930073B97F829200949895C094A13440A4683F88D2397F8AE
:401700002930013387F8293097F829300E2BC3D9002387F828300DE0188BFF1FA085FF1F97F828306C4A0021D15497F82830013387F8283097F82830132BF1D9674B93F89B
:401740006A32184602F094FD644B012283F89E23CC2387F85630604BDB78832B3DD197F856301D2B39D1072387F827301CE097F82730594AD35C002B1AD097F82730564A7A
:40178000D35CFF2B14D097F82730073B97F827205149895C514A13440A4683F8CC2497F82730013387F8273097F827300E2BDED9002387F8263009E097F82630464A002185
:4017C000D15497F82630013387F8263097F82630132BF1D90D2387F856303F4BDB78832B74D197F856300D2B70D1002387F85630072387F8253037E097F82530364AD35C86
:40180000002B35D097F82530334AD35CFF2B2FD097F82530304AD35C602B14D997F825302D4AD35C7A2B0ED897F82530073B97F8252029498A5C203AD1B2284A13440A465D
:4018400083F8C2240BE097F82530073B97F825202149895C214A13440A4683F8C22497F82530013387F8253097F825300E2BC3D9002387F8243009E097F82430164A002178
:40188000D15497F82430013387F8243097F82430132BF1D9114B93F89F33184602F0E8FC0E4B012283F8D324DC2387F856300DE000BF0CE000BF0AE000BF08E000BF06E0C2
:4018C00000BF04E000BF02E000BF00E000BF002387F82330FEF7F8BE188BFF1FA085FF1F80B489B000AF78600B467B800023FB830023BB617B68002B2FD1002368E0FB8B83
:40190000DB0B9BB2BB60FB8B5B00FB837B681B781A46BB6942FA03F31BB203F001031AB2B7F91E3013431BB2FB83BB690133BB61BB69072B07DD0023BB617B6801337B60C0
:401940007B88013B7B80BB68002B06D0FB8B83F4FF4383F07A03DB43FB837B88002BCED100237B6113E0FB8BDB0B9BB2BB60FB8B5B00FB83BB68002B06D0FB8B83F4FF43E9
:4019800083F07A03DB43FB837B6901337B617B690F2BE8DD00237B824FF400437B610123FB6011E0FA8B7B691340002B06D0FB681AB2B7F9123013431BB27B827B695B1085
:4019C0007B61FB685B00FB607B69002BEAD17B8A18462437BD4680BC704700BFF0B589B000AF184B1B78FB71164B5B7803F00F03BB71154B1B78BA799A4240F05184124BFD
:401A0000002283F82B210123FB770CE0FB7F013BFA7F0C49895C0C4A13440A4683F85120FB7F0133FB77FA7FFB7901339A42EDDB054B93F85330652B40F07F820523BB778B
:401A400025E000BF888AFF1FA085FF1FCD4B93F8553003F00F03591ECB4B1B781D46BB7F581FBB7FC74A134493F85160C54C2A4692002A440B469B000B445B00134423441B
:401A80000344013332461A70BB7F0133BB77BA7FBC4B93F8543004339A42D7DBB94B93F8553003F00F03591EB74B1B781D46B54B93F8553003F00F03581EB34B1B78B14C54
:401AC0001A4692001A4403469B0003445B001344234401331B781B09DBB23033DCB2A9482A4692002A4453001A460B461B015B1A5B0013440344833322461A70A14B93F8DB
:401B0000553003F00F03591E9F4B1B781D469D4B93F8553003F00F03581E9B4B1B78994C1A4692001A4403469B0003445B001344234401331B7803F00F03DBB23033DCB215
:401B400090482A4692002A4453001A460B461B015B1A5B0013440344843322461A70894B93F8553003F00F03591E874B1B781D46844B93F8553003F00F03581E824B1B7804
:401B8000804C1A4692001A4403469B0003445B001344234402331B781B09DBB23033DCB278482A4692002A4453001A460B461B015B1A5B0013440344853322461A70714B37
:401BC00093F8553003F00F03591E6F4B1B781D466C4B93F8553003F00F03581E6A4B1B78684C1A4692001A4403469B0003445B001344234402331B7803F00F03DBB230331A
:401C0000DCB260482A4692002A4453001A460B461B015B1A5B0013440344863322461A70584B93F8553003F00F03591E564B1B781D46544B93F8553003F00F03581E524B38
:401C40001B78504C1A4692001A4403469B0003445B001344234403331B781B09DBB23033DCB248482A4692002A4453001A460B461B015B1A5B0013440344873322461A70FC
:401C8000404B93F8553003F00F03591E3E4B1B781D463C4B93F8553003F00F03581E3A4B1B78384C1A4692001A4403469B0003445B001344234403331B7803F00F03DBB2F1
:401CC0003033DCB22F482A4692002A4453001A460B461B015B1A5B0013440344883322461A70284B93F8553003F00F03591E264B1B781D46234B93F8553003F00F03581E72
:401D0000214B1B781F4C1A4692001A4403469B0003445B001344234404331B781B09DBB23033DCB217482A4692002A4453001A460B461B015B1A5B001344034489332246B8
:401D40001A70104B93F8553003F00F03591E0E4B1B781D460B4B93F8553003F00F03581E094B1B78074C1A4692001A4403469B0003445B001344234404331B7803F00F0325
:401D8000DBB203E0A085FF1FFF8AFF1F3033DCB2B8482A4692002A4453001A460B461B015B1A5B00134403448A3322461A70B14B93F8553003F00F03591EAF4B1B781D46B3
:401DC000AC4B93F8553003F00F03581EAA4B1B78A84C1A4692001A4403469B0003445B001344234405331B781B09DBB23033DCB2A0482A4692002A4453001A460B461B016C
:401E00005B1A5B00134403448B3322461A70994B93F8553003F00F03591E974B1B781D46944B93F8553003F00F03581E924B1B78904C1A4692001A4403469B0003445B00B0
:401E40001344234405331B7803F00F03DBB23033DCB288482A4692002A4453001A460B461B015B1A5B00134403448C3322461A7000237B773AE07F4B93F8553003F00F03C9
:401E8000591E7D4B1B7897F91D007A4C1A4692001A4453001A460B461B015B1A5B0013442344034483331B78302B24D1714B93F8553003F00F03591E6F4B1B7897F91D00BD
:401EC0006C4C1A4692001A4453001A460B461B015B1A5B00134423440344833300221A7097F91D30DBB20133DBB27B7797F91D30072BC0DD00E000BF012005F049FBBB798D
:401F000043F05003DBB2184606F08AF8594B93F852305BB203F00F035BB263F03F035BB2DBB2184606F07CF8FA2006F079F8042005F0ACFA002005F02BFB4E4B93F85330CF
:401F4000022B40F0138104233B771BE03B7F043B3A7F48490A4492F85110464A13440A4683F839203B7F043B3A7F043241490A4492F851103F4A13440A4683F835203B7FB0
:401F800001333B773B7F072BE0D93A4B93F839301B09DBB23033DAB2364B83F80321354B93F8393003F00F03DBB23033DAB2314B83F804212F4B93F83A301B09DBB23033C9
:401FC000DAB22C4B83F805212A4B93F83A3003F00F03DBB23033DAB2264B83F80621254B93F83B301B09DBB23033DAB2214B83F80721204B93F83B3003F00F03DBB23033D4
:40200000DAB21C4B83F808211A4B93F83C301B09DBB23033DAB2174B83F80921154B93F83C3003F00F03DBB23033DAB2114B83F80A210023FB7614E097F91B300D4A13441B
:4020400093F80331302B1BD197F91B30094A1344002283F8032197F91B30DBB20133DBB2FB7697F91B20054B1B7801339A42E3DB07E000BFA085FF1FFF8AFF1FBA8AFF1F0C
:4020800000BF9C4B93F835301B09DBB23033DAB2984B83F8FB20974B93F8353003F00F03DBB23033DAB2934B83F8FC20914B93F836301B09DBB23033DAB28E4B83F8FD20CB
:4020C0008C4B93F8363003F00F03DBB23033DAB2884B83F8FE20874B93F837301B09DBB23033DAB2834B83F8FF20824B93F8373003F00F03DBB23033DAB27E4B83F80021BA
:402100007C4B93F838301B09DBB23033DAB2794B83F80121774B93F8383003F00F03DBB23033DAB2734B83F802210023BB7614E097F91A306F4A134493F8FB30302B11D12D
:4021400097F91A306B4A1344002283F8FB2097F91A30DBB20133DBB2BB7697F91A30072BE6DD00E000BF002005F012FA614B93F85330032B40F094805E4B93F85430042BC6
:4021800040F08E805B4B062283F82B21594B93F8583003F00F03DAB2564B83F82C21554B93F82C315A1E534B93F8573003F00F03DBB23033D8B24F4913465B0013445B006E
:4021C0000B4403F5887302461A704A4B93F82C315A1E484B93F857301B09DBB23033D8B2444913465B0013445B000B4403F20F1302461A703F4B93F82C315A1E3D4B93F86B
:40220000563003F00F03DBB23033D8B2394913465B0013445B000B4403F5877302461A70344B93F82C315A1E324B93F856301B09DBB23033D8B22F4913465B0013445B00B5
:402240000B4403F20D1302461A702A4B93F82C315A1E284B93F8553003F00F03DBB23033D8B2244913465B0013445B000B4403F5867302461A701F4B93F82C315A1E1D4B3A
:4022800093F855301B09DBB23033D8B2194913465B0013445B000B4403F20B1302461A70144B93F83531BA799A4240F06784114B002283F8602201237B760CE07B7E013B49
:4022C0007A7E0D49895C0B4A13440A4683F886217B7E01337B767A7EFB7901339A42EDDB044B93F88831652B40F0968205233B7626E000BFA085FF1F888AFF1FCD4B93F80C
:402300008A3103F00F03591ECB4B1B781D463B7E581F3B7EC74A134493F88661C54C2A4692002A440B469B000B445B0013442344034403F59B7332461A703B7E01333B76D5
:402340003A7EBC4B93F8893104339A42D6DBB94B93F88A3103F00F03591EB74B1B781D46B44B93F88A3103F00F03581EB24B1B78B04C1A4692001A4403469B0003445B00B5
:402380001344234403F59B731B781B09DBB23033DCB2A8482A4692002A4453001A460B461B015B1A5B001344034403F5DC7322461A70A04B93F88A3103F00F03591E9E4B67
:4023C0001B781D469B4B93F88A3103F00F03581E994B1B78974C1A4692001A4403469B0003445B001344234403F59B731B7803F00F03DBB23033DCB28E482A4692002A44F0
:4024000053001A460B461B015B1A5B001344034403F2B91322461A70864B93F88A3103F00F03591E844B1B781D46824B93F88A3103F00F03581E804B1B787E4C1A4692005B
:402440001A4403469B0003445B001344234403F237131B781B09DBB23033DCB275482A4692002A4453001A460B461B015B1A5B001344034403F5DD7322461A706D4B93F80E
:402480008A3103F00F03591E6B4B1B781D46694B93F88A3103F00F03581E674B1B78654C1A4692001A4403469B0003445B001344234403F237131B7803F00F03DBB2303373
:4024C000DCB25C482A4692002A4453001A460B461B015B1A5B001344034403F2BB1322461A70544B93F88A3103F00F03591E524B1B781D464F4B93F88A3103F00F03581EA8
:402500004D4B1B784B4C1A4692001A4403469B0003445B001344234403F59C731B781B09DBB23033DCB243482A4692002A4453001A460B461B015B1A5B001344034403F588
:40254000DE7322461A703B4B93F88A3103F00F03591E394B1B781D46364B93F88A3103F00F03581E344B1B78324C1A4692001A4403469B0003445B001344234403F59C73E9
:402580001B7803F00F03DBB23033DCB229482A4692002A4453001A460B461B015B1A5B001344034403F2BD1322461A70214B93F88A3103F00F03591E1F4B1B781D461D4BE9
:4025C00093F88A3103F00F03581E1B4B1B78194C1A4692001A4403469B0003445B001344234403F239131B781B09DBB23033DCB210482A4692002A4453001A460B461B01CA
:402600005B1A5B001344034403F5DF7322461A70084B93F88A3103F00F03591E064B1B781D46044B93F88A3103F00F03581E024B1B7803E0A085FF1FFF8AFF1FC44C1A4667
:4026400092001A4403469B0003445B001344234403F239131B7803F00F03DBB23033DCB2BB482A4692002A4453001A460B461B015B1A5B001344034403F2BF1322461A7015
:40268000B34B93F88A3103F00F03591EB14B1B781D46AF4B93F88A3103F00F03581EAD4B1B78AB4C1A4692001A4403469B0003445B001344234403F59D731B781B09DBB24B
:4026C0003033DCB2A2482A4692002A4453001A460B461B015B1A5B001344034403F5E07322461A709A4B93F88A3103F00F03591E984B1B781D46964B93F88A3103F00F0318
:40270000581E944B1B78924C1A4692001A4403469B0003445B001344234403F59D731B7803F00F03DBB23033DCB289482A4692002A4453001A460B461B015B1A5B00134499
:40274000034403F2C11322461A700023FB753CE07F4B93F88A3103F00F03591E7D4B1B7897F917007A4C1A4692001A4453001A460B461B015B1A5B0013442344034403F517
:40278000DC731B78302B25D1714B93F88A3103F00F03591E6F4B1B7897F917006C4C1A4692001A4453001A460B461B015B1A5B0013442344034403F5DC7300221A7097F9F4
:4027C0001730DBB20133DBB2FB7597F91730072BBEDD00E000BF012004F0DAFEBB7943F05003DBB2184605F01BFC594B93F887315BB203F00F035BB263F03F035BB2DBB2BE
:40280000184605F00DFCFA2005F00AFC042004F03DFE002004F0BCFE4D4B93F88831022B40F012810423BB751BE0BB7D043BBA7D47490A4492F88611454A13440A4683F88A
:402840006E21BB7D043BBA7D043241490A4492F886113F4A13440A4683F86A21BB7D0133BB75BB7D072BE0D9394B93F86E311B09DBB23033DAB2364B83F83822344B93F849
:402880006E3103F00F03DBB23033DAB2304B83F839222F4B93F86F311B09DBB23033DAB22B4B83F83A222A4B93F86F3103F00F03DBB23033DAB2264B83F83B22244B93F8B1
:4028C00070311B09DBB23033DAB2214B83F83C221F4B93F8703103F00F03DBB23033DAB21B4B83F83D221A4B93F871311B09DBB23033DAB2164B83F83E22154B93F8713100
:4029000003F00F03DBB23033DAB2114B83F83F2200237B7514E097F915300D4A134493F83832302B1AD197F91530094A1344002283F8382297F91530DBB20133DBB27B7590
:4029400097F91520044B1B7801339A42E3DB06E0A085FF1FFF8AFF1FBA8AFF1F00BF9C4B93F86A311B09DBB23033DAB2984B83F83022974B93F86A3103F00F03DBB2303397
:40298000DAB2934B83F83122914B93F86B311B09DBB23033DAB28E4B83F832228C4B93F86B3103F00F03DBB23033DAB2884B83F83322874B93F86C311B09DBB23033DAB2D8
:4029C000834B83F83422824B93F86C3103F00F03DBB23033DAB27E4B83F835227C4B93F86D311B09DBB23033DAB2794B83F83622774B93F86D3103F00F03DBB23033DAB294
:402A0000734B83F8372200233B7514E097F914306F4A134493F83032302B11D197F914306B4A1344002283F8302297F91430DBB20133DBB23B7597F91430072BE6DD00E0E5
:402A400000BF002004F0A4FD614B93F88831032B40F094805E4B93F88931042B40F08E805B4B062283F86022594B93F88D3103F00F03DAB2564B83F86122554B93F861327F
:402A80005A1E534B93F88C3103F00F03DBB23033D8B24F4913465B0013445B000B4403F2452302461A704A4B93F861325A1E484B93F88C311B09DBB23033D8B24449134633
:402AC0005B0013445B000B4403F5117302461A703F4B93F861325A1E3D4B93F88B3103F00F03DBB23033D8B2394913465B0013445B000B4403F2432302461A70344B93F850
:402B000061325A1E324B93F88B311B09DBB23033D8B22F4913465B0013445B000B4403F2422302461A702A4B93F861325A1E284B93F88A3103F00F03DBB23033D8B224491F
:402B400013465B0013445B000B4403F2412302461A701F4B93F861325A1E1D4B93F88A311B09DBB23033D8B2194913465B0013445B000B4403F5107302461A70144B93F8DB
:402B80006A32BA799A4240F06784114B002283F895230123FB740CE0FB7C013BFA7C0D49895C0B4A13440A4683F8BB22FB7C0133FB74FA7CFB7901339A42EDDB044B93F8B1
:402BC000BD32652B40F096820523BB7426E000BFA085FF1F888AFF1FCD4B93F8BF3203F00F03591ECB4B1B781D46BB7C581FBB7CC74A134493F8BB62C54C2A4692002A44ED
:402C00000B469B000B445B0013442344034403F26B2332461A70BB7C0133BB74BA7CBC4B93F8BE3204339A42D6DBB94B93F8BF3203F00F03591EB74B1B781D46B44B93F8E0
:402C4000BF3203F00F03581EB24B1B78B04C1A4692001A4403469B0003445B001344234403F26B231B781B09DBB23033DCB2A8482A4692002A4453001A460B461B015B1A1B
:402C80005B001344034403F2ED2322461A70A04B93F8BF3203F00F03591E9E4B1B781D469B4B93F8BF3203F00F03581E994B1B78974C1A4692001A4403469B0003445B0055
:402CC0001344234403F26B231B7803F00F03DBB23033DCB28E482A4692002A4453001A460B461B015B1A5B001344034403F2EE2322461A70864B93F8BF3203F00F03591EE8
:402D0000844B1B781D46824B93F8BF3203F00F03581E804B1B787E4C1A4692001A4403469B0003445B001344234403F51B731B781B09DBB23033DCB275482A4692002A4466
:402D400053001A460B461B015B1A5B001344034403F2EF2322461A706D4B93F8BF3203F00F03591E6B4B1B781D46694B93F8BF3203F00F03581E674B1B78654C1A469200DD
:402D80001A4403469B0003445B001344234403F51B731B7803F00F03DBB23033DCB25C482A4692002A4453001A460B461B015B1A5B001344034403F53C7322461A70544BFB
:402DC00093F8BF3203F00F03591E524B1B781D464F4B93F8BF3203F00F03581E4D4B1B784B4C1A4692001A4403469B0003445B001344234403F26D231B781B09DBB2303335
:402E0000DCB243482A4692002A4453001A460B461B015B1A5B001344034403F2F12322461A703B4B93F8BF3203F00F03591E394B1B781D46364B93F8BF3203F00F03581E10
:402E4000344B1B78324C1A4692001A4403469B0003445B001344234403F26D231B7803F00F03DBB23033DCB229482A4692002A4453001A460B461B015B1A5B001344034424
:402E800003F2F22322461A70214B93F8BF3203F00F03591E1F4B1B781D461D4B93F8BF3203F00F03581E1B4B1B78194C1A4692001A4403469B0003445B001344234403F20C
:402EC0006E231B781B09DBB23033DCB210482A4692002A4453001A460B461B015B1A5B001344034403F2F32322461A70084B93F8BF3203F00F03591E064B1B781D46044BD8
:402F000093F8BF3203F00F03581E024B1B7803E0A085FF1FFF8AFF1FC44C1A4692001A4403469B0003445B001344234403F26E231B7803F00F03DBB23033DCB2BB482A463A
:402F400092002A4453001A460B461B015B1A5B001344034403F53D7322461A70B34B93F8BF3203F00F03591EB14B1B781D46AF4B93F8BF3203F00F03581EAD4B1B78AB4CCE
:402F80001A4692001A4403469B0003445B001344234403F26F231B781B09DBB23033DCB2A2482A4692002A4453001A460B461B015B1A5B001344034403F2F52322461A70DA
:402FC0009A4B93F8BF3203F00F03591E984B1B781D46964B93F8BF3203F00F03581E944B1B78924C1A4692001A4403469B0003445B001344234403F26F231B7803F00F0340
:40300000DBB23033DCB289482A4692002A4453001A460B461B015B1A5B001344034403F2F62322461A7000237B743CE07F4B93F8BF3203F00F03591E7D4B1B7897F9110057
:403040007A4C1A4692001A4453001A460B461B015B1A5B0013442344034403F2ED231B78302B25D1714B93F8BF3203F00F03591E6F4B1B7897F911006C4C1A4692001A44B2
:4030800053001A460B461B015B1A5B0013442344034403F2ED2300221A7097F91130DBB20133DBB27B7497F91130072BBEDD00E000BF012004F06CFABB7943F05003DBB25D
:4030C000184604F0ADFF594B93F8BC325BB203F00F035BB263F03F035BB2DBB2184604F09FFFFA2004F09CFF042004F0CFF9002004F04EFA4D4B93F8BD32022B40F0128190
:4031000004233B741BE03B7C043B3A7C47490A4492F8BB12454A13440A4683F8A3223B7C043B3A7C043241490A4492F8BB123F4A13440A4683F89F223B7C01333B743B7C99
:40314000072BE0D9394B93F8A3321B09DBB23033DAB2364B83F86D23344B93F8A33203F00F03DBB23033DAB2304B83F86E232F4B93F8A4321B09DBB23033DAB22B4B83F801
:403180006F232A4B93F8A43203F00F03DBB23033DAB2264B83F87023244B93F8A5321B09DBB23033DAB2214B83F871231F4B93F8A53203F00F03DBB23033DAB21B4B83F88D
:4031C00072231A4B93F8A6321B09DBB23033DAB2164B83F87323154B93F8A63203F00F03DBB23033DAB2114B83F874230023FB7314E097F90F300D4A134493F86D33302B26
:403200001AD197F90F30094A1344002283F86D2397F90F30DBB20133DBB2FB7397F90F20044B1B7801339A42E3DB06E0A085FF1FFF8AFF1FBA8AFF1F00BF9C4B93F89F32CF
:403240001B09DBB23033DAB2984B83F86523974B93F89F3203F00F03DBB23033DAB2934B83F86623914B93F8A0321B09DBB23033DAB28E4B83F867238C4B93F8A03203F049
:403280000F03DBB23033DAB2884B83F86823874B93F8A1321B09DBB23033DAB2834B83F86923824B93F8A13203F00F03DBB23033DAB27E4B83F86A237C4B93F8A2321B093B
:4032C000DBB23033DAB2794B83F86B23774B93F8A23203F00F03DBB23033DAB2734B83F86C230023BB7314E097F90E306F4A134493F86533302B11D197F90E306B4A1344BE
:40330000002283F8652397F90E30DBB20133DBB2BB7397F90E30072BE6DD00E000BF002004F036F9614B93F8BD32032B40F094805E4B93F8BE32042B40F08E805B4B062282
:4033400083F89523594B93F8C23203F00F03DAB2564B83F89623554B93F896335A1E534B93F8C13203F00F03DBB23033D8B24F4913465B0013445B000B4403F27A33024653
:403380001A704A4B93F896335A1E484B93F8C1321B09DBB23033D8B2444913465B0013445B000B4403F2793302461A703F4B93F896335A1E3D4B93F8C03203F00F03DBB2D1
:4033C0003033D8B2394913465B0013445B000B4403F55E7302461A70344B93F896335A1E324B93F8C0321B09DBB23033D8B22F4913465B0013445B000B4403F27733024617
:403400001A702A4B93F896335A1E284B93F8BF3203F00F03DBB23033D8B2244913465B0013445B000B4403F2763302461A701F4B93F896335A1E1D4B93F8BF321B09DBB2F6
:403440003033D8B2194913465B0013445B000B4403F2753302461A70144B93F89F33BA799A4240F06784114B002283F8CA2401237B730CE07B7B013B7A7B0D49895C0B4A57
:4034800013440A4683F8F0237B7B01337B737A7BFB7901339A42EDDB044B93F8F233652B40F0968205233B7326E000BFA085FF1F888AFF1FCD4B93F8F43303F00F03591E53
:4034C000CB4B1B781D463B7B581F3B7BC74A134493F8F063C54C2A4692002A440B469B000B445B0013442344034403F5687332461A703B7B01333B733A7BBC4B93F8F333A1
:4035000004339A42D6DBB94B93F8F43303F00F03591EB74B1B781D46B44B93F8F43303F00F03581EB24B1B78B04C1A4692001A4403469B0003445B001344234403F568737E
:403540001B781B09DBB23033DCB2A8482A4692002A4453001A460B461B015B1A5B001344034403F2224322461A70A04B93F8F43303F00F03591E9E4B1B781D469B4B93F873
:40358000F43303F00F03581E994B1B78974C1A4692001A4403469B0003445B001344234403F568731B7803F00F03DBB23033DCB28E482A4692002A4453001A460B461B012C
:4035C0005B1A5B001344034403F2234322461A70864B93F8F43303F00F03591E844B1B781D46824B93F8F43303F00F03581E804B1B787E4C1A4692001A4403469B000344AF
:403600005B001344234403F2A1331B781B09DBB23033DCB275482A4692002A4453001A460B461B015B1A5B001344034403F2244322461A706D4B93F8F43303F00F03591E84
:403640006B4B1B781D46694B93F8F43303F00F03581E674B1B78654C1A4692001A4403469B0003445B001344234403F2A1331B7803F00F03DBB23033DCB25C482A469200AE
:403680002A4453001A460B461B015B1A5B001344034403F2254322461A70544B93F8F43303F00F03591E524B1B781D464F4B93F8F43303F00F03581E4D4B1B784B4C1A4676
:4036C00092001A4403469B0003445B001344234403F2A2331B781B09DBB23033DCB243482A4692002A4453001A460B461B015B1A5B001344034403F2264322461A703B4B38
:4037000093F8F43303F00F03591E394B1B781D46364B93F8F43303F00F03581E344B1B78324C1A4692001A4403469B0003445B001344234403F2A2331B7803F00F03DBB220
:403740003033DCB229482A4692002A4453001A460B461B015B1A5B001344034403F2274322461A70214B93F8F43303F00F03591E1F4B1B781D461D4B93F8F43303F00F037F
:40378000581E1B4B1B78194C1A4692001A4403469B0003445B001344234403F2A3331B781B09DBB23033DCB210482A4692002A4453001A460B461B015B1A5B00134403444B
:4037C00003F5856322461A70084B93F8F43303F00F03591E064B1B781D46044B93F8F43303F00F03581E024B1B7803E0A085FF1FFF8AFF1FC44C1A4692001A4403469B00C2
:4038000003445B001344234403F2A3331B7803F00F03DBB23033DCB2BB482A4692002A4453001A460B461B015B1A5B001344034403F2294322461A70B34B93F8F43303F050
:403840000F03591EB14B1B781D46AF4B93F8F43303F00F03581EAD4B1B78AB4C1A4692001A4403469B0003445B001344234403F569731B781B09DBB23033DCB2A2482A462D
:4038800092002A4453001A460B461B015B1A5B001344034403F22A4322461A709A4B93F8F43303F00F03591E984B1B781D46964B93F8F43303F00F03581E944B1B78924CDC
:4038C0001A4692001A4403469B0003445B001344234403F569731B7803F00F03DBB23033DCB289482A4692002A4453001A460B461B015B1A5B001344034403F22B432246B0
:403900001A700023FB723CE07F4B93F8F43303F00F03591E7D4B1B7897F90B007A4C1A4692001A4453001A460B461B015B1A5B0013442344034403F222431B78302B25D11A
:40394000714B93F8F43303F00F03591E6F4B1B7897F90B006C4C1A4692001A4453001A460B461B015B1A5B0013442344034403F2224300221A7097F90B30DBB20133DBB259
:40398000FB7297F90B30072BBEDD00E000BF012003F0FEFDBB7943F05003DBB2184604F03FFB594B93F8F1335BB203F00F035BB263F03F035BB2DBB2184604F031FBFA2048
:4039C00004F02EFB042003F061FD002003F0E0FD4D4B93F8F233022B40F012810423BB721BE0BB7A043BBA7A47490A4492F8F013454A13440A4683F8D823BB7A043BBA7A57
:403A0000043241490A4492F8F0133F4A13440A4683F8D423BB7A0133BB72BB7A072BE0D9394B93F8D8331B09DBB23033DAB2364B83F8A224344B93F8D83303F00F03DBB270
:403A40003033DAB2304B83F8A3242F4B93F8D9331B09DBB23033DAB22B4B83F8A4242A4B93F8D93303F00F03DBB23033DAB2264B83F8A524244B93F8DA331B09DBB23033D3
:403A8000DAB2214B83F8A6241F4B93F8DA3303F00F03DBB23033DAB21B4B83F8A7241A4B93F8DB331B09DBB23033DAB2164B83F8A824154B93F8DB3303F00F03DBB2303366
:403AC000DAB2114B83F8A92400237B7214E097F909300D4A134493F8A234302B1AD197F90930094A1344002283F8A22497F90930DBB20133DBB27B7297F90920044B1B78FF
:403B000001339A42E3DB06E0A085FF1FFF8AFF1FBA8AFF1F00BF894B93F8D4331B09DBB23033DAB2854B83F89A24844B93F8D43303F00F03DBB23033DAB2804B83F89B24D0
:403B40007E4B93F8D5331B09DBB23033DAB27B4B83F89C24794B93F8D53303F00F03DBB23033DAB2754B83F89D24744B93F8D6331B09DBB23033DAB2704B83F89E246F4BCF
:403B800093F8D63303F00F03DBB23033DAB26B4B83F89F24694B93F8D7331B09DBB23033DAB2664B83F8A024644B93F8D73303F00F03DBB23033DAB2604B83F8A124002350
:403BC0003B7214E097F908305C4A134493F89A34302B11D197F90830584A1344002283F89A2497F90830DBB20133DBB23B7297F90830072BE6DD00E000BF002003F0C8FCB7
:403C00004E4B93F8F233032B40F094804B4B93F8F333042B40F08E80484B062283F8CA24464B93F8F73303F00F03DAB2434B83F8CB24424B93F8CB345A1E404B93F8F63354
:403C400003F00F03DBB23033D8B23C4913465B0013445B000B4403F2AF4302461A70374B93F8CB345A1E354B93F8F6331B09DBB23033D8B2314913465B0013445B000B444D
:403C800003F2AE4302461A702C4B93F8CB345A1E2A4B93F8F53303F00F03DBB23033D8B2264913465B0013445B000B4403F2AD4302461A70214B93F8CB345A1E1F4B93F8EE
:403CC000F5331B09DBB23033D8B21C4913465B0013445B000B4403F2AC4302461A70174B93F8CB345A1E154B93F8F43303F00F03DBB23033D8B2114913465B0013445B0079
:403D00000B4403F2AB4302461A700C4B93F8CB345A1E0A4B93F8F4331B09DBB23033D8B2064913465B0013445B000B4403F2AA4302461A7000BF2437BD46F0BDA085FF1FBC
:403D400090B585B000AF0346FB71274BFF221A70254BFF2283F83521234BFF2283F86A22214BFF2283F89F23012003F011FCFB7943F05003DBB2184604F052F9202004F00D
:403D80004FF9FA2004F04CF9042003F07FFB002003F0FEFB04F0BCF80346BB730023FB7309E0FC7B04F06CF803461A460F4B1A55FB7B0133FB73FA7BBB7B9A42F1D304F09A
:403DC000EFF84FF4967003F061FBBB7B002B05D0064B1B7803F00F03DBB200E0FF2318461437BD4690BD00BFA085FF1F888AFF1F80B584B000AF0346FB710023FB7306E027
:403E0000FB7B2E4A0021D154FB7B0133FB73FB7B312BF5D9012003F0BBFBFB7943F05003DAB2264B1A70254B30225A70234B01229A70224B0122DA70204B06221A71052106
:403E40001E48FDF74DFD03461A461D4B1A801C4B1B881B0A9BB2DAB21A4B1A70184B1B88DAB2194B1A70184B1A78144B5A71154B1A78124B9A71114B0322DA710F4BFA22C1
:403E80001A720023BB7308E0BB7B0C4AD35C184604F0C6F8BB7B0133BB73BB7B092BF3D9042003F0F3FA002003F072FBC82003F0EDFA7B7B18461037BD4680BDBC8AFF1F1F
:403EC000048BFF1F748AFF1F068BFF1F90B585B000AF0346FB710023FB7306E0FB7B5A4A0021D154FB7B0133FB73FB7B312BF5D9012003F04DFBFB7943F05003DBB218469C
:403F000004F08EF8202004F08BF8FA2004F088F8032003F0BBFA002003F03AFB03F0F8FF03467B720123BB7309E0BC7B03F0A8FF03461A46444B1A55BB7B0133BB73BA7B0F
:403F40007B7A01339A42F0DB3F4A7B7A137004F027F87B7A032B05D9FDF740FD642003F095FA65E0642003F091FA384B1B78FA799A4212D100237B730BE07B7B7A7B324934
:403F8000895C324A13440A4683F851207B7B01337B737A7B7B7A9A42EFD32C4B93F83531FA799A4212D100233B730BE03B7B3A7B2549895C254A13440A4683F886213B7B6B
:403FC00001333B733A7B7B7A9A42EFD31F4B93F86A32FA799A4212D10023FB720BE0FB7AFA7A1949895C194A13440A4683F8BB22FB7A0133FB72FA7A7B7A9A42EFD3134B4C
:4040000093F89F33FA799A4212D10023BB720BE0BB7ABA7A0C49895C0C4A13440A4683F8F023BB7A0133BB72BA7A7B7A9A42EFD37B7A002B02D0044B5B7800E000231846B6
:404040001437BD4690BD00BF888AFF1FA085FF1F90B585B000AF03463960FB71012003F097FAFB7943F05003DAB2394B1A70384B30225A70364B05229A70354B0322DA7083
:404080003B681A78324B1A713B685A78304B5A713B689A782E4B9A7107212D48FDF720FC03461A462B4B1A802A4B1B881B0A9BB2DAB2294B1A70274B1B88DAB2274B1A70B8
:4040C000264B1A78224BDA71234B1A78204B1A721F4B03225A721E4BFA229A720023FB7308E0FB7B1A4AD35C184603F099FFFB7B0133FB73FB7B0B2BF3D9042003F0C6F951
:40410000002003F045FA03F003FF03467B730023BB7309E0BC7B03F0B3FE03461A46104B1A55BB7B0133BB73BA7B7B7B9A42F1D303F036FF642003F0A9F97B7B002B02D0E2
:40414000074B5B7800E0002318461437BD4690BDBC8AFF1F048BFF1F748AFF1F068BFF1F888AFF1F90B585B000AF0346FB710B46BB7113467B71BB791B015AB297F9053051
:4041800013435BB27B73012003F002FAFB7943F05003DAB2314B1A70304B30225A702F4B65229A702D4B0122DA702C4A7B7B137105212A48FDF794FB03461A46284B1A80CA
:4041C000274B1B881B0A9BB2DAB2264B1A70244B1B88DAB2244B1A70234B1A781F4B5A71204B1A781D4B9A711C4B0322DA711B4BFA221A720023FB7308E0FB7B174AD35C11
:40420000184603F00DFFFB7B0133FB73FB7B092BF3D9042003F03AF9002003F0B9F903F077FE03463B730023BB7309E0BC7B03F027FE03461A460D4B1A55BB7B0133BB7394
:40424000BA7B3B7B9A42F1D303F0AAFE642003F01DF900BF1437BD4690BD00BFBC8AFF1F048BFF1F748AFF1F068BFF1F888AFF1F90B595B000AF0346FB71002387F84F3057
:40428000C14B1B78C14A82FB03121213DB17D31ADBB23033DAB2BE4B5A71BB4B1B781A46BA4B83FB02131913D317CB1A42F2107101FB03F3D31AB74A82FB03129211DB1726
:4042C000D31ADBB23033DAB2B14B1A71AE4B1B781A46AE4B83FB02131913D317CB1A42F2107101FB03F3D31AAA4A82FB03129111DA178A1A4FF47A7101FB02F29A1AA64B47
:4043000083FB02135911D317CB1ADBB23033DAB29F4BDA709C4B1B789C4A82FB03121113DA178A1A42F2107101FB02F29A1A994B83FB02139911D317CB1A4FF47A7101FBE3
:4043400003F3D31A944A82FB03125111DA178A1A642101FB02F29A1A904B83FB02139910D317CB1ADBB23033DAB2894B9A70864B1B78864A82FB03121113DA178A1A42F2D7
:40438000107101FB02F29A1A824B83FB02139911D317CB1A4FF47A7101FB03F3D31A7E4A82FB03125111DA178A1A642101FB02F29A1A7A4B83FB02139910D317C91A0B4659
:4043C0009B000B445B00D11ACBB23033DAB2704B5A70012387F84E300FE097F84E306C4AD35C97F84E2092B21146184603F02AFB97F84E30013387F84E3097F84E30052B11
:40440000EBD91BE0002387F84D300BE097F84D30634AD35C184603F0EDF997F84D30013387F84D3097F84D30052BEFD9042003F02DF803F097F9034687F84F3097F94F303F
:40444000002BDFD097F94F300C2B19DD002387F84C300CE097F84C4003F03CF903461A46504B1A5597F84C30013387F84C3097F84C2097F94F309A42ECDB002387F84F301E
:40448000484B9A79474BDB791344DAB2454B1B7A1344DBB2FB7239E0002387F84B300BE097F84B303E4AD35C184603F0A3F997F84B30013387F84B3097F84B30052BEFD90E
:4044C000042002F0E3FF03F04DF9034687F84F3097F94F300C2B19DD002387F84A300CE097F84A4003F0F6F803461A462D4B1A5597F84A30013387F84A3097F84A2097F9B7
:404500004F309A42ECDB002387F84F30254B1B7A002BC1D0234B9B79002BBDD0002387F849300BE097F849301F4AD35C184603F087FB97F84930013387F8493097F8493088
:404540001F2BEFD9194B1B78184603F079FB002387F848300BE097F84830154AD35C184603F06EFB97F84830013387F8483097F848301F2BEFD90D4B1B78184603F060FB37
:40458000002387F8473021E0038BFF1FAD8BDB689885FF1FD34D62101F85EB5167666666C084FF1F188BFF1FD480FF1FCC80FF1FF480FF1F97F84730B04AD35C184603F063
:4045C0003FFB97F84730013387F8473097F847301F2BEFD9AA4B1B78184603F031FB002387F846300BE097F84630A64AD35C184603F026FB97F84630013387F8463097F8DE
:4046000046301F2BEFD99E4B1B78184603F018FB002387F845300BE097F845309A4AD35C184603F00DFB97F84530013387F8453097F845301F2BEFD9914B1B78184603F09E
:40464000FFFA002387F844300BE097F844308F4AD35C184603F0F4FA97F84430013387F8443097F844301F2BEFD9854B1B78184603F0E6FA002387F843300BE097F8433021
:40468000834AD35C184603F0DBFA97F84330013387F8433097F843300C2BEFD97D4B1B7A1B09DBB23033DAB27B4B1A70794B1B7A03F00F03DBB23033DAB2774B5A70754B3C
:4046C000DB791B09DBB23033DAB2734B9A70714BDB7903F00F03DBB23033DAB26E4BDA706C4B9B791B09DBB23033DAB26A4B1A71684B9B7903F00F03DBB23033DAB2664BC6
:404700005A71644B9B7A1B09DBB23033DAB2634B1A70604B9B7A03F00F03DBB23033DAB25E4B5A705B4BDB7A1B09DBB23033DAB25A4B9A70574BDB7A03F00F03DBB2303328
:40474000DAB2564BDA70534B1B7B1B09DBB23033DAB2524B1A714F4B1B7B03F00F03DBB23033DAB24D4B5A714D4B1B78FA799A4240F07E834A4B93F83431012B40F0BE80E8
:40478000454B1B78184603F05BFA434B5B78184603F056FA2F2003F053FA3F4B9B78184603F04EFA3C4BDB78184603F049FA2F2003F046FA384B1B79184603F041FA364B55
:4047C0005B79184603F03CFA2D4B1B78184603F037FA002387F842300BE097F84230314AD35C184603F02CFA97F84230013387F8423097F842300C2BEFD9284B1B78184626
:4048000003F01EFA254B5B78184603F019FA3A2003F016FA214B9B78184603F011FA1F4BDB78184603F00CFA3A2003F009FA1B4B1B79184603F004FA184B5B79184603F059
:40484000FFF90F4B1B78184603F0FAF9002387F841300BE097F841300C4AD35C184603F0EFF997F84130013387F8413097F841301F2BEFD9002387F8403021E03481FF1F37
:40488000CC80FF1F7481FF1F9481FF1FA084FF1F7882FF1F188BFF1F088BFF1F108BFF1FA085FF1F8882FF1F97F84030C54AD35C184603F0C5F997F84030013387F84030EA
:4048C00097F840301F2BEFD9BF4B1B78184603F0B7F9002387F83F300BE097F83F30BB4AD35C184603F0ACF997F83F30013387F83F3097F83F301F2BEFD9AFE0B44B1B7A92
:404900001B09DBB23033DBB2184603F099F9B04B1B7A03F00F03DBB23033DBB2184603F08FF92F2003F08CF9A94BDB791B09DBB23033DBB2184603F083F9A54BDB7903F054
:404940000F03DBB23033DBB2184603F079F92F2003F076F99E4B9B791B09DBB23033DBB2184603F06DF99A4B9B7903F00F03DBB23033DBB2184603F063F9934B1B781846E8
:4049800003F05EF9002387F83E300BE097F83E30904AD35C184603F053F997F83E30013387F83E3097F83E300C2BEFD9884B9B7A1B09DBB23033DBB2184603F041F9844B12
:4049C0009B7A03F00F03DBB23033DBB2184603F037F93A2003F034F97D4BDB7A1B09DBB23033DBB2184603F02BF9794BDB7A03F00F03DBB23033DBB2184603F021F93A2092
:404A000003F01EF9724B1B7B1B09DBB23033DBB2184603F015F96E4B1B7B03F00F03DBB23033DBB2184603F00BF9674B1B78184603F006F9002387F83D300BE097F83D3068
:404A4000624AD35C184603F0FBF897F83D30013387F83D3097F83D301F2BEFD95A4B1B78184603F0EDF8002387F83C300BE097F83C30594AD35C184603F0E2F897F83C3093
:404A8000013387F83C3097F83C300C2BEFD9534B93F83431012B14D1052387F83B300BE097F83B304E4AD35C184603F0C9F897F83B30013B87F83B3097F83B30002BEFD169
:404AC00019E0052387F83A300BE097F83A30454AD35C184603F0B4F897F83A30013B87F83A3097F83A30002BEFD13F4B1B780133DAB23D4B1A70344B1B78184603F0A0F821
:404B0000002387F839300BE097F83930374AD35C184603F095F897F83930013387F8393097F839300C2BEFD9002387F838300DE097F83830294A134493F82331184603F006
:404B40007FF897F83830013387F8383097F83830072BEDD91C4B1B78184603F071F8002387F837300BE097F83730214AD35C184603F066F897F83730013387F8373097F837
:404B800037300C2BEFD9002387F836300DE097F83630124A134493F82D31184603F050F897F83630013387F8363097F83630052BEDD9054B1B78184603F042F8002387F867
:404BC000353023E03482FF1FCC80FF1FA084FF1F188BFF1F8882FF1F3883FF1FA085FF1FF08AFF1F9885FF1F038BFF1F9882FF1FA882FF1F97F83530BA4AD35C184603F051
:404C00001FF897F83530013387F8353097F835300C2BEFD9B44B1B783133DBB2184603F00FF8B24B1B78184603F00AF8002387F834300BE097F83430AD4AD35C184602F046
:404C4000FFFF97F83430013387F8343097F834300C2BEFD9A44B93F82C31012B13D1002387F833300BE097F83330A24AD35C184602F0E6FF97F83330013387F8333097F88A
:404C80003330082BEFD9984B93F82C31022B13D1002387F832300BE097F83230964AD35C184602F0CDFF97F83230013387F8323097F83230082BEFD98B4B93F82C31032BD1
:404CC00013D1002387F831300BE097F831308B4AD35C184602F0B4FF97F83130013387F8313097F83130082BEFD9804B1B78184602F0A6FF002387F830300BE097F83030CD
:404D00007F4AD35C184602F09BFF97F83030013387F8303097F830300C2BEFD9794B1B78184602F08DFF202002F08AFF012387F82F3017E06C4B93F82C315A1E97F82F10D5
:404D4000694813465B0013445B0003440B4403F20B131B78184602F073FF97F82F30013387F82F3097F82F30052BE3D95F4B1B78184602F065FF002387F82E300BE097F8D9
:404D80002E30614AD35C184602F05AFF97F82E30013387F82E3097F82E300C2BEFD9002387F82D3018E097F82D30C3F10803574A1278934202D12E2002F042FF97F82D3046
:404DC000494A134493F80331184602F039FF97F82D30013387F82D3097F82D30072BE2D9202002F02DFF4A4B1B78184602F028FF3E4B1B78184602F023FF002387F82C3024
:404E00000BE097F82C30434AD35C184602F018FF97F82C30013387F82C3097F82C300C2BEFD9384B1B78184602F00AFF202002F007FF002387F82B300DE097F82B302A4AA6
:404E4000134493F8FB30184602F0FAFE97F82B30013387F82B3097F82B30062BEDD9234B1B78184602F0ECFE1F4B012283F834211D4B93F83531FA799A4240F042831A4B6A
:404E800093F86932012B40F0C480234B1B78184602F0D6FE204B5B78184602F0D1FE2F2002F0CEFE1C4B9B78184602F0C9FE1A4BDB78184602F0C4FE2F2002F0C1FE164BE1
:404EC0001B79184602F0BCFE134B5B79184602F0B7FE064B1B78184602F0B2FE002387F82A3027E0C882FF1FA085FF1FCC80FF1FD882FF1F5482FF1F6C82FF1F6082FF1F69
:404F0000E882FF1F6884FF1FF882FF1FBA8AFF1FD080FF1F1883FF1F088BFF1F97F82A30BF4AD35C184602F08BFE97F82A30013387F82A3097F82A300C2BEFD9B94B1B789E
:404F4000184602F07DFEB74B5B78184602F078FE3A2002F075FEB34B9B78184602F070FEB04BDB78184602F06BFE3A2002F068FEAC4B1B79184602F063FEAA4B5B79184621
:404F800002F05EFEA84B1B78184602F059FE002387F829300BE097F82930A44AD35C184602F04EFE97F82930013387F8293097F829301F2BEFD9002387F828300BE097F88D
:404FC00028309B4AD35C184602F03AFE97F82830013387F8283097F828301F2BEFD9924B1B78184602F02CFE002387F827300BE097F827308D4AD35C184602F021FE97F81A
:405000002730013387F8273097F827301F2BEFD9AFE0884B1B7A1B09DBB23033DBB2184602F00EFE834B1B7A03F00F03DBB23033DBB2184602F004FE2F2002F001FE7D4BE4
:40504000DB791B09DBB23033DBB2184602F0F8FD784BDB7903F00F03DBB23033DBB2184602F0EEFD2F2002F0EBFD724B9B791B09DBB23033DBB2184602F0E2FD6D4B9B798C
:4050800003F00F03DBB23033DBB2184602F0D8FD654B1B78184602F0D3FD002387F826300BE097F826305E4AD35C184602F0C8FD97F82630013387F8263097F826300C2B28
:4050C000EFD95C4B9B7A1B09DBB23033DBB2184602F0B6FD574B9B7A03F00F03DBB23033DBB2184602F0ACFD3A2002F0A9FD514BDB7A1B09DBB23033DBB2184602F0A0FDE5
:405100004C4BDB7A03F00F03DBB23033DBB2184602F096FD3A2002F093FD464B1B7B1B09DBB23033DBB2184602F08AFD414B1B7B03F00F03DBB23033DBB2184602F080FD32
:40514000394B1B78184602F07BFD002387F825300BE097F82530354AD35C184602F070FD97F82530013387F8253097F825301F2BEFD92D4B1B78184602F062FD002387F8E1
:4051800024300BE097F824302B4AD35C184602F057FD97F82430013387F8243097F824300C2BEFD9254B93F86932012B14D1052387F823300BE097F82330214AD35C184653
:4051C00002F03EFD97F82330013B87F8233097F82330002BEFD119E0052387F822300BE097F82230174AD35C184602F029FD97F82230013B87F8223097F82230002BEFD147
:40520000114B1B780133DAB20F4B1A70064B1B78184602F015FD002387F8213022E000BF8882FF1F108BFF1FCC80FF1FA084FF1F3482FF1F188BFF1F3883FF1FA085FF1FA3
:40524000F08AFF1F9885FF1F038BFF1F97F82130B74AD35C184602F0F3FC97F82130013387F8213097F821300C2BEFD9002387F820300DE097F82030AE4A134493F858327B
:40528000184602F0DDFC97F82030013387F8203097F82030072BEDD9A74B1B78184602F0CFFC0023FB7708E0FB7FA44AD35C184602F0C6FCFB7F0133FB77FB7F0C2BF3D9A9
:4052C0000023BB770AE0BB7F9A4A134493F86232184602F0B5FCBB7F0133BB77BB7F052BF1D9954B1B78184602F0AAFC00237B7708E07B7F924AD35C184602F0A1FC7B7FB4
:4053000001337B777B7F0C2BF3D98A4B93F835313133DBB2184602F093FC874B1B78184602F08EFC00233B7708E03B7F854AD35C184602F085FC3B7F01333B773B7F0C2B9E
:40534000F3D97C4B93F86132012B0ED10023FB7608E0FB7E7C4AD35C184602F071FCFB7E0133FB76FB7E082BF3D9724B93F86132022B0ED10023BB7608E0BB7E734AD35CEC
:40538000184602F05DFCBB7E0133BB76BB7E082BF3D9684B93F86132032B0ED100237B7608E07B7E6A4AD35C184602F049FC7B7E01337B767B7E082BF3D95F4B1B78184672
:4053C00002F03EFC00233B7608E03B7E614AD35C184602F035FC3B7E01333B763B7E0C2BF3D95D4B1B78184602F02AFC202002F027FC0123FB7514E04E4B93F861325A1E9A
:40540000F97D4C4813465B0013445B0003440B4403F510731B78184602F012FCFB7D0133FB75FB7D052BE7D9434B1B78184602F007FC0023BB7508E0BB7D484AD35C184670
:4054400002F0FEFBBB7D0133BB75BB7D0C2BF3D900237B7514E07B7DC3F10803404A1278934202D12E2002F0EBFB7B7D314A134493F83832184602F0E3FB7B7D01337B75C1
:405480007B7D072BE7D9202002F0DAFB354B1B78184602F0D5FB284B1B78184602F0D0FB00233B7508E03B7D2F4AD35C184602F0C7FB3B7D01333B753B7D0C2BF3D9264BB2
:4054C0001B78184602F0BCFB202002F0B9FB0023FB740AE0FB7C174A134493F83032184602F0AEFBFB7C0133FB74FB7C062BF1D9114B1B78184602F0A3FB0E4B012283F83B
:4055000069220023BB7408E0BB7C184AD35C184602F096FBBB7C0133BB74BB7C1F2BF3D9054B1B78184602F08BFB00237B7428E09882FF1FA085FF1FCC80FF1FA882FF1F16
:40554000C882FF1FD882FF1F5482FF1F6C82FF1F6082FF1FE882FF1F6884FF1FF882FF1FBA8AFF1FD080FF1F1883FF1FA084FF1F7B7C464AD35C184602F062FB7B7C0133C8
:405580007B747B7C1F2BF3D9414B1B78184602F057FB3F4B1B78184602F052FB00233B7408E03B7C3B4AD35C184602F049FB3B7C01333B743B7C1F2BF3D9354B1B781846E3
:4055C00002F03EFB0023FB7308E0FB7B324AD35C184602F035FBFB7B0133FB73FB7B1F2BF3D92B4B1B78184602F02AFB0023BB7308E0BB7B294AD35C184602F021FBBB7B91
:405600000133BB73BB7B1F2BF3D9214B1B78184602F016FB00237B7308E07B7B204AD35C184602F00DFB7B7B01337B737B7B1F2BF3D9174B1B78184602F002FB144B1B7824
:40564000184602F0FDFA124B1B78184602F0F8FA0F4B1B78184602F0F3FA0D4B1B78184602F0EEFA00233B7308E03B7B3A7B0D49895C0D4AD1543B7B01333B733B7B052B0B
:40568000F3D900BF5437BD4690BD00BFF481FF1FCC80FF1F1482FF1FA084FF1FB481FF1FD481FF1F9885FF1FF08AFF1F90B5A5B000AF002387F88F301BE0002387F88E3034
:4056C0000BE097F88E30C94AD35C184602F092F897F88E30013387F88E3097F88E30052BEFD9052001F0D2FE02F03CF8034687F88F3097F88F30002BDFD097F88F300C2B13
:4057000054D9002387F88D300CE097F88D4001F0E1FF03461A46B64B1A5597F88D30013387F88D3097F88D2097F88F309A42ECD3002387F88F3039E0002387F88C300BE007
:4057400097F88C30A94AD35C184602F053F897F88C30013387F88C3097F88C30052BEFD9042001F093FE01F0FDFF034687F88F3097F88F300C2B19D9002387F88B300CE04A
:4057800097F88B4001F0A6FF03461A46984B1A5597F88B30013387F88B3097F88B2097F88F309A42ECD3002387F88F30904B1B7A002BC1D08F4B1B780133DAB28D4B1A7007
:4057C0008C4B1B788C4A82FB03121213DB17D31ADBB23033DAB2894B5A71864B1B781A46854B83FB02131913D317CB1A42F2107101FB03F3D31A824A82FB03129211DB170F
:40580000D31ADBB23033DAB27C4B1A71794B1B781A46794B83FB02131913D317CB1A42F2107101FB03F3D31A754A82FB03129111DA178A1A4FF47A7101FB02F29A1A714BFA
:4058400083FB02135911D317CB1ADBB23033DAB26A4BDA70674B1B78674A82FB03121113DA178A1A42F2107101FB02F29A1A644B83FB02139911D317CB1A4FF47A7101FB62
:4058800003F3D31A5F4A82FB03125111DA178A1A642101FB02F29A1A5B4B83FB02139910D317CB1ADBB23033DAB2544B9A70514B1B78514A82FB03121113DA178A1A42F28B
:4058C000107101FB02F29A1A4D4B83FB02139911D317CB1A4FF47A7101FB03F3D31A494A82FB03125111DA178A1A642101FB02F29A1A454B83FB02139910D317C91A0B46A3
:405900009B000B445B00D11ACBB23033DAB23B4B5A70072387F88A3010E097F88A30063B364AD35C97F88A2092B21146184602F089F897F88A30013387F88A3097F88A304B
:405940000C2BEAD9314B1B78184602F079F9002387F889300BE097F889302D4AD35C184602F06EF997F88930013387F8893097F889301F2BEFD9254B1B78184602F060F9B7
:40598000002387F888300BE097F88830214AD35C184602F055F997F88830013387F8883097F888301F2BEFD9184B1B78184602F047F9002387F887300BE097F88730164AA8
:4059C000D35C184602F03CF997F88730013387F8873097F887301F2BEFD90C4B1B78184602F02EF9002387F8863023E0C084FF1F188BFF1FFE8AFF1FAD8BDB68F88AFF1F4B
:405A0000D34D62101F85EB5167666666CC80FF1FD480FF1FF480FF1F1481FF1F97F88630C04AD35C184602F00BF997F88630013387F8863097F886301F2BEFD9BA4B1B78CB
:405A4000184602F0FDF8002387F885300BE097F88530B64AD35C184602F0F2F897F88530013387F8853097F885301F2BEFD9AE4B1B78184602F0E4F8002387F884300BE0F7
:405A800097F88430AA4AD35C184602F0D9F897F88430013387F8843097F884301F2BEFD9A14B1B78184602F0CBF8002387F883300BE097F883309F4AD35C184602F0C0F82C
:405AC00097F88330013387F8833097F883300C2BEFD9994B1B7A1B09DBB23033DBB2184602F0AEF8944B1B7A03F00F03DBB23033DBB2184602F0A4F82F2002F0A1F88E4B18
:405B0000DB791B09DBB23033DBB2184602F098F8894BDB7903F00F03DBB23033DBB2184602F08EF82F2002F08BF8834B9B791B09DBB23033DBB2184602F082F87E4B9B7922
:405B400003F00F03DBB23033DBB2184602F078F8754B1B78184602F073F8002387F882300BE097F88230754AD35C184602F068F897F88230013387F8823097F882300C2B99
:405B8000EFD96D4B9B7A1B09DBB23033DBB2184602F056F8684B9B7A03F00F03DBB23033DBB2184602F04CF83A2002F049F8624BDB7A1B09DBB23033DBB2184602F040F87B
:405BC0005D4BDB7A03F00F03DBB23033DBB2184602F036F83A2002F033F8574B1B7B1B09DBB23033DBB2184602F02AF8524B1B7B03F00F03DBB23033DBB2184602F020F8C9
:405C0000494B1B78184602F01BF8002387F881300BE097F88130464AD35C184602F010F897F88130013387F8813097F881301F2BEFD93D4B1B78184602F002F8002387F848
:405C400080300BE097F880303D4AD35C184601F0F7FF97F88030013387F8803097F880300C2BEFD9052387F87F300BE097F87F30344AD35C184601F0E3FF97F87F30013B98
:405C800087F87F3097F87F30002BEFD1264B1B78184601F0D5FF244B1B78184601F0D0FF002387F87E300BE097F87E30264AD35C184601F0C5FF97F87E30013387F87E307E
:405CC00097F87E300C2BEFD9204B1B783133DBB2184601F0B5FF144B1B78184601F0B0FF114B1B78184601F0ABFF002387F87D300BE097F87D30164AD35C184601F0A0FFAB
:405D000097F87D30013387F87D3097F87D300F2BEFD9054B1B78184601F092FF002387F87C3023E03481FF1FCC80FF1F5481FF1FA084FF1F7882FF1F188BFF1F8882FF1F02
:405D40002883FF1FF88AFF1FC882FF1FA085FF1F6C84FF1F97F87C30D34AD35C184601F06FFF97F87C30013387F87C3097F87C300C2BEFD9CD4B1B78184601F061FF00236C
:405D800087F87B300BE097F87B30C94AD35C184601F056FF97F87B30013387F87B3097F87B30082BEFD9002387F87A3018E097F87A30C3F10A03BF4A1278934202D12E201A
:405DC00001F03EFF97F87A30BB4A134493F88330184601F035FF97F87A30013387F87A3097F87A30092BE2D9B04B1B78184601F027FF002387F879300BE097F87930AF4AF7
:405E0000D35C184601F01CFF97F87930013387F8793097F879300F2BEFD9A44B1B78184601F00EFF002387F8783015E097F8784097F878309BB224339BB2184601F08CFE96
:405E400003461A4607F19003234403F87C2C97F87830013387F8783097F87830092BE5D9002387F8773019E097F87730C3F10A03904A1278934202D12E2001F0E1FE97F837
:405E8000773007F19002134413F87C3C184601F0D7FE97F87730013387F8773097F87730092BE1D997F8443087F876302DE097F8762097F84430D31A97F876207E490A443B
:405EC00092F8832007F190010B4403F8702C97F8762097F84430D31A97F8762007F190010A4412F87C2C07F190010B4403F8642C97F8763007F190021344002203F8882CF9
:405F000097F87630013387F8763097F87630092BCDD93A1D07F12C036949184602F02EFD38643A1D07F120036549184602F026FDF863FA6B3B6CD31ABB6307F10803BA6B50
:405F40005F49184602F0F6FC584B1B78184601F077FE002387F875300BE097F87530594AD35C184601F06CFE97F87530013387F8753097F87530112BEFD94C4B1B78184600
:405F800001F05EFE002387F8743019E097F87430C3F10A03474A1278934202D12E2001F04FFE97F8743007F19002134413F8883C184601F045FE97F87430013387F8743013
:405FC00097F87430092BE1D9002387F8733013E097F87330384A134493F8832097F873309BB224339BB21946104601F02BFD97F87330013387F8733097F87330092BE7D970
:406000002A4B1B78184601F01BFE284B1B78184601F016FE002387F872300BE097F87230294AD35C184601F00BFE97F87230013387F8723097F872300F2BEFD91B4B1B787B
:40604000184601F0FDFD002387F871300BE097F87130154AD35C184601F0F2FD97F87130013387F8713097F871300C2BEFD90F4B1B78184601F0E4FD002387F870300BE0B0
:4060800097F87030114AD35C184601F0D9FD97F87030013387F8703097F87030082BEFD9002387F86F302CE0D882FF1FCC80FF1F5482FF1FBA8AFF1FA085FF1F7C84FF1F70
:4060C000E49A00008C84FF1F6C84FF1F6C82FF1F97F86F30C3F10A03CF4A1278934202D12E2001F0ADFD97F86F30CC4A134493F8A130184601F0A4FD97F86F30013387F8EF
:406100006F3097F86F30092BE2D9C54B1B78184601F096FD002387F86E300BE097F86E30C04AD35C184601F08BFD97F86E30013387F86E3097F86E300F2BEFD9B84B1B7873
:40614000184601F07DFD002387F86D3015E097F86D4097F86D309BB238339BB2184601F0FBFC03461A4607F19003234403F87C2C97F86D30013387F86D3097F86D30092B55
:40618000E5D9002387F86C3019E097F86C30C3F10A03A14A1278934202D12E2001F050FD97F86C3007F19002134413F87C3C184601F046FD97F86C30013387F86C3097F8EB
:4061C0006C30092BE1D997F8443087F86B302DE097F86B2097F84430D31A97F86B208F490A4492F8A12007F190010B4403F8702C97F86B2097F84430D31A97F86B2007F1CB
:4062000090010A4412F87C2C07F190010B4403F8642C97F86B3007F190021344002203F8882C97F86B30013387F86B3097F86B30092BCDD93A1D07F12C037B49184602F080
:406240009DFB38643A1D07F120037749184602F095FBF863FA6B3B6CD31ABB6307F10803BA6B7149184602F065FB6D4B1B78184601F0E6FC002387F86A300BE097F86A3008
:406280006A4AD35C184601F0DBFC97F86A30013387F86A3097F86A30112BEFD9604B1B78184601F0CDFC002387F8693019E097F86930C3F10A03584A1278934202D12E209D
:4062C00001F0BEFC97F8693007F19002134413F8883C184601F0B4FC97F86930013387F8693097F86930092BE1D9002387F8683013E097F86830494A134493F8A12097F879
:4063000068309BB238339BB21946104601F09AFB97F86830013387F8683097F86830092BE7D93F4B1B78184601F08AFC002387F867300BE097F867303D4AD35C184601F0B7
:406340007FFC97F86730013387F8673097F867301F2BEFD9324B1B78184601F071FC002387F866300BE097F86630324AD35C184601F066FC97F86630013387F8663097F88D
:4063800066300C2BEFD9254B93F835313133DBB2184601F055FC224B1B78184601F050FC1F4B1B78184601F04BFC002387F865300BE097F86530204AD35C184601F040FCBE
:4063C00097F86530013387F8653097F865300F2BEFD9134B1B78184601F032FC002387F864300BE097F86430144AD35C184601F027FC97F86430013387F8643097F86430CD
:406400000C2BEFD9064B1B78184601F019FC002387F8633020E000BFBA8AFF1FA085FF1FCC80FF1F7C84FF1FE49A00008C84FF1FA084FF1FC882FF1F6C84FF1FD882FF1F18
:4064400097F86330CD4AD35C184601F0F9FB97F86330013387F8633097F86330092BEFD9002387F8623018E097F86230C3F10A03C34A1278934202D12E2001F0E1FB97F8F4
:406480006230C04A134493F8B831184601F0D8FB97F86230013387F8623097F86230092BE2D9B94B1B78184601F0CAFB002387F861300BE097F86130B44AD35C184601F078
:4064C000BFFB97F86130013387F8613097F861300F2BEFD9AC4B1B78184601F0B1FB002387F8603015E097F8604097F860309BB22E339BB2184601F02FFB03461A4607F14D
:406500009003234403F87C2C97F86030013387F8603097F86030092BE5D9002387F85F3019E097F85F30C3F10A03954A1278934202D12E2001F084FB97F85F3007F19002CB
:40654000134413F87C3C184601F07AFB97F85F30013387F85F3097F85F30092BE1D98A4B1B78184601F06CFB97F8443087F85E302DE097F85E2097F84430D31A97F85E208C
:4065800080490A4492F8B82107F190010B4403F8702C97F85E2097F84430D31A97F85E2007F190010A4412F87C2C07F190010B4403F8642C97F85E3007F1900213440022DC
:4065C00003F8882C97F85E30013387F85E3097F85E30092BCDD93A1D07F12C036C49184602F0CCF938643A1D07F120036849184602F0C4F9F863FA6B3B6CD31ABB6307F119
:406600000803BA6B6249184602F094F9002387F85D300BE097F85D305E4AD35C184601F00FFB97F85D30013387F85D3097F85D30112BEFD9544B1B78184601F001FB002320
:4066400087F85C3019E097F85C30C3F10A034C4A1278934202D12E2001F0F2FA97F85C3007F19002134413F8883C184601F0E8FA97F85C30013387F85C3097F85C30092BA2
:40668000E1D9002387F85B3013E097F85B303D4A134493F8B82197F85B309BB22E339BB21946104601F0CEF997F85B30013387F85B3097F85B30092BE7D9334B1B7818464D
:4066C00001F0BEFA304B1B78184601F0B9FA002387F85A300BE097F85A302F4AD35C184601F0AEFA97F85A30013387F85A3097F85A300C2BEFD9244B1B78184601F0A0FAB9
:40670000002387F859300BE097F85930234AD35C184601F095FA97F85930013387F8593097F85930082BEFD9002387F8583018E097F85830C3F10A03114A1278934202D1C3
:406740002E2001F07DFA97F858300E4A134493F8D631184601F074FA97F85830013387F8583097F85830092BE2D9074B1B78184601F066FA002387F857301DE06082FF1F3C
:40678000BA8AFF1FA085FF1FCC80FF1F7C84FF1FE49A00008C84FF1FD882FF1F6C82FF1F97F85730D04AD35C184601F049FA97F85730013387F8573097F857300F2BEFD923
:4067C000CA4B1B78184601F03BFA002387F8563015E097F8564097F856309BB242339BB2184601F0B9F903461A4607F19003234403F87C2C97F85630013387F8563097F8EB
:406800005630092BE5D9002387F8553019E097F85530C3F10A03B64A1278934202D12E2001F00EFA97F8553007F19002134413F87C3C184601F004FA97F85530013387F8A6
:40684000553097F85530092BE1D9A84B1B78184601F0F6F997F8443087F854302DE097F8542097F84430D31A97F85420A1490A4492F8D62107F190010B4403F8702C97F80D
:40688000542097F84430D31A97F8542007F190010A4412F87C2C07F190010B4403F8642C97F8543007F190021344002203F8882C97F85430013387F8543097F85430092B2F
:4068C000CDD93A1D07F12C038B49184602F056F838643A1D07F120038749184602F04EF8F863FA6B3B6CD31ABB6307F10803BA6B8149184602F01EF8002387F853300BE0B4
:4069000097F853307D4AD35C184601F099F997F85330013387F8533097F85330112BEFD9724B1B78184601F08BF9002387F8523019E097F85230C3F10A036D4A12789342E8
:4069400002D12E2001F07CF997F8523007F19002134413F8883C184601F072F997F85230013387F8523097F85230092BE1D9002387F8513013E097F851305E4A134493F820
:40698000D62197F851309BB242339BB21946104601F058F897F85130013387F8513097F85130092BE7D9514B1B78184601F048F9534B1B78013B022B40F31881002387F8BC
:4069C00050300BE097F850304E4AD35C184601F037F997F85030013387F8503097F850301F2BEFD9414B1B78184601F029F9002387F84F300BE097F84F30434AD35C1846B0
:406A000001F01EF997F84F30013387F84F3097F84F300C2BEFD9374B93F86A323133DBB2184601F00DF9314B1B78184601F008F9002387F84E3018E097F84E30C3F10A03CD
:406A40002B4A1278934202D12E2001F0F9F897F84E30284A134493F8ED32184601F0F0F897F84E30013387F84E3097F84E30092BE2D91E4B1B78184601F0E2F8002387F887
:406A80004D300BE097F84D30174AD35C184601F0D7F897F84D30013387F84D3097F84D300F2BEFD9114B1B78184601F0C9F8002387F84C300BE097F84C30124AD35C18466E
:406AC00001F0BEF897F84C30013387F84C3097F84C301F2BEFD9054B1B78184601F0B0F8002387F84B301DE07C84FF1FCC80FF1FBA8AFF1FA085FF1FE49A00008C84FF1FCB
:406B0000028BFF1FA084FF1FC882FF1F97F84B30684AD35C184601F093F897F84B30013387F84B3097F84B300C2BEFD9624B93F89F333133DBB2184601F082F85F4B1B78F9
:406B4000184601F07DF8002387F84A3018E097F84A30C3F10A035A4A1278934202D12E2001F06EF897F84A30534A134493F82234184601F065F897F84A30013387F84A3038
:406B800097F84A30092BE2D94C4B1B78184601F057F8002387F849300BE097F84930494AD35C184601F04CF897F84930013387F8493097F849300F2BEFD9002387F848305A
:406BC0000BE097F84830404AD35C184601F038F897F84830013387F8483097F84830172BEFD9364B1B78184601F02AF8002387F847300BE097F84730334AD35C184601F09E
:406C00001FF897F84730013387F8473097F847301F2BEFD9294B1B78184601F011F8002387F846300BE097F84630284AD35C184601F006F897F84630013387F8463097F8E3
:406C400046301F2BEFD91D4B1B78184600F0F8FF002387F845300BE097F845301C4AD35C184600F0EDFF97F84530013387F8453097F845301F2BEFD9104B1B78184600F0F9
:406C8000DFFF0E4B1B78184600F0DAFF0B4B1B78184600F0D5FF094B1B78184600F0D0FF064B1B78184600F0CBFF00BF9437BD4690BD00BFC882FF1FA085FF1FCC80FF1F2A
:406CC000BA8AFF1F7C84FF1FA084FF1FB481FF1FD481FF1F80B584B000AFF860B9607A607A68B968F86801F019FE00BF1037BD4680BD00BF80B483B000AF0346FB71FEE789
:406D000080B483B000AF434B00221A60424B10221A70424B01221A70414B00221A70414B4FF438721A80404B01221A703F4B03221A703F4B3F4A92B21A803F4B47F6080212
:406D40001A803E4B00221A803D4B4FF480421A803C4B09221A703C4B0A221A703B4B0F221A703B4B18221A70BFF35F8F394B01221A70BFF35F8F00BF2A4B1B889BB2002B49
:406D8000FAD100237B600DE07B68DA00324B13441946324A7B6852F823309BB20B807B6801337B607B685B2BEED9BFF35F8F294B01221A70BFF35F8F00BF294B1B78DBB283
:406DC00003F00103002BF8D100BF264B1B78DBB203F00103002BF8D100BF234B1B78DBB203F00103002BF8D100BF204B1B78DBB203F00103002BF8D100BF1D4B1B78DBB2B9
:406E000003F00103002BF8D100BF0C37BD4680BC704700BF6885FF1F00760040107000401970004000780040027800400378004004780040500000000678004004760040B5
:406E40000676004029700040397000406970004079700040147000400C780040E89A0000187000402870004038700040687000407870004080B582B000AF454B19221A8005
:406E8000444B18221A70444B19221A80434B18221A70434B4FF49C721A80424B18221A70414B4FF49C721A80404B18221A70404B4FF49C721A803F4B18221A703E4B40F2BA
:406EC00009221A803D4B18221A703D4B47F22F521A803C4B19221A703B4B02221A704FF0402308221A70394B03221A70384B394A1278D2B21A70384B08221A80374B41F202
:406F000051221A800023FB7019237B6014E0FB785B00DAB2324B1B78DBB203F00103DBB21343DBB203F00303FB704FF4F07001F0F7F97B68013B7B607B68002B02D0FB7818
:406F4000032BE4D17B68002B02D10320FFF7D2FE244B4FF480721A80224B07221A70224B00221A70214B48221A701E4B00221A701F4B02221A701F4A1E4B1B78DBB243F03B
:406F80007F03DBB2137000BF0837BD4680BD00BF80400040824000408440004086400040884000408A4000408C4000408E40004090400040924000409440004096400040BE
:406FC000984000409A4000400043004000420040A14600400801004922420040204200402542004004400040064000400840004001400040A243004080B483B000AF0B4B50
:407000001B78FB710A4AFB7903F00703DBB21370084AFB791B09DBB21370074B44221A7000BF0C37BD4680BC704700BFCF0100496E5800406F5800407658004080B500AF71
:4070400072B6324A314B1B78DBB243F00403DBB21370FFF755FE2E4A2D4B1B78DBB243F00203DBB213702B4A2A4B1B78DBB243F00203DBB21370284A274B1B78DBB243F05C
:407080004003DBB21370254A244B1B78DBB243F01003DBB213700A2221492248FFF71AFE0A2221492148FFF715FE0A2220492148FFF710FE0A2220492048FFF70BFE0A22E9
:4070C0001F492048FFF706FE0A221F491F48FFF701FE1F4A1E4B1B78DBB243F00803DBB213701C4B60221A70FFF7C4FE194B80221A70194B01221A70FFF77EFF0E220649D8
:407100001648FFF7E7FD00BF80BD00BFE84600400350014013500140A0430040C2430040A421004800510040B0210048C0510040BC210048F0510040C821004810510040CE
:40714000D421004820510040E021004830510040224300400048004004000840B043004080B500AF01F0AEFB03461B680C2B00D1FEE7FEE780B584B000AF78600F4B1A6883
:407180007B6813441A460E4BD31A802B09DC0B4B1B68FB60094B1A687B681344074A136007E001F08FFB02460C2313604FF0FF33FB60FB6818461037BD4680BDC884FF1F8D
:4071C000608CFF1F80B586B000AF224B7B61224B3B61204B7B6135E03B691B68FB603B695B68BB603B699B683B6000237B600CE0FB681A68BB681A60BB680433BB60FB6833
:407200000433FB607B6804337B607A683B689A42EED13B69DB683B6000237B6008E0BB6800221A60BB680433BB607B6804337B607A683B689A42F2D13B6910333B617B698B
