:400000000080002011000000D96F0000D96F000080B500AF024A034B1B68136006F0E6FFBC760040FA460040010000000020004001000000002001400100000000480040F2
:400040000100000000480140010000000100000008000223000008760800032300001076080004230000287608000523000030760500062300002070050007230000307065
:4000800005000823000060700500FE23000070703000FE220000405180000B220000000200010C220000004480000D220000004780000E22000000488000FE220000004D5C
:4000C0000700102300000052070011230000085207001223000010520700132300001852060014230000605207001523000078520C0016230000004F2000172300007064E0
:400100002000FE2300007065080019230000005180001A230000000080001B230000800080001C230000800280001D230000000480001E230000800480001F230000000607
:40014000800020230000800680002123000000088000222300008008800023230000000A800024230000800A800025230000000C800026230000800C800027230000000EFB
:40018000800028230000800E800029230000001480002A230000801480002B230000001680002C230000801680002D230000001880002E230000801880002F230000001A1F
:4001C000800030230000801A10003123000010501000322300000050800033230000804D800034230000004C800035230000804C80003623000080478000372300000046EF
:400200008000382300008046800039230000004580003A230000804580003B230000001B80003C230000801B80003D230000001580003E230000801580003F230000001981
:400240008000402300008019800041230000001780004223000080178000432300000009800044230000800980004523000000078000462300008007800047230000000BD8
:40028000800048230000800B800049230000000580004A230000800580004B230000000D80004C230000800D80004D230000000380004E230000800380004F230000000F86
:4002C000800050230000800F800051230000000180005223000080018000532300000049800054230000804980005523000080488000562300000043800057230000804359
:400300008000582300000042800059230000804280005A230000004180005B230000804180005C23000000408000FE230000804010B5054C237833B9044B13B10448AFF387
:4003400000800123237010BD1885FF1F000000002C890000084B10B51BB108490848AFF300800848036803B910BD074B002BFBD0BDE81040184700BF000000001C85FF1F04
:400380002C890000C880FF1F0000000080B500AF984B1B78FF2B07D0964B93F83531FF2B02D1954B01221A70924B1B78FF2B07D0904B93F83531FF2B02D08F4B02221A70AA
:4003C0008C4B93F86A32FF2B07D08A4B93F89F33FF2B02D1884B03221A70864B93F86A32FF2B07D0834B93F89F33FF2B02D0824B04221A70804B1B78012B09D17D4B1B78F1
:40040000184603F0F1FD03461A467A4B83F84C20794B1B78022B31D1764B93F82B31062B08D1744B1B78184603F070FD714B002283F834216F4B93F86032062B09D16D4B98
:4004400093F83531184603F061FD6A4B002283F86922684B1B78184603F0C6FD03461A46644B83F84C20634B93F83531184603F0BBFD03461A465F4B83F881215E4B1B7812
:40048000032B4BD15B4B93F82B31062B08D1594B1B78184603F03AFD564B002283F83421544B93F86032062B09D1524B93F83531184603F02BFD4F4B002283F869224D4BE1
:4004C00093F89533062B09D14A4B93F86A32184603F01CFD474B002283F89E23454B1B78184603F081FD03461A46424B83F84C20404B93F83531184603F076FD03461A4690
:400500003C4B83F881213B4B93F86A32184603F06BFD03461A46374B83F8B622364B1B78042B65D1334B93F82B31062B08D1314B1B78184603F0EAFC2E4B002283F834219A
:400540002C4B93F86032062B09D12A4B93F83531184603F0DBFC274B002283F86922254B93F89533062B09D1224B93F86A32184603F0CCFC1F4B002283F89E231D4B93F87E
:40058000CA34062B09D11B4B93F89F33184603F0BDFC184B002283F8D324164B1B78184603F022FD03461A46124B83F84C20114B93F83531184603F017FD03461A460D4B6A
:4005C00083F881210B4B93F86A32184603F00CFD03461A46074B83F8B622064B93F89F33184603F001FD03461A46024B83F8EB2300BF80BD6885FF1FCA8AFF1F90B595B03A
:4006000000AFC74A07F1180310681860C54A07F11003106818609188927999809A71C24A07F10803106818609188927999809A71BE4B03221A7046F2A81006F03BFE06F091
:4006400069FD62B607F0BEFA07F086FC07F0B6F906F0D0FE07F004F9B54B002283F83421B34B002283F86922B14B002283F89E23AF4B002283F8D324002007F081F903469C
:400680005A2B19D1002387F84F3010E097F84F4097F84F309BB2184607F072F903461A46A44B1A5597F84F30013387F84F3097F84F30052BEAD915E000215A2007F0D6F8E4
:4006C000012387F84F3009E097F84F30994A3021D15497F84F30013387F84F3097F84F30052BF1D9934B5B7903F00F03DBB21B01DAB2904B1B7903F00F03DBB219469B0059
:40070000CB1ADB00DBB21344DAB28A4B9B7803F00F03DBB2194689000B445B00D9B2854BDB7803F00F03DBB2184680000344184684001846234603449B00DBB20B44DBB224
:400740001344DAB27B4B5B7803F00F03DBB21344DAB2794B1A70062007F012F903465A2B1CD1002387F84F3013E097F84F309C1D97F84F309BB206339BB2184607F000F94D
:4007800003461A466D4B1A5597F84F30013387F84F3097F84F30052BE7D916E006215A2007F064F8012387F84F300AE097F84F300633624A3021D15497F84F30013387F80B
:4007C0004F3097F84F30052BF0D95C4B5B7903F00F03DBB21B01DAB2584B1B7903F00F03DBB219469B00CB1ADB00DBB21344DAB2524B9B7803F00F03DBB2194689000B4452
:400800005B00D9B24D4BDB7803F00F03DBB2184680000344184684001846234603449B00DBB20B44DBB21344DAB2444B5B7803F00F03DBB21344DAB2414B1A703C4B0022C3
:400840001A703B4B012283F83521394B022283F86A22374B032283F89F233A4B00221A70002387F84E30384B00221A70FFF78EFD06F08CFE03463B773B7F042B15D900236B
:4008800087F84B300CE097F84B4006F037FE03461A462E4B1A5597F84B30013387F84B3097F84B203B7F9A42EDD3042006F002FD264B1B7A1C2B62D01C2B13DC0A2B00F001
:4008C0008C800A2B04DC012B20D0022B23D0DDE30C2B00F0B5810C2BC0F21E810D2B00F04A82D3E3AA2B33D0AA2B06DC4E2B00F08D83532B00F05083C8E3CC2B00F0CF8220
:40090000E12B00F0B283CA2B50D0BFE3E12387F84E3001F0C3B8E22387F84E3001F0BEB830890000348900003C890000828AFF1F6885FF1F6085FF1FCB8AFF1FC08AFF1FAB
:40094000C68AFF1FC78AFF1FC88AFF1FD08AFF1F012387F84E30002387F84A3009E097F84A30C04A0021D15497F84A30013387F84A3097F84A30132BF1D901F08FB86B2326
:4009800087F84E30002387F8493009E097F84930B44A0021D15497F84930013387F8493097F84930132BF1D901F078B8032387F84E30002387F8483009E097F84830A94A65
:4009C0000021D15497F84830013387F8483097F84830132BF1D901F061B897F84E30012B19D1002387F84E309F4B1B78184603F08DFA002387F8473009E097F84730994AE3
:400A00000021D15497F84730013387F8473097F84730132BF1D997F84E30022B26D10A2387F84E30904B1B78184603F0DDFA8E4B18788E4B1B780122194603F021FC8A4B05
:400A40001B78184603F0D0FA002387F8463009E097F84630834A0021D15497F84630013387F8463097F84630132BF1D997F84E306B2B41F004801A2387F84E307A4B1B788A
:400A8000184603F0B1FA784B1878784B1B780122194603F0F5FB744B1B78184603F0A4FA002387F8453009E097F845306D4A0021D15497F84530013387F8453097F84530BA
:400AC000132BF1D9002387F844300BE097F84430654A1344202283F8232197F84430013387F8443097F84430072BEFD9002387F843300BE097F843305B4A1344202283F801
:400B00002D2197F84330013387F8433097F84330052BEFD900F0B3BF97F84E30012B1AD1002387F84E30504B93F83531184603F0EDF9002387F8423009E097F84230494A4B
:400B40000021D15497F84230013387F8423097F84230132BF1D997F84E30022B17D10B2387F84E30404B93F83531184603F03CFA3D4B93F835013D4B1B780122194603F0D7
:400B80007FFB394B93F83531184603F02DFA97F84E306B2B40F075871B2387F84E30324B93F83531184603F01FFA2F4B93F835012E4B1B780122194603F062FB2A4B93F8D3
:400BC0003531184603F010FA002387F8413009E097F84130234A0021D15497F84130013387F8413097F84130132BF1D9002387F840300BE097F840301B4A1344202283F8E4
:400C0000582297F84030013387F8403097F84030072BEFD9002387F83F300BE097F83F30114A1344202283F8622297F83F30013387F83F3097F83F30052BEFD900F021BF4C
:400C400097F84E30012B21D1002387F84E30064B93F86A32184603F059F9002387F83E3010E000BFD08AFF1F6885FF1FC78AFF1F97F83E30C54A0021D15497F83E300133DA
:400C800087F83E3097F83E30132BF1D997F84E30022B17D10C2387F84E30BD4B93F86A32184603F0A1F9BA4B93F86A02B94B1B780122194603F0E4FAB54B93F86A3218466F
:400CC00003F092F997F84E306B2B40F0DC861C2387F84E30AE4B93F86A32184603F084F9AB4B93F86A02AB4B1B780122194603F0C7FAA74B93F86A32184603F075F9002370
:400D000087F83D3009E097F83D30A04A0021D15497F83D30013387F83D3097F83D30132BF1D9002387F83C300BE097F83C30984A1344202283F88D2397F83C30013387F84A
:400D40003C3097F83C30072BEFD9002387F83B300BE097F83B308E4A1344202283F8972397F83B30013387F83B3097F83B30052BEFD900F088BE97F84E30012B1AD10023F3
:400D800087F84E30824B93F89F33184603F0BEF8002387F83A3009E097F83A307B4A0021D15497F83A30013387F83A3097F83A30132BF1D997F84E30022B17D10C2387F825
:400DC0004E30734B93F89F33184603F00DF9704B93F89F036F4B1B780122194603F050FA6B4B93F89F33184603F0FEF897F84E306B2B40F04A861D2387F84E30644B93F89B
:400E00009F33184603F0F0F8614B93F89F03614B1B780122194603F033FA5D4B93F89F33184603F0E1F8002387F8393009E097F83930564A0021D15497F83930013387F841
:400E4000393097F83930132BF1D9002387F838300BE097F838304E4A1344202283F8C22497F83830013387F8383097F83830072BEFD9002387F837300BE097F83730444A10
:400E80001344202283F8CC2497F83730013387F8373097F83730052BEFD900F0F6BD3C4B93F83531184603F09FF8394B93F83501384B1B780122194603F0E2F90A2006F062
:400EC000F9F9334B93F83531184603F08DF8304B1B78184603F088F82D4B18782D4B1B780122194603F0CCF90A2006F0E3F9284B1B78184603F078F8254B93F8353118460D
:400F000003F072F8224B93F83501224B1B780222194603F0B5F90A2006F0CCF91C4B93F83531184603F060F8194B1B78184603F05BF8174B1878174B1B780222194603F024
:400F40009FF90A2006F0B6F9114B1B78184603F04BF80F4B93F83531184603F045F8002387F8363009E097F83630084A0021D15497F83630013387F8363097F83630132BEF
:400F8000F1D904F013FE00F089BD00BFD08AFF1F6885FF1FC78AFF1F97F84E30AC2B08D1C54B012283F83421C34B1B78184603F0EDF997F84E30BC2B09D1BF4B012283F86D
:400FC0006922BD4B93F83531184603F0DFF997F84E30CC2B09D1B84B012283F89E23B64B93F86A32184603F0D1F997F84E30DC2B40F04D85B04B012283F8D324AE4B93F897
:401000009F33184603F0C2F900F041BD97F84E30AC2B06D1002387F84E30A74B002283F8342197F84E30BC2B06D1002387F84E30A14B002283F8692297F84E30CC2B06D14B
:40104000002387F84E309C4B002283F89E2397F84E30DC2B40F01D85002387F84E30964B002283F8D32400F014BD97F84E30E12B02D1C12387F84E3097F84E30E22B40F0B8
:401080000A85C22387F84E3000F005BD8B4BDB78832B40F0DB8097F84C300A2B40F0D680864B1B7AE12B00F0D180002387F835300BE097F83530804A1344302283F80B2132
:4010C00097F83530013387F8353097F83530052BEFD9002387F84D30794B00221A70002387F84C30072387F8343021E097F83430724AD35C002B1FD097F834306F4AD35C6A
:40110000FF2B19D097F83430073B97F834206B498A5C07F150010B4403F8502C97F84D30013387F84D3097F83430013387F8343097F834300B2BD9D9062387F84F301BE098
:4011400097F84F3097F84D2007F150010A4412F8501C594A13440A4683F80B2197F84D30002B0ED097F84D30013B87F84D3097F84F30013B87F84F3097F84F30002BDFD1DD
:4011800000E000BF4C4B93F80B31303B1B015AB2494B93F80C31303BDBB25BB213435BB2DAB2454B83F82920434B93F80D31303B1B015AB2404B93F80E31303BDBB25BB2B7
:4011C00013435BB2DAB23C4B83F82A203A4B93F80F31303B1B015AB2374B93F81031303BDBB25BB213435BB2DAB2334B83F82B20002387F84F3013E097F84F302E4A13445A
:4012000093F8292097F84F309BB20C339BB21946104606F02BFB97F84F30013387F84F3097F84F30022BE7D9002387F8333009E097F83330214A0021D15497F83330013330
:4012400087F8333097F83330132BF1D91B4BDB78832B0AD197F84C30012B06D1174B1A7A174B1A700A2387F84C30144BDB78832B5ED197F84E30032B5AD1002387F84E3023
:401280000E4BDA793B7E9A4232D10C4B1A7A7B7E9A422DD1094B5A7ABB7E9A4228D1074B9A7AFB7E9A4223D1044BDB7AFF2B1FD1002387F8323014E06885FF1FD08AFF1F0E
:4012C000C88AFF1F97F8323007F15002134413F8403C184606F0A2F997F83230013387F8323097F83230052BECD9042005F0E2FFB84B1B7A012B02D1012387F84C30B54BDA
:401300001B7A022B02D1022387F84C30002387F8313009E097F83130AE4A0021D15497F83130013387F8313097F83130132BF1D9A84BDB78832B3DD197F84E301A2B39D184
:40134000072387F830301CE097F83030A14AD35C002B1AD097F830309E4AD35CFF2B14D097F83030073B97F830209A49895C9A4A13440A4683F82D2197F83030013387F868
:40138000303097F830300E2BDED9002387F82F3009E097F82F308F4A0021D15497F82F30013387F82F3097F82F30132BF1D90A2387F84E30874BDB78832B7BD197F84E30AB
:4013C000C12B77D1072387F82E301EE097F82E30804AD35C002B1CD097F82E307D4AD35CFF2B16D097F82E30073B97F82E2079498A5C303AD1B2784A13440A4683F80B2113
:4014000097F82E30013387F82E3097F82E300A2BDCD9002387F82D3009E097F82D306D4A0021D15497F82D30013387F82D3097F82D30132BF1D9684B93F80B31303B1B0115
:401440005AB2654B93F80C31303BDBB25BB213435BB2DAB2604B83F829205F4B93F80D31303B1B015AB25C4B93F80E31303BDBB25BB213435BB2DAB2574B83F82A20564B12
:4014800093F80F31303B1B015AB2534B93F81031303BDBB25BB213435BB2DAB24E4B83F82B204D4B1B784D49184602F05FFE002387F84E30474BDB78832B7CD197F84E3096
:4014C000C22B78D1072387F82C301EE097F82C30404AD35C002B1CD097F82C303D4AD35CFF2B16D097F82C30073B97F82C2039498A5C303AD1B2384A13440A4683F84022E4
:4015000097F82C30013387F82C3097F82C300A2BDCD9002387F82B3009E097F82B302D4A0021D15497F82B30013387F82B3097F82B30132BF1D9284B93F84032303B1B016E
:401540005AB2254B93F84132303BDBB25BB213435BB2DAB2204B83F85E211F4B93F84232303B1B015AB21C4B93F84332303BDBB25BB213435BB2DAB2174B83F85F21164B83
:4015800093F84432303B1B015AB2134B93F84532303BDBB25BB213435BB2DAB20E4B83F860210D4B93F835310D49184602F0DEFD002387F84E30074BDB78832B6CD197F8E5
:4015C0004E300A2B68D1002387F84E30072387F82A303FE0D08AFF1F6885FF1F9185FF1FC686FF1F97F82A30BD4AD35C002B35D097F82A30BA4AD35CFF2B2FD097F82A301F
:40160000B74AD35C602B14D997F82A30B44AD35C7A2B0ED897F82A30073B97F82A20B0498A5C203AD1B2AF4A13440A4683F823210BE097F82A30073B97F82A20A849895C7D
:40164000A84A13440A4683F8232197F82A30013387F82A3097F82A300E2BC3D9002387F8293009E097F829309D4A0021D15497F82930013387F8293097F82930132BF1D981
:40168000984B1B78184602F081FE964B012283F83421AC2387F84E30914BDB78832B3DD197F84E301B2B39D1072387F828301CE097F828308A4AD35C002B1AD097F828301A
:4016C000874AD35CFF2B14D097F82830073B97F828208349895C834A13440A4683F8622297F82830013387F8283097F828300E2BDED9002387F8273009E097F82730784A65
:401700000021D15497F82730013387F8273097F82730132BF1D90B2387F84E30704BDB78832B65D197F84E300B2B61D1002387F84E30072387F8263037E097F82630684A26
:40174000D35C002B35D097F82630654AD35CFF2B2FD097F82630624AD35C602B14D997F826305F4AD35C7A2B0ED897F82630073B97F826205A498A5C203AD1B2594A134442
:401780000A4683F858220BE097F82630073B97F826205349895C534A13440A4683F8582297F82630013387F8263097F826300E2BC3D9002387F8253009E097F82530484A45
:4017C0000021D15497F82530013387F8253097F82530132BF1D9434B93F83531184602F0D5FD404B012283F86922BC2387F84E303B4BDB78832B3DD197F84E301C2B39D1A7
:40180000072387F824301CE097F82430344AD35C002B1AD097F82430314AD35CFF2B14D097F82430073B97F824202D49895C2D4A13440A4683F8972397F82430013387F833
:40184000243097F824300E2BDED9002387F8233009E097F82330224A0021D15497F82330013387F8233097F82330132BF1D90C2387F84E301A4BDB78832B69D197F84E3024
:401880000C2B65D1002387F84E30072387F822303BE097F82230124AD35C002B39D097F822300F4AD35CFF2B33D097F822300C4AD35C602B18D997F82230094AD35C7A2B65
:4018C00012D897F82230073B97F8222004498A5C203AD1B2034A13440A4683F88D230FE0D08AFF1F6885FF1F97F82230073B97F822206C49895C6C4A13440A4683F88D2353
:4019000097F82230013387F8223097F822300E2BBFD9002387F8213009E097F82130614A0021D15497F82130013387F8213097F82130132BF1D95C4B93F86A32184602F078
:4019400025FD594B012283F89E23CC2387F84E30544BDB78832B38D197F84E301D2B34D1072387F820301CE097F820304D4AD35C002B1AD097F820304A4AD35CFF2B14D0F4
:4019800097F82030073B97F820204649895C464A13440A4683F8CC2497F82030013387F8203097F820300E2BDED90023FB7706E0FB7F3C4A0021D154FB7F0133FB77FB7F15
:4019C000132BF5D90D2387F84E30364BDB78832B63D197F84E300D2B5FD1002387F84E300723BB772DE0BB7F2E4AD35C002B2BD0BB7F2C4AD35CFF2B26D0BB7F294AD35C18
:401A0000602B11D9BB7F274AD35C7A2B0CD8BB7F073BBA7F23498A5C203AD1B2224A13440A4683F8C22409E0BB7F073BBA7F1D49895C1D4A13440A4683F8C224BB7F0133B0
:401A4000BB77BB7F0E2BCED900237B7706E07B7F144A0021D1547B7F01337B777B7F132BF5D9114B93F89F33184602F08FFC0E4B012283F8D324DC2387F84E300DE000BF31
:401A80000CE000BF0AE000BF08E000BF06E000BF04E000BF02E000BF00E000BF00233B77FEF7E4BED08AFF1F6885FF1F80B489B000AF78600B467B800023FB830023BB6194
:401AC0007B68002B2FD1002368E0FB8BDB0B9BB2BB60FB8B5B00FB837B681B781A46BB6942FA03F31BB203F001031AB2B7F91E3013431BB2FB83BB690133BB61BB69072B15
:401B000007DD0023BB617B6801337B607B88013B7B80BB68002B06D0FB8B83F4FF4383F07A03DB43FB837B88002BCED100237B6113E0FB8BDB0B9BB2BB60FB8B5B00FB8375
:401B4000BB68002B06D0FB8B83F4FF4383F07A03DB43FB837B6901337B617B690F2BE8DD00237B824FF400437B610123FB6011E0FA8B7B691340002B06D0FB681AB2B7F911
:401B8000123013431BB27B827B695B107B61FB685B00FB607B69002BEAD17B8A18462437BD4680BC704700BFF0B589B000AF184B1B78FB71164B5B7803F00F03BB71154B8E
:401BC0001B78BA799A4240F05184124B002283F82B210123FB770CE0FB7F013BFA7F0C49895C0C4A13440A4683F85120FB7F0133FB77FA7FFB7901339A42EDDB054B93F864
:401C00005330652B40F07F820523BB7725E000BF508AFF1F6885FF1FCD4B93F8553003F00F03591ECB4B1B781D46BB7F581FBB7FC74A134493F85160C54C2A4692002A447F
:401C40000B469B000B445B00134423440344013332461A70BB7F0133BB77BA7FBC4B93F8543004339A42D7DBB94B93F8553003F00F03591EB74B1B781D46B54B93F8553047
:401C800003F00F03581EB34B1B78B14C1A4692001A4403469B0003445B001344234401331B781B09DBB23033DCB2A9482A4692002A4453001A460B461B015B1A5B00134476
:401CC0000344833322461A70A14B93F8553003F00F03591E9F4B1B781D469D4B93F8553003F00F03581E9B4B1B78994C1A4692001A4403469B0003445B0013442344013304
:401D00001B7803F00F03DBB23033DCB290482A4692002A4453001A460B461B015B1A5B0013440344843322461A70894B93F8553003F00F03591E874B1B781D46844B93F88C
:401D4000553003F00F03581E824B1B78804C1A4692001A4403469B0003445B001344234402331B781B09DBB23033DCB278482A4692002A4453001A460B461B015B1A5B0019
:401D800013440344853322461A70714B93F8553003F00F03591E6F4B1B781D466C4B93F8553003F00F03581E6A4B1B78684C1A4692001A4403469B0003445B001344234411
:401DC00002331B7803F00F03DBB23033DCB260482A4692002A4453001A460B461B015B1A5B0013440344863322461A70584B93F8553003F00F03591E564B1B781D46544BE2
:401E000093F8553003F00F03581E524B1B78504C1A4692001A4403469B0003445B001344234403331B781B09DBB23033DCB248482A4692002A4453001A460B461B015B1AB7
:401E40005B0013440344873322461A70404B93F8553003F00F03591E3E4B1B781D463C4B93F8553003F00F03581E3A4B1B78384C1A4692001A4403469B0003445B0013444C
:401E8000234403331B7803F00F03DBB23033DCB22F482A4692002A4453001A460B461B015B1A5B0013440344883322461A70284B93F8553003F00F03591E264B1B781D46E7
:401EC000234B93F8553003F00F03581E214B1B781F4C1A4692001A4403469B0003445B001344234404331B781B09DBB23033DCB217482A4692002A4453001A460B461B0190
:401F00005B1A5B0013440344893322461A70104B93F8553003F00F03591E0E4B1B781D460B4B93F8553003F00F03581E094B1B78074C1A4692001A4403469B0003445B005E
:401F40001344234404331B7803F00F03DBB203E06885FF1FC78AFF1F3033DCB2B8482A4692002A4453001A460B461B015B1A5B00134403448A3322461A70B14B93F8553040
:401F800003F00F03591EAF4B1B781D46AC4B93F8553003F00F03581EAA4B1B78A84C1A4692001A4403469B0003445B001344234405331B781B09DBB23033DCB2A0482A465E
:401FC00092002A4453001A460B461B015B1A5B00134403448B3322461A70994B93F8553003F00F03591E974B1B781D46944B93F8553003F00F03581E924B1B78904C1A4645
:4020000092001A4403469B0003445B001344234405331B7803F00F03DBB23033DCB288482A4692002A4453001A460B461B015B1A5B00134403448C3322461A7000237B778A
:402040003AE07F4B93F8553003F00F03591E7D4B1B7897F91D007A4C1A4692001A4453001A460B461B015B1A5B0013442344034483331B78302B24D1714B93F8553003F085
:402080000F03591E6F4B1B7897F91D006C4C1A4692001A4453001A460B461B015B1A5B00134423440344833300221A7097F91D30DBB20133DBB27B7797F91D30072BC0DD75
:4020C00000E000BF012005F077F9BB7943F05003DBB2184605F0B8FE594B93F852305BB203F00F035BB263F03F035BB2DBB2184605F0AAFEFA2005F0A7FE042005F0DAF8D2
:40210000002005F059F94E4B93F85330022B40F0138104233B771BE03B7F043B3A7F48490A4492F85110464A13440A4683F839203B7F043B3A7F043241490A4492F851109A
:402140003F4A13440A4683F835203B7F01333B773B7F072BE0D93A4B93F839301B09DBB23033DAB2364B83F80321354B93F8393003F00F03DBB23033DAB2314B83F80421D0
:402180002F4B93F83A301B09DBB23033DAB22C4B83F805212A4B93F83A3003F00F03DBB23033DAB2264B83F80621254B93F83B301B09DBB23033DAB2214B83F80721204B7A
:4021C00093F83B3003F00F03DBB23033DAB21C4B83F808211A4B93F83C301B09DBB23033DAB2174B83F80921154B93F83C3003F00F03DBB23033DAB2114B83F80A2100235D
:40220000FB7614E097F91B300D4A134493F80331302B1BD197F91B30094A1344002283F8032197F91B30DBB20133DBB2FB7697F91B20054B1B7801339A42E3DB07E000BFA8
:402240006885FF1FC78AFF1F828AFF1F00BF9C4B93F835301B09DBB23033DAB2984B83F8FB20974B93F8353003F00F03DBB23033DAB2934B83F8FC20914B93F836301B0952
:40228000DBB23033DAB28E4B83F8FD208C4B93F8363003F00F03DBB23033DAB2884B83F8FE20874B93F837301B09DBB23033DAB2834B83F8FF20824B93F8373003F00F03EC
:4022C000DBB23033DAB27E4B83F800217C4B93F838301B09DBB23033DAB2794B83F80121774B93F8383003F00F03DBB23033DAB2734B83F802210023BB7614E097F91A308E
:402300006F4A134493F8FB30302B11D197F91A306B4A1344002283F8FB2097F91A30DBB20133DBB2BB7697F91A30072BE6DD00E000BF002005F040F8614B93F85330032B00
:4023400040F094805E4B93F85430042B40F08E805B4B062283F82B21594B93F8583003F00F03DAB2564B83F82C21554B93F82C315A1E534B93F8573003F00F03DBB2303309
:40238000D8B24F4913465B0013445B000B4403F5887302461A704A4B93F82C315A1E484B93F857301B09DBB23033D8B2444913465B0013445B000B4403F20F1302461A701E
:4023C0003F4B93F82C315A1E3D4B93F8563003F00F03DBB23033D8B2394913465B0013445B000B4403F5877302461A70344B93F82C315A1E324B93F856301B09DBB230335F
:40240000D8B22F4913465B0013445B000B4403F20D1302461A702A4B93F82C315A1E284B93F8553003F00F03DBB23033D8B2244913465B0013445B000B4403F586730246CC
:402440001A701F4B93F82C315A1E1D4B93F855301B09DBB23033D8B2194913465B0013445B000B4403F20B1302461A70144B93F83531BA799A4240F06784114B002283F883
:402480002B2101237B760CE07B7E013B7A7E0D49895C0B4A13440A4683F886217B7E01337B767A7EFB7901339A42EDDB044B93F88831652B40F0968205233B7626E000BFDE
:4024C0006885FF1F508AFF1FCD4B93F88A3103F00F03591ECB4B1B781D463B7E581F3B7EC74A134493F88661C54C2A4692002A440B469B000B445B0013442344034403F51C
:402500009B7332461A703B7E01333B763A7EBC4B93F8893104339A42D6DBB94B93F88A3103F00F03591EB74B1B781D46B44B93F88A3103F00F03581EB24B1B78B04C1A46BB
:4025400092001A4403469B0003445B001344234403F59B731B781B09DBB23033DCB2A8482A4692002A4453001A460B461B015B1A5B001344034403F5DC7322461A70A04BDA
:4025800093F88A3103F00F03591E9E4B1B781D469B4B93F88A3103F00F03581E994B1B78974C1A4692001A4403469B0003445B001344234403F59B731B7803F00F03DBB2BA
:4025C0003033DCB28E482A4692002A4453001A460B461B015B1A5B001344034403F2B91322461A70864B93F88A3103F00F03591E844B1B781D46824B93F88A3103F00F03F3
:40260000581E804B1B787E4C1A4692001A4403469B0003445B001344234403F237131B781B09DBB23033DCB275482A4692002A4453001A460B461B015B1A5B001344034439
:4026400003F5DD7322461A706D4B93F88A3103F00F03591E6B4B1B781D46694B93F88A3103F00F03581E674B1B78654C1A4692001A4403469B0003445B001344234403F206
:4026800037131B7803F00F03DBB23033DCB25C482A4692002A4453001A460B461B015B1A5B001344034403F2BB1322461A70544B93F88A3103F00F03591E524B1B781D466F
:4026C0004F4B93F88A3103F00F03581E4D4B1B784B4C1A4692001A4403469B0003445B001344234403F59C731B781B09DBB23033DCB243482A4692002A4453001A460B46EE
:402700001B015B1A5B001344034403F5DE7322461A703B4B93F88A3103F00F03591E394B1B781D46364B93F88A3103F00F03581E344B1B78324C1A4692001A4403469B000C
:4027400003445B001344234403F59C731B7803F00F03DBB23033DCB229482A4692002A4453001A460B461B015B1A5B001344034403F2BD1322461A70214B93F88A3103F011
:402780000F03591E1F4B1B781D461D4B93F88A3103F00F03581E1B4B1B78194C1A4692001A4403469B0003445B001344234403F239131B781B09DBB23033DCB210482A46D7
:4027C00092002A4453001A460B461B015B1A5B001344034403F5DF7322461A70084B93F88A3103F00F03591E064B1B781D46044B93F88A3103F00F03581E024B1B7803E0E0
:402800006885FF1FC78AFF1FC44C1A4692001A4403469B0003445B001344234403F239131B7803F00F03DBB23033DCB2BB482A4692002A4453001A460B461B015B1A5B00C0
:402840001344034403F2BF1322461A70B34B93F88A3103F00F03591EB14B1B781D46AF4B93F88A3103F00F03581EAD4B1B78AB4C1A4692001A4403469B0003445B001344E5
:40288000234403F59D731B781B09DBB23033DCB2A2482A4692002A4453001A460B461B015B1A5B001344034403F5E07322461A709A4B93F88A3103F00F03591E984B1B7832
:4028C0001D46964B93F88A3103F00F03581E944B1B78924C1A4692001A4403469B0003445B001344234403F59D731B7803F00F03DBB23033DCB289482A4692002A4453003D
:402900001A460B461B015B1A5B001344034403F2C11322461A700023FB753CE07F4B93F88A3103F00F03591E7D4B1B7897F917007A4C1A4692001A4453001A460B461B012E
:402940005B1A5B0013442344034403F5DC731B78302B25D1714B93F88A3103F00F03591E6F4B1B7897F917006C4C1A4692001A4453001A460B461B015B1A5B00134423442F
:40298000034403F5DC7300221A7097F91730DBB20133DBB2FB7597F91730072BBEDD00E000BF012004F008FDBB7943F05003DBB2184605F049FA594B93F887315BB203F027
:4029C0000F035BB263F03F035BB2DBB2184605F03BFAFA2005F038FA042004F06BFC002004F0EAFC4D4B93F88831022B40F012810423BB751BE0BB7D043BBA7D47490A449D
:402A000092F88611454A13440A4683F86E21BB7D043BBA7D043241490A4492F886113F4A13440A4683F86A21BB7D0133BB75BB7D072BE0D9394B93F86E311B09DBB23033A1
:402A4000DAB2364B83F83822344B93F86E3103F00F03DBB23033DAB2304B83F839222F4B93F86F311B09DBB23033DAB22B4B83F83A222A4B93F86F3103F00F03DBB23033D2
:402A8000DAB2264B83F83B22244B93F870311B09DBB23033DAB2214B83F83C221F4B93F8703103F00F03DBB23033DAB21B4B83F83D221A4B93F871311B09DBB23033DAB238
:402AC000164B83F83E22154B93F8713103F00F03DBB23033DAB2114B83F83F2200237B7514E097F915300D4A134493F83832302B1AD197F91530094A1344002283F8382219
:402B000097F91530DBB20133DBB27B7597F91520044B1B7801339A42E3DB06E06885FF1FC78AFF1F828AFF1F00BF9C4B93F86A311B09DBB23033DAB2984B83F83022974B85
:402B400093F86A3103F00F03DBB23033DAB2934B83F83122914B93F86B311B09DBB23033DAB28E4B83F832228C4B93F86B3103F00F03DBB23033DAB2884B83F83322874BC3
:402B800093F86C311B09DBB23033DAB2834B83F83422824B93F86C3103F00F03DBB23033DAB27E4B83F835227C4B93F86D311B09DBB23033DAB2794B83F83622774B93F829
:402BC0006D3103F00F03DBB23033DAB2734B83F8372200233B7514E097F914306F4A134493F83032302B11D197F914306B4A1344002283F8302297F91430DBB20133DBB25E
:402C00003B7597F91430072BE6DD00E000BF002004F0D2FB614B93F88831032B40F094805E4B93F88931042B40F08E805B4B062283F86022594B93F88D3103F00F03DAB295
:402C4000564B83F86122554B93F861325A1E534B93F88C3103F00F03DBB23033D8B24F4913465B0013445B000B4403F2452302461A704A4B93F861325A1E484B93F88C3198
:402C80001B09DBB23033D8B2444913465B0013445B000B4403F5117302461A703F4B93F861325A1E3D4B93F88B3103F00F03DBB23033D8B2394913465B0013445B000B4441
:402CC00003F2432302461A70344B93F861325A1E324B93F88B311B09DBB23033D8B22F4913465B0013445B000B4403F2422302461A702A4B93F861325A1E284B93F88A3113
:402D000003F00F03DBB23033D8B2244913465B0013445B000B4403F2412302461A701F4B93F861325A1E1D4B93F88A311B09DBB23033D8B2194913465B0013445B000B4464
:402D400003F5107302461A70144B93F86A32BA799A4240F06784114B002283F895230123FB740CE0FB7C013BFA7C0D49895C0B4A13440A4683F8BB22FB7C0133FB74FA7CDE
:402D8000FB7901339A42EDDB044B93F8BD32652B40F096820523BB7426E000BF6885FF1F508AFF1FCD4B93F8BF3203F00F03591ECB4B1B781D46BB7C581FBB7CC74A13449E
:402DC00093F8BB62C54C2A4692002A440B469B000B445B0013442344034403F26B2332461A70BB7C0133BB74BA7CBC4B93F8BE3204339A42D6DBB94B93F8BF3203F00F03EF
:402E0000591EB74B1B781D46B44B93F8BF3203F00F03581EB24B1B78B04C1A4692001A4403469B0003445B001344234403F26B231B781B09DBB23033DCB2A8482A46920063
:402E40002A4453001A460B461B015B1A5B001344034403F2ED2322461A70A04B93F8BF3203F00F03591E9E4B1B781D469B4B93F8BF3203F00F03581E994B1B78974C1A4606
:402E800092001A4403469B0003445B001344234403F26B231B7803F00F03DBB23033DCB28E482A4692002A4453001A460B461B015B1A5B001344034403F2EE2322461A7079
:402EC000864B93F8BF3203F00F03591E844B1B781D46824B93F8BF3203F00F03581E804B1B787E4C1A4692001A4403469B0003445B001344234403F51B731B781B09DBB2FA
:402F00003033DCB275482A4692002A4453001A460B461B015B1A5B001344034403F2EF2322461A706D4B93F8BF3203F00F03591E6B4B1B781D46694B93F8BF3203F00F035B
:402F4000581E674B1B78654C1A4692001A4403469B0003445B001344234403F51B731B7803F00F03DBB23033DCB25C482A4692002A4453001A460B461B015B1A5B0013445A
:402F8000034403F53C7322461A70544B93F8BF3203F00F03591E524B1B781D464F4B93F8BF3203F00F03581E4D4B1B784B4C1A4692001A4403469B0003445B001344234420
:402FC00003F26D231B781B09DBB23033DCB243482A4692002A4453001A460B461B015B1A5B001344034403F2F12322461A703B4B93F8BF3203F00F03591E394B1B781D469B
:40300000364B93F8BF3203F00F03581E344B1B78324C1A4692001A4403469B0003445B001344234403F26D231B7803F00F03DBB23033DCB229482A4692002A4453001A46C5
:403040000B461B015B1A5B001344034403F2F22322461A70214B93F8BF3203F00F03591E1F4B1B781D461D4B93F8BF3203F00F03581E1B4B1B78194C1A4692001A4403465F
:403080009B0003445B001344234403F26E231B781B09DBB23033DCB210482A4692002A4453001A460B461B015B1A5B001344034403F2F32322461A70084B93F8BF3203F045
:4030C0000F03591E064B1B781D46044B93F8BF3203F00F03581E024B1B7803E06885FF1FC78AFF1FC44C1A4692001A4403469B0003445B001344234403F26E231B7803F0CD
:403100000F03DBB23033DCB2BB482A4692002A4453001A460B461B015B1A5B001344034403F53D7322461A70B34B93F8BF3203F00F03591EB14B1B781D46AF4B93F8BF3206
:4031400003F00F03581EAD4B1B78AB4C1A4692001A4403469B0003445B001344234403F26F231B781B09DBB23033DCB2A2482A4692002A4453001A460B461B015B1A5B00B8
:403180001344034403F2F52322461A709A4B93F8BF3203F00F03591E984B1B781D46964B93F8BF3203F00F03581E944B1B78924C1A4692001A4403469B0003445B00134467
:4031C000234403F26F231B7803F00F03DBB23033DCB289482A4692002A4453001A460B461B015B1A5B001344034403F2F62322461A7000237B743CE07F4B93F8BF3203F095
:403200000F03591E7D4B1B7897F911007A4C1A4692001A4453001A460B461B015B1A5B0013442344034403F2ED231B78302B25D1714B93F8BF3203F00F03591E6F4B1B7814
:4032400097F911006C4C1A4692001A4453001A460B461B015B1A5B0013442344034403F2ED2300221A7097F91130DBB20133DBB27B7497F91130072BBEDD00E000BF012093
:4032800004F09AF8BB7943F05003DBB2184604F0DBFD594B93F8BC325BB203F00F035BB263F03F035BB2DBB2184604F0CDFDFA2004F0CAFD042003F0FDFF002004F07CF820
:4032C0004D4B93F8BD32022B40F0128104233B741BE03B7C043B3A7C47490A4492F8BB12454A13440A4683F8A3223B7C043B3A7C043241490A4492F8BB123F4A13440A4663
:4033000083F89F223B7C01333B743B7C072BE0D9394B93F8A3321B09DBB23033DAB2364B83F86D23344B93F8A33203F00F03DBB23033DAB2304B83F86E232F4B93F8A43243
:403340001B09DBB23033DAB22B4B83F86F232A4B93F8A43203F00F03DBB23033DAB2264B83F87023244B93F8A5321B09DBB23033DAB2214B83F871231F4B93F8A53203F0A9
:403380000F03DBB23033DAB21B4B83F872231A4B93F8A6321B09DBB23033DAB2164B83F87323154B93F8A63203F00F03DBB23033DAB2114B83F874230023FB7314E097F968
:4033C0000F300D4A134493F86D33302B1AD197F90F30094A1344002283F86D2397F90F30DBB20133DBB2FB7397F90F20044B1B7801339A42E3DB06E06885FF1FC78AFF1F6F
:40340000828AFF1F00BF9C4B93F89F321B09DBB23033DAB2984B83F86523974B93F89F3203F00F03DBB23033DAB2934B83F86623914B93F8A0321B09DBB23033DAB28E4B87
:4034400083F867238C4B93F8A03203F00F03DBB23033DAB2884B83F86823874B93F8A1321B09DBB23033DAB2834B83F86923824B93F8A13203F00F03DBB23033DAB27E4B9F
:4034800083F86A237C4B93F8A2321B09DBB23033DAB2794B83F86B23774B93F8A23203F00F03DBB23033DAB2734B83F86C230023BB7314E097F90E306F4A134493F86533C1
:4034C000302B11D197F90E306B4A1344002283F8652397F90E30DBB20133DBB2BB7397F90E30072BE6DD00E000BF002003F064FF614B93F8BD32032B40F094805E4B93F8A2
:40350000BE32042B40F08E805B4B062283F89523594B93F8C23203F00F03DAB2564B83F89623554B93F896335A1E534B93F8C13203F00F03DBB23033D8B24F4913465B0051
:4035400013445B000B4403F27A3302461A704A4B93F896335A1E484B93F8C1321B09DBB23033D8B2444913465B0013445B000B4403F2793302461A703F4B93F896335A1EBB
:403580003D4B93F8C03203F00F03DBB23033D8B2394913465B0013445B000B4403F55E7302461A70344B93F896335A1E324B93F8C0321B09DBB23033D8B22F4913465B00A6
:4035C00013445B000B4403F2773302461A702A4B93F896335A1E284B93F8BF3203F00F03DBB23033D8B2244913465B0013445B000B4403F2763302461A701F4B93F896335A
:403600005A1E1D4B93F8BF321B09DBB23033D8B2194913465B0013445B000B4403F2753302461A70144B93F89F33BA799A4240F06784114B002283F8CA2401237B730CE03F
:403640007B7B013B7A7B0D49895C0B4A13440A4683F8F0237B7B01337B737A7BFB7901339A42EDDB044B93F8F233652B40F0968205233B7326E000BF6885FF1F508AFF1F90
:40368000CD4B93F8F43303F00F03591ECB4B1B781D463B7B581F3B7BC74A134493F8F063C54C2A4692002A440B469B000B445B0013442344034403F5687332461A703B7BE8
:4036C00001333B733A7BBC4B93F8F33304339A42D6DBB94B93F8F43303F00F03591EB74B1B781D46B44B93F8F43303F00F03581EB24B1B78B04C1A4692001A4403469B00A1
:4037000003445B001344234403F568731B781B09DBB23033DCB2A8482A4692002A4453001A460B461B015B1A5B001344034403F2224322461A70A04B93F8F43303F00F0345
:40374000591E9E4B1B781D469B4B93F8F43303F00F03581E994B1B78974C1A4692001A4403469B0003445B001344234403F568731B7803F00F03DBB23033DCB28E482A46C3
:4037800092002A4453001A460B461B015B1A5B001344034403F2234322461A70864B93F8F43303F00F03591E844B1B781D46824B93F8F43303F00F03581E804B1B787E4C48
:4037C0001A4692001A4403469B0003445B001344234403F2A1331B781B09DBB23033DCB275482A4692002A4453001A460B461B015B1A5B001344034403F2244322461A702E
:403800006D4B93F8F43303F00F03591E6B4B1B781D46694B93F8F43303F00F03581E674B1B78654C1A4692001A4403469B0003445B001344234403F2A1331B7803F00F032A
:40384000DBB23033DCB25C482A4692002A4453001A460B461B015B1A5B001344034403F2254322461A70544B93F8F43303F00F03591E524B1B781D464F4B93F8F43303F03A
:403880000F03581E4D4B1B784B4C1A4692001A4403469B0003445B001344234403F2A2331B781B09DBB23033DCB243482A4692002A4453001A460B461B015B1A5B001344E9
:4038C000034403F2264322461A703B4B93F8F43303F00F03591E394B1B781D46364B93F8F43303F00F03581E344B1B78324C1A4692001A4403469B0003445B001344234431
:4039000003F2A2331B7803F00F03DBB23033DCB229482A4692002A4453001A460B461B015B1A5B001344034403F2274322461A70214B93F8F43303F00F03591E1F4B1B7850
:403940001D461D4B93F8F43303F00F03581E1B4B1B78194C1A4692001A4403469B0003445B001344234403F2A3331B781B09DBB23033DCB210482A4692002A4453001A46E2
:403980000B461B015B1A5B001344034403F5856322461A70084B93F8F43303F00F03591E064B1B781D46044B93F8F43303F00F03581E024B1B7803E06885FF1FC78AFF1FD9
:4039C000C44C1A4692001A4403469B0003445B001344234403F2A3331B7803F00F03DBB23033DCB2BB482A4692002A4453001A460B461B015B1A5B001344034403F22943E0
:403A000022461A70B34B93F8F43303F00F03591EB14B1B781D46AF4B93F8F43303F00F03581EAD4B1B78AB4C1A4692001A4403469B0003445B001344234403F569731B78D2
:403A40001B09DBB23033DCB2A2482A4692002A4453001A460B461B015B1A5B001344034403F22A4322461A709A4B93F8F43303F00F03591E984B1B781D46964B93F8F433E9
:403A800003F00F03581E944B1B78924C1A4692001A4403469B0003445B001344234403F569731B7803F00F03DBB23033DCB289482A4692002A4453001A460B461B015B1AE7
:403AC0005B001344034403F22B4322461A700023FB723CE07F4B93F8F43303F00F03591E7D4B1B7897F90B007A4C1A4692001A4453001A460B461B015B1A5B00134423441A
:403B0000034403F222431B78302B25D1714B93F8F43303F00F03591E6F4B1B7897F90B006C4C1A4692001A4453001A460B461B015B1A5B0013442344034403F222430022B5
:403B40001A7097F90B30DBB20133DBB2FB7297F90B30072BBEDD00E000BF012003F02CFCBB7943F05003DBB2184604F06DF9594B93F8F1335BB203F00F035BB263F03F03BC
:403B80005BB2DBB2184604F05FF9FA2004F05CF9042003F08FFB002003F00EFC4D4B93F8F233022B40F012810423BB721BE0BB7A043BBA7A47490A4492F8F013454A134420
:403BC0000A4683F8D823BB7A043BBA7A043241490A4492F8F0133F4A13440A4683F8D423BB7A0133BB72BB7A072BE0D9394B93F8D8331B09DBB23033DAB2364B83F8A224E8
:403C0000344B93F8D83303F00F03DBB23033DAB2304B83F8A3242F4B93F8D9331B09DBB23033DAB22B4B83F8A4242A4B93F8D93303F00F03DBB23033DAB2264B83F8A52485
:403C4000244B93F8DA331B09DBB23033DAB2214B83F8A6241F4B93F8DA3303F00F03DBB23033DAB21B4B83F8A7241A4B93F8DB331B09DBB23033DAB2164B83F8A824154B17
:403C800093F8DB3303F00F03DBB23033DAB2114B83F8A92400237B7214E097F909300D4A134493F8A234302B1AD197F90930094A1344002283F8A22497F90930DBB20133C4
:403CC000DBB27B7297F90920044B1B7801339A42E3DB06E06885FF1FC78AFF1F828AFF1F00BF894B93F8D4331B09DBB23033DAB2854B83F89A24844B93F8D43303F00F0323
:403D0000DBB23033DAB2804B83F89B247E4B93F8D5331B09DBB23033DAB27B4B83F89C24794B93F8D53303F00F03DBB23033DAB2754B83F89D24744B93F8D6331B09DBB22D
:403D40003033DAB2704B83F89E246F4B93F8D63303F00F03DBB23033DAB26B4B83F89F24694B93F8D7331B09DBB23033DAB2664B83F8A024644B93F8D73303F00F03DBB2EA
:403D80003033DAB2604B83F8A12400233B7214E097F908305C4A134493F89A34302B11D197F90830584A1344002283F89A2497F90830DBB20133DBB23B7297F90830072B31
:403DC000E6DD00E000BF002003F0F6FA4E4B93F8F233032B40F094804B4B93F8F333042B40F08E80484B062283F8CA24464B93F8F73303F00F03DAB2434B83F8CB24424B6F
:403E000093F8CB345A1E404B93F8F63303F00F03DBB23033D8B23C4913465B0013445B000B4403F2AF4302461A70374B93F8CB345A1E354B93F8F6331B09DBB23033D8B279
:403E4000314913465B0013445B000B4403F2AE4302461A702C4B93F8CB345A1E2A4B93F8F53303F00F03DBB23033D8B2264913465B0013445B000B4403F2AD4302461A7060
:403E8000214B93F8CB345A1E1F4B93F8F5331B09DBB23033D8B21C4913465B0013445B000B4403F2AC4302461A70174B93F8CB345A1E154B93F8F43303F00F03DBB230339E
:403EC000D8B2114913465B0013445B000B4403F2AB4302461A700C4B93F8CB345A1E0A4B93F8F4331B09DBB23033D8B2064913465B0013445B000B4403F2AA4302461A70BE
:403F000000BF2437BD46F0BD6885FF1F80B584B000AF0346FB710023FB7306E0FB7B2E4A0021D154FB7B0133FB73FB7B312BF5D9012003F041FAFB7943F05003DAB2264B36
:403F40001A70254B30225A70234B01229A70224B0122DA70204B06221A7105211E48FDF7A5FD03461A461D4B1A801C4B1B881B0A9BB2DAB21A4B1A70184B1B88DAB2194BDE
:403F80001A70184B1A78144B5A71154B1A78124B9A71114B0322DA710F4BFA221A720023BB7308E0BB7B0C4AD35C184603F04CFFBB7B0133BB73BB7B092BF3D9042003F0BB
:403FC00079F9002003F0F8F9C82003F073F97B7B18461037BD4680BD848AFF1FCC8AFF1F3C8AFF1FCE8AFF1F90B585B000AF0346FB710023FB7306E0FB7B5A4A0021D1547A
:40400000FB7B0133FB73FB7B312BF5D9012003F0D3F9FB7943F05003DBB2184603F014FF202003F011FFFA2003F00EFF032003F041F9002003F0C0F903F07EFE03467B72DF
:404040000123BB7309E0BC7B03F02EFE03461A46444B1A55BB7B0133BB73BA7B7B7A01339A42F0DB3F4A7B7A137003F0ADFE7B7A032B05D9FDF798FD642003F01BF965E072
:40408000642003F017F9384B1B78FA799A4212D100237B730BE07B7B7A7B3249895C324A13440A4683F851207B7B01337B737A7B7B7A9A42EFD32C4B93F83531FA799A4284
:4040C00012D100233B730BE03B7B3A7B2549895C254A13440A4683F886213B7B01333B733A7B7B7A9A42EFD31F4B93F86A32FA799A4212D10023FB720BE0FB7AFA7A1949C2
:40410000895C194A13440A4683F8BB22FB7A0133FB72FA7A7B7A9A42EFD3134B93F89F33FA799A4212D10023BB720BE0BB7ABA7A0C49895C0C4A13440A4683F8F023BB7A90
:404140000133BB72BA7A7B7A9A42EFD37B7A002B02D0044B5B7800E0002318461437BD4690BD00BF508AFF1F6885FF1F90B585B000AF03463960FB71012003F01DF9FB7930
:4041800043F05003DAB2394B1A70384B30225A70364B05229A70354B0322DA703B681A78324B1A713B685A78304B5A713B689A782E4B9A7107212D48FDF778FC03461A46C0
:4041C0002B4B1A802A4B1B881B0A9BB2DAB2294B1A70274B1B88DAB2274B1A70264B1A78224BDA71234B1A78204B1A721F4B03225A721E4BFA229A720023FB7308E0FB7B71
:404200001A4AD35C184603F01FFEFB7B0133FB73FB7B0B2BF3D9042003F04CF8002003F0CBF803F089FD03467B730023BB7309E0BC7B03F039FD03461A46104B1A55BB7BC9
:404240000133BB73BA7B7B7B9A42F1D303F0BCFD642003F02FF87B7B002B02D0074B5B7800E0002318461437BD4690BD848AFF1FCC8AFF1F3C8AFF1FCE8AFF1F508AFF1FC1
:4042800090B585B000AF0346FB710B46BB7113467B71BB791B015AB297F9053013435BB27B73012003F088F8FB7943F05003DAB2314B1A70304B30225A702F4B65229A702A
:4042C0002D4B0122DA702C4A7B7B137105212A48FDF7ECFB03461A46284B1A80274B1B881B0A9BB2DAB2264B1A70244B1B88DAB2244B1A70234B1A781F4B5A71204B1A78E9
:404300001D4B9A711C4B0322DA711B4BFA221A720023FB7308E0FB7B174AD35C184603F093FDFB7B0133FB73FB7B092BF3D9042002F0C0FF002003F03FF803F0FDFC0346E3
:404340003B730023BB7309E0BC7B03F0ADFC03461A460D4B1A55BB7B0133BB73BA7B3B7B9A42F1D303F030FD642002F0A3FF00BF1437BD4690BD00BF848AFF1FCC8AFF1FFE
:404380003C8AFF1FCE8AFF1F508AFF1F90B59DB000AF0346FB71002387F86F30C64B1B78C64A82FB03121213DB17D31ADBB23033DAB2C34B5A71C04B1B781A46BF4B83FB4F
:4043C00002131913D317CB1A42F2107101FB03F3D31ABC4A82FB03129211DB17D31ADBB23033DAB2B64B1A71B34B1B781A46B34B83FB02131913D317CB1A42F2107101FBC9
:4044000003F3D31AAF4A82FB03129111DA178A1A4FF47A7101FB02F29A1AAB4B83FB02135911D317CB1ADBB23033DAB2A44BDA70A14B1B78A14A82FB03121113DA178A1AD9
:4044400042F2107101FB02F29A1A9E4B83FB02139911D317CB1A4FF47A7101FB03F3D31A994A82FB03125111DA178A1A642101FB02F29A1A954B83FB02139910D317CB1A61
:40448000DBB23033DAB28E4B9A708B4B1B788B4A82FB03121113DA178A1A42F2107101FB02F29A1A874B83FB02139911D317CB1A4FF47A7101FB03F3D31A834A82FB031271
:4044C0005111DA178A1A642101FB02F29A1A7F4B83FB02139910D317C91A0B469B000B445B00D11ACBB23033DAB2754B5A70012387F86E300FE097F86E30714AD35C97F87C
:404500006E2092B21146184603F0B0F997F86E30013387F86E3097F86E30052BEBD91BE0002387F86D300BE097F86D30684AD35C184603F073F897F86D30013387F86D304F
:4045400097F86D30052BEFD9042002F0B3FE03F01DF8034687F86F3097F96F30002BDFD097F96F300C2B54DD002387F86C300CE097F86C4002F0C2FF03461A46554B1A5571
:4045800097F86C30013387F86C3097F86C2097F96F309A42ECDB002387F86F3039E0002387F86B300BE097F86B30494AD35C184603F034F897F86B30013387F86B3097F8A2
:4045C0006B30052BEFD9042002F074FE02F0DEFF034687F86F3097F96F300C2B19DD002387F86A300CE097F86A4002F087FF03461A46384B1A5597F86A30013387F86A3024
:4046000097F86A2097F96F309A42ECDB002387F86F30304B1B7A002BC1D0002387F869300BE097F869302C4AD35C184603F01CFA97F86930013387F8693097F869301F2B42
:40464000EFD9264B1B78184603F00EFA002387F868300BE097F86830214AD35C184603F003FA97F86830013387F8683097F868301F2BEFD9194B1B78184603F0F5F90023DD
:4046800087F867300BE097F86730164AD35C184603F0EAF997F86730013387F8673097F867301F2BEFD90D4B1B78184603F0DCF9002387F8663023E0CB8AFF1FAD8BDB682E
:4046C0006085FF1FD34D62101F85EB51676666669484FF1FD08AFF1FD480FF1FCC80FF1FF480FF1F1481FF1F97F86630BD4AD35C184603F0B9F997F86630013387F8663011
:4047000097F866301F2BEFD9B74B1B78184603F0ABF9002387F865300BE097F86530B34AD35C184603F0A0F997F86530013387F8653097F865301F2BEFD9AB4B1B781846D3
:4047400003F092F9002387F864300BE097F86430A74AD35C184603F087F997F86430013387F8643097F864301F2BEFD99E4B1B78184603F079F9002387F863300BE097F8F9
:4047800063309C4AD35C184603F06EF997F86330013387F8633097F863301F2BEFD9924B1B78184603F060F9002387F862300BE097F86230904AD35C184603F055F997F86C
:4047C0006230013387F8623097F862300C2BEFD98A4B1B7A1B09DBB23033DBB2184603F043F9864B1B7A03F00F03DBB23033DBB2184603F039F92F2003F036F97F4BDB7930
:404800001B09DBB23033DBB2184603F02DF97B4BDB7903F00F03DBB23033DBB2184603F023F92F2003F020F9744B9B791B09DBB23033DBB2184603F017F9704B9B7903F065
:404840000F03DBB23033DBB2184603F00DF9664B1B78184603F008F9002387F861300BE097F86130664AD35C184603F0FDF897F86130013387F8613097F861300C2BEFD9D6
:404880005E4B9B7A1B09DBB23033DBB2184603F0EBF85A4B9B7A03F00F03DBB23033DBB2184603F0E1F83A2003F0DEF8534BDB7A1B09DBB23033DBB2184603F0D5F84F4B90
:4048C000DB7A03F00F03DBB23033DBB2184603F0CBF83A2003F0C8F8484B1B7B1B09DBB23033DBB2184603F0BFF8444B1B7B03F00F03DBB23033DBB2184603F0B5F83A4BC4
:404900001B78184603F0B0F8002387F860300BE097F86030374AD35C184603F0A5F897F86030013387F8603097F860301F2BEFD9344B1B78FA799A4240F03F82314B93F825
:404940003431012B2CD1002387F85F300BE097F85F302D4AD35C184603F086F897F85F30013387F85F3097F85F301F2BEFD91E4B1B78184603F078F8002387F85E300BE092
:4049800097F85E301B4AD35C184603F06DF897F85E30013387F85E3097F85E301F2BEFD9114B1B78184603F05FF8002387F85D300BE097F85D30154AD35C184603F054F80B
:4049C00097F85D30013387F85D3097F85D300C2BEFD90C4B93F83431012B2AD1052387F85C3021E03481FF1FCC80FF1F5481FF1F7481FF1F7484FF1F4C82FF1FD08AFF1FE1
:404A00005C82FF1F6885FF1F1482FF1F0C83FF1F97F85C30CA4AD35C184603F025F897F85C30013B87F85C3097F85C30002BEFD119E0052387F85B300BE097F85B30C14A9F
:404A4000D35C184603F010F897F85B30013B87F85B3097F85B30002BEFD1BB4B1B780133DAB2B94B1A70B94B1B78184602F0FCFF002387F85A300BE097F85A30B44AD35C23
:404A8000184602F0F1FF97F85A30013387F85A3097F85A300C2BEFD9002387F859300DE097F85930AB4A134493F82331184602F0DBFF97F85930013387F8593097F8593057
:404AC000072BEDD9A14B1B78184602F0CDFF002387F858300BE097F858309F4AD35C184602F0C2FF97F85830013387F8583097F858300C2BEFD9002387F857300DE097F8C1
:404B00005730944A134493F82D31184602F0ACFF97F85730013387F8573097F85730052BEDD98A4B1B78184602F09EFF002387F856300BE097F85630884AD35C184602F0AB
:404B400093FF97F85630013387F8563097F856300C2BEFD97F4B1B783133DBB2184602F083FF7A4B1B78184602F07EFF002387F855300BE097F85530794AD35C184602F094
:404B800073FF97F85530013387F8553097F855300C2BEFD96F4B93F82C31012B14D1002387F854300BE097F854306E4AD35C184602F05AFF97F85430013387F8543097F8E4
:404BC0005430082BEFD913E0002387F853300BE097F85330644AD35C184602F045FF97F85330013387F8533097F85330082BEFD9564B1B78184602F037FF002387F852307D
:404C00000BE097F85230594AD35C184602F02CFF97F85230013387F8523097F852300C2BEFD9534B1B78184602F01EFF202002F01BFF012387F8513017E0464B93F82C3157
:404C40005A1E97F85110434813465B0013445B0003440B4403F20B131B78184602F004FF97F85130013387F8513097F85130052BE3D9364B1B78184602F0F6FE002387F812
:404C800050300BE097F850303A4AD35C184602F0EBFE97F85030013387F8503097F850300C2BEFD9002387F84F3018E097F84F30C3F10803304A1278934202D12E2002F06C
:404CC000D3FE97F84F30234A134493F80331184602F0CAFE97F84F30013387F84F3097F84F30072BE2D9202002F0BEFE234B1B78184602F0B9FE154B1B78184602F0B4FE14
:404D0000002387F84E300BE097F84E301C4AD35C184602F0A9FE97F84E30013387F84E3097F84E300C2BEFD9114B1B78184602F09BFE202002F098FE002387F84D302FE0B7
:404D4000B88AFF1F6085FF1FCB8AFF1FCC80FF1F6C82FF1F6885FF1F7C82FF1F9C82FF1FAC82FF1F3482FF1F4082FF1FBC82FF1F3C84FF1FCC82FF1F828AFF1FD080FF1F46
:404D8000EC82FF1F97F84D30C44A134493F8FB30184602F069FE97F84D30013387F84D3097F84D30072BEDD9BD4B1B78184602F05BFEBA4B012283F83421B84B93F8353119
:404DC000FA799A4240F02882B44B93F86932012B2CD1002387F84C300BE097F84C30B14AD35C184602F040FE97F84C30013387F84C3097F84C301F2BEFD9A94B1B78184634
:404E000002F032FE002387F84B300BE097F84B30A54AD35C184602F027FE97F84B30013387F84B3097F84B301F2BEFD99C4B1B78184602F019FE002387F84A300BE097F8E0
:404E40004A309A4AD35C184602F00EFE97F84A30013387F84A3097F84A300C2BEFD98F4B93F86932012B14D1052387F849300BE097F849308E4AD35C184602F0F5FD97F80F
:404E80004930013B87F8493097F84930002BEFD119E0052387F848300BE097F84830854AD35C184602F0E0FD97F84830013B87F8483097F84830002BEFD17F4B1B78013360
:404EC000DAB27D4B1A70764B1B78184602F0CCFD002387F847300BE097F84730774AD35C184602F0C1FD97F84730013387F8473097F847300C2BEFD9002387F846300DE025
:404F000097F84630654A134493F85832184602F0ABFD97F84630013387F8463097F84630072BEDD95E4B1B78184602F09DFD002387F845300BE097F84530614AD35C1846CA
:404F400002F092FD97F84530013387F8453097F845300C2BEFD9002387F844300DE097F844304E4A134493F86232184602F07CFD97F84430013387F8443097F84430052B47
:404F8000EDD9474B1B78184602F06EFD002387F843300BE097F843304A4AD35C184602F063FD97F84330013387F8433097F843300C2BEFD9394B93F835313133DBB21846E9
:404FC00002F052FD364B1B78184602F04DFD002387F842300BE097F842303B4AD35C184602F042FD97F84230013387F8423097F842300C2BEFD9294B93F86132022B14D1B5
:40500000002387F841300BE097F841302F4AD35C184602F029FD97F84130013387F8413097F84130082BEFD913E0002387F840300BE097F84030264AD35C184602F014FD46
:4050400097F84030013387F8403097F84030082BEFD9134B1B78184602F006FD002387F83F300BE097F83F301A4AD35C184602F0FBFC97F83F30013387F83F3097F83F30DE
:405080000C2BEFD9144B1B78184602F0EDFC202002F0EAFC012387F83E3037E06885FF1FCC80FF1F1482FF1F7484FF1F0C83FF1FB88AFF1F6085FF1FCB8AFF1F6C82FF1FB8
:4050C0007C82FF1F9C82FF1FAC82FF1F3482FF1F4082FF1FBC82FF1F3C84FF1FC54B93F861325A1E97F83E10C24813465B0013445B0003440B4403F510731B78184602F037
:40510000B3FC97F83E30013387F83E3097F83E30052BE3D9B84B1B78184602F0A5FC002387F83D300BE097F83D30B44AD35C184602F09AFC97F83D30013387F83D3097F87E
:405140003D300C2BEFD9002387F83C3018E097F83C30C3F10803AA4A1278934202D12E2002F082FC97F83C30A24A134493F83832184602F079FC97F83C30013387F83C300D
:4051800097F83C30072BE2D9202002F06DFC9D4B1B78184602F068FC974B1B78184602F063FC002387F83B300BE097F83B30964AD35C184602F058FC97F83B30013387F8C7
:4051C0003B3097F83B300C2BEFD9904B1B78184602F04AFC202002F047FC002387F83A300DE097F83A30834A134493F83032184602F03AFC97F83A30013387F83A3097F8A4
:405200003A30072BEDD97C4B1B78184602F02CFC784B012283F86922764B93F86A32FA799A4240F00D82734B93F89E33012B2CD1002387F839300BE097F83930744AD35C3A
:40524000184602F011FC97F83930013387F8393097F839301F2BEFD9674B1B78184602F003FC002387F838300BE097F83830694AD35C184602F0F8FB97F83830013387F864
:40528000383097F838301F2BEFD95B4B1B78184602F0EAFB002387F837300BE097F837305D4AD35C184602F0DFFB97F83730013387F8373097F837300C2BEFD94D4B93F8FD
:4052C0009E33012B14D1052387F836300BE097F83630524AD35C184602F0C6FB97F83630013B87F8363097F83630002BEFD119E0052387F835300BE097F83530484AD35C68
:40530000184602F0B1FB97F83530013B87F8353097F83530002BEFD1424B1B780133DAB2404B1A70344B1B78184602F09DFB002387F834300BE097F834303B4AD35C184699
:4053400002F092FB97F83430013387F8343097F834300C2BEFD9002387F833300DE097F83330244A134493F88D33184602F07CFB97F83330013387F8333097F83330072BCB
:40538000EDD91D4B1B78184602F06EFB002387F832300BE097F83230244AD35C184602F063FB97F83230013387F8323097F832300C2BEFD9002387F831300DE097F8313072
:4053C0000C4A134493F89733184602F04DFB97F83130013387F8313097F83130052BEDD9054B1B78184602F03FFB002387F830302AE000BF6885FF1FCC80FF1FCC82FF1F10
:40540000828AFF1FD080FF1FEC82FF1F3C84FF1F1482FF1F7484FF1F0C83FF1FB88AFF1F6085FF1FCB8AFF1F6C82FF1F7C82FF1F97F83030CA4AD35C184602F015FB97F8D4
:405440003030013387F8303097F830300C2BEFD9C44B93F86A323133DBB2184602F004FBC14B1B78184602F0FFFA002387F82F300BE097F82F30BD4AD35C184602F0F4FA1F
:4054800097F82F30013387F82F3097F82F300C2BEFD9002387F82E300BE097F82E30B44AD35C184602F0E0FA97F82E30013387F82E3097F82E30082BEFD9AB4B1B78184603
:4054C00002F0D2FA002387F82D300BE097F82D30A84AD35C184602F0C7FA97F82D30013387F82D3097F82D300C2BEFD9A24B1B78184602F0B9FA202002F0B6FA012387F8F7
:405500002C3017E0974B93F896335A1E97F82C10944813465B0013445B0003440B4403F275331B78184602F09FFA97F82C30013387F82C3097F82C30052BE3D98A4B1B7875
:40554000184602F091FA002387F82B300BE097F82B308A4AD35C184602F086FA97F82B30013387F82B3097F82B300C2BEFD9002387F82A3018E097F82A30C3F10803804A64
:405580001278934202D12E2002F06EFA97F82A30744A134493F86D33184602F065FA97F82A30013387F82A3097F82A30072BE2D9202002F059FA734B1B78184602F054FAF9
:4055C000694B1B78184602F04FFA002387F829300BE097F829306C4AD35C184602F044FA97F82930013387F8293097F829300C2BEFD9614B1B78184602F036FA202002F0BE
:4056000033FA002387F828300DE097F82830554A134493F86533184602F026FA97F82830013387F8283097F82830072BEDD94E4B1B78184602F018FA4A4B012283F89E2393
:40564000484B93F89F33FA799A4240F0DE81454B93F8D334012B2CD1002387F827300BE097F82730494AD35C184602F0FDF997F82730013387F8273097F827301F2BEFD957
:40568000394B1B78184602F0EFF9002387F826300BE097F826303E4AD35C184602F0E4F997F82630013387F8263097F826301F2BEFD92D4B1B78184602F0D6F9002387F83E
:4056C00025300BE097F82530324AD35C184602F0CBF997F82530013387F8253097F825300C2BEFD91F4B93F8D334012B14D1052387F824300BE097F82430274AD35C184624
:4057000002F0B2F997F82430013B87F8243097F82430002BEFD119E0052387F823300BE097F823301D4AD35C184602F09DF997F82330013B87F8233097F82330002BEFD113
:40574000174B1B780133DAB2154B1A70064B1B78184602F089F9002387F822302EE000BF9C82FF1F6885FF1FCC80FF1FAC82FF1F3482FF1FBC82FF1F3C84FF1FCC82FF1F9C
:40578000828AFF1FD080FF1FEC82FF1F1482FF1F7484FF1F0C83FF1FB88AFF1F6085FF1FCB8AFF1F97F82230BA4AD35C184602F05BF997F82230013387F8223097F82230F9
:4057C0000C2BEFD9002387F821300DE097F82130B14A134493F8C234184602F045F997F82130013387F8213097F82130072BEDD9AA4B1B78184602F037F9002387F82030D3
:405800000BE097F82030A64AD35C184602F02CF997F82030013387F8203097F820300C2BEFD90023FB770AE0FB7F9B4A134493F8CC34184602F018F9FB7F0133FB77FB7F8F
:40584000052BF1D9954B1B78184602F00DF90023BB7708E0BB7F934AD35C184602F004F9BB7F0133BB77BB7F0C2BF3D98A4B93F89F333133DBB2184602F0F6F8874B1B78F2
:40588000184602F0F1F800237B7708E07B7F864AD35C184602F0E8F87B7F01337B777B7F0C2BF3D900233B7708E03B7F7F4AD35C184602F0D9F83B7F01333B773B7F082B4F
:4058C000F3D9764B1B78184602F0CEF80023FB7608E0FB7E764AD35C184602F0C5F8FB7E0133FB76FB7E0C2BF3D9724B1B78184602F0BAF8202002F0B7F80123BB7614E06B
:40590000654B93F8CB345A1EB97E634813465B0013445B0003440B4403F2AA431B78184602F0A2F8BB7E0133BB76BB7E052BE7D95A4B1B78184602F097F800237B7608E09E
:405940007B7E5D4AD35C184602F08EF87B7E01337B767B7E0C2BF3D900233B7614E03B7EC3F10803554A1278934202D12E2002F07BF83B7E484A134493F8A234184602F051
:4059800073F83B7E01333B763B7E072BE7D9202002F06AF84A4B1B78184602F065F83F4B1B78184602F060F80023FB7508E0FB7D444AD35C184602F057F8FB7D0133FB759A
:4059C000FB7D0C2BF3D93B4B1B78184602F04CF8202002F049F80023BB750AE0BB7D2E4A134493F89A34184602F03EF8BB7D0133BB75BB7D072BF1D9284B1B78184602F0C3
:405A000033F8254B012283F8D32400237B7508E07B7D2D4AD35C184602F026F87B7D01337B757B7D1F2BF3D91C4B1B78184602F01BF800233B7508E03B7D244AD35C18463A
:405A400002F012F83B7D01333B753B7D1F2BF3D9124B1B78184602F007F8104B1B78184602F002F80023FB7408E0FB7C184AD35C184601F0F9FFFB7C0133FB74FB7C1F2BA5
:405A8000F3D9064B1B78184601F0EEFF0023BB7429E000BF6C82FF1F6885FF1FCC80FF1F7C82FF1F9C82FF1FAC82FF1F4082FF1FBC82FF1F3C84FF1FCC82FF1F828AFF1F0B
:405AC000D080FF1FEC82FF1F7484FF1FD481FF1FF481FF1FBB7C2F4AD35C184601F0C4FFBB7C0133BB74BB7C1F2BF3D92A4B1B78184601F0B9FF00237B7408E07B7C274A47
:405B0000D35C184601F0B0FF7B7C01337B747B7C1F2BF3D9204B1B78184601F0A5FF00233B7408E03B7C1E4AD35C184601F09CFF3B7C01333B743B7C1F2BF3D9164B1B78D3
:405B4000184601F091FF144B1B78184601F08CFF114B1B78184601F087FF0F4B1B78184601F082FF0C4B1B78184601F07DFF0023FB7308E0FB7BFA7B0A49895C0A4AD1542F
:405B8000FB7B0133FB73FB7B052BF3D900BF7437BD4690BD7484FF1FCC80FF1F9481FF1FB481FF1F6085FF1FB88AFF1F90B59FB000AF002387F877301BE0002387F875306A
:405BC0000BE097F87530C94AD35C184601F026FD97F87530013387F8753097F87530052BEFD9052001F066FB01F0D0FC034687F8773097F87730002BDFD097F877300C2BFA
:405C000054D9002387F874300CE097F8744001F075FC03461A46B64B1A5597F87430013387F8743097F8742097F877309A42ECD3002387F8773039E0002387F873300BE037
:405C400097F87330A94AD35C184601F0E7FC97F87330013387F8733097F87330052BEFD9042001F027FB01F091FC034687F8773097F877300C2B19D9002387F872300CE039
:405C800097F8724001F03AFC03461A46984B1A5597F87230013387F8723097F8722097F877309A42ECD3002387F87730904B1B7A002BC1D08F4B1B780133DAB28D4B1A7005
:405CC0008C4B1B788C4A82FB03121213DB17D31ADBB23033DAB2894B5A71864B1B781A46854B83FB02131913D317CB1A42F2107101FB03F3D31A824A82FB03129211DB170A
:405D0000D31ADBB23033DAB27C4B1A71794B1B781A46794B83FB02131913D317CB1A42F2107101FB03F3D31A754A82FB03129111DA178A1A4FF47A7101FB02F29A1A714BF5
:405D400083FB02135911D317CB1ADBB23033DAB26A4BDA70674B1B78674A82FB03121113DA178A1A42F2107101FB02F29A1A644B83FB02139911D317CB1A4FF47A7101FB5D
:405D800003F3D31A5F4A82FB03125111DA178A1A642101FB02F29A1A5B4B83FB02139910D317CB1ADBB23033DAB2544B9A70514B1B78514A82FB03121113DA178A1A42F286
:405DC000107101FB02F29A1A4D4B83FB02139911D317CB1A4FF47A7101FB03F3D31A494A82FB03125111DA178A1A642101FB02F29A1A454B83FB02139910D317C91A0B469E
:405E00009B000B445B00D11ACBB23033DAB23B4B5A70072387F8713010E097F87130063B364AD35C97F8712092B21146184601F01DFD97F87130013387F8713097F8713044
:405E40000C2BEAD9314B1B78184601F00DFE002387F870300BE097F870302D4AD35C184601F002FE97F87030013387F8703097F870301F2BEFD9254B1B78184601F0F4FD68
:405E8000002387F86F300BE097F86F30214AD35C184601F0E9FD97F86F30013387F86F3097F86F301F2BEFD9184B1B78184601F0DBFD002387F86E300BE097F86E30164A24
:405EC000D35C184601F0D0FD97F86E30013387F86E3097F86E301F2BEFD90C4B1B78184601F0C2FD002387F86D3023E09484FF1FD08AFF1FC68AFF1FAD8BDB68C08AFF1F61
:405F0000D34D62101F85EB5167666666CC80FF1FD480FF1FF480FF1F1481FF1F97F86D30C44AD35C184601F09FFD97F86D30013387F86D3097F86D301F2BEFD9BE4B1B788B
:405F4000184601F091FD002387F86C300BE097F86C30BA4AD35C184601F086FD97F86C30013387F86C3097F86C301F2BEFD9B24B1B78184601F078FD002387F86B300BE0B8
:405F800097F86B30AE4AD35C184601F06DFD97F86B30013387F86B3097F86B300C2BEFD9A84B9B791B09DBB23033DBB2184601F05BFDA44B9B7903F00F03DBB23033DBB262
:405FC000184601F051FD2F2001F04EFD9D4BDB791B09DBB23033DBB2184601F045FD994BDB7903F00F03DBB23033DBB2184601F03BFD2F2001F038FD924B1B7A1B09DBB232
:406000003033DBB2184601F02FFD8E4B1B7A03F00F03DBB23033DBB2184601F025FD864B1B78184601F020FD002387F86A300BE097F86A30844AD35C184601F015FD97F887
:406040006A30013387F86A3097F86A300C2BEFD97C4B9B7A1B09DBB23033DBB2184601F003FD784B9B7A03F00F03DBB23033DBB2184601F0F9FC3A2001F0F6FC714BDB7A59
:406080001B09DBB23033DBB2184601F0EDFC6D4BDB7A03F00F03DBB23033DBB2184601F0E3FC3A2001F0E0FC664B1B7B1B09DBB23033DBB2184601F0D7FC624B1B7B03F0E3
:4060C0000F03DBB23033DBB2184601F0CDFC5A4B1B78184601F0C8FC002387F869300BE097F86930554AD35C184601F0BDFC97F86930013387F8693097F869301F2BEFD9DC
:406100004D4B1B78184601F0AFFC002387F868300BE097F868304D4AD35C184601F0A4FC97F86830013387F8683097F868300C2BEFD9052387F867300BE097F86730444AC4
:40614000D35C184601F090FC97F86730013B87F8673097F86730002BEFD1374B1B78184601F082FC344B1B78184601F07DFC002387F866300BE097F86630364AD35C18467B
:4061800001F072FC97F86630013387F8663097F866300C2BEFD9304B1B783133DBB2184601F062FC244B1B78184601F05DFC002387F865300BE097F86530284AD35C184653
:4061C00001F052FC97F86530013387F8653097F865300F2BEFD9184B1B78184601F044FC002387F8643018E097F86430C3F10A031B4A1278934202D12E2001F035FC97F8A1
:406200006430154A134493F88330184601F02CFC97F86430013387F8643097F86430092BE2D9054B1B78184601F01EFC002387F8633028E03481FF1FCC80FF1F7484FF1F07
:406240004C82FF1FD08AFF1F5C82FF1FFC82FF1FC08AFF1F9C82FF1F6885FF1F4084FF1F828AFF1F97F8633087F8763097F86330C94A134493F88330002B09D197F863302F
:40628000013387F8633097F86330092BEAD900E000BF002387F862300BE097F86230BF4AD35C184601F0E0FB97F86230013387F8623097F862300F2BEFD9B94B1B781846C0
:4062C00001F0D2FB002387F8613015E097F8614097F861309BB224339BB2184601F050FB03461A4607F17803234403F8682C97F86130013387F8613097F86130092BE5D955
:40630000002387F8603019E097F86030C3F10A03A44A1278934202D12E2001F0A5FB97F8603007F17802134413F8683C184601F09BFB97F86030013387F8603097F8603056
:40634000092BE1D9964B1B78184601F08DFB97F8763087F85F302DE097F85F2097F87630D31A97F85F208C490A4492F8832007F178010B4403F85C2C97F85F2097F8763080
:40638000D31A97F85F2007F178010A4412F8682C07F178010B4403F8502C97F85F3007F178021344002203F8742C97F85F30013387F85F3097F85F30092BCDD907F128032F
:4063C000184602F093F90346FB6307F11C03184602F08CF90346BB63BA6BFB6BD31A7B637B6B391D0A22184602F0C7F9002387F85E300BE097F85E306B4AD35C184601F08E
:4064000033FB97F85E30013387F85E3097F85E30112BEFD9624B1B78184601F025FB002387F85D3019E097F85D30C3F10A035D4A1278934202D12E2001F016FB97F85D30B6
:4064400007F17802134413F8743C184601F00CFB97F85D30013387F85D3097F85D30092BE1D94F4B1B78184601F0FEFA002387F85C300BE097F85C304C4AD35C184601F020
:40648000F3FA97F85C30013387F85C3097F85C301F2BEFD9424B1B78184601F0E5FA002387F85B300BE097F85B30414AD35C184601F0DAFA97F85B30013387F85B3097F824
:4064C0005B300C2BEFD9344B93F835313133DBB2184601F0C9FA324B1B78184601F0C4FA002387F85A300BE097F85A30314AD35C184601F0B9FA97F85A30013387F85A3050
:4065000097F85A300F2BEFD9254B1B78184601F0ABFA002387F8593018E097F85930C3F10A03204A1278934202D12E2001F09CFA97F85930184A134493F8B831184601F048
:4065400093FA97F85930013387F8593097F85930092BE2D9124B1B78184601F085FA002387F858300BE097F858300C4AD35C184601F07AFA97F85830013387F8583097F820
:4065800058300F2BEFD9064B1B78184601F06CFA002387F8573025E06885FF1F5084FF1FCC80FF1F828AFF1F6084FF1F7484FF1F9C82FF1F4084FF1F97F8574097F8573087
:4065C0009BB22E339BB2184601F0DAF903461A4607F17803234403F8682C97F85730013387F8573097F85730092BE5D9002387F8563019E097F85630C3F10A03D24A127877
:40660000934202D12E2001F02FFA97F8563007F17802134413F8683C184601F025FA97F85630013387F8563097F85630092BE1D9C64B1B78184601F017FA97F8763087F846
:4066400055302DE097F8552097F87630D31A97F85520BF490A4492F8B82107F178010B4403F85C2C97F8552097F87630D31A97F8552007F178010A4412F8682C07F178016A
:406680000B4403F8502C97F8553007F178021344002203F8742C97F85530013387F8553097F85530092BCDD907F12803184602F01DF80346FB6307F11C03184602F016F89C
:4066C0000346BB63BA6BFB6BD31A7B637B6B391D0A22184602F051F8002387F854300BE097F854309B4AD35C184601F0BDF997F85430013387F8543097F85430112BEFD93E
:40670000924B1B78184601F0AFF9002387F8533019E097F85330C3F10A038B4A1278934202D12E2001F0A0F997F8533007F17802134413F8743C184601F096F997F853309C
:40674000013387F8533097F85330092BE1D97F4B1B78184601F088F97F4B1B78013B022B40F31781002387F852300BE097F852307A4AD35C184601F077F997F8523001330E
:4067800087F8523097F852301F2BEFD96F4B1B78184601F069F9002387F851300BE097F851306F4AD35C184601F05EF997F85130013387F8513097F851300C2BEFD9644B09
:4067C00093F86A323133DBB2184601F04DF95F4B1B78184601F048F9002387F8503018E097F85030C3F10A03574A1278934202D12E2001F039F997F85030554A134493F861
:40680000ED32184601F030F997F85030013387F8503097F85030092BE2D94C4B1B78184601F022F9002387F84F300BE097F84F304C4AD35C184601F017F997F84F3001336D
:4068400087F84F3097F84F300F2BEFD93F4B1B78184601F009F9002387F84E300BE097F84E303E4AD35C184601F0FEF897F84E30013387F84E3097F84E301F2BEFD9334BAD
:406880001B78184601F0F0F8002387F84D300BE097F84D30324AD35C184601F0E5F897F84D30013387F84D3097F84D300C2BEFD9274B93F89F333133DBB2184601F0D4F8FF
:4068C000224B1B78184601F0CFF8002387F84C3018E097F84C30C3F10A031B4A1278934202D12E2001F0C0F897F84C30184A134493F82234184601F0B7F897F84C30013330
:4069000087F84C3097F84C30092BE2D90F4B1B78184601F0A9F8002387F84B300BE097F84B30104AD35C184601F09EF897F84B30013387F84B3097F84B300F2BEFD900239E
:4069400087F84A301CE000BF828AFF1FCC80FF1F6885FF1F6084FF1FCA8AFF1F7484FF1F9C82FF1F5084FF1F97F84A30724AD35C184601F079F897F84A30013387F84A3022
:4069800097F84A30172BEFD96C4B1B78184601F06BF8002387F849300BE097F84930664AD35C184601F060F897F84930013387F8493097F849301F2BEFD9604B1B7818464A
:4069C00001F052F8002387F848300BE097F848305B4AD35C184601F047F897F84830013387F8483097F848301F2BEFD9534B1B78184601F039F8002387F847300BE097F85F
:406A00004730504AD35C184601F02EF897F84730013387F8473097F847301F2BEFD9474B1B78184601F020F8444B1B78184601F01BF8424B1B78184601F016F83F4B1B78AF
:406A4000184601F011F83D4B1B78184601F00CF8002387F8463013E097F846303A4A134493F8832097F846309BB224339BB21946104600F0FBFE97F84630013387F8463075
:406A800097F84630092BE7D9002387F8453013E097F845302C4A134493F8B82197F845309BB22E339BB21946104600F0DFFE97F84530013387F8453097F84530092BE7D9F9
:406AC000002387F8443013E097F844301E4A134493F8ED2297F844309BB238339BB21946104600F0C3FE97F84430013387F8443097F84430092BE7D9002387F8433013E09A
:406B000097F84330104A134493F8222497F843309BB242339BB21946104600F0A7FE97F84330013387F8433097F84330092BE7D900BF7C37BD4690BD7484FF1FCC80FF1F16
:406B40009481FF1FB481FF1F6885FF1F80B584B000AFF860B9607A607A68B968F86801F00EFE00BF1037BD4680BD00BF80B483B000AF0346FB71FEE780B483B000AF434B68
:406B800000221A60424B10221A70424B01221A70414B00221A70414B4FF438721A80404B01221A703F4B03221A703F4B3F4A92B21A803F4B47F608021A803E4B00221A8059
:406BC0003D4B4FF480421A803C4B09221A703C4B0A221A703B4B0F221A703B4B18221A70BFF35F8F394B01221A70BFF35F8F00BF2A4B1B889BB2002BFAD100237B600DE0F4
:406C00007B68DA00324B13441946324A7B6852F823309BB20B807B6801337B607B685B2BEED9BFF35F8F294B01221A70BFF35F8F00BF294B1B78DBB203F00103002BF8D1CF
:406C400000BF264B1B78DBB203F00103002BF8D100BF234B1B78DBB203F00103002BF8D100BF204B1B78DBB203F00103002BF8D100BF1D4B1B78DBB203F00103002BF8D13A
:406C800000BF0C37BD4680BC704700BF3885FF1F007600401070004019700040007800400278004003780040047800405000000006780040047600400676004029700040BD
:406CC000397000406970004079700040147000400C78004044890000187000402870004038700040687000407870004080B582B000AF454B19221A80444B18221A70444BEF
:406D000019221A80434B18221A70434B4FF49C721A80424B18221A70414B4FF49C721A80404B18221A70404B4FF49C721A803F4B18221A703E4B40F209221A803D4B182296
:406D40001A703D4B47F22F521A803C4B19221A703B4B02221A704FF0402308221A70394B03221A70384B394A1278D2B21A70384B08221A80374B41F251221A800023FB706F
:406D800019237B6014E0FB785B00DAB2324B1B78DBB203F00103DBB21343DBB203F00303FB704FF4F07001F0CFF97B68013B7B607B68002B02D0FB78032BE4D17B68002B6C
:406DC00002D10320FFF7D2FE244B4FF480721A80224B07221A70224B00221A70214B48221A701E4B00221A701F4B02221A701F4A1E4B1B78DBB243F07F03DBB2137000BF5D
:406E00000837BD4680BD00BF80400040824000408440004086400040884000408A4000408C4000408E40004090400040924000409440004096400040984000409A4000405E
:406E40000043004000420040A14600400801004922420040204200402542004004400040064000400840004001400040A243004080B483B000AF0B4B1B78FB710A4AFB793C
:406E800003F00703DBB21370084AFB791B09DBB21370074B44221A7000BF0C37BD4680BC704700BFCF0100496E5800406F5800407658004080B500AF72B6324A314B1B7807
:406EC000DBB243F00403DBB21370FFF755FE2E4A2D4B1B78DBB243F00203DBB213702B4A2A4B1B78DBB243F00203DBB21370284A274B1B78DBB243F04003DBB21370254ACF
:406F0000244B1B78DBB243F01003DBB213700A2221492248FFF71AFE0A2221492148FFF715FE0A2220492148FFF710FE0A2220492048FFF70BFE0A221F492048FFF706FE62
:406F40000A221F491F48FFF701FE1F4A1E4B1B78DBB243F00803DBB213701C4B60221A70FFF7C4FE194B80221A70194B01221A70FFF77EFF0E2206491648FFF7E7FD00BF2C
:406F800080BD00BFE84600400350014013500140A0430040C2430040A421004800510040B0210048C0510040BC210048F0510040C821004810510040D42100482051004059
:406FC000E021004830510040224300400048004004000840B043004080B500AF01F08AFB03461B680C2B00D1FEE7FEE780B586B000AF224B7B61224B3B61204B7B6135E01B
:407000003B691B68FB603B695B68BB603B699B683B6000237B600CE0FB681A68BB681A60BB680433BB60FB680433FB607B6804337B607A683B689A42EED13B69DB683B609D
:4070400000237B6008E0BB6800221A60BB680433BB607B6804337B607A683B689A42F2D13B6910333B617B69013B7B617B69002BC6D101F045FBF9F7C1FAFEE701000000F6
:40708000008C000080B582B000AF184B184A1A60184A184B1B6843F40073136000237B600FE07B68032B04D8134A7B6852F8233000E0124B12497A6841F822307B680133B7
:4070C0007B607B682F2BECD90E4B1B78DAB20E4B1A700E4B0A4A1A60FFF7ECFE0C4B00221A6000BF0837BD4680BD00BF0CED00E00004FA0514ED00E000000000D96F00005C
:407100000080FF1FBC760040C480FF1F08ED00E0C080FF1F80B500AF064B1B78002B04D100F00AF8034B01221A7000F063F800BF80BD00BF3C85FF1F80B582B000AF284A88
:40714000274B1B78DBB243F00203DBB21370254B1B78DBB223F07003FB71224AFB7943F03003DBB21370204A1F4B1B78DBB223F03003DBB213701C4A1B4B1B78DBB243F0F4
:407180003003DBB21370184A174B1B78DBB223F00F03DBB21370144A134B1B78DBB243F00F03DBB21370642000F048F8322000F055F8002000F062F80C4A0C4B1B78DBB2C8
:4071C00043F00103DBB21370094A094B1B78DBB243F00103DBB2137000BF0837BD4680BD004F0040024F00400B4F0040A3430040014F004080B400AF0D4A0D4B1B78DBB2DA
:4072000043F00103DBB213700A4A0A4B1B78DBB243F00103DBB21370074A074B1B78DBB243F00103DBB2137000BFBD4680BC7047A3430040B3430040004F004080B483B0E6
