:400000000080002011000000ED6E0000ED6E000080B500AF024A034B1B68136006F070FFBC760040FA46004001000000002000400100000000200140010000000048004042
:400040000100000000480140010000000100000008000223000008760800032300001076080004230000287608000523000030760500062300002070050007230000307065
:4000800005000823000060700500FE23000070703000FE220000405180000B220000000200010C220000004480000D220000004780000E22000000488000FE220000004D5C
:4000C0000700102300000052070011230000085207001223000010520700132300001852060014230000605207001523000078520C0016230000004F2000172300007064E0
:400100002000FE2300007065080019230000005180001A230000000080001B230000800080001C230000800280001D230000000480001E230000800480001F230000000607
:40014000800020230000800680002123000000088000222300008008800023230000000A800024230000800A800025230000000C800026230000800C800027230000000EFB
:40018000800028230000800E800029230000001480002A230000801480002B230000001680002C230000801680002D230000001880002E230000801880002F230000001A1F
:4001C000800030230000801A10003123000010501000322300000050800033230000804D800034230000004C800035230000804C80003623000080478000372300000046EF
:400200008000382300008046800039230000004580003A230000804580003B230000001B80003C230000801B80003D230000001580003E230000801580003F230000001981
:400240008000402300008019800041230000001780004223000080178000432300000009800044230000800980004523000000078000462300008007800047230000000BD8
:40028000800048230000800B800049230000000580004A230000800580004B230000000D80004C230000800D80004D230000000380004E230000800380004F230000000F86
:4002C000800050230000800F800051230000000180005223000080018000532300000049800054230000804980005523000080488000562300000043800057230000804359
:400300008000582300000042800059230000804280005A230000004180005B230000804180005C23000000408000FE230000804010B5054C237833B9044B13B10448AFF387
:4003400000800123237010BD4085FF1F0000000044880000084B10B51BB108490848AFF300800848036803B910BD074B002BFBD0BDE81040184700BF000000004485FF1F9D
:4003800044880000C880FF1F0000000080B500AF274B1B78FF2B07D0254B93F83531FF2B02D1244B01221A70214B1B78FF2B07D01F4B93F83531FF2B02D01E4B02221A7039
:4003C0001C4B1B78022B31D1194B93F82B31062B08D1174B1B78184603F00CFD144B002283F83421124B93F86032062B09D1104B93F83531184603F0FDFC0D4B002283F8CF
:4004000069220B4B1B78184603F062FD03461A46074B83F84C20064B93F83531184603F057FD03461A46024B83F8812100BF80BD9085FF1FF28AFF1F90B597B000AFC84AA6
:4004400007F11C0310681860C64A07F11403106818609188927999809A71C34A07F10C03106818609188927999809A71BF4B03221A7040F6C41006F0A7FE06F0D5FD62B694
:4004800007F02AFB07F0F2FC07F022FA06F03CFF07F070F9B64B002283F83421B44B002283F86922002007F0F5F903465A2B19D1002387F8573010E097F8574097F857306B
:4004C0009BB2184607F0E6F903461A46A94B1A5597F85730013387F8573097F85730052BEAD915E000215A2007F04AF9012387F8573009E097F857309E4A3021D15497F836
:400500005730013387F8573097F85730052BF1D9984B5B7903F00F03DBB21B01DAB2954B1B7903F00F03DBB219469B00CB1ADB00DBB21344DAB28F4B9B7803F00F03DBB24A
:40054000194689000B445B00D9B28A4BDB7803F00F03DBB2184680000344184684001846234603449B00DBB20B44DBB21344DAB2804B5B7803F00F03DBB21344DAB27E4BCC
:400580001A70062007F086F903465A2B1CD1002387F8573013E097F857309C1D97F857309BB206339BB2184607F074F903461A46724B1A5597F85730013387F8573097F810
:4005C0005730052BE7D916E006215A2007F0D8F8012387F857300AE097F857300633674A3021D15497F85730013387F8573097F85730052BF0D9614B5B7903F00F03DBB22B
:400600001B01DAB25D4B1B7903F00F03DBB219469B00CB1ADB00DBB21344DAB2574B9B7803F00F03DBB2194689000B445B00D9B2524BDB7803F00F03DBB21846800003440F
:40064000184684001846234603449B00DBB20B44DBB21344DAB2494B5B7803F00F03DBB21344DAB2464B1A7017E0002387F853300FE097F8534097F85330184603F062FBBF
:4006800003461A463F4B1A5597F85330013387F8533097F853300F2BEBD9354B1B78FF2BE3D0384B5A78324B1A70364B9A78304B83F83521344B00221A70002387F85630C2
:4006C000324B00221A70324B02221A70FFF75EFE06F0E6FE034687F8233097F82330042B16D9002387F852300CE097F8524006F08FFE03461A46274B1A5597F852300133DC
:4007000087F8523097F8522097F823309A42ECD3042006F059FD1F4B1B7A1C2B66D01C2B13DC0A2B00F090800A2B04DC012B3CD0022B3FD0AEE30C2B00F0B9810C2BC0F27F
:4007400022810D2B00F04D82A4E3AA2B37D0AA2B22DC4E2B00F07483532B00F04C8399E3488800004C88000054880000AA8AFF1F9085FF1F8885FF1FF38AFF1FE88AFF1F35
:40078000EE8AFF1F688AFF1FEF8AFF1FF08AFF1FF28AFF1F088BFF1FCC2B00F0B682E12B00F06783CA2B38D074E3E12387F8563001F08FB8E22387F8563001F08AB801231E
:4007C00087F85630002387F8513009E097F85130BF4A0021D15497F85130013387F8513097F85130132BF1D901F073B86B2387F85630002387F8503009E097F85030B44A66
:400800000021D15497F85030013387F8503097F85030132BF1D901F05CB8032387F85630002387F84F3009E097F84F30A84A0021D15497F84F30013387F84F3097F84F304B
:40084000132BF1D901F045B897F85630012B19D1002387F856309F4B1B78184603F0CAFA002387F84E3009E097F84E30984A0021D15497F84E30013387F84E3097F84E3014
:40088000132BF1D997F85630022B26D10A2387F85630904B1B78184603F01AFB8D4B18788D4B1B780122194603F05EFC894B1B78184603F00DFB002387F84D3009E097F8F8
:4008C0004D30834A0021D15497F84D30013387F84D3097F84D30132BF1D997F856306B2B40F0E8871A2387F856307A4B1B78184603F0EEFA774B1878774B1B7801221946D2
:4009000003F032FC734B1B78184603F0E1FA002387F84C3009E097F84C306D4A0021D15497F84C30013387F84C3097F84C30132BF1D9002387F84B300BE097F84B30654AFC
:400940001344202283F8232197F84B30013387F84B3097F84B30072BEFD9002387F84A300BE097F84A305B4A1344202283F82D2197F84A30013387F84A3097F84A30052B5D
:40098000EFD900F097BF97F85630012B1AD1002387F856304F4B93F83531184603F02AFA002387F8493009E097F84930484A0021D15497F84930013387F8493097F84930B5
:4009C000132BF1D997F85630022B17D10B2387F85630404B93F83531184603F079FA3D4B93F835013C4B1B780122194603F0BCFB384B93F83531184603F06AFA97F8563085
:400A00006B2B40F059871B2387F85630314B93F83531184603F05CFA2E4B93F835012E4B1B780122194603F09FFB2A4B93F83531184603F04DFA002387F8483009E097F8D4
:400A40004830234A0021D15497F84830013387F8483097F84830132BF1D9002387F847300BE097F847301B4A1344202283F8582297F84730013387F8473097F84730072BA5
:400A8000EFD9002387F846300BE097F84630114A1344202283F8622297F84630013387F8463097F84630052BEFD900F005BF97F85630012B20D1002387F85630054B93F85F
:400AC0006A32184603F096F9002387F845300FE0088BFF1F9085FF1FEF8AFF1F97F84530D44A0021D15497F84530013387F8453097F84530132BF1D997F85630022B17D12F
:400B00000C2387F85630CC4B93F86A32184603F0DFF9C94B93F86A02C84B1B780122194603F022FBC44B93F86A32184603F0D0F997F856306B2B40F0C1861C2387F8563021
:400B4000BD4B93F86A32184603F0C2F9BA4B93F86A02BA4B1B780122194603F005FBB64B93F86A32184603F0B3F9002387F8443009E097F84430AF4A0021D15497F84430C8
:400B8000013387F8443097F84430132BF1D9002387F843300BE097F84330A74A1344202283F88D2397F84330013387F8433097F84330072BEFD9002387F842300BE097F89A
:400BC00042309D4A1344202283F8972397F84230013387F8423097F84230052BEFD900F06DBE97F85630012B1AD1002387F85630914B93F89F33184603F0FCF8002387F820
:400C0000413009E097F841308A4A0021D15497F84130013387F8413097F84130132BF1D997F85630022B17D10C2387F85630824B93F89F33184603F04BF97F4B93F89F0300
:400C40007E4B1B780122194603F08EFA7A4B93F89F33184603F03CF997F856306B2B40F02F861D2387F85630734B93F89F33184603F02EF9704B93F89F03704B1B780122B2
:400C8000194603F071FA6C4B93F89F33184603F01FF9002387F8403009E097F84030654A0021D15497F84030013387F8403097F84030132BF1D9002387F83F300BE097F857
:400CC0003F305D4A1344202283F8C22497F83F30013387F83F3097F83F30072BEFD9002387F83E300BE097F83E30534A1344202283F8CC2497F83E30013387F83E3097F886
:400D00003E30052BEFD900F0DBBD4B4B93F83531184603F0DDF8484B93F83501474B1B780122194603F020FA0A2006F04DFA424B93F83531184603F0CBF83F4B1B7818469C
:400D400003F0C6F83C4B18783C4B1B780122194603F00AFA0A2006F037FA374B1B78184603F0B6F8344B93F83531184603F0B0F8314B93F83501314B1B780222194603F088
:400D8000F3F90A2006F020FA2B4B93F83531184603F09EF8284B1B78184603F099F8264B1878264B1B780222194603F0DDF90A2006F00AFA204B1B78184603F089F81E4B29
:400DC00093F83531184603F083F8002387F83D3009E097F83D30174A0021D15497F83D30013387F83D3097F83D30132BF1D904F091FC00F06EBD97F85630AC2B08D10E4BC1
:400E0000012283F834210C4B1B78184603F032FA97F85630BC2B40F05585074B012283F86922054B93F83531184603F023FA00F049BD00BF088BFF1F9085FF1FEF8AFF1FF8
:400E400097F85630AC2B06D1002387F85630BD4B002283F8342197F85630BC2B40F03485002387F85630B74B002283F8692200F02BBD97F85630E12B02D1C12387F85630A1
:400E800097F85630E22B40F02185C22387F8563000F01CBDAC4BDB78832B40F0DB8097F854300A2B40F0D680A74B1B7AE12B00F0D180002387F83C300BE097F83C30A14A83
:400EC0001344302283F80B2197F83C30013387F83C3097F83C30052BEFD9002387F855309A4B00221A70002387F85430072387F83B3021E097F83B30934AD35C002B1FD082
:400F000097F83B30904AD35CFF2B19D097F83B30073B97F83B208C498A5C07F158010B4403F8542C97F85530013387F8553097F83B30013387F83B3097F83B300B2BD9D959
:400F4000062387F857301BE097F8573097F8552007F158010A4412F8541C7A4A13440A4683F80B2197F85530002B0ED097F85530013B87F8553097F85730013B87F8573039
:400F800097F85730002BDFD100E000BF6D4B93F80B31303B1B015AB26A4B93F80C31303BDBB25BB213435BB2DAB2664B83F82920644B93F80D31303B1B015AB2614B93F867
:400FC0000E31303BDBB25BB213435BB2DAB25D4B83F82A205B4B93F80F31303B1B015AB2584B93F81031303BDBB25BB213435BB2DAB2544B83F82B20002387F8573013E069
:4010000097F857304F4A134493F8292097F857309BB20C339BB21946104606F0B1FB97F85730013387F8573097F85730022BE7D9002387F83A3009E097F83A30424A0021A2
:40104000D15497F83A30013387F83A3097F83A30132BF1D93C4BDB78832B0AD197F85430012B06D1384B1A7A384B1A700A2387F85430354BDB78832B58D197F85630032B7A
:4010800054D1002387F856302F4BDA793B7F9A422CD12D4B1A7A7B7F9A4227D12A4B5A7ABB7F9A4222D1284B9A7AFB7F9A421DD1254BDB7AFF2B19D1002387F839300EE0BA
:4010C00097F8393007F15802134413F8443C184606F02EFA97F83930013387F8393097F83930052BECD9042006F06EF8164B1B7A012B02D1012387F85430134B1B7A022B8B
:4011000002D1022387F85430002387F8383009E097F838300C4A0021D15497F83830013387F8383097F83830132BF1D9064BDB78832B43D197F856301A2B3FD1072387F8A4
:40114000373022E09085FF1F088BFF1FF08AFF1F97F83730B54AD35C002B1AD097F83730B24AD35CFF2B14D097F83730073B97F83720AE49895CAE4A13440A4683F82D21C0
:4011800097F83730013387F8373097F837300E2BDED9002387F8363009E097F83630A34A0021D15497F83630013387F8363097F83630132BF1D90A2387F856309B4BDB78AA
:4011C000832B7BD197F85630C12B77D1072387F835301EE097F83530944AD35C002B1CD097F83530914AD35CFF2B16D097F83530073B97F835208D498A5C303AD1B28C4AE1
:4012000013440A4683F80B2197F83530013387F8353097F835300A2BDCD9002387F8343009E097F83430814A0021D15497F83430013387F8343097F83430132BF1D97C4BB7
:4012400093F80B31303B1B015AB2794B93F80C31303BDBB25BB213435BB2DAB2744B83F82920734B93F80D31303B1B015AB2704B93F80E31303BDBB25BB213435BB2DAB27E
:401280006B4B83F82A206A4B93F80F31303B1B015AB2674B93F81031303BDBB25BB213435BB2DAB2624B83F82B20614B1B786149184602F0CFFE002387F856305B4BDB7894
:4012C000832B7CD197F85630C22B78D1072387F833301EE097F83330544AD35C002B1CD097F83330514AD35CFF2B16D097F83330073B97F833204D498A5C303AD1B24C4AE7
:4013000013440A4683F8402297F83330013387F8333097F833300A2BDCD9002387F8323009E097F83230414A0021D15497F83230013387F8323097F83230132BF1D93C4B10
:4013400093F84032303B1B015AB2394B93F84132303BDBB25BB213435BB2DAB2344B83F85E21334B93F84232303B1B015AB2304B93F84332303BDBB25BB213435BB2DAB26F
:401380002B4B83F85F212A4B93F84432303B1B015AB2274B93F84532303BDBB25BB213435BB2DAB2224B83F86021214B93F835312149184602F04EFE002387F856301B4BF1
:4013C000DB78832B6DD197F856300A2B69D1002387F85630072387F8313040E097F83130124AD35C002B3ED097F831300F4AD35CFF2B38D097F831300C4AD35C602B1DD984
:4014000097F83130094AD35C7A2B17D897F83130073B97F8312005498A5C203AD1B2044A13440A4683F8232114E000BF088BFF1F9085FF1FB985FF1FEE86FF1F97F831305A
:40144000073B97F83120B549895CB54A13440A4683F8232197F83130013387F8313097F831300E2BBAD9002387F8303009E097F83030AA4A0021D15497F83030013387F88C
:40148000303097F83030132BF1D9A54B1B78184602F0F0FEA24B012283F83421AC2387F856309E4BDB78832B3DD197F856301B2B39D1072387F82F301CE097F82F30974A30
:4014C000D35C002B1AD097F82F30944AD35CFF2B14D097F82F30073B97F82F208F49895C8F4A13440A4683F8622297F82F30013387F82F3097F82F300E2BDED9002387F8D5
:401500002E3009E097F82E30844A0021D15497F82E30013387F82E3097F82E30132BF1D90B2387F856307D4BDB78832B65D197F856300B2B61D1002387F85630072387F8F0
:401540002D3037E097F82D30744AD35C002B35D097F82D30714AD35CFF2B2FD097F82D306E4AD35C602B14D997F82D306B4AD35C7A2B0ED897F82D30073B97F82D2067498F
:401580008A5C203AD1B2664A13440A4683F858220BE097F82D30073B97F82D205F49895C5F4A13440A4683F8582297F82D30013387F82D3097F82D300E2BC3D9002387F8F6
:4015C0002C3009E097F82C30544A0021D15497F82C30013387F82C3097F82C30132BF1D94F4B93F83531184602F044FE4C4B012283F86922BC2387F85630484BDB78832B95
:401600003DD197F856301C2B39D1072387F82B301CE097F82B30414AD35C002B1AD097F82B303E4AD35CFF2B14D097F82B30073B97F82B203949895C394A13440A4683F8BC
:40164000972397F82B30013387F82B3097F82B300E2BDED9002387F82A3009E097F82A302E4A0021D15497F82A30013387F82A3097F82A30132BF1D90C2387F85630274BC5
:40168000DB78832B69D197F856300C2B65D1002387F85630072387F8293037E097F829301E4AD35C002B35D097F829301B4AD35CFF2B2FD097F82930184AD35C602B14D9E7
:4016C00097F82930154AD35C7A2B0ED897F82930073B97F8292011498A5C203AD1B2104A13440A4683F88D230BE097F82930073B97F829200949895C094A13440A4683F805
:401700008D2397F82930013387F8293097F829300E2BC3D9002387F828300DE0088BFF1F9085FF1F97F828306C4A0021D15497F82830013387F8283097F82830132BF1D9B9
:40174000674B93F86A32184602F094FD644B012283F89E23CC2387F85630604BDB78832B3DD197F856301D2B39D1072387F827301CE097F82730594AD35C002B1AD097F834
:401780002730564AD35CFF2B14D097F82730073B97F827205149895C514A13440A4683F8CC2497F82730013387F8273097F827300E2BDED9002387F8263009E097F826303F
:4017C000464A0021D15497F82630013387F8263097F82630132BF1D90D2387F856303F4BDB78832B74D197F856300D2B70D1002387F85630072387F8253037E097F8253084
:40180000364AD35C002B35D097F82530334AD35CFF2B2FD097F82530304AD35C602B14D997F825302D4AD35C7A2B0ED897F82530073B97F8252029498A5C203AD1B2284A55
:4018400013440A4683F8C2240BE097F82530073B97F825202149895C214A13440A4683F8C22497F82530013387F8253097F825300E2BC3D9002387F8243009E097F8243052
:40188000164A0021D15497F82430013387F8243097F82430132BF1D9114B93F89F33184602F0E8FC0E4B012283F8D324DC2387F856300DE000BF0CE000BF0AE000BF08E0E6
:4018C00000BF06E000BF04E000BF02E000BF00E000BF002387F82330FEF7F8BE088BFF1F9085FF1F80B489B000AF78600B467B800023FB830023BB617B68002B2FD10023CC
:4019000068E0FB8BDB0B9BB2BB60FB8B5B00FB837B681B781A46BB6942FA03F31BB203F001031AB2B7F91E3013431BB2FB83BB690133BB61BB69072B07DD0023BB617B6801
:4019400001337B607B88013B7B80BB68002B06D0FB8B83F4FF4383F07A03DB43FB837B88002BCED100237B6113E0FB8BDB0B9BB2BB60FB8B5B00FB83BB68002B06D0FB8B93
:4019800083F4FF4383F07A03DB43FB837B6901337B617B690F2BE8DD00237B824FF400437B610123FB6011E0FA8B7B691340002B06D0FB681AB2B7F9123013431BB27B821B
:4019C0007B695B107B61FB685B00FB607B69002BEAD17B8A18462437BD4680BC704700BFF0B589B000AF184B1B78FB71164B5B7803F00F03BB71154B1B78BA799A4240F0E0
:401A00005184124B002283F82B210123FB770CE0FB7F013BFA7F0C49895C0C4A13440A4683F85120FB7F0133FB77FA7FFB7901339A42EDDB054B93F85330652B40F07F82B3
:401A40000523BB7725E000BF788AFF1F9085FF1FCD4B93F8553003F00F03591ECB4B1B781D46BB7F581FBB7FC74A134493F85160C54C2A4692002A440B469B000B445B009F
:401A8000134423440344013332461A70BB7F0133BB77BA7FBC4B93F8543004339A42D7DBB94B93F8553003F00F03591EB74B1B781D46B54B93F8553003F00F03581EB34B26
:401AC0001B78B14C1A4692001A4403469B0003445B001344234401331B781B09DBB23033DCB2A9482A4692002A4453001A460B461B015B1A5B0013440344833322461A70C2
:401B0000A14B93F8553003F00F03591E9F4B1B781D469D4B93F8553003F00F03581E9B4B1B78994C1A4692001A4403469B0003445B001344234401331B7803F00F03DBB28F
:401B40003033DCB290482A4692002A4453001A460B461B015B1A5B0013440344843322461A70894B93F8553003F00F03591E874B1B781D46844B93F8553003F00F03581E73
:401B8000824B1B78804C1A4692001A4403469B0003445B001344234402331B781B09DBB23033DCB278482A4692002A4453001A460B461B015B1A5B0013440344853322461D
:401BC0001A70714B93F8553003F00F03591E6F4B1B781D466C4B93F8553003F00F03581E6A4B1B78684C1A4692001A4403469B0003445B001344234402331B7803F00F03C4
:401C0000DBB23033DCB260482A4692002A4453001A460B461B015B1A5B0013440344863322461A70584B93F8553003F00F03591E564B1B781D46544B93F8553003F00F035B
:401C4000581E524B1B78504C1A4692001A4403469B0003445B001344234403331B781B09DBB23033DCB248482A4692002A4453001A460B461B015B1A5B00134403448733DB
:401C800022461A70404B93F8553003F00F03591E3E4B1B781D463C4B93F8553003F00F03581E3A4B1B78384C1A4692001A4403469B0003445B001344234403331B7803F09E
:401CC0000F03DBB23033DCB22F482A4692002A4453001A460B461B015B1A5B0013440344883322461A70284B93F8553003F00F03591E264B1B781D46234B93F8553003F05B
:401D00000F03581E214B1B781F4C1A4692001A4403469B0003445B001344234404331B781B09DBB23033DCB217482A4692002A4453001A460B461B015B1A5B001344034454
:401D4000893322461A70104B93F8553003F00F03591E0E4B1B781D460B4B93F8553003F00F03581E094B1B78074C1A4692001A4403469B0003445B001344234404331B7806
:401D800003F00F03DBB203E09085FF1FEF8AFF1F3033DCB2B8482A4692002A4453001A460B461B015B1A5B00134403448A3322461A70B14B93F8553003F00F03591EAF4BC4
:401DC0001B781D46AC4B93F8553003F00F03581EAA4B1B78A84C1A4692001A4403469B0003445B001344234405331B781B09DBB23033DCB2A0482A4692002A4453001A46E3
:401E00000B461B015B1A5B00134403448B3322461A70994B93F8553003F00F03591E974B1B781D46944B93F8553003F00F03581E924B1B78904C1A4692001A4403469B00E5
:401E400003445B001344234405331B7803F00F03DBB23033DCB288482A4692002A4453001A460B461B015B1A5B00134403448C3322461A7000237B773AE07F4B93F855302C
:401E800003F00F03591E7D4B1B7897F91D007A4C1A4692001A4453001A460B461B015B1A5B0013442344034483331B78302B24D1714B93F8553003F00F03591E6F4B1B7865
:401EC00097F91D006C4C1A4692001A4453001A460B461B015B1A5B00134423440344833300221A7097F91D30DBB20133DBB27B7797F91D30072BC0DD00E000BF012005F058
:401F0000E5F9BB7943F05003DBB2184605F026FF594B93F852305BB203F00F035BB263F03F035BB2DBB2184605F018FFFA2005F015FF042005F048F9002005F0C7F94E4BB0
:401F400093F85330022B40F0138104233B771BE03B7F043B3A7F48490A4492F85110464A13440A4683F839203B7F043B3A7F043241490A4492F851103F4A13440A4683F8B1
:401F800035203B7F01333B773B7F072BE0D93A4B93F839301B09DBB23033DAB2364B83F80321354B93F8393003F00F03DBB23033DAB2314B83F804212F4B93F83A301B09AA
:401FC000DBB23033DAB22C4B83F805212A4B93F83A3003F00F03DBB23033DAB2264B83F80621254B93F83B301B09DBB23033DAB2214B83F80721204B93F83B3003F00F03D4
:40200000DBB23033DAB21C4B83F808211A4B93F83C301B09DBB23033DAB2174B83F80921154B93F83C3003F00F03DBB23033DAB2114B83F80A210023FB7614E097F91B30D9
:402040000D4A134493F80331302B1BD197F91B30094A1344002283F8032197F91B30DBB20133DBB2FB7697F91B20054B1B7801339A42E3DB07E000BF9085FF1FEF8AFF1FE0
:40208000AA8AFF1F00BF9C4B93F835301B09DBB23033DAB2984B83F8FB20974B93F8353003F00F03DBB23033DAB2934B83F8FC20914B93F836301B09DBB23033DAB28E4B11
:4020C00083F8FD208C4B93F8363003F00F03DBB23033DAB2884B83F8FE20874B93F837301B09DBB23033DAB2834B83F8FF20824B93F8373003F00F03DBB23033DAB27E4BBE
:4021000083F800217C4B93F838301B09DBB23033DAB2794B83F80121774B93F8383003F00F03DBB23033DAB2734B83F802210023BB7614E097F91A306F4A134493F8FB30CE
:40214000302B11D197F91A306B4A1344002283F8FB2097F91A30DBB20133DBB2BB7697F91A30072BE6DD00E000BF002005F0AEF8614B93F85330032B40F094805E4B93F8A2
:402180005430042B40F08E805B4B062283F82B21594B93F8583003F00F03DAB2564B83F82C21554B93F82C315A1E534B93F8573003F00F03DBB23033D8B24F4913465B006D
:4021C00013445B000B4403F5887302461A704A4B93F82C315A1E484B93F857301B09DBB23033D8B2444913465B0013445B000B4403F20F1302461A703F4B93F82C315A1ECC
:402200003D4B93F8563003F00F03DBB23033D8B2394913465B0013445B000B4403F5877302461A70344B93F82C315A1E324B93F856301B09DBB23033D8B22F4913465B0054
:4022400013445B000B4403F20D1302461A702A4B93F82C315A1E284B93F8553003F00F03DBB23033D8B2244913465B0013445B000B4403F5867302461A701F4B93F82C3168
:402280005A1E1D4B93F855301B09DBB23033D8B2194913465B0013445B000B4403F20B1302461A70144B93F83531BA799A4240F06784114B002283F82B2101237B760CE0D4
:4022C0007B7E013B7A7E0D49895C0B4A13440A4683F886217B7E01337B767A7EFB7901339A42EDDB044B93F88831652B40F0968205233B7626E000BF9085FF1F788AFF1F9A
:40230000CD4B93F88A3103F00F03591ECB4B1B781D463B7E581F3B7EC74A134493F88661C54C2A4692002A440B469B000B445B0013442344034403F59B7332461A703B7E17
:4023400001333B763A7EBC4B93F8893104339A42D6DBB94B93F88A3103F00F03591EB74B1B781D46B44B93F88A3103F00F03581EB24B1B78B04C1A4692001A4403469B0072
:4023800003445B001344234403F59B731B781B09DBB23033DCB2A8482A4692002A4453001A460B461B015B1A5B001344034403F5DC7322461A70A04B93F88A3103F00F0325
:4023C000591E9E4B1B781D469B4B93F88A3103F00F03581E994B1B78974C1A4692001A4403469B0003445B001344234403F59B731B7803F00F03DBB23033DCB28E482A4690
:4024000092002A4453001A460B461B015B1A5B001344034403F2B91322461A70864B93F88A3103F00F03591E844B1B781D46824B93F88A3103F00F03581E804B1B787E4C4D
:402440001A4692001A4403469B0003445B001344234403F237131B781B09DBB23033DCB275482A4692002A4453001A460B461B015B1A5B001344034403F5DD7322461A705F
:402480006D4B93F88A3103F00F03591E6B4B1B781D46694B93F88A3103F00F03581E674B1B78654C1A4692001A4403469B0003445B001344234403F237131B7803F00F0320
:4024C000DBB23033DCB25C482A4692002A4453001A460B461B015B1A5B001344034403F2BB1322461A70544B93F88A3103F00F03591E524B1B781D464F4B93F88A3103F040
:402500000F03581E4D4B1B784B4C1A4692001A4403469B0003445B001344234403F59C731B781B09DBB23033DCB243482A4692002A4453001A460B461B015B1A5B0013443F
:40254000034403F5DE7322461A703B4B93F88A3103F00F03591E394B1B781D46364B93F88A3103F00F03581E344B1B78324C1A4692001A4403469B0003445B0013442344B1
:4025800003F59C731B7803F00F03DBB23033DCB229482A4692002A4453001A460B461B015B1A5B001344034403F2BD1322461A70214B93F88A3103F00F03591E1F4B1B78AD
:4025C0001D461D4B93F88A3103F00F03581E1B4B1B78194C1A4692001A4403469B0003445B001344234403F239131B781B09DBB23033DCB210482A4692002A4453001A466C
:402600000B461B015B1A5B001344034403F5DF7322461A70084B93F88A3103F00F03591E064B1B781D46044B93F88A3103F00F03581E024B1B7803E09085FF1FEF8AFF1F8A
:40264000C44C1A4692001A4403469B0003445B001344234403F239131B7803F00F03DBB23033DCB2BB482A4692002A4453001A460B461B015B1A5B001344034403F2BF1397
:4026800022461A70B34B93F88A3103F00F03591EB14B1B781D46AF4B93F88A3103F00F03581EAD4B1B78AB4C1A4692001A4403469B0003445B001344234403F59D731B780A
:4026C0001B09DBB23033DCB2A2482A4692002A4453001A460B461B015B1A5B001344034403F5E07322461A709A4B93F88A3103F00F03591E984B1B781D46964B93F88A316C
:4027000003F00F03581E944B1B78924C1A4692001A4403469B0003445B001344234403F59D731B7803F00F03DBB23033DCB289482A4692002A4453001A460B461B015B1A46
:402740005B001344034403F2C11322461A700023FB753CE07F4B93F88A3103F00F03591E7D4B1B7897F917007A4C1A4692001A4453001A460B461B015B1A5B0013442344A4
:40278000034403F5DC731B78302B25D1714B93F88A3103F00F03591E6F4B1B7897F917006C4C1A4692001A4453001A460B461B015B1A5B0013442344034403F5DC730022CF
:4027C0001A7097F91730DBB20133DBB2FB7597F91730072BBEDD00E000BF012004F076FDBB7943F05003DBB2184605F0B7FA594B93F887315BB203F00F035BB263F03F0309
:402800005BB2DBB2184605F0A9FAFA2005F0A6FA042004F0D9FC002004F058FD4D4B93F88831022B40F012810423BB751BE0BB7D043BBA7D47490A4492F88611454A134452
:402840000A4683F86E21BB7D043BBA7D043241490A4492F886113F4A13440A4683F86A21BB7D0133BB75BB7D072BE0D9394B93F86E311B09DBB23033DAB2364B83F8382288
:40288000344B93F86E3103F00F03DBB23033DAB2304B83F839222F4B93F86F311B09DBB23033DAB22B4B83F83A222A4B93F86F3103F00F03DBB23033DAB2264B83F83B22A1
:4028C000244B93F870311B09DBB23033DAB2214B83F83C221F4B93F8703103F00F03DBB23033DAB21B4B83F83D221A4B93F871311B09DBB23033DAB2164B83F83E22154B33
:4029000093F8713103F00F03DBB23033DAB2114B83F83F2200237B7514E097F915300D4A134493F83832302B1AD197F91530094A1344002283F8382297F91530DBB20133E0
:40294000DBB27B7597F91520044B1B7801339A42E3DB06E09085FF1FEF8AFF1FAA8AFF1F00BF9C4B93F86A311B09DBB23033DAB2984B83F83022974B93F86A3103F00F033A
:40298000DBB23033DAB2934B83F83122914B93F86B311B09DBB23033DAB28E4B83F832228C4B93F86B3103F00F03DBB23033DAB2884B83F83322874B93F86C311B09DBB2D7
:4029C0003033DAB2834B83F83422824B93F86C3103F00F03DBB23033DAB27E4B83F835227C4B93F86D311B09DBB23033DAB2794B83F83622774B93F86D3103F00F03DBB294
:402A00003033DAB2734B83F8372200233B7514E097F914306F4A134493F83032302B11D197F914306B4A1344002283F8302297F91430DBB20133DBB23B7597F91430072B99
:402A4000E6DD00E000BF002004F040FC614B93F88831032B40F094805E4B93F88931042B40F08E805B4B062283F86022594B93F88D3103F00F03DAB2564B83F86122554B5F
:402A800093F861325A1E534B93F88C3103F00F03DBB23033D8B24F4913465B0013445B000B4403F2452302461A704A4B93F861325A1E484B93F88C311B09DBB23033D8B2FB
:402AC000444913465B0013445B000B4403F5117302461A703F4B93F861325A1E3D4B93F88B3103F00F03DBB23033D8B2394913465B0013445B000B4403F2432302461A7074
:402B0000344B93F861325A1E324B93F88B311B09DBB23033D8B22F4913465B0013445B000B4403F2422302461A702A4B93F861325A1E284B93F88A3103F00F03DBB230330C
:402B4000D8B2244913465B0013445B000B4403F2412302461A701F4B93F861325A1E1D4B93F88A311B09DBB23033D8B2194913465B0013445B000B4403F5107302461A70CE
:402B8000144B93F86A32BA799A4240F06784114B002283F895230123FB740CE0FB7C013BFA7C0D49895C0B4A13440A4683F8BB22FB7C0133FB74FA7CFB7901339A42EDDBA1
:402BC000044B93F8BD32652B40F096820523BB7426E000BF9085FF1F788AFF1FCD4B93F8BF3203F00F03591ECB4B1B781D46BB7C581FBB7CC74A134493F8BB62C54C2A4633
:402C000092002A440B469B000B445B0013442344034403F26B2332461A70BB7C0133BB74BA7CBC4B93F8BE3204339A42D6DBB94B93F8BF3203F00F03591EB74B1B781D466A
:402C4000B44B93F8BF3203F00F03581EB24B1B78B04C1A4692001A4403469B0003445B001344234403F26B231B781B09DBB23033DCB2A8482A4692002A4453001A460B4622
:402C80001B015B1A5B001344034403F2ED2322461A70A04B93F8BF3203F00F03591E9E4B1B781D469B4B93F8BF3203F00F03581E994B1B78974C1A4692001A4403469B0066
:402CC00003445B001344234403F26B231B7803F00F03DBB23033DCB28E482A4692002A4453001A460B461B015B1A5B001344034403F2EE2322461A70864B93F8BF3203F0CF
:402D00000F03591E844B1B781D46824B93F8BF3203F00F03581E804B1B787E4C1A4692001A4403469B0003445B001344234403F51B731B781B09DBB23033DCB275482A46DD
:402D400092002A4453001A460B461B015B1A5B001344034403F2EF2322461A706D4B93F8BF3203F00F03591E6B4B1B781D46694B93F8BF3203F00F03581E674B1B78654CCF
:402D80001A4692001A4403469B0003445B001344234403F51B731B7803F00F03DBB23033DCB25C482A4692002A4453001A460B461B015B1A5B001344034403F53C73224632
:402DC0001A70544B93F8BF3203F00F03591E524B1B781D464F4B93F8BF3203F00F03581E4D4B1B784B4C1A4692001A4403469B0003445B001344234403F26D231B781B09FC
:402E0000DBB23033DCB243482A4692002A4453001A460B461B015B1A5B001344034403F2F12322461A703B4B93F8BF3203F00F03591E394B1B781D46364B93F8BF3203F0A8
:402E40000F03581E344B1B78324C1A4692001A4403469B0003445B001344234403F26D231B7803F00F03DBB23033DCB229482A4692002A4453001A460B461B015B1A5B003A
:402E80001344034403F2F22322461A70214B93F8BF3203F00F03591E1F4B1B781D461D4B93F8BF3203F00F03581E1B4B1B78194C1A4692001A4403469B0003445B001344CA
:402EC000234403F26E231B781B09DBB23033DCB210482A4692002A4453001A460B461B015B1A5B001344034403F2F32322461A70084B93F8BF3203F00F03591E064B1B782E
:402F00001D46044B93F8BF3203F00F03581E024B1B7803E09085FF1FEF8AFF1FC44C1A4692001A4403469B0003445B001344234403F26E231B7803F00F03DBB23033DCB21B
:402F4000BB482A4692002A4453001A460B461B015B1A5B001344034403F53D7322461A70B34B93F8BF3203F00F03591EB14B1B781D46AF4B93F8BF3203F00F03581EAD4BE5
:402F80001B78AB4C1A4692001A4403469B0003445B001344234403F26F231B781B09DBB23033DCB2A2482A4692002A4453001A460B461B015B1A5B001344034403F2F52342
:402FC00022461A709A4B93F8BF3203F00F03591E984B1B781D46964B93F8BF3203F00F03581E944B1B78924C1A4692001A4403469B0003445B001344234403F26F231B7853
:4030000003F00F03DBB23033DCB289482A4692002A4453001A460B461B015B1A5B001344034403F2F62322461A7000237B743CE07F4B93F8BF3203F00F03591E7D4B1B78F3
:4030400097F911007A4C1A4692001A4453001A460B461B015B1A5B0013442344034403F2ED231B78302B25D1714B93F8BF3203F00F03591E6F4B1B7897F911006C4C1A4601
:4030800092001A4453001A460B461B015B1A5B0013442344034403F2ED2300221A7097F91130DBB20133DBB27B7497F91130072BBEDD00E000BF012004F008F9BB7943F0B2
:4030C0005003DBB2184604F049FE594B93F8BC325BB203F00F035BB263F03F035BB2DBB2184604F03BFEFA2004F038FE042004F06BF8002004F0EAF84D4B93F8BD32022B6D
:4031000040F0128104233B741BE03B7C043B3A7C47490A4492F8BB12454A13440A4683F8A3223B7C043B3A7C043241490A4492F8BB123F4A13440A4683F89F223B7C01333C
:403140003B743B7C072BE0D9394B93F8A3321B09DBB23033DAB2364B83F86D23344B93F8A33203F00F03DBB23033DAB2304B83F86E232F4B93F8A4321B09DBB23033DAB28C
:403180002B4B83F86F232A4B93F8A43203F00F03DBB23033DAB2264B83F87023244B93F8A5321B09DBB23033DAB2214B83F871231F4B93F8A53203F00F03DBB23033DAB27D
:4031C0001B4B83F872231A4B93F8A6321B09DBB23033DAB2164B83F87323154B93F8A63203F00F03DBB23033DAB2114B83F874230023FB7314E097F90F300D4A134493F840
:403200006D33302B1AD197F90F30094A1344002283F86D2397F90F30DBB20133DBB2FB7397F90F20044B1B7801339A42E3DB06E09085FF1FEF8AFF1FAA8AFF1F00BF9C4B60
:4032400093F89F321B09DBB23033DAB2984B83F86523974B93F89F3203F00F03DBB23033DAB2934B83F86623914B93F8A0321B09DBB23033DAB28E4B83F867238C4B93F8B2
:40328000A03203F00F03DBB23033DAB2884B83F86823874B93F8A1321B09DBB23033DAB2834B83F86923824B93F8A13203F00F03DBB23033DAB27E4B83F86A237C4B93F86E
:4032C000A2321B09DBB23033DAB2794B83F86B23774B93F8A23203F00F03DBB23033DAB2734B83F86C230023BB7314E097F90E306F4A134493F86533302B11D197F90E30D2
:403300006B4A1344002283F8652397F90E30DBB20133DBB2BB7397F90E30072BE6DD00E000BF002003F0D2FF614B93F8BD32032B40F094805E4B93F8BE32042B40F08E80A3
:403340005B4B062283F89523594B93F8C23203F00F03DAB2564B83F89623554B93F896335A1E534B93F8C13203F00F03DBB23033D8B24F4913465B0013445B000B4403F27A
:403380007A3302461A704A4B93F896335A1E484B93F8C1321B09DBB23033D8B2444913465B0013445B000B4403F2793302461A703F4B93F896335A1E3D4B93F8C03203F07B
:4033C0000F03DBB23033D8B2394913465B0013445B000B4403F55E7302461A70344B93F896335A1E324B93F8C0321B09DBB23033D8B22F4913465B0013445B000B4403F26A
:40340000773302461A702A4B93F896335A1E284B93F8BF3203F00F03DBB23033D8B2244913465B0013445B000B4403F2763302461A701F4B93F896335A1E1D4B93F8BF32B5
:403440001B09DBB23033D8B2194913465B0013445B000B4403F2753302461A70144B93F89F33BA799A4240F06784114B002283F8CA2401237B730CE07B7B013B7A7B0D49E0
:40348000895C0B4A13440A4683F8F0237B7B01337B737A7BFB7901339A42EDDB044B93F8F233652B40F0968205233B7326E000BF9085FF1F788AFF1FCD4B93F8F43303F0C2
:4034C0000F03591ECB4B1B781D463B7B581F3B7BC74A134493F8F063C54C2A4692002A440B469B000B445B0013442344034403F5687332461A703B7B01333B733A7BBC4BC9
:4035000093F8F33304339A42D6DBB94B93F8F43303F00F03591EB74B1B781D46B44B93F8F43303F00F03581EB24B1B78B04C1A4692001A4403469B0003445B0013442344A0
:4035400003F568731B781B09DBB23033DCB2A8482A4692002A4453001A460B461B015B1A5B001344034403F2224322461A70A04B93F8F43303F00F03591E9E4B1B781D4611
:403580009B4B93F8F43303F00F03581E994B1B78974C1A4692001A4403469B0003445B001344234403F568731B7803F00F03DBB23033DCB28E482A4692002A4453001A4628
:4035C0000B461B015B1A5B001344034403F2234322461A70864B93F8F43303F00F03591E844B1B781D46824B93F8F43303F00F03581E804B1B787E4C1A4692001A44034624
:403600009B0003445B001344234403F2A1331B781B09DBB23033DCB275482A4692002A4453001A460B461B015B1A5B001344034403F2244322461A706D4B93F8F43303F02B
:403640000F03591E6B4B1B781D46694B93F8F43303F00F03581E674B1B78654C1A4692001A4403469B0003445B001344234403F2A1331B7803F00F03DBB23033DCB25C4827
:403680002A4692002A4453001A460B461B015B1A5B001344034403F2254322461A70544B93F8F43303F00F03591E524B1B781D464F4B93F8F43303F00F03581E4D4B1B786B
:4036C0004B4C1A4692001A4403469B0003445B001344234403F2A2331B781B09DBB23033DCB243482A4692002A4453001A460B461B015B1A5B001344034403F22643224651
:403700001A703B4B93F8F43303F00F03591E394B1B781D46364B93F8F43303F00F03581E344B1B78324C1A4692001A4403469B0003445B001344234403F2A2331B7803F0AF
:403740000F03DBB23033DCB229482A4692002A4453001A460B461B015B1A5B001344034403F2274322461A70214B93F8F43303F00F03591E1F4B1B781D461D4B93F8F433E5
:4037800003F00F03581E1B4B1B78194C1A4692001A4403469B0003445B001344234403F2A3331B781B09DBB23033DCB210482A4692002A4453001A460B461B015B1A5B00E4
:4037C0001344034403F5856322461A70084B93F8F43303F00F03591E064B1B781D46044B93F8F43303F00F03581E024B1B7803E09085FF1FEF8AFF1FC44C1A4692001A4428
:4038000003469B0003445B001344234403F2A3331B7803F00F03DBB23033DCB2BB482A4692002A4453001A460B461B015B1A5B001344034403F2294322461A70B34B93F886
:40384000F43303F00F03591EB14B1B781D46AF4B93F8F43303F00F03581EAD4B1B78AB4C1A4692001A4403469B0003445B001344234403F569731B781B09DBB23033DCB26D
:40388000A2482A4692002A4453001A460B461B015B1A5B001344034403F22A4322461A709A4B93F8F43303F00F03591E984B1B781D46964B93F8F43303F00F03581E944BF3
:4038C0001B78924C1A4692001A4403469B0003445B001344234403F569731B7803F00F03DBB23033DCB289482A4692002A4453001A460B461B015B1A5B001344034403F215
:403900002B4322461A700023FB723CE07F4B93F8F43303F00F03591E7D4B1B7897F90B007A4C1A4692001A4453001A460B461B015B1A5B0013442344034403F222431B7895
:40394000302B25D1714B93F8F43303F00F03591E6F4B1B7897F90B006C4C1A4692001A4453001A460B461B015B1A5B0013442344034403F2224300221A7097F90B30DBB2C9
:403980000133DBB2FB7297F90B30072BBEDD00E000BF012003F09AFCBB7943F05003DBB2184604F0DBF9594B93F8F1335BB203F00F035BB263F03F035BB2DBB2184604F098
:4039C000CDF9FA2004F0CAF9042003F0FDFB002003F07CFC4D4B93F8F233022B40F012810423BB721BE0BB7A043BBA7A47490A4492F8F013454A13440A4683F8D823BB7A1B
:403A0000043BBA7A043241490A4492F8F0133F4A13440A4683F8D423BB7A0133BB72BB7A072BE0D9394B93F8D8331B09DBB23033DAB2364B83F8A224344B93F8D83303F09C
:403A40000F03DBB23033DAB2304B83F8A3242F4B93F8D9331B09DBB23033DAB22B4B83F8A4242A4B93F8D93303F00F03DBB23033DAB2264B83F8A524244B93F8DA331B0924
:403A8000DBB23033DAB2214B83F8A6241F4B93F8DA3303F00F03DBB23033DAB21B4B83F8A7241A4B93F8DB331B09DBB23033DAB2164B83F8A824154B93F8DB3303F00F0366
:403AC000DBB23033DAB2114B83F8A92400237B7214E097F909300D4A134493F8A234302B1AD197F90930094A1344002283F8A22497F90930DBB20133DBB27B7297F90920F1
:403B0000044B1B7801339A42E3DB06E09085FF1FEF8AFF1FAA8AFF1F00BF894B93F8D4331B09DBB23033DAB2854B83F89A24844B93F8D43303F00F03DBB23033DAB2804B58
:403B400083F89B247E4B93F8D5331B09DBB23033DAB27B4B83F89C24794B93F8D53303F00F03DBB23033DAB2754B83F89D24744B93F8D6331B09DBB23033DAB2704B83F811
:403B80009E246F4B93F8D63303F00F03DBB23033DAB26B4B83F89F24694B93F8D7331B09DBB23033DAB2664B83F8A024644B93F8D73303F00F03DBB23033DAB2604B83F8BC
:403BC000A12400233B7214E097F908305C4A134493F89A34302B11D197F90830584A1344002283F89A2497F90830DBB20133DBB23B7297F90830072BE6DD00E000BF002086
:403C000003F064FB4E4B93F8F233032B40F094804B4B93F8F333042B40F08E80484B062283F8CA24464B93F8F73303F00F03DAB2434B83F8CB24424B93F8CB345A1E404BB6
:403C400093F8F63303F00F03DBB23033D8B23C4913465B0013445B000B4403F2AF4302461A70374B93F8CB345A1E354B93F8F6331B09DBB23033D8B2314913465B00134443
:403C80005B000B4403F2AE4302461A702C4B93F8CB345A1E2A4B93F8F53303F00F03DBB23033D8B2264913465B0013445B000B4403F2AD4302461A70214B93F8CB345A1E39
:403CC0001F4B93F8F5331B09DBB23033D8B21C4913465B0013445B000B4403F2AC4302461A70174B93F8CB345A1E154B93F8F43303F00F03DBB23033D8B2114913465B0036
:403D000013445B000B4403F2AB4302461A700C4B93F8CB345A1E0A4B93F8F4331B09DBB23033D8B2064913465B0013445B000B4403F2AA4302461A7000BF2437BD46F0BD4D
:403D40009085FF1F90B585B000AF0346FB71274BFF221A70254BFF2283F83521234BFF2283F86A22214BFF2283F89F23012003F0ADFAFB7943F05003DBB2184603F0EEFFD3
:403D8000202003F0EBFFFA2003F0E8FF042003F01BFA002003F09AFA03F058FF0346BB730023FB7309E0FC7B03F008FF03461A460F4B1A55FB7B0133FB73FA7BBB7B9A4262
:403DC000F1D303F08BFF4FF4967003F0FDF9BB7B002B05D0064B1B7803F00F03DBB200E0FF2318461437BD4690BD00BF9085FF1F788AFF1F80B584B000AF0346FB710023A7
:403E0000FB7306E0FB7B2E4A0021D154FB7B0133FB73FB7B312BF5D9012003F057FAFB7943F05003DAB2264B1A70254B30225A70234B01229A70224B0122DA70204B0622C8
:403E40001A7105211E48FDF74DFD03461A461D4B1A801C4B1B881B0A9BB2DAB21A4B1A70184B1B88DAB2194B1A70184B1A78144B5A71154B1A78124B9A71114B0322DA7186
:403E80000F4BFA221A720023BB7308E0BB7B0C4AD35C184603F062FFBB7B0133BB73BB7B092BF3D9042003F08FF9002003F00EFAC82003F089F97B7B18461037BD4680BD9A
:403EC000AC8AFF1FF48AFF1F648AFF1FF68AFF1F90B585B000AF0346FB710023FB7306E0FB7B5A4A0021D154FB7B0133FB73FB7B312BF5D9012003F0E9F9FB7943F05003CB
:403F0000DBB2184603F02AFF202003F027FFFA2003F024FF032003F057F9002003F0D6F903F094FE03467B720123BB7309E0BC7B03F044FE03461A46444B1A55BB7B013336
:403F4000BB73BA7B7B7A01339A42F0DB3F4A7B7A137003F0C3FE7B7A032B05D9FDF740FD642003F031F965E0642003F02DF9384B1B78FA799A4212D100237B730BE07B7B6A
:403F80007A7B3249895C324A13440A4683F851207B7B01337B737A7B7B7A9A42EFD32C4B93F83531FA799A4212D100233B730BE03B7B3A7B2549895C254A13440A4683F858
:403FC00086213B7B01333B733A7B7B7A9A42EFD31F4B93F86A32FA799A4212D10023FB720BE0FB7AFA7A1949895C194A13440A4683F8BB22FB7A0133FB72FA7A7B7A9A420F
:40400000EFD3134B93F89F33FA799A4212D10023BB720BE0BB7ABA7A0C49895C0C4A13440A4683F8F023BB7A0133BB72BA7A7B7A9A42EFD37B7A002B02D0044B5B7800E017
:40404000002318461437BD4690BD00BF788AFF1F9085FF1F90B585B000AF03463960FB71012003F033F9FB7943F05003DAB2394B1A70384B30225A70364B05229A70354BF6
:404080000322DA703B681A78324B1A713B685A78304B5A713B689A782E4B9A7107212D48FDF720FC03461A462B4B1A802A4B1B881B0A9BB2DAB2294B1A70274B1B88DAB245
:4040C000274B1A70264B1A78224BDA71234B1A78204B1A721F4B03225A721E4BFA229A720023FB7308E0FB7B1A4AD35C184603F035FEFB7B0133FB73FB7B0B2BF3D904206C
:4041000003F062F8002003F0E1F803F09FFD03467B730023BB7309E0BC7B03F04FFD03461A46104B1A55BB7B0133BB73BA7B7B7B9A42F1D303F0D2FD642003F045F87B7B8E
:40414000002B02D0074B5B7800E0002318461437BD4690BDAC8AFF1FF48AFF1F648AFF1FF68AFF1F788AFF1F90B585B000AF0346FB710B46BB7113467B71BB791B015AB26B
:4041800097F9053013435BB27B73012003F09EF8FB7943F05003DAB2314B1A70304B30225A702F4B65229A702D4B0122DA702C4A7B7B137105212A48FDF794FB03461A4678
:4041C000284B1A80274B1B881B0A9BB2DAB2264B1A70244B1B88DAB2244B1A70234B1A781F4B5A71204B1A781D4B9A711C4B0322DA711B4BFA221A720023FB7308E0FB7B94
:40420000174AD35C184603F0A9FDFB7B0133FB73FB7B092BF3D9042002F0D6FF002003F055F803F013FD03463B730023BB7309E0BC7B03F0C3FC03461A460D4B1A55BB7B5B
:404240000133BB73BA7B3B7B9A42F1D303F046FD642002F0B9FF00BF1437BD4690BD00BFAC8AFF1FF48AFF1F648AFF1FF68AFF1F788AFF1F90B595B000AF0346FB71002309
:4042800087F84F30C14B1B78C14A82FB03121213DB17D31ADBB23033DAB2BE4B5A71BB4B1B781A46BA4B83FB02131913D317CB1A42F2107101FB03F3D31AB74A82FB0312BD
:4042C0009211DB17D31ADBB23033DAB2B14B1A71AE4B1B781A46AE4B83FB02131913D317CB1A42F2107101FB03F3D31AAA4A82FB03129111DA178A1A4FF47A7101FB02F257
:404300009A1AA64B83FB02135911D317CB1ADBB23033DAB29F4BDA709C4B1B789C4A82FB03121113DA178A1A42F2107101FB02F29A1A994B83FB02139911D317CB1A4FF425
:404340007A7101FB03F3D31A944A82FB03125111DA178A1A642101FB02F29A1A904B83FB02139910D317CB1ADBB23033DAB2894B9A70864B1B78864A82FB03121113DA17C8
:404380008A1A42F2107101FB02F29A1A824B83FB02139911D317CB1A4FF47A7101FB03F3D31A7E4A82FB03125111DA178A1A642101FB02F29A1A7A4B83FB02139910D317B5
:4043C000C91A0B469B000B445B00D11ACBB23033DAB2704B5A70012387F84E300FE097F84E306C4AD35C97F84E2092B21146184603F0C6F997F84E30013387F84E3097F8F1
:404400004E30052BEBD91BE0002387F84D300BE097F84D30634AD35C184603F089F897F84D30013387F84D3097F84D30052BEFD9042002F0C9FE03F033F8034687F84F30C9
:4044400097F94F30002BDFD097F94F300C2B19DD002387F84C300CE097F84C4002F0D8FF03461A46504B1A5597F84C30013387F84C3097F84C2097F94F309A42ECDB00236C
:4044800087F84F30484B9A79474BDB791344DAB2454B1B7A1344DBB27B7239E0002387F84B300BE097F84B303E4AD35C184603F03FF897F84B30013387F84B3097F84B30ED
:4044C000052BEFD9042002F07FFE02F0E9FF034687F84F3097F94F300C2B19DD002387F84A300CE097F84A4002F092FF03461A462D4B1A5597F84A30013387F84A3097F8DB
:404500004A2097F94F309A42ECDB002387F84F30254B1B7A002BC1D0234B9B79002BBDD0002387F849300BE097F849301F4AD35C184603F023FA97F84930013387F84930FB
:4045400097F849301F2BEFD9194B1B78184603F015FA002387F848300BE097F84830154AD35C184603F00AFA97F84830013387F8483097F848301F2BEFD90D4B1B78184647
:4045800003F0FCF9002387F8473021E0F38AFF1FAD8BDB688885FF1FD34D62101F85EB5167666666C084FF1F088BFF1FD480FF1FCC80FF1FF480FF1F97F84730A14AD35C0C
:4045C000184603F0DBF997F84730013387F8473097F847301F2BEFD99B4B1B78184603F0CDF9002387F846300BE097F84630974AD35C184603F0C2F997F84630013387F8E2
:40460000463097F846301F2BEFD98F4B1B78184603F0B4F9002387F845300BE097F845308B4AD35C184603F0A9F997F84530013387F8453097F845301F2BEFD9824B1B78E3
:40464000184603F09BF9002387F844300BE097F84430804AD35C184603F090F997F84430013387F8443097F844301F2BEFD9764B1B78184603F082F9002387F843300BE01F
:4046800097F84330744AD35C184603F077F997F84330013387F8433097F843301F2BEFD9694B1B78184603F069F9002387F842300BE097F84230694AD35C184603F05EF98A
:4046C00097F84230013387F8423097F842301F2BEFD95D4B1B78184603F050F9002387F841300BE097F841305D4AD35C184603F045F997F84130013387F8413097F8413025
:404700000C2BEFD9574B1B7A1B09DBB23033DAB2554B1A70534B1B7A03F00F03DBB23033DAB2514B5A704F4BDB791B09DBB23033DAB24D4B9A704B4BDB7903F00F03DBB2B3
:404740003033DAB2484BDA70464B9B791B09DBB23033DAB2444B1A71424B9B7903F00F03DBB23033DAB2404B5A713E4B9B7A1B09DBB23033DAB23D4B1A703A4B9B7A03F0B9
:404780000F03DBB23033DAB2384B5A70354BDB7A1B09DBB23033DAB2344B9A70314BDB7A03F00F03DBB23033DAB2304BDA702D4B1B7B1B09DBB23033DAB22C4B1A71294BE5
:4047C0001B7B03F00F03DBB23033DAB2274B5A71274B1B78FA799A4240F09F83244B93F83431012B40F0C1801F4B1B78184603F0C5F81D4B5B78184603F0C0F82F2003F032
:40480000BDF8194B9B78184603F0B8F8164BDB78184603F0B3F82F2003F0B0F8124B1B79184603F0ABF8104B5B79184603F0A6F8054B1B78184603F0A1F8002387F84030CF
:4048400024E000BF1481FF1FCC80FF1F3481FF1F5481FF1F7481FF1F9481FF1FA084FF1F7882FF1F088BFF1FF88AFF1F008BFF1F9085FF1F97F84030BF4AD35C184603F03D
:404880007DF897F84030013387F8403097F840300C2BEFD9B94B1B78184603F06FF8B74B5B78184603F06AF83A2003F067F8B34B9B78184603F062F8B04BDB78184603F085
:4048C0005DF83A2003F05AF8AC4B1B79184603F055F8AA4B5B79184603F050F8A84B1B78184603F04BF8002387F83F300BE097F83F30A44AD35C184603F040F897F83F3081
:40490000013387F83F3097F83F301F2BEFD9002387F83E300BE097F83E309B4AD35C184603F02CF897F83E30013387F83E3097F83E301F2BEFD9924B1B78184603F01EF8C0
:40494000002387F83D300BE097F83D308D4AD35C184603F013F897F83D30013387F83D3097F83D301F2BEFD9AFE0884B1B7A1B09DBB23033DBB2184603F000F8834B1B7A71
:4049800003F00F03DBB23033DBB2184602F0F6FF2F2002F0F3FF7D4BDB791B09DBB23033DBB2184602F0EAFF784BDB7903F00F03DBB23033DBB2184602F0E0FF2F2002F0FE
:4049C000DDFF724B9B791B09DBB23033DBB2184602F0D4FF6D4B9B7903F00F03DBB23033DBB2184602F0CAFF654B1B78184602F0C5FF002387F83C300BE097F83C305E4AEC
:404A0000D35C184602F0BAFF97F83C30013387F83C3097F83C300C2BEFD95C4B9B7A1B09DBB23033DBB2184602F0A8FF574B9B7A03F00F03DBB23033DBB2184602F09EFFB0
:404A40003A2002F09BFF514BDB7A1B09DBB23033DBB2184602F092FF4C4BDB7A03F00F03DBB23033DBB2184602F088FF3A2002F085FF464B1B7B1B09DBB23033DBB21846A2
:404A800002F07CFF414B1B7B03F00F03DBB23033DBB2184602F072FF394B1B78184602F06DFF002387F83B300BE097F83B30354AD35C184602F062FF97F83B30013387F853
:404AC0003B3097F83B301F2BEFD92D4B1B78184602F054FF002387F83A300BE097F83A302B4AD35C184602F049FF97F83A30013387F83A3097F83A300C2BEFD9254B93F85C
:404B00003431012B14D1052387F839300BE097F83930214AD35C184602F030FF97F83930013B87F8393097F83930002BEFD119E0052387F838300BE097F83830174AD35C7A
:404B4000184602F01BFF97F83830013B87F8383097F83830002BEFD1114B1B780133DAB20F4B1A70064B1B78184602F007FF002387F8373022E000BF8882FF1F008BFF1F67
:404B8000CC80FF1FA084FF1F3482FF1F088BFF1F3883FF1F9085FF1FE08AFF1F8885FF1FF38AFF1F97F83730BF4AD35C184602F0E5FE97F83730013387F8373097F8373003
:404BC0000C2BEFD9002387F836300DE097F83630B64A134493F82331184602F0CFFE97F83630013387F8363097F83630072BEDD9AF4B1B78184602F0C1FE002387F83530DB
:404C00000BE097F83530AB4AD35C184602F0B6FE97F83530013387F8353097F835300C2BEFD9002387F834300DE097F834309F4A134493F82D31184602F0A0FE97F834307E
:404C4000013387F8343097F83430052BEDD9984B1B78184602F092FE002387F833300BE097F83330944AD35C184602F087FE97F83330013387F8333097F833300C2BEFD921
:404C80008A4B1B783133DBB2184602F077FE884B1B78184602F072FE002387F832300BE097F83230854AD35C184602F067FE97F83230013387F8323097F832300C2BEFD927
:404CC0007A4B93F82C31012B13D1002387F831300BE097F831307A4AD35C184602F04EFE97F83130013387F8313097F83130082BEFD96E4B93F82C31022B13D1002387F847
:404D000030300BE097F830306E4AD35C184602F035FE97F83030013387F8303097F83030082BEFD9614B93F82C31032B13D1002387F82F300BE097F82F30634AD35C184629
:404D400002F01CFE97F82F30013387F82F3097F82F30082BEFD9564B1B78184602F00EFE002387F82E300BE097F82E30574AD35C184602F003FE97F82E30013387F82E30B7
:404D800097F82E300C2BEFD9514B1B78184602F0F5FD202002F0F2FD012387F82D3017E0424B93F82C315A1E97F82D103F4813465B0013445B0003440B4403F20B131B789C
:404DC000184602F0DBFD97F82D30013387F82D3097F82D30052BE3D9354B1B78184602F0CDFD002387F82C300BE097F82C30394AD35C184602F0C2FD97F82C30013387F857
:404E00002C3097F82C300C2BEFD9002387F82B3018E097F82B30C3F108032F4A1278934202D12E2002F0AAFD97F82B301F4A134493F80331184602F0A1FD97F82B30013387
:404E400087F82B3097F82B30072BE2D9202002F095FD224B1B78184602F090FD144B1B78184602F08BFD002387F82A300BE097F82A301B4AD35C184602F080FD97F82A30FC
:404E8000013387F82A3097F82A300C2BEFD9104B1B78184602F072FD202002F06FFD002387F829302CE000BF9882FF1F9085FF1FCC80FF1FA882FF1FC882FF1FD882FF1FEF
:404EC0006082FF1F6C82FF1F5482FF1FE882FF1F6884FF1FF882FF1FAA8AFF1FD080FF1F1883FF1F97F82930B64A134493F8FB30184602F043FD97F82930013387F8293096
:404F000097F82930062BEDD9AF4B1B78184602F035FDAC4B012283F83421AA4B93F83531FA799A4240F03883A64B93F86932012B40F0A880A54B1B78184602F01FFDA34B01
:404F40005B78184602F01AFD2F2002F017FD9F4B9B78184602F012FD9C4BDB78184602F00DFD2F2002F00AFD984B1B79184602F005FD964B5B79184602F000FD924B1B782F
:404F8000184602F0FBFC002387F828300BE097F828308F4AD35C184602F0F0FC97F82830013387F8283097F828300C2BEFD9894B1B78184602F0E2FC864B5B78184602F039
:404FC000DDFC3A2002F0DAFC824B9B78184602F0D5FC804BDB78184602F0D0FC3A2002F0CDFC7C4B1B79184602F0C8FC794B5B79184602F0C3FC744B1B78184602F0BEFCF4
:40500000002387F827300BE097F82730724AD35C184602F0B3FC97F82730013387F8273097F827301F2BEFD9002387F826300BE097F82630694AD35C184602F09FFC97F8B0
:405040002630013387F8263097F826301F2BEFD95D4B1B78184602F091FC002387F825300BE097F825305C4AD35C184602F086FC97F82530013387F8253097F825301F2B3B
:40508000EFD9BFE0564B1B7A1B09DBB23033DBB2184602F073FC524B1B7A03F00F03DBB23033DBB2184602F069FC2F2002F066FC4B4BDB791B09DBB23033DBB2184602F00C
:4050C0005DFC474BDB7903F00F03DBB23033DBB2184602F053FC2F2002F050FC404B9B791B09DBB23033DBB2184602F047FC3C4B9B7903F00F03DBB23033DBB2184602F083
:405100003DFC314B1B78184602F038FC002387F824300BE097F824302D4AD35C184602F02DFC97F82430013387F8243097F824300C2BEFD92A4B9B7A1B09DBB23033DBB2C9
:40514000184602F01BFC264B9B7A03F00F03DBB23033DBB2184602F011FC3A2002F00EFC1F4BDB7A1B09DBB23033DBB2184602F005FC1B4BDB7A03F00F03DBB23033DBB21F
:40518000184602F0FBFB3A2002F0F8FB144B1B7B1B09DBB23033DBB2184602F0EFFB104B1B7B03F00F03DBB23033DBB2184602F0E5FB054B1B78184602F0E0FB002387F847
:4051C00023301BE09085FF1FCC80FF1FF88AFF1F8882FF1F008BFF1FA084FF1F3482FF1F088BFF1F97F82330AF4AD35C184602F0C5FB97F82330013387F8233097F82330A8
:405200001F2BEFD9A94B1B78184602F0B7FB002387F822300BE097F82230A54AD35C184602F0ACFB97F82230013387F8223097F822300C2BEFD99F4B93F86932012B14D117
:40524000052387F821300BE097F821309A4AD35C184602F093FB97F82130013B87F8213097F82130002BEFD119E0052387F820300BE097F82030914AD35C184602F07EFB36
:4052800097F82030013B87F8203097F82030002BEFD18B4B1B780133DAB2894B1A70834B1B78184602F06AFB0023FB7708E0FB7F844AD35C184602F061FBFB7F0133FB77DD
:4052C000FB7F0C2BF3D90023BB770AE0BB7F794A134493F85832184602F050FBBB7F0133BB77BB7F072BF1D9704B1B78184602F045FB00237B7708E07B7F734AD35C1846F9
:4053000002F03CFB7B7F01337B777B7F0C2BF3D900233B770AE03B7F664A134493F86232184602F02BFB3B7F01333B773B7F052BF1D95E4B1B78184602F020FB0023FB7683
:4053400008E0FB7E614AD35C184602F017FBFB7E0133FB76FB7E0C2BF3D9564B93F835313133DBB2184602F009FB504B1B78184602F004FB0023BB7608E0BB7E544AD35C60
:40538000184602F0FBFABB7E0133BB76BB7E0C2BF3D9484B93F86132012B0ED100237B7608E07B7E4B4AD35C184602F0E7FA7B7E01337B767B7E082BF3D93E4B93F861326B
:4053C000022B0ED100233B7608E03B7E424AD35C184602F0D3FA3B7E01333B763B7E082BF3D9344B93F86132032B0ED10023FB7508E0FB7D394AD35C184602F0BFFAFB7D2E
:405400000133FB75FB7D082BF3D9284B1B78184602F0B4FA0023BB7508E0BB7D304AD35C184602F0ABFABB7D0133BB75BB7D0C2BF3D92C4B1B78184602F0A0FA202002F03F
:405440009DFA01237B7514E01A4B93F861325A1E797D184813465B0013445B0003440B4403F510731B78184602F088FA7B7D01337B757B7D052BE7D90C4B1B78184602F022
:405480007DFA00233B7508E03B7D174AD35C184602F074FA3B7D01333B753B7D0C2BF3D90023FB7437E000BFA084FF1FCC80FF1F3883FF1F9085FF1FE08AFF1F8885FF1F8A
:4054C000F38AFF1F9882FF1FA882FF1FC882FF1FD882FF1F6082FF1F6C82FF1F5482FF1FE882FF1F6884FF1FF882FF1FFB7CC3F108037B4A1278934202D12E2002F03EFAE2
:40550000FB7C784A134493F83832184602F036FAFB7C0133FB74FB7C072BE7D9202002F02DFA714B1B78184602F028FA6F4B1B78184602F023FA0023BB7408E0BB7C6C4AE8
:40554000D35C184602F01AFABB7C0133BB74BB7C0C2BF3D9674B1B78184602F00FFA202002F00CFA00237B740AE07B7C5D4A134493F83032184602F001FA7B7C01337B74AB
:405580007B7C062BF1D9594B1B78184602F0F6F9544B012283F8692200233B7408E03B7C554AD35C184602F0E9F93B7C01333B743B7C1F2BF3D94D4B1B78184602F0DEF991
:4055C0000023FB7308E0FB7B4C4AD35C184602F0D5F9FB7B0133FB73FB7B1F2BF3D9434B1B78184602F0CAF9404B1B78184602F0C5F90023BB7308E0BB7B414AD35C18464E
:4056000002F0BCF9BB7B0133BB73BB7B1F2BF3D9364B1B78184602F0B1F900237B7308E07B7B354AD35C184602F0A8F97B7B01337B737B7B1F2BF3D92C4B1B78184602F0C5
:405640009DF900233B7308E03B7B2E4AD35C184602F094F93B7B01333B733B7B1F2BF3D9224B1B78184602F089F90023FB7208E0FB7A254AD35C184602F080F9FB7A01336E
:40568000FB72FB7A1F2BF3D9184B1B78184602F075F9164B1B78184602F070F9134B1B78184602F06BF9114B1B78184602F066F90E4B1B78184602F061F90023BB7208E080
:4056C000BB7ABA7A1149895C114AD154BB7A0133BB72BB7A052BF3D900BF5437BD4690BDAA8AFF1F9085FF1FD080FF1FCC80FF1F1883FF1F6884FF1FA084FF1FF481FF1F2C
:405700001482FF1FB481FF1FD481FF1F8885FF1FE08AFF1F90B5A3B000AF002387F887301BE0002387F885300BE097F88530C94AD35C184601F0FCFE97F88530013387F899
:40574000853097F88530052BEFD9052001F03CFD01F0A6FE034687F8873097F88730002BDFD097F887300C2B54D9002387F884300CE097F8844001F04BFE03461A46B64B92
:405780001A5597F88430013387F8843097F8842097F887309A42ECD3002387F8873039E0002387F883300BE097F88330A94AD35C184601F0BDFE97F88330013387F88330F4
:4057C00097F88330052BEFD9042001F0FDFC01F067FE034687F8873097F887300C2B19D9002387F882300CE097F8824001F010FE03461A46984B1A5597F88230013387F89E
:40580000823097F8822097F887309A42ECD3002387F88730904B1B7A002BC1D08F4B1B780133DAB28D4B1A708C4B1B788C4A82FB03121213DB17D31ADBB23033DAB2894B6A
:405840005A71864B1B781A46854B83FB02131913D317CB1A42F2107101FB03F3D31A824A82FB03129211DB17D31ADBB23033DAB27C4B1A71794B1B781A46794B83FB0213EB
:405880001913D317CB1A42F2107101FB03F3D31A754A82FB03129111DA178A1A4FF47A7101FB02F29A1A714B83FB02135911D317CB1ADBB23033DAB26A4BDA70674B1B78B7
:4058C000674A82FB03121113DA178A1A42F2107101FB02F29A1A644B83FB02139911D317CB1A4FF47A7101FB03F3D31A5F4A82FB03125111DA178A1A642101FB02F29A1A30
:405900005B4B83FB02139910D317CB1ADBB23033DAB2544B9A70514B1B78514A82FB03121113DA178A1A42F2107101FB02F29A1A4D4B83FB02139911D317CB1A4FF47A7151
:4059400001FB03F3D31A494A82FB03125111DA178A1A642101FB02F29A1A454B83FB02139910D317C91A0B469B000B445B00D11ACBB23033DAB23B4B5A70072387F88130D3
:4059800010E097F88130063B364AD35C97F8812092B21146184601F0F3FE97F88130013387F8813097F881300C2BEAD9314B1B78184601F0E3FF002387F880300BE097F8D2
:4059C00080302D4AD35C184601F0D8FF97F88030013387F8803097F880301F2BEFD9254B1B78184601F0CAFF002387F87F300BE097F87F30214AD35C184601F0BFFF97F86D
:405A00007F30013387F87F3097F87F301F2BEFD9184B1B78184601F0B1FF002387F87E300BE097F87E30164AD35C184601F0A6FF97F87E30013387F87E3097F87E301F2BF0
:405A4000EFD90C4B1B78184601F098FF002387F87D3023E0C084FF1F088BFF1FEE8AFF1FAD8BDB68E88AFF1FD34D62101F85EB5167666666CC80FF1FD480FF1FF480FF1F0F
:405A80001481FF1F97F87D30BE4AD35C184601F075FF97F87D30013387F87D3097F87D301F2BEFD9B84B1B78184601F067FF002387F87C300BE097F87C30B44AD35C1846C9
:405AC00001F05CFF97F87C30013387F87C3097F87C301F2BEFD9AC4B1B78184601F04EFF002387F87B300BE097F87B30A84AD35C184601F043FF97F87B30013387F87B3091
:405B000097F87B301F2BEFD99F4B1B78184601F035FF002387F87A300BE097F87A309D4AD35C184601F02AFF97F87A30013387F87A3097F87A300C2BEFD9974B9B791B0933
:405B4000DBB23033DBB2184601F018FF924B9B7903F00F03DBB23033DBB2184601F00EFF2F2001F00BFF8C4BDB791B09DBB23033DBB2184601F002FF874BDB7903F00F03E2
:405B8000DBB23033DBB2184601F0F8FE2F2001F0F5FE814B1B7A1B09DBB23033DBB2184601F0ECFE7C4B1B7A03F00F03DBB23033DBB2184601F0E2FE734B1B78184601F008
:405BC000DDFE002387F879300BE097F87930734AD35C184601F0D2FE97F87930013387F8793097F879300C2BEFD96B4B9B7A1B09DBB23033DBB2184601F0C0FE664B9B7A47
:405C000003F00F03DBB23033DBB2184601F0B6FE3A2001F0B3FE604BDB7A1B09DBB23033DBB2184601F0AAFE5B4BDB7A03F00F03DBB23033DBB2184601F0A0FE3A2001F096
:405C40009DFE554B1B7B1B09DBB23033DBB2184601F094FE504B1B7B03F00F03DBB23033DBB2184601F08AFE474B1B78184601F085FE002387F878300BE097F87830444A56
:405C8000D35C184601F07AFE97F87830013387F8783097F878301F2BEFD93B4B1B78184601F06CFE002387F877300BE097F877303B4AD35C184601F061FE97F8773001330B
:405CC00087F8773097F877300C2BEFD9052387F876300BE097F87630324AD35C184601F04DFE97F87630013B87F8763097F87630002BEFD1244B1B78184601F03FFE224BE6
:405D00001B78184601F03AFE002387F875300BE097F87530244AD35C184601F02FFE97F87530013387F8753097F875300C2BEFD91E4B1B783133DBB2184601F01FFE124B55
:405D40001B78184601F01AFE002387F874300BE097F87430164AD35C184601F00FFE97F87430013387F8743097F874300F2BEFD9054B1B78184601F001FE002387F87330A5
:405D800024E000BF3481FF1FCC80FF1F5481FF1FA084FF1F7882FF1F088BFF1F8882FF1F2883FF1FE88AFF1FC882FF1F9085FF1F6C84FF1F97F87330B54AD35C184601F00C
:405DC000DDFD97F87330013387F8733097F873300C2BEFD9AF4B1B78184601F0CFFD002387F872300BE097F87230AB4AD35C184601F0C4FD97F87230013387F8723097F8BF
:405E00007230082BEFD9002387F8713018E097F87130C3F10A03A14A1278934202D12E2001F0ACFD97F871309D4A134493F88330184601F0A3FD97F87130013387F8713075
:405E400097F87130092BE2D9924B1B78184601F095FD002387F870300BE097F870308C4AD35C184601F08AFD97F87030013387F8703097F870300C2BEFD9864B1B78184609
:405E800001F07CFD002387F86F300BE097F86F30844AD35C184601F071FD97F86F30013387F86F3097F86F30082BEFD9002387F86E3018E097F86E30C3F10A03774A12784A
:405EC000934202D12E2001F059FD97F86E30744A134493F8A130184601F050FD97F86E30013387F86E3097F86E30092BE2D9694B1B78184601F042FD002387F86D300BE092
:405F000097F86D30624AD35C184601F037FD97F86D30013387F86D3097F86D300C2BEFD9002387F86C300BE097F86C305E4AD35C184601F023FD97F86C30013387F86C301C
:405F400097F86C30082BEFD9002387F86B3018E097F86B30C3F10A03504A1278934202D12E2001F00BFD97F86B304D4A134493F8BF30184601F002FD97F86B30013387F80B
:405F80006B3097F86B30092BE2D9424B1B78184601F0F4FC002387F86A3010E097F86A3087F8863097F86A303D4A134493F88330002B09D197F86A30013387F86A3097F8F5
:405FC0006A30092BEAD900E000BF002387F869300BE097F86930354AD35C184601F0CEFC97F86930013387F8693097F869300F2BEFD9284B1B78184601F0C0FC002387F80B
:40600000683015E097F8684097F868309BB224339BB2184601F03EFC03461A4607F18803234403F8782C97F86830013387F8683097F86830092BE5D9002387F8673019E00C
:4060400097F86730C3F10A03144A1278934202D12E2001F093FC97F8673007F18802134413F8783C184601F089FC97F86730013387F8673097F86730092BE1D9054B1B78E2
:40608000184601F07BFC97F8863087F866303DE0D882FF1FCC80FF1F5482FF1FAA8AFF1F9085FF1F6C82FF1F6082FF1F7C84FF1F97F8662097F88630D31A97F86620CC49AD
:4060C0000A4492F8832007F188010B4403F86C2C97F8662097F88630D31A97F8662007F188010A4412F8782C07F188010B4403F8602C97F8663007F188021344002203F877
:40610000842C97F86630013387F8663097F86630092BCDD907F12803184602F073FA0346FB6307F11C03184602F06CFA0346BB63BA6BFB6BD31A7B637B6B391D0A2218466B
:4061400002F0A7FA002387F865300BE097F86530A84AD35C184601F011FC97F86530013387F8653097F86530112BEFD9A24B1B78184601F003FC002387F8643019E097F8A9
:406180006430C3F10A039D4A1278934202D12E2001F0F4FB97F8643007F18802134413F8843C184601F0EAFB97F86430013387F8643097F86430092BE1D98F4B1B78184602
:4061C00001F0DCFB002387F863300BE097F863308B4AD35C184601F0D1FB97F86330013387F8633097F863301F2BEFD9824B1B78184601F0C3FB002387F862300BE097F8BF
:406200006230804AD35C184601F0B8FB97F86230013387F8623097F862300C2BEFD9744B93F835313133DBB2184601F0A7FB724B1B78184601F0A2FB002387F861300BE05F
:4062400097F86130704AD35C184601F097FB97F86130013387F8613097F861300F2BEFD9654B1B78184601F089FB002387F860300BE097F86030654AD35C184601F07EFBB6
:4062800097F86030013387F8603097F860300C2BEFD9594B1B78184601F070FB002387F85F300BE097F85F30594AD35C184601F065FB97F85F30013387F85F3097F85F3034
:4062C000082BEFD9002387F85E3018E097F85E30C3F10A03494A1278934202D12E2001F04DFB97F85E30424A134493F8B831184601F044FB97F85E30013387F85E3097F862
:406300005E30092BE2D93C4B1B78184601F036FB002387F85D300BE097F85D303B4AD35C184601F02BFB97F85D30013387F85D3097F85D300C2BEFD92F4B1B78184601F014
:406340001DFB002387F85C300BE097F85C30314AD35C184601F012FB97F85C30013387F85C3097F85C30082BEFD9002387F85B3018E097F85B30C3F10A03204A1278934292
:4063800002D12E2001F0FAFA97F85B30184A134493F8C231184601F0F1FA97F85B30013387F85B3097F85B30092BE2D9124B1B78184601F0E3FA002387F85A300BE097F829
:4063C0005A30124AD35C184601F0D8FA97F85A30013387F85A3097F85A300C2BEFD9064B1B78184601F0CAFA002387F859301FE09085FF1F8C84FF1FCC80FF1FAA8AFF1FBB
:40640000A084FF1FC882FF1F6C84FF1FD882FF1F6082FF1F6C82FF1F97F85930D14AD35C184601F0ABFA97F85930013387F8593097F85930082BEFD9002387F8583018E041
:4064400097F85830C3F10A03C74A1278934202D12E2001F093FA97F85830C44A134493F8C231184601F08AFA97F85830013387F8583097F85830092BE2D9BD4B1B78184617
:4064800001F07CFA002387F857300BE097F85730B84AD35C184601F071FA97F85730013387F8573097F857300F2BEFD9B04B1B78184601F063FA002387F8563015E097F812
:4064C000564097F856309BB22E339BB2184601F0E1F903461A4607F18803234403F8782C97F85630013387F8563097F85630092BE5D9002387F8553019E097F85530C3F15E
:406500000A03994A1278934202D12E2001F036FA97F8553007F18802134413F8783C184601F02CFA97F85530013387F8553097F85530092BE1D98E4B1B78184601F01EFA88
:4065400097F8863087F854302DE097F8542097F88630D31A97F8542084490A4492F8B82107F188010B4403F86C2C97F8542097F88630D31A97F8542007F188010A4412F89C
:40658000782C07F188010B4403F8602C97F8543007F188021344002203F8842C97F85430013387F8543097F85430092BCDD907F12803184602F026F80346FB6307F11C03A1
:4065C000184602F01FF80346BB63BA6BFB6BD31A7B637B6B391D0A22184602F05AF8002387F853300BE097F85330634AD35C184601F0C4F997F85330013387F8533097F88C
:406600005330112BEFD95A4B1B78184601F0B6F9002387F8523019E097F85230C3F10A03514A1278934202D12E2001F0A7F997F8523007F18802134413F8843C184601F0FE
:406640009DF997F85230013387F8523097F85230092BE1D9464B1B78184601F08FF9474B1B78013B022B40F31881002387F851300BE097F85130424AD35C184601F07EF94B
:4066800097F85130013387F8513097F851301F2BEFD9374B1B78184601F070F9002387F850300BE097F85030364AD35C184601F065F997F85030013387F8503097F85030DE
:4066C0000C2BEFD9294B93F86A323133DBB2184601F054F9264B1B78184601F04FF9002387F84F3018E097F84F30C3F10A031E4A1278934202D12E2001F040F997F84F30D0
:406700001A4A134493F8ED32184601F037F997F84F30013387F84F3097F84F30092BE2D9134B1B78184601F029F9002387F84E300BE097F84E300F4AD35C184601F01EF9D0
:4067400097F84E30013387F84E3097F84E300F2BEFD9074B1B78184601F010F9002387F84D301DE05482FF1FAA8AFF1F9085FF1FCC80FF1F7C84FF1F8C84FF1FF28AFF1FAA
:40678000A084FF1FC882FF1F97F84D30AC4AD35C184601F0F3F897F84D30013387F84D3097F84D301F2BEFD9A64B1B78184601F0E5F8002387F84C300BE097F84C30A24ABA
:4067C000D35C184601F0DAF897F84C30013387F84C3097F84C300C2BEFD99C4B93F89F333133DBB2184601F0C9F8964B1B78184601F0C4F8002387F84B3018E097F84B3022
:40680000C3F10A03924A1278934202D12E2001F0B5F897F84B308D4A134493F82234184601F0ACF897F84B30013387F84B3097F84B30092BE2D9834B1B78184601F09EF81A
:40684000002387F84A300BE097F84A30814AD35C184601F093F897F84A30013387F84A3097F84A300F2BEFD9002387F849300BE097F84930724AD35C184601F07FF897F8A5
:406880004930013387F8493097F84930172BEFD96C4B1B78184601F071F8002387F848300BE097F84830664AD35C184601F066F897F84830013387F8483097F848301F2B04
:4068C000EFD9604B1B78184601F058F8002387F847300BE097F847305F4AD35C184601F04DF897F84730013387F8473097F847301F2BEFD9534B1B78184601F03FF800235B
:4069000087F846300BE097F84630544AD35C184601F034F897F84630013387F8463097F846301F2BEFD9474B1B78184601F026F8444B1B78184601F021F8424B1B7818464B
:4069400001F01CF83F4B1B78184601F017F83D4B1B78184601F012F8002387F8453013E097F84530394A134493F8832097F845309BB224339BB21946104600F001FF97F8E4
:406980004530013387F8453097F84530092BE7D9002387F8443013E097F844302B4A134493F8B82197F844309BB22E339BB21946104600F0E5FE97F84430013387F8443056
:4069C00097F84430092BE7D9002387F8433013E097F843301D4A134493F8ED2297F843309BB238339BB21946104600F0C9FE97F84330013387F8433097F84330092BE7D9AD
:406A0000002387F8423013E097F842300F4A134493F8222497F842309BB242339BB21946104600F0ADFE97F84230013387F8423097F84230092BE7D900BF8C37BD4690BD80
:406A4000A084FF1FCC80FF1FC882FF1F9085FF1FAA8AFF1F7C84FF1FB481FF1FD481FF1F80B584B000AFF860B9607A607A68B968F86801F010FE00BF1037BD4680BD00BFCF
:406A800080B483B000AF0346FB71FEE780B483B000AF434B00221A60424B10221A70424B01221A70414B00221A70414B4FF438721A80404B01221A703F4B03221A703F4B1D
:406AC0003F4A92B21A803F4B47F608021A803E4B00221A803D4B4FF480421A803C4B09221A703C4B0A221A703B4B0F221A703B4B18221A70BFF35F8F394B01221A70BFF3D1
:406B00005F8F00BF2A4B1B889BB2002BFAD100237B600DE07B68DA00324B13441946324A7B6852F823309BB20B807B6801337B607B685B2BEED9BFF35F8F294B01221A70BB
:406B4000BFF35F8F00BF294B1B78DBB203F00103002BF8D100BF264B1B78DBB203F00103002BF8D100BF234B1B78DBB203F00103002BF8D100BF204B1B78DBB203F0010383
:406B8000002BF8D100BF1D4B1B78DBB203F00103002BF8D100BF0C37BD4680BC704700BF6085FF1F00760040107000401970004000780040027800400378004004780040CD
:406BC0005000000006780040047600400676004029700040397000406970004079700040147000400C7800405C8800001870004028700040387000406870004078700040D9
:406C000080B582B000AF454B19221A80444B18221A70444B19221A80434B18221A70434B4FF49C721A80424B18221A70414B4FF49C721A80404B18221A70404B4FF49C7264
:406C40001A803F4B18221A703E4B40F209221A803D4B18221A703D4B47F22F521A803C4B19221A703B4B02221A704FF0402308221A70394B03221A70384B394A1278D2B267
:406C80001A70384B08221A80374B41F251221A800023FB7019237B6014E0FB785B00DAB2324B1B78DBB203F00103DBB21343DBB203F00303FB704FF4F07001F0D1F97B68A5
:406CC000013B7B607B68002B02D0FB78032BE4D17B68002B02D10320FFF7D2FE244B4FF480721A80224B07221A70224B00221A70214B48221A701E4B00221A701F4B022203
:406D00001A701F4A1E4B1B78DBB243F07F03DBB2137000BF0837BD4680BD00BF80400040824000408440004086400040884000408A4000408C4000408E40004090400040CD
:406D4000924000409440004096400040984000409A4000400043004000420040A1460040080100492242004020420040254200400440004006400040084000400140004027
:406D8000A243004080B483B000AF0B4B1B78FB710A4AFB7903F00703DBB21370084AFB791B09DBB21370074B44221A7000BF0C37BD4680BC704700BFCF0100496E5800405C
:406DC0006F5800407658004080B500AF72B6324A314B1B78DBB243F00403DBB21370FFF755FE2E4A2D4B1B78DBB243F00203DBB213702B4A2A4B1B78DBB243F00203DBB2A0
:406E00001370284A274B1B78DBB243F04003DBB21370254A244B1B78DBB243F01003DBB213700A2221492248FFF71AFE0A2221492148FFF715FE0A2220492148FFF710FED9
:406E40000A2220492048FFF70BFE0A221F492048FFF706FE0A221F491F48FFF701FE1F4A1E4B1B78DBB243F00803DBB213701C4B60221A70FFF7C4FE194B80221A70194BD1
:406E800001221A70FFF77EFF0E2206491648FFF7E7FD00BF80BD00BFE84600400350014013500140A0430040C2430040A421004800510040B0210048C0510040BC21004805
:406EC000F0510040C821004810510040D421004820510040E021004830510040224300400048004004000840B043004080B500AF01F08CFB03461B680C2B00D1FEE7FEE7A1
:406F000080B586B000AF224B7B61224B3B61204B7B6135E03B691B68FB603B695B68BB603B699B683B6000237B600CE0FB681A68BB681A60BB680433BB60FB680433FB606D
:406F40007B6804337B607A683B689A42EED13B69DB683B6000237B6008E0BB6800221A60BB680433BB607B6804337B607A683B689A42F2D13B6910333B617B69013B7B61C8
:406F80007B69002BC6D101F047FBF9F755FAFEE701000000188B000080B582B000AF184B184A1A60184A184B1B6843F40073136000237B600FE07B68032B04D8134A7B685C
:406FC00052F8233000E0124B12497A6841F822307B6801337B607B682F2BECD90E4B1B78DAB20E4B1A700E4B0A4A1A60FFF7ECFE0C4B00221A6000BF0837BD4680BD00BFA9
:407000000CED00E00004FA0514ED00E000000000ED6E00000080FF1FBC760040C480FF1F08ED00E0C080FF1F80B500AF064B1B78002B04D100F00AF8034B01221A7000F0EE
:4070400063F800BF80BD00BF6485FF1F80B582B000AF284A274B1B78DBB243F00203DBB21370254B1B78DBB223F07003FB71224AFB7943F03003DBB21370204A1F4B1B7852
:40708000DBB223F03003DBB213701C4A1B4B1B78DBB243F03003DBB21370184A174B1B78DBB223F00F03DBB21370144A134B1B78DBB243F00F03DBB21370642000F048F88D
:4070C000322000F055F8002000F062F80C4A0C4B1B78DBB243F00103DBB21370094A094B1B78DBB243F00103DBB2137000BF0837BD4680BD004F0040024F00400B4F00407D
:40710000A3430040014F004080B400AF0D4A0D4B1B78DBB243F00103DBB213700A4A0A4B1B78DBB243F00103DBB21370074A074B1B78DBB243F00103DBB2137000BFBD46C4
:4071400080BC7047A3430040B3430040004F004080B483B000AF0346FB71044BFA7992B21A8000BF0C37BD4680BC7047044F004080B483B000AF0346FB71044BFA7992B26A
:407180001A8000BF0C37BD4680BC7047064F004080B483B000AF0346FB71044AFB79137000BF0C37BD4680BC704700BF034F004080B483B000AF0346FB7101BE00BF0C37C3
:4071C000BD4680BC704700BF80B582B000AF786008E00C4B1B68184600F042FF7B68A3F500437B607B68B3F5004FF2D8064B1B687A6802FB03F3184600F032FF00BF083738
:40720000BD4680BDD484FF1FCC84FF1F80B582B000AF0346FB80FB88054A127802FB03F3184600F01DFF00BF0837BD4680BD00BFD084FF1F80B584B000AF03463960FB71C2
