:2000000000000000800000000000000044000000001000000C000000109000000800000058
:2000200000000000040000000020000010000000FFFF00000000000000600000000000002E
:2000400000008D00000000000C000000000000000C000000000000000000000000000100FA
:2000600002000000080000000000040000000000000001000100020000000C0080002000C2
:2000800000004500010000000000040000FF07FF4020F005080000000100040004000404A3
:2000A0000043000140A84020000000000000000000000000000000000000000000000000B4
:2000C000000000000080000000508500A301540E7A30844700710008002400410343843078
:2000E00040000000C3022C010000780020000000004008038000007F1F8060000000A0004D
:20010000000001102605000000ECC00B1BFFFFFF0000F0440C000000010000000404040483
:2001200033330001000000000000C000000040020000000000000000000000000000000056
:2001400000000000000000000000000000000000000000000000000000000000000000009F
:2001600000000000000000000000000000000000000000000000000000000000000200007D
:2001800000000001000000000000000000000000000000000000000000000000000400005A
:2001A00000000001000000000000000000000000000000000000000000000000000000003E
:2001C00000000000000020034F10300C000C551100000000000000002A0050004F14100002
:2001E0000010000080090010000000000C1C500200000000031F80003C004000020020009C
:20020000000045006302000000EB000C13FFFFFF0000F0440C0000000100040004040404D8
:2002200011110001000000000000C000000040020000000000000000000000000000000099
:2002400000000000002000000500580002000C00000500180050000D70000D500505385832
:2002600000007000000000000002000C000000000000200000483C036820031C8008288280
:20028000000000100000000000000000000000000000000000000000000000000404000046
:2002A00031000001000000000000000000000000000000000000000000000000000000000C
:2002C0000000000073000400000000004A00140073140C00000C001100000800031C14025C
:2002E000000000030010000C001000000009351000000000101F000060000F002000800043
:200300000000110012040000000C0BE025FFFFFF0000F0440C000000010004000404040448
:2003200022220001000000000000C000000040020000000000000000000000000000000076
:2003400000000000000000080053000C0020004521530E040000000000001C001C002300F0
:200360000000000000030044000A085440000300210016001A30600F0F000040080222081A
:2003800000000040040000000000040000FF07FF4020F00508000000180004000404040487
:2003A0004201000140A84020000000000000000000000000000000000000000000000000B1
:2003C00000000000000080000004230161050E000002000000040001610016000000000083
:2003E0005C0003000000080000001C000000000000058000600080011A020F040208A0003B
:2004000000000550000000000000000000000000000000000000000000000000040400007F
:20042000540000010000000000000000000000000000000000000000000000000000000067
:20044000000000008000000000260059000200000204450014002A000006000000000010FC
:2004600000370048005900269F5100209F000079097F3200184060078030070E000000A870
:20048000000004003605010002C00E0006FFFFFF62A0F0410C0000000000000004040400FE
:2004A00055030001000000000000400200103010001010120000000000000000000000001F
:2004C000000000000006000901C6002900FF000000000040000000000000000000040002D8
:2004E0000041009E0040000000030004000000BF00FF0000000700080070018000000022F6
:2005000000004000000000000000000000000000000000000000000000000213040400047A
:2005200050500001000000000000000000000000000000000000000000000000000000001A
:2005400000000000CA003410000000000002801400000000000000000000350013006C0043
:200560000300040000000000131DE400001D00000008C811F003A8100F0C000000222A0050
:2005800000000014040000000040000000FF07FF4020F0050800000001000400040404048C
:2005A0000004000140A84020000000000000000000000000000000000000000000000000EE
:2005C000000000001C000200140000001000000000000000200003000000000010000C009A
:2005E00000000000000000000C00110000000000090010001F000000000020000000000086
:2006000000004000260300000000B0CE38FFFFFF0000F0440C000000000000000400040076
:2006200000000001000000000000C0000000400200000000000000000000000000000000B7
:2006400000000000000000086F01000000010000010100002200540004000A000000000497
:200660004800240000000002000000006F0100000000000201080E0110006006000000000C
:2006800000000044650203000100E00C18FFFFFF62A0F0410C000000000002100404040449
:2006A000511100010000000000004002001030100010101200000000000000000000000013
:2006C00000000000000000000F00000204000B0103000000010000001000000204000B00D4
:2006E0000000000002000000000000010F000000000003000402080010010300080000803B
:2007000000001111000000000000000000000000000000000000000018000400040400048F
:20072000311000010000000000000000000000000000000000000000000000000000000077
:200740000000000000080900061C0043027F00000073000C001100000E0C010006040900E4
:200760000002000009000663000000100F1F00200403000000000E7C070F000000002028B8
:2007800000000000030000000000000400FF07FF4020F005080000000000000004040400E4
:2007A0001100000140A84020000000000000000000000000000000000000000000000000DF
:2007C000000000000408800067041800000C00005C002200000000637F8F00701CF3610C23
:2007E00000420400102100000863000018FF0000008C63731F103880580F806000020A2044
:20080000000000042306000000EEB0C02BFFFFFF0000F0440C0000000100000004040404D4
:2008200000550001000000000000C000000040020000000000000000000000000000000060
:20084000000000000200000000000000000000000000000000000000010000000000000095
:20086000000000000000000000000000000000000000000000000000010002000000000075
:2008800000005000030000000040000000FF07FF4020F00508000000000002110400040444
:2008A0000005000140A84020000000000000000000000000000000000000000000000000EA
:2008C000000000000000900002E72C00650018000080000000440031000000000001000EF2
:2008E000D0000D00002200510000000065E79800000000000360601888071C800A00A00014
:2009000000000404020000000004000000FF07FF4020F0050800000000000000040404005B
:200920000502000140A8402000000000000000000000000000000000000000000000000067
:2009400000000000000300840000000081000E85240041400200010030A3475400C3002CF7
:2009600071000808400003785020000043003000007A008400607F1F000080800000000A52
:20098000000040401406030002000EC024FFFFFF62A0F0410C00000000000000040404007E
:2009A00055000001000000000000400200103010001010120000000000000000000000001D
:2009C0000000000000000000004000030000010000000000001C00020010010C000C00117B
:2009E00000000020001000000014000000090010000000200000001F0140002000000200F8
:200A000000001050000000000000000000000000000000000000000000000000040400006E
:200A2000450000010000000000000000000000000000000000000000000000000000000070
:200A4000000000000037004800260059005900260910B20014002A000206450000020000C1
:200A600000040000007F00001F0000791F5100200000000018300707600E80400000002A1D
:200A800000001000120405000300E0C028FFFFFF62A0F0410C0000001C00040004040404F4
:200AA0003355000100000000000040020010301000101012000000000000000000000000E9
:200AC00000000000000001000003020400400200040400020006000902C600290041009EE1
:200AE0000000000000FF0100040000BF04FF00000200004002070470010800800200000ADC
:200B00000000100000000000000000000000000000000000000000000000021104040004A6
:200B2000333000010000000000000000000000000000000000000000000000000000000051
:200B4000000000000000000000010000000001000000000000000000000001000000000092
:200B600000000000000000000000000000000000000000000000000001010000000000086B
:200B80000000101063020000000B00CE31FFFFFF0000F0440C0000001C0004000404040459
:200BA00010340001000000000000C0000000400200000000000000000000000000000000EE
:200BC00000000000000000000000000000000000000000000F0F00000F000F380000720F20
:200BE0000072380000000000000000000000000000000000000000000F720000003C723CE0
:200C0000000000003F00000000000000000025003A0000003F0000000000000019001F00BF
:200C200039002B000000000000000000000000000000000000000000000000000000000050
:200C4000000000000000000000000000000000000000000000400000000000000000000054
:200C6000000000000000000000000000000000000000000000000000000000000000000074
:200C8000000000000000000000000000000000000000040000000000000000000000000050
:200CA0000000000000000000000000000040000000000000000000000000000000000000F4
:200CC000000000000000000000000000000000000000000000000000000000000000000014
:200CE0000000000000000000000000000000000000000000000000000000000000000000F4
:200D00000000000000000002000000000000000000000000010000000000000000000000D0
:200D2000000000000000000000008000000000000100000000000000000000000000000032
:200D400000000000000000010000800000000000000000000000000004000000000000000E
:200D600000000000000002000000000000000000000000000000000000000200000000006F
:200D8000010000000200000000000000080000000000000000000000000000000000000048
:200DA00000000000000000000000000000000001000000000000000008000000000000002A
:200DC00000000000000000000000800000000000000000000000000004000000000000008F
:200DE0000000000000000000000000000000000000000000000000000000000000000000F3
:200E00000000000001000000000000000000000000000200000000000000000000000000CF
:200E20000000000004000000000000000000000000000000000000000000000000000000AE
:200E4000000000000000000000000000000000000000000000000000000000000000000092
:200E6000000000000000000000000000000000000000000000000000000000000000000072
:200E8000000000000000000000000000000000000000000000000000000000000000000052
:200EA000000000000000080000000000000000000000000000000000080000000000000022
:200EC000000000000000000000008800000000000000000000000001000000000000000089
:200EE0000000000008000000000000000000000000000000000000000000000000000000EA
:200F00000000000000000000000000000000000000000400000000000000000000000000CD
:200F20000000000000000400000000010000000000000000000000000000000000000000AC
:200F4000000000000000000000000000000000000000000000000000000000000000000091
:200F600000000000000000000000000000000000000000000400000000000000000000006D
:200F80000000000000008800000000000000000000000000000000000000000000000000C9
:200FA000000000000000000000000000000000000000000000000000000000000000000031
:200FC000000004000000000000000000000004000000000000000000000000000000000009
:200FE0000000000003000000000000000000000000000000000000000400020002000000E6
:201000000000000000000000000000000000000000000000000000000000000000000000D0
:2010200000000000124020400020000000000010040000000014030100000000001620007C
:20104000000004001604050000000018008421000000000000002500000000004820000023
:2010600008000000000000000000140000000000000808000000000000000208000000201A
:2010800004000002000000004000000A0054000000000000A8000000000000000000000004
:2010A000000010100010000900000000002006000000000048200019001C0020048034223A
:2010C000400E015804002A00A80000000800000144000000401000000000000000000000F6
:2010E000000000004F0024000F00000000000F0007004E00600020000000C400B000000016
:2011000000000000200080000000200000000000000000000000000000000000000000000F
:201120000000000004800080000000402400010000002000A1000020000000000004090157
:2011400000000440040011120000000014A000810000000001441001000000000000150084
:2011600000000000001020000008000000511100000080000001200200002000000184107D
:20118000000000102004000000000000000000000004400800000000A000152000000000FA
:2011A000000000008000008000000040400001040000001200208000000668041030004105
:2011C000C0002002000801000000A0880000120000000040000000000000000000000000AA
:2011E000000000001D0027000F00000000000F000F0007004600040000002F0000000000FE
:201200000000000000000000000001000800000000000800000000000000000000000000BD
:201220000000000080000000200000000000A00000080000001400000000000008A0A40006
:201240000400000240002016008410000024010002090008A800000000508900400820124B
:201260000008000000001122000000000040000000000000120000000000000000000A00D7
:201280000000000004810000080000040000000000000000000000000000000000000000BD
:2012A000000000000000000000001000000000000000000000011B09000804300010142079
:2012C0000803005804088B28000000020000000000000000040008000000000000000000DE
:2012E0000000000041002C00060000000000F700FE004F000F000800000003000D00000010
:201300000000000040000000080000001000000080000000000000000000000000000000F5
:2013200000000000100000020011200000000160000001020000A800002000201204000008
:201340000019011200004860000011110005000100000088001088001000110000022040EE
:20136000000440000000021500200000002000002000000002000040000004000000080460
:2013800000000000000000000000000000000000000000000000000000000000000000004D
:2013A0000000000000000000000000000000000001000000000000000000080400200040C0
:2013C000C000040200200000220000000000000000000200000400002000000400000000DB
:2013E0000000000073008D004E0000000000AB00AE005D002F0004000000000000000000B6
:201400000000000000000000000000001000000000000000000000000000000000000000BC
:2014200000000000028000000012140000004000040002002A0000000085000000A85020F7
:2014400000100205200051020008100140280002400001020004500000000002A000000442
:201460002080200420000440000000000000022100000000004000000000000000000000E1
:201480002000001000000000000040020000000000000000000000000000000000000000DA
:2014A0000000000000100100000410081000110000000000A00108040008A0100004102045
:2014C000082960192F40820000000002000100000010200104000002020001000000000034
:2014E000000000007900A800B700000000001F008E007E000E000C000000000000000000CF
:201500000000000000000000000000000000000000000000000000000000000000000000CB
:20152000000000000000000200518100000014000000100820000500000004000011140A53
:2015400040600080000540000000004040000A00200000880000000000110040006A000039
:20156000008300000000400000008500100000000000000880000000004100000000000248
:2015800060010008000002060000008000000000000000000000000000000000000000005A
:2015A0000000000000400800001100400000000000000000000040000000880000200008A2
:2015C0008000020000000001920100000002000000010000000000400000000000000000B2
:2015E00000000000D1006600470000000000E300B0001F00B10000000000F1008D0000008C
:2016000000000000000002000200050000002400020000000000000000000000000000009B
:201620000000000000002000000084000000000000200022000000002000004000800000E4
:201640000020002500018404000008440028010200008025000050000000000000022044EA
:201660000000002200000000000040000000000000010000000000000000100000000001F6
:201680000010400A00000000400000002900000000000000500400000000000000800200B1
:2016A000200000040080000000000000400000000000480000800040000800100000042002
:2016C000280081540440001100200000000000000000008001000000000000000000000017
:2016E000000000005400E000A000000000007F000C00AF00800000000000F10080000000EB
:20170000000000000400800000000000000000000000000000000000000000000000000045
:20172000000000002C00048804000400080014000000150008000021000000400484400087
:20174000000015900001000040008A090800008000080000A0000040001008010402002061
:20176000400200000000040800000000240100010000000008000000000000000085002048
:20178000000000000002000000000000000000000000000000000000000000000000000047
:2017A000000000000000000000000000000000000000000000000040000088000038000029
:2017C000800002000000000102008A000000000000000000000000000000000000000000FA
:2017E000000000006E00E6008A00000000004500EC0097000600040000000F000100000029
:20180000000000000000800000000000000000000000080000000000000000000000000040
:2018200000000000000400010000A400410020000020800008000000200000400002206014
:20184000000080800080006000000000490000400000000000001000000203000088011071
:201860000000000000800018202000000000090000000020040000100400200100004000EE
:20188000000000000000000000000000080400010000000000140200000000000000000025
:2018A00000000000000000000040000000000000004010000080400008400020000004006C
:2018C0004116021400000818000002200000100000000400000000000010800000000000B5
:2018E0000000000075005D00A200000000000D0004000F006E002C000000080000000000B2
:201900000000000000000000000000000000010000000000000000000000000000000000C6
:201920000000000000000000000000000000000000000000000000000000000000000000A7
:20194000000000000000004000000000000000000000000000000000000000000000000047
:20196000000000000000000000000000000000000000000000000000000000000000000067
:20198000000000000000000000000000000000000000000000000000000000000000000047
:2019A000000000000000000000000020000000000000000000000000000088000038002027
:2019C000800002000000000102008A002000020000000000000000000000000000000000D6
:2019E0000000000000000000000000000000000000000000000000000000000000000000E7
:201A00000000000002000000000000000000000000000800000000000000000000000000BC
:201A2000000000001040001000160000010014080008040040200A000010821000084900AA
:201A40000000040800400044101C0000000800000042002400000008411400000800406057
:201A60000018820000000000000000040000000000000000000000000000041000000100B3
:201A8000000000000002400400000000000000000000000000000000000000000000000000
:201AA000000000000002000000000000000000000000000000000000000000000000000024
:201AC000000000000000000000000000000000000000000000000000000000000000000006
:201AE0000000000077006E00DB0000000000F200F200F60040000000000001000D000000FE
:201B00000000000000000000000000000000000000000000000000000000000000000000C5
:201B200000000000080002010818000280000A0000800008220080020180002500240101F6
:201B400008B0404000000000100000280000000001000040000000000010080600000000B6
:201B6000104108000000010000200000200800000441020800400000000008102004820076
:201B800000014018000000700000000000000000000000000000000000000000000000007C
:201BA0000000000000000000000000400000000000000000000000000000000000000000E5
:201BC000000000000000000000000000000000000000000000000000000000000000000005
:201BE00000000000E500C300FD00000000009000E000F000280030000000FF000100000088
:201C00000000000000000100000000000000000000000000000000000000000000000000C3
:201C2000000000000000000000100000000000000000000000000000000000000000000094
:201C4000000000000000000000000000000000000000000000000000000000000000000084
:201C6000000000000000000000000000000000000000000000000000000000000000000064
:201C800000000000000000100000000800000000000000000000000000000000000000002C
:201CA0000000000000100000000000100000000000000000000000080000000000000000FC
:201CC000000000000000000000000000000000000000800000000000000000000000000084
:201CE00000000000800000000000000000000000000000000000000000000000C0000000A4
:201D0000000000000000100020000000000000000000100000000000000000000000000083
:201D200000000000000000000000000000000000000000000000000800000000000000009B
:201D40000000000000000000000080000000000000000020000000001000000000000000D3
:201D6000000000000000000000000000000000000000000000000000000000000000000063
:201D8000000000000000000000000000000040000000000000000000000000000000000003
:201DA000000000000000000000000000000000000000000000000000000000001000000013
:201DC000000000000000000000000000000000000000000000000000000000000000000003
:201DE0000000000000000000000000000000000000000000000000000000000000000000E3
:201E00000000000008000000000000000000000000000000000000000000000000000000BA
:201E2000000000000000000000000002000000000000000000000008000000000800000090
:201E400000000020000000000000800220200000000000000000000200000000000000009E
:201E6000000000000000000000001000000000000000000000000000000000004000000012
:201E80000000000000001000000000000000A0000000000000000000000000000000000092
:201EA000000000000000000000000000000000000000000000000000000000000000000022
:201EC000000000000000000000000000000000000000000000000000000000000000000002
:201EE0000000000000000000000000000000000000000000000000000000000000000002E0
:201F00000000000000000000000000000000000000000000000000000000000000000000C1
:201F2000000000000000000000000000000004000000000000000008000008000800000085
:201F400000000020000000002020800200000000000000040000000000000000000000009B
:201F6000000000000000000000000000000000000000000000000000000040000000000021
:201F8000000000000000000000000000000000000000100000000000000000000000000031
:201FA000000000000000000000000000000000000000000000000000000000000000000021
:201FC0000000000000000000000000000000000000000000200004000000002000000000BD
:201FE0000000000000000000000000000000000000000000000000000000000000000000E1
:202000000000000000000000000000000000000000000000000000000000000000000000C0
:20202000000000000000000000000000000000000000000000000000000000000800000098
:202040000000000000000000002080020000000008000000000000000000000000000000D6
:202060000000000000000000000000000000000070000000000000000000000000000000F0
:20208000000000000000000000000000000000000000100000000000000000000000000030
:2020A000000000000000000000000000000000000000000000000000000000000000000020
:2020C0000000000000000000000000000000000000000000002000020000800280000000DC
:2020E0000000000000000000000000000000000000000000000000000000000000000000E0
:202100000000000000000000000000000000000000000000000000000000000000000000BF
:2021200000000000400000000000000200000000000000000000000000000000000000005D
:2021400000000000000000000000000000000000000000000000000000000000000000007F
:2021600000000000000000000000000000000000F00010000000000000000000000000005F
:2021800000000000000080000000400000000000000000000000000000000000000000007F
:2021A0000000000080000080000000000000000004000004000000000000000020001020C7
:2021C00020002000000000008400408F8B008000000000003400083632003200000000008B
:2021E000900008909000900000000000000000000000000000000000000000000000000097
:00000001FF
